{
  "contractName": "Allowance",
  "abi": [
    {
      "constant": true,
      "inputs": [
        {
          "name": "",
          "type": "uint256"
        },
        {
          "name": "",
          "type": "address"
        }
      ],
      "name": "entitiesAllowance",
      "outputs": [
        {
          "name": "name",
          "type": "string"
        },
        {
          "name": "allowance",
          "type": "uint256"
        }
      ],
      "payable": false,
      "stateMutability": "view",
      "type": "function"
    },
    {
      "constant": false,
      "inputs": [],
      "name": "renounceOwnership",
      "outputs": [],
      "payable": false,
      "stateMutability": "nonpayable",
      "type": "function"
    },
    {
      "constant": true,
      "inputs": [],
      "name": "owner",
      "outputs": [
        {
          "name": "",
          "type": "address"
        }
      ],
      "payable": false,
      "stateMutability": "view",
      "type": "function"
    },
    {
      "constant": true,
      "inputs": [],
      "name": "isOwner",
      "outputs": [
        {
          "name": "",
          "type": "bool"
        }
      ],
      "payable": false,
      "stateMutability": "view",
      "type": "function"
    },
    {
      "constant": false,
      "inputs": [
        {
          "name": "newOwner",
          "type": "address"
        }
      ],
      "name": "transferOwnership",
      "outputs": [],
      "payable": false,
      "stateMutability": "nonpayable",
      "type": "function"
    },
    {
      "anonymous": false,
      "inputs": [
        {
          "indexed": true,
          "name": "previousOwner",
          "type": "address"
        },
        {
          "indexed": true,
          "name": "newOwner",
          "type": "address"
        }
      ],
      "name": "OwnershipTransferred",
      "type": "event"
    },
    {
      "constant": false,
      "inputs": [
        {
          "name": "_entityAddress",
          "type": "address"
        },
        {
          "name": "_name",
          "type": "string"
        },
        {
          "name": "_allowance",
          "type": "uint256"
        },
        {
          "name": "_epoch",
          "type": "uint256"
        }
      ],
      "name": "addEntity",
      "outputs": [],
      "payable": false,
      "stateMutability": "nonpayable",
      "type": "function"
    },
    {
      "constant": false,
      "inputs": [
        {
          "name": "_entityAddress",
          "type": "address"
        },
        {
          "name": "_epoch",
          "type": "uint256"
        }
      ],
      "name": "removeEntity",
      "outputs": [],
      "payable": false,
      "stateMutability": "nonpayable",
      "type": "function"
    },
    {
      "constant": true,
      "inputs": [
        {
          "name": "_entityAddress",
          "type": "address"
        },
        {
          "name": "_epoch",
          "type": "uint256"
        }
      ],
      "name": "getEntityAllowance",
      "outputs": [
        {
          "name": "allowance",
          "type": "uint256"
        }
      ],
      "payable": false,
      "stateMutability": "view",
      "type": "function"
    },
    {
      "constant": true,
      "inputs": [
        {
          "name": "_entityAddress",
          "type": "address"
        },
        {
          "name": "_epoch",
          "type": "uint256"
        }
      ],
      "name": "getEntityName",
      "outputs": [
        {
          "name": "name",
          "type": "string"
        }
      ],
      "payable": false,
      "stateMutability": "view",
      "type": "function"
    },
    {
      "constant": true,
      "inputs": [
        {
          "name": "_entityAddress",
          "type": "address"
        },
        {
          "name": "_epoch",
          "type": "uint256"
        }
      ],
      "name": "getEntityNameAndAllowance",
      "outputs": [
        {
          "name": "name",
          "type": "string"
        },
        {
          "name": "allowance",
          "type": "uint256"
        }
      ],
      "payable": false,
      "stateMutability": "view",
      "type": "function"
    }
  ],
  "bytecode": "0x6080604052336000806101000a81548173ffffffffffffffffffffffffffffffffffffffff021916908373ffffffffffffffffffffffffffffffffffffffff1602179055506000809054906101000a900473ffffffffffffffffffffffffffffffffffffffff1673ffffffffffffffffffffffffffffffffffffffff16600073ffffffffffffffffffffffffffffffffffffffff167f8be0079c531659141344cd1fd0a4f28419497f9722a3daafe3b4186f6b6457e060405160405180910390a3611102806100cf6000396000f3006080604052600436106100a3576000357c0100000000000000000000000000000000000000000000000000000000900463ffffffff1680628d535a146100a85780633ded794e1461017557806347c940b114610242578063715018a6146102b15780638da5cb5b146102c85780638f32d59b1461031f578063ace6110f1461034e578063c55c3b3e146103af578063f2fde38b14610475578063f8ae5e7a146104b8575b600080fd5b3480156100b457600080fd5b506100f360048036038101908080359060200190929190803573ffffffffffffffffffffffffffffffffffffffff169060200190929190505050610505565b6040518080602001838152602001828103825284818151815260200191508051906020019080838360005b8381101561013957808201518184015260208101905061011e565b50505050905090810190601f1680156101665780820380516001836020036101000a031916815260200191505b50935050505060405180910390f35b34801561018157600080fd5b506101c0600480360381019080803573ffffffffffffffffffffffffffffffffffffffff169060200190929190803590602001909291905050506105ce565b6040518080602001838152602001828103825284818151815260200191508051906020019080838360005b838110156102065780820151818401526020810190506101eb565b50505050905090810190601f1680156102335780820380516001836020036101000a031916815260200191505b50935050505060405180910390f35b34801561024e57600080fd5b506102af600480360381019080803573ffffffffffffffffffffffffffffffffffffffff1690602001909291908035906020019082018035906020019190919293919293908035906020019092919080359060200190929190505050610720565b005b3480156102bd57600080fd5b506102c6610a3f565b005b3480156102d457600080fd5b506102dd610b11565b604051808273ffffffffffffffffffffffffffffffffffffffff1673ffffffffffffffffffffffffffffffffffffffff16815260200191505060405180910390f35b34801561032b57600080fd5b50610334610b3a565b604051808215151515815260200191505060405180910390f35b34801561035a57600080fd5b50610399600480360381019080803573ffffffffffffffffffffffffffffffffffffffff16906020019092919080359060200190929190505050610b91565b6040518082815260200191505060405180910390f35b3480156103bb57600080fd5b506103fa600480360381019080803573ffffffffffffffffffffffffffffffffffffffff16906020019092919080359060200190929190505050610bef565b6040518080602001828103825283818151815260200191508051906020019080838360005b8381101561043a57808201518184015260208101905061041f565b50505050905090810190601f1680156104675780820380516001836020036101000a031916815260200191505b509250505060405180910390f35b34801561048157600080fd5b506104b6600480360381019080803573ffffffffffffffffffffffffffffffffffffffff169060200190929190505050610ce5565b005b3480156104c457600080fd5b50610503600480360381019080803573ffffffffffffffffffffffffffffffffffffffff16906020019092919080359060200190929190505050610d04565b005b600160205281600052604060002060205280600052604060002060009150915050806000018054600181600116156101000203166002900480601f0160208091040260200160405190810160405280929190818152602001828054600181600116156101000203166002900480156105be5780601f10610593576101008083540402835291602001916105be565b820191906000526020600020905b8154815290600101906020018083116105a157829003601f168201915b5050505050908060010154905082565b606060006001600084815260200190815260200160002060008573ffffffffffffffffffffffffffffffffffffffff1673ffffffffffffffffffffffffffffffffffffffff1681526020019081526020016000206000016001600085815260200190815260200160002060008673ffffffffffffffffffffffffffffffffffffffff1673ffffffffffffffffffffffffffffffffffffffff16815260200190815260200160002060010154818054600181600116156101000203166002900480601f01602080910402602001604051908101604052809291908181526020018280546001816001161561010002031660029004801561070e5780601f106106e35761010080835404028352916020019161070e565b820191906000526020600020905b8154815290600101906020018083116106f157829003601f168201915b50505050509150915091509250929050565b610728610b11565b73ffffffffffffffffffffffffffffffffffffffff163373ffffffffffffffffffffffffffffffffffffffff161415156107ca576040517f08c379a000000000000000000000000000000000000000000000000000000000815260040180806020018281038252601f8152602001807f4d6573736167652073656e646572206973206e6f7420746865206f776e65720081525060200191505060405180910390fd5b600082141580156107dc575060648211155b1515610876576040517f08c379a000000000000000000000000000000000000000000000000000000000815260040180806020018281038252602b8152602001807f496e76616c696420616c6c6f77616e63652076616c75652e2048617320746f2081526020017f626520303c783c3d31303000000000000000000000000000000000000000000081525060400191505060405180910390fd5b606461089e600260008481526020019081526020016000205484610ead90919063ffffffff16565b1115151561093a576040517f08c379a000000000000000000000000000000000000000000000000000000000815260040180806020018281038252602c8152602001807f4e657720616c6c6f77616e636520657863656564732031303020617320746f7481526020017f616c20616c6c6f77616e6365000000000000000000000000000000000000000081525060400191505060405180910390fd5b604080519081016040528085858080601f0160208091040260200160405190810160405280939291908181526020018383808284378201915050505050508152602001838152506001600083815260200190815260200160002060008773ffffffffffffffffffffffffffffffffffffffff1673ffffffffffffffffffffffffffffffffffffffff16815260200190815260200160002060008201518160000190805190602001906109ed929190610fe9565b5060208201518160010155905050610a21826002600084815260200190815260200160002054610ead90919063ffffffff16565b60026000838152602001908152602001600020819055505050505050565b610a47610b3a565b1515610a5257600080fd5b600073ffffffffffffffffffffffffffffffffffffffff166000809054906101000a900473ffffffffffffffffffffffffffffffffffffffff1673ffffffffffffffffffffffffffffffffffffffff167f8be0079c531659141344cd1fd0a4f28419497f9722a3daafe3b4186f6b6457e060405160405180910390a360008060006101000a81548173ffffffffffffffffffffffffffffffffffffffff021916908373ffffffffffffffffffffffffffffffffffffffff160217905550565b60008060009054906101000a900473ffffffffffffffffffffffffffffffffffffffff16905090565b60008060009054906101000a900473ffffffffffffffffffffffffffffffffffffffff1673ffffffffffffffffffffffffffffffffffffffff163373ffffffffffffffffffffffffffffffffffffffff1614905090565b60006001600083815260200190815260200160002060008473ffffffffffffffffffffffffffffffffffffffff1673ffffffffffffffffffffffffffffffffffffffff16815260200190815260200160002060010154905092915050565b60606001600083815260200190815260200160002060008473ffffffffffffffffffffffffffffffffffffffff1673ffffffffffffffffffffffffffffffffffffffff1681526020019081526020016000206000018054600181600116156101000203166002900480601f016020809104026020016040519081016040528092919081815260200182805460018160011615610100020316600290048015610cd85780601f10610cad57610100808354040283529160200191610cd8565b820191906000526020600020905b815481529060010190602001808311610cbb57829003601f168201915b5050505050905092915050565b610ced610b3a565b1515610cf857600080fd5b610d0181610ece565b50565b610d0c610b11565b73ffffffffffffffffffffffffffffffffffffffff163373ffffffffffffffffffffffffffffffffffffffff16141515610dae576040517f08c379a000000000000000000000000000000000000000000000000000000000815260040180806020018281038252601f8152602001807f4d6573736167652073656e646572206973206e6f7420746865206f776e65720081525060200191505060405180910390fd5b610e276001600083815260200190815260200160002060008473ffffffffffffffffffffffffffffffffffffffff1673ffffffffffffffffffffffffffffffffffffffff168152602001908152602001600020600101546002600084815260200190815260200160002054610fc890919063ffffffff16565b60026000838152602001908152602001600020819055506001600082815260200190815260200160002060008373ffffffffffffffffffffffffffffffffffffffff1673ffffffffffffffffffffffffffffffffffffffff16815260200190815260200160002060008082016000610e9f9190611069565b600182016000905550505050565b6000808284019050838110151515610ec457600080fd5b8091505092915050565b600073ffffffffffffffffffffffffffffffffffffffff168173ffffffffffffffffffffffffffffffffffffffff1614151515610f0a57600080fd5b8073ffffffffffffffffffffffffffffffffffffffff166000809054906101000a900473ffffffffffffffffffffffffffffffffffffffff1673ffffffffffffffffffffffffffffffffffffffff167f8be0079c531659141344cd1fd0a4f28419497f9722a3daafe3b4186f6b6457e060405160405180910390a3806000806101000a81548173ffffffffffffffffffffffffffffffffffffffff021916908373ffffffffffffffffffffffffffffffffffffffff16021790555050565b600080838311151515610fda57600080fd5b82840390508091505092915050565b828054600181600116156101000203166002900490600052602060002090601f016020900481019282601f1061102a57805160ff1916838001178555611058565b82800160010185558215611058579182015b8281111561105757825182559160200191906001019061103c565b5b50905061106591906110b1565b5090565b50805460018160011615610100020316600290046000825580601f1061108f57506110ae565b601f0160209004906000526020600020908101906110ad91906110b1565b5b50565b6110d391905b808211156110cf5760008160009055506001016110b7565b5090565b905600a165627a7a723058206abb8f958dda0c8ed24d197151cbae7b5437dfb9d2eeb33141663c91223e441c0029",
  "source": "pragma solidity 0.4.24;\n\nimport \"openzeppelin-solidity/contracts/ownership/Ownable.sol\";\nimport \"openzeppelin-solidity/contracts/math/SafeMath.sol\";\nimport \"openzeppelin-solidity/contracts/token/ERC20/ERC20.sol\";\n\n/**\n* A smart-contract that keeps track of what\n* percentage of the Bounty Pool, each Entity is \n* allowed to receive.\n* An entity is a smart-contract\n*/\n\n\ncontract Allowance is Ownable {\n\tusing SafeMath for uint256;\n\n\tmapping (uint256 => mapping (address => Entity)) public entitiesAllowance;\n\t\n\t// This variable is used to keep track of the total allowance of a period\n\t// It's necessary to make sure the value never exceeds 100\t\n\tmapping (uint256 => uint256) currentTotalAllowance;\n\n\tstruct Entity {\n\t\tstring name;\n\t\tuint256 allowance;\n\t}\n\n\t/**\n    * @dev Authorized a new entity\n    * @param _entityAddress The entity's smart-contract address\n    * @param _name A human readable name that can be given to that entity\n    * @param _allowance A number from 0 to 100,which corresponds to the percentage of the bounty pool that entity is entitled to\n    * @param _epoch The period to which this allowance corresponds to\n    * TODO: Add a way to make an allowance valid for multiple periods\n    **/\n\n\n\tfunction addEntity(address _entityAddress, string _name, uint256 _allowance, uint256 _epoch) external{\n\t\trequire(msg.sender == owner(),\"Message sender is not the owner\");\n\t\trequire(_allowance != 0 && _allowance <= 100, \"Invalid allowance value. Has to be 0<x<=100\");\n\t\trequire(_allowance.add(currentTotalAllowance[_epoch]) <= 100, \"New allowance exceeds 100 as total allowance\");\n\n\t\tentitiesAllowance[_epoch][_entityAddress] = Entity(_name,_allowance);\n\t\tcurrentTotalAllowance[_epoch] = currentTotalAllowance[_epoch].add(_allowance);\n\t}\n\n\t/**\n    * @dev Removes the authorization of an entity\n    * @param _entityAddress The entity's smart-contract address\n    * @param _epoch The period to which this allowance corresponds to\n    **/\n\n\tfunction removeEntity(address _entityAddress, uint256 _epoch) external {\n\t\trequire(msg.sender == owner(),\"Message sender is not the owner\");\n\n\t\tcurrentTotalAllowance[_epoch] = currentTotalAllowance[_epoch].sub(entitiesAllowance[_epoch][_entityAddress].allowance);\n\t\tdelete entitiesAllowance[_epoch][_entityAddress];\n\t}\n\n\t/**\n    * @dev Returns the allowance % of an entity\n    * @param _entityAddress The entity's smart-contract address\n    * @param _epoch The period to which this allowance corresponds to\n    **/\n\n\tfunction getEntityAllowance (address _entityAddress, uint256 _epoch) external view returns (uint256 allowance) {\n\t\treturn entitiesAllowance[_epoch][_entityAddress].allowance;\n\t}\n\n\t/**\n    * @dev Returns the name of an entity\n    * @param _entityAddress The entity's smart-contract address\n    * @param _epoch The period to which this allowance corresponds to\n    **/\n\n\tfunction getEntityName (address _entityAddress, uint256 _epoch) external view returns (string name) {\n\t\treturn entitiesAllowance[_epoch][_entityAddress].name;\n\t}\n\n\t/**\n    * @dev Returns the allowance % of and name of an entity\n    * @param _entityAddress The entity's smart-contract address\n    * @param _epoch The period to which this allowance corresponds to\n    **/\n\n\tfunction getEntityNameAndAllowance (address _entityAddress, uint256 _epoch) external view returns (string name, uint256 allowance) {\n\t\treturn (entitiesAllowance[_epoch][_entityAddress].name, entitiesAllowance[_epoch][_entityAddress].allowance);\n\t}\n}\n",
  "sourcePath": "/Users/boss/git/frontier/trl-project/TRL/contracts/Allowance.sol",
  "compiler": {
    "name": "solc",
    "version": "0.4.24+commit.e67f0147.Emscripten.clang"
  },
  "schemaVersion": "2.0.0",
  "updatedAt": "2018-11-28T12:04:39.252Z"
}