{
  "contractName": "Allowance",
  "abi": [
    {
      "constant": true,
      "inputs": [
        {
          "name": "",
          "type": "uint256"
        },
        {
          "name": "",
          "type": "address"
        }
      ],
      "name": "entitiesAllowance",
      "outputs": [
        {
          "name": "name",
          "type": "string"
        },
        {
          "name": "allowance",
          "type": "uint256"
        }
      ],
      "payable": false,
      "stateMutability": "view",
      "type": "function"
    },
    {
      "constant": false,
      "inputs": [],
      "name": "renounceOwnership",
      "outputs": [],
      "payable": false,
      "stateMutability": "nonpayable",
      "type": "function"
    },
    {
      "constant": true,
      "inputs": [],
      "name": "owner",
      "outputs": [
        {
          "name": "",
          "type": "address"
        }
      ],
      "payable": false,
      "stateMutability": "view",
      "type": "function"
    },
    {
      "constant": true,
      "inputs": [],
      "name": "isOwner",
      "outputs": [
        {
          "name": "",
          "type": "bool"
        }
      ],
      "payable": false,
      "stateMutability": "view",
      "type": "function"
    },
    {
      "constant": false,
      "inputs": [
        {
          "name": "newOwner",
          "type": "address"
        }
      ],
      "name": "transferOwnership",
      "outputs": [],
      "payable": false,
      "stateMutability": "nonpayable",
      "type": "function"
    },
    {
      "inputs": [],
      "payable": false,
      "stateMutability": "nonpayable",
      "type": "constructor"
    },
    {
      "anonymous": false,
      "inputs": [
        {
          "indexed": true,
          "name": "previousOwner",
          "type": "address"
        },
        {
          "indexed": true,
          "name": "newOwner",
          "type": "address"
        }
      ],
      "name": "OwnershipTransferred",
      "type": "event"
    },
    {
      "constant": false,
      "inputs": [
        {
          "name": "_entityAddress",
          "type": "address"
        },
        {
          "name": "_name",
          "type": "string"
        },
        {
          "name": "_allowance",
          "type": "uint256"
        },
        {
          "name": "_epoch",
          "type": "uint256"
        }
      ],
      "name": "addEntity",
      "outputs": [],
      "payable": false,
      "stateMutability": "nonpayable",
      "type": "function"
    },
    {
      "constant": false,
      "inputs": [
        {
          "name": "_entityAddress",
          "type": "address"
        },
        {
          "name": "_epoch",
          "type": "uint256"
        }
      ],
      "name": "removeEntity",
      "outputs": [],
      "payable": false,
      "stateMutability": "nonpayable",
      "type": "function"
    },
    {
      "constant": true,
      "inputs": [
        {
          "name": "_entityAddress",
          "type": "address"
        },
        {
          "name": "_epoch",
          "type": "uint256"
        }
      ],
      "name": "getEntityAllowance",
      "outputs": [
        {
          "name": "allowance",
          "type": "uint256"
        }
      ],
      "payable": false,
      "stateMutability": "view",
      "type": "function"
    },
    {
      "constant": true,
      "inputs": [
        {
          "name": "_entityAddress",
          "type": "address"
        },
        {
          "name": "_epoch",
          "type": "uint256"
        }
      ],
      "name": "getEntityName",
      "outputs": [
        {
          "name": "name",
          "type": "string"
        }
      ],
      "payable": false,
      "stateMutability": "view",
      "type": "function"
    },
    {
      "constant": true,
      "inputs": [
        {
          "name": "_entityAddress",
          "type": "address"
        },
        {
          "name": "_epoch",
          "type": "uint256"
        }
      ],
      "name": "getEntityNameAndAllowance",
      "outputs": [
        {
          "name": "name",
          "type": "string"
        },
        {
          "name": "allowance",
          "type": "uint256"
        }
      ],
      "payable": false,
      "stateMutability": "view",
      "type": "function"
    },
    {
      "constant": false,
      "inputs": [
        {
          "name": "_entityAllowance",
          "type": "uint256"
        },
        {
          "name": "_epochPool",
          "type": "uint256"
        }
      ],
      "name": "calculateBalance",
      "outputs": [
        {
          "name": "allowance",
          "type": "uint256"
        }
      ],
      "payable": false,
      "stateMutability": "nonpayable",
      "type": "function"
    }
  ],
  "bytecode": "0x608060405234801561001057600080fd5b506000336000806101000a81548173ffffffffffffffffffffffffffffffffffffffff021916908373ffffffffffffffffffffffffffffffffffffffff1602179055506000809054906101000a900473ffffffffffffffffffffffffffffffffffffffff1673ffffffffffffffffffffffffffffffffffffffff16600073ffffffffffffffffffffffffffffffffffffffff167f8be0079c531659141344cd1fd0a4f28419497f9722a3daafe3b4186f6b6457e060405160405180910390a36103e8600381905550606490506100fe6003548261010a64010000000002610f5c179091906401000000009004565b60048190555050610148565b600080600084141561011f5760009150610141565b828402905082848281151561013057fe5b0414151561013d57600080fd5b8091505b5092915050565b6111f8806101576000396000f3006080604052600436106100ae576000357c0100000000000000000000000000000000000000000000000000000000900463ffffffff1680628d535a146100b35780633ded794e1461018057806347c940b11461024d578063715018a6146102bc5780638da5cb5b146102d35780638f32d59b1461032a578063ace6110f14610359578063c2108a92146103ba578063c55c3b3e14610405578063f2fde38b146104cb578063f8ae5e7a1461050e575b600080fd5b3480156100bf57600080fd5b506100fe60048036038101908080359060200190929190803573ffffffffffffffffffffffffffffffffffffffff16906020019092919050505061055b565b6040518080602001838152602001828103825284818151815260200191508051906020019080838360005b83811015610144578082015181840152602081019050610129565b50505050905090810190601f1680156101715780820380516001836020036101000a031916815260200191505b50935050505060405180910390f35b34801561018c57600080fd5b506101cb600480360381019080803573ffffffffffffffffffffffffffffffffffffffff16906020019092919080359060200190929190505050610624565b6040518080602001838152602001828103825284818151815260200191508051906020019080838360005b838110156102115780820151818401526020810190506101f6565b50505050905090810190601f16801561023e5780820380516001836020036101000a031916815260200191505b50935050505060405180910390f35b34801561025957600080fd5b506102ba600480360381019080803573ffffffffffffffffffffffffffffffffffffffff1690602001909291908035906020019082018035906020019190919293919293908035906020019092919080359060200190929190505050610776565b005b3480156102c857600080fd5b506102d1610a97565b005b3480156102df57600080fd5b506102e8610b69565b604051808273ffffffffffffffffffffffffffffffffffffffff1673ffffffffffffffffffffffffffffffffffffffff16815260200191505060405180910390f35b34801561033657600080fd5b5061033f610b92565b604051808215151515815260200191505060405180910390f35b34801561036557600080fd5b506103a4600480360381019080803573ffffffffffffffffffffffffffffffffffffffff16906020019092919080359060200190929190505050610be9565b6040518082815260200191505060405180910390f35b3480156103c657600080fd5b506103ef6004803603810190808035906020019092919080359060200190929190505050610c47565b6040518082815260200191505060405180910390f35b34801561041157600080fd5b50610450600480360381019080803573ffffffffffffffffffffffffffffffffffffffff16906020019092919080359060200190929190505050610c7d565b6040518080602001828103825283818151815260200191508051906020019080838360005b83811015610490578082015181840152602081019050610475565b50505050905090810190601f1680156104bd5780820380516001836020036101000a031916815260200191505b509250505060405180910390f35b3480156104d757600080fd5b5061050c600480360381019080803573ffffffffffffffffffffffffffffffffffffffff169060200190929190505050610d73565b005b34801561051a57600080fd5b50610559600480360381019080803573ffffffffffffffffffffffffffffffffffffffff16906020019092919080359060200190929190505050610d92565b005b600160205281600052604060002060205280600052604060002060009150915050806000018054600181600116156101000203166002900480601f0160208091040260200160405190810160405280929190818152602001828054600181600116156101000203166002900480156106145780601f106105e957610100808354040283529160200191610614565b820191906000526020600020905b8154815290600101906020018083116105f757829003601f168201915b5050505050908060010154905082565b606060006001600084815260200190815260200160002060008573ffffffffffffffffffffffffffffffffffffffff1673ffffffffffffffffffffffffffffffffffffffff1681526020019081526020016000206000016001600085815260200190815260200160002060008673ffffffffffffffffffffffffffffffffffffffff1673ffffffffffffffffffffffffffffffffffffffff16815260200190815260200160002060010154818054600181600116156101000203166002900480601f0160208091040260200160405190810160405280929190818152602001828054600181600116156101000203166002900480156107645780601f1061073957610100808354040283529160200191610764565b820191906000526020600020905b81548152906001019060200180831161074757829003601f168201915b50505050509150915091509250929050565b61077e610b69565b73ffffffffffffffffffffffffffffffffffffffff163373ffffffffffffffffffffffffffffffffffffffff16141515610820576040517f08c379a000000000000000000000000000000000000000000000000000000000815260040180806020018281038252601f8152602001807f4d6573736167652073656e646572206973206e6f7420746865206f776e65720081525060200191505060405180910390fd5b6000821415801561083357506004548211155b15156108cd576040517f08c379a000000000000000000000000000000000000000000000000000000000815260040180806020018281038252602f8152602001807f496e76616c696420616c6c6f77616e63652076616c75652e2048617320746f2081526020017f626520303c783c3d31303020303030000000000000000000000000000000000081525060400191505060405180910390fd5b6004546108f6600260008481526020019081526020016000205484610f3b90919063ffffffff16565b11151515610992576040517f08c379a000000000000000000000000000000000000000000000000000000000815260040180806020018281038252602c8152602001807f4e657720616c6c6f77616e636520657863656564732031303020617320746f7481526020017f616c20616c6c6f77616e6365000000000000000000000000000000000000000081525060400191505060405180910390fd5b604080519081016040528085858080601f0160208091040260200160405190810160405280939291908181526020018383808284378201915050505050508152602001838152506001600083815260200190815260200160002060008773ffffffffffffffffffffffffffffffffffffffff1673ffffffffffffffffffffffffffffffffffffffff1681526020019081526020016000206000820151816000019080519060200190610a459291906110df565b5060208201518160010155905050610a79826002600084815260200190815260200160002054610f3b90919063ffffffff16565b60026000838152602001908152602001600020819055505050505050565b610a9f610b92565b1515610aaa57600080fd5b600073ffffffffffffffffffffffffffffffffffffffff166000809054906101000a900473ffffffffffffffffffffffffffffffffffffffff1673ffffffffffffffffffffffffffffffffffffffff167f8be0079c531659141344cd1fd0a4f28419497f9722a3daafe3b4186f6b6457e060405160405180910390a360008060006101000a81548173ffffffffffffffffffffffffffffffffffffffff021916908373ffffffffffffffffffffffffffffffffffffffff160217905550565b60008060009054906101000a900473ffffffffffffffffffffffffffffffffffffffff16905090565b60008060009054906101000a900473ffffffffffffffffffffffffffffffffffffffff1673ffffffffffffffffffffffffffffffffffffffff163373ffffffffffffffffffffffffffffffffffffffff1614905090565b60006001600083815260200190815260200160002060008473ffffffffffffffffffffffffffffffffffffffff1673ffffffffffffffffffffffffffffffffffffffff16815260200190815260200160002060010154905092915050565b600080610c5d8385610f5c90919063ffffffff16565b9050610c7460045482610f9a90919063ffffffff16565b91505092915050565b60606001600083815260200190815260200160002060008473ffffffffffffffffffffffffffffffffffffffff1673ffffffffffffffffffffffffffffffffffffffff1681526020019081526020016000206000018054600181600116156101000203166002900480601f016020809104026020016040519081016040528092919081815260200182805460018160011615610100020316600290048015610d665780601f10610d3b57610100808354040283529160200191610d66565b820191906000526020600020905b815481529060010190602001808311610d4957829003601f168201915b5050505050905092915050565b610d7b610b92565b1515610d8657600080fd5b610d8f81610fc4565b50565b610d9a610b69565b73ffffffffffffffffffffffffffffffffffffffff163373ffffffffffffffffffffffffffffffffffffffff16141515610e3c576040517f08c379a000000000000000000000000000000000000000000000000000000000815260040180806020018281038252601f8152602001807f4d6573736167652073656e646572206973206e6f7420746865206f776e65720081525060200191505060405180910390fd5b610eb56001600083815260200190815260200160002060008473ffffffffffffffffffffffffffffffffffffffff1673ffffffffffffffffffffffffffffffffffffffff1681526020019081526020016000206001015460026000848152602001908152602001600020546110be90919063ffffffff16565b60026000838152602001908152602001600020819055506001600082815260200190815260200160002060008373ffffffffffffffffffffffffffffffffffffffff1673ffffffffffffffffffffffffffffffffffffffff16815260200190815260200160002060008082016000610f2d919061115f565b600182016000905550505050565b6000808284019050838110151515610f5257600080fd5b8091505092915050565b6000806000841415610f715760009150610f93565b8284029050828482811515610f8257fe5b04141515610f8f57600080fd5b8091505b5092915050565b600080600083111515610fac57600080fd5b8284811515610fb757fe5b0490508091505092915050565b600073ffffffffffffffffffffffffffffffffffffffff168173ffffffffffffffffffffffffffffffffffffffff161415151561100057600080fd5b8073ffffffffffffffffffffffffffffffffffffffff166000809054906101000a900473ffffffffffffffffffffffffffffffffffffffff1673ffffffffffffffffffffffffffffffffffffffff167f8be0079c531659141344cd1fd0a4f28419497f9722a3daafe3b4186f6b6457e060405160405180910390a3806000806101000a81548173ffffffffffffffffffffffffffffffffffffffff021916908373ffffffffffffffffffffffffffffffffffffffff16021790555050565b6000808383111515156110d057600080fd5b82840390508091505092915050565b828054600181600116156101000203166002900490600052602060002090601f016020900481019282601f1061112057805160ff191683800117855561114e565b8280016001018555821561114e579182015b8281111561114d578251825591602001919060010190611132565b5b50905061115b91906111a7565b5090565b50805460018160011615610100020316600290046000825580601f1061118557506111a4565b601f0160209004906000526020600020908101906111a391906111a7565b5b50565b6111c991905b808211156111c55760008160009055506001016111ad565b5090565b905600a165627a7a723058206529438a129753c7ecf105c0c44b55de9e8e5a8dd3a5b3e50cd5d8f00bb80e3e0029",
  "source": "pragma solidity 0.4.24;\n\nimport \"openzeppelin-solidity/contracts/ownership/Ownable.sol\";\nimport \"openzeppelin-solidity/contracts/math/SafeMath.sol\";\nimport \"openzeppelin-solidity/contracts/token/ERC20/ERC20.sol\";\n\n/**\n* A smart-contract that keeps track of what\n* percentage of the Bounty Pool, each Entity is \n* allowed to receive.\n* An entity is a smart-contract\n*/\n\n\ncontract Allowance is Ownable {\n\tusing SafeMath for uint256;\n\n\tmapping (uint256 => mapping (address => Entity)) public entitiesAllowance;\n\t\n\t// This variable is used to keep track of the total allowance of a period\n\t// It's necessary to make sure the value never exceeds 100\t\n\tmapping (uint256 => uint256) currentTotalAllowance;\n    uint256 percentageResolution;\n\tuint256 maxPercentageValue;\n\tstruct Entity {\n\t\tstring name;\n\t\tuint256 allowance;\n\t}\n\n\tconstructor (){\n       percentageResolution = 1000;\n\t   uint256 totalPercentage = 100;\n\t   maxPercentageValue = totalPercentage.mul(percentageResolution);\n\t}\n\n\t/**\n    * @dev Authorized a new entity\n    * @param _entityAddress The entity's smart-contract address\n    * @param _name A human readable name that can be given to that entity\n    * @param _allowance A number from 0 to 100,which corresponds to the percentage of the bounty pool that entity is entitled to\n    * @param _epoch The period to which this allowance corresponds to\n    * TODO: Add a way to make an allowance valid for multiple periods\n    **/\n\n\n\tfunction addEntity(address _entityAddress, string _name, uint256 _allowance, uint256 _epoch) external{\n\t\trequire(msg.sender == owner(),\"Message sender is not the owner\");\n\t\trequire(_allowance != 0 && _allowance <= maxPercentageValue, \"Invalid allowance value. Has to be 0<x<=100 000\");\n\t\trequire(_allowance.add(currentTotalAllowance[_epoch]) <= maxPercentageValue, \"New allowance exceeds 100 as total allowance\");\n\n\t\tentitiesAllowance[_epoch][_entityAddress] = Entity(_name,_allowance);\n\t\tcurrentTotalAllowance[_epoch] = currentTotalAllowance[_epoch].add(_allowance);\n\t}\n\n\t/**\n    * @dev Removes the authorization of an entity\n    * @param _entityAddress The entity's smart-contract address\n    * @param _epoch The period to which this allowance corresponds to\n    **/\n\n\tfunction removeEntity(address _entityAddress, uint256 _epoch) external {\n\t\trequire(msg.sender == owner(),\"Message sender is not the owner\");\n\n\t\tcurrentTotalAllowance[_epoch] = currentTotalAllowance[_epoch].sub(entitiesAllowance[_epoch][_entityAddress].allowance);\n\t\tdelete entitiesAllowance[_epoch][_entityAddress];\n\t}\n\n\t/**\n    * @dev Returns the allowance % of an entity\n    * @param _entityAddress The entity's smart-contract address\n    * @param _epoch The period to which this allowance corresponds to\n    **/\n\n\tfunction getEntityAllowance (address _entityAddress, uint256 _epoch) external view returns (uint256 allowance) {\n\t\treturn entitiesAllowance[_epoch][_entityAddress].allowance;\n\t}\n\n\t/**\n    * @dev Returns the name of an entity\n    * @param _entityAddress The entity's smart-contract address\n    * @param _epoch The period to which this allowance corresponds to\n    **/\n\n\tfunction getEntityName (address _entityAddress, uint256 _epoch) external view returns (string name) {\n\t\treturn entitiesAllowance[_epoch][_entityAddress].name;\n\t}\n\n\t/**\n    * @dev Returns the allowance % of and name of an entity\n    * @param _entityAddress The entity's smart-contract address\n    * @param _epoch The period to which this allowance corresponds to\n    **/\n\n\tfunction getEntityNameAndAllowance (address _entityAddress, uint256 _epoch) external view returns (string name, uint256 allowance) {\n\t\treturn (entitiesAllowance[_epoch][_entityAddress].name, entitiesAllowance[_epoch][_entityAddress].allowance);\n\t}\n\t/**\n    * @dev Pure function that converts a percentage into an absolute number of tokens\n    * @param _entityAllowance The entity's % allowance\n    * @param _epochPool Amount of tokens in the bounty pool for that period\n    **/\n\n\tfunction calculateBalance(uint256 _entityAllowance, uint256 _epochPool) public returns (uint256 allowance) {\n\t\tuint256 stepCalculation = _entityAllowance.mul(_epochPool);\n\t\treturn stepCalculation.div(maxPercentageValue);\n\t}\n}\n",
  "sourcePath": "/Users/boss/git/frontier/trl-project/TRL/contracts/Allowance.sol",
  "compiler": {
    "name": "solc",
    "version": "0.4.24+commit.e67f0147.Emscripten.clang"
  },
  "schemaVersion": "2.0.1",
  "updatedAt": "2018-12-06T19:00:53.947Z"
}