{
  "contractName": "Allowance",
  "abi": [
    {
      "constant": false,
      "inputs": [],
      "name": "renounceOwnership",
      "outputs": [],
      "payable": false,
      "stateMutability": "nonpayable",
      "type": "function"
    },
    {
      "constant": true,
      "inputs": [],
      "name": "owner",
      "outputs": [
        {
          "name": "",
          "type": "address"
        }
      ],
      "payable": false,
      "stateMutability": "view",
      "type": "function"
    },
    {
      "constant": true,
      "inputs": [],
      "name": "isOwner",
      "outputs": [
        {
          "name": "",
          "type": "bool"
        }
      ],
      "payable": false,
      "stateMutability": "view",
      "type": "function"
    },
    {
      "constant": true,
      "inputs": [
        {
          "name": "",
          "type": "address"
        }
      ],
      "name": "entitiesAllowance",
      "outputs": [
        {
          "name": "name",
          "type": "string"
        },
        {
          "name": "allowance",
          "type": "uint256"
        }
      ],
      "payable": false,
      "stateMutability": "view",
      "type": "function"
    },
    {
      "constant": false,
      "inputs": [
        {
          "name": "newOwner",
          "type": "address"
        }
      ],
      "name": "transferOwnership",
      "outputs": [],
      "payable": false,
      "stateMutability": "nonpayable",
      "type": "function"
    },
    {
      "inputs": [],
      "payable": false,
      "stateMutability": "nonpayable",
      "type": "constructor"
    },
    {
      "anonymous": false,
      "inputs": [
        {
          "indexed": true,
          "name": "previousOwner",
          "type": "address"
        },
        {
          "indexed": true,
          "name": "newOwner",
          "type": "address"
        }
      ],
      "name": "OwnershipTransferred",
      "type": "event"
    },
    {
      "constant": false,
      "inputs": [
        {
          "name": "entityAddress",
          "type": "address"
        },
        {
          "name": "name",
          "type": "string"
        },
        {
          "name": "allowance",
          "type": "uint256"
        }
      ],
      "name": "addEntity",
      "outputs": [],
      "payable": false,
      "stateMutability": "nonpayable",
      "type": "function"
    },
    {
      "constant": false,
      "inputs": [
        {
          "name": "entityAddress",
          "type": "address"
        }
      ],
      "name": "removeEntity",
      "outputs": [],
      "payable": false,
      "stateMutability": "nonpayable",
      "type": "function"
    },
    {
      "constant": true,
      "inputs": [
        {
          "name": "entityAddress",
          "type": "address"
        }
      ],
      "name": "getEntityAllowance",
      "outputs": [
        {
          "name": "allowance",
          "type": "uint256"
        }
      ],
      "payable": false,
      "stateMutability": "view",
      "type": "function"
    },
    {
      "constant": true,
      "inputs": [
        {
          "name": "entityAddress",
          "type": "address"
        }
      ],
      "name": "getEntityName",
      "outputs": [
        {
          "name": "name",
          "type": "string"
        }
      ],
      "payable": false,
      "stateMutability": "view",
      "type": "function"
    },
    {
      "constant": true,
      "inputs": [
        {
          "name": "entityAddress",
          "type": "address"
        }
      ],
      "name": "getEntityNameAndAllowance",
      "outputs": [
        {
          "name": "name",
          "type": "string"
        },
        {
          "name": "allowance",
          "type": "uint256"
        }
      ],
      "payable": false,
      "stateMutability": "view",
      "type": "function"
    }
  ],
  "bytecode": "0x608060405234801561001057600080fd5b50336000806101000a81548173ffffffffffffffffffffffffffffffffffffffff021916908373ffffffffffffffffffffffffffffffffffffffff1602179055506000809054906101000a900473ffffffffffffffffffffffffffffffffffffffff1673ffffffffffffffffffffffffffffffffffffffff16600073ffffffffffffffffffffffffffffffffffffffff167f8be0079c531659141344cd1fd0a4f28419497f9722a3daafe3b4186f6b6457e060405160405180910390a36000600281905550610fe8806100e46000396000f3006080604052600436106100a4576000357c0100000000000000000000000000000000000000000000000000000000900463ffffffff168063210510de146100a95780634d46543814610165578063674b460e146101ca578063715018a61461028d5780638da5cb5b146102a45780638f32d59b146102fb578063c37ebf191461032a578063dd18299614610381578063f1944ff6146103c4578063f2fde38b14610487575b600080fd5b3480156100b557600080fd5b506100ea600480360381019080803573ffffffffffffffffffffffffffffffffffffffff1690602001909291905050506104ca565b6040518080602001828103825283818151815260200191508051906020019080838360005b8381101561012a57808201518184015260208101905061010f565b50505050905090810190601f1680156101575780820380516001836020036101000a031916815260200191505b509250505060405180910390f35b34801561017157600080fd5b506101c8600480360381019080803573ffffffffffffffffffffffffffffffffffffffff169060200190929190803590602001908201803590602001919091929391929390803590602001909291905050506105ae565b005b3480156101d657600080fd5b5061020b600480360381019080803573ffffffffffffffffffffffffffffffffffffffff169060200190929190505050610888565b6040518080602001838152602001828103825284818151815260200191508051906020019080838360005b83811015610251578082015181840152602081019050610236565b50505050905090810190601f16801561027e5780820380516001836020036101000a031916815260200191505b50935050505060405180910390f35b34801561029957600080fd5b506102a26109b6565b005b3480156102b057600080fd5b506102b9610a88565b604051808273ffffffffffffffffffffffffffffffffffffffff1673ffffffffffffffffffffffffffffffffffffffff16815260200191505060405180910390f35b34801561030757600080fd5b50610310610ab1565b604051808215151515815260200191505060405180910390f35b34801561033657600080fd5b5061036b600480360381019080803573ffffffffffffffffffffffffffffffffffffffff169060200190929190505050610b08565b6040518082815260200191505060405180910390f35b34801561038d57600080fd5b506103c2600480360381019080803573ffffffffffffffffffffffffffffffffffffffff169060200190929190505050610b54565b005b3480156103d057600080fd5b50610405600480360381019080803573ffffffffffffffffffffffffffffffffffffffff169060200190929190505050610cb8565b6040518080602001838152602001828103825284818151815260200191508051906020019080838360005b8381101561044b578082015181840152602081019050610430565b50505050905090810190601f1680156104785780820380516001836020036101000a031916815260200191505b50935050505060405180910390f35b34801561049357600080fd5b506104c8600480360381019080803573ffffffffffffffffffffffffffffffffffffffff169060200190929190505050610d74565b005b6060600160008373ffffffffffffffffffffffffffffffffffffffff1673ffffffffffffffffffffffffffffffffffffffff1681526020019081526020016000206000018054600181600116156101000203166002900480601f0160208091040260200160405190810160405280929190818152602001828054600181600116156101000203166002900480156105a25780601f10610577576101008083540402835291602001916105a2565b820191906000526020600020905b81548152906001019060200180831161058557829003601f168201915b50505050509050919050565b6105b6610a88565b73ffffffffffffffffffffffffffffffffffffffff163373ffffffffffffffffffffffffffffffffffffffff16141515610658576040517f08c379a000000000000000000000000000000000000000000000000000000000815260040180806020018281038252601f8152602001807f4d6573736167652073656e646572206973206e6f7420746865206f776e65720081525060200191505060405180910390fd5b6000811415801561066a575060648111155b1515610704576040517f08c379a000000000000000000000000000000000000000000000000000000000815260040180806020018281038252602b8152602001807f496e76616c696420616c6c6f77616e63652076616c75652e2048617320746f2081526020017f626520303c783c3d31303000000000000000000000000000000000000000000081525060400191505060405180910390fd5b606461071b60025483610d9390919063ffffffff16565b111515156107b7576040517f08c379a000000000000000000000000000000000000000000000000000000000815260040180806020018281038252602c8152602001807f4e657720616c6c6f77616e636520657863656564732031303020617320746f7481526020017f616c20616c6c6f77616e6365000000000000000000000000000000000000000081525060400191505060405180910390fd5b604080519081016040528084848080601f016020809104026020016040519081016040528093929190818152602001838380828437820191505050505050815260200182815250600160008673ffffffffffffffffffffffffffffffffffffffff1673ffffffffffffffffffffffffffffffffffffffff1681526020019081526020016000206000820151816000019080519060200190610859929190610ecf565b506020820151816001015590505061087c81600254610d9390919063ffffffff16565b60028190555050505050565b60606000600160008473ffffffffffffffffffffffffffffffffffffffff1673ffffffffffffffffffffffffffffffffffffffff168152602001908152602001600020600001600160008573ffffffffffffffffffffffffffffffffffffffff1673ffffffffffffffffffffffffffffffffffffffff16815260200190815260200160002060010154818054600181600116156101000203166002900480601f0160208091040260200160405190810160405280929190818152602001828054600181600116156101000203166002900480156109a65780601f1061097b576101008083540402835291602001916109a6565b820191906000526020600020905b81548152906001019060200180831161098957829003601f168201915b5050505050915091509150915091565b6109be610ab1565b15156109c957600080fd5b600073ffffffffffffffffffffffffffffffffffffffff166000809054906101000a900473ffffffffffffffffffffffffffffffffffffffff1673ffffffffffffffffffffffffffffffffffffffff167f8be0079c531659141344cd1fd0a4f28419497f9722a3daafe3b4186f6b6457e060405160405180910390a360008060006101000a81548173ffffffffffffffffffffffffffffffffffffffff021916908373ffffffffffffffffffffffffffffffffffffffff160217905550565b60008060009054906101000a900473ffffffffffffffffffffffffffffffffffffffff16905090565b60008060009054906101000a900473ffffffffffffffffffffffffffffffffffffffff1673ffffffffffffffffffffffffffffffffffffffff163373ffffffffffffffffffffffffffffffffffffffff1614905090565b6000600160008373ffffffffffffffffffffffffffffffffffffffff1673ffffffffffffffffffffffffffffffffffffffff168152602001908152602001600020600101549050919050565b610b5c610a88565b73ffffffffffffffffffffffffffffffffffffffff163373ffffffffffffffffffffffffffffffffffffffff16141515610bfe576040517f08c379a000000000000000000000000000000000000000000000000000000000815260040180806020018281038252601f8152602001807f4d6573736167652073656e646572206973206e6f7420746865206f776e65720081525060200191505060405180910390fd5b610c55600160008373ffffffffffffffffffffffffffffffffffffffff1673ffffffffffffffffffffffffffffffffffffffff16815260200190815260200160002060010154600254610db490919063ffffffff16565b600281905550600160008273ffffffffffffffffffffffffffffffffffffffff1673ffffffffffffffffffffffffffffffffffffffff16815260200190815260200160002060008082016000610cab9190610f4f565b6001820160009055505050565b6001602052806000526040600020600091509050806000018054600181600116156101000203166002900480601f016020809104026020016040519081016040528092919081815260200182805460018160011615610100020316600290048015610d645780601f10610d3957610100808354040283529160200191610d64565b820191906000526020600020905b815481529060010190602001808311610d4757829003601f168201915b5050505050908060010154905082565b610d7c610ab1565b1515610d8757600080fd5b610d9081610dd5565b50565b6000808284019050838110151515610daa57600080fd5b8091505092915050565b600080838311151515610dc657600080fd5b82840390508091505092915050565b600073ffffffffffffffffffffffffffffffffffffffff168173ffffffffffffffffffffffffffffffffffffffff1614151515610e1157600080fd5b8073ffffffffffffffffffffffffffffffffffffffff166000809054906101000a900473ffffffffffffffffffffffffffffffffffffffff1673ffffffffffffffffffffffffffffffffffffffff167f8be0079c531659141344cd1fd0a4f28419497f9722a3daafe3b4186f6b6457e060405160405180910390a3806000806101000a81548173ffffffffffffffffffffffffffffffffffffffff021916908373ffffffffffffffffffffffffffffffffffffffff16021790555050565b828054600181600116156101000203166002900490600052602060002090601f016020900481019282601f10610f1057805160ff1916838001178555610f3e565b82800160010185558215610f3e579182015b82811115610f3d578251825591602001919060010190610f22565b5b509050610f4b9190610f97565b5090565b50805460018160011615610100020316600290046000825580601f10610f755750610f94565b601f016020900490600052602060002090810190610f939190610f97565b5b50565b610fb991905b80821115610fb5576000816000905550600101610f9d565b5090565b905600a165627a7a72305820498bc31b1aaf0c273ea6f47578fc3635be429f03d211a32361befa9ad837e7110029",
  "source": "pragma solidity 0.4.24;\n\nimport \"openzeppelin-solidity/contracts/ownership/Ownable.sol\";\nimport \"openzeppelin-solidity/contracts/math/SafeMath.sol\";\nimport \"openzeppelin-solidity/contracts/token/ERC20/ERC20.sol\";\n\n/**\n* A Smart contract including multiple Vaults identifiable by ID\n* Every Vault has the possibility of storing multiple ERC20 tokens\n* Don't send tokens directly to this contract using transfer or your funds may be lost, instead, use deposit.\n* Inspired by AragonOS Vault https://github.com/aragon/aragon-apps/blob/master/apps/vault/contracts/Vault.sol\n*/\n\n\ncontract Allowance is Ownable {\n    using SafeMath for uint256;\n\n    mapping (address => Entity) public entitiesAllowance;\n    \n    uint256 currentTotalAllowance;\n\n    struct Entity {\n        string name;\n        uint256 allowance;\n    }\n\n    constructor() public {\n        currentTotalAllowance = 0;\n    }\n\n    function addEntity(address entityAddress, string name, uint256 allowance) external{\n        require(msg.sender == owner(),\"Message sender is not the owner\");\n        require(allowance != 0 && allowance <= 100, \"Invalid allowance value. Has to be 0<x<=100\");\n        require(allowance.add(currentTotalAllowance) <= 100, \"New allowance exceeds 100 as total allowance\");\n\n        entitiesAllowance[entityAddress] = Entity(name,allowance);\n        currentTotalAllowance = currentTotalAllowance.add(allowance);\n    }\n\n    function removeEntity(address entityAddress) external {\n        require(msg.sender == owner(),\"Message sender is not the owner\");\n\n        currentTotalAllowance = currentTotalAllowance.sub(entitiesAllowance[entityAddress].allowance);\n        delete entitiesAllowance[entityAddress];\n    }\n\n    function getEntityAllowance (address entityAddress) external view returns (uint256 allowance) {\n        return entitiesAllowance[entityAddress].allowance;\n    }\n\n    function getEntityName (address entityAddress) external view returns (string name) {\n        return entitiesAllowance[entityAddress].name;\n    }\n\n    function getEntityNameAndAllowance (address entityAddress) external view returns (string name, uint256 allowance) {\n        return (entitiesAllowance[entityAddress].name, entitiesAllowance[entityAddress].allowance);\n    }\n}",
  "sourcePath": "/Users/boss/git/frontier/trl-project/TRL/contracts/Allowance.sol",
  "compiler": {
    "name": "solc",
    "version": "0.4.24+commit.e67f0147.Emscripten.clang"
  },
  "schemaVersion": "2.0.1",
  "updatedAt": "2018-11-13T20:25:13.576Z"
}