{
  "contractName": "Balance",
  "abi": [
    {
      "constant": false,
      "inputs": [],
      "name": "renounceOwnership",
      "outputs": [],
      "payable": false,
      "stateMutability": "nonpayable",
      "type": "function"
    },
    {
      "constant": true,
      "inputs": [],
      "name": "owner",
      "outputs": [
        {
          "name": "",
          "type": "address"
        }
      ],
      "payable": false,
      "stateMutability": "view",
      "type": "function"
    },
    {
      "constant": true,
      "inputs": [],
      "name": "isOwner",
      "outputs": [
        {
          "name": "",
          "type": "bool"
        }
      ],
      "payable": false,
      "stateMutability": "view",
      "type": "function"
    },
    {
      "constant": false,
      "inputs": [
        {
          "name": "newOwner",
          "type": "address"
        }
      ],
      "name": "transferOwnership",
      "outputs": [],
      "payable": false,
      "stateMutability": "nonpayable",
      "type": "function"
    },
    {
      "inputs": [
        {
          "name": "_TRLContractAddress",
          "type": "address"
        },
        {
          "name": "_allowanceContractAddress",
          "type": "address"
        },
        {
          "name": "_vaultContractAddress",
          "type": "address"
        }
      ],
      "payable": false,
      "stateMutability": "nonpayable",
      "type": "constructor"
    },
    {
      "anonymous": false,
      "inputs": [
        {
          "indexed": true,
          "name": "previousOwner",
          "type": "address"
        },
        {
          "indexed": true,
          "name": "newOwner",
          "type": "address"
        }
      ],
      "name": "OwnershipTransferred",
      "type": "event"
    },
    {
      "constant": false,
      "inputs": [
        {
          "name": "_entities",
          "type": "address[]"
        },
        {
          "name": "_tokenAddress",
          "type": "address"
        }
      ],
      "name": "setBalancesForEntities",
      "outputs": [],
      "payable": false,
      "stateMutability": "nonpayable",
      "type": "function"
    }
  ],
  "bytecode": "0x608060405234801561001057600080fd5b50604051606080610c21833981018060405281019080805190602001909291908051906020019092919080519060200190929190505050336000806101000a81548173ffffffffffffffffffffffffffffffffffffffff021916908373ffffffffffffffffffffffffffffffffffffffff1602179055506000809054906101000a900473ffffffffffffffffffffffffffffffffffffffff1673ffffffffffffffffffffffffffffffffffffffff16600073ffffffffffffffffffffffffffffffffffffffff167f8be0079c531659141344cd1fd0a4f28419497f9722a3daafe3b4186f6b6457e060405160405180910390a361011a610287640100000000026401000000009004565b73ffffffffffffffffffffffffffffffffffffffff163373ffffffffffffffffffffffffffffffffffffffff161415156101bc576040517f08c379a00000000000000000000000000000000000000000000000000000000081526004018080602001828103825260188152602001807f53656e646572206d75737420626520746865206f776e6572000000000000000081525060200191505060405180910390fd5b82600160006101000a81548173ffffffffffffffffffffffffffffffffffffffff021916908373ffffffffffffffffffffffffffffffffffffffff16021790555081600260006101000a81548173ffffffffffffffffffffffffffffffffffffffff021916908373ffffffffffffffffffffffffffffffffffffffff16021790555080600360006101000a81548173ffffffffffffffffffffffffffffffffffffffff021916908373ffffffffffffffffffffffffffffffffffffffff1602179055505050506102b0565b60008060009054906101000a900473ffffffffffffffffffffffffffffffffffffffff16905090565b610962806102bf6000396000f30060806040526004361061006d576000357c0100000000000000000000000000000000000000000000000000000000900463ffffffff168063715018a6146100725780638da5cb5b146100895780638f32d59b146100e0578063cb912b6f1461010f578063f2fde38b1461016a575b600080fd5b34801561007e57600080fd5b506100876101ad565b005b34801561009557600080fd5b5061009e61027f565b604051808273ffffffffffffffffffffffffffffffffffffffff1673ffffffffffffffffffffffffffffffffffffffff16815260200191505060405180910390f35b3480156100ec57600080fd5b506100f56102a8565b604051808215151515815260200191505060405180910390f35b34801561011b57600080fd5b50610168600480360381019080803590602001908201803590602001919091929391929390803573ffffffffffffffffffffffffffffffffffffffff1690602001909291905050506102ff565b005b34801561017657600080fd5b506101ab600480360381019080803573ffffffffffffffffffffffffffffffffffffffff169060200190929190505050610780565b005b6101b56102a8565b15156101c057600080fd5b600073ffffffffffffffffffffffffffffffffffffffff166000809054906101000a900473ffffffffffffffffffffffffffffffffffffffff1673ffffffffffffffffffffffffffffffffffffffff167f8be0079c531659141344cd1fd0a4f28419497f9722a3daafe3b4186f6b6457e060405160405180910390a360008060006101000a81548173ffffffffffffffffffffffffffffffffffffffff021916908373ffffffffffffffffffffffffffffffffffffffff160217905550565b60008060009054906101000a900473ffffffffffffffffffffffffffffffffffffffff16905090565b60008060009054906101000a900473ffffffffffffffffffffffffffffffffffffffff1673ffffffffffffffffffffffffffffffffffffffff163373ffffffffffffffffffffffffffffffffffffffff1614905090565b6000806000806000600a888890501015156103a8576040517f08c379a00000000000000000000000000000000000000000000000000000000081526004018080602001828103825260288152602001807f53686f756c64206e6f742070726f76696465206d6f7265207468616e2031302081526020017f656e74697469657300000000000000000000000000000000000000000000000081525060400191505060405180910390fd5b600160009054906101000a900473ffffffffffffffffffffffffffffffffffffffff1673ffffffffffffffffffffffffffffffffffffffff16630ef267436040518163ffffffff167c0100000000000000000000000000000000000000000000000000000000028152600401602060405180830381600087803b15801561042e57600080fd5b505af1158015610442573d6000803e3d6000fd5b505050506040513d602081101561045857600080fd5b81019080805190602001909291905050509450600360009054906101000a900473ffffffffffffffffffffffffffffffffffffffff1673ffffffffffffffffffffffffffffffffffffffff16630613993486886040518363ffffffff167c0100000000000000000000000000000000000000000000000000000000028152600401808381526020018273ffffffffffffffffffffffffffffffffffffffff1673ffffffffffffffffffffffffffffffffffffffff16815260200192505050602060405180830381600087803b15801561053057600080fd5b505af1158015610544573d6000803e3d6000fd5b505050506040513d602081101561055a57600080fd5b81019080805190602001909291905050509350600092505b8787905083101561077657600260009054906101000a900473ffffffffffffffffffffffffffffffffffffffff1673ffffffffffffffffffffffffffffffffffffffff1663c37ebf1989898681811015156105c957fe5b9050602002013573ffffffffffffffffffffffffffffffffffffffff166040518263ffffffff167c0100000000000000000000000000000000000000000000000000000000028152600401808273ffffffffffffffffffffffffffffffffffffffff1673ffffffffffffffffffffffffffffffffffffffff168152602001915050602060405180830381600087803b15801561066457600080fd5b505af1158015610678573d6000803e3d6000fd5b505050506040513d602081101561068e57600080fd5b810190808051906020019092919050505091506106ab828561079f565b9050806004600087815260200190815260200160002060008873ffffffffffffffffffffffffffffffffffffffff1673ffffffffffffffffffffffffffffffffffffffff16815260200190815260200160002060008a8a87818110151561070e57fe5b9050602002013573ffffffffffffffffffffffffffffffffffffffff1673ffffffffffffffffffffffffffffffffffffffff1673ffffffffffffffffffffffffffffffffffffffff168152602001908152602001600020819055508280600101935050610572565b5050505050505050565b6107886102a8565b151561079357600080fd5b61079c816107d4565b50565b6000806107b583856108ce90919063ffffffff16565b90506107cb60648261090c90919063ffffffff16565b91505092915050565b600073ffffffffffffffffffffffffffffffffffffffff168173ffffffffffffffffffffffffffffffffffffffff161415151561081057600080fd5b8073ffffffffffffffffffffffffffffffffffffffff166000809054906101000a900473ffffffffffffffffffffffffffffffffffffffff1673ffffffffffffffffffffffffffffffffffffffff167f8be0079c531659141344cd1fd0a4f28419497f9722a3daafe3b4186f6b6457e060405160405180910390a3806000806101000a81548173ffffffffffffffffffffffffffffffffffffffff021916908373ffffffffffffffffffffffffffffffffffffffff16021790555050565b60008060008414156108e35760009150610905565b82840290508284828115156108f457fe5b0414151561090157600080fd5b8091505b5092915050565b60008060008311151561091e57600080fd5b828481151561092957fe5b04905080915050929150505600a165627a7a723058208921b5a7afa01d4944c5a9dfaaa8b59e5ef5d82650e0a55b8080c3d1eea67bb10029",
  "source": "pragma solidity 0.4.24;\n\nimport \"openzeppelin-solidity/contracts/ownership/Ownable.sol\";\nimport \"openzeppelin-solidity/contracts/math/SafeMath.sol\";\nimport \"openzeppelin-solidity/contracts/token/ERC20/ERC20.sol\";\nimport \"./Allowance.sol\";\nimport \"./TRL.sol\";\nimport \"./Vault.sol\";\n\n\ncontract Balance is Ownable {\n    using SafeMath for uint256;\n\n    TRL TRLInstance;\n    Allowance AllowanceInstance;\n    Vault VaultInstance;\n\n    //        period              token             entity      balance  \n    mapping (uint256 => mapping (address => mapping(address => uint256))) entityBalanceForPeriod;\n\n    constructor (address _TRLContractAddress, address _allowanceContractAddress, address _vaultContractAddress) public {\n        require(msg.sender == owner(), \"Sender must be the owner\");\n        TRLInstance = TRL(_TRLContractAddress);\n        AllowanceInstance = Allowance(_allowanceContractAddress);\n        VaultInstance = Vault(_vaultContractAddress);\n    }\n\n    function setBalancesForEntities(address[] _entities, address _tokenAddress) external{\n        // only allow 10 at most, more will probably be an input mistake\n        require(_entities.length < 10,\"Should not provide more than 10 entities\");\n        uint256 currentPeriod = TRLInstance.height();\n        uint256 periodPool = VaultInstance.balance(currentPeriod,_tokenAddress);\n\n        for(uint256 i = 0; i<_entities.length; i++){\n            // balance(uint256 _vaultID, address _token)\n            uint256 entityAllowance = AllowanceInstance.getEntityAllowance(_entities[i]);\n            uint256 entityAbsoluteAllowance = _calculateBalance(entityAllowance, periodPool);\n\n            entityBalanceForPeriod[currentPeriod][_tokenAddress][_entities[i]] = entityAbsoluteAllowance;\n        }\n    }\n\n    function _calculateBalance(uint256 _entityAllowance, uint256 _periodPool) internal pure returns (uint256 allowance){\n        uint256 stepCalculation = _entityAllowance.mul(_periodPool);\n        return stepCalculation.div(100);\n    }\n}",
  "sourcePath": "/Users/boss/git/frontier/trl-project/TRL/contracts/Balance.sol",
  "compiler": {
    "name": "solc",
    "version": "0.4.24+commit.e67f0147.Emscripten.clang"
  },
  "schemaVersion": "2.0.1",
  "updatedAt": "2018-11-13T20:25:13.578Z"
}