{
  "contractName": "Balance",
  "abi": [
    {
      "constant": true,
      "inputs": [
        {
          "name": "",
          "type": "uint256"
        },
        {
          "name": "",
          "type": "address"
        }
      ],
      "name": "balanceStage",
      "outputs": [
        {
          "name": "",
          "type": "uint256"
        }
      ],
      "payable": false,
      "stateMutability": "view",
      "type": "function"
    },
    {
      "constant": false,
      "inputs": [],
      "name": "renounceOwnership",
      "outputs": [],
      "payable": false,
      "stateMutability": "nonpayable",
      "type": "function"
    },
    {
      "constant": true,
      "inputs": [],
      "name": "owner",
      "outputs": [
        {
          "name": "",
          "type": "address"
        }
      ],
      "payable": false,
      "stateMutability": "view",
      "type": "function"
    },
    {
      "constant": true,
      "inputs": [],
      "name": "isOwner",
      "outputs": [
        {
          "name": "",
          "type": "bool"
        }
      ],
      "payable": false,
      "stateMutability": "view",
      "type": "function"
    },
    {
      "constant": false,
      "inputs": [
        {
          "name": "newOwner",
          "type": "address"
        }
      ],
      "name": "transferOwnership",
      "outputs": [],
      "payable": false,
      "stateMutability": "nonpayable",
      "type": "function"
    },
    {
      "inputs": [
        {
          "name": "_TRLContractAddress",
          "type": "address"
        },
        {
          "name": "_allowanceContractAddress",
          "type": "address"
        },
        {
          "name": "_vaultContractAddress",
          "type": "address"
        }
      ],
      "payable": false,
      "stateMutability": "nonpayable",
      "type": "constructor"
    },
    {
      "anonymous": false,
      "inputs": [
        {
          "indexed": true,
          "name": "previousOwner",
          "type": "address"
        },
        {
          "indexed": true,
          "name": "newOwner",
          "type": "address"
        }
      ],
      "name": "OwnershipTransferred",
      "type": "event"
    },
    {
      "constant": false,
      "inputs": [
        {
          "name": "_entities",
          "type": "address[]"
        },
        {
          "name": "_tokenAddress",
          "type": "address"
        },
        {
          "name": "_period",
          "type": "uint256"
        }
      ],
      "name": "setBalancesForEntities",
      "outputs": [],
      "payable": false,
      "stateMutability": "nonpayable",
      "type": "function"
    },
    {
      "constant": false,
      "inputs": [
        {
          "name": "_entity",
          "type": "address"
        },
        {
          "name": "_tokenAddress",
          "type": "address"
        },
        {
          "name": "ammountWithdrawn",
          "type": "uint256"
        },
        {
          "name": "_period",
          "type": "uint256"
        }
      ],
      "name": "withdraw",
      "outputs": [],
      "payable": false,
      "stateMutability": "nonpayable",
      "type": "function"
    },
    {
      "constant": true,
      "inputs": [
        {
          "name": "_entity",
          "type": "address"
        },
        {
          "name": "_tokenAddress",
          "type": "address"
        },
        {
          "name": "_period",
          "type": "uint256"
        }
      ],
      "name": "getBalance",
      "outputs": [
        {
          "name": "",
          "type": "uint256"
        }
      ],
      "payable": false,
      "stateMutability": "view",
      "type": "function"
    },
    {
      "constant": true,
      "inputs": [
        {
          "name": "_entityAllowance",
          "type": "uint256"
        },
        {
          "name": "_periodPool",
          "type": "uint256"
        }
      ],
      "name": "_calculateBalance",
      "outputs": [
        {
          "name": "allowance",
          "type": "uint256"
        }
      ],
      "payable": false,
      "stateMutability": "pure",
      "type": "function"
    }
  ],
  "bytecode": "0x608060405234801561001057600080fd5b506040516060806111aa833981018060405281019080805190602001909291908051906020019092919080519060200190929190505050336000806101000a81548173ffffffffffffffffffffffffffffffffffffffff021916908373ffffffffffffffffffffffffffffffffffffffff1602179055506000809054906101000a900473ffffffffffffffffffffffffffffffffffffffff1673ffffffffffffffffffffffffffffffffffffffff16600073ffffffffffffffffffffffffffffffffffffffff167f8be0079c531659141344cd1fd0a4f28419497f9722a3daafe3b4186f6b6457e060405160405180910390a361011a610287640100000000026401000000009004565b73ffffffffffffffffffffffffffffffffffffffff163373ffffffffffffffffffffffffffffffffffffffff161415156101bc576040517f08c379a00000000000000000000000000000000000000000000000000000000081526004018080602001828103825260188152602001807f53656e646572206d75737420626520746865206f776e6572000000000000000081525060200191505060405180910390fd5b82600160006101000a81548173ffffffffffffffffffffffffffffffffffffffff021916908373ffffffffffffffffffffffffffffffffffffffff16021790555081600260006101000a81548173ffffffffffffffffffffffffffffffffffffffff021916908373ffffffffffffffffffffffffffffffffffffffff16021790555080600360006101000a81548173ffffffffffffffffffffffffffffffffffffffff021916908373ffffffffffffffffffffffffffffffffffffffff1602179055505050506102b0565b60008060009054906101000a900473ffffffffffffffffffffffffffffffffffffffff16905090565b610eeb806102bf6000396000f300608060405260043610610099576000357c0100000000000000000000000000000000000000000000000000000000900463ffffffff168063242522e91461009e5780632511c30a146100ff5780633d3f21291461016457806361e5f354146101af578063715018a6146102305780637bfe950c146102475780638da5cb5b146102be5780638f32d59b14610315578063f2fde38b14610344575b600080fd5b3480156100aa57600080fd5b506100e960048036038101908080359060200190929190803573ffffffffffffffffffffffffffffffffffffffff169060200190929190505050610387565b6040518082815260200191505060405180910390f35b34801561010b57600080fd5b50610162600480360381019080803590602001908201803590602001919091929391929390803573ffffffffffffffffffffffffffffffffffffffff169060200190929190803590602001909291905050506103ac565b005b34801561017057600080fd5b5061019960048036038101908080359060200190929190803590602001909291905050506107c6565b6040518082815260200191505060405180910390f35b3480156101bb57600080fd5b5061021a600480360381019080803573ffffffffffffffffffffffffffffffffffffffff169060200190929190803573ffffffffffffffffffffffffffffffffffffffff169060200190929190803590602001909291905050506107fb565b6040518082815260200191505060405180910390f35b34801561023c57600080fd5b50610245610894565b005b34801561025357600080fd5b506102bc600480360381019080803573ffffffffffffffffffffffffffffffffffffffff169060200190929190803573ffffffffffffffffffffffffffffffffffffffff1690602001909291908035906020019092919080359060200190929190505050610966565b005b3480156102ca57600080fd5b506102d3610c9d565b604051808273ffffffffffffffffffffffffffffffffffffffff1673ffffffffffffffffffffffffffffffffffffffff16815260200191505060405180910390f35b34801561032157600080fd5b5061032a610cc6565b604051808215151515815260200191505060405180910390f35b34801561035057600080fd5b50610385600480360381019080803573ffffffffffffffffffffffffffffffffffffffff169060200190929190505050610d1d565b005b6005602052816000526040600020602052806000526040600020600091509150505481565b600080600080600a88889050101515610453576040517f08c379a00000000000000000000000000000000000000000000000000000000081526004018080602001828103825260288152602001807f53686f756c64206e6f742070726f76696465206d6f7265207468616e2031302081526020017f656e74697469657300000000000000000000000000000000000000000000000081525060400191505060405180910390fd5b600360009054906101000a900473ffffffffffffffffffffffffffffffffffffffff1673ffffffffffffffffffffffffffffffffffffffff16630613993486886040518363ffffffff167c0100000000000000000000000000000000000000000000000000000000028152600401808381526020018273ffffffffffffffffffffffffffffffffffffffff1673ffffffffffffffffffffffffffffffffffffffff16815260200192505050602060405180830381600087803b15801561051857600080fd5b505af115801561052c573d6000803e3d6000fd5b505050506040513d602081101561054257600080fd5b81019080805190602001909291905050509350600092505b878790508310156107bc57600260009054906101000a900473ffffffffffffffffffffffffffffffffffffffff1673ffffffffffffffffffffffffffffffffffffffff1663ace6110f89898681811015156105b157fe5b9050602002013573ffffffffffffffffffffffffffffffffffffffff16876040518363ffffffff167c0100000000000000000000000000000000000000000000000000000000028152600401808373ffffffffffffffffffffffffffffffffffffffff1673ffffffffffffffffffffffffffffffffffffffff16815260200182815260200192505050602060405180830381600087803b15801561065457600080fd5b505af1158015610668573d6000803e3d6000fd5b505050506040513d602081101561067e57600080fd5b8101908080519060200190929190505050915061069b82856107c6565b9050806004600087815260200190815260200160002060008873ffffffffffffffffffffffffffffffffffffffff1673ffffffffffffffffffffffffffffffffffffffff16815260200190815260200160002060008a8a8781811015156106fe57fe5b9050602002013573ffffffffffffffffffffffffffffffffffffffff1673ffffffffffffffffffffffffffffffffffffffff1673ffffffffffffffffffffffffffffffffffffffff1681526020019081526020016000208190555060016005600087815260200190815260200160002060008873ffffffffffffffffffffffffffffffffffffffff1673ffffffffffffffffffffffffffffffffffffffff16815260200190815260200160002081905550828060010193505061055a565b5050505050505050565b6000806107dc8385610d3c90919063ffffffff16565b90506107f2606482610d7a90919063ffffffff16565b91505092915050565b60006004600083815260200190815260200160002060008473ffffffffffffffffffffffffffffffffffffffff1673ffffffffffffffffffffffffffffffffffffffff16815260200190815260200160002060008573ffffffffffffffffffffffffffffffffffffffff1673ffffffffffffffffffffffffffffffffffffffff1681526020019081526020016000205490509392505050565b61089c610cc6565b15156108a757600080fd5b600073ffffffffffffffffffffffffffffffffffffffff166000809054906101000a900473ffffffffffffffffffffffffffffffffffffffff1673ffffffffffffffffffffffffffffffffffffffff167f8be0079c531659141344cd1fd0a4f28419497f9722a3daafe3b4186f6b6457e060405160405180910390a360008060006101000a81548173ffffffffffffffffffffffffffffffffffffffff021916908373ffffffffffffffffffffffffffffffffffffffff160217905550565b6000610970610c9d565b73ffffffffffffffffffffffffffffffffffffffff163373ffffffffffffffffffffffffffffffffffffffff1614806109d457508473ffffffffffffffffffffffffffffffffffffffff163373ffffffffffffffffffffffffffffffffffffffff16145b1515610a6e576040517f08c379a00000000000000000000000000000000000000000000000000000000081526004018080602001828103825260248152602001807f4f6e6c7920746865206f776e65722063616e207570646174652074686973207681526020017f616c75650000000000000000000000000000000000000000000000000000000081525060400191505060405180910390fd5b6004600083815260200190815260200160002060008573ffffffffffffffffffffffffffffffffffffffff1673ffffffffffffffffffffffffffffffffffffffff16815260200190815260200160002060008673ffffffffffffffffffffffffffffffffffffffff1673ffffffffffffffffffffffffffffffffffffffff168152602001908152602001600020549050808311151515610b9c576040517f08c379a00000000000000000000000000000000000000000000000000000000081526004018080602001828103825260288152602001807f547279696e6720746f207769746864726177206d6f7265207468616e2074686581526020017f2062616c616e636500000000000000000000000000000000000000000000000081525060400191505060405180910390fd5b610baf8382610da490919063ffffffff16565b6004600084815260200190815260200160002060008673ffffffffffffffffffffffffffffffffffffffff1673ffffffffffffffffffffffffffffffffffffffff16815260200190815260200160002060008773ffffffffffffffffffffffffffffffffffffffff1673ffffffffffffffffffffffffffffffffffffffff1681526020019081526020016000208190555060026005600084815260200190815260200160002060008673ffffffffffffffffffffffffffffffffffffffff1673ffffffffffffffffffffffffffffffffffffffff168152602001908152602001600020819055505050505050565b60008060009054906101000a900473ffffffffffffffffffffffffffffffffffffffff16905090565b60008060009054906101000a900473ffffffffffffffffffffffffffffffffffffffff1673ffffffffffffffffffffffffffffffffffffffff163373ffffffffffffffffffffffffffffffffffffffff1614905090565b610d25610cc6565b1515610d3057600080fd5b610d3981610dc5565b50565b6000806000841415610d515760009150610d73565b8284029050828482811515610d6257fe5b04141515610d6f57600080fd5b8091505b5092915050565b600080600083111515610d8c57600080fd5b8284811515610d9757fe5b0490508091505092915050565b600080838311151515610db657600080fd5b82840390508091505092915050565b600073ffffffffffffffffffffffffffffffffffffffff168173ffffffffffffffffffffffffffffffffffffffff1614151515610e0157600080fd5b8073ffffffffffffffffffffffffffffffffffffffff166000809054906101000a900473ffffffffffffffffffffffffffffffffffffffff1673ffffffffffffffffffffffffffffffffffffffff167f8be0079c531659141344cd1fd0a4f28419497f9722a3daafe3b4186f6b6457e060405160405180910390a3806000806101000a81548173ffffffffffffffffffffffffffffffffffffffff021916908373ffffffffffffffffffffffffffffffffffffffff160217905550505600a165627a7a72305820c830db380e4e5fd5c81fd6a5457d541af2d1b95648e45afa2328a4ad5741be290029",
  "source": "pragma solidity 0.4.24;\n\nimport \"openzeppelin-solidity/contracts/ownership/Ownable.sol\";\nimport \"openzeppelin-solidity/contracts/math/SafeMath.sol\";\nimport \"openzeppelin-solidity/contracts/token/ERC20/ERC20.sol\";\nimport \"./Allowance.sol\";\nimport \"./TRL.sol\";\nimport \"./Vault.sol\";\n\n\ncontract Balance is Ownable {\n\t\tusing SafeMath for uint256;\n\n\t\tTRL TRLInstance;\n\t\tAllowance AllowanceInstance;\n\t\tVault VaultInstance;\n\n\t\t//        period              token             entity      balance  \n\t\tmapping (uint256 => mapping (address => mapping(address => uint256))) entityBalanceForPeriod;\n\t\tmapping (uint256 => mapping (address => uint256)) public balanceStage; // 0= unset , 1= set, 2= changed\n\n\t\tconstructor (address _TRLContractAddress, address _allowanceContractAddress, address _vaultContractAddress) public {\n\t\t\t\trequire(msg.sender == owner(), \"Sender must be the owner\");\n\t\t\t\tTRLInstance = TRL(_TRLContractAddress);\n\t\t\t\tAllowanceInstance = Allowance(_allowanceContractAddress);\n\t\t\t\tVaultInstance = Vault(_vaultContractAddress);\n\t\t}\n\n\t\t// anyone can call this function\n\t\tfunction setBalancesForEntities(address[] _entities, address _tokenAddress, uint256 _period) external{\n\t\t\t\t// only allow 10 at most, more will probably be an input mistake\n\t\t\t\trequire(_entities.length < 10,\"Should not provide more than 10 entities\");\n\t\t\t\t// Getting the ammount of tokens in the Bounty Poll\n\t\t\t\tuint256 periodPool = VaultInstance.balance(_period,_tokenAddress);\n\n\t\t\t\t//Calculate the balance for each entity, based on its allowance\n\t\t\t\tfor(uint256 i = 0; i<_entities.length; i++){\n\t\t\t\t\t\t// Get the entity's allowance in Percentage form\n\t\t\t\t\t\tuint256 entityAllowance = AllowanceInstance.getEntityAllowance(_entities[i], _period);\n\t\t\t\t\t\t// Get the entity's allowance in number of Tokens, based on the ammount\n\t\t\t\t\t\t// of tokens in the bounty pool\n\t\t\t\t\t\tuint256 entityAbsoluteAllowance = _calculateBalance(entityAllowance, periodPool);\n\t\t\t\t\t\t// Set the entity's balance for the current period as the number of Tokens\n\t\t\t\t\t\tentityBalanceForPeriod[_period][_tokenAddress][_entities[i]] = entityAbsoluteAllowance;\n\t\t\t\t\t\t// Set the balance stage flag to 1, meaning \"set\".\n\t\t\t\t\t\t// \"set\" means the balance has been calculated and had not been changed.\n\t\t\t\t\t\tbalanceStage[_period][_tokenAddress] = 1;\n\t\t\t\t}\n\t\t}\n\t\t// updates the balance after a withdrawal\n\t\tfunction withdraw(address _entity, address _tokenAddress, uint256 ammountWithdrawn, uint256 _period) external {\n\t\t\t\t// check that it's the owner calling the function    \n\t\t\t\trequire(msg.sender == owner() || msg.sender == _entity,\"Only the owner can update this value\");\n\t\t\t\t// Get the current balance of this entity, in number of tokens\n\t\t\t\tuint256 currentBalance = entityBalanceForPeriod[_period][_tokenAddress][_entity];\n\t\t\t\t// Check that it's not withdrawing more than it has\n\t\t\t\trequire(ammountWithdrawn <= currentBalance, \"Trying to withdraw more than the balance\");\n\t\t\t\t// Update the entity's balance\n\t\t\t\tentityBalanceForPeriod[_period][_tokenAddress][_entity] = currentBalance.sub(ammountWithdrawn);\n\t\t\t\t// Set the balance stage flag to 2, meaning \"changed\".\n\t\t\t\t// \"changed\" means the balance has been changed after it was set.    \n\t\t\t\tbalanceStage[_period][_tokenAddress] = 2;\n\t\t}\n\t\t// Get balance for current period\n\t\t/*\n\t\tfunction getBalance (address _entity, address _tokenAddress) view external returns (uint256){\n\t\t\t\tuint256 currentPeriod = TRLInstance.height();\n\t\t\t\treturn entityBalanceForPeriod[currentPeriod][_tokenAddress][_entity];\n\t\t}*/\n\n\t\t// Get balance for specific period\n\t\t\n\t\t   function getBalance (address _entity, address _tokenAddress, uint256 _period) view external returns (uint256){\n\t\t   \treturn entityBalanceForPeriod[_period][_tokenAddress][_entity];\n\t\t   }\n\n\n\t\t//Returns the number of tokens, based on the percentage share of the bounty pool tokens \n\t\tfunction _calculateBalance(uint256 _entityAllowance, uint256 _periodPool) public pure returns (uint256 allowance){\n\t\t\t\tuint256 stepCalculation = _entityAllowance.mul(_periodPool);\n\t\t\t\treturn stepCalculation.div(100);\n\t\t}\n}\n",
  "sourcePath": "/Users/boss/git/frontier/trl-project/TRL/contracts/Balance.sol",
  "compiler": {
    "name": "solc",
    "version": "0.4.24+commit.e67f0147.Emscripten.clang"
  },
  "schemaVersion": "2.0.1",
  "updatedAt": "2018-11-22T12:54:35.975Z"
}