{
  "contractName": "Balance",
  "abi": [
    {
      "constant": true,
      "inputs": [
        {
          "name": "",
          "type": "uint256"
        },
        {
          "name": "",
          "type": "address"
        }
      ],
      "name": "balanceStage",
      "outputs": [
        {
          "name": "",
          "type": "uint256"
        }
      ],
      "payable": false,
      "stateMutability": "view",
      "type": "function"
    },
    {
      "constant": false,
      "inputs": [],
      "name": "renounceOwnership",
      "outputs": [],
      "payable": false,
      "stateMutability": "nonpayable",
      "type": "function"
    },
    {
      "constant": true,
      "inputs": [],
      "name": "owner",
      "outputs": [
        {
          "name": "",
          "type": "address"
        }
      ],
      "payable": false,
      "stateMutability": "view",
      "type": "function"
    },
    {
      "constant": true,
      "inputs": [],
      "name": "isOwner",
      "outputs": [
        {
          "name": "",
          "type": "bool"
        }
      ],
      "payable": false,
      "stateMutability": "view",
      "type": "function"
    },
    {
      "constant": false,
      "inputs": [
        {
          "name": "newOwner",
          "type": "address"
        }
      ],
      "name": "transferOwnership",
      "outputs": [],
      "payable": false,
      "stateMutability": "nonpayable",
      "type": "function"
    },
    {
      "inputs": [
        {
          "name": "_TRLContractAddress",
          "type": "address"
        },
        {
          "name": "_allowanceContractAddress",
          "type": "address"
        },
        {
          "name": "_vaultContractAddress",
          "type": "address"
        }
      ],
      "payable": false,
      "stateMutability": "nonpayable",
      "type": "constructor"
    },
    {
      "anonymous": false,
      "inputs": [
        {
          "indexed": true,
          "name": "previousOwner",
          "type": "address"
        },
        {
          "indexed": true,
          "name": "newOwner",
          "type": "address"
        }
      ],
      "name": "OwnershipTransferred",
      "type": "event"
    },
    {
      "constant": false,
      "inputs": [
        {
          "name": "_entities",
          "type": "address[]"
        },
        {
          "name": "_tokenAddress",
          "type": "address"
        }
      ],
      "name": "setBalancesForEntities",
      "outputs": [],
      "payable": false,
      "stateMutability": "nonpayable",
      "type": "function"
    },
    {
      "constant": false,
      "inputs": [
        {
          "name": "_entity",
          "type": "address"
        },
        {
          "name": "_tokenAddress",
          "type": "address"
        },
        {
          "name": "ammountWithdrawn",
          "type": "uint256"
        }
      ],
      "name": "withdraw",
      "outputs": [],
      "payable": false,
      "stateMutability": "nonpayable",
      "type": "function"
    },
    {
      "constant": true,
      "inputs": [
        {
          "name": "_entity",
          "type": "address"
        },
        {
          "name": "_tokenAddress",
          "type": "address"
        }
      ],
      "name": "getBalance",
      "outputs": [
        {
          "name": "",
          "type": "uint256"
        }
      ],
      "payable": false,
      "stateMutability": "view",
      "type": "function"
    },
    {
      "constant": true,
      "inputs": [
        {
          "name": "_entityAllowance",
          "type": "uint256"
        },
        {
          "name": "_periodPool",
          "type": "uint256"
        }
      ],
      "name": "_calculateBalance",
      "outputs": [
        {
          "name": "allowance",
          "type": "uint256"
        }
      ],
      "payable": false,
      "stateMutability": "pure",
      "type": "function"
    }
  ],
  "bytecode": "0x608060405234801561001057600080fd5b506040516060806113d1833981018060405281019080805190602001909291908051906020019092919080519060200190929190505050336000806101000a81548173ffffffffffffffffffffffffffffffffffffffff021916908373ffffffffffffffffffffffffffffffffffffffff1602179055506000809054906101000a900473ffffffffffffffffffffffffffffffffffffffff1673ffffffffffffffffffffffffffffffffffffffff16600073ffffffffffffffffffffffffffffffffffffffff167f8be0079c531659141344cd1fd0a4f28419497f9722a3daafe3b4186f6b6457e060405160405180910390a361011a610287640100000000026401000000009004565b73ffffffffffffffffffffffffffffffffffffffff163373ffffffffffffffffffffffffffffffffffffffff161415156101bc576040517f08c379a00000000000000000000000000000000000000000000000000000000081526004018080602001828103825260188152602001807f53656e646572206d75737420626520746865206f776e6572000000000000000081525060200191505060405180910390fd5b82600160006101000a81548173ffffffffffffffffffffffffffffffffffffffff021916908373ffffffffffffffffffffffffffffffffffffffff16021790555081600260006101000a81548173ffffffffffffffffffffffffffffffffffffffff021916908373ffffffffffffffffffffffffffffffffffffffff16021790555080600360006101000a81548173ffffffffffffffffffffffffffffffffffffffff021916908373ffffffffffffffffffffffffffffffffffffffff1602179055505050506102b0565b60008060009054906101000a900473ffffffffffffffffffffffffffffffffffffffff16905090565b611112806102bf6000396000f300608060405260043610610099576000357c0100000000000000000000000000000000000000000000000000000000900463ffffffff168063242522e91461009e5780633d3f2129146100ff578063715018a61461014a5780638da5cb5b146101615780638f32d59b146101b8578063cb912b6f146101e7578063d4fac45d14610242578063d9caed12146102b9578063f2fde38b14610326575b600080fd5b3480156100aa57600080fd5b506100e960048036038101908080359060200190929190803573ffffffffffffffffffffffffffffffffffffffff169060200190929190505050610369565b6040518082815260200191505060405180910390f35b34801561010b57600080fd5b50610134600480360381019080803590602001909291908035906020019092919050505061038e565b6040518082815260200191505060405180910390f35b34801561015657600080fd5b5061015f6103c3565b005b34801561016d57600080fd5b50610176610495565b604051808273ffffffffffffffffffffffffffffffffffffffff1673ffffffffffffffffffffffffffffffffffffffff16815260200191505060405180910390f35b3480156101c457600080fd5b506101cd6104be565b604051808215151515815260200191505060405180910390f35b3480156101f357600080fd5b50610240600480360381019080803590602001908201803590602001919091929391929390803573ffffffffffffffffffffffffffffffffffffffff169060200190929190505050610515565b005b34801561024e57600080fd5b506102a3600480360381019080803573ffffffffffffffffffffffffffffffffffffffff169060200190929190803573ffffffffffffffffffffffffffffffffffffffff1690602001909291905050506109ec565b6040518082815260200191505060405180910390f35b3480156102c557600080fd5b50610324600480360381019080803573ffffffffffffffffffffffffffffffffffffffff169060200190929190803573ffffffffffffffffffffffffffffffffffffffff16906020019092919080359060200190929190505050610b49565b005b34801561033257600080fd5b50610367600480360381019080803573ffffffffffffffffffffffffffffffffffffffff169060200190929190505050610f44565b005b6005602052816000526040600020602052806000526040600020600091509150505481565b6000806103a48385610f6390919063ffffffff16565b90506103ba606482610fa190919063ffffffff16565b91505092915050565b6103cb6104be565b15156103d657600080fd5b600073ffffffffffffffffffffffffffffffffffffffff166000809054906101000a900473ffffffffffffffffffffffffffffffffffffffff1673ffffffffffffffffffffffffffffffffffffffff167f8be0079c531659141344cd1fd0a4f28419497f9722a3daafe3b4186f6b6457e060405160405180910390a360008060006101000a81548173ffffffffffffffffffffffffffffffffffffffff021916908373ffffffffffffffffffffffffffffffffffffffff160217905550565b60008060009054906101000a900473ffffffffffffffffffffffffffffffffffffffff16905090565b60008060009054906101000a900473ffffffffffffffffffffffffffffffffffffffff1673ffffffffffffffffffffffffffffffffffffffff163373ffffffffffffffffffffffffffffffffffffffff1614905090565b6000806000806000600a888890501015156105be576040517f08c379a00000000000000000000000000000000000000000000000000000000081526004018080602001828103825260288152602001807f53686f756c64206e6f742070726f76696465206d6f7265207468616e2031302081526020017f656e74697469657300000000000000000000000000000000000000000000000081525060400191505060405180910390fd5b600160009054906101000a900473ffffffffffffffffffffffffffffffffffffffff1673ffffffffffffffffffffffffffffffffffffffff16630ef267436040518163ffffffff167c0100000000000000000000000000000000000000000000000000000000028152600401602060405180830381600087803b15801561064457600080fd5b505af1158015610658573d6000803e3d6000fd5b505050506040513d602081101561066e57600080fd5b81019080805190602001909291905050509450600360009054906101000a900473ffffffffffffffffffffffffffffffffffffffff1673ffffffffffffffffffffffffffffffffffffffff16630613993486886040518363ffffffff167c0100000000000000000000000000000000000000000000000000000000028152600401808381526020018273ffffffffffffffffffffffffffffffffffffffff1673ffffffffffffffffffffffffffffffffffffffff16815260200192505050602060405180830381600087803b15801561074657600080fd5b505af115801561075a573d6000803e3d6000fd5b505050506040513d602081101561077057600080fd5b81019080805190602001909291905050509350600092505b878790508310156109e257600260009054906101000a900473ffffffffffffffffffffffffffffffffffffffff1673ffffffffffffffffffffffffffffffffffffffff1663c37ebf1989898681811015156107df57fe5b9050602002013573ffffffffffffffffffffffffffffffffffffffff166040518263ffffffff167c0100000000000000000000000000000000000000000000000000000000028152600401808273ffffffffffffffffffffffffffffffffffffffff1673ffffffffffffffffffffffffffffffffffffffff168152602001915050602060405180830381600087803b15801561087a57600080fd5b505af115801561088e573d6000803e3d6000fd5b505050506040513d60208110156108a457600080fd5b810190808051906020019092919050505091506108c1828561038e565b9050806004600087815260200190815260200160002060008873ffffffffffffffffffffffffffffffffffffffff1673ffffffffffffffffffffffffffffffffffffffff16815260200190815260200160002060008a8a87818110151561092457fe5b9050602002013573ffffffffffffffffffffffffffffffffffffffff1673ffffffffffffffffffffffffffffffffffffffff1673ffffffffffffffffffffffffffffffffffffffff1681526020019081526020016000208190555060016005600087815260200190815260200160002060008873ffffffffffffffffffffffffffffffffffffffff1673ffffffffffffffffffffffffffffffffffffffff168152602001908152602001600020819055508280600101935050610788565b5050505050505050565b600080600160009054906101000a900473ffffffffffffffffffffffffffffffffffffffff1673ffffffffffffffffffffffffffffffffffffffff16630ef267436040518163ffffffff167c0100000000000000000000000000000000000000000000000000000000028152600401602060405180830381600087803b158015610a7557600080fd5b505af1158015610a89573d6000803e3d6000fd5b505050506040513d6020811015610a9f57600080fd5b810190808051906020019092919050505090506004600082815260200190815260200160002060008473ffffffffffffffffffffffffffffffffffffffff1673ffffffffffffffffffffffffffffffffffffffff16815260200190815260200160002060008573ffffffffffffffffffffffffffffffffffffffff1673ffffffffffffffffffffffffffffffffffffffff1681526020019081526020016000205491505092915050565b600080610b54610495565b73ffffffffffffffffffffffffffffffffffffffff163373ffffffffffffffffffffffffffffffffffffffff161480610bb857508473ffffffffffffffffffffffffffffffffffffffff163373ffffffffffffffffffffffffffffffffffffffff16145b1515610c52576040517f08c379a00000000000000000000000000000000000000000000000000000000081526004018080602001828103825260248152602001807f4f6e6c7920746865206f776e65722063616e207570646174652074686973207681526020017f616c75650000000000000000000000000000000000000000000000000000000081525060400191505060405180910390fd5b600160009054906101000a900473ffffffffffffffffffffffffffffffffffffffff1673ffffffffffffffffffffffffffffffffffffffff16630ef267436040518163ffffffff167c0100000000000000000000000000000000000000000000000000000000028152600401602060405180830381600087803b158015610cd857600080fd5b505af1158015610cec573d6000803e3d6000fd5b505050506040513d6020811015610d0257600080fd5b810190808051906020019092919050505091506004600083815260200190815260200160002060008573ffffffffffffffffffffffffffffffffffffffff1673ffffffffffffffffffffffffffffffffffffffff16815260200190815260200160002060008673ffffffffffffffffffffffffffffffffffffffff1673ffffffffffffffffffffffffffffffffffffffff168152602001908152602001600020549050808311151515610e43576040517f08c379a00000000000000000000000000000000000000000000000000000000081526004018080602001828103825260288152602001807f547279696e6720746f207769746864726177206d6f7265207468616e2074686581526020017f2062616c616e636500000000000000000000000000000000000000000000000081525060400191505060405180910390fd5b610e568382610fcb90919063ffffffff16565b6004600084815260200190815260200160002060008673ffffffffffffffffffffffffffffffffffffffff1673ffffffffffffffffffffffffffffffffffffffff16815260200190815260200160002060008773ffffffffffffffffffffffffffffffffffffffff1673ffffffffffffffffffffffffffffffffffffffff1681526020019081526020016000208190555060026005600084815260200190815260200160002060008673ffffffffffffffffffffffffffffffffffffffff1673ffffffffffffffffffffffffffffffffffffffff168152602001908152602001600020819055505050505050565b610f4c6104be565b1515610f5757600080fd5b610f6081610fec565b50565b6000806000841415610f785760009150610f9a565b8284029050828482811515610f8957fe5b04141515610f9657600080fd5b8091505b5092915050565b600080600083111515610fb357600080fd5b8284811515610fbe57fe5b0490508091505092915050565b600080838311151515610fdd57600080fd5b82840390508091505092915050565b600073ffffffffffffffffffffffffffffffffffffffff168173ffffffffffffffffffffffffffffffffffffffff161415151561102857600080fd5b8073ffffffffffffffffffffffffffffffffffffffff166000809054906101000a900473ffffffffffffffffffffffffffffffffffffffff1673ffffffffffffffffffffffffffffffffffffffff167f8be0079c531659141344cd1fd0a4f28419497f9722a3daafe3b4186f6b6457e060405160405180910390a3806000806101000a81548173ffffffffffffffffffffffffffffffffffffffff021916908373ffffffffffffffffffffffffffffffffffffffff160217905550505600a165627a7a72305820e5e8568d8e97bb01e3cefad6cb9d482d6f3efa083fc79597dc524f56a317ae9c0029",
  "source": "pragma solidity 0.4.24;\n\nimport \"openzeppelin-solidity/contracts/ownership/Ownable.sol\";\nimport \"openzeppelin-solidity/contracts/math/SafeMath.sol\";\nimport \"openzeppelin-solidity/contracts/token/ERC20/ERC20.sol\";\nimport \"./Allowance.sol\";\nimport \"./TRL.sol\";\nimport \"./Vault.sol\";\n\n\ncontract Balance is Ownable {\n    using SafeMath for uint256;\n\n    TRL TRLInstance;\n    Allowance AllowanceInstance;\n    Vault VaultInstance;\n\n    //        period              token             entity      balance  \n    mapping (uint256 => mapping (address => mapping(address => uint256))) entityBalanceForPeriod;\n    mapping (uint256 => mapping (address => uint256)) public balanceStage; // 0= unset , 1= set, 2= changed\n\n    constructor (address _TRLContractAddress, address _allowanceContractAddress, address _vaultContractAddress) public {\n        require(msg.sender == owner(), \"Sender must be the owner\");\n        TRLInstance = TRL(_TRLContractAddress);\n        AllowanceInstance = Allowance(_allowanceContractAddress);\n        VaultInstance = Vault(_vaultContractAddress);\n    }\n\n    // anyone can call this function\n    function setBalancesForEntities(address[] _entities, address _tokenAddress) external{\n        // only allow 10 at most, more will probably be an input mistake\n        require(_entities.length < 10,\"Should not provide more than 10 entities\");\n        // Geting the current period from TRL\n\tuint256 currentPeriod = TRLInstance.height();\n        // Getting the ammount of tokens in the Bounty Poll\n\tuint256 periodPool = VaultInstance.balance(currentPeriod,_tokenAddress);\n\t\n\t//Calculate the balance for each entity, based on its allowance\n        for(uint256 i = 0; i<_entities.length; i++){\n            // Get the entity's allowance in Percentage form\n            uint256 entityAllowance = AllowanceInstance.getEntityAllowance(_entities[i]);\n            // Get the entity's allowance in number of Tokens, based on the ammount\n\t    // of tokens in the bounty pool\n\t    uint256 entityAbsoluteAllowance = _calculateBalance(entityAllowance, periodPool);\n            // Set the entity's balance for the current period as the number of Tokens\n\t    entityBalanceForPeriod[currentPeriod][_tokenAddress][_entities[i]] = entityAbsoluteAllowance;\n            // Set the balance stage flag to 1, meaning \"set\".\n\t    // \"set\" means the balance has been calculated and had not been changed.\n\t    balanceStage[currentPeriod][_tokenAddress] = 1;\n        }\n    }\n    // updates the balance after a withdrawal\n    function withdraw(address _entity, address _tokenAddress, uint256 ammountWithdrawn) external {\n\t// check that it's the owner calling the function    \n        require(msg.sender == owner() || msg.sender == _entity,\"Only the owner can update this value\");\n        // Get the current period value from TRL\n\tuint256 currentPeriod = TRLInstance.height();\n        // Get the current balance of this entity, in number of tokens\n\tuint256 currentBalance = entityBalanceForPeriod[currentPeriod][_tokenAddress][_entity];\n        // Check that it's not withdrawing more than it has\n\trequire(ammountWithdrawn <= currentBalance, \"Trying to withdraw more than the balance\");\n\t// Update the entity's balance\n        entityBalanceForPeriod[currentPeriod][_tokenAddress][_entity] = currentBalance.sub(ammountWithdrawn);\n        // Set the balance stage flag to 2, meaning \"changed\".\n\t// \"changed\" means the balance has been changed after it was set.    \n\tbalanceStage[currentPeriod][_tokenAddress] = 2;\n    }\n    // Get balance for current period\n    function getBalance (address _entity, address _tokenAddress) view external returns (uint256){\n        uint256 currentPeriod = TRLInstance.height();\n        return entityBalanceForPeriod[currentPeriod][_tokenAddress][_entity];\n    }\n\n    // Get balance for specific period\n   /*\n    function getBalance (address _entity, address _tokenAddress, uint256 _period) view external returns (uint256){\n        return entityBalanceForPeriod[_period][_tokenAddress][_entity];\n    }*/\n\n    \n    //Returns the number of tokens, based on the percentage share of the bounty pool tokens \n    function _calculateBalance(uint256 _entityAllowance, uint256 _periodPool) public pure returns (uint256 allowance){\n        uint256 stepCalculation = _entityAllowance.mul(_periodPool);\n        return stepCalculation.div(100);\n    }\n}\n",
  "sourcePath": "/Users/boss/git/frontier/trl-project/TRL/contracts/Balance.sol",
  "compiler": {
    "name": "solc",
    "version": "0.4.24+commit.e67f0147.Emscripten.clang"
  },
  "schemaVersion": "2.0.1",
  "updatedAt": "2018-11-20T18:43:39.226Z"
}