{
  "contractName": "Bank",
  "abi": [
    {
      "constant": false,
      "inputs": [],
      "name": "renounceOwnership",
      "outputs": [],
      "payable": false,
      "stateMutability": "nonpayable",
      "type": "function"
    },
    {
      "constant": true,
      "inputs": [],
      "name": "owner",
      "outputs": [
        {
          "name": "",
          "type": "address"
        }
      ],
      "payable": false,
      "stateMutability": "view",
      "type": "function"
    },
    {
      "constant": true,
      "inputs": [],
      "name": "isOwner",
      "outputs": [
        {
          "name": "",
          "type": "bool"
        }
      ],
      "payable": false,
      "stateMutability": "view",
      "type": "function"
    },
    {
      "constant": false,
      "inputs": [
        {
          "name": "newOwner",
          "type": "address"
        }
      ],
      "name": "transferOwnership",
      "outputs": [],
      "payable": false,
      "stateMutability": "nonpayable",
      "type": "function"
    },
    {
      "inputs": [
        {
          "name": "_allowanceContractAddress",
          "type": "address"
        },
        {
          "name": "_vaultContractAddress",
          "type": "address"
        }
      ],
      "payable": false,
      "stateMutability": "nonpayable",
      "type": "constructor"
    },
    {
      "anonymous": false,
      "inputs": [
        {
          "indexed": true,
          "name": "_entity",
          "type": "address"
        },
        {
          "indexed": true,
          "name": "_token",
          "type": "address"
        },
        {
          "indexed": true,
          "name": "_epoch",
          "type": "uint256"
        },
        {
          "indexed": false,
          "name": "_balance",
          "type": "uint256"
        }
      ],
      "name": "setBalanceForEntity",
      "type": "event"
    },
    {
      "anonymous": false,
      "inputs": [
        {
          "indexed": true,
          "name": "_entity",
          "type": "address"
        },
        {
          "indexed": true,
          "name": "_receiver",
          "type": "address"
        },
        {
          "indexed": true,
          "name": "_tokenAddress",
          "type": "address"
        },
        {
          "indexed": false,
          "name": "_paymentAmount",
          "type": "uint256"
        }
      ],
      "name": "madePayment",
      "type": "event"
    },
    {
      "anonymous": false,
      "inputs": [
        {
          "indexed": true,
          "name": "previousOwner",
          "type": "address"
        },
        {
          "indexed": true,
          "name": "newOwner",
          "type": "address"
        }
      ],
      "name": "OwnershipTransferred",
      "type": "event"
    },
    {
      "constant": false,
      "inputs": [
        {
          "name": "_entities",
          "type": "address[]"
        },
        {
          "name": "_tokenAddress",
          "type": "address"
        },
        {
          "name": "_epoch",
          "type": "uint256"
        }
      ],
      "name": "setBalancesForEntities",
      "outputs": [],
      "payable": false,
      "stateMutability": "nonpayable",
      "type": "function"
    },
    {
      "constant": false,
      "inputs": [
        {
          "name": "_entity",
          "type": "address"
        },
        {
          "name": "_receiver",
          "type": "address"
        },
        {
          "name": "_tokenAddress",
          "type": "address"
        },
        {
          "name": "_paymentAmount",
          "type": "uint256"
        },
        {
          "name": "_epoch",
          "type": "uint256"
        }
      ],
      "name": "makePayment",
      "outputs": [],
      "payable": false,
      "stateMutability": "nonpayable",
      "type": "function"
    },
    {
      "constant": true,
      "inputs": [
        {
          "name": "_entity",
          "type": "address"
        },
        {
          "name": "_tokenAddress",
          "type": "address"
        },
        {
          "name": "_epoch",
          "type": "uint256"
        }
      ],
      "name": "getBalance",
      "outputs": [
        {
          "name": "",
          "type": "uint256"
        }
      ],
      "payable": false,
      "stateMutability": "view",
      "type": "function"
    },
    {
      "constant": true,
      "inputs": [
        {
          "name": "_entity",
          "type": "address"
        },
        {
          "name": "_tokenAddress",
          "type": "address"
        },
        {
          "name": "_epoch",
          "type": "uint256"
        }
      ],
      "name": "getStartingBalance",
      "outputs": [
        {
          "name": "",
          "type": "uint256"
        }
      ],
      "payable": false,
      "stateMutability": "view",
      "type": "function"
    },
    {
      "constant": false,
      "inputs": [
        {
          "name": "_entityAllowance",
          "type": "uint256"
        },
        {
          "name": "_epochPool",
          "type": "uint256"
        }
      ],
      "name": "_calculateBalance",
      "outputs": [
        {
          "name": "",
          "type": "uint256"
        }
      ],
      "payable": false,
      "stateMutability": "nonpayable",
      "type": "function"
    }
  ],
  "bytecode": "0x608060405234801561001057600080fd5b5060405160408061131f8339810180604052810190808051906020019092919080519060200190929190505050336000806101000a81548173ffffffffffffffffffffffffffffffffffffffff021916908373ffffffffffffffffffffffffffffffffffffffff1602179055506000809054906101000a900473ffffffffffffffffffffffffffffffffffffffff1673ffffffffffffffffffffffffffffffffffffffff16600073ffffffffffffffffffffffffffffffffffffffff167f8be0079c531659141344cd1fd0a4f28419497f9722a3daafe3b4186f6b6457e060405160405180910390a361011061023b640100000000026401000000009004565b73ffffffffffffffffffffffffffffffffffffffff163373ffffffffffffffffffffffffffffffffffffffff161415156101b2576040517f08c379a00000000000000000000000000000000000000000000000000000000081526004018080602001828103825260188152602001807f53656e646572206d75737420626520746865206f776e6572000000000000000081525060200191505060405180910390fd5b81600160006101000a81548173ffffffffffffffffffffffffffffffffffffffff021916908373ffffffffffffffffffffffffffffffffffffffff16021790555080600260006101000a81548173ffffffffffffffffffffffffffffffffffffffff021916908373ffffffffffffffffffffffffffffffffffffffff1602179055505050610264565b60008060009054906101000a900473ffffffffffffffffffffffffffffffffffffffff16905090565b6110ac806102736000396000f300608060405260043610610099576000357c0100000000000000000000000000000000000000000000000000000000900463ffffffff1680631e0716641461009e5780632511c30a146101355780633d3f21291461019a57806361e5f354146101e5578063715018a61461026657806380697cf31461027d5780638da5cb5b146102fe5780638f32d59b14610355578063f2fde38b14610384575b600080fd5b3480156100aa57600080fd5b50610133600480360381019080803573ffffffffffffffffffffffffffffffffffffffff169060200190929190803573ffffffffffffffffffffffffffffffffffffffff169060200190929190803573ffffffffffffffffffffffffffffffffffffffff16906020019092919080359060200190929190803590602001909291905050506103c7565b005b34801561014157600080fd5b50610198600480360381019080803590602001908201803590602001919091929391929390803573ffffffffffffffffffffffffffffffffffffffff169060200190929190803590602001909291905050506107c8565b005b3480156101a657600080fd5b506101cf6004803603810190808035906020019092919080359060200190929190505050610bbf565b6040518082815260200191505060405180910390f35b3480156101f157600080fd5b50610250600480360381019080803573ffffffffffffffffffffffffffffffffffffffff169060200190929190803573ffffffffffffffffffffffffffffffffffffffff16906020019092919080359060200190929190505050610ca2565b6040518082815260200191505060405180910390f35b34801561027257600080fd5b5061027b610d3e565b005b34801561028957600080fd5b506102e8600480360381019080803573ffffffffffffffffffffffffffffffffffffffff169060200190929190803573ffffffffffffffffffffffffffffffffffffffff16906020019092919080359060200190929190505050610e10565b6040518082815260200191505060405180910390f35b34801561030a57600080fd5b50610313610eac565b604051808273ffffffffffffffffffffffffffffffffffffffff1673ffffffffffffffffffffffffffffffffffffffff16815260200191505060405180910390f35b34801561036157600080fd5b5061036a610ed5565b604051808215151515815260200191505060405180910390f35b34801561039057600080fd5b506103c5600480360381019080803573ffffffffffffffffffffffffffffffffffffffff169060200190929190505050610f2c565b005b60006103d1610eac565b73ffffffffffffffffffffffffffffffffffffffff163373ffffffffffffffffffffffffffffffffffffffff16148061043557508573ffffffffffffffffffffffffffffffffffffffff163373ffffffffffffffffffffffffffffffffffffffff16145b15156104cf576040517f08c379a00000000000000000000000000000000000000000000000000000000081526004018080602001828103825260248152602001807f4f6e6c7920746865206f776e65722063616e207570646174652074686973207681526020017f616c75650000000000000000000000000000000000000000000000000000000081525060400191505060405180910390fd5b6003600083815260200190815260200160002060008573ffffffffffffffffffffffffffffffffffffffff1673ffffffffffffffffffffffffffffffffffffffff16815260200190815260200160002060008773ffffffffffffffffffffffffffffffffffffffff1673ffffffffffffffffffffffffffffffffffffffff168152602001908152602001600020600101549050808311151515610600576040517f08c379a00000000000000000000000000000000000000000000000000000000081526004018080602001828103825260288152602001807f547279696e6720746f207769746864726177206d6f7265207468616e2074686581526020017f2062616c616e636500000000000000000000000000000000000000000000000081525060400191505060405180910390fd5b600260009054906101000a900473ffffffffffffffffffffffffffffffffffffffff1673ffffffffffffffffffffffffffffffffffffffff166336cd52a6838688876040518563ffffffff167c0100000000000000000000000000000000000000000000000000000000028152600401808581526020018473ffffffffffffffffffffffffffffffffffffffff1673ffffffffffffffffffffffffffffffffffffffff1681526020018373ffffffffffffffffffffffffffffffffffffffff1673ffffffffffffffffffffffffffffffffffffffff168152602001828152602001945050505050600060405180830381600087803b15801561070157600080fd5b505af1158015610715573d6000803e3d6000fd5b5050505061072c8382610f4b90919063ffffffff16565b6003600084815260200190815260200160002060008673ffffffffffffffffffffffffffffffffffffffff1673ffffffffffffffffffffffffffffffffffffffff16815260200190815260200160002060008873ffffffffffffffffffffffffffffffffffffffff1673ffffffffffffffffffffffffffffffffffffffff16815260200190815260200160002060010181905550505050505050565b6000806000806107d6611066565b600a89899050101515610877576040517f08c379a00000000000000000000000000000000000000000000000000000000081526004018080602001828103825260288152602001807f53686f756c64206e6f742070726f76696465206d6f7265207468616e2031302081526020017f656e74697469657300000000000000000000000000000000000000000000000081525060400191505060405180910390fd5b600260009054906101000a900473ffffffffffffffffffffffffffffffffffffffff1673ffffffffffffffffffffffffffffffffffffffff16630613993487896040518363ffffffff167c0100000000000000000000000000000000000000000000000000000000028152600401808381526020018273ffffffffffffffffffffffffffffffffffffffff1673ffffffffffffffffffffffffffffffffffffffff16815260200192505050602060405180830381600087803b15801561093c57600080fd5b505af1158015610950573d6000803e3d6000fd5b505050506040513d602081101561096657600080fd5b81019080805190602001909291905050509450600093505b88889050841015610bb457600160009054906101000a900473ffffffffffffffffffffffffffffffffffffffff1673ffffffffffffffffffffffffffffffffffffffff1663ace6110f8a8a8781811015156109d557fe5b9050602002013573ffffffffffffffffffffffffffffffffffffffff16886040518363ffffffff167c0100000000000000000000000000000000000000000000000000000000028152600401808373ffffffffffffffffffffffffffffffffffffffff1673ffffffffffffffffffffffffffffffffffffffff16815260200182815260200192505050602060405180830381600087803b158015610a7857600080fd5b505af1158015610a8c573d6000803e3d6000fd5b505050506040513d6020811015610aa257600080fd5b81019080805190602001909291905050509250610abf8386610bbf565b91506040805190810160405280838152602001838152509050806003600088815260200190815260200160002060008973ffffffffffffffffffffffffffffffffffffffff1673ffffffffffffffffffffffffffffffffffffffff16815260200190815260200160002060008b8b888181101515610b3957fe5b9050602002013573ffffffffffffffffffffffffffffffffffffffff1673ffffffffffffffffffffffffffffffffffffffff1673ffffffffffffffffffffffffffffffffffffffff1681526020019081526020016000206000820151816000015560208201518160010155905050838060010194505061097e565b505050505050505050565b600080600160009054906101000a900473ffffffffffffffffffffffffffffffffffffffff1673ffffffffffffffffffffffffffffffffffffffff1663c2108a9285856040518363ffffffff167c01000000000000000000000000000000000000000000000000000000000281526004018083815260200182815260200192505050602060405180830381600087803b158015610c5b57600080fd5b505af1158015610c6f573d6000803e3d6000fd5b505050506040513d6020811015610c8557600080fd5b810190808051906020019092919050505090508091505092915050565b60006003600083815260200190815260200160002060008473ffffffffffffffffffffffffffffffffffffffff1673ffffffffffffffffffffffffffffffffffffffff16815260200190815260200160002060008573ffffffffffffffffffffffffffffffffffffffff1673ffffffffffffffffffffffffffffffffffffffff1681526020019081526020016000206001015490509392505050565b610d46610ed5565b1515610d5157600080fd5b600073ffffffffffffffffffffffffffffffffffffffff166000809054906101000a900473ffffffffffffffffffffffffffffffffffffffff1673ffffffffffffffffffffffffffffffffffffffff167f8be0079c531659141344cd1fd0a4f28419497f9722a3daafe3b4186f6b6457e060405160405180910390a360008060006101000a81548173ffffffffffffffffffffffffffffffffffffffff021916908373ffffffffffffffffffffffffffffffffffffffff160217905550565b60006003600083815260200190815260200160002060008473ffffffffffffffffffffffffffffffffffffffff1673ffffffffffffffffffffffffffffffffffffffff16815260200190815260200160002060008573ffffffffffffffffffffffffffffffffffffffff1673ffffffffffffffffffffffffffffffffffffffff1681526020019081526020016000206000015490509392505050565b60008060009054906101000a900473ffffffffffffffffffffffffffffffffffffffff16905090565b60008060009054906101000a900473ffffffffffffffffffffffffffffffffffffffff1673ffffffffffffffffffffffffffffffffffffffff163373ffffffffffffffffffffffffffffffffffffffff1614905090565b610f34610ed5565b1515610f3f57600080fd5b610f4881610f6c565b50565b600080838311151515610f5d57600080fd5b82840390508091505092915050565b600073ffffffffffffffffffffffffffffffffffffffff168173ffffffffffffffffffffffffffffffffffffffff1614151515610fa857600080fd5b8073ffffffffffffffffffffffffffffffffffffffff166000809054906101000a900473ffffffffffffffffffffffffffffffffffffffff1673ffffffffffffffffffffffffffffffffffffffff167f8be0079c531659141344cd1fd0a4f28419497f9722a3daafe3b4186f6b6457e060405160405180910390a3806000806101000a81548173ffffffffffffffffffffffffffffffffffffffff021916908373ffffffffffffffffffffffffffffffffffffffff16021790555050565b6040805190810160405280600081526020016000815250905600a165627a7a72305820dc0709a0a7c0ef5279000d8d11d99ad0caab78272fbc7eda2d21a94e713bd4d10029",
  "source": "pragma solidity 0.4.24;\n\nimport \"openzeppelin-solidity/contracts/ownership/Ownable.sol\";\nimport \"openzeppelin-solidity/contracts/math/SafeMath.sol\";\nimport \"openzeppelin-solidity/contracts/token/ERC20/ERC20.sol\";\nimport \"./Allowance.sol\";\nimport \"./TRL.sol\";\nimport \"./Vault.sol\";\n\n/**\n* The Bank smart-contract keeps track of the balance of each entity\n* It is also responsible for interacting with the Vault\n*/\n\ncontract Bank is Ownable {\n\tusing SafeMath for uint256;\n\n\t\n\tAllowance AllowanceInstance;\n\tVault VaultInstance;\n\t\n\tstruct BalanceRecord{\n\t\tuint256 startingBalance;\n\t\tuint256 currentBalance;\n\t}\n\t\t//        period              token             entity      balance  \n\tmapping (uint256 => mapping (address => mapping(address => BalanceRecord))) entityBalanceForPeriod;\n\n\tevent setBalanceForEntity(address indexed _entity, address indexed _token, uint256 indexed _epoch, uint256 _balance);\n\tevent madePayment(address indexed _entity, address indexed _receiver, address indexed _tokenAddress, uint256 _paymentAmount);\n\n\tconstructor(address _allowanceContractAddress, address _vaultContractAddress) public {\n\t\trequire(msg.sender == owner(), \"Sender must be the owner\");\n\t\t\n\t\tAllowanceInstance = Allowance(_allowanceContractAddress);\n\t\tVaultInstance = Vault(_vaultContractAddress);\n\t}\n\n\t/**\n    * @dev Calculates the balance for an array of entities, based on the bounty pool amount for that period\n    * @param _entities The entities array\n    * @param _tokenAddress The address of the token contract\n    * @param _epoch The period to which this balance corresponds to\n    **/\n\tfunction setBalancesForEntities(address[] _entities, address _tokenAddress, uint256 _epoch) external {\n\t\t// only allow 10 at most, more will probably be an input mistake\n\t\trequire(_entities.length < 10, \"Should not provide more than 10 entities\");\n\t\t// Getting the ammount of tokens in the Bounty Poll\n\t\tuint256 periodPool = VaultInstance.balance(_epoch, _tokenAddress);\n\n\t\t//Calculate the balance for each entity, based on its allowance\n\t\tfor (uint256 i = 0; i < _entities.length; i++) {\n\t\t\t// Get the entity's allowance in Percentage form\n\t\t\tuint256 entityAllowance = AllowanceInstance.getEntityAllowance(_entities[i], _epoch);\n\t\t\t// Get the entity's allowance in number of Tokens, based on the ammount\n\t\t\t// of tokens in the bounty pool\n\t\t\tuint256 entityAbsoluteAllowance = _calculateBalance(entityAllowance, periodPool);\n\t\t\t// Set the entity's balance for the current period as the number of Tokens\n\t\t\tBalanceRecord memory balRecord = BalanceRecord(entityAbsoluteAllowance, entityAbsoluteAllowance);\n\t\t\tentityBalanceForPeriod[_epoch][_tokenAddress][_entities[i]] = balRecord;\n\t\t}\n\t}\n\t\n\t/**\n    * @dev Makes a payment to a receiver\n    * @param _entity The entity that is making the withdraw. This needs to be passed as a param, and not just read from msg.sender, so that it can be triggerd by the owner.\n    * @param _receiver The account that will receive the payment\n    * @param _tokenAddress The address of the token contract\n    * @param _paymentAmount The token amount to be transfered\n    **/\n\t\n\tfunction makePayment (address _entity,address _receiver,address _tokenAddress, uint256 _paymentAmount, \n\t\tuint256 _epoch) external \n\t{\n\t\t// check that it's the owner calling the function    \n\t\trequire(msg.sender == owner() || msg.sender == _entity, \"Only the owner can update this value\");\n\t\t\n\t\t// Get the current balance of this entity, in number of tokens\n\t\tuint256 currentBalance = entityBalanceForPeriod[_epoch][_tokenAddress][_entity].currentBalance;\n\t\t\n\t\t// --> Check that it's not withdrawing more than it has\n\t\trequire(_paymentAmount <= currentBalance, \"Trying to withdraw more than the balance\");\n\t\t\n\t\t// Transfer the value from the Vault\n\t\tVaultInstance.transfer(_epoch, _tokenAddress, _receiver, _paymentAmount);\n\t\t\n\t\t// Update the entity's balance\n\t\tentityBalanceForPeriod[_epoch][_tokenAddress][_entity].currentBalance = currentBalance.sub(_paymentAmount);\n\t}\t\t\n\n\t/**\n    * @dev Returns an entity's balance for a period and token\n    * @param _entity The entity that is making the withdraw. This needs to be passed as a param, and not just read from msg.sender, so that it can be triggerd by the owner.\n    * @param _tokenAddress The address of the token contract\n    * @param _epoch The period for which the balance is checked\n    **/\n\t\n\tfunction getBalance (address _entity, address _tokenAddress, uint256 _epoch) external view returns (uint256) {\n\t\treturn entityBalanceForPeriod[_epoch][_tokenAddress][_entity].currentBalance;\n\t}\n\t\n\t/**\n    * @dev Returns an entity's original balance for a period and token\n    * @param _entity The entity that is making the withdraw. This needs to be passed as a param, and not just read from msg.sender, so that it can be triggerd by the owner.\n    * @param _tokenAddress The address of the token contract\n    * @param _epoch The period for which the original balance is checked\n    **/\n\n\tfunction getStartingBalance(address _entity, address _tokenAddress, uint256 _epoch) external view returns (uint256){\n\t\treturn entityBalanceForPeriod[_epoch][_tokenAddress][_entity].startingBalance;\n\t}\n\n\n\t/**\n    * @dev Pure function that converts a percentage into an absolute number of tokens\n    * @param _entityAllowance The entity's % allowance\n    * @param _epochPool Amount of tokens in the bounty pool for that period\n    **/\n\n\tfunction _calculateBalance(uint256 _entityAllowance, uint256 _epochPool) returns (uint256) {\n\t\tuint256 balance =  AllowanceInstance.calculateBalance(_entityAllowance, _epochPool);\n\t\treturn balance;\n\t}\n}\n",
  "sourcePath": "/Users/boss/git/frontier/trl-project/TRL/contracts/Bank.sol",
  "compiler": {
    "name": "solc",
    "version": "0.4.24+commit.e67f0147.Emscripten.clang"
  },
  "schemaVersion": "2.0.1",
  "updatedAt": "2018-12-06T19:00:53.975Z"
}