{
  "contractName": "Bank",
  "abi": [
    {
      "constant": true,
      "inputs": [
        {
          "name": "",
          "type": "uint256"
        },
        {
          "name": "",
          "type": "address"
        }
      ],
      "name": "balanceStage",
      "outputs": [
        {
          "name": "",
          "type": "uint256"
        }
      ],
      "payable": false,
      "stateMutability": "view",
      "type": "function"
    },
    {
      "constant": false,
      "inputs": [],
      "name": "renounceOwnership",
      "outputs": [],
      "payable": false,
      "stateMutability": "nonpayable",
      "type": "function"
    },
    {
      "constant": true,
      "inputs": [],
      "name": "owner",
      "outputs": [
        {
          "name": "",
          "type": "address"
        }
      ],
      "payable": false,
      "stateMutability": "view",
      "type": "function"
    },
    {
      "constant": true,
      "inputs": [],
      "name": "isOwner",
      "outputs": [
        {
          "name": "",
          "type": "bool"
        }
      ],
      "payable": false,
      "stateMutability": "view",
      "type": "function"
    },
    {
      "constant": false,
      "inputs": [
        {
          "name": "newOwner",
          "type": "address"
        }
      ],
      "name": "transferOwnership",
      "outputs": [],
      "payable": false,
      "stateMutability": "nonpayable",
      "type": "function"
    },
    {
      "inputs": [
        {
          "name": "_allowanceContractAddress",
          "type": "address"
        },
        {
          "name": "_vaultContractAddress",
          "type": "address"
        }
      ],
      "payable": false,
      "stateMutability": "nonpayable",
      "type": "constructor"
    },
    {
      "anonymous": false,
      "inputs": [
        {
          "indexed": true,
          "name": "_entity",
          "type": "address"
        },
        {
          "indexed": true,
          "name": "_token",
          "type": "address"
        },
        {
          "indexed": true,
          "name": "_epoch",
          "type": "uint256"
        },
        {
          "indexed": false,
          "name": "_balance",
          "type": "uint256"
        }
      ],
      "name": "setBalanceForEntity",
      "type": "event"
    },
    {
      "anonymous": false,
      "inputs": [
        {
          "indexed": true,
          "name": "_entity",
          "type": "address"
        },
        {
          "indexed": true,
          "name": "_receiver",
          "type": "address"
        },
        {
          "indexed": true,
          "name": "_tokenAddress",
          "type": "address"
        },
        {
          "indexed": false,
          "name": "_paymentAmount",
          "type": "uint256"
        }
      ],
      "name": "madePayment",
      "type": "event"
    },
    {
      "anonymous": false,
      "inputs": [
        {
          "indexed": true,
          "name": "previousOwner",
          "type": "address"
        },
        {
          "indexed": true,
          "name": "newOwner",
          "type": "address"
        }
      ],
      "name": "OwnershipTransferred",
      "type": "event"
    },
    {
      "constant": false,
      "inputs": [
        {
          "name": "_entities",
          "type": "address[]"
        },
        {
          "name": "_tokenAddress",
          "type": "address"
        },
        {
          "name": "_epoch",
          "type": "uint256"
        }
      ],
      "name": "setBalancesForEntities",
      "outputs": [],
      "payable": false,
      "stateMutability": "nonpayable",
      "type": "function"
    },
    {
      "constant": false,
      "inputs": [
        {
          "name": "_entity",
          "type": "address"
        },
        {
          "name": "_receiver",
          "type": "address"
        },
        {
          "name": "_tokenAddress",
          "type": "address"
        },
        {
          "name": "_paymentAmount",
          "type": "uint256"
        },
        {
          "name": "_epoch",
          "type": "uint256"
        }
      ],
      "name": "makePayment",
      "outputs": [],
      "payable": false,
      "stateMutability": "nonpayable",
      "type": "function"
    },
    {
      "constant": true,
      "inputs": [
        {
          "name": "_entity",
          "type": "address"
        },
        {
          "name": "_tokenAddress",
          "type": "address"
        },
        {
          "name": "_epoch",
          "type": "uint256"
        }
      ],
      "name": "getBalance",
      "outputs": [
        {
          "name": "",
          "type": "uint256"
        }
      ],
      "payable": false,
      "stateMutability": "view",
      "type": "function"
    },
    {
      "constant": true,
      "inputs": [
        {
          "name": "_entityAllowance",
          "type": "uint256"
        },
        {
          "name": "_epochPool",
          "type": "uint256"
        }
      ],
      "name": "_calculateBalance",
      "outputs": [
        {
          "name": "allowance",
          "type": "uint256"
        }
      ],
      "payable": false,
      "stateMutability": "pure",
      "type": "function"
    }
  ],
  "bytecode": "0x608060405234801561001057600080fd5b506040516040806113a48339810180604052810190808051906020019092919080519060200190929190505050336000806101000a81548173ffffffffffffffffffffffffffffffffffffffff021916908373ffffffffffffffffffffffffffffffffffffffff1602179055506000809054906101000a900473ffffffffffffffffffffffffffffffffffffffff1673ffffffffffffffffffffffffffffffffffffffff16600073ffffffffffffffffffffffffffffffffffffffff167f8be0079c531659141344cd1fd0a4f28419497f9722a3daafe3b4186f6b6457e060405160405180910390a361011061023b640100000000026401000000009004565b73ffffffffffffffffffffffffffffffffffffffff163373ffffffffffffffffffffffffffffffffffffffff161415156101b2576040517f08c379a00000000000000000000000000000000000000000000000000000000081526004018080602001828103825260188152602001807f53656e646572206d75737420626520746865206f776e6572000000000000000081525060200191505060405180910390fd5b81600160006101000a81548173ffffffffffffffffffffffffffffffffffffffff021916908373ffffffffffffffffffffffffffffffffffffffff16021790555080600260006101000a81548173ffffffffffffffffffffffffffffffffffffffff021916908373ffffffffffffffffffffffffffffffffffffffff1602179055505050610264565b60008060009054906101000a900473ffffffffffffffffffffffffffffffffffffffff16905090565b611131806102736000396000f300608060405260043610610099576000357c0100000000000000000000000000000000000000000000000000000000900463ffffffff1680631e0716641461009e578063242522e9146101355780632511c30a146101965780633d3f2129146101fb57806361e5f35414610246578063715018a6146102c75780638da5cb5b146102de5780638f32d59b14610335578063f2fde38b14610364575b600080fd5b3480156100aa57600080fd5b50610133600480360381019080803573ffffffffffffffffffffffffffffffffffffffff169060200190929190803573ffffffffffffffffffffffffffffffffffffffff169060200190929190803573ffffffffffffffffffffffffffffffffffffffff16906020019092919080359060200190929190803590602001909291905050506103a7565b005b34801561014157600080fd5b5061018060048036038101908080359060200190929190803573ffffffffffffffffffffffffffffffffffffffff169060200190929190505050610874565b6040518082815260200191505060405180910390f35b3480156101a257600080fd5b506101f9600480360381019080803590602001908201803590602001919091929391929390803573ffffffffffffffffffffffffffffffffffffffff16906020019092919080359060200190929190505050610899565b005b34801561020757600080fd5b506102306004803603810190808035906020019092919080359060200190929190505050610d43565b6040518082815260200191505060405180910390f35b34801561025257600080fd5b506102b1600480360381019080803573ffffffffffffffffffffffffffffffffffffffff169060200190929190803573ffffffffffffffffffffffffffffffffffffffff16906020019092919080359060200190929190505050610d78565b6040518082815260200191505060405180910390f35b3480156102d357600080fd5b506102dc610e11565b005b3480156102ea57600080fd5b506102f3610ee3565b604051808273ffffffffffffffffffffffffffffffffffffffff1673ffffffffffffffffffffffffffffffffffffffff16815260200191505060405180910390f35b34801561034157600080fd5b5061034a610f0c565b604051808215151515815260200191505060405180910390f35b34801561037057600080fd5b506103a5600480360381019080803573ffffffffffffffffffffffffffffffffffffffff169060200190929190505050610f63565b005b60006103b1610ee3565b73ffffffffffffffffffffffffffffffffffffffff163373ffffffffffffffffffffffffffffffffffffffff16148061041557508573ffffffffffffffffffffffffffffffffffffffff163373ffffffffffffffffffffffffffffffffffffffff16145b15156104af576040517f08c379a00000000000000000000000000000000000000000000000000000000081526004018080602001828103825260248152602001807f4f6e6c7920746865206f776e65722063616e207570646174652074686973207681526020017f616c75650000000000000000000000000000000000000000000000000000000081525060400191505060405180910390fd5b6003600083815260200190815260200160002060008573ffffffffffffffffffffffffffffffffffffffff1673ffffffffffffffffffffffffffffffffffffffff16815260200190815260200160002060008773ffffffffffffffffffffffffffffffffffffffff1673ffffffffffffffffffffffffffffffffffffffff1681526020019081526020016000205490508083111515156105dd576040517f08c379a00000000000000000000000000000000000000000000000000000000081526004018080602001828103825260288152602001807f547279696e6720746f207769746864726177206d6f7265207468616e2074686581526020017f2062616c616e636500000000000000000000000000000000000000000000000081525060400191505060405180910390fd5b600260009054906101000a900473ffffffffffffffffffffffffffffffffffffffff1673ffffffffffffffffffffffffffffffffffffffff166336cd52a6838688876040518563ffffffff167c0100000000000000000000000000000000000000000000000000000000028152600401808581526020018473ffffffffffffffffffffffffffffffffffffffff1673ffffffffffffffffffffffffffffffffffffffff1681526020018373ffffffffffffffffffffffffffffffffffffffff1673ffffffffffffffffffffffffffffffffffffffff168152602001828152602001945050505050600060405180830381600087803b1580156106de57600080fd5b505af11580156106f2573d6000803e3d6000fd5b505050506107098382610f8290919063ffffffff16565b6003600084815260200190815260200160002060008673ffffffffffffffffffffffffffffffffffffffff1673ffffffffffffffffffffffffffffffffffffffff16815260200190815260200160002060008873ffffffffffffffffffffffffffffffffffffffff1673ffffffffffffffffffffffffffffffffffffffff168152602001908152602001600020819055508373ffffffffffffffffffffffffffffffffffffffff168573ffffffffffffffffffffffffffffffffffffffff168773ffffffffffffffffffffffffffffffffffffffff167f5d34b67248cde2a223f6d1d49ce64d726db67abcdf29dce53aaabe372aa5a816866040518082815260200191505060405180910390a460026004600084815260200190815260200160002060008673ffffffffffffffffffffffffffffffffffffffff1673ffffffffffffffffffffffffffffffffffffffff16815260200190815260200160002081905550505050505050565b6004602052816000526040600020602052806000526040600020600091509150505481565b600080600080600a88889050101515610940576040517f08c379a00000000000000000000000000000000000000000000000000000000081526004018080602001828103825260288152602001807f53686f756c64206e6f742070726f76696465206d6f7265207468616e2031302081526020017f656e74697469657300000000000000000000000000000000000000000000000081525060400191505060405180910390fd5b600260009054906101000a900473ffffffffffffffffffffffffffffffffffffffff1673ffffffffffffffffffffffffffffffffffffffff16630613993486886040518363ffffffff167c0100000000000000000000000000000000000000000000000000000000028152600401808381526020018273ffffffffffffffffffffffffffffffffffffffff1673ffffffffffffffffffffffffffffffffffffffff16815260200192505050602060405180830381600087803b158015610a0557600080fd5b505af1158015610a19573d6000803e3d6000fd5b505050506040513d6020811015610a2f57600080fd5b81019080805190602001909291905050509350600092505b87879050831015610d3957600160009054906101000a900473ffffffffffffffffffffffffffffffffffffffff1673ffffffffffffffffffffffffffffffffffffffff1663ace6110f8989868181101515610a9e57fe5b9050602002013573ffffffffffffffffffffffffffffffffffffffff16876040518363ffffffff167c0100000000000000000000000000000000000000000000000000000000028152600401808373ffffffffffffffffffffffffffffffffffffffff1673ffffffffffffffffffffffffffffffffffffffff16815260200182815260200192505050602060405180830381600087803b158015610b4157600080fd5b505af1158015610b55573d6000803e3d6000fd5b505050506040513d6020811015610b6b57600080fd5b81019080805190602001909291905050509150610b888285610d43565b9050806003600087815260200190815260200160002060008873ffffffffffffffffffffffffffffffffffffffff1673ffffffffffffffffffffffffffffffffffffffff16815260200190815260200160002060008a8a878181101515610beb57fe5b9050602002013573ffffffffffffffffffffffffffffffffffffffff1673ffffffffffffffffffffffffffffffffffffffff1673ffffffffffffffffffffffffffffffffffffffff16815260200190815260200160002081905550848673ffffffffffffffffffffffffffffffffffffffff168989868181101515610c6c57fe5b9050602002013573ffffffffffffffffffffffffffffffffffffffff1673ffffffffffffffffffffffffffffffffffffffff167ff2e39a07a84ef15d917c5016730c6ee4297a52d837118384b15973d59bd518e9846040518082815260200191505060405180910390a460016004600087815260200190815260200160002060008873ffffffffffffffffffffffffffffffffffffffff1673ffffffffffffffffffffffffffffffffffffffff168152602001908152602001600020819055508280600101935050610a47565b5050505050505050565b600080610d598385610fa390919063ffffffff16565b9050610d6f606482610fe190919063ffffffff16565b91505092915050565b60006003600083815260200190815260200160002060008473ffffffffffffffffffffffffffffffffffffffff1673ffffffffffffffffffffffffffffffffffffffff16815260200190815260200160002060008573ffffffffffffffffffffffffffffffffffffffff1673ffffffffffffffffffffffffffffffffffffffff1681526020019081526020016000205490509392505050565b610e19610f0c565b1515610e2457600080fd5b600073ffffffffffffffffffffffffffffffffffffffff166000809054906101000a900473ffffffffffffffffffffffffffffffffffffffff1673ffffffffffffffffffffffffffffffffffffffff167f8be0079c531659141344cd1fd0a4f28419497f9722a3daafe3b4186f6b6457e060405160405180910390a360008060006101000a81548173ffffffffffffffffffffffffffffffffffffffff021916908373ffffffffffffffffffffffffffffffffffffffff160217905550565b60008060009054906101000a900473ffffffffffffffffffffffffffffffffffffffff16905090565b60008060009054906101000a900473ffffffffffffffffffffffffffffffffffffffff1673ffffffffffffffffffffffffffffffffffffffff163373ffffffffffffffffffffffffffffffffffffffff1614905090565b610f6b610f0c565b1515610f7657600080fd5b610f7f8161100b565b50565b600080838311151515610f9457600080fd5b82840390508091505092915050565b6000806000841415610fb85760009150610fda565b8284029050828482811515610fc957fe5b04141515610fd657600080fd5b8091505b5092915050565b600080600083111515610ff357600080fd5b8284811515610ffe57fe5b0490508091505092915050565b600073ffffffffffffffffffffffffffffffffffffffff168173ffffffffffffffffffffffffffffffffffffffff161415151561104757600080fd5b8073ffffffffffffffffffffffffffffffffffffffff166000809054906101000a900473ffffffffffffffffffffffffffffffffffffffff1673ffffffffffffffffffffffffffffffffffffffff167f8be0079c531659141344cd1fd0a4f28419497f9722a3daafe3b4186f6b6457e060405160405180910390a3806000806101000a81548173ffffffffffffffffffffffffffffffffffffffff021916908373ffffffffffffffffffffffffffffffffffffffff160217905550505600a165627a7a72305820ea952b4ede4874f35ccd44c85ab6e043d92af7a3d7b2b79117c127bf21e3d2770029",
  "source": "pragma solidity 0.4.24;\n\nimport \"openzeppelin-solidity/contracts/ownership/Ownable.sol\";\nimport \"openzeppelin-solidity/contracts/math/SafeMath.sol\";\nimport \"openzeppelin-solidity/contracts/token/ERC20/ERC20.sol\";\nimport \"./Allowance.sol\";\nimport \"./TRL.sol\";\nimport \"./Vault.sol\";\n\n/**\n* The Bank smart-contract keeps track of the balance of each entity\n* It is also responsible for interacting with the Vault\n*/\n\ncontract Bank is Ownable {\n\tusing SafeMath for uint256;\n\n\t\n\tAllowance AllowanceInstance;\n\tVault VaultInstance;\n\n\t\t//        period              token             entity      balance  \n\tmapping (uint256 => mapping (address => mapping(address => uint256))) entityBalanceForPeriod;\n\tmapping (uint256 => mapping (address => uint256)) public balanceStage; // 0= unset , 1= set, 2= changed\n\n\tevent setBalanceForEntity(address indexed _entity, address indexed _token, uint256 indexed _epoch, uint256 _balance);\n\tevent madePayment(address indexed _entity, address indexed _receiver, address indexed _tokenAddress, uint256 _paymentAmount);\n\n\tconstructor(address _allowanceContractAddress, address _vaultContractAddress) public {\n\t\trequire(msg.sender == owner(), \"Sender must be the owner\");\n\t\t\n\t\tAllowanceInstance = Allowance(_allowanceContractAddress);\n\t\tVaultInstance = Vault(_vaultContractAddress);\n\t}\n\n\t/**\n    * @dev Calculates the balance for an array of entities, based on the bounty pool amount for that period\n    * @param _entities The entities array\n    * @param _tokenAddress The address of the token contract\n    * @param _epoch The period to which this balance corresponds to\n    **/\n\tfunction setBalancesForEntities(address[] _entities, address _tokenAddress, uint256 _epoch) external {\n\t\t// only allow 10 at most, more will probably be an input mistake\n\t\trequire(_entities.length < 10, \"Should not provide more than 10 entities\");\n\t\t// Getting the ammount of tokens in the Bounty Poll\n\t\tuint256 periodPool = VaultInstance.balance(_epoch, _tokenAddress);\n\n\t\t//Calculate the balance for each entity, based on its allowance\n\t\tfor (uint256 i = 0; i < _entities.length; i++) {\n\t\t\t// Get the entity's allowance in Percentage form\n\t\t\tuint256 entityAllowance = AllowanceInstance.getEntityAllowance(_entities[i], _epoch);\n\t\t\t// Get the entity's allowance in number of Tokens, based on the ammount\n\t\t\t// of tokens in the bounty pool\n\t\t\tuint256 entityAbsoluteAllowance = _calculateBalance(entityAllowance, periodPool);\n\t\t\t// Set the entity's balance for the current period as the number of Tokens\n\t\t\tentityBalanceForPeriod[_epoch][_tokenAddress][_entities[i]] = entityAbsoluteAllowance;\n\t\t\temit setBalanceForEntity(_entities[i],_tokenAddress, _epoch, entityAbsoluteAllowance);\n\t\t\t// Set the balance stage flag to 1, meaning \"set\".\n\t\t\t// \"set\" means the balance has been calculated and had not been changed.\n\t\t\tbalanceStage[_epoch][_tokenAddress] = 1;\n\t\t}\n\t}\n\t\n\t/**\n    * @dev Makes a payment to a receiver\n    * @param _entity The entity that is making the withdraw. This needs to be passed as a param, and not just read from msg.sender, so that it can be triggerd by the owner.\n    * @param _receiver The account that will receive the payment\n    * @param _tokenAddress The address of the token contract\n    * @param _paymentAmount The token amount to be transfered\n    **/\n\t\n\tfunction makePayment (address _entity,address _receiver,address _tokenAddress, uint256 _paymentAmount, \n\t\tuint256 _epoch) external \n\t{\n\t\t// check that it's the owner calling the function    \n\t\trequire(msg.sender == owner() || msg.sender == _entity, \"Only the owner can update this value\");\n\t\t\n\t\t// Get the current balance of this entity, in number of tokens\n\t\tuint256 currentBalance = entityBalanceForPeriod[_epoch][_tokenAddress][_entity];\n\t\t\n\t\t// --> Check that it's not withdrawing more than it has\n\t\trequire(_paymentAmount <= currentBalance, \"Trying to withdraw more than the balance\");\n\t\t\n\t\t// Transfer the value from the Vault\n\t\tVaultInstance.transfer(_epoch, _tokenAddress, _receiver, _paymentAmount);\n\t\t\n\t\t// Update the entity's balance\n\t\tentityBalanceForPeriod[_epoch][_tokenAddress][_entity] = currentBalance.sub(_paymentAmount);\n\t    emit madePayment(_entity, _receiver, _tokenAddress, _paymentAmount);\t\n\t\t// Set the balance stage flag to 2, meaning \"changed\".\n\t\t// \"changed\" means the balance has been changed after it was set.    \n\t\tbalanceStage[_epoch][_tokenAddress] = 2;\n\t}\n\n\t/**\n    * @dev Returns an entity's balance for a period and token\n    * @param _entity The entity that is making the withdraw. This needs to be passed as a param, and not just read from msg.sender, so that it can be triggerd by the owner.\n    * @param _tokenAddress The address of the token contract\n    * @param _epoch The period for which the balance is checked\n    **/\n\t\n\tfunction getBalance (address _entity, address _tokenAddress, uint256 _epoch) external view returns (uint256) {\n\t\treturn entityBalanceForPeriod[_epoch][_tokenAddress][_entity];\n\t}\n\n\n\t/**\n    * @dev Pure function that converts a percentage into an absolute number of tokens\n    * @param _entityAllowance The entity's % allowance\n    * @param _epochPool Amount of tokens in the bounty pool for that period\n    **/\n\n\tfunction _calculateBalance(uint256 _entityAllowance, uint256 _epochPool) pure returns (uint256 allowance) {\n\t\tuint256 stepCalculation = _entityAllowance.mul(_epochPool);\n\t\treturn stepCalculation.div(100);\n\t}\n}\n",
  "sourcePath": "/Users/boss/git/frontier/trl-project/TRL/contracts/Bank.sol",
  "compiler": {
    "name": "solc",
    "version": "0.4.24+commit.e67f0147.Emscripten.clang"
  },
  "schemaVersion": "2.0.0",
  "updatedAt": "2018-11-27T12:35:38.807Z"
}