{
  "contractName": "BasicSalaryEntity",
  "abi": [
    {
      "constant": false,
      "inputs": [],
      "name": "renounceOwnership",
      "outputs": [],
      "payable": false,
      "stateMutability": "nonpayable",
      "type": "function"
    },
    {
      "constant": true,
      "inputs": [],
      "name": "owner",
      "outputs": [
        {
          "name": "",
          "type": "address"
        }
      ],
      "payable": false,
      "stateMutability": "view",
      "type": "function"
    },
    {
      "constant": true,
      "inputs": [],
      "name": "isOwner",
      "outputs": [
        {
          "name": "",
          "type": "bool"
        }
      ],
      "payable": false,
      "stateMutability": "view",
      "type": "function"
    },
    {
      "constant": false,
      "inputs": [
        {
          "name": "newOwner",
          "type": "address"
        }
      ],
      "name": "transferOwnership",
      "outputs": [],
      "payable": false,
      "stateMutability": "nonpayable",
      "type": "function"
    },
    {
      "inputs": [
        {
          "name": "_vaultAddress",
          "type": "address"
        },
        {
          "name": "_balanceAddress",
          "type": "address"
        }
      ],
      "payable": false,
      "stateMutability": "nonpayable",
      "type": "constructor"
    },
    {
      "anonymous": false,
      "inputs": [
        {
          "indexed": true,
          "name": "_destination",
          "type": "address"
        },
        {
          "indexed": true,
          "name": "_token",
          "type": "address"
        },
        {
          "indexed": true,
          "name": "_epoch",
          "type": "uint256"
        },
        {
          "indexed": false,
          "name": "_amount",
          "type": "uint256"
        }
      ],
      "name": "collectedPayment",
      "type": "event"
    },
    {
      "anonymous": false,
      "inputs": [
        {
          "indexed": true,
          "name": "_receiver",
          "type": "address"
        },
        {
          "indexed": true,
          "name": "_token",
          "type": "address"
        }
      ],
      "name": "addedAllowedReceiver",
      "type": "event"
    },
    {
      "anonymous": false,
      "inputs": [
        {
          "indexed": true,
          "name": "previousOwner",
          "type": "address"
        },
        {
          "indexed": true,
          "name": "newOwner",
          "type": "address"
        }
      ],
      "name": "OwnershipTransferred",
      "type": "event"
    },
    {
      "constant": false,
      "inputs": [
        {
          "name": "_candidateRegistryAddress",
          "type": "address"
        }
      ],
      "name": "setCandidateRegistry",
      "outputs": [],
      "payable": false,
      "stateMutability": "nonpayable",
      "type": "function"
    },
    {
      "constant": false,
      "inputs": [
        {
          "name": "_entityBalance",
          "type": "uint256"
        },
        {
          "name": "_epoch",
          "type": "uint256"
        },
        {
          "name": "_token",
          "type": "address"
        },
        {
          "name": "_receiver",
          "type": "address"
        }
      ],
      "name": "calculatePaymentAmount",
      "outputs": [
        {
          "name": "amount",
          "type": "uint256"
        }
      ],
      "payable": false,
      "stateMutability": "nonpayable",
      "type": "function"
    },
    {
      "constant": false,
      "inputs": [
        {
          "name": "_destination",
          "type": "address"
        },
        {
          "name": "_token",
          "type": "address"
        }
      ],
      "name": "addAllowedReceiver",
      "outputs": [],
      "payable": false,
      "stateMutability": "nonpayable",
      "type": "function"
    },
    {
      "constant": false,
      "inputs": [
        {
          "name": "_destination",
          "type": "address"
        },
        {
          "name": "_token",
          "type": "address"
        },
        {
          "name": "_epoch",
          "type": "uint256"
        }
      ],
      "name": "collectPayment",
      "outputs": [],
      "payable": false,
      "stateMutability": "nonpayable",
      "type": "function"
    },
    {
      "constant": false,
      "inputs": [
        {
          "name": "_epoch",
          "type": "uint256"
        },
        {
          "name": "_token",
          "type": "address"
        },
        {
          "name": "_entityBalance",
          "type": "uint256"
        }
      ],
      "name": "calculateBasicSalaryForPeriod",
      "outputs": [],
      "payable": false,
      "stateMutability": "nonpayable",
      "type": "function"
    }
  ],
  "bytecode": "0x608060405234801561001057600080fd5b506040516040806111f68339810180604052810190808051906020019092919080519060200190929190505050336000806101000a81548173ffffffffffffffffffffffffffffffffffffffff021916908373ffffffffffffffffffffffffffffffffffffffff1602179055506000809054906101000a900473ffffffffffffffffffffffffffffffffffffffff1673ffffffffffffffffffffffffffffffffffffffff16600073ffffffffffffffffffffffffffffffffffffffff167f8be0079c531659141344cd1fd0a4f28419497f9722a3daafe3b4186f6b6457e060405160405180910390a380600460006101000a81548173ffffffffffffffffffffffffffffffffffffffff021916908373ffffffffffffffffffffffffffffffffffffffff16021790555081600560006101000a81548173ffffffffffffffffffffffffffffffffffffffff021916908373ffffffffffffffffffffffffffffffffffffffff160217905550505061106a8061018c6000396000f300608060405260043610610099576000357c0100000000000000000000000000000000000000000000000000000000900463ffffffff1680632851922a1461009e578063715018a61461010157806372ad425e146101185780638da5cb5b1461016f5780638f32d59b146101c6578063be6b49c7146101f5578063bef31f0014610280578063c2546665146102ed578063f2fde38b14610330575b600080fd5b3480156100aa57600080fd5b506100ff600480360381019080803573ffffffffffffffffffffffffffffffffffffffff169060200190929190803573ffffffffffffffffffffffffffffffffffffffff169060200190929190505050610373565b005b34801561010d57600080fd5b5061011661050f565b005b34801561012457600080fd5b5061016d60048036038101908080359060200190929190803573ffffffffffffffffffffffffffffffffffffffff169060200190929190803590602001909291905050506105e1565b005b34801561017b57600080fd5b506101846107c2565b604051808273ffffffffffffffffffffffffffffffffffffffff1673ffffffffffffffffffffffffffffffffffffffff16815260200191505060405180910390f35b3480156101d257600080fd5b506101db6107eb565b604051808215151515815260200191505060405180910390f35b34801561020157600080fd5b5061026a6004803603810190808035906020019092919080359060200190929190803573ffffffffffffffffffffffffffffffffffffffff169060200190929190803573ffffffffffffffffffffffffffffffffffffffff169060200190929190505050610842565b6040518082815260200191505060405180910390f35b34801561028c57600080fd5b506102eb600480360381019080803573ffffffffffffffffffffffffffffffffffffffff169060200190929190803573ffffffffffffffffffffffffffffffffffffffff1690602001909291908035906020019092919050505061089f565b005b3480156102f957600080fd5b5061032e600480360381019080803573ffffffffffffffffffffffffffffffffffffffff169060200190929190505050610de7565b005b34801561033c57600080fd5b50610371600480360381019080803573ffffffffffffffffffffffffffffffffffffffff169060200190929190505050610efb565b005b61037b6107c2565b73ffffffffffffffffffffffffffffffffffffffff163373ffffffffffffffffffffffffffffffffffffffff1614151561041d576040517f08c379a000000000000000000000000000000000000000000000000000000000815260040180806020018281038252601f8152602001807f63616e206f6e6c792062652063616c6c656420627920746865206f776e65720081525060200191505060405180910390fd5b60018060008473ffffffffffffffffffffffffffffffffffffffff1673ffffffffffffffffffffffffffffffffffffffff16815260200190815260200160002060008373ffffffffffffffffffffffffffffffffffffffff1673ffffffffffffffffffffffffffffffffffffffff16815260200190815260200160002060006101000a81548160ff0219169083151502179055508073ffffffffffffffffffffffffffffffffffffffff168273ffffffffffffffffffffffffffffffffffffffff167fc3fdbf082b283570d115179810eb107e8790c63426e113811eb9fec6c765a10260405160405180910390a35050565b6105176107eb565b151561052257600080fd5b600073ffffffffffffffffffffffffffffffffffffffff166000809054906101000a900473ffffffffffffffffffffffffffffffffffffffff1673ffffffffffffffffffffffffffffffffffffffff167f8be0079c531659141344cd1fd0a4f28419497f9722a3daafe3b4186f6b6457e060405160405180910390a360008060006101000a81548173ffffffffffffffffffffffffffffffffffffffff021916908373ffffffffffffffffffffffffffffffffffffffff160217905550565b6000806105ec6107c2565b73ffffffffffffffffffffffffffffffffffffffff163373ffffffffffffffffffffffffffffffffffffffff1614151561068e576040517f08c379a000000000000000000000000000000000000000000000000000000000815260040180806020018281038252601f8152602001807f63616e206f6e6c792062652063616c6c656420627920746865206f776e65720081525060200191505060405180910390fd5b600660009054906101000a900473ffffffffffffffffffffffffffffffffffffffff1673ffffffffffffffffffffffffffffffffffffffff16636c2c9c7d6040518163ffffffff167c0100000000000000000000000000000000000000000000000000000000028152600401602060405180830381600087803b15801561071457600080fd5b505af1158015610728573d6000803e3d6000fd5b505050506040513d602081101561073e57600080fd5b810190808051906020019092919050505091506107648284610f1a90919063ffffffff16565b9050806007600087815260200190815260200160002060008673ffffffffffffffffffffffffffffffffffffffff1673ffffffffffffffffffffffffffffffffffffffff168152602001908152602001600020819055505050505050565b60008060009054906101000a900473ffffffffffffffffffffffffffffffffffffffff16905090565b60008060009054906101000a900473ffffffffffffffffffffffffffffffffffffffff1673ffffffffffffffffffffffffffffffffffffffff163373ffffffffffffffffffffffffffffffffffffffff1614905090565b60006007600085815260200190815260200160002060008473ffffffffffffffffffffffffffffffffffffffff1673ffffffffffffffffffffffffffffffffffffffff168152602001908152602001600020549050949350505050565b600080600160008673ffffffffffffffffffffffffffffffffffffffff1673ffffffffffffffffffffffffffffffffffffffff16815260200190815260200160002060008573ffffffffffffffffffffffffffffffffffffffff1673ffffffffffffffffffffffffffffffffffffffff16815260200190815260200160002060009054906101000a900460ff16151561093757600080fd5b6008600084815260200190815260200160002060008673ffffffffffffffffffffffffffffffffffffffff1673ffffffffffffffffffffffffffffffffffffffff16815260200190815260200160002060008573ffffffffffffffffffffffffffffffffffffffff1673ffffffffffffffffffffffffffffffffffffffff16815260200190815260200160002060009054906101000a900460ff161515156109de57600080fd5b60006007600085815260200190815260200160002060008673ffffffffffffffffffffffffffffffffffffffff1673ffffffffffffffffffffffffffffffffffffffff168152602001908152602001600020541415610b7957600460009054906101000a900473ffffffffffffffffffffffffffffffffffffffff1673ffffffffffffffffffffffffffffffffffffffff166380697cf33086866040518463ffffffff167c0100000000000000000000000000000000000000000000000000000000028152600401808473ffffffffffffffffffffffffffffffffffffffff1673ffffffffffffffffffffffffffffffffffffffff1681526020018373ffffffffffffffffffffffffffffffffffffffff1673ffffffffffffffffffffffffffffffffffffffff1681526020018281526020019350505050602060405180830381600087803b158015610b3057600080fd5b505af1158015610b44573d6000803e3d6000fd5b505050506040513d6020811015610b5a57600080fd5b81019080805190602001909291905050509150610b788385846105e1565b5b610b8582848688610842565b9050600460009054906101000a900473ffffffffffffffffffffffffffffffffffffffff1673ffffffffffffffffffffffffffffffffffffffff16631e07166430878785886040518663ffffffff167c0100000000000000000000000000000000000000000000000000000000028152600401808673ffffffffffffffffffffffffffffffffffffffff1673ffffffffffffffffffffffffffffffffffffffff1681526020018573ffffffffffffffffffffffffffffffffffffffff1673ffffffffffffffffffffffffffffffffffffffff1681526020018473ffffffffffffffffffffffffffffffffffffffff1673ffffffffffffffffffffffffffffffffffffffff16815260200183815260200182815260200195505050505050600060405180830381600087803b158015610cbc57600080fd5b505af1158015610cd0573d6000803e3d6000fd5b5050505060016008600085815260200190815260200160002060008773ffffffffffffffffffffffffffffffffffffffff1673ffffffffffffffffffffffffffffffffffffffff16815260200190815260200160002060008673ffffffffffffffffffffffffffffffffffffffff1673ffffffffffffffffffffffffffffffffffffffff16815260200190815260200160002060006101000a81548160ff021916908315150217905550828473ffffffffffffffffffffffffffffffffffffffff168673ffffffffffffffffffffffffffffffffffffffff167f39e66fc21f61170a80982516a9d2466e01175749413b8b309bbb39e2911bd182846040518082815260200191505060405180910390a45050505050565b610def6107c2565b73ffffffffffffffffffffffffffffffffffffffff163373ffffffffffffffffffffffffffffffffffffffff16141515610eb7576040517f08c379a000000000000000000000000000000000000000000000000000000000815260040180806020018281038252602c8152602001807f4f6e6c7920746865206f776e65722063616e2063616c6c2073657443616e646981526020017f646174655265676973747279000000000000000000000000000000000000000081525060400191505060405180910390fd5b80600660006101000a81548173ffffffffffffffffffffffffffffffffffffffff021916908373ffffffffffffffffffffffffffffffffffffffff16021790555050565b610f036107eb565b1515610f0e57600080fd5b610f1781610f44565b50565b600080600083111515610f2c57600080fd5b8284811515610f3757fe5b0490508091505092915050565b600073ffffffffffffffffffffffffffffffffffffffff168173ffffffffffffffffffffffffffffffffffffffff1614151515610f8057600080fd5b8073ffffffffffffffffffffffffffffffffffffffff166000809054906101000a900473ffffffffffffffffffffffffffffffffffffffff1673ffffffffffffffffffffffffffffffffffffffff167f8be0079c531659141344cd1fd0a4f28419497f9722a3daafe3b4186f6b6457e060405160405180910390a3806000806101000a81548173ffffffffffffffffffffffffffffffffffffffff021916908373ffffffffffffffffffffffffffffffffffffffff160217905550505600a165627a7a7230582018e0b485e89567fe8aa9085577c3779ce38564111602a9b09791985ef976b32d0029",
  "source": "pragma solidity 0.4.24;\n\nimport \"openzeppelin-solidity/contracts/ownership/Ownable.sol\";\nimport \"openzeppelin-solidity/contracts/math/SafeMath.sol\";\nimport \"openzeppelin-solidity/contracts/token/ERC20/ERC20.sol\";\nimport \"@frontier-token-research/role-registries/contracts/OwnedRegistry.sol\";\nimport \"@frontier-token-research/role-registries/contracts/Registry.sol\"; \nimport \"../Bank.sol\";\nimport \"../Vault.sol\";\nimport \"./IFeeEntity.sol\";\n\ncontract BasicSalaryEntity is Ownable, IFeeEntity {\n\n  using SafeMath for uint256;\n\n\n  mapping (address => mapping(address => bool)) allowedReceivers;\n\n  address vaultAddress;\n  address balanceAddress;\n\n\n  Bank BankInstance;\n  Vault VaultInstance;\n  OwnedRegistry candidateRegistry;\n\n  // New storage\n\n  mapping (uint256 => mapping(address => uint256)) salaryAmountPerPeriod;\n\n  //        period            user               token        paid\n  mapping (uint256=> mapping(address => mapping(address => bool))) paidUsers;\n\n  constructor (address _vaultAddress, address _balanceAddress){   \n    BankInstance = Bank(_balanceAddress);\n    VaultInstance = Vault(_vaultAddress);\n  }\n\n  function setCandidateRegistry(address _candidateRegistryAddress) external {\n    require(msg.sender == owner(), \"Only the owner can call setCandidateRegistry\");\n    candidateRegistry = OwnedRegistry(_candidateRegistryAddress);\n  }\n\n  /**\n  * @dev Calculates the amount that the receiver should receive.\n  * @param _entityBalance Balance of the entity\n  * @param _epoch Period for which the value is to be calculated\n  * @param _token Token for which the value is to be calculated\n  * @param _receiver Receiver for which the value is to be calculated\n  */\n\n  function calculatePaymentAmount(uint256 _entityBalance, uint256 _epoch, address _token, address _receiver) public returns (uint256 amount){\n    // shim function to implement the interface\n    return salaryAmountPerPeriod[_epoch][_token];\n  }\n\n  /**\n  * @dev Adds a new authorized receiver for transfers made by this entity\n  * @param _destination Address of the receiver\n  * @param _token Token for which the transfers are authorized\n  */\n\n  function addAllowedReceiver(address _destination, address _token) external{\n    require(msg.sender == owner(), \"can only be called by the owner\");\n\n    allowedReceivers[_destination][_token] = true;\n    emit addedAllowedReceiver(_destination, _token);\n  }\n\n  /**\n  * @dev Triggers the payment to a receiver. \n  * @param _destination Address of the receiver\n  * @param _token Token for which the transfer is being triggered\n  * @param _epoch Period for which the transfer is being triggered\n  */\n  function collectPayment(address _destination, address _token, uint256 _epoch) \n  external\n  { // check user is an allowed receiver\n    require(allowedReceivers[_destination][_token]);\n    // check that user has not been paid yet\n    require(!paidUsers[_epoch][_destination][_token]);\n    // check if the salary has been calculated for this epoch and token\n    if(salaryAmountPerPeriod[_epoch][_token] == 0){\n        // Get the basic salary entity allowance \n        uint256 entityBalance = BankInstance.getStartingBalance(address(this), _token, _epoch);\n        calculateBasicSalaryForPeriod(_epoch, _token, entityBalance);\n    }\n\n\t// Calculate how much the user should receive\n    uint256 paymentAmount = calculatePaymentAmount(entityBalance, _epoch, _token, _destination);\n    // Transfer the funds, through the Bank contract\n    BankInstance.makePayment(address(this), _destination, _token, paymentAmount, _epoch);\n    // Update the user as having been paid\n    paidUsers[_epoch][_destination][_token] = true;\n    // emit event that the payment has been collected\n    emit collectedPayment(_destination, _token, _epoch, paymentAmount);\n  }\n\n  function calculateBasicSalaryForPeriod(uint256 _epoch, address _token, uint256 _entityBalance) public {\n  \t// it has to be onlyOwner because we have no way of getting the list of users for a given period\n   // the only alternative would be to only allow this value to be calculated for the \"current period\".\n   // TODO: generalize role-registry to keep track of list members per period\n   require(msg.sender == owner(), \"can only be called by the owner\");\n   \n   // we can remove the require owner if we index the candidates by epoch\n   uint256 numberOfCandidates = candidateRegistry.listingCounter();\n\n   uint256 basicSalaryForPeriod = _entityBalance.div(numberOfCandidates);\n   salaryAmountPerPeriod[_epoch][_token] = basicSalaryForPeriod;\n }\n}\n",
  "sourcePath": "/Users/boss/git/frontier/trl-project/TRL/contracts/entities/BasicSalary.sol",
  "compiler": {
    "name": "solc",
    "version": "0.4.24+commit.e67f0147.Emscripten.clang"
  },
  "schemaVersion": "2.0.0",
  "updatedAt": "2018-11-28T12:04:36.311Z"
}