{
  "contractName": "Daily",
  "abi": [
    {
      "constant": true,
      "inputs": [],
      "name": "creationBlock",
      "outputs": [
        {
          "name": "",
          "type": "uint256"
        }
      ],
      "payable": false,
      "stateMutability": "view",
      "type": "function"
    },
    {
      "constant": true,
      "inputs": [],
      "name": "creationTimestamp",
      "outputs": [
        {
          "name": "",
          "type": "uint256"
        }
      ],
      "payable": false,
      "stateMutability": "view",
      "type": "function"
    },
    {
      "constant": true,
      "inputs": [],
      "name": "getLength",
      "outputs": [
        {
          "name": "",
          "type": "uint256"
        }
      ],
      "payable": false,
      "stateMutability": "view",
      "type": "function"
    },
    {
      "constant": true,
      "inputs": [
        {
          "name": "_timestamp",
          "type": "uint256"
        }
      ],
      "name": "heightOf",
      "outputs": [
        {
          "name": "",
          "type": "uint256"
        }
      ],
      "payable": false,
      "stateMutability": "view",
      "type": "function"
    },
    {
      "constant": true,
      "inputs": [],
      "name": "height",
      "outputs": [
        {
          "name": "",
          "type": "uint256"
        }
      ],
      "payable": false,
      "stateMutability": "view",
      "type": "function"
    }
  ],
  "bytecode": "0x60806040524260008190555043600181905550610326806100216000396000f30060806040526004361061006d576000357c0100000000000000000000000000000000000000000000000000000000900463ffffffff1680630ef2674314610072578063176345141461009d578063b3311086146100c8578063be1c766b146100f3578063c23c39d31461011e575b600080fd5b34801561007e57600080fd5b5061008761015f565b6040518082815260200191505060405180910390f35b3480156100a957600080fd5b506100b261016f565b6040518082815260200191505060405180910390f35b3480156100d457600080fd5b506100dd610179565b6040518082815260200191505060405180910390f35b3480156100ff57600080fd5b50610108610182565b6040518082815260200191505060405180910390f35b34801561012a57600080fd5b506101496004803603810190808035906020019092919050505061018b565b6040518082815260200191505060405180910390f35b600061016a4261018b565b905090565b6000600154905090565b60008054905090565b60006001905090565b600073__DateTime______________________________63c9d346226101af610179565b60006040518363ffffffff167c0100000000000000000000000000000000000000000000000000000000028152600401808381526020018281526020019250505060206040518083038186803b15801561020857600080fd5b505af415801561021c573d6000803e3d6000fd5b505050506040513d602081101561023257600080fd5b810190808051906020019092919050505073__DateTime______________________________63c9d346228460006040518363ffffffff167c0100000000000000000000000000000000000000000000000000000000028152600401808381526020018281526020019250505060206040518083038186803b1580156102b757600080fd5b505af41580156102cb573d6000803e3d6000fd5b505050506040513d60208110156102e157600080fd5b81019080805190602001909291905050500390509190505600a165627a7a7230582058fe6fe53ca489635619baa7c9656d1f19e2aa91c05e52a98c0d1c4f8bd46c7c0029",
  "source": "pragma solidity 0.4.24;\n\nimport \"./DateTime.sol\";\nimport \"../IPeriod.sol\";\nimport \"../Traceable.sol\";\n\n/**\n * A particular case of a periodic contract where the height increased by one every period\n */\n\ncontract Daily is IPeriod, Traceable {\n    using DateTime for *;\n\n    /**\n     * @return 1 as this contract is set  to be changing every single day. \n     */\n    function getLength() public view returns(uint256) {\n        return 1;\n    }\n\n    /**\n     * @param _timestamp unix epoch seconds \n     * @return Number of days that happened since this contract was deployed to the  target timestamp\n     */\n\n    function heightOf(uint256 _timestamp) public view returns (uint256) {\n        return DateTime.diffDays(_timestamp, 0) - DateTime.diffDays(creationTimestamp(), 0);\n    }\n    \n    /**\n     * @return A particular case of heightOf, using the current timestamp\n     */\n\n    function height() public view returns (uint256) {\n        return heightOf(block.timestamp);\n    }\n}",
  "sourcePath": "/Users/carlosbuendia/Documents/Projects/consensys/Frontier/cron/contracts/calendar/Daily.sol",
  "compiler": {
    "name": "solc",
    "version": "0.4.24+commit.e67f0147.Emscripten.clang"
  },
  "schemaVersion": "2.0.0",
  "updatedAt": "2018-11-28T10:24:51.864Z"
}