{
  "contractName": "DateTime",
  "abi": [
    {
      "constant": true,
      "inputs": [
        {
          "name": "_timestamp",
          "type": "uint256"
        }
      ],
      "name": "getYear",
      "outputs": [
        {
          "name": "",
          "type": "uint16"
        }
      ],
      "payable": false,
      "stateMutability": "pure",
      "type": "function"
    },
    {
      "constant": true,
      "inputs": [
        {
          "name": "_timestamp",
          "type": "uint256"
        }
      ],
      "name": "getMonth",
      "outputs": [
        {
          "name": "",
          "type": "uint8"
        }
      ],
      "payable": false,
      "stateMutability": "pure",
      "type": "function"
    },
    {
      "constant": true,
      "inputs": [
        {
          "name": "_timestamp",
          "type": "uint256"
        }
      ],
      "name": "getDay",
      "outputs": [
        {
          "name": "",
          "type": "uint8"
        }
      ],
      "payable": false,
      "stateMutability": "pure",
      "type": "function"
    },
    {
      "constant": true,
      "inputs": [
        {
          "name": "_timestamp",
          "type": "uint256"
        }
      ],
      "name": "getHour",
      "outputs": [
        {
          "name": "",
          "type": "uint8"
        }
      ],
      "payable": false,
      "stateMutability": "pure",
      "type": "function"
    },
    {
      "constant": true,
      "inputs": [
        {
          "name": "_timestamp",
          "type": "uint256"
        }
      ],
      "name": "getMinute",
      "outputs": [
        {
          "name": "",
          "type": "uint8"
        }
      ],
      "payable": false,
      "stateMutability": "pure",
      "type": "function"
    },
    {
      "constant": true,
      "inputs": [
        {
          "name": "_timestamp",
          "type": "uint256"
        }
      ],
      "name": "getSecond",
      "outputs": [
        {
          "name": "",
          "type": "uint8"
        }
      ],
      "payable": false,
      "stateMutability": "pure",
      "type": "function"
    },
    {
      "constant": true,
      "inputs": [
        {
          "name": "_timestamp",
          "type": "uint256"
        }
      ],
      "name": "getWeekday",
      "outputs": [
        {
          "name": "",
          "type": "uint8"
        }
      ],
      "payable": false,
      "stateMutability": "pure",
      "type": "function"
    },
    {
      "constant": true,
      "inputs": [
        {
          "name": "_month",
          "type": "uint16"
        },
        {
          "name": "_year",
          "type": "uint16"
        }
      ],
      "name": "getDaysInMonth",
      "outputs": [
        {
          "name": "",
          "type": "uint8"
        }
      ],
      "payable": false,
      "stateMutability": "pure",
      "type": "function"
    },
    {
      "constant": true,
      "inputs": [
        {
          "name": "_x",
          "type": "uint256"
        },
        {
          "name": "_y",
          "type": "uint256"
        }
      ],
      "name": "diffYears",
      "outputs": [
        {
          "name": "",
          "type": "uint256"
        }
      ],
      "payable": false,
      "stateMutability": "pure",
      "type": "function"
    },
    {
      "constant": true,
      "inputs": [
        {
          "name": "_x",
          "type": "uint256"
        },
        {
          "name": "_y",
          "type": "uint256"
        }
      ],
      "name": "diffMonths",
      "outputs": [
        {
          "name": "",
          "type": "uint256"
        }
      ],
      "payable": false,
      "stateMutability": "pure",
      "type": "function"
    },
    {
      "constant": true,
      "inputs": [
        {
          "name": "_x",
          "type": "uint256"
        },
        {
          "name": "_y",
          "type": "uint256"
        }
      ],
      "name": "diffDays",
      "outputs": [
        {
          "name": "",
          "type": "uint256"
        }
      ],
      "payable": false,
      "stateMutability": "pure",
      "type": "function"
    },
    {
      "constant": true,
      "inputs": [
        {
          "name": "year",
          "type": "uint16"
        }
      ],
      "name": "isLeapYear",
      "outputs": [
        {
          "name": "",
          "type": "bool"
        }
      ],
      "payable": false,
      "stateMutability": "pure",
      "type": "function"
    },
    {
      "constant": true,
      "inputs": [],
      "name": "originYear",
      "outputs": [
        {
          "name": "",
          "type": "uint16"
        }
      ],
      "payable": false,
      "stateMutability": "pure",
      "type": "function"
    },
    {
      "constant": true,
      "inputs": [],
      "name": "dayInSeconds",
      "outputs": [
        {
          "name": "",
          "type": "uint256"
        }
      ],
      "payable": false,
      "stateMutability": "pure",
      "type": "function"
    },
    {
      "constant": true,
      "inputs": [],
      "name": "yearInSeconds",
      "outputs": [
        {
          "name": "",
          "type": "uint256"
        }
      ],
      "payable": false,
      "stateMutability": "pure",
      "type": "function"
    },
    {
      "constant": true,
      "inputs": [],
      "name": "leapYearInSeconds",
      "outputs": [
        {
          "name": "",
          "type": "uint256"
        }
      ],
      "payable": false,
      "stateMutability": "pure",
      "type": "function"
    },
    {
      "constant": true,
      "inputs": [],
      "name": "minuteInSeconds",
      "outputs": [
        {
          "name": "",
          "type": "uint256"
        }
      ],
      "payable": false,
      "stateMutability": "pure",
      "type": "function"
    },
    {
      "constant": true,
      "inputs": [],
      "name": "hourInSeconds",
      "outputs": [
        {
          "name": "",
          "type": "uint256"
        }
      ],
      "payable": false,
      "stateMutability": "pure",
      "type": "function"
    },
    {
      "constant": true,
      "inputs": [
        {
          "name": "_year",
          "type": "uint256"
        }
      ],
      "name": "leapYearsBefore",
      "outputs": [
        {
          "name": "",
          "type": "uint256"
        }
      ],
      "payable": false,
      "stateMutability": "pure",
      "type": "function"
    }
  ],
  "bytecode": "0x610c9d610030600b82828239805160001a6073146000811461002057610022565bfe5b5030600052607381538281f300730000000000000000000000000000000000000000301460806040526004361061011e576000357c0100000000000000000000000000000000000000000000000000000000900463ffffffff1680630dde95231461012357806316e652ea1461016f57806336206a911461018d5780633e239e1a146101ab5780634059d596146101e55780634ac1ad7814610203578063558538571461023d57806365c72840146102635780637be341091461029d5780638aa001fc146102db57806392d6631314610315578063a324ad2414610351578063a6f0e5771461038b578063ae63586c146103c7578063b1999937146103e5578063c9d3462214610419578063d371132e14610457578063fa93f88314610475578063ff2258cb146104af575b600080fd5b610153600480360381019080803561ffff169060200190929190803561ffff1690602001909291905050506104ed565b604051808260ff1660ff16815260200191505060405180910390f35b6101776105c4565b6040518082815260200191505060405180910390f35b6101956105cd565b6040518082815260200191505060405180910390f35b6101c9600480360381019080803590602001909291905050506105d7565b604051808260ff1660ff16815260200191505060405180910390f35b6101ed610604565b6040518082815260200191505060405180910390f35b61022160048036038101908080359060200190929190505050610610565b604051808260ff1660ff16815260200191505060405180910390f35b61024561063b565b604051808261ffff1661ffff16815260200191505060405180910390f35b61028160048036038101908080359060200190929190505050610645565b604051808260ff1660ff16815260200191505060405180910390f35b6102c5600480360381019080803590602001909291908035906020019092919050505061065b565b6040518082815260200191505060405180910390f35b6102f96004803603810190808035906020019092919050505061076f565b604051808260ff1660ff16815260200191505060405180910390f35b61033360048036038101908080359060200190929190505050610785565b604051808261ffff1661ffff16815260200191505060405180910390f35b61036f6004803603810190808035906020019092919050505061084e565b604051808260ff1660ff16815260200191505060405180910390f35b6103ad600480360381019080803561ffff169060200190929190505050610864565b604051808215151515815260200191505060405180910390f35b6103cf6108e5565b6040518082815260200191505060405180910390f35b610403600480360381019080803590602001909291905050506108f0565b6040518082815260200191505060405180910390f35b6104416004803603810190808035906020019092919080359060200190929190505050610929565b6040518082815260200191505060405180910390f35b61045f610956565b6040518082815260200191505060405180910390f35b61049360048036038101908080359060200190929190505050610962565b604051808260ff1660ff16815260200191505060405180910390f35b6104d76004803603810190808035906020019092919080359060200190929190505050610983565b6040518082815260200191505060405180910390f35b600060018361ffff161480610506575060038361ffff16145b80610515575060058361ffff16145b80610524575060078361ffff16145b80610533575060088361ffff16145b806105425750600a8361ffff16145b806105515750600c8361ffff16145b1561055f57601f90506105be565b60048361ffff161480610576575060068361ffff16145b80610585575060098361ffff16145b806105945750600b8361ffff16145b156105a257601e90506105be565b6105ab82610864565b156105b957601d90506105be565b601c90505b92915050565b6000603c905090565b6000610e10905090565b60006018603c80848115156105e857fe5b048115156105f257fe5b048115156105fc57fe5b069050919050565b60006301e13380905090565b60006007600461061e6108e5565b8481151561062857fe5b040181151561063357fe5b069050919050565b60006107b2905090565b600061065082610a5a565b604001519050919050565b60008061066783610785565b61ffff1661067485610785565b61ffff1610151515610714576040517f08c379a00000000000000000000000000000000000000000000000000000000081526004018080602001828103825260318152602001807f466972737420617267756d656e742070726f7669646564206d7573742062652081526020017f3e207365636f6e6420617267756d656e7400000000000000000000000000000081525060400191505060405180910390fd5b61071d8361084e565b60ff166107298561084e565b60ff161161073857600061073b565b60015b90506107468361084e565b61074f8561084e565b0360ff16600c8260ff166107638787610983565b03020191505092915050565b6000603c8281151561077d57fe5b069050919050565b60008060008060009250610797610604565b858115156107a157fe5b046107aa61063b565b61ffff160191506107c56107bc61063b565b61ffff166108f0565b6107d28361ffff166108f0565b039050806107de610956565b0283019250806107ec61063b565b830361ffff16036107fb610604565b02830192505b848311156108435761081560018303610864565b1561082b57610822610956565b83039250610838565b610833610604565b830392505b600182039150610801565b819350505050919050565b600061085982610a5a565b602001519050919050565b60008060048361ffff1681151561087757fe5b0661ffff1614151561088c57600090506108e0565b600060648361ffff1681151561089e57fe5b0661ffff161415156108b357600190506108e0565b60006101908361ffff168115156108c657fe5b0661ffff161415156108db57600090506108e0565b600190505b919050565b600062015180905090565b60006001820391506101908281151561090557fe5b0460648381151561091257fe5b0460048481151561091f57fe5b0403019050919050565b6000818311151561093957600080fd5b6109416108e5565b82840381151561094d57fe5b04905092915050565b60006301e28500905090565b6000603c808381151561097157fe5b0481151561097b57fe5b069050919050565b600061098e82610785565b61ffff1661099b84610785565b61ffff1610151515610a3b576040517f08c379a00000000000000000000000000000000000000000000000000000000081526004018080602001828103825260318152602001807f466972737420617267756d656e742070726f7669646564206d7573742062652081526020017f3e207365636f6e6420617267756d656e7400000000000000000000000000000081525060400191505060405180910390fd5b610a4482610785565b610a4d84610785565b0361ffff16905092915050565b610a62610c1d565b60008060008060009350610a7586610785565b856000019061ffff16908161ffff1681525050610a9c610a9361063b565b61ffff166108f0565b610aad866000015161ffff166108f0565b03925082610ab9610956565b028401935082610ac761063b565b86600001510361ffff1603610ada610604565b0284019350600191505b600c8260ff16111515610b4357610b028260ff1686600001516104ed565b60ff16610b0d6108e5565b029050858482011115610b315781856020019060ff16908160ff1681525050610b43565b80840193508180600101925050610ae4565b600191505b610b5d856020015160ff1686600001516104ed565b60ff168260ff16111515610bac578584610b756108e5565b011115610b935781856040019060ff16908160ff1681525050610bac565b610b9b6108e5565b840193508180600101925050610b48565b610bb5866105d7565b856060019060ff16908160ff1681525050610bcf86610962565b856080019060ff16908160ff1681525050610be98661076f565b8560a0019060ff16908160ff1681525050610c0386610610565b8560c0019060ff16908160ff168152505050505050919050565b60e060405190810160405280600061ffff168152602001600060ff168152602001600060ff168152602001600060ff168152602001600060ff168152602001600060ff168152602001600060ff16815250905600a165627a7a72305820af3a68e41a112b32a5acd11ef026c999ada3aeb925bfb9ae5e0d411a9f39edec0029",
  "source": "pragma solidity ^0.4.24;\n\n\n/**\n * Contract code based on pipemerrian's Date Time Smart contract, now available as a library.\n * https://github.com/pipermerriam/ethereum-datetime/blob/master/contracts/DateTime.sol\n * Provide Datetime utils on Ethereum Smart Contracts\n */\n\nlibrary DateTime {\n  \n    struct _DateTime {\n        uint16 year;\n        uint8 month;\n        uint8 day;\n        uint8 hour;\n        uint8 minute;\n        uint8 second;\n        uint8 weekday;\n    }\n\n     function getYear(uint _timestamp) public pure returns (uint16) {\n        uint256 secondsAccountedFor = 0;\n        uint16 year;\n        uint256 numLeapYears;\n        year = uint16(originYear() + _timestamp / yearInSeconds());\n        numLeapYears = leapYearsBefore(year) - leapYearsBefore(originYear());\n\n        secondsAccountedFor += leapYearInSeconds() * numLeapYears;\n        secondsAccountedFor += yearInSeconds() * (year - originYear() - numLeapYears);\n\n        while (secondsAccountedFor > _timestamp) {\n            if (isLeapYear(uint16(year - 1))) {\n                    secondsAccountedFor -= leapYearInSeconds();\n            }\n            else {\n                    secondsAccountedFor -= yearInSeconds();\n            }\n            year -= 1;\n        }\n        return year;\n    }\n\n    function getMonth(uint256 _timestamp) public pure returns (uint8) {\n        return parseTimestamp(_timestamp).month;\n    }\n\n    function getDay(uint256 _timestamp) public pure returns (uint8) {\n        return parseTimestamp(_timestamp).day;\n    }\n\n    function getHour(uint256 _timestamp) public pure returns (uint8) {\n        return uint8((_timestamp / 60 / 60) % 24);\n    }\n\n    function getMinute(uint256 _timestamp) public pure returns (uint8) {\n        return uint8((_timestamp / 60) % 60);\n    }\n\n    function getSecond(uint256 _timestamp) public pure returns (uint8) {\n        return uint8(_timestamp % 60);\n    }\n\n    function getWeekday(uint256 _timestamp) public pure returns (uint8) {\n        return uint8((_timestamp / dayInSeconds() + 4) % 7);\n    }\n\n    function getDaysInMonth(uint16 _month, uint16 _year) public pure returns (uint8) {\n        if (_month == 1 || _month == 3 || _month == 5 || _month == 7 || _month == 8 || _month == 10 || _month == 12) {\n                return 31;\n        }\n        else if (_month == 4 || _month == 6 || _month == 9 || _month == 11) {\n                return 30;\n        }\n        else if (isLeapYear(_year)) {\n                return 29;\n        }\n        else {\n                return 28;\n        }\n    }\n\n    function diffYears(uint256 _x, uint256 _y) public pure returns (uint256) {\n        require(getYear(_x) >= getYear(_y), 'First argument provided must be > second argument');\n        return uint256(getYear(_x) - getYear(_y));\n    }\n\n    function diffMonths(uint256 _x, uint256 _y) public pure returns (uint256) {\n        require(getYear(_x) >= getYear(_y), 'First argument provided must be > second argument');\n        uint8 delta = getMonth(_x) > getMonth(_y) ? 1 : 0;\n        return (diffYears(_x, _y) - delta) * 12  + uint256(getMonth(_x) - getMonth(_y)) ;\n    }\n\n    function diffDays(uint256 _x, uint256 _y) public pure returns (uint256) {\n        require(_x > _y);\n        return(_x - _y) / dayInSeconds();\n    }\n\n    function isLeapYear(uint16 year) public pure returns (bool) {\n        if (year % 4 != 0) {\n            return false;\n        }\n        if (year % 100 != 0) {\n            return true;\n        }\n        if (year % 400 != 0) {\n            return false;\n        }\n        return true;\n    }\n    \n    function originYear() public pure returns(uint16) {\n        return 1970;\n    }\n    \n    function dayInSeconds() public pure returns (uint256) {\n        return 86400;\n    }\n    \n    function yearInSeconds() public pure returns (uint256) {\n        return 31536000;\n    }\n    \n    function leapYearInSeconds() public pure returns (uint256) { \n        return 31622400;\n    }\n    \n    function minuteInSeconds() public pure returns(uint256) {\n        return 60;\n    }\n    \n    function hourInSeconds() public pure returns(uint256) { \n        return 3600;\n    }\n\n    function leapYearsBefore(uint256 _year) public pure returns (uint256) {\n        _year -= 1;\n        return _year / 4 - _year / 100 + _year / 400;\n    }\n\n\n    function parseTimestamp(uint256 _timestamp) internal pure returns (_DateTime dt) {\n        uint256 secondsAccountedFor = 0;\n        uint256 buf;\n        uint8 i;\n\n        dt.year = getYear(_timestamp);\n        buf = leapYearsBefore(dt.year) - leapYearsBefore(originYear());\n\n        secondsAccountedFor += leapYearInSeconds() * buf;\n        secondsAccountedFor += yearInSeconds() * (dt.year - originYear() - buf);\n        uint256 secondsInMonth;\n        for (i = 1; i <= 12; i++) {\n            secondsInMonth = dayInSeconds() * getDaysInMonth(i, dt.year);\n            if (secondsInMonth + secondsAccountedFor > _timestamp) {\n                    dt.month = i;\n                    break;\n            }\n            secondsAccountedFor += secondsInMonth;\n        }\n\n        for (i = 1; i <= getDaysInMonth(dt.month, dt.year); i++) {\n            if (dayInSeconds() + secondsAccountedFor > _timestamp) {\n                    dt.day = i;\n                    break;\n            }\n            secondsAccountedFor += dayInSeconds();\n        }\n\n        dt.hour = getHour(_timestamp);\n        dt.minute = getMinute(_timestamp);\n        dt.second = getSecond(_timestamp);\n        dt.weekday = getWeekday(_timestamp);\n    }\n}\n\n",
  "sourcePath": "/Users/carlosbuendia/Documents/Projects/consensys/Frontier/cron/contracts/calendar/DateTime.sol",
  "compiler": {
    "name": "solc",
    "version": "0.4.24+commit.e67f0147.Emscripten.clang"
  },
  "schemaVersion": "2.0.0",
  "updatedAt": "2018-11-28T10:24:51.878Z"
}