{
  "contractName": "DateTimeMock",
  "abi": [
    {
      "constant": true,
      "inputs": [
        {
          "name": "_timestamp",
          "type": "uint256"
        }
      ],
      "name": "getYear",
      "outputs": [
        {
          "name": "",
          "type": "uint16"
        }
      ],
      "payable": false,
      "stateMutability": "pure",
      "type": "function"
    },
    {
      "constant": true,
      "inputs": [
        {
          "name": "_timestamp",
          "type": "uint256"
        }
      ],
      "name": "getMonth",
      "outputs": [
        {
          "name": "",
          "type": "uint8"
        }
      ],
      "payable": false,
      "stateMutability": "pure",
      "type": "function"
    },
    {
      "constant": true,
      "inputs": [
        {
          "name": "_timestamp",
          "type": "uint256"
        }
      ],
      "name": "getDay",
      "outputs": [
        {
          "name": "",
          "type": "uint8"
        }
      ],
      "payable": false,
      "stateMutability": "pure",
      "type": "function"
    },
    {
      "constant": true,
      "inputs": [
        {
          "name": "_timestamp",
          "type": "uint256"
        }
      ],
      "name": "getHour",
      "outputs": [
        {
          "name": "",
          "type": "uint8"
        }
      ],
      "payable": false,
      "stateMutability": "pure",
      "type": "function"
    },
    {
      "constant": true,
      "inputs": [
        {
          "name": "_timestamp",
          "type": "uint256"
        }
      ],
      "name": "getMinute",
      "outputs": [
        {
          "name": "",
          "type": "uint8"
        }
      ],
      "payable": false,
      "stateMutability": "pure",
      "type": "function"
    },
    {
      "constant": true,
      "inputs": [
        {
          "name": "_timestamp",
          "type": "uint256"
        }
      ],
      "name": "getSecond",
      "outputs": [
        {
          "name": "",
          "type": "uint8"
        }
      ],
      "payable": false,
      "stateMutability": "pure",
      "type": "function"
    },
    {
      "constant": true,
      "inputs": [
        {
          "name": "_timestamp",
          "type": "uint256"
        }
      ],
      "name": "getWeekday",
      "outputs": [
        {
          "name": "",
          "type": "uint8"
        }
      ],
      "payable": false,
      "stateMutability": "pure",
      "type": "function"
    },
    {
      "constant": true,
      "inputs": [
        {
          "name": "_month",
          "type": "uint16"
        },
        {
          "name": "_year",
          "type": "uint16"
        }
      ],
      "name": "getDaysInMonth",
      "outputs": [
        {
          "name": "",
          "type": "uint8"
        }
      ],
      "payable": false,
      "stateMutability": "pure",
      "type": "function"
    },
    {
      "constant": true,
      "inputs": [
        {
          "name": "_x",
          "type": "uint256"
        },
        {
          "name": "_y",
          "type": "uint256"
        }
      ],
      "name": "diffYears",
      "outputs": [
        {
          "name": "",
          "type": "uint256"
        }
      ],
      "payable": false,
      "stateMutability": "pure",
      "type": "function"
    },
    {
      "constant": true,
      "inputs": [
        {
          "name": "_x",
          "type": "uint256"
        },
        {
          "name": "_y",
          "type": "uint256"
        }
      ],
      "name": "diffMonths",
      "outputs": [
        {
          "name": "",
          "type": "uint256"
        }
      ],
      "payable": false,
      "stateMutability": "pure",
      "type": "function"
    },
    {
      "constant": true,
      "inputs": [
        {
          "name": "_x",
          "type": "uint256"
        },
        {
          "name": "_y",
          "type": "uint256"
        }
      ],
      "name": "diffDays",
      "outputs": [
        {
          "name": "",
          "type": "uint256"
        }
      ],
      "payable": false,
      "stateMutability": "pure",
      "type": "function"
    },
    {
      "constant": true,
      "inputs": [
        {
          "name": "_year",
          "type": "uint16"
        }
      ],
      "name": "isLeapYear",
      "outputs": [
        {
          "name": "",
          "type": "bool"
        }
      ],
      "payable": false,
      "stateMutability": "pure",
      "type": "function"
    },
    {
      "constant": true,
      "inputs": [],
      "name": "originYear",
      "outputs": [
        {
          "name": "",
          "type": "uint16"
        }
      ],
      "payable": false,
      "stateMutability": "pure",
      "type": "function"
    },
    {
      "constant": true,
      "inputs": [],
      "name": "dayInSeconds",
      "outputs": [
        {
          "name": "",
          "type": "uint256"
        }
      ],
      "payable": false,
      "stateMutability": "pure",
      "type": "function"
    },
    {
      "constant": true,
      "inputs": [],
      "name": "yearInSeconds",
      "outputs": [
        {
          "name": "",
          "type": "uint256"
        }
      ],
      "payable": false,
      "stateMutability": "pure",
      "type": "function"
    },
    {
      "constant": true,
      "inputs": [],
      "name": "leapYearInSeconds",
      "outputs": [
        {
          "name": "",
          "type": "uint256"
        }
      ],
      "payable": false,
      "stateMutability": "pure",
      "type": "function"
    },
    {
      "constant": true,
      "inputs": [],
      "name": "minuteInSeconds",
      "outputs": [
        {
          "name": "",
          "type": "uint256"
        }
      ],
      "payable": false,
      "stateMutability": "pure",
      "type": "function"
    },
    {
      "constant": true,
      "inputs": [],
      "name": "hourInSeconds",
      "outputs": [
        {
          "name": "",
          "type": "uint256"
        }
      ],
      "payable": false,
      "stateMutability": "pure",
      "type": "function"
    },
    {
      "constant": true,
      "inputs": [
        {
          "name": "_year",
          "type": "uint256"
        }
      ],
      "name": "leapYearsBefore",
      "outputs": [
        {
          "name": "",
          "type": "uint256"
        }
      ],
      "payable": false,
      "stateMutability": "pure",
      "type": "function"
    }
  ],
  "bytecode": "0x608060405234801561001057600080fd5b506112e4806100206000396000f300608060405260043610610107576000357c0100000000000000000000000000000000000000000000000000000000900463ffffffff1680630dde95231461010c57806316e652ea1461016557806336206a91146101905780633e239e1a146101bb5780634059d596146102025780634ac1ad781461022d578063558538571461027457806365c72840146102a75780637be34109146102ee5780638aa001fc1461033957806392d6631314610380578063a324ad24146103c9578063a6f0e57714610410578063ae63586c14610459578063b199993714610484578063c9d34622146104c5578063d371132e14610510578063fa93f8831461053b578063ff2258cb14610582575b600080fd5b34801561011857600080fd5b50610149600480360381019080803561ffff169060200190929190803561ffff1690602001909291905050506105cd565b604051808260ff1660ff16815260200191505060405180910390f35b34801561017157600080fd5b5061017a610695565b6040518082815260200191505060405180910390f35b34801561019c57600080fd5b506101a5610737565b6040518082815260200191505060405180910390f35b3480156101c757600080fd5b506101e6600480360381019080803590602001909291905050506107d9565b604051808260ff1660ff16815260200191505060405180910390f35b34801561020e57600080fd5b50610217610888565b6040518082815260200191505060405180910390f35b34801561023957600080fd5b506102586004803603810190808035906020019092919050505061092a565b604051808260ff1660ff16815260200191505060405180910390f35b34801561028057600080fd5b506102896109d9565b604051808261ffff1661ffff16815260200191505060405180910390f35b3480156102b357600080fd5b506102d260048036038101908080359060200190929190505050610a7b565b604051808260ff1660ff16815260200191505060405180910390f35b3480156102fa57600080fd5b506103236004803603810190808035906020019092919080359060200190929190505050610b2a565b6040518082815260200191505060405180910390f35b34801561034557600080fd5b5061036460048036038101908080359060200190929190505050610be2565b604051808260ff1660ff16815260200191505060405180910390f35b34801561038c57600080fd5b506103ab60048036038101908080359060200190929190505050610c91565b604051808261ffff1661ffff16815260200191505060405180910390f35b3480156103d557600080fd5b506103f460048036038101908080359060200190929190505050610d40565b604051808260ff1660ff16815260200191505060405180910390f35b34801561041c57600080fd5b5061043f600480360381019080803561ffff169060200190929190505050610def565b604051808215151515815260200191505060405180910390f35b34801561046557600080fd5b5061046e610ea6565b6040518082815260200191505060405180910390f35b34801561049057600080fd5b506104af60048036038101908080359060200190929190505050610f48565b6040518082815260200191505060405180910390f35b3480156104d157600080fd5b506104fa6004803603810190808035906020019092919080359060200190929190505050610ff7565b6040518082815260200191505060405180910390f35b34801561051c57600080fd5b506105256110af565b6040518082815260200191505060405180910390f35b34801561054757600080fd5b5061056660048036038101908080359060200190929190505050611151565b604051808260ff1660ff16815260200191505060405180910390f35b34801561058e57600080fd5b506105b76004803603810190808035906020019092919080359060200190929190505050611200565b6040518082815260200191505060405180910390f35b600073__DateTime______________________________630dde952384846040518363ffffffff167c0100000000000000000000000000000000000000000000000000000000028152600401808361ffff1661ffff1681526020018261ffff1661ffff1681526020019250505060206040518083038186803b15801561065257600080fd5b505af4158015610666573d6000803e3d6000fd5b505050506040513d602081101561067c57600080fd5b8101908080519060200190929190505050905092915050565b600073__DateTime______________________________6316e652ea6040518163ffffffff167c010000000000000000000000000000000000000000000000000000000002815260040160206040518083038186803b1580156106f757600080fd5b505af415801561070b573d6000803e3d6000fd5b505050506040513d602081101561072157600080fd5b8101908080519060200190929190505050905090565b600073__DateTime______________________________6336206a916040518163ffffffff167c010000000000000000000000000000000000000000000000000000000002815260040160206040518083038186803b15801561079957600080fd5b505af41580156107ad573d6000803e3d6000fd5b505050506040513d60208110156107c357600080fd5b8101908080519060200190929190505050905090565b600073__DateTime______________________________633e239e1a836040518263ffffffff167c01000000000000000000000000000000000000000000000000000000000281526004018082815260200191505060206040518083038186803b15801561084657600080fd5b505af415801561085a573d6000803e3d6000fd5b505050506040513d602081101561087057600080fd5b81019080805190602001909291905050509050919050565b600073__DateTime______________________________634059d5966040518163ffffffff167c010000000000000000000000000000000000000000000000000000000002815260040160206040518083038186803b1580156108ea57600080fd5b505af41580156108fe573d6000803e3d6000fd5b505050506040513d602081101561091457600080fd5b8101908080519060200190929190505050905090565b600073__DateTime______________________________634ac1ad78836040518263ffffffff167c01000000000000000000000000000000000000000000000000000000000281526004018082815260200191505060206040518083038186803b15801561099757600080fd5b505af41580156109ab573d6000803e3d6000fd5b505050506040513d60208110156109c157600080fd5b81019080805190602001909291905050509050919050565b600073__DateTime______________________________63558538576040518163ffffffff167c010000000000000000000000000000000000000000000000000000000002815260040160206040518083038186803b158015610a3b57600080fd5b505af4158015610a4f573d6000803e3d6000fd5b505050506040513d6020811015610a6557600080fd5b8101908080519060200190929190505050905090565b600073__DateTime______________________________6365c72840836040518263ffffffff167c01000000000000000000000000000000000000000000000000000000000281526004018082815260200191505060206040518083038186803b158015610ae857600080fd5b505af4158015610afc573d6000803e3d6000fd5b505050506040513d6020811015610b1257600080fd5b81019080805190602001909291905050509050919050565b600073__DateTime______________________________637be3410984846040518363ffffffff167c0100000000000000000000000000000000000000000000000000000000028152600401808381526020018281526020019250505060206040518083038186803b158015610b9f57600080fd5b505af4158015610bb3573d6000803e3d6000fd5b505050506040513d6020811015610bc957600080fd5b8101908080519060200190929190505050905092915050565b600073__DateTime______________________________638aa001fc836040518263ffffffff167c01000000000000000000000000000000000000000000000000000000000281526004018082815260200191505060206040518083038186803b158015610c4f57600080fd5b505af4158015610c63573d6000803e3d6000fd5b505050506040513d6020811015610c7957600080fd5b81019080805190602001909291905050509050919050565b600073__DateTime______________________________6392d66313836040518263ffffffff167c01000000000000000000000000000000000000000000000000000000000281526004018082815260200191505060206040518083038186803b158015610cfe57600080fd5b505af4158015610d12573d6000803e3d6000fd5b505050506040513d6020811015610d2857600080fd5b81019080805190602001909291905050509050919050565b600073__DateTime______________________________63a324ad24836040518263ffffffff167c01000000000000000000000000000000000000000000000000000000000281526004018082815260200191505060206040518083038186803b158015610dad57600080fd5b505af4158015610dc1573d6000803e3d6000fd5b505050506040513d6020811015610dd757600080fd5b81019080805190602001909291905050509050919050565b600073__DateTime______________________________63a6f0e577836040518263ffffffff167c0100000000000000000000000000000000000000000000000000000000028152600401808261ffff1661ffff16815260200191505060206040518083038186803b158015610e6457600080fd5b505af4158015610e78573d6000803e3d6000fd5b505050506040513d6020811015610e8e57600080fd5b81019080805190602001909291905050509050919050565b600073__DateTime______________________________63ae63586c6040518163ffffffff167c010000000000000000000000000000000000000000000000000000000002815260040160206040518083038186803b158015610f0857600080fd5b505af4158015610f1c573d6000803e3d6000fd5b505050506040513d6020811015610f3257600080fd5b8101908080519060200190929190505050905090565b600073__DateTime______________________________63b1999937836040518263ffffffff167c01000000000000000000000000000000000000000000000000000000000281526004018082815260200191505060206040518083038186803b158015610fb557600080fd5b505af4158015610fc9573d6000803e3d6000fd5b505050506040513d6020811015610fdf57600080fd5b81019080805190602001909291905050509050919050565b600073__DateTime______________________________63c9d3462284846040518363ffffffff167c0100000000000000000000000000000000000000000000000000000000028152600401808381526020018281526020019250505060206040518083038186803b15801561106c57600080fd5b505af4158015611080573d6000803e3d6000fd5b505050506040513d602081101561109657600080fd5b8101908080519060200190929190505050905092915050565b600073__DateTime______________________________63d371132e6040518163ffffffff167c010000000000000000000000000000000000000000000000000000000002815260040160206040518083038186803b15801561111157600080fd5b505af4158015611125573d6000803e3d6000fd5b505050506040513d602081101561113b57600080fd5b8101908080519060200190929190505050905090565b600073__DateTime______________________________63fa93f883836040518263ffffffff167c01000000000000000000000000000000000000000000000000000000000281526004018082815260200191505060206040518083038186803b1580156111be57600080fd5b505af41580156111d2573d6000803e3d6000fd5b505050506040513d60208110156111e857600080fd5b81019080805190602001909291905050509050919050565b600073__DateTime______________________________63ff2258cb84846040518363ffffffff167c0100000000000000000000000000000000000000000000000000000000028152600401808381526020018281526020019250505060206040518083038186803b15801561127557600080fd5b505af4158015611289573d6000803e3d6000fd5b505050506040513d602081101561129f57600080fd5b81019080805190602001909291905050509050929150505600a165627a7a72305820bbea7138b167deca0ab52d866556083d5c88f85c4350d9eee7719c44eddb9c8c0029",
  "source": "pragma solidity ^0.4.24;\nimport \"../calendar/DateTime.sol\";\n\n/**\n * Contract code based on pipemerrian's Date Time Smart contract, now available as a library.\n * https://github.com/pipermerriam/ethereum-datetime/blob/master/contracts/DateTime.sol\n * Provide Datetime utils on Ethereum Smart Contracts\n */\n\ncontract DateTimeMock {\n    using DateTime for *;\n  \n\n     function getYear(uint _timestamp) public pure returns (uint16) {\n       return DateTime.getYear(_timestamp);\n    }\n\n    function getMonth(uint256 _timestamp) public pure returns (uint8) {\n        return DateTime.getMonth(_timestamp);\n    }\n\n    function getDay(uint256 _timestamp) public pure returns (uint8) {\n        return DateTime.getDay(_timestamp);\n    }\n\n    function getHour(uint256 _timestamp) public pure returns (uint8) {\n        return DateTime.getHour(_timestamp);\n    }\n\n    function getMinute(uint256 _timestamp) public pure returns (uint8) {\n        return DateTime.getMinute(_timestamp);\n    }\n\n    function getSecond(uint256 _timestamp) public pure returns (uint8) {\n        return DateTime.getSecond(_timestamp);\n    }\n\n    function getWeekday(uint256 _timestamp) public pure returns (uint8) {\n        return DateTime.getWeekday(_timestamp);\n    }\n\n    function getDaysInMonth(uint16 _month, uint16 _year) public pure returns (uint8) {\n       return DateTime.getDaysInMonth(_month, _year);\n    }\n\n    function diffYears(uint256 _x, uint256 _y) public pure returns (uint256) {\n        return DateTime.diffYears(_x, _y);\n    }\n\n    function diffMonths(uint256 _x, uint256 _y) public pure returns (uint256) {\n        return DateTime.diffMonths(_x, _y);\n    }\n\n    function diffDays(uint256 _x, uint256 _y) public pure returns (uint256) {\n        return DateTime.diffDays(_x, _y);\n    }\n\n    function isLeapYear(uint16 _year) public pure returns (bool) {\n        return DateTime.isLeapYear(_year);\n    }\n    \n    function originYear() public pure returns(uint16) {\n        return DateTime.originYear();\n    }\n    \n    function dayInSeconds() public pure returns (uint256) {\n        return DateTime.dayInSeconds();\n    }\n    \n    function yearInSeconds() public pure returns (uint256) {\n        return DateTime.yearInSeconds();\n    }\n    \n    function leapYearInSeconds() public pure returns (uint256) { \n        return DateTime.leapYearInSeconds();\n    }\n    \n    function minuteInSeconds() public pure returns(uint256) {\n        return DateTime.minuteInSeconds();\n    }\n    \n    function hourInSeconds() public pure returns(uint256) { \n        return DateTime.hourInSeconds();\n    }\n\n    function leapYearsBefore(uint256 _year) public pure returns (uint256) {\n        return DateTime.leapYearsBefore(_year);\n    }\n}\n\n",
  "sourcePath": "/Users/carlosbuendia/Documents/Projects/consensys/Frontier/cron/contracts/mocks/DateTimeMock.sol",
  "compiler": {
    "name": "solc",
    "version": "0.4.24+commit.e67f0147.Emscripten.clang"
  },
  "schemaVersion": "2.0.0",
  "updatedAt": "2018-11-28T10:24:51.869Z"
}