{
  "contractName": "helenaAgent",
  "abi": [
    {
      "constant": false,
      "inputs": [],
      "name": "renounceOwnership",
      "outputs": [],
      "payable": false,
      "stateMutability": "nonpayable",
      "type": "function"
    },
    {
      "constant": true,
      "inputs": [],
      "name": "owner",
      "outputs": [
        {
          "name": "",
          "type": "address"
        }
      ],
      "payable": false,
      "stateMutability": "view",
      "type": "function"
    },
    {
      "constant": true,
      "inputs": [],
      "name": "isOwner",
      "outputs": [
        {
          "name": "",
          "type": "bool"
        }
      ],
      "payable": false,
      "stateMutability": "view",
      "type": "function"
    },
    {
      "constant": false,
      "inputs": [
        {
          "name": "newOwner",
          "type": "address"
        }
      ],
      "name": "transferOwnership",
      "outputs": [],
      "payable": false,
      "stateMutability": "nonpayable",
      "type": "function"
    },
    {
      "inputs": [
        {
          "name": "_vaultAddress",
          "type": "address"
        },
        {
          "name": "_TRLAddress",
          "type": "address"
        },
        {
          "name": "_balanceAddress",
          "type": "address"
        }
      ],
      "payable": false,
      "stateMutability": "nonpayable",
      "type": "constructor"
    },
    {
      "anonymous": false,
      "inputs": [
        {
          "indexed": true,
          "name": "previousOwner",
          "type": "address"
        },
        {
          "indexed": true,
          "name": "newOwner",
          "type": "address"
        }
      ],
      "name": "OwnershipTransferred",
      "type": "event"
    },
    {
      "constant": false,
      "inputs": [
        {
          "name": "_receiver",
          "type": "address"
        },
        {
          "name": "_token",
          "type": "address"
        }
      ],
      "name": "addAllowedReceiver",
      "outputs": [],
      "payable": false,
      "stateMutability": "nonpayable",
      "type": "function"
    },
    {
      "constant": false,
      "inputs": [
        {
          "name": "_destination",
          "type": "address"
        },
        {
          "name": "_token",
          "type": "address"
        },
        {
          "name": "_period",
          "type": "uint256"
        }
      ],
      "name": "collectPayment",
      "outputs": [],
      "payable": false,
      "stateMutability": "nonpayable",
      "type": "function"
    }
  ],
  "bytecode": "0x608060405234801561001057600080fd5b50604051606080610a61833981018060405281019080805190602001909291908051906020019092919080519060200190929190505050336000806101000a81548173ffffffffffffffffffffffffffffffffffffffff021916908373ffffffffffffffffffffffffffffffffffffffff1602179055506000809054906101000a900473ffffffffffffffffffffffffffffffffffffffff1673ffffffffffffffffffffffffffffffffffffffff16600073ffffffffffffffffffffffffffffffffffffffff167f8be0079c531659141344cd1fd0a4f28419497f9722a3daafe3b4186f6b6457e060405160405180910390a381600460006101000a81548173ffffffffffffffffffffffffffffffffffffffff021916908373ffffffffffffffffffffffffffffffffffffffff16021790555080600560006101000a81548173ffffffffffffffffffffffffffffffffffffffff021916908373ffffffffffffffffffffffffffffffffffffffff16021790555082600660006101000a81548173ffffffffffffffffffffffffffffffffffffffff021916908373ffffffffffffffffffffffffffffffffffffffff160217905550505050610889806101d86000396000f300608060405260043610610078576000357c0100000000000000000000000000000000000000000000000000000000900463ffffffff1680632851922a1461007d578063715018a6146100e05780638da5cb5b146100f75780638f32d59b1461014e578063bef31f001461017d578063f2fde38b146101ea575b600080fd5b34801561008957600080fd5b506100de600480360381019080803573ffffffffffffffffffffffffffffffffffffffff169060200190929190803573ffffffffffffffffffffffffffffffffffffffff16906020019092919050505061022d565b005b3480156100ec57600080fd5b506100f5610306565b005b34801561010357600080fd5b5061010c6103d8565b604051808273ffffffffffffffffffffffffffffffffffffffff1673ffffffffffffffffffffffffffffffffffffffff16815260200191505060405180910390f35b34801561015a57600080fd5b50610163610401565b604051808215151515815260200191505060405180910390f35b34801561018957600080fd5b506101e8600480360381019080803573ffffffffffffffffffffffffffffffffffffffff169060200190929190803573ffffffffffffffffffffffffffffffffffffffff16906020019092919080359060200190929190505050610458565b005b3480156101f657600080fd5b5061022b600480360381019080803573ffffffffffffffffffffffffffffffffffffffff169060200190929190505050610744565b005b6102356103d8565b73ffffffffffffffffffffffffffffffffffffffff163373ffffffffffffffffffffffffffffffffffffffff1614151561026e57600080fd5b60018060008473ffffffffffffffffffffffffffffffffffffffff1673ffffffffffffffffffffffffffffffffffffffff16815260200190815260200160002060008373ffffffffffffffffffffffffffffffffffffffff1673ffffffffffffffffffffffffffffffffffffffff16815260200190815260200160002060006101000a81548160ff0219169083151502179055505050565b61030e610401565b151561031957600080fd5b600073ffffffffffffffffffffffffffffffffffffffff166000809054906101000a900473ffffffffffffffffffffffffffffffffffffffff1673ffffffffffffffffffffffffffffffffffffffff167f8be0079c531659141344cd1fd0a4f28419497f9722a3daafe3b4186f6b6457e060405160405180910390a360008060006101000a81548173ffffffffffffffffffffffffffffffffffffffff021916908373ffffffffffffffffffffffffffffffffffffffff160217905550565b60008060009054906101000a900473ffffffffffffffffffffffffffffffffffffffff16905090565b60008060009054906101000a900473ffffffffffffffffffffffffffffffffffffffff1673ffffffffffffffffffffffffffffffffffffffff163373ffffffffffffffffffffffffffffffffffffffff1614905090565b6000600160008573ffffffffffffffffffffffffffffffffffffffff1673ffffffffffffffffffffffffffffffffffffffff16815260200190815260200160002060008473ffffffffffffffffffffffffffffffffffffffff1673ffffffffffffffffffffffffffffffffffffffff16815260200190815260200160002060009054906101000a900460ff1615156104ef57600080fd5b600560009054906101000a900473ffffffffffffffffffffffffffffffffffffffff1673ffffffffffffffffffffffffffffffffffffffff166361e5f3543085856040518463ffffffff167c0100000000000000000000000000000000000000000000000000000000028152600401808473ffffffffffffffffffffffffffffffffffffffff1673ffffffffffffffffffffffffffffffffffffffff1681526020018373ffffffffffffffffffffffffffffffffffffffff1673ffffffffffffffffffffffffffffffffffffffff1681526020018281526020019350505050602060405180830381600087803b1580156105e857600080fd5b505af11580156105fc573d6000803e3d6000fd5b505050506040513d602081101561061257600080fd5b81019080805190602001909291905050509050600560009054906101000a900473ffffffffffffffffffffffffffffffffffffffff1673ffffffffffffffffffffffffffffffffffffffff16637bfe950c308584866040518563ffffffff167c0100000000000000000000000000000000000000000000000000000000028152600401808573ffffffffffffffffffffffffffffffffffffffff1673ffffffffffffffffffffffffffffffffffffffff1681526020018473ffffffffffffffffffffffffffffffffffffffff1673ffffffffffffffffffffffffffffffffffffffff168152602001838152602001828152602001945050505050600060405180830381600087803b15801561072657600080fd5b505af115801561073a573d6000803e3d6000fd5b5050505050505050565b61074c610401565b151561075757600080fd5b61076081610763565b50565b600073ffffffffffffffffffffffffffffffffffffffff168173ffffffffffffffffffffffffffffffffffffffff161415151561079f57600080fd5b8073ffffffffffffffffffffffffffffffffffffffff166000809054906101000a900473ffffffffffffffffffffffffffffffffffffffff1673ffffffffffffffffffffffffffffffffffffffff167f8be0079c531659141344cd1fd0a4f28419497f9722a3daafe3b4186f6b6457e060405160405180910390a3806000806101000a81548173ffffffffffffffffffffffffffffffffffffffff021916908373ffffffffffffffffffffffffffffffffffffffff160217905550505600a165627a7a723058203678f91a611eb64bc29f11458d19786090255be5aed564f72af0766f26c0cc1d0029",
  "source": "pragma solidity 0.4.24;\n\nimport \"openzeppelin-solidity/contracts/ownership/Ownable.sol\";\nimport \"openzeppelin-solidity/contracts/math/SafeMath.sol\";\nimport \"openzeppelin-solidity/contracts/token/ERC20/ERC20.sol\";\nimport \"../Balance.sol\";\nimport \"../Vault.sol\";\n\ncontract helenaAgent is Ownable {\n    using SafeMath for uint256;\n\n\n\tmapping (address => mapping(address => bool)) allowedReceivers;\t\n\t/**\n\tthe helena fee is defined in the allowance contract. We need to \n\tadd the address of this contract in allowance.\n    The first step here should be to execute the function to calculat\n\te the balance of this agent.\n   \tThen there should be a function to transfer this entity's funds \n\tto an account\n\n\t*/\n   address vaultAddress;\n   address balanceAddress;\n\n   TRL TRLInstance;\n   Balance BalanceInstance;\n   Vault VaultInstance;\n\n   constructor (address _vaultAddress, address _TRLAddress, \n\taddress _balanceAddress)\n\t{\t\n\t\tTRLInstance = TRL(_TRLAddress);\n\t\tBalanceInstance = Balance(_balanceAddress);\n\t\tVaultInstance = Vault(_vaultAddress);\n\t}\n\n   function addAllowedReceiver(address _receiver, address _token) external{\n   \t\trequire(msg.sender == owner());\n\t\t\n\t\tallowedReceivers[_receiver][_token] = true;\n   }\n\t// todo: change the vaultID variable name to period\n   function collectPayment(address _destination, address _token, uint256 _period) \n   external\n   {\n\t\trequire(allowedReceivers[_destination][_token]);\n\t\t// todo: add checks:\n   \t\t// \t\tcheck vault has been closed for period\n\t\t// \t\tcheck that balance has been calculated before\n\t\tuint256 entityBalance = BalanceInstance.getBalance(address(this), _token, _period);\n       // calculate the specific _destination value; 1 token; send 1 token \n\t\tBalanceInstance.withdraw(address(this),_token, entityBalance, _period);\n//\t\tVault.transfer(_receiver, entityBalance);\n   }\n}\n\n\n/*\nComments:\n\t- Adding events\n   \t- Fix the identations\n   \t- Get better names for allowance and balance, make it more specific\n\n*/\n\n\n\n\n\n\n\n\n\n",
  "sourcePath": "/Users/boss/git/frontier/trl-project/TRL/contracts/entities/helenaFeeEntity.sol",
  "compiler": {
    "name": "solc",
    "version": "0.4.24+commit.e67f0147.Emscripten.clang"
  },
  "schemaVersion": "2.0.1",
  "updatedAt": "2018-11-22T12:54:35.989Z"
}