{
  "contractName": "helenaAgent",
  "abi": [
    {
      "constant": false,
      "inputs": [],
      "name": "renounceOwnership",
      "outputs": [],
      "payable": false,
      "stateMutability": "nonpayable",
      "type": "function"
    },
    {
      "constant": true,
      "inputs": [],
      "name": "owner",
      "outputs": [
        {
          "name": "",
          "type": "address"
        }
      ],
      "payable": false,
      "stateMutability": "view",
      "type": "function"
    },
    {
      "constant": true,
      "inputs": [],
      "name": "isOwner",
      "outputs": [
        {
          "name": "",
          "type": "bool"
        }
      ],
      "payable": false,
      "stateMutability": "view",
      "type": "function"
    },
    {
      "constant": false,
      "inputs": [
        {
          "name": "newOwner",
          "type": "address"
        }
      ],
      "name": "transferOwnership",
      "outputs": [],
      "payable": false,
      "stateMutability": "nonpayable",
      "type": "function"
    },
    {
      "inputs": [
        {
          "name": "_vaultAddress",
          "type": "address"
        },
        {
          "name": "_balanceAddress",
          "type": "address"
        }
      ],
      "payable": false,
      "stateMutability": "nonpayable",
      "type": "constructor"
    },
    {
      "anonymous": false,
      "inputs": [
        {
          "indexed": true,
          "name": "_destination",
          "type": "address"
        },
        {
          "indexed": true,
          "name": "_token",
          "type": "address"
        },
        {
          "indexed": true,
          "name": "_epoch",
          "type": "uint256"
        },
        {
          "indexed": false,
          "name": "_amount",
          "type": "uint256"
        }
      ],
      "name": "collectedPayment",
      "type": "event"
    },
    {
      "anonymous": false,
      "inputs": [
        {
          "indexed": true,
          "name": "_receiver",
          "type": "address"
        },
        {
          "indexed": true,
          "name": "_token",
          "type": "address"
        }
      ],
      "name": "addedAllowedReceiver",
      "type": "event"
    },
    {
      "anonymous": false,
      "inputs": [
        {
          "indexed": true,
          "name": "previousOwner",
          "type": "address"
        },
        {
          "indexed": true,
          "name": "newOwner",
          "type": "address"
        }
      ],
      "name": "OwnershipTransferred",
      "type": "event"
    },
    {
      "constant": false,
      "inputs": [
        {
          "name": "_entityBalance",
          "type": "uint256"
        },
        {
          "name": "_epoch",
          "type": "uint256"
        },
        {
          "name": "_token",
          "type": "address"
        },
        {
          "name": "_receiver",
          "type": "address"
        }
      ],
      "name": "calculatePaymentAmount",
      "outputs": [
        {
          "name": "amount",
          "type": "uint256"
        }
      ],
      "payable": false,
      "stateMutability": "nonpayable",
      "type": "function"
    },
    {
      "constant": false,
      "inputs": [
        {
          "name": "_destination",
          "type": "address"
        },
        {
          "name": "_token",
          "type": "address"
        }
      ],
      "name": "addAllowedReceiver",
      "outputs": [],
      "payable": false,
      "stateMutability": "nonpayable",
      "type": "function"
    },
    {
      "constant": false,
      "inputs": [
        {
          "name": "_destination",
          "type": "address"
        },
        {
          "name": "_token",
          "type": "address"
        },
        {
          "name": "_epoch",
          "type": "uint256"
        }
      ],
      "name": "collectPayment",
      "outputs": [],
      "payable": false,
      "stateMutability": "nonpayable",
      "type": "function"
    }
  ],
  "bytecode": "0x608060405234801561001057600080fd5b50604051604080610bbc8339810180604052810190808051906020019092919080519060200190929190505050336000806101000a81548173ffffffffffffffffffffffffffffffffffffffff021916908373ffffffffffffffffffffffffffffffffffffffff1602179055506000809054906101000a900473ffffffffffffffffffffffffffffffffffffffff1673ffffffffffffffffffffffffffffffffffffffff16600073ffffffffffffffffffffffffffffffffffffffff167f8be0079c531659141344cd1fd0a4f28419497f9722a3daafe3b4186f6b6457e060405160405180910390a380600460006101000a81548173ffffffffffffffffffffffffffffffffffffffff021916908373ffffffffffffffffffffffffffffffffffffffff16021790555081600560006101000a81548173ffffffffffffffffffffffffffffffffffffffff021916908373ffffffffffffffffffffffffffffffffffffffff1602179055505050610a308061018c6000396000f300608060405260043610610083576000357c0100000000000000000000000000000000000000000000000000000000900463ffffffff1680632851922a14610088578063715018a6146100eb5780638da5cb5b146101025780638f32d59b14610159578063be6b49c714610188578063bef31f0014610213578063f2fde38b14610280575b600080fd5b34801561009457600080fd5b506100e9600480360381019080803573ffffffffffffffffffffffffffffffffffffffff169060200190929190803573ffffffffffffffffffffffffffffffffffffffff1690602001909291905050506102c3565b005b3480156100f757600080fd5b506101006103f6565b005b34801561010e57600080fd5b506101176104c8565b604051808273ffffffffffffffffffffffffffffffffffffffff1673ffffffffffffffffffffffffffffffffffffffff16815260200191505060405180910390f35b34801561016557600080fd5b5061016e6104f1565b604051808215151515815260200191505060405180910390f35b34801561019457600080fd5b506101fd6004803603810190808035906020019092919080359060200190929190803573ffffffffffffffffffffffffffffffffffffffff169060200190929190803573ffffffffffffffffffffffffffffffffffffffff169060200190929190505050610548565b6040518082815260200191505060405180910390f35b34801561021f57600080fd5b5061027e600480360381019080803573ffffffffffffffffffffffffffffffffffffffff169060200190929190803573ffffffffffffffffffffffffffffffffffffffff16906020019092919080359060200190929190505050610555565b005b34801561028c57600080fd5b506102c1600480360381019080803573ffffffffffffffffffffffffffffffffffffffff1690602001909291905050506108eb565b005b6102cb6104c8565b73ffffffffffffffffffffffffffffffffffffffff163373ffffffffffffffffffffffffffffffffffffffff1614151561030457600080fd5b60018060008473ffffffffffffffffffffffffffffffffffffffff1673ffffffffffffffffffffffffffffffffffffffff16815260200190815260200160002060008373ffffffffffffffffffffffffffffffffffffffff1673ffffffffffffffffffffffffffffffffffffffff16815260200190815260200160002060006101000a81548160ff0219169083151502179055508073ffffffffffffffffffffffffffffffffffffffff168273ffffffffffffffffffffffffffffffffffffffff167fc3fdbf082b283570d115179810eb107e8790c63426e113811eb9fec6c765a10260405160405180910390a35050565b6103fe6104f1565b151561040957600080fd5b600073ffffffffffffffffffffffffffffffffffffffff166000809054906101000a900473ffffffffffffffffffffffffffffffffffffffff1673ffffffffffffffffffffffffffffffffffffffff167f8be0079c531659141344cd1fd0a4f28419497f9722a3daafe3b4186f6b6457e060405160405180910390a360008060006101000a81548173ffffffffffffffffffffffffffffffffffffffff021916908373ffffffffffffffffffffffffffffffffffffffff160217905550565b60008060009054906101000a900473ffffffffffffffffffffffffffffffffffffffff16905090565b60008060009054906101000a900473ffffffffffffffffffffffffffffffffffffffff1673ffffffffffffffffffffffffffffffffffffffff163373ffffffffffffffffffffffffffffffffffffffff1614905090565b6000849050949350505050565b600080600160008673ffffffffffffffffffffffffffffffffffffffff1673ffffffffffffffffffffffffffffffffffffffff16815260200190815260200160002060008573ffffffffffffffffffffffffffffffffffffffff1673ffffffffffffffffffffffffffffffffffffffff16815260200190815260200160002060009054906101000a900460ff1615156105ed57600080fd5b600460009054906101000a900473ffffffffffffffffffffffffffffffffffffffff1673ffffffffffffffffffffffffffffffffffffffff166361e5f3543086866040518463ffffffff167c0100000000000000000000000000000000000000000000000000000000028152600401808473ffffffffffffffffffffffffffffffffffffffff1673ffffffffffffffffffffffffffffffffffffffff1681526020018373ffffffffffffffffffffffffffffffffffffffff1673ffffffffffffffffffffffffffffffffffffffff1681526020018281526020019350505050602060405180830381600087803b1580156106e657600080fd5b505af11580156106fa573d6000803e3d6000fd5b505050506040513d602081101561071057600080fd5b8101908080519060200190929190505050915061072f82848688610548565b9050600460009054906101000a900473ffffffffffffffffffffffffffffffffffffffff1673ffffffffffffffffffffffffffffffffffffffff16631e07166430878786886040518663ffffffff167c0100000000000000000000000000000000000000000000000000000000028152600401808673ffffffffffffffffffffffffffffffffffffffff1673ffffffffffffffffffffffffffffffffffffffff1681526020018573ffffffffffffffffffffffffffffffffffffffff1673ffffffffffffffffffffffffffffffffffffffff1681526020018473ffffffffffffffffffffffffffffffffffffffff1673ffffffffffffffffffffffffffffffffffffffff16815260200183815260200182815260200195505050505050600060405180830381600087803b15801561086657600080fd5b505af115801561087a573d6000803e3d6000fd5b50505050828473ffffffffffffffffffffffffffffffffffffffff168673ffffffffffffffffffffffffffffffffffffffff167f39e66fc21f61170a80982516a9d2466e01175749413b8b309bbb39e2911bd182846040518082815260200191505060405180910390a45050505050565b6108f36104f1565b15156108fe57600080fd5b6109078161090a565b50565b600073ffffffffffffffffffffffffffffffffffffffff168173ffffffffffffffffffffffffffffffffffffffff161415151561094657600080fd5b8073ffffffffffffffffffffffffffffffffffffffff166000809054906101000a900473ffffffffffffffffffffffffffffffffffffffff1673ffffffffffffffffffffffffffffffffffffffff167f8be0079c531659141344cd1fd0a4f28419497f9722a3daafe3b4186f6b6457e060405160405180910390a3806000806101000a81548173ffffffffffffffffffffffffffffffffffffffff021916908373ffffffffffffffffffffffffffffffffffffffff160217905550505600a165627a7a72305820a193d41d024ca1a85a1ff28efaf53999322ca7fe6a0d72d0bc2593179994b6f20029",
  "source": "pragma solidity 0.4.24;\n\nimport \"openzeppelin-solidity/contracts/ownership/Ownable.sol\";\nimport \"openzeppelin-solidity/contracts/math/SafeMath.sol\";\nimport \"openzeppelin-solidity/contracts/token/ERC20/ERC20.sol\";\nimport \"../Bank.sol\";\nimport \"../Vault.sol\";\nimport \"./IFeeEntity.sol\";\n\ncontract helenaAgent is Ownable, IFeeEntity {\n\n  using SafeMath for uint256;\n\n\n  mapping (address => mapping(address => bool)) allowedReceivers; \n\n  address vaultAddress;\n  address balanceAddress;\n\n\n  Bank BankInstance;\n  Vault VaultInstance;\n\n  constructor (address _vaultAddress, address _balanceAddress){   \n    BankInstance = Bank(_balanceAddress);\n    VaultInstance = Vault(_vaultAddress);\n  }\n\n  /**\n  * @dev Calculates the amount that the receiver should receive.\n  * @param _entityBalance Balance of the entity\n  * @param _epoch Period for which the value is to be calculated\n  * @param _token Token for which the value is to be calculated\n  * @param _receiver Receiver for which the value is to be calculated\n  */\n\n  function calculatePaymentAmount(uint256 _entityBalance, uint256 _epoch, address _token, address _receiver) returns (uint256 amount){\n    // In the case of HelenaFee, it returns the full balance\n    // Helena only needs to send the tokens to one account,\n    // Because there is no one to share it with.\n    return _entityBalance;\n  }\n\n  /**\n  * @dev Adds a new authorized receiver for transfers made by this entity\n  * @param _destination Address of the receiver\n  * @param _token Token for which the transfers are authorized\n  */\n\n  function addAllowedReceiver(address _destination, address _token) external{\n    require(msg.sender == owner());\n\n    allowedReceivers[_destination][_token] = true;\n    emit addedAllowedReceiver(_destination, _token);\n  }\n\n  /**\n  * @dev Triggers the payment to a receiver. \n  * @param _destination Address of the receiver\n  * @param _token Token for which the transfer is being triggered\n  * @param _epoch Period for which the transfer is being triggered\n  */\n  function collectPayment(address _destination, address _token, uint256 _epoch) \n  external\n  {\n    require(allowedReceivers[_destination][_token]);\n\n    uint256 entityBalance = BankInstance.getBalance(address(this), _token, _epoch);\n    uint256 paymentAmount = calculatePaymentAmount(entityBalance, _epoch, _token, _destination);\n    BankInstance.makePayment(address(this), _destination, _token, entityBalance, _epoch);\n    emit collectedPayment(_destination, _token, _epoch, paymentAmount);\n  }\n}\n",
  "sourcePath": "/Users/boss/git/frontier/trl-project/TRL/contracts/entities/helenaFeeEntity.sol",
  "compiler": {
    "name": "solc",
    "version": "0.4.24+commit.e67f0147.Emscripten.clang"
  },
  "schemaVersion": "2.0.0",
  "updatedAt": "2018-11-28T12:04:39.523Z"
}