{
  "contractName": "InsertionSorter",
  "abi": [
    {
      "constant": false,
      "inputs": [
        {
          "name": "data",
          "type": "uint256[] storage"
        }
      ],
      "name": "sort",
      "outputs": [],
      "payable": false,
      "stateMutability": "nonpayable",
      "type": "function"
    }
  ],
  "bytecode": "0x6060604052341561000f57600080fd5b6102458061001e6000396000f300606060405260043610610041576000357c0100000000000000000000000000000000000000000000000000000000900463ffffffff168063d6db1bb414610046575b600080fd5b61005c600480803590602001909190505061005e565b005b6000610068610205565b600080600085805490509450846040518059106100825750595b90808252806020026020018201604052509350600092505b848310156100e55785838154811015156100b057fe5b90600052602060002090015484848151811015156100ca57fe5b9060200190602002018181525050828060010193505061009a565b600192505b83518310156101ae57838381518110151561010157fe5b9060200190602002015191508290505b60008111801561013a575081846001830381518110151561012e57fe5b90602001906020020151115b1561018457836001820381518110151561015057fe5b90602001906020020151848281518110151561016857fe5b9060200190602002018181525050808060019003915050610111565b81848281518110151561019357fe5b906020019060200201818152505082806001019350506100ea565b600092505b848310156101fd5783838151811015156101c957fe5b9060200190602002015186848154811015156101e157fe5b90600052602060002090018190555082806001019350506101b3565b505050505050565b6020604051908101604052806000815250905600a165627a7a7230582022c1f17b2fb06096cd1864b8e09bc88a24c9f8a857ded61ed7d81c298661da460029",
  "source": "pragma solidity ^0.4.18;\n\nlibrary InsertionSorter {\n\n  function sort(uint[] storage data) public {\n      uint n = data.length;\n      uint[] memory arr = new uint[](n);\n      uint i;\n\n      for(i=0; i<n; i++) {\n        arr[i] = data[i];\n      }\n\n      uint key;\n      uint j;\n\n      for(i = 1; i < arr.length; i++ ) {\n        key = arr[i];\n        for(j = i; j > 0 && arr[j-1] > key; j-- ) {\n          arr[j] = arr[j-1];\n        }\n        arr[j] = key;\n      }\n\n      for(i=0; i<n; i++) {\n          data[i] = arr[i];\n      }\n\n  }\n\n}\n",
  "sourcePath": "/Users/carlosbuendia/Documents/Projects/consensys/Frontier/FrontierLists/contracts/Lists/lib/InsertionSorter.sol",
  "compiler": {
    "name": "solc",
    "version": "0.4.19+commit.c4cbbb05.Emscripten.clang"
  },
  "schemaVersion": "2.0.0",
  "updatedAt": "2018-03-05T16:15:27.396Z"
}