{
  "contractName": "ModifiablePeriod",
  "abi": [
    {
      "constant": true,
      "inputs": [],
      "name": "T",
      "outputs": [
        {
          "name": "",
          "type": "uint256"
        }
      ],
      "payable": false,
      "stateMutability": "view",
      "type": "function"
    },
    {
      "constant": true,
      "inputs": [],
      "name": "blockOffset",
      "outputs": [
        {
          "name": "",
          "type": "uint256"
        }
      ],
      "payable": false,
      "stateMutability": "view",
      "type": "function"
    },
    {
      "constant": false,
      "inputs": [],
      "name": "renounceOwnership",
      "outputs": [],
      "payable": false,
      "stateMutability": "nonpayable",
      "type": "function"
    },
    {
      "constant": true,
      "inputs": [],
      "name": "owner",
      "outputs": [
        {
          "name": "",
          "type": "address"
        }
      ],
      "payable": false,
      "stateMutability": "view",
      "type": "function"
    },
    {
      "constant": false,
      "inputs": [
        {
          "name": "_newOwner",
          "type": "address"
        }
      ],
      "name": "transferOwnership",
      "outputs": [],
      "payable": false,
      "stateMutability": "nonpayable",
      "type": "function"
    },
    {
      "constant": true,
      "inputs": [],
      "name": "epochOffset",
      "outputs": [
        {
          "name": "",
          "type": "uint256"
        }
      ],
      "payable": false,
      "stateMutability": "view",
      "type": "function"
    },
    {
      "inputs": [
        {
          "name": "_T",
          "type": "uint256"
        }
      ],
      "payable": false,
      "stateMutability": "nonpayable",
      "type": "constructor"
    },
    {
      "anonymous": false,
      "inputs": [
        {
          "indexed": true,
          "name": "previousOwner",
          "type": "address"
        }
      ],
      "name": "OwnershipRenounced",
      "type": "event"
    },
    {
      "anonymous": false,
      "inputs": [
        {
          "indexed": true,
          "name": "previousOwner",
          "type": "address"
        },
        {
          "indexed": true,
          "name": "newOwner",
          "type": "address"
        }
      ],
      "name": "OwnershipTransferred",
      "type": "event"
    },
    {
      "constant": false,
      "inputs": [
        {
          "name": "_T",
          "type": "uint256"
        }
      ],
      "name": "setPeriodLength",
      "outputs": [],
      "payable": false,
      "stateMutability": "nonpayable",
      "type": "function"
    },
    {
      "constant": true,
      "inputs": [],
      "name": "height",
      "outputs": [
        {
          "name": "",
          "type": "uint256"
        }
      ],
      "payable": false,
      "stateMutability": "view",
      "type": "function"
    },
    {
      "constant": true,
      "inputs": [],
      "name": "getOffset",
      "outputs": [
        {
          "name": "",
          "type": "uint256"
        }
      ],
      "payable": false,
      "stateMutability": "view",
      "type": "function"
    },
    {
      "constant": true,
      "inputs": [],
      "name": "getRelativeIndex",
      "outputs": [
        {
          "name": "",
          "type": "uint256"
        }
      ],
      "payable": false,
      "stateMutability": "view",
      "type": "function"
    }
  ],
  "bytecode": "0x608060405234801561001057600080fd5b5060405160208061073983398101806040528101908080519060200190929190505050336000806101000a81548173ffffffffffffffffffffffffffffffffffffffff021916908373ffffffffffffffffffffffffffffffffffffffff1602179055506000811115156100eb576040517f08c379a000000000000000000000000000000000000000000000000000000000815260040180806020018281038252600c8152602001807f454d5054595f504552494f44000000000000000000000000000000000000000081525060200191505060405180910390fd5b806001819055504360028190555050610630806101096000396000f3006080604052600436106100a4576000357c0100000000000000000000000000000000000000000000000000000000900463ffffffff1680630ef26743146100a95780631c5633d7146100d45780632bc80f3a1461010157806346bf6a551461012c578063715018a6146101575780638da5cb5b1461016e578063dd6239fc146101c5578063eb6ad24e146101f0578063f2fde38b1461021b578063f866dd821461025e575b600080fd5b3480156100b557600080fd5b506100be610289565b6040518082815260200191505060405180910390f35b3480156100e057600080fd5b506100ff600480360381019080803590602001909291905050506102bb565b005b34801561010d57600080fd5b50610116610342565b6040518082815260200191505060405180910390f35b34801561013857600080fd5b50610141610348565b6040518082815260200191505060405180910390f35b34801561016357600080fd5b5061016c61034e565b005b34801561017a57600080fd5b50610183610450565b604051808273ffffffffffffffffffffffffffffffffffffffff1673ffffffffffffffffffffffffffffffffffffffff16815260200191505060405180910390f35b3480156101d157600080fd5b506101da610475565b6040518082815260200191505060405180910390f35b3480156101fc57600080fd5b50610205610486565b6040518082815260200191505060405180910390f35b34801561022757600080fd5b5061025c600480360381019080803573ffffffffffffffffffffffffffffffffffffffff16906020019092919050505061049d565b005b34801561026a57600080fd5b50610273610504565b6040518082815260200191505060405180910390f35b600043600254111561029f5760035490506102b8565b60035460015460025443038115156102b357fe5b040190505b90565b6000809054906101000a900473ffffffffffffffffffffffffffffffffffffffff1673ffffffffffffffffffffffffffffffffffffffff163373ffffffffffffffffffffffffffffffffffffffff1614151561031657600080fd5b61031e610289565b60038190555061032c610475565b6001544301036002819055508060018190555050565b60015481565b60025481565b6000809054906101000a900473ffffffffffffffffffffffffffffffffffffffff1673ffffffffffffffffffffffffffffffffffffffff163373ffffffffffffffffffffffffffffffffffffffff161415156103a957600080fd5b6000809054906101000a900473ffffffffffffffffffffffffffffffffffffffff1673ffffffffffffffffffffffffffffffffffffffff167ff8df31144d9c2f0f6b59d69b8b98abd5459d07f2742c4df920b25aae33c6482060405160405180910390a260008060006101000a81548173ffffffffffffffffffffffffffffffffffffffff021916908373ffffffffffffffffffffffffffffffffffffffff160217905550565b6000809054906101000a900473ffffffffffffffffffffffffffffffffffffffff1681565b600061047f610486565b4303905090565b6000600154610493610289565b0260025401905090565b6000809054906101000a900473ffffffffffffffffffffffffffffffffffffffff1673ffffffffffffffffffffffffffffffffffffffff163373ffffffffffffffffffffffffffffffffffffffff161415156104f857600080fd5b6105018161050a565b50565b60035481565b600073ffffffffffffffffffffffffffffffffffffffff168173ffffffffffffffffffffffffffffffffffffffff161415151561054657600080fd5b8073ffffffffffffffffffffffffffffffffffffffff166000809054906101000a900473ffffffffffffffffffffffffffffffffffffffff1673ffffffffffffffffffffffffffffffffffffffff167f8be0079c531659141344cd1fd0a4f28419497f9722a3daafe3b4186f6b6457e060405160405180910390a3806000806101000a81548173ffffffffffffffffffffffffffffffffffffffff021916908373ffffffffffffffffffffffffffffffffffffffff160217905550505600a165627a7a7230582086632eac5a083b8b3bc13574d5d964aefa55776d87459f17c3291919eeb4a91c0029",
  "source": "pragma solidity 0.4.24;\n\nimport \"openzeppelin-solidity/contracts/math/SafeMath.sol\";\nimport \"openzeppelin-solidity/contracts/ownership/Ownable.sol\";\n\n\n\n/**\n*  A periodic contract. Enables any contract to change state on a periodic basis\n*  Before going into detail, it might be helpful to familiarize with the naming convention:\n*  T === period --> Number of blocks to complete a cycle\n*  Epoch: Counter of the number of cycles that went by since a given block (blockOffset)\n*  height == current epoch\n*  blockOffset --> Block where the first epoch start to count\n*  Epoch offset --> Starting value of height()\n**/\n\n\ncontract ModifiablePeriod is Ownable { \n\n    // Period Number set\n    uint256 public T;\n    // Initial Block where the period is started\n    uint256 public blockOffset;\n    // Initial epoch offset\n    uint256 public epochOffset;\n\n    /*\n    * Constructor\n    * Creates a new Period object \n    * @param _T Number of blocks of a Period\n    * @param _epochOffset Initial offset where the height starts, useful for Period modification\n    */\n    \n    constructor(uint256 _T) public {\n        require(_T > 0, 'EMPTY_PERIOD');\n        T = _T;\n        blockOffset = block.number;\n    }\n\n    /**\n    * Modifies the period length. It was created with those use cases where a Smart Contract needs to modify the period length, keeping the same epoch numeration (height)\n    * To do that, it is modified the epoch offset, in order to allow future calculation of blocks\n    * Also, it is calculated the new block offset, from the point where period will be applied. \n    */\n\n    function setPeriodLength(uint256 _T) public {\n        require(msg.sender == owner);\n        epochOffset = height();\n        blockOffset = block.number + T - getRelativeIndex();\n        T = _T;\n    }\n\n    /**\n    * Getter for the current period number\n    * @return current period number\n    */\n    function height() public view returns (uint256) {\n        if (blockOffset > block.number) { // Period has been scheduled or modified. \n            return epochOffset;\n        }\n        else { // Normal behaviour\n            return (block.number - blockOffset) / T + epochOffset;\n        }\n    }\n\n    /**\n    * @return initial block, vector that defines the beginning of this period\n    */\n    function getOffset() public view returns (uint256){\n        return blockOffset + height() * T;\n    }\n    /*\n    * @return Index inside the current period. \n    */\n    function getRelativeIndex() public view returns (uint256){ \n        return block.number- getOffset();\n    }\n\n}",
  "sourcePath": "/Users/carlosbuendia/Documents/Projects/consensys/Frontier/cron/contracts/ModifiablePeriod.sol",
  "compiler": {
    "name": "solc",
    "version": "0.4.24+commit.e67f0147.Emscripten.clang"
  },
  "schemaVersion": "2.0.0",
  "updatedAt": "2018-08-29T15:59:30.641Z"
}