{
  "contractName": "OwnedRegistry",
  "abi": [
    {
      "constant": true,
      "inputs": [
        {
          "name": "",
          "type": "bytes32"
        }
      ],
      "name": "applications",
      "outputs": [
        {
          "name": "stakedAmount",
          "type": "uint256"
        },
        {
          "name": "data",
          "type": "string"
        },
        {
          "name": "approved",
          "type": "bool"
        }
      ],
      "payable": false,
      "stateMutability": "view",
      "type": "function"
    },
    {
      "constant": true,
      "inputs": [],
      "name": "listingCounter",
      "outputs": [
        {
          "name": "",
          "type": "uint256"
        }
      ],
      "payable": false,
      "stateMutability": "view",
      "type": "function"
    },
    {
      "constant": true,
      "inputs": [],
      "name": "owner",
      "outputs": [
        {
          "name": "",
          "type": "address"
        }
      ],
      "payable": false,
      "stateMutability": "view",
      "type": "function"
    },
    {
      "constant": false,
      "inputs": [
        {
          "name": "newOwner",
          "type": "address"
        }
      ],
      "name": "transferOwnership",
      "outputs": [],
      "payable": false,
      "stateMutability": "nonpayable",
      "type": "function"
    },
    {
      "anonymous": false,
      "inputs": [
        {
          "indexed": true,
          "name": "previousOwner",
          "type": "address"
        },
        {
          "indexed": true,
          "name": "newOwner",
          "type": "address"
        }
      ],
      "name": "OwnershipTransferred",
      "type": "event"
    },
    {
      "anonymous": false,
      "inputs": [
        {
          "indexed": false,
          "name": "_whiteListedAccount",
          "type": "address"
        }
      ],
      "name": "_WhiteList",
      "type": "event"
    },
    {
      "anonymous": false,
      "inputs": [
        {
          "indexed": false,
          "name": "_removedAccount",
          "type": "address"
        }
      ],
      "name": "_Remove",
      "type": "event"
    },
    {
      "anonymous": false,
      "inputs": [
        {
          "indexed": true,
          "name": "listingHash",
          "type": "bytes32"
        },
        {
          "indexed": false,
          "name": "deposit",
          "type": "uint256"
        },
        {
          "indexed": false,
          "name": "data",
          "type": "string"
        },
        {
          "indexed": true,
          "name": "applicant",
          "type": "address"
        }
      ],
      "name": "_Application",
      "type": "event"
    },
    {
      "constant": false,
      "inputs": [
        {
          "name": "_accountToWhiteList",
          "type": "address"
        }
      ],
      "name": "whiteList",
      "outputs": [],
      "payable": false,
      "stateMutability": "nonpayable",
      "type": "function"
    },
    {
      "constant": false,
      "inputs": [
        {
          "name": "_accountToRemove",
          "type": "address"
        }
      ],
      "name": "remove",
      "outputs": [],
      "payable": false,
      "stateMutability": "nonpayable",
      "type": "function"
    },
    {
      "constant": false,
      "inputs": [
        {
          "name": "_id",
          "type": "bytes32"
        },
        {
          "name": "_amount",
          "type": "uint256"
        },
        {
          "name": "_data",
          "type": "string"
        }
      ],
      "name": "apply",
      "outputs": [],
      "payable": false,
      "stateMutability": "nonpayable",
      "type": "function"
    },
    {
      "constant": true,
      "inputs": [
        {
          "name": "_accountChecked",
          "type": "address"
        }
      ],
      "name": "isWhitelisted",
      "outputs": [
        {
          "name": "whitelisted",
          "type": "bool"
        }
      ],
      "payable": false,
      "stateMutability": "view",
      "type": "function"
    },
    {
      "constant": true,
      "inputs": [
        {
          "name": "_accountChecked",
          "type": "bytes32"
        }
      ],
      "name": "applicationData",
      "outputs": [
        {
          "name": "data",
          "type": "string"
        }
      ],
      "payable": false,
      "stateMutability": "view",
      "type": "function"
    },
    {
      "constant": true,
      "inputs": [
        {
          "name": "_accountChecked",
          "type": "bytes32"
        }
      ],
      "name": "applicationIsApproved",
      "outputs": [
        {
          "name": "approved",
          "type": "bool"
        }
      ],
      "payable": false,
      "stateMutability": "view",
      "type": "function"
    },
    {
      "constant": true,
      "inputs": [
        {
          "name": "_accountChecked",
          "type": "bytes32"
        }
      ],
      "name": "applicationAmount",
      "outputs": [
        {
          "name": "amount",
          "type": "uint256"
        }
      ],
      "payable": false,
      "stateMutability": "view",
      "type": "function"
    }
  ],
  "bytecode": "0x6080604052336000806101000a81548173ffffffffffffffffffffffffffffffffffffffff021916908373ffffffffffffffffffffffffffffffffffffffff160217905550610d18806100536000396000f3006080604052600436106100af576000357c0100000000000000000000000000000000000000000000000000000000900463ffffffff168063173b7084146100b457806329092d0e1461015e578063372c12b1146101a15780633af32abf146101e45780634cafa1211461023f57806357abc81c146102fb5780636c2c9c7d1461034057806389bb55c71461036b5780638da5cb5b146103be578063b088877b14610415578063f2fde38b1461045e575b600080fd5b3480156100c057600080fd5b506100e360048036038101908080356000191690602001909291905050506104a1565b6040518080602001828103825283818151815260200191508051906020019080838360005b83811015610123578082015181840152602081019050610108565b50505050905090810190601f1680156101505780820380516001836020036101000a031916815260200191505b509250505060405180910390f35b34801561016a57600080fd5b5061019f600480360381019080803573ffffffffffffffffffffffffffffffffffffffff169060200190929190505050610561565b005b3480156101ad57600080fd5b506101e2600480360381019080803573ffffffffffffffffffffffffffffffffffffffff169060200190929190505050610696565b005b3480156101f057600080fd5b50610225600480360381019080803573ffffffffffffffffffffffffffffffffffffffff1690602001909291905050506107df565b604051808215151515815260200191505060405180910390f35b34801561024b57600080fd5b5061026e6004803603810190808035600019169060200190929190505050610835565b604051808481526020018060200183151515158152602001828103825284818151815260200191508051906020019080838360005b838110156102be5780820151818401526020810190506102a3565b50505050905090810190601f1680156102eb5780820380516001836020036101000a031916815260200191505b5094505050505060405180910390f35b34801561030757600080fd5b5061032a6004803603810190808035600019169060200190929190505050610904565b6040518082815260200191505060405180910390f35b34801561034c57600080fd5b5061035561092c565b6040518082815260200191505060405180910390f35b34801561037757600080fd5b506103bc600480360381019080803560001916906020019092919080359060200190929190803590602001908201803590602001919091929391929390505050610932565b005b3480156103ca57600080fd5b506103d3610a63565b604051808273ffffffffffffffffffffffffffffffffffffffff1673ffffffffffffffffffffffffffffffffffffffff16815260200191505060405180910390f35b34801561042157600080fd5b506104446004803603810190808035600019169060200190929190505050610a88565b604051808215151515815260200191505060405180910390f35b34801561046a57600080fd5b5061049f600480360381019080803573ffffffffffffffffffffffffffffffffffffffff169060200190929190505050610abd565b005b60606002600083600019166000191681526020019081526020016000206001018054600181600116156101000203166002900480601f0160208091040260200160405190810160405280929190818152602001828054600181600116156101000203166002900480156105555780601f1061052a57610100808354040283529160200191610555565b820191906000526020600020905b81548152906001019060200180831161053857829003601f168201915b50505050509050919050565b6000809054906101000a900473ffffffffffffffffffffffffffffffffffffffff1673ffffffffffffffffffffffffffffffffffffffff163373ffffffffffffffffffffffffffffffffffffffff161415156105bc57600080fd5b6000600160008373ffffffffffffffffffffffffffffffffffffffff1673ffffffffffffffffffffffffffffffffffffffff16815260200190815260200160002060006101000a81548160ff02191690831515021790555061062a6001600354610c1290919063ffffffff16565b6003819055507f4dad83fa2f662e801184bd81b75b1894fdfd16026aa67a6a65d5715476a61f5381604051808273ffffffffffffffffffffffffffffffffffffffff1673ffffffffffffffffffffffffffffffffffffffff16815260200191505060405180910390a150565b6000809054906101000a900473ffffffffffffffffffffffffffffffffffffffff1673ffffffffffffffffffffffffffffffffffffffff163373ffffffffffffffffffffffffffffffffffffffff161415156106f157600080fd5b6106fa816107df565b15151561070657600080fd5b60018060008373ffffffffffffffffffffffffffffffffffffffff1673ffffffffffffffffffffffffffffffffffffffff16815260200190815260200160002060006101000a81548160ff0219169083151502179055506107736001600354610c2b90919063ffffffff16565b6003819055507f14c99c95843c55c4e6e3cd95be615861493e90f3919ff664169bfbe2839dbfb081604051808273ffffffffffffffffffffffffffffffffffffffff1673ffffffffffffffffffffffffffffffffffffffff16815260200191505060405180910390a150565b6000600160008373ffffffffffffffffffffffffffffffffffffffff1673ffffffffffffffffffffffffffffffffffffffff16815260200190815260200160002060009054906101000a900460ff169050919050565b6002602052806000526040600020600091509050806000015490806001018054600181600116156101000203166002900480601f0160208091040260200160405190810160405280929190818152602001828054600181600116156101000203166002900480156108e75780601f106108bc576101008083540402835291602001916108e7565b820191906000526020600020905b8154815290600101906020018083116108ca57829003601f168201915b5050505050908060020160009054906101000a900460ff16905083565b6000600260008360001916600019168152602001908152602001600020600001549050919050565b60035481565b60606040519081016040528084815260200183838080601f0160208091040260200160405190810160405280939291908181526020018383808284378201915050505050508152602001600015158152506002600086600019166000191681526020019081526020016000206000820151816000015560208201518160010190805190602001906109c4929190610c47565b5060408201518160020160006101000a81548160ff0219169083151502179055509050503373ffffffffffffffffffffffffffffffffffffffff1684600019167fe1cdd401be51ef2c8159945a96274b69ba482f2a5e2131700beeda434fd6d58f85858560405180848152602001806020018281038252848482818152602001925080828437820191505094505050505060405180910390a350505050565b6000809054906101000a900473ffffffffffffffffffffffffffffffffffffffff1681565b600060026000836000191660001916815260200190815260200160002060020160009054906101000a900460ff169050919050565b6000809054906101000a900473ffffffffffffffffffffffffffffffffffffffff1673ffffffffffffffffffffffffffffffffffffffff163373ffffffffffffffffffffffffffffffffffffffff16141515610b1857600080fd5b600073ffffffffffffffffffffffffffffffffffffffff168173ffffffffffffffffffffffffffffffffffffffff1614151515610b5457600080fd5b8073ffffffffffffffffffffffffffffffffffffffff166000809054906101000a900473ffffffffffffffffffffffffffffffffffffffff1673ffffffffffffffffffffffffffffffffffffffff167f8be0079c531659141344cd1fd0a4f28419497f9722a3daafe3b4186f6b6457e060405160405180910390a3806000806101000a81548173ffffffffffffffffffffffffffffffffffffffff021916908373ffffffffffffffffffffffffffffffffffffffff16021790555050565b6000828211151515610c2057fe5b818303905092915050565b60008183019050828110151515610c3e57fe5b80905092915050565b828054600181600116156101000203166002900490600052602060002090601f016020900481019282601f10610c8857805160ff1916838001178555610cb6565b82800160010185558215610cb6579182015b82811115610cb5578251825591602001919060010190610c9a565b5b509050610cc39190610cc7565b5090565b610ce991905b80821115610ce5576000816000905550600101610ccd565b5090565b905600a165627a7a723058209be6c69525685777cbb054bfced52d62e20ec359d7d495c28198ec90511b43240029",
  "source": "pragma solidity 0.4.24;\n\nimport \"openzeppelin-solidity/contracts/math/SafeMath.sol\";\nimport \"openzeppelin-solidity/contracts/ownership/Ownable.sol\";\nimport \"./Registry.sol\";\n\n\n/**\n* Generic Registry, used for Candidates and Voters\n*\n**/\n\ncontract OwnedRegistry is Registry, Ownable {\n    using SafeMath for uint256;\n\n    mapping(address => bool) whiteListed;\n\n    struct Application {\n        uint256 stakedAmount;\n        string data;\n        bool approved;\n    }\n\n    mapping(bytes32 => Application) public applications;\n\n    uint256 public listingCounter;\n\n    /**\n    * @dev Adds a new account to the registry\n    * @param _accountToWhiteList account to be added to the registry\n    **/\n\n    function whiteList(address _accountToWhiteList) public {\n        require(msg.sender==owner);\n        require(!isWhitelisted(_accountToWhiteList));\n        whiteListed[_accountToWhiteList] = true;\n        listingCounter = listingCounter.add(1);\n        emit _WhiteList(_accountToWhiteList);\n    }\n\n    /**\n    * @dev Removes an account from the registry\n    * @param _accountToRemove account to be removed from\n    **/\n\n    function remove(address _accountToRemove) public {\n        require(msg.sender == owner);\n        whiteListed[_accountToRemove] = false;\n        listingCounter = listingCounter.sub(1);\n        emit _Remove(_accountToRemove);\n    }\n\n    /**\n    *  @dev Creates an application to be included in the registry\n    *  @param _id Inherited from Registry interface, in this case, required to be the same as msg.sender\n    *  @param _amount Inherited from Registry interface, not required (set to 0)\n    *  @param _data Used for external information related with the application (e.g IPFS hash)\n    */\n\n    function apply(bytes32 _id, uint _amount, string _data) external{\n        applications[_id] = Application(_amount, _data, false);\n        emit _Application(_id, _amount, _data, msg.sender);\n    }\n\n   \n    /**\n    *  @dev Returns true when a listing Hash is already Whitelisted\n    *  @param  _accountChecked address being checked\n    *  @return whitelisted boolean specifying if the listing is valid\n    */\n\n    function isWhitelisted(address _accountChecked) view public returns (bool whitelisted) {\n        return whiteListed[_accountChecked];\n    }\n\n    /**\n    *  @dev Returns data associated with an application\n    *  @param  _accountChecked address being checked\n    *  @return data string (link to the data)\n    */\n\n    function applicationData(bytes32 _accountChecked) view public returns (string data) {\n        return applications[_accountChecked].data;\n    }\n\n\n    /**\n    *  @dev Returns true when an application has been approved\n    *  @param  _accountChecked address being checked\n    *  @return approved if the app was already approved\n    */\n\n    function applicationIsApproved(bytes32 _accountChecked) view public returns (bool approved) {\n        return applications[_accountChecked].approved;\n    }\n\n    /**\n    *  @dev Returns the amount associated with an application\n    *  @param  _accountChecked address being checked\n    *  @return amount, specifying the amount that was staked\n    */\n\n    function applicationAmount(bytes32 _accountChecked) view public returns (uint256 amount) {\n        return applications[_accountChecked].stakedAmount;\n    }\n\n}\n",
  "sourcePath": "@frontier-token-research/role-registries/contracts/OwnedRegistry.sol",
  "compiler": {
    "name": "solc",
    "version": "0.4.24+commit.e67f0147.Emscripten.clang"
  },
  "schemaVersion": "2.0.0",
  "updatedAt": "2018-07-04T10:22:32.592Z"
}