{
  "contractName": "OwnedRegistry",
  "abi": [
    {
      "constant": true,
      "inputs": [],
      "name": "listingCounter",
      "outputs": [
        {
          "name": "",
          "type": "uint256"
        }
      ],
      "payable": false,
      "stateMutability": "view",
      "type": "function"
    },
    {
      "constant": true,
      "inputs": [],
      "name": "owner",
      "outputs": [
        {
          "name": "",
          "type": "address"
        }
      ],
      "payable": false,
      "stateMutability": "view",
      "type": "function"
    },
    {
      "constant": false,
      "inputs": [
        {
          "name": "newOwner",
          "type": "address"
        }
      ],
      "name": "transferOwnership",
      "outputs": [],
      "payable": false,
      "stateMutability": "nonpayable",
      "type": "function"
    },
    {
      "anonymous": false,
      "inputs": [
        {
          "indexed": true,
          "name": "previousOwner",
          "type": "address"
        },
        {
          "indexed": true,
          "name": "newOwner",
          "type": "address"
        }
      ],
      "name": "OwnershipTransferred",
      "type": "event"
    },
    {
      "anonymous": false,
      "inputs": [
        {
          "indexed": false,
          "name": "_whiteListedAccount",
          "type": "address"
        }
      ],
      "name": "_WhiteList",
      "type": "event"
    },
    {
      "anonymous": false,
      "inputs": [
        {
          "indexed": false,
          "name": "_removedAccount",
          "type": "address"
        }
      ],
      "name": "_Remove",
      "type": "event"
    },
    {
      "anonymous": false,
      "inputs": [
        {
          "indexed": true,
          "name": "listingHash",
          "type": "bytes32"
        },
        {
          "indexed": false,
          "name": "deposit",
          "type": "uint256"
        },
        {
          "indexed": false,
          "name": "data",
          "type": "string"
        },
        {
          "indexed": true,
          "name": "applicant",
          "type": "address"
        }
      ],
      "name": "_Application",
      "type": "event"
    },
    {
      "constant": false,
      "inputs": [
        {
          "name": "_accountToWhiteList",
          "type": "address"
        }
      ],
      "name": "whiteList",
      "outputs": [],
      "payable": false,
      "stateMutability": "nonpayable",
      "type": "function"
    },
    {
      "constant": false,
      "inputs": [
        {
          "name": "_accountToRemove",
          "type": "address"
        }
      ],
      "name": "remove",
      "outputs": [],
      "payable": false,
      "stateMutability": "nonpayable",
      "type": "function"
    },
    {
      "constant": false,
      "inputs": [
        {
          "name": "_id",
          "type": "bytes32"
        },
        {
          "name": "_amount",
          "type": "uint256"
        },
        {
          "name": "_data",
          "type": "string"
        }
      ],
      "name": "apply",
      "outputs": [],
      "payable": false,
      "stateMutability": "nonpayable",
      "type": "function"
    },
    {
      "constant": true,
      "inputs": [
        {
          "name": "_accountChecked",
          "type": "address"
        }
      ],
      "name": "isWhitelisted",
      "outputs": [
        {
          "name": "whitelisted",
          "type": "bool"
        }
      ],
      "payable": false,
      "stateMutability": "view",
      "type": "function"
    }
  ],
  "bytecode": "0x6080604052336000806101000a81548173ffffffffffffffffffffffffffffffffffffffff021916908373ffffffffffffffffffffffffffffffffffffffff160217905550610989806100536000396000f300608060405260043610610083576000357c0100000000000000000000000000000000000000000000000000000000900463ffffffff16806329092d0e14610088578063372c12b1146100cb5780633af32abf1461010e5780636c2c9c7d1461016957806389bb55c7146101945780638da5cb5b146101e7578063f2fde38b1461023e575b600080fd5b34801561009457600080fd5b506100c9600480360381019080803573ffffffffffffffffffffffffffffffffffffffff169060200190929190505050610281565b005b3480156100d757600080fd5b5061010c600480360381019080803573ffffffffffffffffffffffffffffffffffffffff1690602001909291905050506103b6565b005b34801561011a57600080fd5b5061014f600480360381019080803573ffffffffffffffffffffffffffffffffffffffff1690602001909291905050506104ff565b604051808215151515815260200191505060405180910390f35b34801561017557600080fd5b5061017e610555565b6040518082815260200191505060405180910390f35b3480156101a057600080fd5b506101e560048036038101908080356000191690602001909291908035906020019092919080359060200190820180359060200191909192939192939050505061055b565b005b3480156101f357600080fd5b506101fc610709565b604051808273ffffffffffffffffffffffffffffffffffffffff1673ffffffffffffffffffffffffffffffffffffffff16815260200191505060405180910390f35b34801561024a57600080fd5b5061027f600480360381019080803573ffffffffffffffffffffffffffffffffffffffff16906020019092919050505061072e565b005b6000809054906101000a900473ffffffffffffffffffffffffffffffffffffffff1673ffffffffffffffffffffffffffffffffffffffff163373ffffffffffffffffffffffffffffffffffffffff161415156102dc57600080fd5b6000600160008373ffffffffffffffffffffffffffffffffffffffff1673ffffffffffffffffffffffffffffffffffffffff16815260200190815260200160002060006101000a81548160ff02191690831515021790555061034a600160035461088390919063ffffffff16565b6003819055507f4dad83fa2f662e801184bd81b75b1894fdfd16026aa67a6a65d5715476a61f5381604051808273ffffffffffffffffffffffffffffffffffffffff1673ffffffffffffffffffffffffffffffffffffffff16815260200191505060405180910390a150565b6000809054906101000a900473ffffffffffffffffffffffffffffffffffffffff1673ffffffffffffffffffffffffffffffffffffffff163373ffffffffffffffffffffffffffffffffffffffff1614151561041157600080fd5b61041a816104ff565b15151561042657600080fd5b60018060008373ffffffffffffffffffffffffffffffffffffffff1673ffffffffffffffffffffffffffffffffffffffff16815260200190815260200160002060006101000a81548160ff021916908315150217905550610493600160035461089c90919063ffffffff16565b6003819055507f14c99c95843c55c4e6e3cd95be615861493e90f3919ff664169bfbe2839dbfb081604051808273ffffffffffffffffffffffffffffffffffffffff1673ffffffffffffffffffffffffffffffffffffffff16815260200191505060405180910390a150565b6000600160008373ffffffffffffffffffffffffffffffffffffffff1673ffffffffffffffffffffffffffffffffffffffff16815260200190815260200160002060009054906101000a900460ff169050919050565b60035481565b33838383604051808573ffffffffffffffffffffffffffffffffffffffff1673ffffffffffffffffffffffffffffffffffffffff166c01000000000000000000000000028152601401848152602001838380828437820191505094505050505060405180910390206000191684600019161415156105d857600080fd5b60606040519081016040528084815260200183838080601f01602080910402602001604051908101604052809392919081815260200183838082843782019150505050505081526020016000151581525060026000866000191660001916815260200190815260200160002060008201518160000155602082015181600101908051906020019061066a9291906108b8565b5060408201518160020160006101000a81548160ff0219169083151502179055509050503373ffffffffffffffffffffffffffffffffffffffff1684600019167fe1cdd401be51ef2c8159945a96274b69ba482f2a5e2131700beeda434fd6d58f85858560405180848152602001806020018281038252848482818152602001925080828437820191505094505050505060405180910390a350505050565b6000809054906101000a900473ffffffffffffffffffffffffffffffffffffffff1681565b6000809054906101000a900473ffffffffffffffffffffffffffffffffffffffff1673ffffffffffffffffffffffffffffffffffffffff163373ffffffffffffffffffffffffffffffffffffffff1614151561078957600080fd5b600073ffffffffffffffffffffffffffffffffffffffff168173ffffffffffffffffffffffffffffffffffffffff16141515156107c557600080fd5b8073ffffffffffffffffffffffffffffffffffffffff166000809054906101000a900473ffffffffffffffffffffffffffffffffffffffff1673ffffffffffffffffffffffffffffffffffffffff167f8be0079c531659141344cd1fd0a4f28419497f9722a3daafe3b4186f6b6457e060405160405180910390a3806000806101000a81548173ffffffffffffffffffffffffffffffffffffffff021916908373ffffffffffffffffffffffffffffffffffffffff16021790555050565b600082821115151561089157fe5b818303905092915050565b600081830190508281101515156108af57fe5b80905092915050565b828054600181600116156101000203166002900490600052602060002090601f016020900481019282601f106108f957805160ff1916838001178555610927565b82800160010185558215610927579182015b8281111561092657825182559160200191906001019061090b565b5b5090506109349190610938565b5090565b61095a91905b8082111561095657600081600090555060010161093e565b5090565b905600a165627a7a72305820a96b619ef589240050655264722d95fc6a2ca38e5cfa68a5f24eb35def63d6320029",
  "source": "pragma solidity 0.4.24;\n\nimport \"openzeppelin-solidity/contracts/math/SafeMath.sol\";\nimport \"openzeppelin-solidity/contracts/ownership/Ownable.sol\";\nimport \"./Registry.sol\";\n\n\n/**\n* Generic Registry, used for Candidates and Voters\n*\n**/\n\ncontract OwnedRegistry is Registry, Ownable{\n    using SafeMath for uint256;\n\n    mapping(address => bool) whiteListed;\n\n    struct Application {\n        uint256 stakedAmount;\n        string data;\n        bool approved;\n    }\n\n    mapping(bytes32 => Application) applications;\n\n    uint256 public listingCounter;\n\n    /**\n    * @dev Adds a new account to the registry\n    * @param _accountToWhiteList account to be added to the registry\n    **/\n\n    function whiteList(address _accountToWhiteList) public {\n        require(msg.sender==owner);\n        require(!isWhitelisted(_accountToWhiteList));\n        whiteListed[_accountToWhiteList] = true;\n        listingCounter = listingCounter.add(1);\n        emit _WhiteList(_accountToWhiteList);\n    }\n\n    /**\n    * @dev Removes an account from the registry\n    * @param _accountToRemove account to be removed from\n    **/\n\n    function remove(address _accountToRemove) public {\n        require(msg.sender == owner);\n        whiteListed[_accountToRemove] = false;\n        listingCounter = listingCounter.sub(1);\n        emit _Remove(_accountToRemove);\n    }\n\n    /**\n    *  @dev Creates an application to be included in the registry\n    *  @param _id Inherited from Registry interface, in this case, required to be the same as msg.sender\n    *  @param _amount Inherited from Registry interface, not required (set to 0)\n    *  @param _data Used for external information related with the application (e.g IPFS hash)\n    */\n\n    function apply(bytes32 _id, uint _amount, string _data) external{\n        require(_id == keccak256(msg.sender, _amount, _data));\n        applications[_id] = Application(_amount, _data, false);\n        emit _Application(_id, _amount, _data, msg.sender);\n    }\n\n   \n    /**\n    *  @dev Returns true when a listing Hash is already Whitelisted\n    *  @param  _accountChecked address being checked\n    *  @return whitelisted boolean specifying if the listing is valid\n    */\n\n    function isWhitelisted(address _accountChecked) view public returns (bool whitelisted){\n        return whiteListed[_accountChecked];\n    }\n\n}\n",
  "sourcePath": "@frontier-token-research/role-registries/contracts/OwnedRegistry.sol",
  "compiler": {
    "name": "solc",
    "version": "0.4.24+commit.e67f0147.Emscripten.clang"
  },
  "schemaVersion": "2.0.0",
  "updatedAt": "2018-06-25T10:01:46.846Z"
}