{
  "contractName": "Owned",
  "abi": [
    {
      "constant": true,
      "inputs": [
        {
          "name": "_addr",
          "type": "address"
        }
      ],
      "name": "isOwner",
      "outputs": [
        {
          "name": "",
          "type": "bool"
        }
      ],
      "payable": false,
      "stateMutability": "view",
      "type": "function"
    },
    {
      "constant": true,
      "inputs": [],
      "name": "owner",
      "outputs": [
        {
          "name": "",
          "type": "address"
        }
      ],
      "payable": false,
      "stateMutability": "view",
      "type": "function"
    },
    {
      "constant": false,
      "inputs": [
        {
          "name": "_newOwner",
          "type": "address"
        }
      ],
      "name": "changeOwner",
      "outputs": [],
      "payable": false,
      "stateMutability": "nonpayable",
      "type": "function"
    },
    {
      "inputs": [],
      "payable": false,
      "stateMutability": "nonpayable",
      "type": "constructor"
    },
    {
      "anonymous": false,
      "inputs": [
        {
          "indexed": false,
          "name": "oldOwner",
          "type": "address"
        },
        {
          "indexed": false,
          "name": "newOwner",
          "type": "address"
        }
      ],
      "name": "OwnerChanged",
      "type": "event"
    }
  ],
  "bytecode": "0x6060604052341561000f57600080fd5b336000806101000a81548173ffffffffffffffffffffffffffffffffffffffff021916908373ffffffffffffffffffffffffffffffffffffffff16021790555061031a8061005e6000396000f300606060405260043610610057576000357c0100000000000000000000000000000000000000000000000000000000900463ffffffff1680632f54bf6e1461005c5780638da5cb5b146100ad578063a6f9dae114610102575b600080fd5b341561006757600080fd5b610093600480803573ffffffffffffffffffffffffffffffffffffffff1690602001909190505061013b565b604051808215151515815260200191505060405180910390f35b34156100b857600080fd5b6100c0610194565b604051808273ffffffffffffffffffffffffffffffffffffffff1673ffffffffffffffffffffffffffffffffffffffff16815260200191505060405180910390f35b341561010d57600080fd5b610139600480803573ffffffffffffffffffffffffffffffffffffffff169060200190919050506101b9565b005b60008060009054906101000a900473ffffffffffffffffffffffffffffffffffffffff1673ffffffffffffffffffffffffffffffffffffffff168273ffffffffffffffffffffffffffffffffffffffff16149050919050565b6000809054906101000a900473ffffffffffffffffffffffffffffffffffffffff1681565b6000809054906101000a900473ffffffffffffffffffffffffffffffffffffffff1673ffffffffffffffffffffffffffffffffffffffff163373ffffffffffffffffffffffffffffffffffffffff1614151561021457600080fd5b806000806101000a81548173ffffffffffffffffffffffffffffffffffffffff021916908373ffffffffffffffffffffffffffffffffffffffff1602179055507fb532073b38c83145e3e5135377a08bf9aab55bc0fd7c1179cd4fb995d2a5159c3382604051808373ffffffffffffffffffffffffffffffffffffffff1673ffffffffffffffffffffffffffffffffffffffff1681526020018273ffffffffffffffffffffffffffffffffffffffff1673ffffffffffffffffffffffffffffffffffffffff1681526020019250505060405180910390a1505600a165627a7a72305820eea62fe71181ba7b8c2a22f6e8344b2f730584ebab74cabb27322e8e16a39a320029",
  "source": "pragma solidity 0.4.18;\n\n\ncontract Owned {\n\n    address public owner;\n\n    event OwnerChanged(address oldOwner, address newOwner);\n\n    function Owned() public {\n        owner = msg.sender;\n    }\n\n    modifier onlyOwner() {\n        if (msg.sender != owner) revert();\n        _;\n    }\n\n    /**\n     * Transfers the ownership of the contract\n     * @param _newOwner Address of the new owner\n     * TODO: Check KeyRecovery\n     */\n    function changeOwner(address _newOwner) public onlyOwner {\n        owner = _newOwner;\n        OwnerChanged(msg.sender, _newOwner);\n\n    }\n\n    function isOwner(address _addr) public constant returns(bool) {\n        return _addr == owner;\n    }\n}\n",
  "sourcePath": "/Users/influitysmallmac/Documents/Projects/consensys/Frontier/FrontierLists/contracts/lib/Owned.sol",
  "compiler": {
    "name": "solc",
    "version": "0.4.18+commit.9cf6e910.Emscripten.clang"
  },
  "schemaVersion": "1.0.1",
  "updatedAt": "2018-01-18T17:21:27.420Z"
}