{
  "contractName": "OwnedRegistryFactory",
  "abi": [
    {
      "anonymous": false,
      "inputs": [
        {
          "indexed": true,
          "name": "creator",
          "type": "address"
        }
      ],
      "name": "OwnedRegistryCreation",
      "type": "event"
    },
    {
      "constant": false,
      "inputs": [
        {
          "name": "_maxNumListings",
          "type": "uint256"
        }
      ],
      "name": "newRegistry",
      "outputs": [
        {
          "name": "_reg",
          "type": "address"
        }
      ],
      "payable": false,
      "stateMutability": "nonpayable",
      "type": "function"
    }
  ],
  "bytecode": "0x6060604052341561000f57600080fd5b6108fb8061001e6000396000f300606060405260043610610041576000357c0100000000000000000000000000000000000000000000000000000000900463ffffffff16806360b1b0ee14610046575b600080fd5b341561005157600080fd5b61006760048080359060200190919050506100a9565b604051808273ffffffffffffffffffffffffffffffffffffffff1673ffffffffffffffffffffffffffffffffffffffff16815260200191505060405180910390f35b600080826100b5610123565b80828152602001915050604051809103906000f08015156100d557600080fd5b90503373ffffffffffffffffffffffffffffffffffffffff167f86de3e8ad70220b07d21888291dbcf2eb9abb87044911115423316a89c5bc1af60405160405180910390a280915050919050565b60405161079c806101348339019056006060604052341561000f57600080fd5b60405160208061079c83398101604052808051906020019091905050336000806101000a81548173ffffffffffffffffffffffffffffffffffffffff021916908373ffffffffffffffffffffffffffffffffffffffff160217905550806002819055505061071a806100826000396000f300606060405260043610610083576000357c0100000000000000000000000000000000000000000000000000000000900463ffffffff1680630e8f773e1461008857806329092d0e146100b1578063372c12b1146100ea5780633af32abf146101235780636c2c9c7d146101745780638da5cb5b1461019d578063f2fde38b146101f2575b600080fd5b341561009357600080fd5b61009b61022b565b6040518082815260200191505060405180910390f35b34156100bc57600080fd5b6100e8600480803573ffffffffffffffffffffffffffffffffffffffff16906020019091905050610231565b005b34156100f557600080fd5b610121600480803573ffffffffffffffffffffffffffffffffffffffff16906020019091905050610379565b005b341561012e57600080fd5b61015a600480803573ffffffffffffffffffffffffffffffffffffffff16906020019091905050610519565b604051808215151515815260200191505060405180910390f35b341561017f57600080fd5b610187610539565b6040518082815260200191505060405180910390f35b34156101a857600080fd5b6101b061053f565b604051808273ffffffffffffffffffffffffffffffffffffffff1673ffffffffffffffffffffffffffffffffffffffff16815260200191505060405180910390f35b34156101fd57600080fd5b610229600480803573ffffffffffffffffffffffffffffffffffffffff16906020019091905050610564565b005b60025481565b6000809054906101000a900473ffffffffffffffffffffffffffffffffffffffff1673ffffffffffffffffffffffffffffffffffffffff163373ffffffffffffffffffffffffffffffffffffffff1614151561028c57600080fd5b6002546003541115151561029f57600080fd5b6000600160008373ffffffffffffffffffffffffffffffffffffffff1673ffffffffffffffffffffffffffffffffffffffff16815260200190815260200160002060006101000a81548160ff02191690831515021790555061030d60016003546106b990919063ffffffff16565b6003819055507fbe7c7ac3248df4581c206a84aab3cb4e7d521b5398b42b681757f78a5a7d411e81604051808273ffffffffffffffffffffffffffffffffffffffff1673ffffffffffffffffffffffffffffffffffffffff16815260200191505060405180910390a150565b6000809054906101000a900473ffffffffffffffffffffffffffffffffffffffff1673ffffffffffffffffffffffffffffffffffffffff163373ffffffffffffffffffffffffffffffffffffffff161415156103d457600080fd5b600254600354111515156103e757600080fd5b600160008273ffffffffffffffffffffffffffffffffffffffff1673ffffffffffffffffffffffffffffffffffffffff16815260200190815260200160002060009054906101000a900460ff1615151561044057600080fd5b60018060008373ffffffffffffffffffffffffffffffffffffffff1673ffffffffffffffffffffffffffffffffffffffff16815260200190815260200160002060006101000a81548160ff0219169083151502179055506104ad60016003546106d290919063ffffffff16565b6003819055507f6bc201575d15207e99d0768e5a03902307f4963938d08a25c182998691f3499d81604051808273ffffffffffffffffffffffffffffffffffffffff1673ffffffffffffffffffffffffffffffffffffffff16815260200191505060405180910390a150565b60016020528060005260406000206000915054906101000a900460ff1681565b60035481565b6000809054906101000a900473ffffffffffffffffffffffffffffffffffffffff1681565b6000809054906101000a900473ffffffffffffffffffffffffffffffffffffffff1673ffffffffffffffffffffffffffffffffffffffff163373ffffffffffffffffffffffffffffffffffffffff161415156105bf57600080fd5b600073ffffffffffffffffffffffffffffffffffffffff168173ffffffffffffffffffffffffffffffffffffffff16141515156105fb57600080fd5b8073ffffffffffffffffffffffffffffffffffffffff166000809054906101000a900473ffffffffffffffffffffffffffffffffffffffff1673ffffffffffffffffffffffffffffffffffffffff167f8be0079c531659141344cd1fd0a4f28419497f9722a3daafe3b4186f6b6457e060405160405180910390a3806000806101000a81548173ffffffffffffffffffffffffffffffffffffffff021916908373ffffffffffffffffffffffffffffffffffffffff16021790555050565b60008282111515156106c757fe5b818303905092915050565b600081830190508281101515156106e557fe5b809050929150505600a165627a7a723058202fa19d026b01f92a921f5ed11cb880682666100393c365c6db866cf7549bf5f90029a165627a7a723058202f75760bb03cc5b92c843fc0ca855e964157f0f8da27e227fb34a1582cc4647f0029",
  "source": "pragma solidity 0.4.21;\n\nimport \"./OwnedRegistry.sol\";\n\n/**\n* Generic Registry, used for Candidates and Voters\n*\n**/\n\ncontract OwnedRegistryFactory{\n\n    /**\n    * Creates a new Owned Registry\n    * @param _maxNumListings Maximum number of listings for the created registry\n    *\n    */\n    function newRegistry(uint256 _maxNumListings) public returns (OwnedRegistry _reg){\n        OwnedRegistry reg = new OwnedRegistry(_maxNumListings);\n        emit OwnedRegistryCreation(msg.sender);\n        return reg;\n    }\n\n    event OwnedRegistryCreation(address indexed creator);\n\n}\n",
  "sourcePath": "/Users/carlosbuendia/Documents/Projects/consensys/Frontier/TokenRankedLists/contracts/OwnedRegistryFactory.sol",
  "compiler": {
    "name": "solc",
    "version": "0.4.21+commit.dfe3193c.Emscripten.clang"
  },
  "schemaVersion": "2.0.0",
  "updatedAt": "2018-05-14T16:39:48.973Z"
}