{
  "contractName": "OwnedRegistryFactory",
  "abi": [
    {
      "constant": true,
      "inputs": [
        {
          "name": "",
          "type": "bytes32"
        }
      ],
      "name": "registries",
      "outputs": [
        {
          "name": "",
          "type": "address"
        }
      ],
      "payable": false,
      "stateMutability": "view",
      "type": "function"
    },
    {
      "anonymous": false,
      "inputs": [
        {
          "indexed": true,
          "name": "creator",
          "type": "address"
        }
      ],
      "name": "OwnedRegistryCreation",
      "type": "event"
    },
    {
      "constant": false,
      "inputs": [
        {
          "name": "_label",
          "type": "bytes32"
        }
      ],
      "name": "newRegistry",
      "outputs": [
        {
          "name": "_reg",
          "type": "address"
        }
      ],
      "payable": false,
      "stateMutability": "nonpayable",
      "type": "function"
    },
    {
      "constant": true,
      "inputs": [
        {
          "name": "_label",
          "type": "bytes32"
        }
      ],
      "name": "getRegistry",
      "outputs": [
        {
          "name": "",
          "type": "address"
        }
      ],
      "payable": false,
      "stateMutability": "view",
      "type": "function"
    }
  ],
  "bytecode": "0x608060405234801561001057600080fd5b506111ae806100206000396000f300608060405260043610610057576000357c0100000000000000000000000000000000000000000000000000000000900463ffffffff1680635d8d57a61461005c5780638205008b146100cd578063e51fd7a61461013e575b600080fd5b34801561006857600080fd5b5061008b60048036038101908080356000191690602001909291905050506101af565b604051808273ffffffffffffffffffffffffffffffffffffffff1673ffffffffffffffffffffffffffffffffffffffff16815260200191505060405180910390f35b3480156100d957600080fd5b506100fc60048036038101908080356000191690602001909291905050506101e2565b604051808273ffffffffffffffffffffffffffffffffffffffff1673ffffffffffffffffffffffffffffffffffffffff16815260200191505060405180910390f35b34801561014a57600080fd5b5061016d60048036038101908080356000191690602001909291905050506103c3565b604051808273ffffffffffffffffffffffffffffffffffffffff1673ffffffffffffffffffffffffffffffffffffffff16815260200191505060405180910390f35b60006020528060005260406000206000915054906101000a900473ffffffffffffffffffffffffffffffffffffffff1681565b6000806000806000856000191660001916815260200190815260200160002060009054906101000a900473ffffffffffffffffffffffffffffffffffffffff1673ffffffffffffffffffffffffffffffffffffffff1614151561024457600080fd5b61024c610407565b604051809103906000f080158015610268573d6000803e3d6000fd5b5090503373ffffffffffffffffffffffffffffffffffffffff167f86de3e8ad70220b07d21888291dbcf2eb9abb87044911115423316a89c5bc1af60405160405180910390a28073ffffffffffffffffffffffffffffffffffffffff1663f2fde38b336040518263ffffffff167c0100000000000000000000000000000000000000000000000000000000028152600401808273ffffffffffffffffffffffffffffffffffffffff1673ffffffffffffffffffffffffffffffffffffffff168152602001915050600060405180830381600087803b15801561034957600080fd5b505af115801561035d573d6000803e3d6000fd5b5050505080600080856000191660001916815260200190815260200160002060006101000a81548173ffffffffffffffffffffffffffffffffffffffff021916908373ffffffffffffffffffffffffffffffffffffffff16021790555080915050919050565b6000806000836000191660001916815260200190815260200160002060009054906101000a900473ffffffffffffffffffffffffffffffffffffffff169050919050565b604051610d6b806104188339019056006080604052336000806101000a81548173ffffffffffffffffffffffffffffffffffffffff021916908373ffffffffffffffffffffffffffffffffffffffff160217905550610d18806100536000396000f3006080604052600436106100af576000357c0100000000000000000000000000000000000000000000000000000000900463ffffffff168063173b7084146100b457806329092d0e1461015e578063372c12b1146101a15780633af32abf146101e45780634cafa1211461023f57806357abc81c146102fb5780636c2c9c7d1461034057806389bb55c71461036b5780638da5cb5b146103be578063b088877b14610415578063f2fde38b1461045e575b600080fd5b3480156100c057600080fd5b506100e360048036038101908080356000191690602001909291905050506104a1565b6040518080602001828103825283818151815260200191508051906020019080838360005b83811015610123578082015181840152602081019050610108565b50505050905090810190601f1680156101505780820380516001836020036101000a031916815260200191505b509250505060405180910390f35b34801561016a57600080fd5b5061019f600480360381019080803573ffffffffffffffffffffffffffffffffffffffff169060200190929190505050610561565b005b3480156101ad57600080fd5b506101e2600480360381019080803573ffffffffffffffffffffffffffffffffffffffff169060200190929190505050610696565b005b3480156101f057600080fd5b50610225600480360381019080803573ffffffffffffffffffffffffffffffffffffffff1690602001909291905050506107df565b604051808215151515815260200191505060405180910390f35b34801561024b57600080fd5b5061026e6004803603810190808035600019169060200190929190505050610835565b604051808481526020018060200183151515158152602001828103825284818151815260200191508051906020019080838360005b838110156102be5780820151818401526020810190506102a3565b50505050905090810190601f1680156102eb5780820380516001836020036101000a031916815260200191505b5094505050505060405180910390f35b34801561030757600080fd5b5061032a6004803603810190808035600019169060200190929190505050610904565b6040518082815260200191505060405180910390f35b34801561034c57600080fd5b5061035561092c565b6040518082815260200191505060405180910390f35b34801561037757600080fd5b506103bc600480360381019080803560001916906020019092919080359060200190929190803590602001908201803590602001919091929391929390505050610932565b005b3480156103ca57600080fd5b506103d3610a63565b604051808273ffffffffffffffffffffffffffffffffffffffff1673ffffffffffffffffffffffffffffffffffffffff16815260200191505060405180910390f35b34801561042157600080fd5b506104446004803603810190808035600019169060200190929190505050610a88565b604051808215151515815260200191505060405180910390f35b34801561046a57600080fd5b5061049f600480360381019080803573ffffffffffffffffffffffffffffffffffffffff169060200190929190505050610abd565b005b60606002600083600019166000191681526020019081526020016000206001018054600181600116156101000203166002900480601f0160208091040260200160405190810160405280929190818152602001828054600181600116156101000203166002900480156105555780601f1061052a57610100808354040283529160200191610555565b820191906000526020600020905b81548152906001019060200180831161053857829003601f168201915b50505050509050919050565b6000809054906101000a900473ffffffffffffffffffffffffffffffffffffffff1673ffffffffffffffffffffffffffffffffffffffff163373ffffffffffffffffffffffffffffffffffffffff161415156105bc57600080fd5b6000600160008373ffffffffffffffffffffffffffffffffffffffff1673ffffffffffffffffffffffffffffffffffffffff16815260200190815260200160002060006101000a81548160ff02191690831515021790555061062a6001600354610c1290919063ffffffff16565b6003819055507f4dad83fa2f662e801184bd81b75b1894fdfd16026aa67a6a65d5715476a61f5381604051808273ffffffffffffffffffffffffffffffffffffffff1673ffffffffffffffffffffffffffffffffffffffff16815260200191505060405180910390a150565b6000809054906101000a900473ffffffffffffffffffffffffffffffffffffffff1673ffffffffffffffffffffffffffffffffffffffff163373ffffffffffffffffffffffffffffffffffffffff161415156106f157600080fd5b6106fa816107df565b15151561070657600080fd5b60018060008373ffffffffffffffffffffffffffffffffffffffff1673ffffffffffffffffffffffffffffffffffffffff16815260200190815260200160002060006101000a81548160ff0219169083151502179055506107736001600354610c2b90919063ffffffff16565b6003819055507f14c99c95843c55c4e6e3cd95be615861493e90f3919ff664169bfbe2839dbfb081604051808273ffffffffffffffffffffffffffffffffffffffff1673ffffffffffffffffffffffffffffffffffffffff16815260200191505060405180910390a150565b6000600160008373ffffffffffffffffffffffffffffffffffffffff1673ffffffffffffffffffffffffffffffffffffffff16815260200190815260200160002060009054906101000a900460ff169050919050565b6002602052806000526040600020600091509050806000015490806001018054600181600116156101000203166002900480601f0160208091040260200160405190810160405280929190818152602001828054600181600116156101000203166002900480156108e75780601f106108bc576101008083540402835291602001916108e7565b820191906000526020600020905b8154815290600101906020018083116108ca57829003601f168201915b5050505050908060020160009054906101000a900460ff16905083565b6000600260008360001916600019168152602001908152602001600020600001549050919050565b60035481565b60606040519081016040528084815260200183838080601f0160208091040260200160405190810160405280939291908181526020018383808284378201915050505050508152602001600015158152506002600086600019166000191681526020019081526020016000206000820151816000015560208201518160010190805190602001906109c4929190610c47565b5060408201518160020160006101000a81548160ff0219169083151502179055509050503373ffffffffffffffffffffffffffffffffffffffff1684600019167fe1cdd401be51ef2c8159945a96274b69ba482f2a5e2131700beeda434fd6d58f85858560405180848152602001806020018281038252848482818152602001925080828437820191505094505050505060405180910390a350505050565b6000809054906101000a900473ffffffffffffffffffffffffffffffffffffffff1681565b600060026000836000191660001916815260200190815260200160002060020160009054906101000a900460ff169050919050565b6000809054906101000a900473ffffffffffffffffffffffffffffffffffffffff1673ffffffffffffffffffffffffffffffffffffffff163373ffffffffffffffffffffffffffffffffffffffff16141515610b1857600080fd5b600073ffffffffffffffffffffffffffffffffffffffff168173ffffffffffffffffffffffffffffffffffffffff1614151515610b5457600080fd5b8073ffffffffffffffffffffffffffffffffffffffff166000809054906101000a900473ffffffffffffffffffffffffffffffffffffffff1673ffffffffffffffffffffffffffffffffffffffff167f8be0079c531659141344cd1fd0a4f28419497f9722a3daafe3b4186f6b6457e060405160405180910390a3806000806101000a81548173ffffffffffffffffffffffffffffffffffffffff021916908373ffffffffffffffffffffffffffffffffffffffff16021790555050565b6000828211151515610c2057fe5b818303905092915050565b60008183019050828110151515610c3e57fe5b80905092915050565b828054600181600116156101000203166002900490600052602060002090601f016020900481019282601f10610c8857805160ff1916838001178555610cb6565b82800160010185558215610cb6579182015b82811115610cb5578251825591602001919060010190610c9a565b5b509050610cc39190610cc7565b5090565b610ce991905b80821115610ce5576000816000905550600101610ccd565b5090565b905600a165627a7a723058209be6c69525685777cbb054bfced52d62e20ec359d7d495c28198ec90511b43240029a165627a7a72305820a671e0f218eb631ee30e0817477155ff42120045b80e720cfd17bdcc13f50f6f0029",
  "source": "pragma solidity ^0.4.24;\n\nimport \"./OwnedRegistry.sol\";\n\n/**\n* Factory to deploy Owned Registries\n**/\n\ncontract OwnedRegistryFactory{\n\n    mapping (bytes32 => address) public registries;\n\n    /**\n    * Creates a new Owned Registry\n    * @param _label a bytes32 label to identify the new created registry\n    */\n\n    function newRegistry(bytes32 _label) public returns (OwnedRegistry _reg){\n        require(registries[_label] == 0x00);\n        OwnedRegistry reg = new OwnedRegistry();\n        emit OwnedRegistryCreation(msg.sender);\n        reg.transferOwnership(msg.sender);\n        registries[_label] = address(reg);\n        return reg;\n    }\n\n    function getRegistry(bytes32 _label) public view returns (address){\n        return registries[_label];\n    }\n\n    event OwnedRegistryCreation(address indexed creator);\n\n}\n",
  "sourcePath": "@frontier-token-research/role-registries/contracts/OwnedRegistryFactory.sol",
  "compiler": {
    "name": "solc",
    "version": "0.4.24+commit.e67f0147.Emscripten.clang"
  },
  "schemaVersion": "2.0.0",
  "updatedAt": "2018-07-18T12:46:01.078Z"
}