{
  "contractName": "PeriodicStages",
  "abi": [
    {
      "constant": true,
      "inputs": [],
      "name": "stack",
      "outputs": [
        {
          "name": "",
          "type": "address"
        }
      ],
      "payable": false,
      "stateMutability": "view",
      "type": "function"
    },
    {
      "constant": false,
      "inputs": [],
      "name": "renounceOwnership",
      "outputs": [],
      "payable": false,
      "stateMutability": "nonpayable",
      "type": "function"
    },
    {
      "constant": true,
      "inputs": [],
      "name": "owner",
      "outputs": [
        {
          "name": "",
          "type": "address"
        }
      ],
      "payable": false,
      "stateMutability": "view",
      "type": "function"
    },
    {
      "constant": true,
      "inputs": [],
      "name": "period",
      "outputs": [
        {
          "name": "",
          "type": "address"
        }
      ],
      "payable": false,
      "stateMutability": "view",
      "type": "function"
    },
    {
      "constant": false,
      "inputs": [
        {
          "name": "_newOwner",
          "type": "address"
        }
      ],
      "name": "transferOwnership",
      "outputs": [],
      "payable": false,
      "stateMutability": "nonpayable",
      "type": "function"
    },
    {
      "inputs": [
        {
          "name": "_T",
          "type": "uint256"
        }
      ],
      "payable": false,
      "stateMutability": "nonpayable",
      "type": "constructor"
    },
    {
      "anonymous": false,
      "inputs": [
        {
          "indexed": true,
          "name": "previousOwner",
          "type": "address"
        }
      ],
      "name": "OwnershipRenounced",
      "type": "event"
    },
    {
      "anonymous": false,
      "inputs": [
        {
          "indexed": true,
          "name": "previousOwner",
          "type": "address"
        },
        {
          "indexed": true,
          "name": "newOwner",
          "type": "address"
        }
      ],
      "name": "OwnershipTransferred",
      "type": "event"
    },
    {
      "constant": false,
      "inputs": [
        {
          "name": "_T",
          "type": "uint256"
        }
      ],
      "name": "setPeriodLength",
      "outputs": [],
      "payable": false,
      "stateMutability": "nonpayable",
      "type": "function"
    },
    {
      "constant": false,
      "inputs": [
        {
          "name": "_duration",
          "type": "uint256"
        }
      ],
      "name": "pushStage",
      "outputs": [],
      "payable": false,
      "stateMutability": "nonpayable",
      "type": "function"
    },
    {
      "constant": true,
      "inputs": [],
      "name": "currentStage",
      "outputs": [
        {
          "name": "",
          "type": "uint256"
        }
      ],
      "payable": false,
      "stateMutability": "view",
      "type": "function"
    }
  ],
  "bytecode": "0x608060405234801561001057600080fd5b5060405160208061210083398101806040528101908080519060200190929190505050336000806101000a81548173ffffffffffffffffffffffffffffffffffffffff021916908373ffffffffffffffffffffffffffffffffffffffff1602179055508061007c610159565b80828152602001915050604051809103906000f0801580156100a2573d6000803e3d6000fd5b50600260006101000a81548173ffffffffffffffffffffffffffffffffffffffff021916908373ffffffffffffffffffffffffffffffffffffffff160217905550806100ec610169565b80828152602001915050604051809103906000f080158015610112573d6000803e3d6000fd5b50600160006101000a81548173ffffffffffffffffffffffffffffffffffffffff021916908373ffffffffffffffffffffffffffffffffffffffff16021790555050610179565b604051610ad280610c4b83390190565b6040516109e38061171d83390190565b610ac3806101886000396000f30060806040526004361061008e576000357c0100000000000000000000000000000000000000000000000000000000900463ffffffff168063138ef151146100935780631c5633d7146100ea5780635bf5d54c14610117578063715018a614610142578063842652a6146101595780638da5cb5b14610186578063ef78d4fd146101dd578063f2fde38b14610234575b600080fd5b34801561009f57600080fd5b506100a8610277565b604051808273ffffffffffffffffffffffffffffffffffffffff1673ffffffffffffffffffffffffffffffffffffffff16815260200191505060405180910390f35b3480156100f657600080fd5b506101156004803603810190808035906020019092919050505061029d565b005b34801561012357600080fd5b5061012c610442565b6040518082815260200191505060405180910390f35b34801561014e57600080fd5b506101576106e2565b005b34801561016557600080fd5b50610184600480360381019080803590602001909291905050506107e4565b005b34801561019257600080fd5b5061019b6108eb565b604051808273ffffffffffffffffffffffffffffffffffffffff1673ffffffffffffffffffffffffffffffffffffffff16815260200191505060405180910390f35b3480156101e957600080fd5b506101f2610910565b604051808273ffffffffffffffffffffffffffffffffffffffff1673ffffffffffffffffffffffffffffffffffffffff16815260200191505060405180910390f35b34801561024057600080fd5b50610275600480360381019080803573ffffffffffffffffffffffffffffffffffffffff169060200190929190505050610936565b005b600260009054906101000a900473ffffffffffffffffffffffffffffffffffffffff1681565b6000809054906101000a900473ffffffffffffffffffffffffffffffffffffffff1673ffffffffffffffffffffffffffffffffffffffff163373ffffffffffffffffffffffffffffffffffffffff161415156102f857600080fd5b600260009054906101000a900473ffffffffffffffffffffffffffffffffffffffff1673ffffffffffffffffffffffffffffffffffffffff1663f2a75fe46040518163ffffffff167c0100000000000000000000000000000000000000000000000000000000028152600401600060405180830381600087803b15801561037e57600080fd5b505af1158015610392573d6000803e3d6000fd5b50505050600160009054906101000a900473ffffffffffffffffffffffffffffffffffffffff1673ffffffffffffffffffffffffffffffffffffffff16631c5633d7826040518263ffffffff167c010000000000000000000000000000000000000000000000000000000002815260040180828152602001915050600060405180830381600087803b15801561042757600080fd5b505af115801561043b573d6000803e3d6000fd5b5050505050565b600080600080600160009054906101000a900473ffffffffffffffffffffffffffffffffffffffff1673ffffffffffffffffffffffffffffffffffffffff1663dd6239fc6040518163ffffffff167c0100000000000000000000000000000000000000000000000000000000028152600401602060405180830381600087803b1580156104ce57600080fd5b505af11580156104e2573d6000803e3d6000fd5b505050506040513d60208110156104f857600080fd5b81019080805190602001909291905050509250600260009054906101000a900473ffffffffffffffffffffffffffffffffffffffff1673ffffffffffffffffffffffffffffffffffffffff16630ef267436040518163ffffffff167c0100000000000000000000000000000000000000000000000000000000028152600401602060405180830381600087803b15801561059157600080fd5b505af11580156105a5573d6000803e3d6000fd5b505050506040513d60208110156105bb57600080fd5b8101908080519060200190929190505050915060008214156105e057600093506106dc565b600090505b818110156106db57600260009054906101000a900473ffffffffffffffffffffffffffffffffffffffff1673ffffffffffffffffffffffffffffffffffffffff16636f54dce582856040518363ffffffff167c01000000000000000000000000000000000000000000000000000000000281526004018083815260200182815260200192505050602060405180830381600087803b15801561068657600080fd5b505af115801561069a573d6000803e3d6000fd5b505050506040513d60208110156106b057600080fd5b8101908080519060200190929190505050156106ce578093506106dc565b80806001019150506105e5565b5b50505090565b6000809054906101000a900473ffffffffffffffffffffffffffffffffffffffff1673ffffffffffffffffffffffffffffffffffffffff163373ffffffffffffffffffffffffffffffffffffffff1614151561073d57600080fd5b6000809054906101000a900473ffffffffffffffffffffffffffffffffffffffff1673ffffffffffffffffffffffffffffffffffffffff167ff8df31144d9c2f0f6b59d69b8b98abd5459d07f2742c4df920b25aae33c6482060405160405180910390a260008060006101000a81548173ffffffffffffffffffffffffffffffffffffffff021916908373ffffffffffffffffffffffffffffffffffffffff160217905550565b6000809054906101000a900473ffffffffffffffffffffffffffffffffffffffff1673ffffffffffffffffffffffffffffffffffffffff163373ffffffffffffffffffffffffffffffffffffffff1614151561083f57600080fd5b600260009054906101000a900473ffffffffffffffffffffffffffffffffffffffff1673ffffffffffffffffffffffffffffffffffffffff1663959ac484826040518263ffffffff167c010000000000000000000000000000000000000000000000000000000002815260040180828152602001915050600060405180830381600087803b1580156108d057600080fd5b505af11580156108e4573d6000803e3d6000fd5b5050505050565b6000809054906101000a900473ffffffffffffffffffffffffffffffffffffffff1681565b600160009054906101000a900473ffffffffffffffffffffffffffffffffffffffff1681565b6000809054906101000a900473ffffffffffffffffffffffffffffffffffffffff1673ffffffffffffffffffffffffffffffffffffffff163373ffffffffffffffffffffffffffffffffffffffff1614151561099157600080fd5b61099a8161099d565b50565b600073ffffffffffffffffffffffffffffffffffffffff168173ffffffffffffffffffffffffffffffffffffffff16141515156109d957600080fd5b8073ffffffffffffffffffffffffffffffffffffffff166000809054906101000a900473ffffffffffffffffffffffffffffffffffffffff1673ffffffffffffffffffffffffffffffffffffffff167f8be0079c531659141344cd1fd0a4f28419497f9722a3daafe3b4186f6b6457e060405160405180910390a3806000806101000a81548173ffffffffffffffffffffffffffffffffffffffff021916908373ffffffffffffffffffffffffffffffffffffffff160217905550505600a165627a7a72305820273d46ff45f7b81b4f983734c8ed784934db2fc6c2561576bb8f27d0982cc55f0029608060405234801561001057600080fd5b50604051602080610ad283398101806040528101908080519060200190929190505050336000806101000a81548173ffffffffffffffffffffffffffffffffffffffff021916908373ffffffffffffffffffffffffffffffffffffffff1602179055508060048190555050610a488061008a6000396000f3006080604052600436106100ba576000357c0100000000000000000000000000000000000000000000000000000000900463ffffffff1680630ef26743146100bf5780632f91f1f4146100ea5780634a720f27146101155780635439e423146101565780636f54dce514610181578063715018a6146101d05780638da5cb5b146101e7578063959ac4841461023e578063a4ece52c1461026b578063b1becf2a14610282578063f2a75fe4146102c3578063f2fde38b146102da575b600080fd5b3480156100cb57600080fd5b506100d461031d565b6040518082815260200191505060405180910390f35b3480156100f657600080fd5b506100ff610327565b6040518082815260200191505060405180910390f35b34801561012157600080fd5b506101406004803603810190808035906020019092919050505061032d565b6040518082815260200191505060405180910390f35b34801561016257600080fd5b5061016b610350565b6040518082815260200191505060405180910390f35b34801561018d57600080fd5b506101b66004803603810190808035906020019092919080359060200190929190505050610356565b604051808215151515815260200191505060405180910390f35b3480156101dc57600080fd5b506101e56103d1565b005b3480156101f357600080fd5b506101fc6104d3565b604051808273ffffffffffffffffffffffffffffffffffffffff1673ffffffffffffffffffffffffffffffffffffffff16815260200191505060405180910390f35b34801561024a57600080fd5b50610269600480360381019080803590602001909291905050506104f8565b005b34801561027757600080fd5b50610280610636565b005b34801561028e57600080fd5b506102ad600480360381019080803590602001909291905050506107b5565b6040518082815260200191505060405180910390f35b3480156102cf57600080fd5b506102d86107cd565b005b3480156102e657600080fd5b5061031b600480360381019080803573ffffffffffffffffffffffffffffffffffffffff16906020019092919050505061086a565b005b6000600554905090565b60045481565b60018181548110151561033c57fe5b906000526020600020016000915090505481565b60035481565b6000808314156103845760018381548110151561036f57fe5b906000526020600020015482111590506103cb565b600180840381548110151561039557fe5b906000526020600020015482101580156103c857506001838154811015156103b957fe5b90600052602060002001548211155b90505b92915050565b6000809054906101000a900473ffffffffffffffffffffffffffffffffffffffff1673ffffffffffffffffffffffffffffffffffffffff163373ffffffffffffffffffffffffffffffffffffffff1614151561042c57600080fd5b6000809054906101000a900473ffffffffffffffffffffffffffffffffffffffff1673ffffffffffffffffffffffffffffffffffffffff167ff8df31144d9c2f0f6b59d69b8b98abd5459d07f2742c4df920b25aae33c6482060405160405180910390a260008060006101000a81548173ffffffffffffffffffffffffffffffffffffffff021916908373ffffffffffffffffffffffffffffffffffffffff160217905550565b6000809054906101000a900473ffffffffffffffffffffffffffffffffffffffff1681565b6000809054906101000a900473ffffffffffffffffffffffffffffffffffffffff1673ffffffffffffffffffffffffffffffffffffffff163373ffffffffffffffffffffffffffffffffffffffff1614151561055357600080fd5b6004548160035401111515156105d1576040517f08c379a00000000000000000000000000000000000000000000000000000000081526004018080602001828103825260128152602001807f424c4f434b5f4e554d5f4f564552464c4f57000000000000000000000000000081525060200191505060405180910390fd5b600181600354019080600181540180825580915050906001820390600052602060002001600090919290919091505550806003600082825401925050819055506005600081548092919060010191905055506004546003541115151561063357fe5b50565b60008060009054906101000a900473ffffffffffffffffffffffffffffffffffffffff1673ffffffffffffffffffffffffffffffffffffffff163373ffffffffffffffffffffffffffffffffffffffff1614151561069357600080fd5b6000600180549050111515610710576040517f08c379a000000000000000000000000000000000000000000000000000000000815260040180806020018281038252600d8152602001807f454d5054592053544f524147450000000000000000000000000000000000000081525060200191505060405180910390fd5b60018080805490500381548110151561072557fe5b9060005260206000200154905060018080805490500381548110151561074757fe5b9060005260206000200160009055600180548091906001900361076a91906109cb565b506000600180549050141561078e57600060058190555060006003819055506107b2565b60056000815480929190600190039190505550806003600082825403925050819055505b50565b60026020528060005260406000206000915090505481565b6000806000809054906101000a900473ffffffffffffffffffffffffffffffffffffffff1673ffffffffffffffffffffffffffffffffffffffff163373ffffffffffffffffffffffffffffffffffffffff1614151561082b57600080fd5b6001805490509150600090505b8181101561085557610848610636565b8080600101915050610838565b600060018054905014151561086657fe5b5050565b6000809054906101000a900473ffffffffffffffffffffffffffffffffffffffff1673ffffffffffffffffffffffffffffffffffffffff163373ffffffffffffffffffffffffffffffffffffffff161415156108c557600080fd5b6108ce816108d1565b50565b600073ffffffffffffffffffffffffffffffffffffffff168173ffffffffffffffffffffffffffffffffffffffff161415151561090d57600080fd5b8073ffffffffffffffffffffffffffffffffffffffff166000809054906101000a900473ffffffffffffffffffffffffffffffffffffffff1673ffffffffffffffffffffffffffffffffffffffff167f8be0079c531659141344cd1fd0a4f28419497f9722a3daafe3b4186f6b6457e060405160405180910390a3806000806101000a81548173ffffffffffffffffffffffffffffffffffffffff021916908373ffffffffffffffffffffffffffffffffffffffff16021790555050565b8154818355818111156109f2578183600052602060002091820191016109f191906109f7565b5b505050565b610a1991905b80821115610a155760008160009055506001016109fd565b5090565b905600a165627a7a72305820f1df688467672e1b92f46c38c8e541439cc89251119f5690452f95dcb476838b0029608060405234801561001057600080fd5b506040516020806109e383398101806040528101908080519060200190929190505050336000806101000a81548173ffffffffffffffffffffffffffffffffffffffff021916908373ffffffffffffffffffffffffffffffffffffffff1602179055506000811115156100eb576040517f08c379a000000000000000000000000000000000000000000000000000000000815260040180806020018281038252600c8152602001807f454d5054595f504552494f44000000000000000000000000000000000000000081525060200191505060405180910390fd5b4360048190555080600181905550506108da806101096000396000f3006080604052600436106100e6576000357c0100000000000000000000000000000000000000000000000000000000900463ffffffff1680630ef26743146100eb5780631c5633d714610116578063262a9dff146101435780632bc80f3a1461016e57806346bf6a55146101995780634c1ce7b4146101c45780634d3a6775146101ef57806355569a2f1461021a578063715018a614610249578063731b3a03146102605780638da5cb5b1461028b578063a091fd6b146102e2578063b9f7fb291461030f578063dd6239fc1461033a578063f2fde38b14610365578063f866dd82146103a8575b600080fd5b3480156100f757600080fd5b506101006103d3565b6040518082815260200191505060405180910390f35b34801561012257600080fd5b5061014160048036038101908080359060200190929190505050610409565b005b34801561014f57600080fd5b506101586104ae565b6040518082815260200191505060405180910390f35b34801561017a57600080fd5b506101836104b4565b6040518082815260200191505060405180910390f35b3480156101a557600080fd5b506101ae6104ba565b6040518082815260200191505060405180910390f35b3480156101d057600080fd5b506101d96104c0565b6040518082815260200191505060405180910390f35b3480156101fb57600080fd5b506102046104f1565b6040518082815260200191505060405180910390f35b34801561022657600080fd5b5061022f610524565b604051808215151515815260200191505060405180910390f35b34801561025557600080fd5b5061025e610530565b005b34801561026c57600080fd5b50610275610632565b6040518082815260200191505060405180910390f35b34801561029757600080fd5b506102a0610670565b604051808273ffffffffffffffffffffffffffffffffffffffff1673ffffffffffffffffffffffffffffffffffffffff16815260200191505060405180910390f35b3480156102ee57600080fd5b5061030d60048036038101908080359060200190929190505050610695565b005b34801561031b57600080fd5b50610324610730565b6040518082815260200191505060405180910390f35b34801561034657600080fd5b5061034f610736565b6040518082815260200191505060405180910390f35b34801561037157600080fd5b506103a6600480360381019080803573ffffffffffffffffffffffffffffffffffffffff169060200190929190505050610747565b005b3480156103b457600080fd5b506103bd6107ae565b6040518082815260200191505060405180910390f35b60004360045411156103e9576005549050610406565b600254600554600154600454430381151561040057fe5b04010190505b90565b60008060009054906101000a900473ffffffffffffffffffffffffffffffffffffffff1673ffffffffffffffffffffffffffffffffffffffff163373ffffffffffffffffffffffffffffffffffffffff1614151561046657600080fd5b61046e6103d3565b9050600161047a610632565b0160048190555080600581905550600260008154809291906001019190505550600154600381905550816001819055505050565b60025481565b60015481565b60045481565b60006104ca610524565b156104d95760055490506104ee565b60015460045443038115156104ea57fe5b0490505b90565b60006104fb610524565b1561050e57600354600454039050610521565b6001546105196104c0565b026004540190505b90565b60004360045411905090565b6000809054906101000a900473ffffffffffffffffffffffffffffffffffffffff1673ffffffffffffffffffffffffffffffffffffffff163373ffffffffffffffffffffffffffffffffffffffff1614151561058b57600080fd5b6000809054906101000a900473ffffffffffffffffffffffffffffffffffffffff1673ffffffffffffffffffffffffffffffffffffffff167ff8df31144d9c2f0f6b59d69b8b98abd5459d07f2742c4df920b25aae33c6482060405160405180910390a260008060006101000a81548173ffffffffffffffffffffffffffffffffffffffff021916908373ffffffffffffffffffffffffffffffffffffffff160217905550565b600061063c610524565b1561065957600161064b610736565b60015443010303905061066d565b6001610663610736565b6001544301030390505b90565b6000809054906101000a900473ffffffffffffffffffffffffffffffffffffffff1681565b60008060009054906101000a900473ffffffffffffffffffffffffffffffffffffffff1673ffffffffffffffffffffffffffffffffffffffff163373ffffffffffffffffffffffffffffffffffffffff161415156106f257600080fd5b6106fa6103d3565b90504360048190555080600581905550600260008154809291906001019190505550600154600381905550816001819055505050565b60035481565b60006107406104f1565b4303905090565b6000809054906101000a900473ffffffffffffffffffffffffffffffffffffffff1673ffffffffffffffffffffffffffffffffffffffff163373ffffffffffffffffffffffffffffffffffffffff161415156107a257600080fd5b6107ab816107b4565b50565b60055481565b600073ffffffffffffffffffffffffffffffffffffffff168173ffffffffffffffffffffffffffffffffffffffff16141515156107f057600080fd5b8073ffffffffffffffffffffffffffffffffffffffff166000809054906101000a900473ffffffffffffffffffffffffffffffffffffffff1673ffffffffffffffffffffffffffffffffffffffff167f8be0079c531659141344cd1fd0a4f28419497f9722a3daafe3b4186f6b6457e060405160405180910390a3806000806101000a81548173ffffffffffffffffffffffffffffffffffffffff021916908373ffffffffffffffffffffffffffffffffffffffff160217905550505600a165627a7a7230582081dcd9d188a97817239664a90b21fe02f06d00b33a18a15699bf1f74652ebaab0029",
  "source": "pragma solidity 0.4.24;\n\nimport \"openzeppelin-solidity/contracts/math/SafeMath.sol\";\nimport \"openzeppelin-solidity/contracts/ownership/Ownable.sol\";\nimport \"./Stack.sol\";\nimport \"./Period.sol\";\n\n/**\n*  A periodic contract. Enables any contract to change state on a periodic basis\n**/\n\ncontract PeriodicStages is Ownable {\n    using SafeMath for uint256;\n\n    // Set of stages inside a Period\n    Period public period;\n    Stack public stack;\n\n    /**\n    * Constructor. Sets up a new period, initializes the offset.\n    * @param _T Initial number of blocks for the period\n    **/\n\n    constructor(uint256 _T) public {\n        stack = new Stack(_T);\n        period = new Period (_T);\n    }\n\n    function setPeriodLength(uint256 _T) public {\n        require(msg.sender == owner);\n        stack.empty();\n        period.setPeriodLength(_T);\n    }\n\n    function pushStage(uint256 _duration) public {\n        require(msg.sender == owner);\n        stack.push(_duration);\n    }\n\n    /**\n    * Getter for the current Stage inside a period where we are, given the current block\n    * @return Current stage inside a period, using the internal Index of the given period\n    */\n    \n    function currentStage() public view returns (uint256) {\n        uint256 internalBlock = period.getRelativeIndex();\n        uint256 size = stack.height();\n        if(size == 0) {\n            return 0;\n        }\n        for (uint i = 0 ; i < size; i++) {\n            if (stack.positionIsOnSlot(i, internalBlock)) {\n                return i;\n            } \n        }\n    }\n\n}\n",
  "sourcePath": "/Users/carlosbuendia/Documents/Projects/consensys/Frontier/cron/contracts/PeriodicStages.sol",
  "compiler": {
    "name": "solc",
    "version": "0.4.24+commit.e67f0147.Emscripten.clang"
  },
  "schemaVersion": "2.0.0",
  "updatedAt": "2018-08-30T14:56:43.249Z"
}