{
  "contractName": "Period",
  "abi": [
    {
      "constant": true,
      "inputs": [],
      "name": "T",
      "outputs": [
        {
          "name": "",
          "type": "uint256"
        }
      ],
      "payable": false,
      "stateMutability": "view",
      "type": "function"
    },
    {
      "constant": true,
      "inputs": [],
      "name": "initOffset",
      "outputs": [
        {
          "name": "",
          "type": "uint256"
        }
      ],
      "payable": false,
      "stateMutability": "view",
      "type": "function"
    },
    {
      "inputs": [
        {
          "name": "_T",
          "type": "uint256"
        }
      ],
      "payable": false,
      "stateMutability": "nonpayable",
      "type": "constructor"
    },
    {
      "constant": true,
      "inputs": [],
      "name": "getPeriodNumber",
      "outputs": [
        {
          "name": "",
          "type": "uint256"
        }
      ],
      "payable": false,
      "stateMutability": "view",
      "type": "function"
    },
    {
      "constant": true,
      "inputs": [],
      "name": "getOffset",
      "outputs": [
        {
          "name": "",
          "type": "uint256"
        }
      ],
      "payable": false,
      "stateMutability": "view",
      "type": "function"
    },
    {
      "constant": true,
      "inputs": [],
      "name": "getRelativeIndex",
      "outputs": [
        {
          "name": "",
          "type": "uint256"
        }
      ],
      "payable": false,
      "stateMutability": "view",
      "type": "function"
    }
  ],
  "bytecode": "0x608060405234801561001057600080fd5b5060405160208061029a833981018060405281019080805190602001909291905050506000811115156100ab576040517f08c379a000000000000000000000000000000000000000000000000000000000815260040180806020018281038252600c8152602001807f454d5054595f504552494f44000000000000000000000000000000000000000081525060200191505060405180910390fd5b8060008190555043600181905550506101d1806100c96000396000f30060806040526004361061006d576000357c0100000000000000000000000000000000000000000000000000000000900463ffffffff1680632bc80f3a146100725780637f89b5ce1461009d5780637fc15a2e146100c8578063dd6239fc146100f3578063eb6ad24e1461011e575b600080fd5b34801561007e57600080fd5b50610087610149565b6040518082815260200191505060405180910390f35b3480156100a957600080fd5b506100b261014f565b6040518082815260200191505060405180910390f35b3480156100d457600080fd5b506100dd610155565b6040518082815260200191505060405180910390f35b3480156100ff57600080fd5b5061010861017e565b6040518082815260200191505060405180910390f35b34801561012a57600080fd5b5061013361018f565b6040518082815260200191505060405180910390f35b60005481565b60015481565b60008060015443031015151561016757fe5b600054600154430381151561017857fe5b04905090565b600061018861018f565b4303905090565b6000805461019b610155565b02600154019050905600a165627a7a72305820a0a114358d11151c2f5144479fd87806b0519eaea74de77545618e9017ea66ff0029",
  "source": "pragma solidity 0.4.24;\n\nimport \"openzeppelin-solidity/contracts/math/SafeMath.sol\";\n\n\n/**\n*  A periodic contract. Enables any contract to change state on a periodic basis\n*  Basically, it includes three different concepts: \n*  The period: An integer value that will \n*  The offset: Initial Vector that moves the period. Basically the first block of the current period\n**/\n\n\ncontract Period { \n    // Period Number set\n    uint256 public T;\n    // Initial Block where the period is started\n    uint256 public initOffset;\n\n    /*\n    * Constructor\n    * Creates a new Period object \n    * @param _T Number of blocks of a Period\n    */\n    constructor(uint256 _T) public {\n        require(_T > 0, 'EMPTY_PERIOD');\n        T = _T;\n        initOffset = block.number;\n    }\n    /**\n    * Getter for the current period number\n    * @return current period number\n    */\n    function getPeriodNumber() public view returns (uint256) {\n        assert ((block.number - initOffset) >= 0);\n        return (block.number - initOffset) / T;\n    }\n\n    /**\n    * @return initial block, vector that defines the beginning of this period\n    */\n    function getOffset() public view returns (uint256){\n        return initOffset + getPeriodNumber() * T;\n    }\n    /*\n    * @return Index inside the current period. \n    */\n    function getRelativeIndex() public view returns (uint256){ \n        return block.number- getOffset();\n    }\n\n}\n",
  "sourcePath": "@frontier-token-research/cron/contracts/Period.sol",
  "compiler": {
    "name": "solc",
    "version": "0.4.24+commit.e67f0147.Emscripten.clang"
  },
  "schemaVersion": "2.0.0",
  "updatedAt": "2018-07-04T10:15:03.007Z"
}