{
  "contractName": "PeriodicStages",
  "abi": [
    {
      "constant": true,
      "inputs": [],
      "name": "stageStack",
      "outputs": [
        {
          "name": "",
          "type": "address"
        }
      ],
      "payable": false,
      "stateMutability": "view",
      "type": "function"
    },
    {
      "constant": true,
      "inputs": [],
      "name": "period",
      "outputs": [
        {
          "name": "",
          "type": "address"
        }
      ],
      "payable": false,
      "stateMutability": "view",
      "type": "function"
    },
    {
      "inputs": [
        {
          "name": "_T",
          "type": "uint256"
        }
      ],
      "payable": false,
      "stateMutability": "nonpayable",
      "type": "constructor"
    },
    {
      "constant": false,
      "inputs": [],
      "name": "currentStage",
      "outputs": [
        {
          "name": "",
          "type": "uint256"
        }
      ],
      "payable": false,
      "stateMutability": "nonpayable",
      "type": "function"
    }
  ],
  "bytecode": "0x608060405234801561001057600080fd5b50604051602080610b25833981018060405281019080805190602001909291905050508061003c610118565b80828152602001915050604051809103906000f080158015610062573d6000803e3d6000fd5b50600160006101000a81548173ffffffffffffffffffffffffffffffffffffffff021916908373ffffffffffffffffffffffffffffffffffffffff160217905550806100ac610128565b80828152602001915050604051809103906000f0801580156100d2573d6000803e3d6000fd5b506000806101000a81548173ffffffffffffffffffffffffffffffffffffffff021916908373ffffffffffffffffffffffffffffffffffffffff16021790555050610138565b6040516103e98061058483390190565b6040516101b88061096d83390190565b61043d806101476000396000f300608060405260043610610057576000357c0100000000000000000000000000000000000000000000000000000000900463ffffffff1680635bf5d54c1461005c5780637d80c95a14610087578063ef78d4fd146100de575b600080fd5b34801561006857600080fd5b50610071610135565b6040518082815260200191505060405180910390f35b34801561009357600080fd5b5061009c6103c6565b604051808273ffffffffffffffffffffffffffffffffffffffff1673ffffffffffffffffffffffffffffffffffffffff16815260200191505060405180910390f35b3480156100ea57600080fd5b506100f36103ec565b604051808273ffffffffffffffffffffffffffffffffffffffff1673ffffffffffffffffffffffffffffffffffffffff16815260200191505060405180910390f35b6000806000806000809054906101000a900473ffffffffffffffffffffffffffffffffffffffff1673ffffffffffffffffffffffffffffffffffffffff1663a4c42ed26040518163ffffffff167c0100000000000000000000000000000000000000000000000000000000028152600401602060405180830381600087803b1580156101c057600080fd5b505af11580156101d4573d6000803e3d6000fd5b505050506040513d60208110156101ea57600080fd5b81019080805190602001909291905050509250600160009054906101000a900473ffffffffffffffffffffffffffffffffffffffff1673ffffffffffffffffffffffffffffffffffffffff1663628a0cf86040518163ffffffff167c0100000000000000000000000000000000000000000000000000000000028152600401602060405180830381600087803b15801561028357600080fd5b505af1158015610297573d6000803e3d6000fd5b505050506040513d60208110156102ad57600080fd5b81019080805190602001909291905050509150600090505b818110156103bb57600160009054906101000a900473ffffffffffffffffffffffffffffffffffffffff1673ffffffffffffffffffffffffffffffffffffffff1663e5c2debc82856040518363ffffffff167c01000000000000000000000000000000000000000000000000000000000281526004018083815260200182815260200192505050602060405180830381600087803b15801561036657600080fd5b505af115801561037a573d6000803e3d6000fd5b505050506040513d602081101561039057600080fd5b8101908080519060200190929190505050156103ae578093506103c0565b80806001019150506102c5565b600080fd5b50505090565b600160009054906101000a900473ffffffffffffffffffffffffffffffffffffffff1681565b6000809054906101000a900473ffffffffffffffffffffffffffffffffffffffff16815600a165627a7a72305820bc022e298257552f4b2658e10daa36041db70375faee164c972f67de28ecab150029608060405234801561001057600080fd5b506040516020806103e983398101806040528101908080519060200190929190505050806002819055505061039f8061004a6000396000f30060806040526004361061008e576000357c0100000000000000000000000000000000000000000000000000000000900463ffffffff1680632f91f1f4146100935780634a720f27146100be5780635439e423146100ff578063628a0cf81461012a578063959ac48414610155578063a4ece52c14610182578063e5c2debc14610199578063f2a75fe4146101e8575b600080fd5b34801561009f57600080fd5b506100a86101ff565b6040518082815260200191505060405180910390f35b3480156100ca57600080fd5b506100e960048036038101908080359060200190929190505050610205565b6040518082815260200191505060405180910390f35b34801561010b57600080fd5b50610114610228565b6040518082815260200191505060405180910390f35b34801561013657600080fd5b5061013f61022e565b6040518082815260200191505060405180910390f35b34801561016157600080fd5b506101806004803603810190808035906020019092919050505061023a565b005b34801561018e57600080fd5b506101976102a2565b005b3480156101a557600080fd5b506101ce60048036038101908080359060200190929190803590602001909291905050506102e9565b604051808215151515815260200191505060405180910390f35b3480156101f457600080fd5b506101fd610337565b005b60025481565b60008181548110151561021457fe5b906000526020600020016000915090505481565b60015481565b60008080549050905090565b60025481600154011115151561024f57600080fd5b600081600154019080600181540180825580915050906001820390600052602060002001600090919290919091505550806001600082825401925050819055506002546001541115151561029f57fe5b50565b600080805490508154811015156102b557fe5b9060005260206000200160009055600080805490508154811015156102d657fe5b9060005260206000200154600181905550565b600080600184038154811015156102fc57fe5b9060005260206000200154821015801561032f575060008381548110151561032057fe5b90600052602060002001548211155b905092915050565b60008090505b60008054905081111515610360576103536102a2565b808060010191505061033d565b6000808054905014151561037057fe5b505600a165627a7a723058200ba709e9b94dcaf74ab206caf29bee8b98b69af4c51c4e82f738689ad36523190029608060405234801561001057600080fd5b506040516020806101b88339810180604052810190808051906020019092919050505060008111151561004257600080fd5b806000819055504360018190555050610158806100606000396000f300608060405260043610610057576000357c0100000000000000000000000000000000000000000000000000000000900463ffffffff1680637fc15a2e1461005c578063a4c42ed214610087578063eb6ad24e146100b2575b600080fd5b34801561006857600080fd5b506100716100dd565b6040518082815260200191505060405180910390f35b34801561009357600080fd5b5061009c610105565b6040518082815260200191505060405180910390f35b3480156100be57600080fd5b506100c7610116565b6040518082815260200191505060405180910390f35b60008060015443031115156100ee57fe5b60005460015443038115156100ff57fe5b04905090565b600061010f610116565b4303905090565b600080546101226100dd565b02600154019050905600a165627a7a72305820ef9bb75cf6674fbf955196fa7a13590118ea569bb83bc336cb71604b3f3205270029",
  "source": "pragma solidity 0.4.24;\n\nimport \"openzeppelin-solidity/contracts/math/SafeMath.sol\";\nimport \"./Stack.sol\";\nimport \"./Period.sol\";\n\n\n\n\n/**\n*  A periodic contract. Enables any contract to change state on a periodic basis\n**/\n\ncontract PeriodicStages {\n    using SafeMath for uint256;\n\n    // Set of stages inside a Period\n    Period public period;\n    Stack public stageStack;\n\n    /**\n    * Constructor. Sets up a new period, initializes the offset.\n    * @param _T Initial number of blocks for the period\n    **/\n\n    constructor(uint256 _T) public {\n        stageStack = new Stack(_T);\n        period = new Period (_T);\n    }\n    \n    function currentStage() public returns (uint256){\n        uint256 internalBlock = period.getRelativeBlock();\n        uint256 size = stageStack.slotSize();\n        for (uint i = 0 ; i < size; i++){\n            if (stageStack.onSlot(i, internalBlock)){\n                return i;\n            } \n        }\n        revert();\n    }\n\n}\n",
  "sourcePath": "/Users/carlosbuendia/Documents/Projects/consensys/Frontier/cron/contracts/PeriodicStages.sol",
  "compiler": {
    "name": "solc",
    "version": "0.4.24+commit.e67f0147.Emscripten.clang"
  },
  "schemaVersion": "2.0.0",
  "updatedAt": "2018-06-08T08:43:59.740Z"
}