{
  "contractName": "Period",
  "abi": [
    {
      "constant": true,
      "inputs": [],
      "name": "age",
      "outputs": [
        {
          "name": "",
          "type": "uint256"
        }
      ],
      "payable": false,
      "stateMutability": "view",
      "type": "function"
    },
    {
      "constant": true,
      "inputs": [],
      "name": "T",
      "outputs": [
        {
          "name": "",
          "type": "uint256"
        }
      ],
      "payable": false,
      "stateMutability": "view",
      "type": "function"
    },
    {
      "constant": true,
      "inputs": [],
      "name": "blockOffset",
      "outputs": [
        {
          "name": "",
          "type": "uint256"
        }
      ],
      "payable": false,
      "stateMutability": "view",
      "type": "function"
    },
    {
      "constant": false,
      "inputs": [],
      "name": "renounceOwnership",
      "outputs": [],
      "payable": false,
      "stateMutability": "nonpayable",
      "type": "function"
    },
    {
      "constant": true,
      "inputs": [],
      "name": "owner",
      "outputs": [
        {
          "name": "",
          "type": "address"
        }
      ],
      "payable": false,
      "stateMutability": "view",
      "type": "function"
    },
    {
      "constant": true,
      "inputs": [],
      "name": "isOwner",
      "outputs": [
        {
          "name": "",
          "type": "bool"
        }
      ],
      "payable": false,
      "stateMutability": "view",
      "type": "function"
    },
    {
      "constant": true,
      "inputs": [],
      "name": "previousLength",
      "outputs": [
        {
          "name": "",
          "type": "uint256"
        }
      ],
      "payable": false,
      "stateMutability": "view",
      "type": "function"
    },
    {
      "constant": false,
      "inputs": [
        {
          "name": "newOwner",
          "type": "address"
        }
      ],
      "name": "transferOwnership",
      "outputs": [],
      "payable": false,
      "stateMutability": "nonpayable",
      "type": "function"
    },
    {
      "constant": true,
      "inputs": [],
      "name": "epochOffset",
      "outputs": [
        {
          "name": "",
          "type": "uint256"
        }
      ],
      "payable": false,
      "stateMutability": "view",
      "type": "function"
    },
    {
      "inputs": [
        {
          "name": "_T",
          "type": "uint256"
        }
      ],
      "payable": false,
      "stateMutability": "nonpayable",
      "type": "constructor"
    },
    {
      "anonymous": false,
      "inputs": [
        {
          "indexed": true,
          "name": "previousOwner",
          "type": "address"
        },
        {
          "indexed": true,
          "name": "newOwner",
          "type": "address"
        }
      ],
      "name": "OwnershipTransferred",
      "type": "event"
    },
    {
      "constant": false,
      "inputs": [
        {
          "name": "_T",
          "type": "uint256"
        }
      ],
      "name": "setPeriodLength",
      "outputs": [],
      "payable": false,
      "stateMutability": "nonpayable",
      "type": "function"
    },
    {
      "constant": false,
      "inputs": [
        {
          "name": "_T",
          "type": "uint256"
        }
      ],
      "name": "hardAgeTransition",
      "outputs": [],
      "payable": false,
      "stateMutability": "nonpayable",
      "type": "function"
    },
    {
      "constant": true,
      "inputs": [],
      "name": "getPeriodNumber",
      "outputs": [
        {
          "name": "",
          "type": "uint256"
        }
      ],
      "payable": false,
      "stateMutability": "view",
      "type": "function"
    },
    {
      "constant": true,
      "inputs": [],
      "name": "getLength",
      "outputs": [
        {
          "name": "",
          "type": "uint256"
        }
      ],
      "payable": false,
      "stateMutability": "view",
      "type": "function"
    },
    {
      "constant": true,
      "inputs": [],
      "name": "height",
      "outputs": [
        {
          "name": "",
          "type": "uint256"
        }
      ],
      "payable": false,
      "stateMutability": "view",
      "type": "function"
    },
    {
      "constant": true,
      "inputs": [],
      "name": "ageHeight",
      "outputs": [
        {
          "name": "",
          "type": "uint256"
        }
      ],
      "payable": false,
      "stateMutability": "view",
      "type": "function"
    },
    {
      "constant": true,
      "inputs": [],
      "name": "getFirstEpochBlock",
      "outputs": [
        {
          "name": "",
          "type": "uint256"
        }
      ],
      "payable": false,
      "stateMutability": "view",
      "type": "function"
    },
    {
      "constant": true,
      "inputs": [],
      "name": "getLastEpochBlock",
      "outputs": [
        {
          "name": "",
          "type": "uint256"
        }
      ],
      "payable": false,
      "stateMutability": "view",
      "type": "function"
    },
    {
      "constant": true,
      "inputs": [],
      "name": "getRelativeIndex",
      "outputs": [
        {
          "name": "",
          "type": "uint256"
        }
      ],
      "payable": false,
      "stateMutability": "view",
      "type": "function"
    },
    {
      "constant": true,
      "inputs": [],
      "name": "isAgeTransition",
      "outputs": [
        {
          "name": "",
          "type": "bool"
        }
      ],
      "payable": false,
      "stateMutability": "view",
      "type": "function"
    }
  ],
  "bytecode": "0x608060405234801561001057600080fd5b50604051602080610abe83398101806040528101908080519060200190929190505050336000806101000a81548173ffffffffffffffffffffffffffffffffffffffff021916908373ffffffffffffffffffffffffffffffffffffffff1602179055506000809054906101000a900473ffffffffffffffffffffffffffffffffffffffff1673ffffffffffffffffffffffffffffffffffffffff16600073ffffffffffffffffffffffffffffffffffffffff167f8be0079c531659141344cd1fd0a4f28419497f9722a3daafe3b4186f6b6457e060405160405180910390a3600081111515610167576040517f08c379a000000000000000000000000000000000000000000000000000000000815260040180806020018281038252600c8152602001807f454d5054595f504552494f44000000000000000000000000000000000000000081525060200191505060405180910390fd5b436004819055508060018190555050610939806101856000396000f300608060405260043610610107576000357c0100000000000000000000000000000000000000000000000000000000900463ffffffff1680630ef267431461010c5780631c5633d714610137578063262a9dff146101645780632bc80f3a1461018f57806346bf6a55146101ba5780634c1ce7b4146101e55780634d3a67751461021057806355569a2f1461023b578063715018a61461026a578063731b3a03146102815780637fc15a2e146102ac5780638da5cb5b146102d75780638f32d59b1461032e578063a091fd6b1461035d578063b9f7fb291461038a578063be1c766b146103b5578063dd6239fc146103e0578063f2fde38b1461040b578063f866dd821461044e575b600080fd5b34801561011857600080fd5b50610121610479565b6040518082815260200191505060405180910390f35b34801561014357600080fd5b50610162600480360381019080803590602001909291905050506104b2565b005b34801561017057600080fd5b5061017961053d565b6040518082815260200191505060405180910390f35b34801561019b57600080fd5b506101a4610543565b6040518082815260200191505060405180910390f35b3480156101c657600080fd5b506101cf610549565b6040518082815260200191505060405180910390f35b3480156101f157600080fd5b506101fa61054f565b6040518082815260200191505060405180910390f35b34801561021c57600080fd5b50610225610580565b6040518082815260200191505060405180910390f35b34801561024757600080fd5b506102506105b3565b604051808215151515815260200191505060405180910390f35b34801561027657600080fd5b5061027f6105bf565b005b34801561028d57600080fd5b50610296610691565b6040518082815260200191505060405180910390f35b3480156102b857600080fd5b506102c16106ae565b6040518082815260200191505060405180910390f35b3480156102e357600080fd5b506102ec6106bd565b604051808273ffffffffffffffffffffffffffffffffffffffff1673ffffffffffffffffffffffffffffffffffffffff16815260200191505060405180910390f35b34801561033a57600080fd5b506103436106e6565b604051808215151515815260200191505060405180910390f35b34801561036957600080fd5b506103886004803603810190808035906020019092919050505061073d565b005b34801561039657600080fd5b5061039f6107b8565b6040518082815260200191505060405180910390f35b3480156103c157600080fd5b506103ca6107be565b6040518082815260200191505060405180910390f35b3480156103ec57600080fd5b506103f56107dd565b6040518082815260200191505060405180910390f35b34801561041757600080fd5b5061044c600480360381019080803573ffffffffffffffffffffffffffffffffffffffff1690602001909291905050506107ee565b005b34801561045a57600080fd5b5061046361080d565b6040518082815260200191505060405180910390f35b60006104836105b3565b156104925760055490506104af565b60025460055460015460045443038115156104a957fe5b04010190505b90565b60006104bc6106bd565b73ffffffffffffffffffffffffffffffffffffffff163373ffffffffffffffffffffffffffffffffffffffff161415156104f557600080fd5b6104fd610479565b90506001610509610691565b0160048190555080600581905550600260008154809291906001019190505550600154600381905550816001819055505050565b60025481565b60015481565b60045481565b60006105596105b3565b1561056857600554905061057d565b600154600454430381151561057957fe5b0490505b90565b600061058a6105b3565b1561059d576003546004540390506105b0565b6001546105a861054f565b026004540190505b90565b60004360045411905090565b6105c76106e6565b15156105d257600080fd5b600073ffffffffffffffffffffffffffffffffffffffff166000809054906101000a900473ffffffffffffffffffffffffffffffffffffffff1673ffffffffffffffffffffffffffffffffffffffff167f8be0079c531659141344cd1fd0a4f28419497f9722a3daafe3b4186f6b6457e060405160405180910390a360008060006101000a81548173ffffffffffffffffffffffffffffffffffffffff021916908373ffffffffffffffffffffffffffffffffffffffff160217905550565b6000600161069d6107dd565b6106a56107be565b43010303905090565b60006106b8610479565b905090565b60008060009054906101000a900473ffffffffffffffffffffffffffffffffffffffff16905090565b60008060009054906101000a900473ffffffffffffffffffffffffffffffffffffffff1673ffffffffffffffffffffffffffffffffffffffff163373ffffffffffffffffffffffffffffffffffffffff1614905090565b6107456106bd565b73ffffffffffffffffffffffffffffffffffffffff163373ffffffffffffffffffffffffffffffffffffffff1614151561077e57600080fd5b610786610479565b600581905550436004819055506002600081548092919060010191905055506001546003819055508060018190555050565b60035481565b60004360045411156107d45760035490506107da565b60015490505b90565b60006107e7610580565b4303905090565b6107f66106e6565b151561080157600080fd5b61080a81610813565b50565b60055481565b600073ffffffffffffffffffffffffffffffffffffffff168173ffffffffffffffffffffffffffffffffffffffff161415151561084f57600080fd5b8073ffffffffffffffffffffffffffffffffffffffff166000809054906101000a900473ffffffffffffffffffffffffffffffffffffffff1673ffffffffffffffffffffffffffffffffffffffff167f8be0079c531659141344cd1fd0a4f28419497f9722a3daafe3b4186f6b6457e060405160405180910390a3806000806101000a81548173ffffffffffffffffffffffffffffffffffffffff021916908373ffffffffffffffffffffffffffffffffffffffff160217905550505600a165627a7a72305820372d40861bbf64feed035719e796768ea154b03fcfa75ac66ea3cb8c0e71a7380029",
  "source": "pragma solidity 0.4.24;\n\nimport \"openzeppelin-solidity/contracts/math/SafeMath.sol\";\nimport \"openzeppelin-solidity/contracts/ownership/Ownable.sol\";\n\n\n\n/**\n*  A periodic contract. Enables any contract to change state on a periodic basis.\n*  Before going into code, it might be helpful to familiarize with the naming convention:\n*  T ≡ Period Length --> Number of blocks to complete a cycle\n*  Epoch: Counter of the number of cycles that went by since a given block (blockOffset)\n*  Height == current epoch\n*  Age: Time where Period Length has remained stable\n*  BlockOffset --> First block inside an age \n*  Epoch offset --> Starting value of height()\n\n\nHeight\n       9.00 ┼                              ╭\n       8.00 ┤                           ╭──╯\n       7.00 ┤                        ╭──╯\n       6.00 ┤                     ╭──╯\n       5.00 ┤                  ╭──╯\n       4.00 ┤               ╭──╯\n       3.00 ┤            ╭──╯\n       2.00 ┤         ╭──╯   \n       1.00 ┤    ╭────╯ ^     \n       0.00 ┼────╯──────|───────────────────────                        \n                                            Block      \n               ^       T=3\n               |         \n             \n             T = 6\n            \n             <-------><----------------------->\n               Age 1            Age 2\n\nThe contract was designed in order to be deterministic, so no need of state changes are required. Thus, most of the parameters are calculated via functions. \n\nThe exception comes when the owner (EOA, or Contract/DAO) decides to modify the period length. This is considered a breaking change in the behaviour, and the result is the transition to a new age.\n\n**/\n\n\ncontract Period is Ownable {    \n\n    // Current period length\n    uint256 public T;\n\n    // Number of changes that have been made to the period length\n    uint256 public age;\n\n    // Previous epoch's length, required for transitions between ages\n    uint256 public previousLength;\n\n    // Initial Block where an age has started\n    uint256 public blockOffset;\n    \n    // Initial epoch offset\n    uint256 public epochOffset;\n\n    /*\n    * Constructor\n    * Creates a new Period object \n    * @param _T Number of blocks of a Period\n    */\n    \n    constructor(uint256 _T) public {\n        require(_T > 0, 'EMPTY_PERIOD');\n        blockOffset = block.number;\n        T = _T;\n    }\n\n    /**\n    * @dev Modifies the period length. \n    * It was created with those use cases where a Smart Contract needs to modify the period length, keeping the same epoch numeration (height)\n    * After this parameter is set, the flag isAgeTransition will turn to true()\n    * After the current epoch ends (with previous length set) ends, it will start a new age.\n    * To do that, it is modified the epoch offset, in order to allow future calculation of blocks\n    * Also, it is calculated the new block offset, from the point where period will be applied. \n    * @param _T The period lentgh to be applied to the new age\n    */\n\n    function setPeriodLength(uint256 _T) public {\n        require(msg.sender == owner());\n        uint256 tmpHeight = height();\n        blockOffset = getLastEpochBlock() + 1;\n        epochOffset = tmpHeight;\n        age ++;\n        previousLength = T;\n        T = _T;\n    }\n\n    \n    /**\n    * @dev Forces a transition to a new Age without waiting for the transition time\n    @ param _T The period lentgh to be applied to the new age\n    */\n\n    function hardAgeTransition(uint256 _T) public {\n        require(msg.sender == owner());\n        epochOffset = height();\n        blockOffset = block.number;\n        age ++;\n        previousLength = T;\n        T = _T;\n    }\n\n\n    /**\n     * @dev Deprecated getter of the height number, now just pointing to height()\n     */\n\n    function getPeriodNumber() public view returns (uint256) {\n        return height();\n    }\n\n    /**\n     * @dev Deprecated getter of the height number, now just pointing to height()\n     */\n\n    function getLength() public view returns (uint256) {\n        if (blockOffset > block.number) { // Period has been scheduled or modified. \n            return previousLength;\n        }\n        else { // Normal behaviour\n            return T;\n        }\n    }\n\n    /**\n    * @dev Getter for the total height included in this periodic contract, including age transitions\n    * @return current height\n    */\n\n    function height() public view returns (uint256) {\n        if (isAgeTransition()) { // Period has been scheduled or modified. \n            return epochOffset;\n        }\n        else { // Normal behaviour\n            return (block.number - blockOffset) / T + epochOffset + age;\n        }\n    }\n\n    /**\n    * @dev Returns the height inside the current age\n    * @return height (number of epochs) inside the current age\n    */\n\n    function ageHeight() public view returns (uint256) {\n        if (isAgeTransition()) { // Period has been scheduled or modified. \n            return epochOffset;\n        }\n        else { // Normal behaviour\n            return (block.number - blockOffset) / T;\n        }\n    }\n\n    /**\n    * @dev Calculates and returns the first block of the current epoch\n    * @return First block of the current epoch\n    */\n\n    function getFirstEpochBlock() public view returns (uint256) {\n        if (isAgeTransition()) {\n            return blockOffset - previousLength;\n        }\n        else { \n            return blockOffset + ageHeight() * T;\n        }\n    }\n\n    /**\n    * @dev Returns the last block in the current epoch\n    * @return Last block of the current epoch\n    */\n\n    function getLastEpochBlock() public view returns (uint256){\n        return block.number + getLength() - getRelativeIndex() - 1;\n    }\n\n    /*\n    * @return Index inside the current epoch. \n    */\n\n    function getRelativeIndex() public view returns (uint256) {\n        return block.number - getFirstEpochBlock();\n    }\n    \n    /**\n    * @dev Condition to check if an age transition is in progress\n    */\n\n    function isAgeTransition() public view returns (bool){\n        return blockOffset > block.number;\n    }\n}",
  "sourcePath": "@frontier-token-research/cron/contracts/Period.sol",
  "compiler": {
    "name": "solc",
    "version": "0.4.24+commit.e67f0147.Emscripten.clang"
  },
  "schemaVersion": "2.0.0",
  "updatedAt": "2018-11-27T12:35:35.759Z"
}