{
  "contractName": "PeriodicStages",
  "abi": [
    {
      "constant": true,
      "inputs": [],
      "name": "stageStack",
      "outputs": [
        {
          "name": "",
          "type": "address"
        }
      ],
      "payable": false,
      "stateMutability": "view",
      "type": "function"
    },
    {
      "constant": true,
      "inputs": [],
      "name": "period",
      "outputs": [
        {
          "name": "",
          "type": "address"
        }
      ],
      "payable": false,
      "stateMutability": "view",
      "type": "function"
    },
    {
      "inputs": [
        {
          "name": "_T",
          "type": "uint256"
        }
      ],
      "payable": false,
      "stateMutability": "nonpayable",
      "type": "constructor"
    },
    {
      "constant": false,
      "inputs": [
        {
          "name": "_duration",
          "type": "uint256"
        }
      ],
      "name": "pushStage",
      "outputs": [],
      "payable": false,
      "stateMutability": "nonpayable",
      "type": "function"
    },
    {
      "constant": true,
      "inputs": [],
      "name": "currentStage",
      "outputs": [
        {
          "name": "",
          "type": "uint256"
        }
      ],
      "payable": false,
      "stateMutability": "view",
      "type": "function"
    }
  ],
  "bytecode": "0x608060405234801561001057600080fd5b50604051602080610ecd833981018060405281019080805190602001909291905050508061003c610118565b80828152602001915050604051809103906000f080158015610062573d6000803e3d6000fd5b50600160006101000a81548173ffffffffffffffffffffffffffffffffffffffff021916908373ffffffffffffffffffffffffffffffffffffffff160217905550806100ac610128565b80828152602001915050604051809103906000f0801580156100d2573d6000803e3d6000fd5b506000806101000a81548173ffffffffffffffffffffffffffffffffffffffff021916908373ffffffffffffffffffffffffffffffffffffffff16021790555050610138565b6040516105bd8061067683390190565b60405161029a80610c3383390190565b61052f806101476000396000f300608060405260043610610062576000357c0100000000000000000000000000000000000000000000000000000000900463ffffffff1680635bf5d54c146100675780637d80c95a14610092578063842652a6146100e9578063ef78d4fd14610116575b600080fd5b34801561007357600080fd5b5061007c61016d565b6040518082815260200191505060405180910390f35b34801561009e57600080fd5b506100a761040c565b604051808273ffffffffffffffffffffffffffffffffffffffff1673ffffffffffffffffffffffffffffffffffffffff16815260200191505060405180910390f35b3480156100f557600080fd5b5061011460048036038101908080359060200190929190505050610432565b005b34801561012257600080fd5b5061012b6104de565b604051808273ffffffffffffffffffffffffffffffffffffffff1673ffffffffffffffffffffffffffffffffffffffff16815260200191505060405180910390f35b6000806000806000809054906101000a900473ffffffffffffffffffffffffffffffffffffffff1673ffffffffffffffffffffffffffffffffffffffff1663dd6239fc6040518163ffffffff167c0100000000000000000000000000000000000000000000000000000000028152600401602060405180830381600087803b1580156101f857600080fd5b505af115801561020c573d6000803e3d6000fd5b505050506040513d602081101561022257600080fd5b81019080805190602001909291905050509250600160009054906101000a900473ffffffffffffffffffffffffffffffffffffffff1673ffffffffffffffffffffffffffffffffffffffff16630ef267436040518163ffffffff167c0100000000000000000000000000000000000000000000000000000000028152600401602060405180830381600087803b1580156102bb57600080fd5b505af11580156102cf573d6000803e3d6000fd5b505050506040513d60208110156102e557600080fd5b81019080805190602001909291905050509150600082141561030a5760009350610406565b600090505b8181101561040557600160009054906101000a900473ffffffffffffffffffffffffffffffffffffffff1673ffffffffffffffffffffffffffffffffffffffff16636f54dce582856040518363ffffffff167c01000000000000000000000000000000000000000000000000000000000281526004018083815260200182815260200192505050602060405180830381600087803b1580156103b057600080fd5b505af11580156103c4573d6000803e3d6000fd5b505050506040513d60208110156103da57600080fd5b8101908080519060200190929190505050156103f857809350610406565b808060010191505061030f565b5b50505090565b600160009054906101000a900473ffffffffffffffffffffffffffffffffffffffff1681565b600160009054906101000a900473ffffffffffffffffffffffffffffffffffffffff1673ffffffffffffffffffffffffffffffffffffffff1663959ac484826040518263ffffffff167c010000000000000000000000000000000000000000000000000000000002815260040180828152602001915050600060405180830381600087803b1580156104c357600080fd5b505af11580156104d7573d6000803e3d6000fd5b5050505050565b6000809054906101000a900473ffffffffffffffffffffffffffffffffffffffff16815600a165627a7a72305820f2bc78b7822098a2189435d25ed96fbe2a69dc70c98bece5a916d11cab15974b0029608060405234801561001057600080fd5b506040516020806105bd8339810180604052810190808051906020019092919050505080600381905550506105738061004a6000396000f300608060405260043610610099576000357c0100000000000000000000000000000000000000000000000000000000900463ffffffff1680630ef267431461009e5780632f91f1f4146100c95780634a720f27146100f45780635439e423146101355780636f54dce514610160578063959ac484146101af578063a4ece52c146101dc578063b1becf2a146101f3578063f2a75fe414610234575b600080fd5b3480156100aa57600080fd5b506100b361024b565b6040518082815260200191505060405180910390f35b3480156100d557600080fd5b506100de610255565b6040518082815260200191505060405180910390f35b34801561010057600080fd5b5061011f6004803603810190808035906020019092919050505061025b565b6040518082815260200191505060405180910390f35b34801561014157600080fd5b5061014a61027e565b6040518082815260200191505060405180910390f35b34801561016c57600080fd5b506101956004803603810190808035906020019092919080359060200190929190505050610284565b604051808215151515815260200191505060405180910390f35b3480156101bb57600080fd5b506101da60048036038101908080359060200190929190505050610300565b005b3480156101e857600080fd5b506101f16103e3565b005b3480156101ff57600080fd5b5061021e600480360381019080803590602001909291905050506104f3565b6040518082815260200191505060405180910390f35b34801561024057600080fd5b5061024961050b565b005b6000600454905090565b60035481565b60008181548110151561026a57fe5b906000526020600020016000915090505481565b60025481565b6000808314156102b25760008381548110151561029d57fe5b906000526020600020015482111590506102fa565b6000600184038154811015156102c457fe5b906000526020600020015482101580156102f757506000838154811015156102e857fe5b90600052602060002001548211155b90505b92915050565b60035481600254011115151561037e576040517f08c379a00000000000000000000000000000000000000000000000000000000081526004018080602001828103825260128152602001807f424c4f434b5f4e554d5f4f564552464c4f57000000000000000000000000000081525060200191505060405180910390fd5b60008160025401908060018154018082558091505090600182039060005260206000200160009091929091909150555080600260008282540192505081905550600460008154809291906001019190505550600354600254111515156103e057fe5b50565b600080600080549050111515610461576040517f08c379a000000000000000000000000000000000000000000000000000000000815260040180806020018281038252600d8152602001807f454d5054592053544f524147450000000000000000000000000000000000000081525060200191505060405180910390fd5b600060016000805490500381548110151561047857fe5b90600052602060002001549050600060016000805490500381548110151561049c57fe5b90600052602060002001600090556000808054905014156104cc57600060048190555060006002819055506104f0565b60046000815480929190600190039190505550806002600082825403925050819055505b50565b60016020528060005260406000206000915090505481565b60008090505b60008054905081111515610534576105276103e3565b8080600101915050610511565b6000808054905014151561054457fe5b505600a165627a7a72305820bc935eb3467072bc2fe268e50839cd1eacc31a6907a63c3e8b0a53fcc9e61bf50029608060405234801561001057600080fd5b5060405160208061029a833981018060405281019080805190602001909291905050506000811115156100ab576040517f08c379a000000000000000000000000000000000000000000000000000000000815260040180806020018281038252600c8152602001807f454d5054595f504552494f44000000000000000000000000000000000000000081525060200191505060405180910390fd5b8060008190555043600181905550506101d1806100c96000396000f30060806040526004361061006d576000357c0100000000000000000000000000000000000000000000000000000000900463ffffffff1680632bc80f3a146100725780637f89b5ce1461009d5780637fc15a2e146100c8578063dd6239fc146100f3578063eb6ad24e1461011e575b600080fd5b34801561007e57600080fd5b50610087610149565b6040518082815260200191505060405180910390f35b3480156100a957600080fd5b506100b261014f565b6040518082815260200191505060405180910390f35b3480156100d457600080fd5b506100dd610155565b6040518082815260200191505060405180910390f35b3480156100ff57600080fd5b5061010861017e565b6040518082815260200191505060405180910390f35b34801561012a57600080fd5b5061013361018f565b6040518082815260200191505060405180910390f35b60005481565b60015481565b60008060015443031015151561016757fe5b600054600154430381151561017857fe5b04905090565b600061018861018f565b4303905090565b6000805461019b610155565b02600154019050905600a165627a7a72305820a0a114358d11151c2f5144479fd87806b0519eaea74de77545618e9017ea66ff0029",
  "source": "pragma solidity 0.4.24;\n\nimport \"openzeppelin-solidity/contracts/math/SafeMath.sol\";\nimport \"./Stack.sol\";\nimport \"./Period.sol\";\n\n/**\n*  A periodic contract. Enables any contract to change state on a periodic basis\n**/\n\ncontract PeriodicStages {\n    using SafeMath for uint256;\n\n    // Set of stages inside a Period\n    Period public period;\n    Stack public stageStack;\n\n    /**\n    * Constructor. Sets up a new period, initializes the offset.\n    * @param _T Initial number of blocks for the period\n    **/\n\n    constructor(uint256 _T) public {\n        stageStack = new Stack(_T);\n        period = new Period (_T);\n    }\n\n    function pushStage(uint256 _duration){\n        stageStack.push(_duration);\n    }\n\n    /**\n    * Getter for the current Stage inside a period where we are, given the current block\n    * @return Current stage inside a period, using the internal Index of the given period\n    */\n    \n    function currentStage() public view returns (uint256) {\n        uint256 internalBlock = period.getRelativeIndex();\n        uint256 size = stageStack.height();\n        if(size == 0) {\n            return 0;\n        }\n        for (uint i = 0 ; i < size; i++) {\n            if (stageStack.positionIsOnSlot(i, internalBlock)) {\n                return i;\n            } \n        }\n    }\n\n}\n",
  "sourcePath": "@frontier-token-research/cron/contracts/PeriodicStages.sol",
  "compiler": {
    "name": "solc",
    "version": "0.4.24+commit.e67f0147.Emscripten.clang"
  },
  "schemaVersion": "2.0.0",
  "updatedAt": "2018-08-09T09:56:28.993Z"
}