{
  "contractName": "Period",
  "abi": [
    {
      "inputs": [
        {
          "name": "_T",
          "type": "uint256"
        }
      ],
      "payable": false,
      "stateMutability": "nonpayable",
      "type": "constructor"
    },
    {
      "constant": true,
      "inputs": [],
      "name": "getPeriodNumber",
      "outputs": [
        {
          "name": "",
          "type": "uint256"
        }
      ],
      "payable": false,
      "stateMutability": "view",
      "type": "function"
    },
    {
      "constant": false,
      "inputs": [],
      "name": "getOffset",
      "outputs": [
        {
          "name": "",
          "type": "uint256"
        }
      ],
      "payable": false,
      "stateMutability": "nonpayable",
      "type": "function"
    },
    {
      "constant": false,
      "inputs": [],
      "name": "getRelativeBlock",
      "outputs": [
        {
          "name": "",
          "type": "uint256"
        }
      ],
      "payable": false,
      "stateMutability": "nonpayable",
      "type": "function"
    }
  ],
  "bytecode": "0x608060405234801561001057600080fd5b506040516020806101b88339810180604052810190808051906020019092919050505060008111151561004257600080fd5b806000819055504360018190555050610158806100606000396000f300608060405260043610610057576000357c0100000000000000000000000000000000000000000000000000000000900463ffffffff1680637fc15a2e1461005c578063a4c42ed214610087578063eb6ad24e146100b2575b600080fd5b34801561006857600080fd5b506100716100dd565b6040518082815260200191505060405180910390f35b34801561009357600080fd5b5061009c610105565b6040518082815260200191505060405180910390f35b3480156100be57600080fd5b506100c7610116565b6040518082815260200191505060405180910390f35b60008060015443031115156100ee57fe5b60005460015443038115156100ff57fe5b04905090565b600061010f610116565b4303905090565b600080546101226100dd565b02600154019050905600a165627a7a72305820ef9bb75cf6674fbf955196fa7a13590118ea569bb83bc336cb71604b3f3205270029",
  "source": "pragma solidity 0.4.24;\n\nimport \"openzeppelin-solidity/contracts/math/SafeMath.sol\";\n\n\n\n/**\n*  A periodic contract. Enables any contract to change state on a periodic basis\n**/\n\n\ncontract Period { \n\n    uint256 T;\n    uint256 initOffset;\n    \n    constructor(uint256 _T) public {\n        require(_T > 0);\n        T = _T;\n        initOffset = block.number;\n    }\n\n    function getPeriodNumber() public view returns (uint256) {\n        assert ((block.number - initOffset) > 0);\n        return (block.number - initOffset) / T;\n    }\n\n    function getOffset() public returns (uint256){\n        return initOffset + getPeriodNumber() * T;\n    }\n\n    function getRelativeBlock() public returns (uint256){ \n        return block.number- getOffset();\n    }\n\n}\n",
  "sourcePath": "/Users/carlosbuendia/Documents/Projects/consensys/Frontier/cron/contracts/Period.sol",
  "compiler": {
    "name": "solc",
    "version": "0.4.24+commit.e67f0147.Emscripten.clang"
  },
  "schemaVersion": "2.0.0",
  "updatedAt": "2018-06-08T08:43:59.736Z"
}