{
  "contractName": "PrivateList",
  "abi": [
    {
      "constant": true,
      "inputs": [
        {
          "name": "",
          "type": "address"
        }
      ],
      "name": "voterList",
      "outputs": [
        {
          "name": "",
          "type": "bool"
        }
      ],
      "payable": false,
      "stateMutability": "view",
      "type": "function"
    },
    {
      "constant": true,
      "inputs": [
        {
          "name": "_addr",
          "type": "address"
        }
      ],
      "name": "isOwner",
      "outputs": [
        {
          "name": "",
          "type": "bool"
        }
      ],
      "payable": false,
      "stateMutability": "view",
      "type": "function"
    },
    {
      "constant": true,
      "inputs": [
        {
          "name": "",
          "type": "uint256"
        },
        {
          "name": "",
          "type": "address"
        }
      ],
      "name": "votesReceived",
      "outputs": [
        {
          "name": "",
          "type": "uint256"
        }
      ],
      "payable": false,
      "stateMutability": "view",
      "type": "function"
    },
    {
      "constant": true,
      "inputs": [],
      "name": "bountyPoolAddress",
      "outputs": [
        {
          "name": "",
          "type": "address"
        }
      ],
      "payable": false,
      "stateMutability": "view",
      "type": "function"
    },
    {
      "constant": true,
      "inputs": [],
      "name": "candidateCounter",
      "outputs": [
        {
          "name": "",
          "type": "uint256"
        }
      ],
      "payable": false,
      "stateMutability": "view",
      "type": "function"
    },
    {
      "constant": true,
      "inputs": [],
      "name": "maxNumCandidates",
      "outputs": [
        {
          "name": "",
          "type": "uint256"
        }
      ],
      "payable": false,
      "stateMutability": "view",
      "type": "function"
    },
    {
      "constant": true,
      "inputs": [
        {
          "name": "",
          "type": "uint256"
        },
        {
          "name": "",
          "type": "address"
        }
      ],
      "name": "votesBalance",
      "outputs": [
        {
          "name": "",
          "type": "uint256"
        }
      ],
      "payable": false,
      "stateMutability": "view",
      "type": "function"
    },
    {
      "constant": true,
      "inputs": [
        {
          "name": "",
          "type": "address"
        }
      ],
      "name": "candidatesList",
      "outputs": [
        {
          "name": "",
          "type": "bool"
        }
      ],
      "payable": false,
      "stateMutability": "view",
      "type": "function"
    },
    {
      "constant": true,
      "inputs": [],
      "name": "maxNumVoters",
      "outputs": [
        {
          "name": "",
          "type": "uint256"
        }
      ],
      "payable": false,
      "stateMutability": "view",
      "type": "function"
    },
    {
      "constant": true,
      "inputs": [],
      "name": "owner",
      "outputs": [
        {
          "name": "",
          "type": "address"
        }
      ],
      "payable": false,
      "stateMutability": "view",
      "type": "function"
    },
    {
      "constant": false,
      "inputs": [
        {
          "name": "_newOwner",
          "type": "address"
        }
      ],
      "name": "changeOwner",
      "outputs": [],
      "payable": false,
      "stateMutability": "nonpayable",
      "type": "function"
    },
    {
      "constant": true,
      "inputs": [
        {
          "name": "",
          "type": "uint256"
        }
      ],
      "name": "periods",
      "outputs": [
        {
          "name": "votingToken",
          "type": "address"
        },
        {
          "name": "startTime",
          "type": "uint256"
        },
        {
          "name": "totalVotes",
          "type": "uint256"
        },
        {
          "name": "state",
          "type": "uint8"
        },
        {
          "name": "TTL",
          "type": "uint256"
        },
        {
          "name": "claimTTL",
          "type": "uint256"
        }
      ],
      "payable": false,
      "stateMutability": "view",
      "type": "function"
    },
    {
      "constant": true,
      "inputs": [],
      "name": "periodTTL",
      "outputs": [
        {
          "name": "",
          "type": "uint256"
        }
      ],
      "payable": false,
      "stateMutability": "view",
      "type": "function"
    },
    {
      "constant": true,
      "inputs": [],
      "name": "token",
      "outputs": [
        {
          "name": "",
          "type": "address"
        }
      ],
      "payable": false,
      "stateMutability": "view",
      "type": "function"
    },
    {
      "inputs": [
        {
          "name": "_tokenAddress",
          "type": "address"
        },
        {
          "name": "_maxNumCandidates",
          "type": "uint256"
        },
        {
          "name": "_initialTTL",
          "type": "uint256"
        }
      ],
      "payable": false,
      "stateMutability": "nonpayable",
      "type": "constructor"
    },
    {
      "anonymous": false,
      "inputs": [
        {
          "indexed": false,
          "name": "_candidateAddress",
          "type": "address"
        },
        {
          "indexed": false,
          "name": "_candidateCounter",
          "type": "uint256"
        }
      ],
      "name": "AddCandidate",
      "type": "event"
    },
    {
      "anonymous": false,
      "inputs": [
        {
          "indexed": false,
          "name": "_voterAddress",
          "type": "address"
        }
      ],
      "name": "AddVoter",
      "type": "event"
    },
    {
      "anonymous": false,
      "inputs": [
        {
          "indexed": false,
          "name": "_candidateAddress",
          "type": "address"
        }
      ],
      "name": "RemoveCandidate",
      "type": "event"
    },
    {
      "anonymous": false,
      "inputs": [
        {
          "indexed": false,
          "name": "_voterAddress",
          "type": "address"
        }
      ],
      "name": "RemoveVoter",
      "type": "event"
    },
    {
      "anonymous": false,
      "inputs": [
        {
          "indexed": false,
          "name": "_candidateAddress",
          "type": "address"
        },
        {
          "indexed": false,
          "name": "_amount",
          "type": "uint256"
        }
      ],
      "name": "Vote",
      "type": "event"
    },
    {
      "anonymous": false,
      "inputs": [
        {
          "indexed": false,
          "name": "oldOwner",
          "type": "address"
        },
        {
          "indexed": false,
          "name": "newOwner",
          "type": "address"
        }
      ],
      "name": "OwnerChanged",
      "type": "event"
    },
    {
      "constant": false,
      "inputs": [
        {
          "name": "_amount",
          "type": "uint256"
        }
      ],
      "name": "buyTokenVotes",
      "outputs": [],
      "payable": false,
      "stateMutability": "nonpayable",
      "type": "function"
    },
    {
      "constant": false,
      "inputs": [],
      "name": "initPeriod",
      "outputs": [],
      "payable": false,
      "stateMutability": "nonpayable",
      "type": "function"
    },
    {
      "constant": false,
      "inputs": [],
      "name": "initClaimingState",
      "outputs": [],
      "payable": false,
      "stateMutability": "nonpayable",
      "type": "function"
    },
    {
      "constant": false,
      "inputs": [],
      "name": "claimBounty",
      "outputs": [],
      "payable": false,
      "stateMutability": "nonpayable",
      "type": "function"
    },
    {
      "constant": false,
      "inputs": [],
      "name": "closePeriod",
      "outputs": [],
      "payable": false,
      "stateMutability": "nonpayable",
      "type": "function"
    },
    {
      "constant": false,
      "inputs": [
        {
          "name": "_candidateAddress",
          "type": "address"
        }
      ],
      "name": "addCandidate",
      "outputs": [],
      "payable": false,
      "stateMutability": "nonpayable",
      "type": "function"
    },
    {
      "constant": false,
      "inputs": [
        {
          "name": "_candidateAddress",
          "type": "address"
        }
      ],
      "name": "removeCandidate",
      "outputs": [],
      "payable": false,
      "stateMutability": "nonpayable",
      "type": "function"
    },
    {
      "constant": false,
      "inputs": [
        {
          "name": "_voterAddress",
          "type": "address"
        }
      ],
      "name": "addVoter",
      "outputs": [],
      "payable": false,
      "stateMutability": "nonpayable",
      "type": "function"
    },
    {
      "constant": false,
      "inputs": [
        {
          "name": "_voterAddress",
          "type": "address"
        }
      ],
      "name": "removeVoter",
      "outputs": [],
      "payable": false,
      "stateMutability": "nonpayable",
      "type": "function"
    },
    {
      "constant": false,
      "inputs": [
        {
          "name": "_candidateAddress",
          "type": "address"
        },
        {
          "name": "_amount",
          "type": "uint256"
        }
      ],
      "name": "vote",
      "outputs": [],
      "payable": false,
      "stateMutability": "nonpayable",
      "type": "function"
    }
  ],
  "bytecode": "0x60606040526000600960006101000a81548173ffffffffffffffffffffffffffffffffffffffff021916908373ffffffffffffffffffffffffffffffffffffffff1602179055506000600b5534156200005757600080fd5b60405160608062001c6983398101604052808051906020019091908051906020019091908051906020019091905050336000806101000a81548173ffffffffffffffffffffffffffffffffffffffff021916908373ffffffffffffffffffffffffffffffffffffffff16021790555082600a60006101000a81548173ffffffffffffffffffffffffffffffffffffffff021916908373ffffffffffffffffffffffffffffffffffffffff1602179055508160058190555080600881905550620001336200013c6401000000000262001943176401000000009004565b50505062000202565b600060038111156200014a57fe5b600c6000600b54815260200190815260200160002060030160009054906101000a900460ff1660038111156200017c57fe5b1415156200018957600080fd5b600854600c6000600b548152602001908152602001600020600401819055506001600c6000600b54815260200190815260200160002060030160006101000a81548160ff02191690836003811115620001de57fe5b021790555042600c6000600b54815260200190815260200160002060010181905550565b611a5780620002126000396000f30060606040526004361061013e576000357c0100000000000000000000000000000000000000000000000000000000900463ffffffff16806303b4caed146101435780632bc8223f146101945780632f54bf6e146101a957806333dd6bed146101fa57806334a042d8146102505780633acd75f8146102a55780633bc990db146102de5780634d8cd52f14610307578063507a7328146103305780635706d0ec146103455780635e1ce58a1461039b5780635f74bbde146103be5780636c57f8a7146104005780636dd091f9146104515780636e7f46f61461048a57806386c1ff68146104b35780638da5cb5b146104ec578063a6f9dae114610541578063ea4a11041461057a578063ee4be2881461060e578063f4ab9adf14610623578063f5896a691461065c578063f9ace0b014610685578063fc0c546a1461069a575b600080fd5b341561014e57600080fd5b61017a600480803573ffffffffffffffffffffffffffffffffffffffff169060200190919050506106ef565b604051808215151515815260200191505060405180910390f35b341561019f57600080fd5b6101a761070f565b005b34156101b457600080fd5b6101e0600480803573ffffffffffffffffffffffffffffffffffffffff169060200190919050506107ef565b604051808215151515815260200191505060405180910390f35b341561020557600080fd5b61023a600480803590602001909190803573ffffffffffffffffffffffffffffffffffffffff16906020019091905050610848565b6040518082815260200191505060405180910390f35b341561025b57600080fd5b61026361086d565b604051808273ffffffffffffffffffffffffffffffffffffffff1673ffffffffffffffffffffffffffffffffffffffff16815260200191505060405180910390f35b34156102b057600080fd5b6102dc600480803573ffffffffffffffffffffffffffffffffffffffff16906020019091905050610893565b005b34156102e957600080fd5b6102f1610a98565b6040518082815260200191505060405180910390f35b341561031257600080fd5b61031a610a9e565b6040518082815260200191505060405180910390f35b341561033b57600080fd5b610343610aa4565b005b341561035057600080fd5b610385600480803590602001909190803573ffffffffffffffffffffffffffffffffffffffff16906020019091905050610b7b565b6040518082815260200191505060405180910390f35b34156103a657600080fd5b6103bc6004808035906020019091905050610ba0565b005b34156103c957600080fd5b6103fe600480803573ffffffffffffffffffffffffffffffffffffffff16906020019091908035906020019091905050610d2a565b005b341561040b57600080fd5b610437600480803573ffffffffffffffffffffffffffffffffffffffff1690602001909190505061104a565b604051808215151515815260200191505060405180910390f35b341561045c57600080fd5b610488600480803573ffffffffffffffffffffffffffffffffffffffff1690602001909190505061106a565b005b341561049557600080fd5b61049d611194565b6040518082815260200191505060405180910390f35b34156104be57600080fd5b6104ea600480803573ffffffffffffffffffffffffffffffffffffffff1690602001909190505061119a565b005b34156104f757600080fd5b6104ff6112b3565b604051808273ffffffffffffffffffffffffffffffffffffffff1673ffffffffffffffffffffffffffffffffffffffff16815260200191505060405180910390f35b341561054c57600080fd5b610578600480803573ffffffffffffffffffffffffffffffffffffffff169060200190919050506112d8565b005b341561058557600080fd5b61059b600480803590602001909190505061140d565b604051808773ffffffffffffffffffffffffffffffffffffffff1673ffffffffffffffffffffffffffffffffffffffff1681526020018681526020018581526020018460038111156105e957fe5b60ff168152602001838152602001828152602001965050505050505060405180910390f35b341561061957600080fd5b610621611476565b005b341561062e57600080fd5b61065a600480803573ffffffffffffffffffffffffffffffffffffffff16906020019091905050611766565b005b341561066757600080fd5b61066f61193d565b6040518082815260200191505060405180910390f35b341561069057600080fd5b610698611943565b005b34156106a557600080fd5b6106ad611a05565b604051808273ffffffffffffffffffffffffffffffffffffffff1673ffffffffffffffffffffffffffffffffffffffff16815260200191505060405180910390f35b60046020528060005260406000206000915054906101000a900460ff1681565b6001600381111561071c57fe5b600c6000600b54815260200190815260200160002060030160009054906101000a900460ff16600381111561074d57fe5b14151561075957600080fd5b600c6000600b54815260200190815260200160002060050154600c6000600b5481526020019081526020016000206004015401600c6000600b5481526020019081526020016000206001015442031115156107b357600080fd5b6002600c6000600b54815260200190815260200160002060030160006101000a81548160ff021916908360038111156107e857fe5b0217905550565b60008060009054906101000a900473ffffffffffffffffffffffffffffffffffffffff1673ffffffffffffffffffffffffffffffffffffffff168273ffffffffffffffffffffffffffffffffffffffff16149050919050565b6001602052816000526040600020602052806000526040600020600091509150505481565b600960009054906101000a900473ffffffffffffffffffffffffffffffffffffffff1681565b6000809054906101000a900473ffffffffffffffffffffffffffffffffffffffff1673ffffffffffffffffffffffffffffffffffffffff163373ffffffffffffffffffffffffffffffffffffffff161415156108ee57600080fd5b6005546007541115151561090157600080fd5b60001515600360008373ffffffffffffffffffffffffffffffffffffffff1673ffffffffffffffffffffffffffffffffffffffff16815260200190815260200160002060009054906101000a900460ff16151514151561096057600080fd5b60001515600460008373ffffffffffffffffffffffffffffffffffffffff1673ffffffffffffffffffffffffffffffffffffffff16815260200190815260200160002060009054906101000a900460ff1615151415156109bf57600080fd5b6001600360008373ffffffffffffffffffffffffffffffffffffffff1673ffffffffffffffffffffffffffffffffffffffff16815260200190815260200160002060006101000a81548160ff02191690831515021790555060016007600082825401925050819055507f049d1c8b40907221cd444b433e1ec54986e7867082772cc98762c807afc95e3f81600754604051808373ffffffffffffffffffffffffffffffffffffffff1673ffffffffffffffffffffffffffffffffffffffff1681526020018281526020019250505060405180910390a150565b60075481565b60055481565b60026003811115610ab157fe5b600c6000600b54815260200190815260200160002060030160009054906101000a900460ff166003811115610ae257fe5b141515610aee57600080fd5b600c6000600b54815260200190815260200160002060040154600c6000600b548152602001908152602001600020600101544203111515610b2e57600080fd5b6003600c6000600b54815260200190815260200160002060030160006101000a81548160ff02191690836003811115610b6357fe5b02179055506001600b60008282540192505081905550565b6002602052816000526040600020602052806000526040600020600091509150505481565b600a60009054906101000a900473ffffffffffffffffffffffffffffffffffffffff1673ffffffffffffffffffffffffffffffffffffffff166323b872dd3330846000604051602001526040518463ffffffff167c0100000000000000000000000000000000000000000000000000000000028152600401808473ffffffffffffffffffffffffffffffffffffffff1673ffffffffffffffffffffffffffffffffffffffff1681526020018373ffffffffffffffffffffffffffffffffffffffff1673ffffffffffffffffffffffffffffffffffffffff1681526020018281526020019350505050602060405180830381600087803b1515610ca157600080fd5b6102c65a03f11515610cb257600080fd5b505050604051805190501515610cc757600080fd5b8060026000600b54815260200190815260200160002060003373ffffffffffffffffffffffffffffffffffffffff1673ffffffffffffffffffffffffffffffffffffffff1681526020019081526020016000206000828254019250508190555050565b60011515600360008473ffffffffffffffffffffffffffffffffffffffff1673ffffffffffffffffffffffffffffffffffffffff16815260200190815260200160002060009054906101000a900460ff161515141515610d8957600080fd5b60026003811115610d9657fe5b600c6000600b54815260200190815260200160002060030160009054906101000a900460ff166003811115610dc757fe5b141515610dd357600080fd5b60011515600460003373ffffffffffffffffffffffffffffffffffffffff1673ffffffffffffffffffffffffffffffffffffffff16815260200190815260200160002060009054906101000a900460ff161515141515610e3257600080fd5b600a60009054906101000a900473ffffffffffffffffffffffffffffffffffffffff1673ffffffffffffffffffffffffffffffffffffffff166323b872dd33600960009054906101000a900473ffffffffffffffffffffffffffffffffffffffff16846000604051602001526040518463ffffffff167c0100000000000000000000000000000000000000000000000000000000028152600401808473ffffffffffffffffffffffffffffffffffffffff1673ffffffffffffffffffffffffffffffffffffffff1681526020018373ffffffffffffffffffffffffffffffffffffffff1673ffffffffffffffffffffffffffffffffffffffff1681526020018281526020019350505050602060405180830381600087803b1515610f5557600080fd5b6102c65a03f11515610f6657600080fd5b505050604051805190501515610f7b57600080fd5b8060016000600b54815260200190815260200160002060008473ffffffffffffffffffffffffffffffffffffffff1673ffffffffffffffffffffffffffffffffffffffff168152602001908152602001600020600082825401925050819055507ff668ead05c744b9178e571d2edb452e72baf6529c8d72160e64e59b50d865bd08282604051808373ffffffffffffffffffffffffffffffffffffffff1673ffffffffffffffffffffffffffffffffffffffff1681526020018281526020019250505060405180910390a15050565b60036020528060005260406000206000915054906101000a900460ff1681565b6000809054906101000a900473ffffffffffffffffffffffffffffffffffffffff1673ffffffffffffffffffffffffffffffffffffffff163373ffffffffffffffffffffffffffffffffffffffff161415156110c557600080fd5b6000600360008373ffffffffffffffffffffffffffffffffffffffff1673ffffffffffffffffffffffffffffffffffffffff16815260200190815260200160002060006101000a81548160ff02191690831515021790555060016007600082825403925050819055507f25fdba415343a102573f708646afaddf264fa02f6202a2954661cbe06dc38db081604051808273ffffffffffffffffffffffffffffffffffffffff1673ffffffffffffffffffffffffffffffffffffffff16815260200191505060405180910390a150565b60065481565b6000809054906101000a900473ffffffffffffffffffffffffffffffffffffffff1673ffffffffffffffffffffffffffffffffffffffff163373ffffffffffffffffffffffffffffffffffffffff161415156111f557600080fd5b6000600460008373ffffffffffffffffffffffffffffffffffffffff1673ffffffffffffffffffffffffffffffffffffffff16815260200190815260200160002060006101000a81548160ff0219169083151502179055507f1c959242c0718835c6a0d1fdc1c02056059ed6025bd0bfb268523cf23825ac4f81604051808273ffffffffffffffffffffffffffffffffffffffff1673ffffffffffffffffffffffffffffffffffffffff16815260200191505060405180910390a150565b6000809054906101000a900473ffffffffffffffffffffffffffffffffffffffff1681565b6000809054906101000a900473ffffffffffffffffffffffffffffffffffffffff1673ffffffffffffffffffffffffffffffffffffffff163373ffffffffffffffffffffffffffffffffffffffff1614151561133357600080fd5b806000806101000a81548173ffffffffffffffffffffffffffffffffffffffff021916908373ffffffffffffffffffffffffffffffffffffffff1602179055507fb532073b38c83145e3e5135377a08bf9aab55bc0fd7c1179cd4fb995d2a5159c3382604051808373ffffffffffffffffffffffffffffffffffffffff1673ffffffffffffffffffffffffffffffffffffffff1681526020018273ffffffffffffffffffffffffffffffffffffffff1673ffffffffffffffffffffffffffffffffffffffff1681526020019250505060405180910390a150565b600c6020528060005260406000206000915090508060000160009054906101000a900473ffffffffffffffffffffffffffffffffffffffff16908060010154908060020154908060030160009054906101000a900460ff16908060040154908060050154905086565b60006002600381111561148557fe5b600c6000600b54815260200190815260200160002060030160009054906101000a900460ff1660038111156114b657fe5b1415156114c257600080fd5b60011515600360003373ffffffffffffffffffffffffffffffffffffffff1673ffffffffffffffffffffffffffffffffffffffff16815260200190815260200160002060009054906101000a900460ff16151514151561152157600080fd5b600c6000600b54815260200190815260200160002060020154600a60009054906101000a900473ffffffffffffffffffffffffffffffffffffffff1673ffffffffffffffffffffffffffffffffffffffff166370a08231306000604051602001526040518263ffffffff167c0100000000000000000000000000000000000000000000000000000000028152600401808273ffffffffffffffffffffffffffffffffffffffff1673ffffffffffffffffffffffffffffffffffffffff168152602001915050602060405180830381600087803b15156115ff57600080fd5b6102c65a03f1151561161057600080fd5b5050506040518051905060016000600b54815260200190815260200160002060003373ffffffffffffffffffffffffffffffffffffffff1673ffffffffffffffffffffffffffffffffffffffff168152602001908152602001600020540281151561167757fe5b049050600a60009054906101000a900473ffffffffffffffffffffffffffffffffffffffff1673ffffffffffffffffffffffffffffffffffffffff1663a9059cbb33836000604051602001526040518363ffffffff167c0100000000000000000000000000000000000000000000000000000000028152600401808373ffffffffffffffffffffffffffffffffffffffff1673ffffffffffffffffffffffffffffffffffffffff16815260200182815260200192505050602060405180830381600087803b151561174757600080fd5b6102c65a03f1151561175857600080fd5b505050604051805190505050565b6000809054906101000a900473ffffffffffffffffffffffffffffffffffffffff1673ffffffffffffffffffffffffffffffffffffffff163373ffffffffffffffffffffffffffffffffffffffff161415156117c157600080fd5b60001515600460008373ffffffffffffffffffffffffffffffffffffffff1673ffffffffffffffffffffffffffffffffffffffff16815260200190815260200160002060009054906101000a900460ff16151514151561182057600080fd5b60001515600360008373ffffffffffffffffffffffffffffffffffffffff1673ffffffffffffffffffffffffffffffffffffffff16815260200190815260200160002060009054906101000a900460ff16151514151561187f57600080fd5b6001600460008373ffffffffffffffffffffffffffffffffffffffff1673ffffffffffffffffffffffffffffffffffffffff16815260200190815260200160002060006101000a81548160ff0219169083151502179055507f0ad2eca75347acd5160276fe4b5dad46987e4ff4af9e574195e3e9bc15d7e0ff81604051808273ffffffffffffffffffffffffffffffffffffffff1673ffffffffffffffffffffffffffffffffffffffff16815260200191505060405180910390a150565b60085481565b6000600381111561195057fe5b600c6000600b54815260200190815260200160002060030160009054906101000a900460ff16600381111561198157fe5b14151561198d57600080fd5b600854600c6000600b548152602001908152602001600020600401819055506001600c6000600b54815260200190815260200160002060030160006101000a81548160ff021916908360038111156119e157fe5b021790555042600c6000600b54815260200190815260200160002060010181905550565b600a60009054906101000a900473ffffffffffffffffffffffffffffffffffffffff16815600a165627a7a7230582003949bc2f952bd052ea0c8b866c46b34f466050e0f41c074a470a07cc34464460029",
  "source": "pragma solidity 0.4.19;\n\nimport \"../lib/Standard20Token.sol\";\nimport \"../lib/Owned.sol\";\n\n/**\n* Simplest case of a TRL, voters and candidates are added by an Admin\n*\n**/\ncontract PrivateList is Owned {\n\n    mapping (uint256 => mapping(address=> uint256)) public votesReceived; // Amount that only can be changed in exchange of FTR\n    mapping (uint256 => mapping(address => uint256)) public votesBalance; // For each period, maps user's address to voteToken balance\n    mapping (address => bool) public candidatesList; //Replace with registry address\n    mapping (address => bool) public voterList; // Replace with registry address\n\n\n    uint256 public maxNumCandidates; // To the registry\n    uint256 public maxNumVoters; // To the registry\n    uint256 public candidateCounter; // To the registry\n    uint256 public periodTTL;\n    address public bountyPoolAddress = 0x00;\n    Standard20Token public token;\n\n    uint256 currentPeriod=0;\n\n    enum PeriodState{CREATED, ACTIVE, CLAIM, CLOSED}\n\n    struct Period {\n        Standard20Token votingToken;\n        uint256 startTime;\n        uint256 totalVotes;\n        PeriodState state;\n        uint256 TTL;\n        uint256 claimTTL;\n    }\n\n    mapping (uint256 => Period) public periods;\n\n    /**\n    * Creates a new Instance of a Voting Lists\n    * @param _tokenAddress Address of the token used for\n    * @param _maxNumCandidates maximum number of candidates\n    **/\n\n    function PrivateList(address _tokenAddress, uint256 _maxNumCandidates, uint256 _initialTTL) public {\n        token = Standard20Token(_tokenAddress);\n        maxNumCandidates = _maxNumCandidates;\n        periodTTL = _initialTTL;\n        initPeriod();\n    }\n\n    /**\n    * Exchanges the main token for an amount of votes\n    * Requires previous allowance of expenditure of at least the amount required\n    * @param _amount Amount of votes that the voter wants to buy\n    **/\n\n    function buyTokenVotes(uint256 _amount) public {\n      require(token.transferFrom(msg.sender,this, _amount));\n      votesBalance[currentPeriod][msg.sender] += _amount;\n    }\n\n    /**\n    * Initializes a new period, taking as the TTL value the current from storage, and setting the state to 1\n    * Requires that the current period is Preparing (0)\n    **/\n\n    function initPeriod() public{\n        require(periods[currentPeriod].state == PeriodState.CREATED);\n        periods[currentPeriod].TTL= periodTTL;\n        periods[currentPeriod].state= PeriodState.ACTIVE;\n        periods[currentPeriod].startTime = now;\n    }\n\n    /**\n    * Moves the period from active to Claiming.\n    *\n    **/\n    function initClaimingState() public {\n      require(periods[currentPeriod].state == PeriodState.ACTIVE);\n      require ((now - periods[currentPeriod].startTime) > (periods[currentPeriod].TTL + periods[currentPeriod].claimTTL));\n      periods[currentPeriod].state= PeriodState.CLAIM;\n    }\n\n    /**\n    * Enables an analyst to claim a bounty in the claim period\n    *\n    *\n    **/\n\n    function claimBounty() public {\n        require(periods[currentPeriod].state == PeriodState.CLAIM);\n        require(candidatesList[msg.sender] == true);\n        uint256 totalAmount = votesReceived[currentPeriod][msg.sender] * token.balanceOf(this)/periods[currentPeriod].totalVotes;\n        token.transfer(msg.sender, totalAmount);\n    }\n\n    /**\n    * Closes the current period and sets the current period pointer to the next item, enabling again init.\n    *\n    **/\n\n    function closePeriod() public {\n        require (periods[currentPeriod].state == PeriodState.CLAIM);\n        require (now - periods[currentPeriod].startTime > periods[currentPeriod].TTL);\n        periods[currentPeriod].state= PeriodState.CLOSED;\n        currentPeriod +=1;\n    }\n\n\n    /**\n    * Adds a new candidate to the List\n    * @param _candidateAddress Account of the candidate to be added to the List\n    **/\n    function addCandidate(address _candidateAddress) public onlyOwner {\n        require(candidateCounter <= maxNumCandidates);\n\t      require(candidatesList[_candidateAddress]==false);\n        require(voterList[_candidateAddress]==false); // Candidate cannot be a voter\n        candidatesList[_candidateAddress] = true;\n        candidateCounter += 1;\n        AddCandidate(_candidateAddress, candidateCounter);\n    }\n\n    /**\n    * Removes a candidate to the List\n    * @param _candidateAddress Account of the candidate to be removed to the List\n    **/\n    function removeCandidate (address _candidateAddress) public onlyOwner {\n        candidatesList[_candidateAddress] = false;\n        candidateCounter -= 1;\n        RemoveCandidate(_candidateAddress);\n    }\n\n    /**\n    * Adds a new candidate to the voterList\n    * @param _voterAddress Account of the voter to be added to the List\n    **/\n    function addVoter(address _voterAddress) public onlyOwner {\n        require(voterList[_voterAddress]==false);\n        require(candidatesList[_voterAddress]==false); // Voter cannot be a candidate\n        voterList[_voterAddress] = true;\n        AddVoter(_voterAddress);\n    }\n\n    /**\n    * Removes a voter from the voterList\n    * @param _voterAddress Account of the candidate to be removed to the List\n    **/\n\n    function removeVoter (address _voterAddress) public onlyOwner {\n        voterList[_voterAddress] = false;\n        RemoveVoter(_voterAddress);\n    }\n\n    /**\n    * Adds a new vote for a candidate. It fails if the candidate hasn't approved before the specified amount\n    * @param _candidateAddress address of the candidate selected\n    * @param _amount of votes used\n    **/\n\n    function vote(address _candidateAddress, uint256 _amount) public {\n        require(candidatesList[_candidateAddress] == true);\n        require (periods[currentPeriod].state == PeriodState.CLAIM);\n        require(voterList[msg.sender]==true);\n        require(token.transferFrom(msg.sender, bountyPoolAddress, _amount));\n        votesReceived[currentPeriod][_candidateAddress] += _amount;\n        Vote(_candidateAddress, _amount);\n    }\n\n\n\n    event AddCandidate(address _candidateAddress, uint256 _candidateCounter);\n    event AddVoter(address _voterAddress);\n    event RemoveCandidate(address _candidateAddress);\n    event RemoveVoter(address _voterAddress);\n    event Vote(address _candidateAddress, uint256 _amount);\n}\n",
  "sourcePath": "/Users/carlosbuendia/Documents/Projects/consensys/Frontier/FrontierLists/contracts/Lists/PrivateList.sol",
  "compiler": {
    "name": "solc",
    "version": "0.4.19+commit.c4cbbb05.Emscripten.clang"
  },
  "schemaVersion": "2.0.0",
  "updatedAt": "2018-03-05T16:15:27.393Z"
}