{
  "contractName": "PrivateList",
  "abi": [
    {
      "constant": false,
      "inputs": [
        {
          "name": "_bountyPoolAddress",
          "type": "address"
        }
      ],
      "name": "setBountyPool",
      "outputs": [],
      "payable": false,
      "stateMutability": "nonpayable",
      "type": "function"
    },
    {
      "constant": true,
      "inputs": [
        {
          "name": "_addr",
          "type": "address"
        }
      ],
      "name": "isOwner",
      "outputs": [
        {
          "name": "",
          "type": "bool"
        }
      ],
      "payable": false,
      "stateMutability": "view",
      "type": "function"
    },
    {
      "constant": true,
      "inputs": [
        {
          "name": "",
          "type": "address"
        }
      ],
      "name": "votesReceived",
      "outputs": [
        {
          "name": "",
          "type": "uint8"
        }
      ],
      "payable": false,
      "stateMutability": "view",
      "type": "function"
    },
    {
      "constant": true,
      "inputs": [],
      "name": "bountyPoolAddress",
      "outputs": [
        {
          "name": "",
          "type": "address"
        }
      ],
      "payable": false,
      "stateMutability": "view",
      "type": "function"
    },
    {
      "constant": false,
      "inputs": [
        {
          "name": "_candidateAddress",
          "type": "address"
        }
      ],
      "name": "addCandidate",
      "outputs": [],
      "payable": false,
      "stateMutability": "nonpayable",
      "type": "function"
    },
    {
      "constant": true,
      "inputs": [],
      "name": "maxNumCandidates",
      "outputs": [
        {
          "name": "",
          "type": "uint256"
        }
      ],
      "payable": false,
      "stateMutability": "view",
      "type": "function"
    },
    {
      "constant": false,
      "inputs": [
        {
          "name": "_candidateAddress",
          "type": "address"
        },
        {
          "name": "_amount",
          "type": "uint256"
        }
      ],
      "name": "vote",
      "outputs": [
        {
          "name": "",
          "type": "uint8"
        }
      ],
      "payable": false,
      "stateMutability": "nonpayable",
      "type": "function"
    },
    {
      "constant": true,
      "inputs": [
        {
          "name": "",
          "type": "address"
        }
      ],
      "name": "candidatesList",
      "outputs": [
        {
          "name": "",
          "type": "bool"
        }
      ],
      "payable": false,
      "stateMutability": "view",
      "type": "function"
    },
    {
      "constant": false,
      "inputs": [
        {
          "name": "_candidateAddress",
          "type": "address"
        }
      ],
      "name": "removeCandidate",
      "outputs": [],
      "payable": false,
      "stateMutability": "nonpayable",
      "type": "function"
    },
    {
      "constant": true,
      "inputs": [],
      "name": "owner",
      "outputs": [
        {
          "name": "",
          "type": "address"
        }
      ],
      "payable": false,
      "stateMutability": "view",
      "type": "function"
    },
    {
      "constant": false,
      "inputs": [
        {
          "name": "_newOwner",
          "type": "address"
        }
      ],
      "name": "changeOwner",
      "outputs": [],
      "payable": false,
      "stateMutability": "nonpayable",
      "type": "function"
    },
    {
      "constant": true,
      "inputs": [],
      "name": "token",
      "outputs": [
        {
          "name": "",
          "type": "address"
        }
      ],
      "payable": false,
      "stateMutability": "view",
      "type": "function"
    },
    {
      "inputs": [
        {
          "name": "_tokenAddress",
          "type": "address"
        },
        {
          "name": "_maxNumCandidates",
          "type": "uint256"
        }
      ],
      "payable": false,
      "stateMutability": "nonpayable",
      "type": "constructor"
    },
    {
      "anonymous": false,
      "inputs": [
        {
          "indexed": false,
          "name": "_candidateAddress",
          "type": "address"
        }
      ],
      "name": "Add",
      "type": "event"
    },
    {
      "anonymous": false,
      "inputs": [
        {
          "indexed": false,
          "name": "_candidateAddress",
          "type": "address"
        }
      ],
      "name": "Remove",
      "type": "event"
    },
    {
      "anonymous": false,
      "inputs": [
        {
          "indexed": false,
          "name": "oldOwner",
          "type": "address"
        },
        {
          "indexed": false,
          "name": "newOwner",
          "type": "address"
        }
      ],
      "name": "OwnerChanged",
      "type": "event"
    }
  ],
  "bytecode": "0x606060405261dead600660006101000a81548173ffffffffffffffffffffffffffffffffffffffff021916908373ffffffffffffffffffffffffffffffffffffffff160217905550341561005257600080fd5b604051604080610d6883398101604052808051906020019091908051906020019091905050336000806101000a81548173ffffffffffffffffffffffffffffffffffffffff021916908373ffffffffffffffffffffffffffffffffffffffff16021790555081600760006101000a81548173ffffffffffffffffffffffffffffffffffffffff021916908373ffffffffffffffffffffffffffffffffffffffff160217905550806004819055505050610c58806101106000396000f3006060604052600436106100ba576000357c0100000000000000000000000000000000000000000000000000000000900463ffffffff16806321c0e95d146100bf5780632f54bf6e146100f857806330c880c31461014957806334a042d81461019c5780633acd75f8146101f15780634d8cd52f1461022a5780635f74bbde146102535780636c57f8a7146102af5780636dd091f9146103005780638da5cb5b14610339578063a6f9dae11461038e578063fc0c546a146103c7575b600080fd5b34156100ca57600080fd5b6100f6600480803573ffffffffffffffffffffffffffffffffffffffff1690602001909190505061041c565b005b341561010357600080fd5b61012f600480803573ffffffffffffffffffffffffffffffffffffffff16906020019091905050610460565b604051808215151515815260200191505060405180910390f35b341561015457600080fd5b610180600480803573ffffffffffffffffffffffffffffffffffffffff169060200190919050506104b9565b604051808260ff1660ff16815260200191505060405180910390f35b34156101a757600080fd5b6101af6104d9565b604051808273ffffffffffffffffffffffffffffffffffffffff1673ffffffffffffffffffffffffffffffffffffffff16815260200191505060405180910390f35b34156101fc57600080fd5b610228600480803573ffffffffffffffffffffffffffffffffffffffff169060200190919050506104ff565b005b341561023557600080fd5b61023d61069f565b6040518082815260200191505060405180910390f35b341561025e57600080fd5b610293600480803573ffffffffffffffffffffffffffffffffffffffff169060200190919080359060200190919050506106a5565b604051808260ff1660ff16815260200191505060405180910390f35b34156102ba57600080fd5b6102e6600480803573ffffffffffffffffffffffffffffffffffffffff16906020019091905050610911565b604051808215151515815260200191505060405180910390f35b341561030b57600080fd5b610337600480803573ffffffffffffffffffffffffffffffffffffffff16906020019091905050610931565b005b341561034457600080fd5b61034c610a5b565b604051808273ffffffffffffffffffffffffffffffffffffffff1673ffffffffffffffffffffffffffffffffffffffff16815260200191505060405180910390f35b341561039957600080fd5b6103c5600480803573ffffffffffffffffffffffffffffffffffffffff16906020019091905050610a80565b005b34156103d257600080fd5b6103da610bb5565b604051808273ffffffffffffffffffffffffffffffffffffffff1673ffffffffffffffffffffffffffffffffffffffff16815260200191505060405180910390f35b80600660006101000a81548173ffffffffffffffffffffffffffffffffffffffff021916908373ffffffffffffffffffffffffffffffffffffffff16021790555050565b60008060009054906101000a900473ffffffffffffffffffffffffffffffffffffffff1673ffffffffffffffffffffffffffffffffffffffff168273ffffffffffffffffffffffffffffffffffffffff16149050919050565b60016020528060005260406000206000915054906101000a900460ff1681565b600660009054906101000a900473ffffffffffffffffffffffffffffffffffffffff1681565b6000809054906101000a900473ffffffffffffffffffffffffffffffffffffffff1673ffffffffffffffffffffffffffffffffffffffff163373ffffffffffffffffffffffffffffffffffffffff1614151561055a57600080fd5b6004546005541115151561056d57600080fd5b6001600260008373ffffffffffffffffffffffffffffffffffffffff1673ffffffffffffffffffffffffffffffffffffffff16815260200190815260200160002060006101000a81548160ff021916908315150217905550600380548060010182816105d99190610bdb565b9160005260206000209001600083909190916101000a81548173ffffffffffffffffffffffffffffffffffffffff021916908373ffffffffffffffffffffffffffffffffffffffff1602179055505060016005600082825401925050819055507f87dc5eecd6d6bdeae407c426da6bfba5b7190befc554ed5d4d62dd5cf939fbae81604051808273ffffffffffffffffffffffffffffffffffffffff1673ffffffffffffffffffffffffffffffffffffffff16815260200191505060405180910390a150565b60045481565b60006001600260008573ffffffffffffffffffffffffffffffffffffffff1673ffffffffffffffffffffffffffffffffffffffff16815260200190815260200160002060006101000a81548160ff0219169083151502179055151561070957600080fd5b600760009054906101000a900473ffffffffffffffffffffffffffffffffffffffff1673ffffffffffffffffffffffffffffffffffffffff166323b872dd33600660009054906101000a900473ffffffffffffffffffffffffffffffffffffffff16856000604051602001526040518463ffffffff167c0100000000000000000000000000000000000000000000000000000000028152600401808473ffffffffffffffffffffffffffffffffffffffff1673ffffffffffffffffffffffffffffffffffffffff1681526020018373ffffffffffffffffffffffffffffffffffffffff1673ffffffffffffffffffffffffffffffffffffffff1681526020018281526020019350505050602060405180830381600087803b151561082c57600080fd5b6102c65a03f1151561083d57600080fd5b50505060405180519050151561085257600080fd5b60018060008573ffffffffffffffffffffffffffffffffffffffff1673ffffffffffffffffffffffffffffffffffffffff16815260200190815260200160002060008282829054906101000a900460ff160192506101000a81548160ff021916908360ff160217905550600160008473ffffffffffffffffffffffffffffffffffffffff1673ffffffffffffffffffffffffffffffffffffffff16815260200190815260200160002060009054906101000a900460ff16905092915050565b60026020528060005260406000206000915054906101000a900460ff1681565b6000809054906101000a900473ffffffffffffffffffffffffffffffffffffffff1673ffffffffffffffffffffffffffffffffffffffff163373ffffffffffffffffffffffffffffffffffffffff1614151561098c57600080fd5b6000600260008373ffffffffffffffffffffffffffffffffffffffff1673ffffffffffffffffffffffffffffffffffffffff16815260200190815260200160002060006101000a81548160ff02191690831515021790555060016005600082825403925050819055507fbe7c7ac3248df4581c206a84aab3cb4e7d521b5398b42b681757f78a5a7d411e81604051808273ffffffffffffffffffffffffffffffffffffffff1673ffffffffffffffffffffffffffffffffffffffff16815260200191505060405180910390a150565b6000809054906101000a900473ffffffffffffffffffffffffffffffffffffffff1681565b6000809054906101000a900473ffffffffffffffffffffffffffffffffffffffff1673ffffffffffffffffffffffffffffffffffffffff163373ffffffffffffffffffffffffffffffffffffffff16141515610adb57600080fd5b806000806101000a81548173ffffffffffffffffffffffffffffffffffffffff021916908373ffffffffffffffffffffffffffffffffffffffff1602179055507fb532073b38c83145e3e5135377a08bf9aab55bc0fd7c1179cd4fb995d2a5159c3382604051808373ffffffffffffffffffffffffffffffffffffffff1673ffffffffffffffffffffffffffffffffffffffff1681526020018273ffffffffffffffffffffffffffffffffffffffff1673ffffffffffffffffffffffffffffffffffffffff1681526020019250505060405180910390a150565b600760009054906101000a900473ffffffffffffffffffffffffffffffffffffffff1681565b815481835581811511610c0257818360005260206000209182019101610c019190610c07565b5b505050565b610c2991905b80821115610c25576000816000905550600101610c0d565b5090565b905600a165627a7a723058204550239dfc5109c2ff82c0fc4c87769afb5682a8b3e746da680f7dddd9a9e9490029",
  "source": "pragma solidity 0.4.18;\n\nimport \"../lib/Standard20Token.sol\";\nimport \"../lib/Owned.sol\";\n\n\ncontract PrivateList is Owned {\n\n    mapping (address => uint8) public votesReceived; // Amount that only can be changed in exchange of FTR\n    mapping (address => bool) public candidatesList;\n    address[] candidateAddressList; // To be removed (not necessary)\n\n    uint256 public maxNumCandidates;\n    uint256 private candidateCounter;\n\n    address public bountyPoolAddress = 0xdead; // By default, no Pool, tokens are removed\n\n    Standard20Token public token;\n\n    /**\n    * Creates a new Instance of a Voting Lists\n    * @param _tokenAddress Address of the token used for\n    * @param _maxNumCandidates maximum number of candidates\n    **/\n    function PrivateList(address _tokenAddress, uint256 _maxNumCandidates) public {\n        token = Standard20Token(_tokenAddress);\n        maxNumCandidates = _maxNumCandidates;\n    }\n\n    /**\n    * Adds a new candidate to the List\n    * @param _candidateAddress Account of the candidate to be added to the List\n    **/\n    function addCandidate(address _candidateAddress) public onlyOwner {\n        require(candidateCounter <= maxNumCandidates);\n        candidatesList[_candidateAddress] = true;\n        candidateAddressList.push(_candidateAddress);\n        candidateCounter += 1;\n        Add(_candidateAddress);\n    }\n\n    /**\n    * Removes a candidate to the List\n    * @param _candidateAddress Account of the candidate to be removed to the List\n    **/\n    function removeCandidate (address _candidateAddress) public onlyOwner {\n        candidatesList[_candidateAddress] = false;\n        candidateCounter -= 1;\n        Remove(_candidateAddress);\n    }\n\n    /**\n    * Adds a new vote for a candidate. It fails if the candidate hasn't approved before the specified amount\n    * @param _candidateAddress address of the candidate selected\n    * @param _amount of votes used\n    **/\n    function vote(address _candidateAddress, uint256 _amount) public returns (uint8) {\n        require(candidatesList[_candidateAddress] = true);\n        require(token.transferFrom(msg.sender, bountyPoolAddress, _amount));\n        votesReceived[_candidateAddress] += 1;\n        return votesReceived[_candidateAddress];\n    }\n\n    /**\n    * Sets the bounty pool address\n    * @param _bountyPoolAddress address of the bounty pool\n    **/\n    function setBountyPool(address _bountyPoolAddress) public {\n        bountyPoolAddress = _bountyPoolAddress;\n    }\n\n    event Add(address _candidateAddress);\n    event Remove(address _candidateAddress);\n}\n",
  "sourcePath": "/Users/influitysmallmac/Documents/Projects/consensys/Frontier/FrontierLists/contracts/Lists/PrivateList.sol",
  "compiler": {
    "name": "solc",
    "version": "0.4.18+commit.9cf6e910.Emscripten.clang"
  },
  "schemaVersion": "1.0.1",
  "updatedAt": "2018-01-18T17:23:33.745Z"
}