{
  "contractName": "Proxy",
  "abi": [
    {
      "constant": false,
      "inputs": [
        {
          "name": "_contractAddress",
          "type": "address"
        }
      ],
      "name": "setVoterRegistry",
      "outputs": [],
      "payable": false,
      "stateMutability": "nonpayable",
      "type": "function"
    },
    {
      "constant": false,
      "inputs": [
        {
          "name": "_contractAddress",
          "type": "address"
        }
      ],
      "name": "setToken",
      "outputs": [],
      "payable": false,
      "stateMutability": "nonpayable",
      "type": "function"
    },
    {
      "constant": true,
      "inputs": [],
      "name": "candidateRegistry",
      "outputs": [
        {
          "name": "",
          "type": "address"
        }
      ],
      "payable": false,
      "stateMutability": "view",
      "type": "function"
    },
    {
      "constant": true,
      "inputs": [
        {
          "name": "",
          "type": "uint256"
        },
        {
          "name": "",
          "type": "address"
        }
      ],
      "name": "votesReceived",
      "outputs": [
        {
          "name": "",
          "type": "uint256"
        }
      ],
      "payable": false,
      "stateMutability": "view",
      "type": "function"
    },
    {
      "constant": true,
      "inputs": [
        {
          "name": "",
          "type": "uint256"
        }
      ],
      "name": "votingConstraints",
      "outputs": [
        {
          "name": "",
          "type": "uint256"
        }
      ],
      "payable": false,
      "stateMutability": "view",
      "type": "function"
    },
    {
      "constant": false,
      "inputs": [
        {
          "name": "_contractAddress",
          "type": "address"
        }
      ],
      "name": "setPeriodicStages",
      "outputs": [],
      "payable": false,
      "stateMutability": "nonpayable",
      "type": "function"
    },
    {
      "constant": true,
      "inputs": [
        {
          "name": "",
          "type": "uint256"
        },
        {
          "name": "",
          "type": "address"
        }
      ],
      "name": "votesBalance",
      "outputs": [
        {
          "name": "",
          "type": "uint256"
        }
      ],
      "payable": false,
      "stateMutability": "view",
      "type": "function"
    },
    {
      "constant": false,
      "inputs": [
        {
          "name": "_contractAddress",
          "type": "address"
        }
      ],
      "name": "setVault",
      "outputs": [],
      "payable": false,
      "stateMutability": "nonpayable",
      "type": "function"
    },
    {
      "constant": true,
      "inputs": [
        {
          "name": "",
          "type": "uint256"
        }
      ],
      "name": "totalEpochVotes",
      "outputs": [
        {
          "name": "",
          "type": "uint256"
        }
      ],
      "payable": false,
      "stateMutability": "view",
      "type": "function"
    },
    {
      "constant": true,
      "inputs": [],
      "name": "periodicStages",
      "outputs": [
        {
          "name": "",
          "type": "address"
        }
      ],
      "payable": false,
      "stateMutability": "view",
      "type": "function"
    },
    {
      "constant": true,
      "inputs": [],
      "name": "owner",
      "outputs": [
        {
          "name": "",
          "type": "address"
        }
      ],
      "payable": false,
      "stateMutability": "view",
      "type": "function"
    },
    {
      "constant": true,
      "inputs": [
        {
          "name": "",
          "type": "uint256"
        }
      ],
      "name": "repWeights",
      "outputs": [
        {
          "name": "",
          "type": "uint256"
        }
      ],
      "payable": false,
      "stateMutability": "view",
      "type": "function"
    },
    {
      "constant": true,
      "inputs": [],
      "name": "voterRegistry",
      "outputs": [
        {
          "name": "",
          "type": "address"
        }
      ],
      "payable": false,
      "stateMutability": "view",
      "type": "function"
    },
    {
      "constant": false,
      "inputs": [
        {
          "name": "_contractAddress",
          "type": "address"
        }
      ],
      "name": "setCandidateRegistry",
      "outputs": [],
      "payable": false,
      "stateMutability": "nonpayable",
      "type": "function"
    },
    {
      "constant": true,
      "inputs": [],
      "name": "logicContract",
      "outputs": [
        {
          "name": "",
          "type": "address"
        }
      ],
      "payable": false,
      "stateMutability": "view",
      "type": "function"
    },
    {
      "constant": true,
      "inputs": [
        {
          "name": "",
          "type": "uint256"
        }
      ],
      "name": "stakingConstraints",
      "outputs": [
        {
          "name": "",
          "type": "uint256"
        }
      ],
      "payable": false,
      "stateMutability": "view",
      "type": "function"
    },
    {
      "constant": true,
      "inputs": [],
      "name": "reputationWindowSize",
      "outputs": [
        {
          "name": "",
          "type": "uint256"
        }
      ],
      "payable": false,
      "stateMutability": "view",
      "type": "function"
    },
    {
      "constant": false,
      "inputs": [
        {
          "name": "newOwner",
          "type": "address"
        }
      ],
      "name": "transferOwnership",
      "outputs": [],
      "payable": false,
      "stateMutability": "nonpayable",
      "type": "function"
    },
    {
      "constant": true,
      "inputs": [],
      "name": "vault",
      "outputs": [
        {
          "name": "",
          "type": "address"
        }
      ],
      "payable": false,
      "stateMutability": "view",
      "type": "function"
    },
    {
      "constant": true,
      "inputs": [],
      "name": "token",
      "outputs": [
        {
          "name": "",
          "type": "address"
        }
      ],
      "payable": false,
      "stateMutability": "view",
      "type": "function"
    },
    {
      "payable": true,
      "stateMutability": "payable",
      "type": "fallback"
    },
    {
      "anonymous": false,
      "inputs": [
        {
          "indexed": true,
          "name": "previousOwner",
          "type": "address"
        },
        {
          "indexed": true,
          "name": "newOwner",
          "type": "address"
        }
      ],
      "name": "OwnershipTransferred",
      "type": "event"
    },
    {
      "constant": false,
      "inputs": [
        {
          "name": "_account",
          "type": "address"
        }
      ],
      "name": "setContractLogic",
      "outputs": [
        {
          "name": "success",
          "type": "bool"
        }
      ],
      "payable": false,
      "stateMutability": "nonpayable",
      "type": "function"
    },
    {
      "constant": true,
      "inputs": [],
      "name": "proxyType",
      "outputs": [
        {
          "name": "proxyTypeId",
          "type": "uint256"
        }
      ],
      "payable": false,
      "stateMutability": "pure",
      "type": "function"
    },
    {
      "constant": true,
      "inputs": [],
      "name": "implementation",
      "outputs": [
        {
          "name": "",
          "type": "address"
        }
      ],
      "payable": false,
      "stateMutability": "view",
      "type": "function"
    }
  ],
  "bytecode": "0x60806040526040805190810160405280600060ff16815260200160fd60ff1681525060089060026100319291906100e1565b506040805190810160405280600060ff16815260200160fd60ff16815250600a90600261005f9291906100e1565b506000600c556001600d60006101000a81548160ff0219169083151502179055506000600d60016101000a81548160ff02191690831515021790555033600f60006101000a81548173ffffffffffffffffffffffffffffffffffffffff021916908373ffffffffffffffffffffffffffffffffffffffff16021790555061014b565b8260028101928215610115579160200282015b82811115610114578251829060ff169055916020019190600101906100f4565b5b5090506101229190610126565b5090565b61014891905b8082111561014457600081600090555060010161012c565b5090565b90565b610db78061015a6000396000f300608060405260043610610133576000357c0100000000000000000000000000000000000000000000000000000000900463ffffffff1680630ad303421461017a578063144fa6d7146101bd57806319de04771461020057806333dd6bed146102575780633c84107f146102b85780634555d5c9146102f95780635521b96f146103245780635706d0ec146103675780635c60da1b146103c85780636817031b1461041f57806373300f8f1461046257806381c8a8c4146104a35780638da5cb5b146104fa578063b2a5655114610551578063be60040e14610592578063c2546665146105e9578063cc0e97c91461062c578063dac93e1b14610683578063e43c8096146106c4578063f2fde38b146106ef578063f431563b14610732578063fbfa77cf1461078d578063fc0c546a146107e4575b600061013d61083b565b905060405136600082376000803683855af43d806000843e816000811461016b576001811461016f57610173565b8184fd5b8184f35b5050505050005b34801561018657600080fd5b506101bb600480360381019080803573ffffffffffffffffffffffffffffffffffffffff169060200190929190505050610865565b005b3480156101c957600080fd5b506101fe600480360381019080803573ffffffffffffffffffffffffffffffffffffffff1690602001909291905050506108a9565b005b34801561020c57600080fd5b506102156108ed565b604051808273ffffffffffffffffffffffffffffffffffffffff1673ffffffffffffffffffffffffffffffffffffffff16815260200191505060405180910390f35b34801561026357600080fd5b506102a260048036038101908080359060200190929190803573ffffffffffffffffffffffffffffffffffffffff169060200190929190505050610913565b6040518082815260200191505060405180910390f35b3480156102c457600080fd5b506102e360048036038101908080359060200190929190505050610938565b6040518082815260200191505060405180910390f35b34801561030557600080fd5b5061030e610952565b6040518082815260200191505060405180910390f35b34801561033057600080fd5b50610365600480360381019080803573ffffffffffffffffffffffffffffffffffffffff16906020019092919050505061095b565b005b34801561037357600080fd5b506103b260048036038101908080359060200190929190803573ffffffffffffffffffffffffffffffffffffffff16906020019092919050505061099f565b6040518082815260200191505060405180910390f35b3480156103d457600080fd5b506103dd61083b565b604051808273ffffffffffffffffffffffffffffffffffffffff1673ffffffffffffffffffffffffffffffffffffffff16815260200191505060405180910390f35b34801561042b57600080fd5b50610460600480360381019080803573ffffffffffffffffffffffffffffffffffffffff1690602001909291905050506109c4565b005b34801561046e57600080fd5b5061048d60048036038101908080359060200190929190505050610a08565b6040518082815260200191505060405180910390f35b3480156104af57600080fd5b506104b8610a20565b604051808273ffffffffffffffffffffffffffffffffffffffff1673ffffffffffffffffffffffffffffffffffffffff16815260200191505060405180910390f35b34801561050657600080fd5b5061050f610a46565b604051808273ffffffffffffffffffffffffffffffffffffffff1673ffffffffffffffffffffffffffffffffffffffff16815260200191505060405180910390f35b34801561055d57600080fd5b5061057c60048036038101908080359060200190929190505050610a6c565b6040518082815260200191505060405180910390f35b34801561059e57600080fd5b506105a7610a8f565b604051808273ffffffffffffffffffffffffffffffffffffffff1673ffffffffffffffffffffffffffffffffffffffff16815260200191505060405180910390f35b3480156105f557600080fd5b5061062a600480360381019080803573ffffffffffffffffffffffffffffffffffffffff169060200190929190505050610ab5565b005b34801561063857600080fd5b50610641610af9565b604051808273ffffffffffffffffffffffffffffffffffffffff1673ffffffffffffffffffffffffffffffffffffffff16815260200191505060405180910390f35b34801561068f57600080fd5b506106ae60048036038101908080359060200190929190505050610b1f565b6040518082815260200191505060405180910390f35b3480156106d057600080fd5b506106d9610b39565b6040518082815260200191505060405180910390f35b3480156106fb57600080fd5b50610730600480360381019080803573ffffffffffffffffffffffffffffffffffffffff169060200190929190505050610b3f565b005b34801561073e57600080fd5b50610773600480360381019080803573ffffffffffffffffffffffffffffffffffffffff169060200190929190505050610c97565b604051808215151515815260200191505060405180910390f35b34801561079957600080fd5b506107a2610d3f565b604051808273ffffffffffffffffffffffffffffffffffffffff1673ffffffffffffffffffffffffffffffffffffffff16815260200191505060405180910390f35b3480156107f057600080fd5b506107f9610d65565b604051808273ffffffffffffffffffffffffffffffffffffffff1673ffffffffffffffffffffffffffffffffffffffff16815260200191505060405180910390f35b6000601060009054906101000a900473ffffffffffffffffffffffffffffffffffffffff16905090565b80600460006101000a81548173ffffffffffffffffffffffffffffffffffffffff021916908373ffffffffffffffffffffffffffffffffffffffff16021790555050565b80600560006101000a81548173ffffffffffffffffffffffffffffffffffffffff021916908373ffffffffffffffffffffffffffffffffffffffff16021790555050565b600360009054906101000a900473ffffffffffffffffffffffffffffffffffffffff1681565b6000602052816000526040600020602052806000526040600020600091509150505481565b600a8160028110151561094757fe5b016000915090505481565b60006002905090565b80600660006101000a81548173ffffffffffffffffffffffffffffffffffffffff021916908373ffffffffffffffffffffffffffffffffffffffff16021790555050565b6001602052816000526040600020602052806000526040600020600091509150505481565b80600760006101000a81548173ffffffffffffffffffffffffffffffffffffffff021916908373ffffffffffffffffffffffffffffffffffffffff16021790555050565b60026020528060005260406000206000915090505481565b600660009054906101000a900473ffffffffffffffffffffffffffffffffffffffff1681565b600f60009054906101000a900473ffffffffffffffffffffffffffffffffffffffff1681565b600e81815481101515610a7b57fe5b906000526020600020016000915090505481565b600460009054906101000a900473ffffffffffffffffffffffffffffffffffffffff1681565b80600360006101000a81548173ffffffffffffffffffffffffffffffffffffffff021916908373ffffffffffffffffffffffffffffffffffffffff16021790555050565b601060009054906101000a900473ffffffffffffffffffffffffffffffffffffffff1681565b600881600281101515610b2e57fe5b016000915090505481565b600c5481565b600f60009054906101000a900473ffffffffffffffffffffffffffffffffffffffff1673ffffffffffffffffffffffffffffffffffffffff163373ffffffffffffffffffffffffffffffffffffffff16141515610b9b57600080fd5b600073ffffffffffffffffffffffffffffffffffffffff168173ffffffffffffffffffffffffffffffffffffffff1614151515610bd757600080fd5b8073ffffffffffffffffffffffffffffffffffffffff16600f60009054906101000a900473ffffffffffffffffffffffffffffffffffffffff1673ffffffffffffffffffffffffffffffffffffffff167f8be0079c531659141344cd1fd0a4f28419497f9722a3daafe3b4186f6b6457e060405160405180910390a380600f60006101000a81548173ffffffffffffffffffffffffffffffffffffffff021916908373ffffffffffffffffffffffffffffffffffffffff16021790555050565b6000600f60009054906101000a900473ffffffffffffffffffffffffffffffffffffffff1673ffffffffffffffffffffffffffffffffffffffff163373ffffffffffffffffffffffffffffffffffffffff16141515610cf557600080fd5b81601060006101000a81548173ffffffffffffffffffffffffffffffffffffffff021916908373ffffffffffffffffffffffffffffffffffffffff16021790555060019050919050565b600760009054906101000a900473ffffffffffffffffffffffffffffffffffffffff1681565b600560009054906101000a900473ffffffffffffffffffffffffffffffffffffffff16815600a165627a7a72305820bd46d94b0cab81dff1183f5b84f4196243d42fa5721a5a7e0effb38bf012dac50029",
  "source": "pragma solidity ^0.4.24;\n\nimport \"./TRLStorage.sol\";\nimport \"openzeppelin-solidity/contracts/ownership/Ownable.sol\";\n\n/**\n * A proxy Smart Contract following ERC897. Delegate calls to a target contract accessible via implementation() \n */\n\ncontract Proxy is TRLStorage, Ownable {\n\n    address public logicContract;\n\n    /**\n     * @dev Sets the target address where the calls will be delegated. \n     * @param _account Target address, that will be accesible via implementation()\n     */\n     \n    function setContractLogic(address _account) public returns (bool success) {\n        require(msg.sender == owner);\n        logicContract = _account;\n        return true;\n    }\n    \n    /**\n     * @dev ERC897, whether it is a forwarding (1) or an upgradeable (2) proxy\n     */\n\n    function proxyType() public pure returns (uint256 proxyTypeId) {\n        return 2;\n    }\n\n    /**\n    * @dev ERC897, the address the proxy would delegate calls to\n    */\n\n    function implementation() public view returns (address) {\n        return logicContract;\n    }\n\n    /**\n    * @dev Proxy function. Delegate calls to the address taken on implementation()\n    */\n\n    function () payable public {\n        address target = implementation();\n        assembly {\n            let ptr := mload(0x40)\n            calldatacopy(ptr, 0, calldatasize)\n            let result := delegatecall(gas, target, ptr, calldatasize, 0, 0)\n            let size := returndatasize\n            returndatacopy(ptr, 0, size)\n            switch result\n            case 0 { revert(ptr, size) }\n            case 1 { return(ptr, size) }\n        }\n    }\n}",
  "sourcePath": "/Users/carlosbuendia/Documents/Projects/consensys/Frontier/TRL/contracts/Proxy.sol",
  "compiler": {
    "name": "solc",
    "version": "0.4.24+commit.e67f0147.Emscripten.clang"
  },
  "schemaVersion": "2.0.0",
  "updatedAt": "2018-09-26T08:51:08.663Z"
}