{
  "contractName": "Proxy",
  "abi": [
    {
      "constant": true,
      "inputs": [
        {
          "name": "",
          "type": "uint256"
        }
      ],
      "name": "poolAmount",
      "outputs": [
        {
          "name": "",
          "type": "uint256"
        }
      ],
      "payable": false,
      "stateMutability": "view",
      "type": "function"
    },
    {
      "constant": false,
      "inputs": [
        {
          "name": "_contractAddress",
          "type": "address"
        }
      ],
      "name": "setVoterRegistry",
      "outputs": [],
      "payable": false,
      "stateMutability": "nonpayable",
      "type": "function"
    },
    {
      "constant": false,
      "inputs": [
        {
          "name": "_contractAddress",
          "type": "address"
        }
      ],
      "name": "setToken",
      "outputs": [],
      "payable": false,
      "stateMutability": "nonpayable",
      "type": "function"
    },
    {
      "constant": true,
      "inputs": [],
      "name": "candidateRegistry",
      "outputs": [
        {
          "name": "",
          "type": "address"
        }
      ],
      "payable": false,
      "stateMutability": "view",
      "type": "function"
    },
    {
      "constant": true,
      "inputs": [
        {
          "name": "",
          "type": "uint256"
        },
        {
          "name": "",
          "type": "address"
        }
      ],
      "name": "votesReceived",
      "outputs": [
        {
          "name": "",
          "type": "uint256"
        }
      ],
      "payable": false,
      "stateMutability": "view",
      "type": "function"
    },
    {
      "constant": true,
      "inputs": [
        {
          "name": "",
          "type": "uint256"
        }
      ],
      "name": "votingConstraints",
      "outputs": [
        {
          "name": "",
          "type": "uint256"
        }
      ],
      "payable": false,
      "stateMutability": "view",
      "type": "function"
    },
    {
      "constant": false,
      "inputs": [
        {
          "name": "_contractAddress",
          "type": "address"
        }
      ],
      "name": "setPeriodicStages",
      "outputs": [],
      "payable": false,
      "stateMutability": "nonpayable",
      "type": "function"
    },
    {
      "constant": true,
      "inputs": [
        {
          "name": "",
          "type": "uint256"
        },
        {
          "name": "",
          "type": "address"
        }
      ],
      "name": "votesBalance",
      "outputs": [
        {
          "name": "",
          "type": "uint256"
        }
      ],
      "payable": false,
      "stateMutability": "view",
      "type": "function"
    },
    {
      "constant": true,
      "inputs": [
        {
          "name": "",
          "type": "uint256"
        }
      ],
      "name": "totalEpochVotes",
      "outputs": [
        {
          "name": "",
          "type": "uint256"
        }
      ],
      "payable": false,
      "stateMutability": "view",
      "type": "function"
    },
    {
      "constant": true,
      "inputs": [],
      "name": "periodicStages",
      "outputs": [
        {
          "name": "",
          "type": "address"
        }
      ],
      "payable": false,
      "stateMutability": "view",
      "type": "function"
    },
    {
      "constant": true,
      "inputs": [],
      "name": "owner",
      "outputs": [
        {
          "name": "",
          "type": "address"
        }
      ],
      "payable": false,
      "stateMutability": "view",
      "type": "function"
    },
    {
      "constant": true,
      "inputs": [
        {
          "name": "",
          "type": "uint256"
        }
      ],
      "name": "repWeights",
      "outputs": [
        {
          "name": "",
          "type": "uint256"
        }
      ],
      "payable": false,
      "stateMutability": "view",
      "type": "function"
    },
    {
      "constant": true,
      "inputs": [],
      "name": "voterRegistry",
      "outputs": [
        {
          "name": "",
          "type": "address"
        }
      ],
      "payable": false,
      "stateMutability": "view",
      "type": "function"
    },
    {
      "constant": false,
      "inputs": [
        {
          "name": "_contractAddress",
          "type": "address"
        }
      ],
      "name": "setCandidateRegistry",
      "outputs": [],
      "payable": false,
      "stateMutability": "nonpayable",
      "type": "function"
    },
    {
      "constant": true,
      "inputs": [],
      "name": "logicContract",
      "outputs": [
        {
          "name": "",
          "type": "address"
        }
      ],
      "payable": false,
      "stateMutability": "view",
      "type": "function"
    },
    {
      "constant": true,
      "inputs": [
        {
          "name": "",
          "type": "uint256"
        }
      ],
      "name": "stakingConstraints",
      "outputs": [
        {
          "name": "",
          "type": "uint256"
        }
      ],
      "payable": false,
      "stateMutability": "view",
      "type": "function"
    },
    {
      "constant": true,
      "inputs": [],
      "name": "reputationWindowSize",
      "outputs": [
        {
          "name": "",
          "type": "uint256"
        }
      ],
      "payable": false,
      "stateMutability": "view",
      "type": "function"
    },
    {
      "constant": false,
      "inputs": [
        {
          "name": "newOwner",
          "type": "address"
        }
      ],
      "name": "transferOwnership",
      "outputs": [],
      "payable": false,
      "stateMutability": "nonpayable",
      "type": "function"
    },
    {
      "constant": true,
      "inputs": [],
      "name": "token",
      "outputs": [
        {
          "name": "",
          "type": "address"
        }
      ],
      "payable": false,
      "stateMutability": "view",
      "type": "function"
    },
    {
      "payable": true,
      "stateMutability": "payable",
      "type": "fallback"
    },
    {
      "anonymous": false,
      "inputs": [
        {
          "indexed": true,
          "name": "previousOwner",
          "type": "address"
        },
        {
          "indexed": true,
          "name": "newOwner",
          "type": "address"
        }
      ],
      "name": "OwnershipTransferred",
      "type": "event"
    },
    {
      "constant": false,
      "inputs": [
        {
          "name": "_account",
          "type": "address"
        }
      ],
      "name": "setContractLogic",
      "outputs": [
        {
          "name": "success",
          "type": "bool"
        }
      ],
      "payable": false,
      "stateMutability": "nonpayable",
      "type": "function"
    },
    {
      "constant": true,
      "inputs": [],
      "name": "proxyType",
      "outputs": [
        {
          "name": "proxyTypeId",
          "type": "uint256"
        }
      ],
      "payable": false,
      "stateMutability": "pure",
      "type": "function"
    },
    {
      "constant": true,
      "inputs": [],
      "name": "implementation",
      "outputs": [
        {
          "name": "",
          "type": "address"
        }
      ],
      "payable": false,
      "stateMutability": "view",
      "type": "function"
    }
  ],
  "bytecode": "0x60806040526040805190810160405280600060ff16815260200160fd60ff1681525060099060026100319291906100e1565b506040805190810160405280600060ff16815260200160fd60ff16815250600b90600261005f9291906100e1565b506000600d556001600e60006101000a81548160ff0219169083151502179055506000600e60016101000a81548160ff02191690831515021790555033601060006101000a81548173ffffffffffffffffffffffffffffffffffffffff021916908373ffffffffffffffffffffffffffffffffffffffff16021790555061014b565b8260028101928215610115579160200282015b82811115610114578251829060ff169055916020019190600101906100f4565b5b5090506101229190610126565b5090565b61014891905b8082111561014457600081600090555060010161012c565b5090565b90565b610d018061015a6000396000f300608060405260043610610128576000357c0100000000000000000000000000000000000000000000000000000000900463ffffffff168063021594971461016f5780630ad30342146101b0578063144fa6d7146101f357806319de04771461023657806333dd6bed1461028d5780633c84107f146102ee5780634555d5c91461032f5780635521b96f1461035a5780635706d0ec1461039d5780635c60da1b146103fe57806373300f8f1461045557806381c8a8c4146104965780638da5cb5b146104ed578063b2a5655114610544578063be60040e14610585578063c2546665146105dc578063cc0e97c91461061f578063dac93e1b14610676578063e43c8096146106b7578063f2fde38b146106e2578063f431563b14610725578063fc0c546a14610780575b60006101326107d7565b905060405136600082376000803683855af43d806000843e8160008114610160576001811461016457610168565b8184fd5b8184f35b5050505050005b34801561017b57600080fd5b5061019a60048036038101908080359060200190929190505050610801565b6040518082815260200191505060405180910390f35b3480156101bc57600080fd5b506101f1600480360381019080803573ffffffffffffffffffffffffffffffffffffffff169060200190929190505050610819565b005b3480156101ff57600080fd5b50610234600480360381019080803573ffffffffffffffffffffffffffffffffffffffff16906020019092919050505061085d565b005b34801561024257600080fd5b5061024b6108a1565b604051808273ffffffffffffffffffffffffffffffffffffffff1673ffffffffffffffffffffffffffffffffffffffff16815260200191505060405180910390f35b34801561029957600080fd5b506102d860048036038101908080359060200190929190803573ffffffffffffffffffffffffffffffffffffffff1690602001909291905050506108c7565b6040518082815260200191505060405180910390f35b3480156102fa57600080fd5b50610319600480360381019080803590602001909291905050506108ec565b6040518082815260200191505060405180910390f35b34801561033b57600080fd5b50610344610906565b6040518082815260200191505060405180910390f35b34801561036657600080fd5b5061039b600480360381019080803573ffffffffffffffffffffffffffffffffffffffff16906020019092919050505061090f565b005b3480156103a957600080fd5b506103e860048036038101908080359060200190929190803573ffffffffffffffffffffffffffffffffffffffff169060200190929190505050610953565b6040518082815260200191505060405180910390f35b34801561040a57600080fd5b506104136107d7565b604051808273ffffffffffffffffffffffffffffffffffffffff1673ffffffffffffffffffffffffffffffffffffffff16815260200191505060405180910390f35b34801561046157600080fd5b5061048060048036038101908080359060200190929190505050610978565b6040518082815260200191505060405180910390f35b3480156104a257600080fd5b506104ab610990565b604051808273ffffffffffffffffffffffffffffffffffffffff1673ffffffffffffffffffffffffffffffffffffffff16815260200191505060405180910390f35b3480156104f957600080fd5b506105026109b6565b604051808273ffffffffffffffffffffffffffffffffffffffff1673ffffffffffffffffffffffffffffffffffffffff16815260200191505060405180910390f35b34801561055057600080fd5b5061056f600480360381019080803590602001909291905050506109dc565b6040518082815260200191505060405180910390f35b34801561059157600080fd5b5061059a6109ff565b604051808273ffffffffffffffffffffffffffffffffffffffff1673ffffffffffffffffffffffffffffffffffffffff16815260200191505060405180910390f35b3480156105e857600080fd5b5061061d600480360381019080803573ffffffffffffffffffffffffffffffffffffffff169060200190929190505050610a25565b005b34801561062b57600080fd5b50610634610a69565b604051808273ffffffffffffffffffffffffffffffffffffffff1673ffffffffffffffffffffffffffffffffffffffff16815260200191505060405180910390f35b34801561068257600080fd5b506106a160048036038101908080359060200190929190505050610a8f565b6040518082815260200191505060405180910390f35b3480156106c357600080fd5b506106cc610aa9565b6040518082815260200191505060405180910390f35b3480156106ee57600080fd5b50610723600480360381019080803573ffffffffffffffffffffffffffffffffffffffff169060200190929190505050610aaf565b005b34801561073157600080fd5b50610766600480360381019080803573ffffffffffffffffffffffffffffffffffffffff169060200190929190505050610c07565b604051808215151515815260200191505060405180910390f35b34801561078c57600080fd5b50610795610caf565b604051808273ffffffffffffffffffffffffffffffffffffffff1673ffffffffffffffffffffffffffffffffffffffff16815260200191505060405180910390f35b6000601160009054906101000a900473ffffffffffffffffffffffffffffffffffffffff16905090565b60036020528060005260406000206000915090505481565b80600660006101000a81548173ffffffffffffffffffffffffffffffffffffffff021916908373ffffffffffffffffffffffffffffffffffffffff16021790555050565b80600760006101000a81548173ffffffffffffffffffffffffffffffffffffffff021916908373ffffffffffffffffffffffffffffffffffffffff16021790555050565b600560009054906101000a900473ffffffffffffffffffffffffffffffffffffffff1681565b6000602052816000526040600020602052806000526040600020600091509150505481565b600b816002811015156108fb57fe5b016000915090505481565b60006002905090565b80600860006101000a81548173ffffffffffffffffffffffffffffffffffffffff021916908373ffffffffffffffffffffffffffffffffffffffff16021790555050565b6001602052816000526040600020602052806000526040600020600091509150505481565b60046020528060005260406000206000915090505481565b600860009054906101000a900473ffffffffffffffffffffffffffffffffffffffff1681565b601060009054906101000a900473ffffffffffffffffffffffffffffffffffffffff1681565b600f818154811015156109eb57fe5b906000526020600020016000915090505481565b600660009054906101000a900473ffffffffffffffffffffffffffffffffffffffff1681565b80600560006101000a81548173ffffffffffffffffffffffffffffffffffffffff021916908373ffffffffffffffffffffffffffffffffffffffff16021790555050565b601160009054906101000a900473ffffffffffffffffffffffffffffffffffffffff1681565b600981600281101515610a9e57fe5b016000915090505481565b600d5481565b601060009054906101000a900473ffffffffffffffffffffffffffffffffffffffff1673ffffffffffffffffffffffffffffffffffffffff163373ffffffffffffffffffffffffffffffffffffffff16141515610b0b57600080fd5b600073ffffffffffffffffffffffffffffffffffffffff168173ffffffffffffffffffffffffffffffffffffffff1614151515610b4757600080fd5b8073ffffffffffffffffffffffffffffffffffffffff16601060009054906101000a900473ffffffffffffffffffffffffffffffffffffffff1673ffffffffffffffffffffffffffffffffffffffff167f8be0079c531659141344cd1fd0a4f28419497f9722a3daafe3b4186f6b6457e060405160405180910390a380601060006101000a81548173ffffffffffffffffffffffffffffffffffffffff021916908373ffffffffffffffffffffffffffffffffffffffff16021790555050565b6000601060009054906101000a900473ffffffffffffffffffffffffffffffffffffffff1673ffffffffffffffffffffffffffffffffffffffff163373ffffffffffffffffffffffffffffffffffffffff16141515610c6557600080fd5b81601160006101000a81548173ffffffffffffffffffffffffffffffffffffffff021916908373ffffffffffffffffffffffffffffffffffffffff16021790555060019050919050565b600760009054906101000a900473ffffffffffffffffffffffffffffffffffffffff16815600a165627a7a723058209d45baf1ef2cb5ef6832e22807b6f80c14173bb5730a666990ae8992e89a26dc0029",
  "source": "pragma solidity ^0.4.24;\n\nimport \"./TRLStorage.sol\";\nimport \"openzeppelin-solidity/contracts/ownership/Ownable.sol\";\n\n/**\n * A proxy Smart Contract following ERC897. Delegate calls to a target contract accessible via implementation() \n */\n\ncontract Proxy is TRLStorage, Ownable {\n\n    address public logicContract;\n\n    /**\n     * @dev Sets the target address where the calls will be delegated. \n     * @param _account Target address, that will be accesible via implementation()\n     */\n     \n    function setContractLogic(address _account) public returns (bool success) {\n        require(msg.sender == owner);\n        logicContract = _account;\n        return true;\n    }\n    \n    /**\n     * @dev ERC897, whether it is a forwarding (1) or an upgradeable (2) proxy\n     */\n\n    function proxyType() public pure returns (uint256 proxyTypeId) {\n        return 2;\n    }\n\n    /**\n    * @dev ERC897, the address the proxy would delegate calls to\n    */\n\n    function implementation() public view returns (address) {\n        return logicContract;\n    }\n\n    /**\n    * @dev Proxy function. Delegate calls to the address taken on implementation()\n    */\n\n    function () payable public {\n        address target = implementation();\n        assembly {\n            let ptr := mload(0x40)\n            calldatacopy(ptr, 0, calldatasize)\n            let result := delegatecall(gas, target, ptr, calldatasize, 0, 0)\n            let size := returndatasize\n            returndatacopy(ptr, 0, size)\n            switch result\n            case 0 { revert(ptr, size) }\n            case 1 { return(ptr, size) }\n        }\n    }\n}",
  "sourcePath": "/Users/carlosbuendia/Documents/Projects/consensys/Frontier/TRL/contracts/Proxy.sol",
  "compiler": {
    "name": "solc",
    "version": "0.4.24+commit.e67f0147.Emscripten.clang"
  },
  "schemaVersion": "2.0.0",
  "updatedAt": "2018-09-24T10:55:44.462Z"
}