{
  "contractName": "QuickSorter",
  "abi": [
    {
      "constant": false,
      "inputs": [
        {
          "name": "data",
          "type": "uint256[] storage"
        }
      ],
      "name": "sort",
      "outputs": [],
      "payable": false,
      "stateMutability": "nonpayable",
      "type": "function"
    }
  ],
  "bytecode": "0x6060604052341561000f57600080fd5b6104248061001e6000396000f300606060405260043610610041576000357c0100000000000000000000000000000000000000000000000000000000900463ffffffff168063d6db1bb414610046575b600080fd5b61005c600480803590602001909190505061005e565b005b60006100686103e4565b60006100726103e4565b6000806000806000808a805490509950896040518059106100905750595b90808252806020026020018201604052509850600097505b898810156100f3578a888154811015156100be57fe5b90600052602060002090015489898151811015156100d857fe5b906020019060200201818152505087806001019850506100a8565b60028a016040518059106101045750595b90808252806020026020018201604052509650600195506000878781518110151561012b57fe5b906020019060200201818152505060018601955060018a03878781518110151561015157fe5b90602001906020020181815250505b600086111561038857868681518110151561017757fe5b906020019060200201519450600186039550868681518110151561019757fe5b90602001906020020151935060018603955083975088858151811015156101ba57fe5b9060200190602002015192508391505b8482101561026e578289838151811015156101e157fe5b9060200190602002015111151561026157888281518110151561020057fe5b90602001906020020151898981518110151561021857fe5b906020019060200201518a8a81518110151561023057fe5b9060200190602002018b8581518110151561024757fe5b906020019060200201828152508281525050506001880197505b81806001019250506101ca565b888581518110151561027c57fe5b90602001906020020151898981518110151561029457fe5b906020019060200201518a8a8151811015156102ac57fe5b9060200190602002018b888151811015156102c357fe5b906020019060200201828152508281525050508790506001840181111561032e576001860195508387878151811015156102f957fe5b906020019060200201818152505060018601955060018103878781518110151561031f57fe5b90602001906020020181815250505b846001820110156103835760018601955060018101878781518110151561035157fe5b906020019060200201818152505060018601955084878781518110151561037457fe5b90602001906020020181815250505b610160565b600097505b898810156103d75788888151811015156103a357fe5b906020019060200201518b898154811015156103bb57fe5b906000526020600020900181905550878060010198505061038d565b5050505050505050505050565b6020604051908101604052806000815250905600a165627a7a72305820494ef60c249c15830420224a4aff681cd16c7030706aa7cb4049b0ab2c7e609e0029",
  "source": "pragma solidity ^0.4.11;\n\nlibrary QuickSorter {\n\n  function sort(uint[] storage data) public {\n\n    uint n = data.length;\n    uint[] memory arr = new uint[](n);\n    uint i;\n\n    for(i=0; i<n; i++) {\n      arr[i] = data[i];\n    }\n\n    uint[] memory stack = new uint[](n+2);\n\n    //Push initial lower and higher bound\n    uint top = 1;\n    stack[top] = 0;\n    top = top + 1;\n    stack[top] = n-1;\n\n    //Keep popping from stack while is not empty\n    while (top > 0) {\n\n      uint h = stack[top];\n      top = top - 1;\n      uint l = stack[top];\n      top = top - 1;\n\n      i = l;\n      uint x = arr[h];\n\n      for(uint j=l; j<h; j++){\n        if  (arr[j] <= x) {\n          //Move smaller element\n          (arr[i], arr[j]) = (arr[j],arr[i]);\n          i = i + 1;\n        }\n      }\n      (arr[i], arr[h]) = (arr[h],arr[i]);\n      uint p = i;\n\n      //Push left side to stack\n      if (p > l + 1) {\n        top = top + 1;\n        stack[top] = l;\n        top = top + 1;\n        stack[top] = p - 1;\n      }\n\n      //Push right side to stack\n      if (p+1 < h) {\n        top = top + 1;\n        stack[top] = p + 1;\n        top = top + 1;\n        stack[top] = h;\n      }\n    }\n    for(i=0; i<n; i++) {\n      data[i] = arr[i];\n    }\n  }\n\n}\n",
  "sourcePath": "/Users/carlosbuendia/Documents/Projects/consensys/Frontier/FrontierLists/contracts/Lists/lib/QuickSorter.sol",
  "compiler": {
    "name": "solc",
    "version": "0.4.19+commit.c4cbbb05.Emscripten.clang"
  },
  "schemaVersion": "2.0.0",
  "updatedAt": "2018-03-05T16:15:27.397Z"
}