{
  "contractName": "Stack",
  "abi": [
    {
      "constant": true,
      "inputs": [],
      "name": "totalCapacity",
      "outputs": [
        {
          "name": "",
          "type": "uint256"
        }
      ],
      "payable": false,
      "stateMutability": "view",
      "type": "function"
    },
    {
      "constant": true,
      "inputs": [
        {
          "name": "",
          "type": "uint256"
        }
      ],
      "name": "strg",
      "outputs": [
        {
          "name": "",
          "type": "uint256"
        }
      ],
      "payable": false,
      "stateMutability": "view",
      "type": "function"
    },
    {
      "constant": true,
      "inputs": [],
      "name": "stackPointer",
      "outputs": [
        {
          "name": "",
          "type": "uint256"
        }
      ],
      "payable": false,
      "stateMutability": "view",
      "type": "function"
    },
    {
      "constant": false,
      "inputs": [],
      "name": "renounceOwnership",
      "outputs": [],
      "payable": false,
      "stateMutability": "nonpayable",
      "type": "function"
    },
    {
      "constant": true,
      "inputs": [],
      "name": "owner",
      "outputs": [
        {
          "name": "",
          "type": "address"
        }
      ],
      "payable": false,
      "stateMutability": "view",
      "type": "function"
    },
    {
      "constant": true,
      "inputs": [],
      "name": "isOwner",
      "outputs": [
        {
          "name": "",
          "type": "bool"
        }
      ],
      "payable": false,
      "stateMutability": "view",
      "type": "function"
    },
    {
      "constant": true,
      "inputs": [
        {
          "name": "",
          "type": "uint256"
        }
      ],
      "name": "exportValue",
      "outputs": [
        {
          "name": "",
          "type": "uint256"
        }
      ],
      "payable": false,
      "stateMutability": "view",
      "type": "function"
    },
    {
      "constant": false,
      "inputs": [
        {
          "name": "newOwner",
          "type": "address"
        }
      ],
      "name": "transferOwnership",
      "outputs": [],
      "payable": false,
      "stateMutability": "nonpayable",
      "type": "function"
    },
    {
      "inputs": [
        {
          "name": "_totalCapacity",
          "type": "uint256"
        }
      ],
      "payable": false,
      "stateMutability": "nonpayable",
      "type": "constructor"
    },
    {
      "anonymous": false,
      "inputs": [
        {
          "indexed": true,
          "name": "previousOwner",
          "type": "address"
        },
        {
          "indexed": true,
          "name": "newOwner",
          "type": "address"
        }
      ],
      "name": "OwnershipTransferred",
      "type": "event"
    },
    {
      "constant": true,
      "inputs": [],
      "name": "height",
      "outputs": [
        {
          "name": "",
          "type": "uint256"
        }
      ],
      "payable": false,
      "stateMutability": "view",
      "type": "function"
    },
    {
      "constant": false,
      "inputs": [
        {
          "name": "_size",
          "type": "uint256"
        }
      ],
      "name": "push",
      "outputs": [],
      "payable": false,
      "stateMutability": "nonpayable",
      "type": "function"
    },
    {
      "constant": false,
      "inputs": [],
      "name": "pop",
      "outputs": [],
      "payable": false,
      "stateMutability": "nonpayable",
      "type": "function"
    },
    {
      "constant": false,
      "inputs": [],
      "name": "empty",
      "outputs": [],
      "payable": false,
      "stateMutability": "nonpayable",
      "type": "function"
    },
    {
      "constant": true,
      "inputs": [
        {
          "name": "slotIndex",
          "type": "uint256"
        },
        {
          "name": "position",
          "type": "uint256"
        }
      ],
      "name": "positionIsOnSlot",
      "outputs": [
        {
          "name": "",
          "type": "bool"
        }
      ],
      "payable": false,
      "stateMutability": "view",
      "type": "function"
    }
  ],
  "bytecode": "0x608060405234801561001057600080fd5b50604051602080610b1d83398101806040528101908080519060200190929190505050336000806101000a81548173ffffffffffffffffffffffffffffffffffffffff021916908373ffffffffffffffffffffffffffffffffffffffff1602179055506000809054906101000a900473ffffffffffffffffffffffffffffffffffffffff1673ffffffffffffffffffffffffffffffffffffffff16600073ffffffffffffffffffffffffffffffffffffffff167f8be0079c531659141344cd1fd0a4f28419497f9722a3daafe3b4186f6b6457e060405160405180910390a38060048190555050610a17806101066000396000f3006080604052600436106100c5576000357c0100000000000000000000000000000000000000000000000000000000900463ffffffff1680630ef26743146100ca5780632f91f1f4146100f55780634a720f27146101205780635439e423146101615780636f54dce51461018c578063715018a6146101db5780638da5cb5b146101f25780638f32d59b14610249578063959ac48414610278578063a4ece52c146102a5578063b1becf2a146102bc578063f2a75fe4146102fd578063f2fde38b14610314575b600080fd5b3480156100d657600080fd5b506100df610357565b6040518082815260200191505060405180910390f35b34801561010157600080fd5b5061010a610361565b6040518082815260200191505060405180910390f35b34801561012c57600080fd5b5061014b60048036038101908080359060200190929190505050610367565b6040518082815260200191505060405180910390f35b34801561016d57600080fd5b5061017661038a565b6040518082815260200191505060405180910390f35b34801561019857600080fd5b506101c16004803603810190808035906020019092919080359060200190929190505050610390565b604051808215151515815260200191505060405180910390f35b3480156101e757600080fd5b506101f061040b565b005b3480156101fe57600080fd5b506102076104dd565b604051808273ffffffffffffffffffffffffffffffffffffffff1673ffffffffffffffffffffffffffffffffffffffff16815260200191505060405180910390f35b34801561025557600080fd5b5061025e610506565b604051808215151515815260200191505060405180910390f35b34801561028457600080fd5b506102a36004803603810190808035906020019092919050505061055d565b005b3480156102b157600080fd5b506102ba610681565b005b3480156102c857600080fd5b506102e7600480360381019080803590602001909291905050506107e6565b6040518082815260200191505060405180910390f35b34801561030957600080fd5b506103126107fe565b005b34801561032057600080fd5b50610355600480360381019080803573ffffffffffffffffffffffffffffffffffffffff169060200190929190505050610881565b005b6000600554905090565b60045481565b60018181548110151561037657fe5b906000526020600020016000915090505481565b60035481565b6000808314156103be576001838154811015156103a957fe5b90600052602060002001548211159050610405565b60018084038154811015156103cf57fe5b9060005260206000200154821015801561040257506001838154811015156103f357fe5b90600052602060002001548211155b90505b92915050565b610413610506565b151561041e57600080fd5b600073ffffffffffffffffffffffffffffffffffffffff166000809054906101000a900473ffffffffffffffffffffffffffffffffffffffff1673ffffffffffffffffffffffffffffffffffffffff167f8be0079c531659141344cd1fd0a4f28419497f9722a3daafe3b4186f6b6457e060405160405180910390a360008060006101000a81548173ffffffffffffffffffffffffffffffffffffffff021916908373ffffffffffffffffffffffffffffffffffffffff160217905550565b60008060009054906101000a900473ffffffffffffffffffffffffffffffffffffffff16905090565b60008060009054906101000a900473ffffffffffffffffffffffffffffffffffffffff1673ffffffffffffffffffffffffffffffffffffffff163373ffffffffffffffffffffffffffffffffffffffff1614905090565b6105656104dd565b73ffffffffffffffffffffffffffffffffffffffff163373ffffffffffffffffffffffffffffffffffffffff1614151561059e57600080fd5b60045481600354011115151561061c576040517f08c379a00000000000000000000000000000000000000000000000000000000081526004018080602001828103825260128152602001807f424c4f434b5f4e554d5f4f564552464c4f57000000000000000000000000000081525060200191505060405180910390fd5b600181600354019080600181540180825580915050906001820390600052602060002001600090919290919091505550806003600082825401925050819055506005600081548092919060010191905055506004546003541115151561067e57fe5b50565b600061068b6104dd565b73ffffffffffffffffffffffffffffffffffffffff163373ffffffffffffffffffffffffffffffffffffffff161415156106c457600080fd5b6000600180549050111515610741576040517f08c379a000000000000000000000000000000000000000000000000000000000815260040180806020018281038252600d8152602001807f454d5054592053544f524147450000000000000000000000000000000000000081525060200191505060405180910390fd5b60018080805490500381548110151561075657fe5b9060005260206000200154905060018080805490500381548110151561077857fe5b9060005260206000200160009055600180548091906001900361079b919061099a565b50600060018054905014156107bf57600060058190555060006003819055506107e3565b60056000815480929190600190039190505550806003600082825403925050819055505b50565b60026020528060005260406000206000915090505481565b6000806108096104dd565b73ffffffffffffffffffffffffffffffffffffffff163373ffffffffffffffffffffffffffffffffffffffff1614151561084257600080fd5b6001805490509150600090505b8181101561086c5761085f610681565b808060010191505061084f565b600060018054905014151561087d57fe5b5050565b610889610506565b151561089457600080fd5b61089d816108a0565b50565b600073ffffffffffffffffffffffffffffffffffffffff168173ffffffffffffffffffffffffffffffffffffffff16141515156108dc57600080fd5b8073ffffffffffffffffffffffffffffffffffffffff166000809054906101000a900473ffffffffffffffffffffffffffffffffffffffff1673ffffffffffffffffffffffffffffffffffffffff167f8be0079c531659141344cd1fd0a4f28419497f9722a3daafe3b4186f6b6457e060405160405180910390a3806000806101000a81548173ffffffffffffffffffffffffffffffffffffffff021916908373ffffffffffffffffffffffffffffffffffffffff16021790555050565b8154818355818111156109c1578183600052602060002091820191016109c091906109c6565b5b505050565b6109e891905b808211156109e45760008160009055506001016109cc565b5090565b905600a165627a7a72305820b2953083fc28c07d6b36c31d4c089fe8cd9363eda9b904fc35caf58f08fe68240029",
  "source": "pragma solidity 0.4.24;\n\nimport \"openzeppelin-solidity/contracts/math/SafeMath.sol\";\nimport \"openzeppelin-solidity/contracts/ownership/Ownable.sol\";\n\n/**\n * A simple FIFO blockstack. \n * Enables to manage tasks inside a certain capacity \n */\n\ncontract Stack is Ownable { \n    \n    // Each Value represents the final position of a slot\n    uint256[] public strg; \n    \n    //Assigned value for each Slot\n    mapping (uint256 => uint256) public exportValue;\n\n    // Current pointer of the Stack\n    uint256 public stackPointer;\n\n    // Total Capacity assigned for this stack\n    uint256 public totalCapacity;\n\n    // Current height (number of assigned Slots) of this Stack\n    uint256 public height; \n\n\n    constructor(uint256 _totalCapacity) public {\n        totalCapacity = _totalCapacity;\n    }\n\n    /**\n     * Current amount of slots that are used inside the stack\n     * @return height uint representing the amount of slots already reserved in the stack\n     */\n\n    function height() public view returns (uint256) {\n        return height;\n    }\n\n    /**\n     * Push a new value to storage if it fits, thus moving the pointer += size\n     * @param _size value that will be inserted into the stack\n     */\n\n    function push(uint256 _size) public {\n        require(msg.sender == owner());\n        require((stackPointer + _size) <= totalCapacity, 'BLOCK_NUM_OVERFLOW');\n        strg.push(stackPointer + _size);\n        stackPointer += _size;\n        height ++;\n        assert(stackPointer <= totalCapacity);\n    }\n\n    /**\n     * Pops the last value from storage\n     */\n    function pop() public {\n        require(msg.sender == owner());\n        require(strg.length > 0, 'EMPTY STORAGE');\n        uint256 slotSizeToEmpty = strg[strg.length-1];\n        delete strg[strg.length-1];\n        strg.length --;\n        if (strg.length == 0) {\n            height = 0;\n            stackPointer = 0;\n        }\n        else{\n            height --;\n            stackPointer -= slotSizeToEmpty;\n        }\n    }\n\n    /**\n     * Removes every single value from the Stack\n     */\n    function empty() public {\n        require(msg.sender == owner());\n        uint256 l = strg.length;\n        for (uint i = 0; i < l; i++){\n            pop();\n        }\n        assert(strg.length == 0);\n    }\n\n    /**\n     * Returns true if a given position is in the range of a certain slot\n     * @param slotIndex Position in the storage array\n     * @param position Position that is checked to be inside the slot range\n     * @return true if the position i is inside the given slot\n     */\n\n    function positionIsOnSlot(uint256 slotIndex, uint256 position) public view returns (bool) {\n        if(slotIndex == 0){\n            return  position <= strg[slotIndex];\n        }\n        else{\n            return (position >= strg[slotIndex-1] && position <= strg[slotIndex]);\n        }\n    }\n}",
  "sourcePath": "@frontier-token-research/cron/contracts/Stack.sol",
  "compiler": {
    "name": "solc",
    "version": "0.4.24+commit.e67f0147.Emscripten.clang"
  },
  "schemaVersion": "2.0.0",
  "updatedAt": "2018-11-07T17:07:00.635Z"
}