{
  "contractName": "Stack",
  "abi": [
    {
      "constant": true,
      "inputs": [],
      "name": "totalCapacity",
      "outputs": [
        {
          "name": "",
          "type": "uint256"
        }
      ],
      "payable": false,
      "stateMutability": "view",
      "type": "function"
    },
    {
      "constant": true,
      "inputs": [
        {
          "name": "",
          "type": "uint256"
        }
      ],
      "name": "strg",
      "outputs": [
        {
          "name": "",
          "type": "uint256"
        }
      ],
      "payable": false,
      "stateMutability": "view",
      "type": "function"
    },
    {
      "constant": true,
      "inputs": [],
      "name": "stackPointer",
      "outputs": [
        {
          "name": "",
          "type": "uint256"
        }
      ],
      "payable": false,
      "stateMutability": "view",
      "type": "function"
    },
    {
      "inputs": [
        {
          "name": "_totalCapacity",
          "type": "uint256"
        }
      ],
      "payable": false,
      "stateMutability": "nonpayable",
      "type": "constructor"
    },
    {
      "constant": false,
      "inputs": [
        {
          "name": "_size",
          "type": "uint256"
        }
      ],
      "name": "push",
      "outputs": [],
      "payable": false,
      "stateMutability": "nonpayable",
      "type": "function"
    },
    {
      "constant": false,
      "inputs": [],
      "name": "pop",
      "outputs": [],
      "payable": false,
      "stateMutability": "nonpayable",
      "type": "function"
    },
    {
      "constant": false,
      "inputs": [],
      "name": "empty",
      "outputs": [],
      "payable": false,
      "stateMutability": "nonpayable",
      "type": "function"
    },
    {
      "constant": false,
      "inputs": [],
      "name": "slotSize",
      "outputs": [
        {
          "name": "",
          "type": "uint256"
        }
      ],
      "payable": false,
      "stateMutability": "nonpayable",
      "type": "function"
    },
    {
      "constant": false,
      "inputs": [
        {
          "name": "slotNumber",
          "type": "uint256"
        },
        {
          "name": "blockNumber",
          "type": "uint256"
        }
      ],
      "name": "onSlot",
      "outputs": [
        {
          "name": "",
          "type": "bool"
        }
      ],
      "payable": false,
      "stateMutability": "nonpayable",
      "type": "function"
    }
  ],
  "bytecode": "0x608060405234801561001057600080fd5b506040516020806103e983398101806040528101908080519060200190929190505050806002819055505061039f8061004a6000396000f30060806040526004361061008e576000357c0100000000000000000000000000000000000000000000000000000000900463ffffffff1680632f91f1f4146100935780634a720f27146100be5780635439e423146100ff578063628a0cf81461012a578063959ac48414610155578063a4ece52c14610182578063e5c2debc14610199578063f2a75fe4146101e8575b600080fd5b34801561009f57600080fd5b506100a86101ff565b6040518082815260200191505060405180910390f35b3480156100ca57600080fd5b506100e960048036038101908080359060200190929190505050610205565b6040518082815260200191505060405180910390f35b34801561010b57600080fd5b50610114610228565b6040518082815260200191505060405180910390f35b34801561013657600080fd5b5061013f61022e565b6040518082815260200191505060405180910390f35b34801561016157600080fd5b506101806004803603810190808035906020019092919050505061023a565b005b34801561018e57600080fd5b506101976102a2565b005b3480156101a557600080fd5b506101ce60048036038101908080359060200190929190803590602001909291905050506102e9565b604051808215151515815260200191505060405180910390f35b3480156101f457600080fd5b506101fd610337565b005b60025481565b60008181548110151561021457fe5b906000526020600020016000915090505481565b60015481565b60008080549050905090565b60025481600154011115151561024f57600080fd5b600081600154019080600181540180825580915050906001820390600052602060002001600090919290919091505550806001600082825401925050819055506002546001541115151561029f57fe5b50565b600080805490508154811015156102b557fe5b9060005260206000200160009055600080805490508154811015156102d657fe5b9060005260206000200154600181905550565b600080600184038154811015156102fc57fe5b9060005260206000200154821015801561032f575060008381548110151561032057fe5b90600052602060002001548211155b905092915050565b60008090505b60008054905081111515610360576103536102a2565b808060010191505061033d565b6000808054905014151561037057fe5b505600a165627a7a723058200ba709e9b94dcaf74ab206caf29bee8b98b69af4c51c4e82f738689ad36523190029",
  "source": "pragma solidity 0.4.24;\n\n\n\n/**\n * A simple FIFO blockstack. \n * Enables to manage tasks inside a certain capacity \n */\n\ncontract Stack { \n\n    uint256[] public strg;\n    uint256 public stackPointer;\n    uint256 public totalCapacity;\n\n\n    constructor(uint256 _totalCapacity) public {\n        totalCapacity = _totalCapacity;\n    }\n\n    function push(uint256 _size) public {\n        require((stackPointer + _size) <= totalCapacity);\n        strg.push(stackPointer + _size);\n        stackPointer += _size;\n        assert(stackPointer <= totalCapacity);\n    }\n\n    function pop() public {\n        delete strg[strg.length];\n        stackPointer = strg[strg.length];\n    }\n\n    function empty() public {\n        for (uint i = 0; i <= strg.length; i++){\n            pop();\n        }\n        assert(strg.length == 0);\n    }\n\n    function slotSize() public returns (uint256){\n        return strg.length;\n    }\n\n    function onSlot(uint256 slotNumber, uint256 blockNumber) public returns (bool) {\n        return (blockNumber >= strg[slotNumber-1] && blockNumber <= strg[slotNumber]);\n    }\n\n}",
  "sourcePath": "/Users/carlosbuendia/Documents/Projects/consensys/Frontier/cron/contracts/Stack.sol",
  "compiler": {
    "name": "solc",
    "version": "0.4.24+commit.e67f0147.Emscripten.clang"
  },
  "schemaVersion": "2.0.0",
  "updatedAt": "2018-06-08T08:43:59.744Z"
}