{
  "contractName": "Stack",
  "abi": [
    {
      "constant": true,
      "inputs": [],
      "name": "totalCapacity",
      "outputs": [
        {
          "name": "",
          "type": "uint256"
        }
      ],
      "payable": false,
      "stateMutability": "view",
      "type": "function"
    },
    {
      "constant": true,
      "inputs": [
        {
          "name": "",
          "type": "uint256"
        }
      ],
      "name": "strg",
      "outputs": [
        {
          "name": "",
          "type": "uint256"
        }
      ],
      "payable": false,
      "stateMutability": "view",
      "type": "function"
    },
    {
      "constant": true,
      "inputs": [],
      "name": "stackPointer",
      "outputs": [
        {
          "name": "",
          "type": "uint256"
        }
      ],
      "payable": false,
      "stateMutability": "view",
      "type": "function"
    },
    {
      "constant": false,
      "inputs": [],
      "name": "renounceOwnership",
      "outputs": [],
      "payable": false,
      "stateMutability": "nonpayable",
      "type": "function"
    },
    {
      "constant": true,
      "inputs": [],
      "name": "owner",
      "outputs": [
        {
          "name": "",
          "type": "address"
        }
      ],
      "payable": false,
      "stateMutability": "view",
      "type": "function"
    },
    {
      "constant": true,
      "inputs": [
        {
          "name": "",
          "type": "uint256"
        }
      ],
      "name": "exportValue",
      "outputs": [
        {
          "name": "",
          "type": "uint256"
        }
      ],
      "payable": false,
      "stateMutability": "view",
      "type": "function"
    },
    {
      "constant": false,
      "inputs": [
        {
          "name": "_newOwner",
          "type": "address"
        }
      ],
      "name": "transferOwnership",
      "outputs": [],
      "payable": false,
      "stateMutability": "nonpayable",
      "type": "function"
    },
    {
      "inputs": [
        {
          "name": "_totalCapacity",
          "type": "uint256"
        }
      ],
      "payable": false,
      "stateMutability": "nonpayable",
      "type": "constructor"
    },
    {
      "anonymous": false,
      "inputs": [
        {
          "indexed": true,
          "name": "previousOwner",
          "type": "address"
        }
      ],
      "name": "OwnershipRenounced",
      "type": "event"
    },
    {
      "anonymous": false,
      "inputs": [
        {
          "indexed": true,
          "name": "previousOwner",
          "type": "address"
        },
        {
          "indexed": true,
          "name": "newOwner",
          "type": "address"
        }
      ],
      "name": "OwnershipTransferred",
      "type": "event"
    },
    {
      "constant": true,
      "inputs": [],
      "name": "height",
      "outputs": [
        {
          "name": "",
          "type": "uint256"
        }
      ],
      "payable": false,
      "stateMutability": "view",
      "type": "function"
    },
    {
      "constant": false,
      "inputs": [
        {
          "name": "_size",
          "type": "uint256"
        }
      ],
      "name": "push",
      "outputs": [],
      "payable": false,
      "stateMutability": "nonpayable",
      "type": "function"
    },
    {
      "constant": false,
      "inputs": [],
      "name": "pop",
      "outputs": [],
      "payable": false,
      "stateMutability": "nonpayable",
      "type": "function"
    },
    {
      "constant": false,
      "inputs": [],
      "name": "empty",
      "outputs": [],
      "payable": false,
      "stateMutability": "nonpayable",
      "type": "function"
    },
    {
      "constant": true,
      "inputs": [
        {
          "name": "slotIndex",
          "type": "uint256"
        },
        {
          "name": "position",
          "type": "uint256"
        }
      ],
      "name": "positionIsOnSlot",
      "outputs": [
        {
          "name": "",
          "type": "bool"
        }
      ],
      "payable": false,
      "stateMutability": "view",
      "type": "function"
    }
  ],
  "bytecode": "0x608060405234801561001057600080fd5b50604051602080610ad283398101806040528101908080519060200190929190505050336000806101000a81548173ffffffffffffffffffffffffffffffffffffffff021916908373ffffffffffffffffffffffffffffffffffffffff1602179055508060048190555050610a488061008a6000396000f3006080604052600436106100ba576000357c0100000000000000000000000000000000000000000000000000000000900463ffffffff1680630ef26743146100bf5780632f91f1f4146100ea5780634a720f27146101155780635439e423146101565780636f54dce514610181578063715018a6146101d05780638da5cb5b146101e7578063959ac4841461023e578063a4ece52c1461026b578063b1becf2a14610282578063f2a75fe4146102c3578063f2fde38b146102da575b600080fd5b3480156100cb57600080fd5b506100d461031d565b6040518082815260200191505060405180910390f35b3480156100f657600080fd5b506100ff610327565b6040518082815260200191505060405180910390f35b34801561012157600080fd5b506101406004803603810190808035906020019092919050505061032d565b6040518082815260200191505060405180910390f35b34801561016257600080fd5b5061016b610350565b6040518082815260200191505060405180910390f35b34801561018d57600080fd5b506101b66004803603810190808035906020019092919080359060200190929190505050610356565b604051808215151515815260200191505060405180910390f35b3480156101dc57600080fd5b506101e56103d1565b005b3480156101f357600080fd5b506101fc6104d3565b604051808273ffffffffffffffffffffffffffffffffffffffff1673ffffffffffffffffffffffffffffffffffffffff16815260200191505060405180910390f35b34801561024a57600080fd5b50610269600480360381019080803590602001909291905050506104f8565b005b34801561027757600080fd5b50610280610636565b005b34801561028e57600080fd5b506102ad600480360381019080803590602001909291905050506107b5565b6040518082815260200191505060405180910390f35b3480156102cf57600080fd5b506102d86107cd565b005b3480156102e657600080fd5b5061031b600480360381019080803573ffffffffffffffffffffffffffffffffffffffff16906020019092919050505061086a565b005b6000600554905090565b60045481565b60018181548110151561033c57fe5b906000526020600020016000915090505481565b60035481565b6000808314156103845760018381548110151561036f57fe5b906000526020600020015482111590506103cb565b600180840381548110151561039557fe5b906000526020600020015482101580156103c857506001838154811015156103b957fe5b90600052602060002001548211155b90505b92915050565b6000809054906101000a900473ffffffffffffffffffffffffffffffffffffffff1673ffffffffffffffffffffffffffffffffffffffff163373ffffffffffffffffffffffffffffffffffffffff1614151561042c57600080fd5b6000809054906101000a900473ffffffffffffffffffffffffffffffffffffffff1673ffffffffffffffffffffffffffffffffffffffff167ff8df31144d9c2f0f6b59d69b8b98abd5459d07f2742c4df920b25aae33c6482060405160405180910390a260008060006101000a81548173ffffffffffffffffffffffffffffffffffffffff021916908373ffffffffffffffffffffffffffffffffffffffff160217905550565b6000809054906101000a900473ffffffffffffffffffffffffffffffffffffffff1681565b6000809054906101000a900473ffffffffffffffffffffffffffffffffffffffff1673ffffffffffffffffffffffffffffffffffffffff163373ffffffffffffffffffffffffffffffffffffffff1614151561055357600080fd5b6004548160035401111515156105d1576040517f08c379a00000000000000000000000000000000000000000000000000000000081526004018080602001828103825260128152602001807f424c4f434b5f4e554d5f4f564552464c4f57000000000000000000000000000081525060200191505060405180910390fd5b600181600354019080600181540180825580915050906001820390600052602060002001600090919290919091505550806003600082825401925050819055506005600081548092919060010191905055506004546003541115151561063357fe5b50565b60008060009054906101000a900473ffffffffffffffffffffffffffffffffffffffff1673ffffffffffffffffffffffffffffffffffffffff163373ffffffffffffffffffffffffffffffffffffffff1614151561069357600080fd5b6000600180549050111515610710576040517f08c379a000000000000000000000000000000000000000000000000000000000815260040180806020018281038252600d8152602001807f454d5054592053544f524147450000000000000000000000000000000000000081525060200191505060405180910390fd5b60018080805490500381548110151561072557fe5b9060005260206000200154905060018080805490500381548110151561074757fe5b9060005260206000200160009055600180548091906001900361076a91906109cb565b506000600180549050141561078e57600060058190555060006003819055506107b2565b60056000815480929190600190039190505550806003600082825403925050819055505b50565b60026020528060005260406000206000915090505481565b6000806000809054906101000a900473ffffffffffffffffffffffffffffffffffffffff1673ffffffffffffffffffffffffffffffffffffffff163373ffffffffffffffffffffffffffffffffffffffff1614151561082b57600080fd5b6001805490509150600090505b8181101561085557610848610636565b8080600101915050610838565b600060018054905014151561086657fe5b5050565b6000809054906101000a900473ffffffffffffffffffffffffffffffffffffffff1673ffffffffffffffffffffffffffffffffffffffff163373ffffffffffffffffffffffffffffffffffffffff161415156108c557600080fd5b6108ce816108d1565b50565b600073ffffffffffffffffffffffffffffffffffffffff168173ffffffffffffffffffffffffffffffffffffffff161415151561090d57600080fd5b8073ffffffffffffffffffffffffffffffffffffffff166000809054906101000a900473ffffffffffffffffffffffffffffffffffffffff1673ffffffffffffffffffffffffffffffffffffffff167f8be0079c531659141344cd1fd0a4f28419497f9722a3daafe3b4186f6b6457e060405160405180910390a3806000806101000a81548173ffffffffffffffffffffffffffffffffffffffff021916908373ffffffffffffffffffffffffffffffffffffffff16021790555050565b8154818355818111156109f2578183600052602060002091820191016109f191906109f7565b5b505050565b610a1991905b80821115610a155760008160009055506001016109fd565b5090565b905600a165627a7a72305820f1df688467672e1b92f46c38c8e541439cc89251119f5690452f95dcb476838b0029",
  "source": "pragma solidity 0.4.24;\n\nimport \"openzeppelin-solidity/contracts/math/SafeMath.sol\";\nimport \"openzeppelin-solidity/contracts/ownership/Ownable.sol\";\n\n/**\n * A simple FIFO blockstack. \n * Enables to manage tasks inside a certain capacity \n */\n\ncontract Stack is Ownable { \n    \n    // Each Value represents the final position of a slot\n    uint256[] public strg; \n    \n    //Assigned value for each Slot\n    mapping (uint256 => uint256) public exportValue;\n\n    // Current pointer of the Stack\n    uint256 public stackPointer;\n\n    // Total Capacity assigned for this stack\n    uint256 public totalCapacity;\n\n    // Current height (number of assigned Slots) of this Stack\n    uint256 public height; \n\n\n    constructor(uint256 _totalCapacity) public {\n        totalCapacity = _totalCapacity;\n    }\n\n    /**\n     * Current amount of slots that are used inside the stack\n     * @return height uint representing the amount of slots already reserved in the stack\n     */\n\n    function height() public view returns (uint256) {\n        return height;\n    }\n\n    /**\n     * Push a new value to storage if it fits, thus moving the pointer += size\n     * @param _size value that will be inserted into the stack\n     */\n\n    function push(uint256 _size) public {\n        require(msg.sender == owner);\n        require((stackPointer + _size) <= totalCapacity, 'BLOCK_NUM_OVERFLOW');\n        strg.push(stackPointer + _size);\n        stackPointer += _size;\n        height ++;\n        assert(stackPointer <= totalCapacity);\n    }\n\n    /**\n     * Pops the last value from storage\n     */\n    function pop() public {\n        require(msg.sender == owner);\n        require(strg.length > 0, 'EMPTY STORAGE');\n        uint256 slotSizeToEmpty = strg[strg.length-1];\n        delete strg[strg.length-1];\n        strg.length --;\n        if (strg.length == 0) {\n            height = 0;\n            stackPointer = 0;\n        }\n        else{\n            height --;\n            stackPointer -= slotSizeToEmpty;\n        }\n    }\n\n    /**\n     * Removes every single value from the Stack\n     */\n    function empty() public {\n        require(msg.sender == owner);\n        uint256 l = strg.length;\n        for (uint i = 0; i < l; i++){\n            pop();\n        }\n        assert(strg.length == 0);\n    }\n\n    /**\n     * Returns true if a given position is in the range of a certain slot\n     * @param slotIndex Position in the storage array\n     * @param position Position that is checked to be inside the slot range\n     * @return true if the position i is inside the given slot\n     */\n\n    function positionIsOnSlot(uint256 slotIndex, uint256 position) public view returns (bool) {\n        if(slotIndex == 0){\n            return  position <= strg[slotIndex];\n        }\n        else{\n            return (position >= strg[slotIndex-1] && position <= strg[slotIndex]);\n        }\n    }\n}",
  "sourcePath": "/Users/carlosbuendia/Documents/Projects/consensys/Frontier/cron/contracts/Stack.sol",
  "compiler": {
    "name": "solc",
    "version": "0.4.24+commit.e67f0147.Emscripten.clang"
  },
  "schemaVersion": "2.0.0",
  "updatedAt": "2018-08-30T14:56:43.256Z"
}