{
  "contractName": "Subscription",
  "abi": [
    {
      "constant": false,
      "inputs": [],
      "name": "renounceOwnership",
      "outputs": [],
      "payable": false,
      "stateMutability": "nonpayable",
      "type": "function"
    },
    {
      "constant": true,
      "inputs": [],
      "name": "owner",
      "outputs": [
        {
          "name": "",
          "type": "address"
        }
      ],
      "payable": false,
      "stateMutability": "view",
      "type": "function"
    },
    {
      "constant": true,
      "inputs": [],
      "name": "isOwner",
      "outputs": [
        {
          "name": "",
          "type": "bool"
        }
      ],
      "payable": false,
      "stateMutability": "view",
      "type": "function"
    },
    {
      "constant": true,
      "inputs": [
        {
          "name": "",
          "type": "uint256"
        }
      ],
      "name": "bounds",
      "outputs": [
        {
          "name": "",
          "type": "uint256"
        }
      ],
      "payable": false,
      "stateMutability": "view",
      "type": "function"
    },
    {
      "constant": true,
      "inputs": [
        {
          "name": "",
          "type": "address"
        }
      ],
      "name": "subscriptions",
      "outputs": [
        {
          "name": "target",
          "type": "address"
        },
        {
          "name": "active",
          "type": "bool"
        },
        {
          "name": "amount",
          "type": "uint256"
        },
        {
          "name": "nextEpoch",
          "type": "uint256"
        }
      ],
      "payable": false,
      "stateMutability": "view",
      "type": "function"
    },
    {
      "constant": false,
      "inputs": [
        {
          "name": "newOwner",
          "type": "address"
        }
      ],
      "name": "transferOwnership",
      "outputs": [],
      "payable": false,
      "stateMutability": "nonpayable",
      "type": "function"
    },
    {
      "anonymous": false,
      "inputs": [
        {
          "indexed": true,
          "name": "_from",
          "type": "address"
        },
        {
          "indexed": true,
          "name": "_to",
          "type": "address"
        },
        {
          "indexed": false,
          "name": "_tokenAmount",
          "type": "uint256"
        }
      ],
      "name": "SubscriptionCreated",
      "type": "event"
    },
    {
      "anonymous": false,
      "inputs": [
        {
          "indexed": true,
          "name": "_from",
          "type": "address"
        },
        {
          "indexed": true,
          "name": "_to",
          "type": "address"
        },
        {
          "indexed": false,
          "name": "_tokenAmount",
          "type": "uint256"
        }
      ],
      "name": "SubscriptionCancelled",
      "type": "event"
    },
    {
      "anonymous": false,
      "inputs": [
        {
          "indexed": true,
          "name": "_from",
          "type": "address"
        },
        {
          "indexed": true,
          "name": "_to",
          "type": "address"
        },
        {
          "indexed": false,
          "name": "_tokenAmounts",
          "type": "uint256"
        }
      ],
      "name": "SubscriptionExecuted",
      "type": "event"
    },
    {
      "anonymous": false,
      "inputs": [
        {
          "indexed": true,
          "name": "_from",
          "type": "address"
        },
        {
          "indexed": true,
          "name": "_to",
          "type": "address"
        },
        {
          "indexed": false,
          "name": "_tokenAmount",
          "type": "uint256"
        }
      ],
      "name": "SubscriptionRefunded",
      "type": "event"
    },
    {
      "anonymous": false,
      "inputs": [
        {
          "indexed": true,
          "name": "previousOwner",
          "type": "address"
        },
        {
          "indexed": true,
          "name": "newOwner",
          "type": "address"
        }
      ],
      "name": "OwnershipTransferred",
      "type": "event"
    },
    {
      "constant": false,
      "inputs": [
        {
          "name": "_amount",
          "type": "uint256"
        },
        {
          "name": "_target",
          "type": "address"
        }
      ],
      "name": "subscribe",
      "outputs": [],
      "payable": false,
      "stateMutability": "nonpayable",
      "type": "function"
    },
    {
      "constant": false,
      "inputs": [
        {
          "name": "_account",
          "type": "address"
        }
      ],
      "name": "execute",
      "outputs": [
        {
          "name": "",
          "type": "bool"
        }
      ],
      "payable": false,
      "stateMutability": "nonpayable",
      "type": "function"
    },
    {
      "constant": false,
      "inputs": [
        {
          "name": "_account",
          "type": "address"
        }
      ],
      "name": "cancel",
      "outputs": [],
      "payable": false,
      "stateMutability": "nonpayable",
      "type": "function"
    },
    {
      "constant": false,
      "inputs": [
        {
          "name": "_bound",
          "type": "uint256"
        }
      ],
      "name": "setMin",
      "outputs": [],
      "payable": false,
      "stateMutability": "nonpayable",
      "type": "function"
    },
    {
      "constant": false,
      "inputs": [
        {
          "name": "_bound",
          "type": "uint256"
        }
      ],
      "name": "setMax",
      "outputs": [],
      "payable": false,
      "stateMutability": "nonpayable",
      "type": "function"
    },
    {
      "constant": true,
      "inputs": [
        {
          "name": "_from",
          "type": "address"
        },
        {
          "name": "_to",
          "type": "address"
        }
      ],
      "name": "canCancel",
      "outputs": [
        {
          "name": "",
          "type": "bool"
        }
      ],
      "payable": false,
      "stateMutability": "view",
      "type": "function"
    },
    {
      "constant": true,
      "inputs": [
        {
          "name": "_account",
          "type": "address"
        }
      ],
      "name": "canBeExecuted",
      "outputs": [
        {
          "name": "",
          "type": "bool"
        }
      ],
      "payable": false,
      "stateMutability": "view",
      "type": "function"
    }
  ],
  "bytecode": "0x60806040526040805190810160405280600060ff16815260200160fd60ff1681525060019060026100319291906100f3565b50336000806101000a81548173ffffffffffffffffffffffffffffffffffffffff021916908373ffffffffffffffffffffffffffffffffffffffff1602179055506000809054906101000a900473ffffffffffffffffffffffffffffffffffffffff1673ffffffffffffffffffffffffffffffffffffffff16600073ffffffffffffffffffffffffffffffffffffffff167f8be0079c531659141344cd1fd0a4f28419497f9722a3daafe3b4186f6b6457e060405160405180910390a361015d565b8260028101928215610127579160200282015b82811115610126578251829060ff16905591602001919060010190610106565b5b5090506101349190610138565b5090565b61015a91905b8082111561015657600081600090555060010161013e565b5090565b90565b611550806200016d6000396000f3006080604052600436106100c5576000357c0100000000000000000000000000000000000000000000000000000000900463ffffffff1680631fe9eabc146100ca57806345dc3dd8146100f757806349d5dd72146101245780634b64e4921461019f5780634c33fe94146101fa57806359e6951d1461023d578063715018a61461028a5780638da5cb5b146102a15780638f32d59b146102f8578063d84c3c1414610327578063dc11a05014610382578063f046395a146103c3578063f2fde38b1461045f575b600080fd5b3480156100d657600080fd5b506100f5600480360381019080803590602001909291905050506104a2565b005b34801561010357600080fd5b50610122600480360381019080803590602001909291905050506104cd565b005b34801561013057600080fd5b50610185600480360381019080803573ffffffffffffffffffffffffffffffffffffffff169060200190929190803573ffffffffffffffffffffffffffffffffffffffff1690602001909291905050506104f9565b604051808215151515815260200191505060405180910390f35b3480156101ab57600080fd5b506101e0600480360381019080803573ffffffffffffffffffffffffffffffffffffffff16906020019092919050505061056f565b604051808215151515815260200191505060405180910390f35b34801561020657600080fd5b5061023b600480360381019080803573ffffffffffffffffffffffffffffffffffffffff1690602001909291905050506105db565b005b34801561024957600080fd5b5061028860048036038101908080359060200190929190803573ffffffffffffffffffffffffffffffffffffffff169060200190929190505050610757565b005b34801561029657600080fd5b5061029f6109f7565b005b3480156102ad57600080fd5b506102b6610ac9565b604051808273ffffffffffffffffffffffffffffffffffffffff1673ffffffffffffffffffffffffffffffffffffffff16815260200191505060405180910390f35b34801561030457600080fd5b5061030d610af2565b604051808215151515815260200191505060405180910390f35b34801561033357600080fd5b50610368600480360381019080803573ffffffffffffffffffffffffffffffffffffffff169060200190929190505050610b49565b604051808215151515815260200191505060405180910390f35b34801561038e57600080fd5b506103ad60048036038101908080359060200190929190505050610c98565b6040518082815260200191505060405180910390f35b3480156103cf57600080fd5b50610404600480360381019080803573ffffffffffffffffffffffffffffffffffffffff169060200190929190505050610cb2565b604051808573ffffffffffffffffffffffffffffffffffffffff1673ffffffffffffffffffffffffffffffffffffffff1681526020018415151515815260200183815260200182815260200194505050505060405180910390f35b34801561046b57600080fd5b506104a0600480360381019080803573ffffffffffffffffffffffffffffffffffffffff169060200190929190505050610d0f565b005b6104aa610af2565b15156104b557600080fd5b806001806002811015156104c557fe5b018190555050565b6104d5610af2565b15156104e057600080fd5b80600160006002811015156104f157fe5b018190555050565b6000610503610ac9565b73ffffffffffffffffffffffffffffffffffffffff168373ffffffffffffffffffffffffffffffffffffffff16148061056757508173ffffffffffffffffffffffffffffffffffffffff168373ffffffffffffffffffffffffffffffffffffffff16145b905092915050565b6000600360008373ffffffffffffffffffffffffffffffffffffffff1673ffffffffffffffffffffffffffffffffffffffff16815260200190815260200160002060000160149054906101000a900460ff1615156105cc57600080fd5b6105d582610d2e565b50919050565b6105e533826104f9565b15156105f057600080fd5b6000600360008373ffffffffffffffffffffffffffffffffffffffff1673ffffffffffffffffffffffffffffffffffffffff16815260200190815260200160002060000160146101000a81548160ff021916908315150217905550600360008273ffffffffffffffffffffffffffffffffffffffff1673ffffffffffffffffffffffffffffffffffffffff16815260200190815260200160002060000160009054906101000a900473ffffffffffffffffffffffffffffffffffffffff1673ffffffffffffffffffffffffffffffffffffffff168173ffffffffffffffffffffffffffffffffffffffff167f2a47f085432d570578d89b5af31bea93cab7ad5e04e171eb39a89307f88035d5600360008573ffffffffffffffffffffffffffffffffffffffff1673ffffffffffffffffffffffffffffffffffffffff168152602001908152602001600020600101546040518082815260200191505060405180910390a350565b6001600060028110151561076757fe5b01548210158015610788575060018060028110151561078257fe5b01548211155b151561079357600080fd5b6080604051908101604052808273ffffffffffffffffffffffffffffffffffffffff1681526020016000151581526020018381526020018273ffffffffffffffffffffffffffffffffffffffff16630ef267436040518163ffffffff167c0100000000000000000000000000000000000000000000000000000000028152600401602060405180830381600087803b15801561082e57600080fd5b505af1158015610842573d6000803e3d6000fd5b505050506040513d602081101561085857600080fd5b8101908080519060200190929190505050815250600360003373ffffffffffffffffffffffffffffffffffffffff1673ffffffffffffffffffffffffffffffffffffffff16815260200190815260200160002060008201518160000160006101000a81548173ffffffffffffffffffffffffffffffffffffffff021916908373ffffffffffffffffffffffffffffffffffffffff16021790555060208201518160000160146101000a81548160ff021916908315150217905550604082015181600101556060820151816002015590505061093233610d2e565b506001600360003373ffffffffffffffffffffffffffffffffffffffff1673ffffffffffffffffffffffffffffffffffffffff16815260200190815260200160002060000160146101000a81548160ff0219169083151502179055508073ffffffffffffffffffffffffffffffffffffffff163373ffffffffffffffffffffffffffffffffffffffff167f2eb629961acafe14e8322418dd8876662f9f38696815b5ff62645c0aaff358bf846040518082815260200191505060405180910390a35050565b6109ff610af2565b1515610a0a57600080fd5b600073ffffffffffffffffffffffffffffffffffffffff166000809054906101000a900473ffffffffffffffffffffffffffffffffffffffff1673ffffffffffffffffffffffffffffffffffffffff167f8be0079c531659141344cd1fd0a4f28419497f9722a3daafe3b4186f6b6457e060405160405180910390a360008060006101000a81548173ffffffffffffffffffffffffffffffffffffffff021916908373ffffffffffffffffffffffffffffffffffffffff160217905550565b60008060009054906101000a900473ffffffffffffffffffffffffffffffffffffffff16905090565b60008060009054906101000a900473ffffffffffffffffffffffffffffffffffffffff1673ffffffffffffffffffffffffffffffffffffffff163373ffffffffffffffffffffffffffffffffffffffff1614905090565b6000600360008373ffffffffffffffffffffffffffffffffffffffff1673ffffffffffffffffffffffffffffffffffffffff16815260200190815260200160002060000160009054906101000a900473ffffffffffffffffffffffffffffffffffffffff1673ffffffffffffffffffffffffffffffffffffffff16630ef267436040518163ffffffff167c0100000000000000000000000000000000000000000000000000000000028152600401602060405180830381600087803b158015610c1157600080fd5b505af1158015610c25573d6000803e3d6000fd5b505050506040513d6020811015610c3b57600080fd5b8101908080519060200190929190505050600360008473ffffffffffffffffffffffffffffffffffffffff1673ffffffffffffffffffffffffffffffffffffffff1681526020019081526020016000206002015411159050919050565b600181600281101515610ca757fe5b016000915090505481565b60036020528060005260406000206000915090508060000160009054906101000a900473ffffffffffffffffffffffffffffffffffffffff16908060000160149054906101000a900460ff16908060010154908060020154905084565b610d17610af2565b1515610d2257600080fd5b610d2b81610ee0565b50565b6000610d3982610b49565b1515610d4457600080fd5b610d4d82610fda565b50600360008373ffffffffffffffffffffffffffffffffffffffff1673ffffffffffffffffffffffffffffffffffffffff16815260200190815260200160002060000160009054906101000a900473ffffffffffffffffffffffffffffffffffffffff1673ffffffffffffffffffffffffffffffffffffffff1663d84b637983600360008673ffffffffffffffffffffffffffffffffffffffff1673ffffffffffffffffffffffffffffffffffffffff168152602001908152602001600020600101546040518363ffffffff167c0100000000000000000000000000000000000000000000000000000000028152600401808373ffffffffffffffffffffffffffffffffffffffff1673ffffffffffffffffffffffffffffffffffffffff16815260200182815260200192505050602060405180830381600087803b158015610e9557600080fd5b505af1158015610ea9573d6000803e3d6000fd5b505050506040513d6020811015610ebf57600080fd5b810190808051906020019092919050505050610eda826113be565b50919050565b600073ffffffffffffffffffffffffffffffffffffffff168173ffffffffffffffffffffffffffffffffffffffff1614151515610f1c57600080fd5b8073ffffffffffffffffffffffffffffffffffffffff166000809054906101000a900473ffffffffffffffffffffffffffffffffffffffff1673ffffffffffffffffffffffffffffffffffffffff167f8be0079c531659141344cd1fd0a4f28419497f9722a3daafe3b4186f6b6457e060405160405180910390a3806000806101000a81548173ffffffffffffffffffffffffffffffffffffffff021916908373ffffffffffffffffffffffffffffffffffffffff16021790555050565b600080600360008473ffffffffffffffffffffffffffffffffffffffff1673ffffffffffffffffffffffffffffffffffffffff16815260200190815260200160002060000160009054906101000a900473ffffffffffffffffffffffffffffffffffffffff1673ffffffffffffffffffffffffffffffffffffffff1663fc0c546a6040518163ffffffff167c0100000000000000000000000000000000000000000000000000000000028152600401602060405180830381600087803b1580156110a357600080fd5b505af11580156110b7573d6000803e3d6000fd5b505050506040513d60208110156110cd57600080fd5b810190808051906020019092919050505090508073ffffffffffffffffffffffffffffffffffffffff166323b872dd8430600360008873ffffffffffffffffffffffffffffffffffffffff1673ffffffffffffffffffffffffffffffffffffffff168152602001908152602001600020600101546040518463ffffffff167c0100000000000000000000000000000000000000000000000000000000028152600401808473ffffffffffffffffffffffffffffffffffffffff1673ffffffffffffffffffffffffffffffffffffffff1681526020018373ffffffffffffffffffffffffffffffffffffffff1673ffffffffffffffffffffffffffffffffffffffff1681526020018281526020019350505050602060405180830381600087803b1580156111f957600080fd5b505af115801561120d573d6000803e3d6000fd5b505050506040513d602081101561122357600080fd5b8101908080519060200190929190505050508073ffffffffffffffffffffffffffffffffffffffff1663095ea7b3600360008673ffffffffffffffffffffffffffffffffffffffff1673ffffffffffffffffffffffffffffffffffffffff16815260200190815260200160002060000160009054906101000a900473ffffffffffffffffffffffffffffffffffffffff16600360008773ffffffffffffffffffffffffffffffffffffffff1673ffffffffffffffffffffffffffffffffffffffff168152602001908152602001600020600101546040518363ffffffff167c0100000000000000000000000000000000000000000000000000000000028152600401808373ffffffffffffffffffffffffffffffffffffffff1673ffffffffffffffffffffffffffffffffffffffff16815260200182815260200192505050602060405180830381600087803b15801561137c57600080fd5b505af1158015611390573d6000803e3d6000fd5b505050506040513d60208110156113a657600080fd5b81019080805190602001909291905050505050919050565b6000600360008373ffffffffffffffffffffffffffffffffffffffff1673ffffffffffffffffffffffffffffffffffffffff16815260200190815260200160002060020160008154809291906001019190505550600360008373ffffffffffffffffffffffffffffffffffffffff1673ffffffffffffffffffffffffffffffffffffffff16815260200190815260200160002060000160009054906101000a900473ffffffffffffffffffffffffffffffffffffffff1673ffffffffffffffffffffffffffffffffffffffff168273ffffffffffffffffffffffffffffffffffffffff167fc5b029cb6778d573aa22a834f92fb3669974c3bea821f5842281fee64bcb6a23600360008673ffffffffffffffffffffffffffffffffffffffff1673ffffffffffffffffffffffffffffffffffffffff168152602001908152602001600020600101546040518082815260200191505060405180910390a3600190509190505600a165627a7a72305820d0ef2ee15e5077943cf2aeced7283eee44a2ab787fcf56ff37a93b12ec3dfa9e0029",
  "source": "pragma solidity ^0.4.24;\n\nimport \"./TRL.sol\";\nimport \"openzeppelin-solidity/contracts/math/SafeMath.sol\";\nimport \"openzeppelin-solidity/contracts/ownership/Ownable.sol\";\nimport \"@frontier-token-research/cron/contracts/Period.sol\";    \nimport \"openzeppelin-solidity/contracts/token/ERC20/ERC20.sol\";\n\n/**\n* Handle subscription details and permissions\n* If subscription conditions are met, the contract will eventually call buyTokenVotes, and fire SubscriptionExecuted event\n*/\n\ncontract Subscription is Ownable {\n    using SafeMath for uint256;\n\n    event SubscriptionCreated(address indexed _from, address indexed _to, uint256 _tokenAmount);\n    event SubscriptionCancelled(address indexed _from, address indexed _to, uint256 _tokenAmount);\n    event SubscriptionExecuted(address indexed _from, address indexed _to, uint256 _tokenAmounts);\n    event SubscriptionRefunded(address indexed _from, address indexed _to, uint256 _tokenAmount);\n\n\n    uint256[2] public bounds = [0, 2^256 - 1];\n    mapping (address => Conditions) public subscriptions;\n\n\n    struct Conditions {\n        address target;\n        bool active;\n        uint256 amount;\n        uint256 nextEpoch;\n    }\n\n    /**\n    * @dev Includes a subscription on the account of the sender\n    * @param _amount Subscription amount that the sender is approving to be charged\n    * NOTICE: It will charge the first payment in order to include the subscription\n    */\n\n    function subscribe(uint256 _amount, address _target) external {\n        require(_amount >= bounds[0] && _amount <= bounds[1]);\n        subscriptions[msg.sender] = Conditions(_target, false, _amount, TRL(_target).height());\n        _execute(msg.sender);\n        subscriptions[msg.sender].active = true;\n        emit SubscriptionCreated(msg.sender, _target, _amount);\n    }\n\n    /**\n    * @dev Executes a subscription on behalf of the user\n    * @param _account Address of the user where the subscription is executed\n    */\n    \n    function execute(address _account) external returns (bool) {\n        require(subscriptions[_account].active);\n        _execute(_account);\n    }\n\n    /**\n    * @dev Cancels the subscription of an account\n    * @param _account Account where the subscription will be canceled\n    */\n\n    function cancel(address _account) external { \n        require(canCancel(msg.sender, _account));\n        subscriptions[_account].active = false;\n        emit SubscriptionCancelled(_account, subscriptions[_account].target, subscriptions[_account].amount);\n    }\n\n\n    /**\n    * @dev Sets the minimum subscription, only allowed to be done by the owner\n    * @param _bound Minimum value of the subscription accepte\n    */\n    function setMin(uint256 _bound) external onlyOwner {\n        bounds[0] = _bound;\n    }\n    \n    /**\n    * @dev Sets the maximum subscription, only allowed to be done by the owner\n    * @param _bound Maximum value of the subscription accepte\n    */\n\n    function setMax(uint256 _bound) external onlyOwner {\n        bounds[1] = _bound;\n    }\n\n    /**\n    * @dev Conditions required to cancel a subscription\n    * @param _from subscriber\n    * @param _to publisher address\n    */\n\n    function canCancel(address _from, address _to ) public view returns(bool) {\n        return (_from == owner() || _from == _to);\n    }\n\n    /**\n    * @dev Check if the subscription from an account is accepted to be executed\n    * @param _account Account that is checked to have an active subscription\n    */\n\n    function canBeExecuted(address _account) public view returns (bool) {\n        return subscriptions[_account].nextEpoch <= TRL(subscriptions[_account].target).height();\n    }\n    \n    /**\n    * @dev Settles the subscription for the current period\n    * @param _account Address of the user that is having its Subscription executed\n    */\n\n    function _execute(address _account) internal returns (bool) {\n        require(canBeExecuted(_account));\n        _relayApprove(_account);\n        TRL(subscriptions[_account].target).executeSubscription(_account, subscriptions[_account].amount);\n        _successfulExecution(_account);\n    }\n\n    /**\n    * @dev Relays the approval received from subscriber to the target contract\n    * @param _account Address of subscriber.\n    */\n\n    function _relayApprove(address _account) internal returns (bool) {\n        ERC20 token = ERC20(address(TRL(subscriptions[_account].target).token()));\n        token.transferFrom(_account, this, subscriptions[_account].amount);\n        token.approve(subscriptions[_account].target, subscriptions[_account].amount);\n    }\n\n    /**\n    * @dev Internal handler for successful executions\n    * @param _account Address of the user that just realized a succesful execution\n    */\n\n    function _successfulExecution(address _account) internal returns (bool) {\n        subscriptions[_account].nextEpoch++;   \n        emit SubscriptionExecuted(_account, subscriptions[_account].target, subscriptions[_account].amount);\n        return true;\n    }\n}\n",
  "sourcePath": "/Users/boss/git/frontier/trl-project/TRL/contracts/Subscription.sol",
  "compiler": {
    "name": "solc",
    "version": "0.4.24+commit.e67f0147.Emscripten.clang"
  },
  "schemaVersion": "2.0.0",
  "updatedAt": "2018-11-28T12:04:41.031Z"
}