{
  "contractName": "TokenRankedList",
  "abi": [
    {
      "constant": true,
      "inputs": [
        {
          "name": "_addr",
          "type": "address"
        }
      ],
      "name": "isOwner",
      "outputs": [
        {
          "name": "",
          "type": "bool"
        }
      ],
      "payable": false,
      "stateMutability": "view",
      "type": "function"
    },
    {
      "constant": true,
      "inputs": [
        {
          "name": "",
          "type": "uint256"
        },
        {
          "name": "",
          "type": "address"
        }
      ],
      "name": "votesReceived",
      "outputs": [
        {
          "name": "",
          "type": "uint256"
        }
      ],
      "payable": false,
      "stateMutability": "view",
      "type": "function"
    },
    {
      "constant": true,
      "inputs": [],
      "name": "periodIndex",
      "outputs": [
        {
          "name": "",
          "type": "uint256"
        }
      ],
      "payable": false,
      "stateMutability": "view",
      "type": "function"
    },
    {
      "constant": true,
      "inputs": [
        {
          "name": "",
          "type": "uint256"
        },
        {
          "name": "",
          "type": "address"
        }
      ],
      "name": "votesBalance",
      "outputs": [
        {
          "name": "",
          "type": "uint256"
        }
      ],
      "payable": false,
      "stateMutability": "view",
      "type": "function"
    },
    {
      "constant": true,
      "inputs": [],
      "name": "owner",
      "outputs": [
        {
          "name": "",
          "type": "address"
        }
      ],
      "payable": false,
      "stateMutability": "view",
      "type": "function"
    },
    {
      "constant": false,
      "inputs": [
        {
          "name": "_newOwner",
          "type": "address"
        }
      ],
      "name": "changeOwner",
      "outputs": [],
      "payable": false,
      "stateMutability": "nonpayable",
      "type": "function"
    },
    {
      "constant": true,
      "inputs": [
        {
          "name": "",
          "type": "uint256"
        }
      ],
      "name": "periods",
      "outputs": [
        {
          "name": "votingToken",
          "type": "address"
        },
        {
          "name": "startTime",
          "type": "uint256"
        },
        {
          "name": "totalVotes",
          "type": "uint256"
        },
        {
          "name": "state",
          "type": "uint8"
        },
        {
          "name": "TTL",
          "type": "uint256"
        },
        {
          "name": "claimTTL",
          "type": "uint256"
        }
      ],
      "payable": false,
      "stateMutability": "view",
      "type": "function"
    },
    {
      "constant": true,
      "inputs": [],
      "name": "token",
      "outputs": [
        {
          "name": "",
          "type": "address"
        }
      ],
      "payable": false,
      "stateMutability": "view",
      "type": "function"
    },
    {
      "anonymous": false,
      "inputs": [
        {
          "indexed": false,
          "name": "_recipient",
          "type": "address"
        },
        {
          "indexed": false,
          "name": "_amount",
          "type": "uint256"
        }
      ],
      "name": "BountyRelased",
      "type": "event"
    },
    {
      "anonymous": false,
      "inputs": [
        {
          "indexed": false,
          "name": "_stateFrom",
          "type": "uint256"
        },
        {
          "indexed": false,
          "name": "_stateTo",
          "type": "uint256"
        }
      ],
      "name": "StateChange",
      "type": "event"
    },
    {
      "anonymous": false,
      "inputs": [
        {
          "indexed": false,
          "name": "_periodFrom",
          "type": "uint256"
        },
        {
          "indexed": false,
          "name": "_periodTo",
          "type": "uint256"
        }
      ],
      "name": "PeriodForward",
      "type": "event"
    },
    {
      "anonymous": false,
      "inputs": [
        {
          "indexed": false,
          "name": "_candidateAddress",
          "type": "address"
        },
        {
          "indexed": false,
          "name": "_amount",
          "type": "uint256"
        }
      ],
      "name": "Vote",
      "type": "event"
    },
    {
      "anonymous": false,
      "inputs": [
        {
          "indexed": false,
          "name": "oldOwner",
          "type": "address"
        },
        {
          "indexed": false,
          "name": "newOwner",
          "type": "address"
        }
      ],
      "name": "OwnerChanged",
      "type": "event"
    },
    {
      "constant": false,
      "inputs": [
        {
          "name": "_tokenAddress",
          "type": "address"
        },
        {
          "name": "_candidateRegistryAddress",
          "type": "address"
        },
        {
          "name": "_voterRegistryAddress",
          "type": "address"
        },
        {
          "name": "_initialTTL",
          "type": "uint256"
        }
      ],
      "name": "PrivateList",
      "outputs": [],
      "payable": false,
      "stateMutability": "nonpayable",
      "type": "function"
    },
    {
      "constant": false,
      "inputs": [
        {
          "name": "_periodTTL",
          "type": "uint256"
        }
      ],
      "name": "initPeriod",
      "outputs": [],
      "payable": false,
      "stateMutability": "nonpayable",
      "type": "function"
    },
    {
      "constant": false,
      "inputs": [],
      "name": "initClaimingState",
      "outputs": [],
      "payable": false,
      "stateMutability": "nonpayable",
      "type": "function"
    },
    {
      "constant": false,
      "inputs": [],
      "name": "claimBounty",
      "outputs": [],
      "payable": false,
      "stateMutability": "nonpayable",
      "type": "function"
    },
    {
      "constant": false,
      "inputs": [],
      "name": "closePeriod",
      "outputs": [],
      "payable": false,
      "stateMutability": "nonpayable",
      "type": "function"
    },
    {
      "constant": false,
      "inputs": [
        {
          "name": "_amount",
          "type": "uint256"
        }
      ],
      "name": "buyTokenVotes",
      "outputs": [],
      "payable": false,
      "stateMutability": "nonpayable",
      "type": "function"
    },
    {
      "constant": false,
      "inputs": [
        {
          "name": "_candidateAddress",
          "type": "address"
        },
        {
          "name": "_amount",
          "type": "uint256"
        }
      ],
      "name": "vote",
      "outputs": [],
      "payable": false,
      "stateMutability": "nonpayable",
      "type": "function"
    }
  ],
  "bytecode": "0x60606040526000600655336000806101000a81548173ffffffffffffffffffffffffffffffffffffffff021916908373ffffffffffffffffffffffffffffffffffffffff160217905550611532806100586000396000f3006060604052600436106100db576000357c0100000000000000000000000000000000000000000000000000000000900463ffffffff16806319402d96146100e05780632bc8223f146101605780632f54bf6e1461017557806333dd6bed146101c6578063507a73281461021c578063560f66ea146102315780635706d0ec1461025a5780635e1ce58a146102b05780635f74bbde146102d35780638da5cb5b14610315578063a6f9dae11461036a578063bfabe557146103a3578063ea4a1104146103c6578063ee4be2881461045a578063fc0c546a1461046f575b600080fd5b34156100eb57600080fd5b61015e600480803573ffffffffffffffffffffffffffffffffffffffff1690602001909190803573ffffffffffffffffffffffffffffffffffffffff1690602001909190803573ffffffffffffffffffffffffffffffffffffffff169060200190919080359060200190919050506104c4565b005b341561016b57600080fd5b610173610596565b005b341561018057600080fd5b6101ac600480803573ffffffffffffffffffffffffffffffffffffffff16906020019091905050610644565b604051808215151515815260200191505060405180910390f35b34156101d157600080fd5b610206600480803590602001909190803573ffffffffffffffffffffffffffffffffffffffff1690602001909190505061069d565b6040518082815260200191505060405180910390f35b341561022757600080fd5b61022f6106c2565b005b341561023c57600080fd5b61024461075e565b6040518082815260200191505060405180910390f35b341561026557600080fd5b61029a600480803590602001909190803573ffffffffffffffffffffffffffffffffffffffff16906020019091905050610764565b6040518082815260200191505060405180910390f35b34156102bb57600080fd5b6102d16004808035906020019091905050610789565b005b34156102de57600080fd5b610313600480803573ffffffffffffffffffffffffffffffffffffffff16906020019091908035906020019091905050610913565b005b341561032057600080fd5b610328610d29565b604051808273ffffffffffffffffffffffffffffffffffffffff1673ffffffffffffffffffffffffffffffffffffffff16815260200191505060405180910390f35b341561037557600080fd5b6103a1600480803573ffffffffffffffffffffffffffffffffffffffff16906020019091905050610d4e565b005b34156103ae57600080fd5b6103c46004808035906020019091905050610e83565b005b34156103d157600080fd5b6103e76004808035906020019091905050610f15565b604051808773ffffffffffffffffffffffffffffffffffffffff1673ffffffffffffffffffffffffffffffffffffffff16815260200186815260200185815260200184600381111561043557fe5b60ff168152602001838152602001828152602001965050505050505060405180910390f35b341561046557600080fd5b61046d610f7e565b005b341561047a57600080fd5b61048261136c565b604051808273ffffffffffffffffffffffffffffffffffffffff1673ffffffffffffffffffffffffffffffffffffffff16815260200191505060405180910390f35b83600560006101000a81548173ffffffffffffffffffffffffffffffffffffffff021916908373ffffffffffffffffffffffffffffffffffffffff16021790555082600360006101000a81548173ffffffffffffffffffffffffffffffffffffffff021916908373ffffffffffffffffffffffffffffffffffffffff16021790555081600460006101000a81548173ffffffffffffffffffffffffffffffffffffffff021916908373ffffffffffffffffffffffffffffffffffffffff16021790555061059081610e83565b50505050565b600160038111156105a357fe5b60076000600654815260200190815260200160002060030160009054906101000a900460ff1660038111156105d457fe5b1415156105e057600080fd5b60076000600654815260200190815260200160002060050154600760006006548152602001908152602001600020600401540160076000600654815260200190815260200160002060010154420311151561063a57600080fd5b610642611392565b565b60008060009054906101000a900473ffffffffffffffffffffffffffffffffffffffff1673ffffffffffffffffffffffffffffffffffffffff168273ffffffffffffffffffffffffffffffffffffffff16149050919050565b6001602052816000526040600020602052806000526040600020600091509150505481565b600260038111156106cf57fe5b60076000600654815260200190815260200160002060030160009054906101000a900460ff16600381111561070057fe5b14151561070c57600080fd5b6007600060065481526020019081526020016000206004015460076000600654815260200190815260200160002060010154420311151561074c57600080fd5b610754611392565b61075c6114ad565b565b60065481565b6002602052816000526040600020602052806000526040600020600091509150505481565b600560009054906101000a900473ffffffffffffffffffffffffffffffffffffffff1673ffffffffffffffffffffffffffffffffffffffff166323b872dd3330846000604051602001526040518463ffffffff167c0100000000000000000000000000000000000000000000000000000000028152600401808473ffffffffffffffffffffffffffffffffffffffff1673ffffffffffffffffffffffffffffffffffffffff1681526020018373ffffffffffffffffffffffffffffffffffffffff1673ffffffffffffffffffffffffffffffffffffffff1681526020018281526020019350505050602060405180830381600087803b151561088a57600080fd5b6102c65a03f1151561089b57600080fd5b5050506040518051905015156108b057600080fd5b8060026000600654815260200190815260200160002060003373ffffffffffffffffffffffffffffffffffffffff1673ffffffffffffffffffffffffffffffffffffffff1681526020019081526020016000206000828254019250508190555050565b6002600381111561092057fe5b60076000600654815260200190815260200160002060030160009054906101000a900460ff16600381111561095157fe5b14151561095d57600080fd5b600360009054906101000a900473ffffffffffffffffffffffffffffffffffffffff1673ffffffffffffffffffffffffffffffffffffffff16633af32abf836000604051602001526040518263ffffffff167c0100000000000000000000000000000000000000000000000000000000028152600401808273ffffffffffffffffffffffffffffffffffffffff1673ffffffffffffffffffffffffffffffffffffffff168152602001915050602060405180830381600087803b1515610a2257600080fd5b6102c65a03f11515610a3357600080fd5b505050604051805190501515610a4857600080fd5b600460009054906101000a900473ffffffffffffffffffffffffffffffffffffffff1673ffffffffffffffffffffffffffffffffffffffff16633af32abf336000604051602001526040518263ffffffff167c0100000000000000000000000000000000000000000000000000000000028152600401808273ffffffffffffffffffffffffffffffffffffffff1673ffffffffffffffffffffffffffffffffffffffff168152602001915050602060405180830381600087803b1515610b0d57600080fd5b6102c65a03f11515610b1e57600080fd5b505050604051805190501515610b3357600080fd5b600560009054906101000a900473ffffffffffffffffffffffffffffffffffffffff1673ffffffffffffffffffffffffffffffffffffffff166323b872dd3330846000604051602001526040518463ffffffff167c0100000000000000000000000000000000000000000000000000000000028152600401808473ffffffffffffffffffffffffffffffffffffffff1673ffffffffffffffffffffffffffffffffffffffff1681526020018373ffffffffffffffffffffffffffffffffffffffff1673ffffffffffffffffffffffffffffffffffffffff1681526020018281526020019350505050602060405180830381600087803b1515610c3457600080fd5b6102c65a03f11515610c4557600080fd5b505050604051805190501515610c5a57600080fd5b8060016000600654815260200190815260200160002060008473ffffffffffffffffffffffffffffffffffffffff1673ffffffffffffffffffffffffffffffffffffffff168152602001908152602001600020600082825401925050819055507ff668ead05c744b9178e571d2edb452e72baf6529c8d72160e64e59b50d865bd08282604051808373ffffffffffffffffffffffffffffffffffffffff1673ffffffffffffffffffffffffffffffffffffffff1681526020018281526020019250505060405180910390a15050565b6000809054906101000a900473ffffffffffffffffffffffffffffffffffffffff1681565b6000809054906101000a900473ffffffffffffffffffffffffffffffffffffffff1673ffffffffffffffffffffffffffffffffffffffff163373ffffffffffffffffffffffffffffffffffffffff16141515610da957600080fd5b806000806101000a81548173ffffffffffffffffffffffffffffffffffffffff021916908373ffffffffffffffffffffffffffffffffffffffff1602179055507fb532073b38c83145e3e5135377a08bf9aab55bc0fd7c1179cd4fb995d2a5159c3382604051808373ffffffffffffffffffffffffffffffffffffffff1673ffffffffffffffffffffffffffffffffffffffff1681526020018273ffffffffffffffffffffffffffffffffffffffff1673ffffffffffffffffffffffffffffffffffffffff1681526020019250505060405180910390a150565b60006003811115610e9057fe5b60076000600654815260200190815260200160002060030160009054906101000a900460ff166003811115610ec157fe5b141515610ecd57600080fd5b80600760006006548152602001908152602001600020600401819055504260076000600160065401815260200190815260200160002060010181905550610f12611392565b50565b60076020528060005260406000206000915090508060000160009054906101000a900473ffffffffffffffffffffffffffffffffffffffff16908060010154908060020154908060030160009054906101000a900460ff16908060040154908060050154905086565b600060026003811115610f8d57fe5b60076000600654815260200190815260200160002060030160009054906101000a900460ff166003811115610fbe57fe5b141515610fca57600080fd5b60011515600360009054906101000a900473ffffffffffffffffffffffffffffffffffffffff1673ffffffffffffffffffffffffffffffffffffffff16633af32abf336000604051602001526040518263ffffffff167c0100000000000000000000000000000000000000000000000000000000028152600401808273ffffffffffffffffffffffffffffffffffffffff1673ffffffffffffffffffffffffffffffffffffffff168152602001915050602060405180830381600087803b151561109357600080fd5b6102c65a03f115156110a457600080fd5b5050506040518051905015151415156110bc57600080fd5b60076000600654815260200190815260200160002060020154600560009054906101000a900473ffffffffffffffffffffffffffffffffffffffff1673ffffffffffffffffffffffffffffffffffffffff166370a08231306000604051602001526040518263ffffffff167c0100000000000000000000000000000000000000000000000000000000028152600401808273ffffffffffffffffffffffffffffffffffffffff1673ffffffffffffffffffffffffffffffffffffffff168152602001915050602060405180830381600087803b151561119a57600080fd5b6102c65a03f115156111ab57600080fd5b5050506040518051905060016000600654815260200190815260200160002060003373ffffffffffffffffffffffffffffffffffffffff1673ffffffffffffffffffffffffffffffffffffffff168152602001908152602001600020540281151561121257fe5b049050600560009054906101000a900473ffffffffffffffffffffffffffffffffffffffff1673ffffffffffffffffffffffffffffffffffffffff1663a9059cbb33836000604051602001526040518363ffffffff167c0100000000000000000000000000000000000000000000000000000000028152600401808373ffffffffffffffffffffffffffffffffffffffff1673ffffffffffffffffffffffffffffffffffffffff16815260200182815260200192505050602060405180830381600087803b15156112e257600080fd5b6102c65a03f115156112f357600080fd5b50505060405180519050507f7cf0261e80db6d0b2465569ff3948ccf43a84e36510221f4d65ebc67ab3469243382604051808373ffffffffffffffffffffffffffffffffffffffff1673ffffffffffffffffffffffffffffffffffffffff1681526020018281526020019250505060405180910390a150565b600560009054906101000a900473ffffffffffffffffffffffffffffffffffffffff1681565b600160076000600654815260200190815260200160002060030160009054906101000a900460ff1660038111156113c557fe5b0160038111156113d157fe5b60076000600654815260200190815260200160002060030160006101000a81548160ff0219169083600381111561140457fe5b02179055507f107dddb4541735557564238389eccfc9979bfdde5e57e24e9777b6fe79b4d22f600160076000600654815260200190815260200160002060030160009054906101000a900460ff16600381111561145d57fe5b0360076000600654815260200190815260200160002060030160009054906101000a900460ff16600381111561148f57fe5b604051808381526020018281526020019250505060405180910390a1565b60016006600082825401925050819055507fcd7a5cc1e92c733f75265bb90f9f00c179b6728f1e1f5d85e4f8622557d70dc1600160065403600654604051808381526020018281526020019250505060405180910390a15600a165627a7a72305820351431d9d48e0d5a6672e8084238431a3d6e5fbd79fb55391ba006c156ed93430029",
  "source": "pragma solidity 0.4.19;\n\nimport \"./lib/Standard20Token.sol\";\nimport \"./lib/Owned.sol\";\nimport \"./OwnedRegistry.sol\";\n\n/**\n* A Token Ranked List (TRL) enables voting with staked tokens periodically, over a registry of candidates\n*\n**/\ncontract TokenRankedList is Owned {\n\n     // Amount that only can be changed in exchange of FTR\n    mapping (uint256 => mapping(address=> uint256)) public votesReceived;\n\n    // For each period, maps user's address to voteToken balance\n    mapping (uint256 => mapping(address => uint256)) public votesBalance;\n\n    // Registry of candidates to be voted\n    OwnedRegistry candidateRegistry;\n\n    // Registry of candidates allowed to vote\n    OwnedRegistry voterRegistry;\n\n    // Master Token, used to buy votes\n    Standard20Token public token;\n\n\n    uint256 public periodIndex=0;\n\n    enum PeriodState{CREATED, ACTIVE, CLAIM, CLOSED}\n\n    struct Period {\n        Standard20Token votingToken;\n        uint256 startTime;\n        uint256 totalVotes;\n        PeriodState state;\n        uint256 TTL;\n        uint256 claimTTL;\n    }\n\n    mapping (uint256 => Period) public periods;\n\n\n    /**\n    * Creates a new Instance of a Voting Lists\n    * @param _tokenAddress Address of the token used for\n    *\n    **/\n\n    function PrivateList (\n        address _tokenAddress,\n        address _candidateRegistryAddress,\n        address _voterRegistryAddress,\n        uint256 _initialTTL)\n        public {\n\n        token = Standard20Token(_tokenAddress);\n        candidateRegistry= OwnedRegistry(_candidateRegistryAddress);\n        voterRegistry = OwnedRegistry(_voterRegistryAddress);\n        initPeriod(_initialTTL);\n    }\n\n    /**\n    * Initializes a new period, taking as the TTL value the current from storage, and setting the state to 1\n    * Requires that the current period is Preparing (0)\n    **/\n\n    function initPeriod(uint256 _periodTTL) public {\n        require(periods[periodIndex].state == PeriodState.CREATED);\n        periods[periodIndex].TTL= _periodTTL;\n        periods[periodIndex + 1].startTime = now;\n        nextState();\n    }\n\n    /**\n    * Moves the period from active to Claiming.\n    *\n    **/\n    function initClaimingState() public {\n      require(periods[periodIndex].state == PeriodState.ACTIVE);\n      require ((now - periods[periodIndex].startTime) > (periods[periodIndex].TTL + periods[periodIndex].claimTTL));\n      nextState();\n    }\n\n    /**\n    * Enables an analyst to claim a bounty in the claim period\n    *\n    *\n    **/\n\n    function claimBounty() public {\n        require(periods[periodIndex].state == PeriodState.CLAIM);\n        require(candidateRegistry.isWhitelisted(msg.sender) == true);\n        uint256 totalAmount = votesReceived[periodIndex][msg.sender] * token.balanceOf(this)/periods[periodIndex].totalVotes;\n        token.transfer(msg.sender, totalAmount);\n        BountyRelased(msg.sender, totalAmount);\n    }\n\n    /**\n    * Closes the current period and sets the current period pointer to the next item, enabling again init.\n    *\n    **/\n\n    function closePeriod() public {\n        require (periods[periodIndex].state == PeriodState.CLAIM);\n        require (now - periods[periodIndex].startTime > periods[periodIndex].TTL);\n        nextState();\n        nextPeriod();\n    }\n\n    /**\n    * Exchanges the main token for an amount of votes\n    * Requires previous allowance of expenditure of at least the amount required\n    * @param _amount Amount of votes that the voter wants to buy\n    **/\n\n    function buyTokenVotes(uint256 _amount) public {\n      require(token.transferFrom(msg.sender,this, _amount));\n      votesBalance[periodIndex][msg.sender] += _amount;\n    }\n\n\n    /**\n    * Adds a new vote for a candidate. It fails if the candidate hasn't approved before the specified amount\n    * @param _candidateAddress address of the candidate selected\n    * @param _amount of votes used\n    **/\n\n    function vote(address _candidateAddress, uint256 _amount) public {\n        require (periods[periodIndex].state == PeriodState.CLAIM);\n        require (candidateRegistry.isWhitelisted(_candidateAddress));\n        require (voterRegistry.isWhitelisted(msg.sender));\n        require(token.transferFrom(msg.sender,this, _amount));\n        votesReceived[periodIndex][_candidateAddress] += _amount;\n        Vote(_candidateAddress, _amount);\n    }\n\n\n    /**\n    * Moves from the current state to the Next State {CREATED, ACTIVE, CLAIM, CLOSED}\n    *\n    **/\n\n    function nextState() internal {\n        periods[periodIndex].state = PeriodState(uint(periods[periodIndex].state) + 1);\n        StateChange(uint(periods[periodIndex].state)-1 , uint(periods[periodIndex].state));\n    }\n\n    /**\n    * Moves from the current period to the next period\n    **/\n\n    function nextPeriod() internal {\n        periodIndex +=1;\n        PeriodForward(periodIndex-1, periodIndex);\n    }\n\n    event BountyRelased(address _recipient, uint256 _amount);\n    event StateChange(uint256 _stateFrom, uint256 _stateTo);\n    event PeriodForward(uint256 _periodFrom, uint256 _periodTo);\n    event Vote(address _candidateAddress, uint256 _amount);\n}\n",
  "sourcePath": "/Users/carlosbuendia/Documents/Projects/consensys/Frontier/TokenRankedList/contracts/TokenRankedList.sol",
  "compiler": {
    "name": "solc",
    "version": "0.4.19+commit.c4cbbb05.Emscripten.clang"
  },
  "schemaVersion": "2.0.0",
  "updatedAt": "2018-03-12T18:23:26.715Z"
}