{
  "contractName": "TracksCreation",
  "abi": [
    {
      "inputs": [],
      "payable": false,
      "stateMutability": "nonpayable",
      "type": "constructor"
    },
    {
      "constant": true,
      "inputs": [],
      "name": "creationTimestamp",
      "outputs": [
        {
          "name": "",
          "type": "uint256"
        }
      ],
      "payable": false,
      "stateMutability": "view",
      "type": "function"
    },
    {
      "constant": true,
      "inputs": [],
      "name": "creationBlock",
      "outputs": [
        {
          "name": "",
          "type": "uint256"
        }
      ],
      "payable": false,
      "stateMutability": "view",
      "type": "function"
    }
  ],
  "bytecode": "0x608060405234801561001057600080fd5b50426000819055504360018190555060dd8061002d6000396000f3006080604052600436106049576000357c0100000000000000000000000000000000000000000000000000000000900463ffffffff1680631763451414604e578063b3311086146076575b600080fd5b348015605957600080fd5b506060609e565b6040518082815260200191505060405180910390f35b348015608157600080fd5b50608860a8565b6040518082815260200191505060405180910390f35b6000600154905090565b600080549050905600a165627a7a72305820ad9f37fbfa83f6d23b88cdb0111890e9ebf0fbeaf63217c9daaa62de06d4cd2b0029",
  "source": "pragma solidity 0.4.24;\n\n/**\n * Every Standard period is able to return a height based on the creation block of the smart contract, given a time unit used to make calculations.\n */\n\ncontract TracksCreation {\n\n    uint256 private _creationTimestamp;\n    uint256 private _creationBlock;\n    uint256 private _offset;\n\n    constructor() public {\n        _creationTimestamp = block.timestamp;\n        _creationBlock = block.number;  \n    }\n\n    function creationTimestamp() public view returns (uint256) { \n        return _creationTimestamp;\n    }\n\n    function creationBlock() public view returns (uint256) {\n        return _creationBlock;\n     }\n    \n}",
  "sourcePath": "/Users/carlosbuendia/Documents/Projects/consensys/Frontier/cron/contracts/TracksCreation.sol",
  "compiler": {
    "name": "solc",
    "version": "0.4.24+commit.e67f0147.Emscripten.clang"
  },
  "schemaVersion": "2.0.0",
  "updatedAt": "2018-11-22T12:03:13.684Z"
}