{
  "contractName": "TRL",
  "abi": [
    {
      "constant": true,
      "inputs": [],
      "name": "candidateRegistry",
      "outputs": [
        {
          "name": "",
          "type": "address"
        }
      ],
      "payable": false,
      "stateMutability": "view",
      "type": "function"
    },
    {
      "constant": true,
      "inputs": [
        {
          "name": "",
          "type": "uint256"
        },
        {
          "name": "",
          "type": "address"
        }
      ],
      "name": "votesReceived",
      "outputs": [
        {
          "name": "",
          "type": "uint256"
        }
      ],
      "payable": false,
      "stateMutability": "view",
      "type": "function"
    },
    {
      "constant": true,
      "inputs": [],
      "name": "periodIndex",
      "outputs": [
        {
          "name": "",
          "type": "uint256"
        }
      ],
      "payable": false,
      "stateMutability": "view",
      "type": "function"
    },
    {
      "constant": true,
      "inputs": [
        {
          "name": "",
          "type": "uint256"
        },
        {
          "name": "",
          "type": "address"
        }
      ],
      "name": "votesBalance",
      "outputs": [
        {
          "name": "",
          "type": "uint256"
        }
      ],
      "payable": false,
      "stateMutability": "view",
      "type": "function"
    },
    {
      "constant": true,
      "inputs": [
        {
          "name": "",
          "type": "uint256"
        }
      ],
      "name": "periodRegistry",
      "outputs": [
        {
          "name": "startTime",
          "type": "uint256"
        },
        {
          "name": "totalVotes",
          "type": "uint256"
        },
        {
          "name": "state",
          "type": "uint8"
        },
        {
          "name": "TTL",
          "type": "uint256"
        },
        {
          "name": "activeTime",
          "type": "uint256"
        },
        {
          "name": "claimTime",
          "type": "uint256"
        }
      ],
      "payable": false,
      "stateMutability": "view",
      "type": "function"
    },
    {
      "constant": true,
      "inputs": [],
      "name": "voterRegistry",
      "outputs": [
        {
          "name": "",
          "type": "address"
        }
      ],
      "payable": false,
      "stateMutability": "view",
      "type": "function"
    },
    {
      "constant": true,
      "inputs": [],
      "name": "token",
      "outputs": [
        {
          "name": "",
          "type": "address"
        }
      ],
      "payable": false,
      "stateMutability": "view",
      "type": "function"
    },
    {
      "inputs": [
        {
          "name": "_tokenAddress",
          "type": "address"
        },
        {
          "name": "_candidateRegistryAddress",
          "type": "address"
        },
        {
          "name": "_voterRegistryAddress",
          "type": "address"
        },
        {
          "name": "_initialTTL",
          "type": "uint256"
        },
        {
          "name": "_initialActiveTime",
          "type": "uint256"
        },
        {
          "name": "_initialClaimTime",
          "type": "uint256"
        }
      ],
      "payable": false,
      "stateMutability": "nonpayable",
      "type": "constructor"
    },
    {
      "anonymous": false,
      "inputs": [
        {
          "indexed": false,
          "name": "_time",
          "type": "uint256"
        }
      ],
      "name": "ContractCreated",
      "type": "event"
    },
    {
      "anonymous": false,
      "inputs": [
        {
          "indexed": true,
          "name": "_recipient",
          "type": "address"
        },
        {
          "indexed": false,
          "name": "_amount",
          "type": "uint256"
        },
        {
          "indexed": false,
          "name": "_period",
          "type": "uint256"
        }
      ],
      "name": "VotesBought",
      "type": "event"
    },
    {
      "anonymous": false,
      "inputs": [
        {
          "indexed": true,
          "name": "_recipient",
          "type": "address"
        },
        {
          "indexed": false,
          "name": "_amount",
          "type": "uint256"
        },
        {
          "indexed": false,
          "name": "_period",
          "type": "uint256"
        }
      ],
      "name": "BountyRelased",
      "type": "event"
    },
    {
      "anonymous": false,
      "inputs": [
        {
          "indexed": true,
          "name": "_stateFrom",
          "type": "uint256"
        },
        {
          "indexed": false,
          "name": "_stateTo",
          "type": "uint256"
        },
        {
          "indexed": false,
          "name": "_time",
          "type": "uint256"
        }
      ],
      "name": "StateChange",
      "type": "event"
    },
    {
      "anonymous": false,
      "inputs": [
        {
          "indexed": true,
          "name": "_periodFrom",
          "type": "uint256"
        },
        {
          "indexed": false,
          "name": "_periodTo",
          "type": "uint256"
        }
      ],
      "name": "PeriodForward",
      "type": "event"
    },
    {
      "anonymous": false,
      "inputs": [
        {
          "indexed": true,
          "name": "_voterAddress",
          "type": "address"
        },
        {
          "indexed": true,
          "name": "_candidateAddress",
          "type": "address"
        },
        {
          "indexed": false,
          "name": "_amount",
          "type": "uint256"
        },
        {
          "indexed": false,
          "name": "_periodIndex",
          "type": "uint256"
        }
      ],
      "name": "Vote",
      "type": "event"
    },
    {
      "constant": false,
      "inputs": [
        {
          "name": "_periodTTL",
          "type": "uint256"
        }
      ],
      "name": "initPeriod",
      "outputs": [],
      "payable": false,
      "stateMutability": "nonpayable",
      "type": "function"
    },
    {
      "constant": false,
      "inputs": [
        {
          "name": "_amount",
          "type": "uint256"
        }
      ],
      "name": "buyTokenVotes",
      "outputs": [],
      "payable": false,
      "stateMutability": "nonpayable",
      "type": "function"
    },
    {
      "constant": false,
      "inputs": [
        {
          "name": "_candidateAddress",
          "type": "address"
        },
        {
          "name": "_amount",
          "type": "uint256"
        }
      ],
      "name": "vote",
      "outputs": [],
      "payable": false,
      "stateMutability": "nonpayable",
      "type": "function"
    },
    {
      "constant": false,
      "inputs": [],
      "name": "initClaimingState",
      "outputs": [],
      "payable": false,
      "stateMutability": "nonpayable",
      "type": "function"
    },
    {
      "constant": false,
      "inputs": [],
      "name": "claimBounty",
      "outputs": [],
      "payable": false,
      "stateMutability": "nonpayable",
      "type": "function"
    },
    {
      "constant": false,
      "inputs": [],
      "name": "closePeriod",
      "outputs": [],
      "payable": false,
      "stateMutability": "nonpayable",
      "type": "function"
    }
  ],
  "bytecode": "0x606060405234156200001057600080fd5b60405160c080620017048339810160405280805190602001909190805190602001909190805190602001909190805190602001909190805190602001909190805190602001909190505085600460006101000a81548173ffffffffffffffffffffffffffffffffffffffff021916908373ffffffffffffffffffffffffffffffffffffffff16021790555084600260006101000a81548173ffffffffffffffffffffffffffffffffffffffff021916908373ffffffffffffffffffffffffffffffffffffffff16021790555083600360006101000a81548173ffffffffffffffffffffffffffffffffffffffff021916908373ffffffffffffffffffffffffffffffffffffffff16021790555060c06040519081016040528042815260200160008152602001600060038111156200014457fe5b815260200184815260200183815260200182815250600660006005548152602001908152602001600020600082015181600001556020820151816001015560408201518160020160006101000a81548160ff02191690836003811115620001a757fe5b0217905550606082015181600301556080820151816004015560a08201518160050155905050620001ec83620001f86401000000000262000c96176401000000009004565b505050505050620003fe565b600060038111156200020657fe5b60066000600554815260200190815260200160002060020160009054906101000a900460ff1660038111156200023857fe5b1415156200024557600080fd5b806006600060055481526020019081526020016000206003018190555042600660006005548152602001908152602001600020600001819055506200029d620002a06401000000000262001125176401000000009004565b50565b620002f5600160066000600554815260200190815260200160002060020160009054906101000a900460ff166003811115620002d857fe5b620003e164010000000002620012ae179091906401000000009004565b60038111156200030157fe5b60066000600554815260200190815260200160002060020160006101000a81548160ff021916908360038111156200033557fe5b0217905550600160066000600554815260200190815260200160002060020160009054906101000a900460ff1660038111156200036e57fe5b037f516112f3bf06e373fcea44db364769c04cc7ef4392e6de95d2b250720bcacefb60066000600554815260200190815260200160002060020160009054906101000a900460ff166003811115620003c257fe5b42604051808381526020018281526020019250505060405180910390a2565b60008183019050828110151515620003f557fe5b80905092915050565b6112f6806200040e6000396000f3006060604052600436106100c5576000357c0100000000000000000000000000000000000000000000000000000000900463ffffffff16806319de0477146100ca5780632bc8223f1461011f57806333dd6bed14610134578063507a73281461018a578063560f66ea1461019f5780635706d0ec146101c85780635e1ce58a1461021e5780635f74bbde14610241578063a68504cb14610283578063be60040e146102eb578063bfabe55714610340578063ee4be28814610363578063fc0c546a14610378575b600080fd5b34156100d557600080fd5b6100dd6103cd565b604051808273ffffffffffffffffffffffffffffffffffffffff1673ffffffffffffffffffffffffffffffffffffffff16815260200191505060405180910390f35b341561012a57600080fd5b6101326103f3565b005b341561013f57600080fd5b610174600480803590602001909190803573ffffffffffffffffffffffffffffffffffffffff16906020019091905050610488565b6040518082815260200191505060405180910390f35b341561019557600080fd5b61019d6104ad565b005b34156101aa57600080fd5b6101b2610549565b6040518082815260200191505060405180910390f35b34156101d357600080fd5b610208600480803590602001909190803573ffffffffffffffffffffffffffffffffffffffff1690602001909190505061054f565b6040518082815260200191505060405180910390f35b341561022957600080fd5b61023f6004808035906020019091905050610574565b005b341561024c57600080fd5b610281600480803573ffffffffffffffffffffffffffffffffffffffff169060200190919080359060200190919050506107ed565b005b341561028e57600080fd5b6102a46004808035906020019091905050610c27565b604051808781526020018681526020018560038111156102c057fe5b60ff168152602001848152602001838152602001828152602001965050505050505060405180910390f35b34156102f657600080fd5b6102fe610c70565b604051808273ffffffffffffffffffffffffffffffffffffffff1673ffffffffffffffffffffffffffffffffffffffff16815260200191505060405180910390f35b341561034b57600080fd5b6103616004808035906020019091905050610c96565b005b341561036e57600080fd5b610376610d25565b005b341561038357600080fd5b61038b6110ff565b604051808273ffffffffffffffffffffffffffffffffffffffff1673ffffffffffffffffffffffffffffffffffffffff16815260200191505060405180910390f35b600260009054906101000a900473ffffffffffffffffffffffffffffffffffffffff1681565b6001600381111561040057fe5b60066000600554815260200190815260200160002060020160009054906101000a900460ff16600381111561043157fe5b14151561043d57600080fd5b600660006005548152602001908152602001600020600401546006600060055481526020019081526020016000206000015442031015151561047e57600080fd5b610486611125565b565b6000602052816000526040600020602052806000526040600020600091509150505481565b600260038111156104ba57fe5b60066000600554815260200190815260200160002060020160009054906101000a900460ff1660038111156104eb57fe5b1415156104f757600080fd5b6006600060055481526020019081526020016000206003015460066000600554815260200190815260200160002060000154420311151561053757600080fd5b61053f611125565b610547611251565b565b60055481565b6001602052816000526040600020602052806000526040600020600091509150505481565b6001600381111561058157fe5b60066000600554815260200190815260200160002060020160009054906101000a900460ff1660038111156105b257fe5b1415156105be57600080fd5b600460009054906101000a900473ffffffffffffffffffffffffffffffffffffffff1673ffffffffffffffffffffffffffffffffffffffff166323b872dd3330846040518463ffffffff167c0100000000000000000000000000000000000000000000000000000000028152600401808473ffffffffffffffffffffffffffffffffffffffff1673ffffffffffffffffffffffffffffffffffffffff1681526020018373ffffffffffffffffffffffffffffffffffffffff1673ffffffffffffffffffffffffffffffffffffffff1681526020018281526020019350505050602060405180830381600087803b15156106b657600080fd5b5af115156106c357600080fd5b5050506040518051905015156106d857600080fd5b61073d8160016000600554815260200190815260200160002060003373ffffffffffffffffffffffffffffffffffffffff1673ffffffffffffffffffffffffffffffffffffffff168152602001908152602001600020546112ae90919063ffffffff16565b60016000600554815260200190815260200160002060003373ffffffffffffffffffffffffffffffffffffffff1673ffffffffffffffffffffffffffffffffffffffff168152602001908152602001600020819055503373ffffffffffffffffffffffffffffffffffffffff167efaaf3336e5c925e4d3017cc75d38ca026330a20faef146fd24501f98d16cb782600554604051808381526020018281526020019250505060405180910390a250565b600160038111156107fa57fe5b60066000600554815260200190815260200160002060020160009054906101000a900460ff16600381111561082b57fe5b14151561083757600080fd5b600260009054906101000a900473ffffffffffffffffffffffffffffffffffffffff1673ffffffffffffffffffffffffffffffffffffffff16633af32abf836040518263ffffffff167c0100000000000000000000000000000000000000000000000000000000028152600401808273ffffffffffffffffffffffffffffffffffffffff1673ffffffffffffffffffffffffffffffffffffffff168152602001915050602060405180830381600087803b15156108f357600080fd5b5af1151561090057600080fd5b50505060405180519050151561091557600080fd5b8060016000600554815260200190815260200160002060003373ffffffffffffffffffffffffffffffffffffffff1673ffffffffffffffffffffffffffffffffffffffff168152602001908152602001600020541015151561097657600080fd5b600360009054906101000a900473ffffffffffffffffffffffffffffffffffffffff1673ffffffffffffffffffffffffffffffffffffffff16633af32abf336040518263ffffffff167c0100000000000000000000000000000000000000000000000000000000028152600401808273ffffffffffffffffffffffffffffffffffffffff1673ffffffffffffffffffffffffffffffffffffffff168152602001915050602060405180830381600087803b1515610a3257600080fd5b5af11515610a3f57600080fd5b505050604051805190501515610a5457600080fd5b610ab881600080600554815260200190815260200160002060008573ffffffffffffffffffffffffffffffffffffffff1673ffffffffffffffffffffffffffffffffffffffff168152602001908152602001600020546112ae90919063ffffffff16565b600080600554815260200190815260200160002060008473ffffffffffffffffffffffffffffffffffffffff1673ffffffffffffffffffffffffffffffffffffffff168152602001908152602001600020819055508060016000600554815260200190815260200160002060003373ffffffffffffffffffffffffffffffffffffffff1673ffffffffffffffffffffffffffffffffffffffff16815260200190815260200160002060008282540392505081905550610b9881600660006005548152602001908152602001600020600101546112ae90919063ffffffff16565b600660006005548152602001908152602001600020600101819055508173ffffffffffffffffffffffffffffffffffffffff163373ffffffffffffffffffffffffffffffffffffffff167f6a92c4ce4cbb892528ab39f7d674be0f6b1579b54ed8e77d95ad506819fd72c883600554604051808381526020018281526020019250505060405180910390a35050565b60066020528060005260406000206000915090508060000154908060010154908060020160009054906101000a900460ff16908060030154908060040154908060050154905086565b600360009054906101000a900473ffffffffffffffffffffffffffffffffffffffff1681565b60006003811115610ca357fe5b60066000600554815260200190815260200160002060020160009054906101000a900460ff166003811115610cd457fe5b141515610ce057600080fd5b80600660006005548152602001908152602001600020600301819055504260066000600554815260200190815260200160002060000181905550610d22611125565b50565b600060026003811115610d3457fe5b60066000600554815260200190815260200160002060020160009054906101000a900460ff166003811115610d6557fe5b141515610d7157600080fd5b60011515600260009054906101000a900473ffffffffffffffffffffffffffffffffffffffff1673ffffffffffffffffffffffffffffffffffffffff16633af32abf336040518263ffffffff167c0100000000000000000000000000000000000000000000000000000000028152600401808273ffffffffffffffffffffffffffffffffffffffff1673ffffffffffffffffffffffffffffffffffffffff168152602001915050602060405180830381600087803b1515610e3157600080fd5b5af11515610e3e57600080fd5b505050604051805190501515141515610e5657600080fd5b600060066000600554815260200190815260200160002060010154111515610e7d57600080fd5b60066000600554815260200190815260200160002060010154600460009054906101000a900473ffffffffffffffffffffffffffffffffffffffff1673ffffffffffffffffffffffffffffffffffffffff166370a08231306040518263ffffffff167c0100000000000000000000000000000000000000000000000000000000028152600401808273ffffffffffffffffffffffffffffffffffffffff1673ffffffffffffffffffffffffffffffffffffffff168152602001915050602060405180830381600087803b1515610f5257600080fd5b5af11515610f5f57600080fd5b50505060405180519050600080600554815260200190815260200160002060003373ffffffffffffffffffffffffffffffffffffffff1673ffffffffffffffffffffffffffffffffffffffff1681526020019081526020016000205402811515610fc557fe5b049050600460009054906101000a900473ffffffffffffffffffffffffffffffffffffffff1673ffffffffffffffffffffffffffffffffffffffff1663a9059cbb33836040518363ffffffff167c0100000000000000000000000000000000000000000000000000000000028152600401808373ffffffffffffffffffffffffffffffffffffffff1673ffffffffffffffffffffffffffffffffffffffff16815260200182815260200192505050602060405180830381600087803b151561108c57600080fd5b5af1151561109957600080fd5b50505060405180519050503373ffffffffffffffffffffffffffffffffffffffff167f68a01c51691a9f9e26f898f67b3a9a77f49e2805a1458883efa86e163865541a82600554604051808381526020018281526020019250505060405180910390a250565b600460009054906101000a900473ffffffffffffffffffffffffffffffffffffffff1681565b611169600160066000600554815260200190815260200160002060020160009054906101000a900460ff16600381111561115b57fe5b6112ae90919063ffffffff16565b600381111561117457fe5b60066000600554815260200190815260200160002060020160006101000a81548160ff021916908360038111156111a757fe5b0217905550600160066000600554815260200190815260200160002060020160009054906101000a900460ff1660038111156111df57fe5b037f516112f3bf06e373fcea44db364769c04cc7ef4392e6de95d2b250720bcacefb60066000600554815260200190815260200160002060020160009054906101000a900460ff16600381111561123257fe5b42604051808381526020018281526020019250505060405180910390a2565b61126760016005546112ae90919063ffffffff16565b6005819055506001600554037fcd7a5cc1e92c733f75265bb90f9f00c179b6728f1e1f5d85e4f8622557d70dc16005546040518082815260200191505060405180910390a2565b600081830190508281101515156112c157fe5b809050929150505600a165627a7a723058205ee93c912070e16f925c4af0489c8ffb2ac8062703e13bbcf987a36c52d3f6cb0029",
  "source": "pragma solidity 0.4.21;\n\nimport \"openzeppelin-solidity/contracts/math/SafeMath.sol\";\nimport \"openzeppelin-solidity/contracts/token/ERC20/StandardToken.sol\";\nimport \"./OwnedRegistry.sol\";\n\n/**\n* A Token Ranked List (TRL) enables voting with staked tokens periodically, over a registry of candidates\n*\n**/\ncontract TRL {\n    using SafeMath for uint256;\n\n     // Amount that only can be changed in exchange of FTR\n    mapping (uint256 => mapping(address=> uint256)) public votesReceived;\n\n    // For each period, maps user's address to voteToken balance\n    mapping (uint256 => mapping(address => uint256)) public votesBalance;\n\n    // Registry of candidates to be voted\n    OwnedRegistry public candidateRegistry;\n\n    // Registry of candidates allowed to vote\n    OwnedRegistry public voterRegistry;\n\n    // Master Token, used to buy votes\n    StandardToken public token;\n\n    // Index, Defines the current period\n    uint256 public periodIndex;\n\n    enum PeriodState {CREATED, ACTIVE, CLAIM, CLOSED}\n\n    struct Period {\n        uint256 startTime;\n        uint256 totalVotes;\n        PeriodState state;\n        uint256 TTL;\n        uint256 activeTime;\n        uint256 claimTime;\n    }\n\n    mapping (uint256 => Period) public periodRegistry;\n\n    /**\n    * Creates a new Instance of a Voting Lists\n    * @param _tokenAddress Address of the token used for\n    *\n    **/\n\n    function TRL(\n        address _tokenAddress,\n        address _candidateRegistryAddress,\n        address _voterRegistryAddress,\n        uint256 _initialTTL,\n        uint256 _initialActiveTime,\n        uint256 _initialClaimTime)\n        public\n    {\n        token = StandardToken(_tokenAddress);\n        candidateRegistry = OwnedRegistry(_candidateRegistryAddress);\n        voterRegistry = OwnedRegistry(_voterRegistryAddress);\n        periodRegistry[periodIndex] = Period(block.timestamp, 0,PeriodState.CREATED, _initialTTL, _initialActiveTime, _initialClaimTime);\n        initPeriod(_initialTTL);\n    }\n\n    /**\n    * Initializes a new period, taking as the TTL value the current from storage, and setting the state to 1\n    * Requires that the current period is Preparing (0)\n    **/\n\n    function initPeriod(uint256 _periodTTL) public {\n        require(periodRegistry[periodIndex].state == PeriodState.CREATED);\n        periodRegistry[periodIndex].TTL = _periodTTL;\n        periodRegistry[periodIndex].startTime = now;\n        nextState();\n    }\n\n    /**\n    * Exchanges the main token for an amount of votes\n    * Requires previous allowance of expenditure of at least the amount required\n    * Currently 1:1 exchange used, but this rate could be changed\n    * @param _amount Amount of votes that the voter wants to buy\n    **/\n\n    function buyTokenVotes(uint256 _amount) public {\n        require(periodRegistry[periodIndex].state == PeriodState.ACTIVE);\n        require(token.transferFrom(msg.sender,this, _amount));\n        votesBalance[periodIndex][msg.sender] = votesBalance[periodIndex][msg.sender].add(_amount);\n        emit VotesBought(msg.sender, _amount, periodIndex);\n    }\n\n    /**\n    * Adds a new vote for a candidate. It fails if the candidate hasn't approved before the specified amount\n    * @param _candidateAddress address of the candidate selected\n    * @param _amount of votes used\n    **/\n\n    function vote(address _candidateAddress, uint256 _amount) public {\n        require(periodRegistry[periodIndex].state == PeriodState.ACTIVE);\n        require(candidateRegistry.isWhitelisted(_candidateAddress));\n        require(votesBalance[periodIndex][msg.sender] >= _amount);\n        require(voterRegistry.isWhitelisted(msg.sender));\n        votesReceived[periodIndex][_candidateAddress] = votesReceived[periodIndex][_candidateAddress].add(_amount);\n        votesBalance[periodIndex][msg.sender] -= _amount;\n        periodRegistry[periodIndex].totalVotes = periodRegistry[periodIndex].totalVotes.add(_amount);\n        emit Vote(msg.sender,_candidateAddress, _amount, periodIndex);\n    }\n\n    /**\n    * Moves the period from active to Claiming.\n    *\n    **/\n\n    function initClaimingState() public {\n        require(periodRegistry[periodIndex].state == PeriodState.ACTIVE);\n        require ((now - periodRegistry[periodIndex].startTime) >= periodRegistry[periodIndex].activeTime);\n        nextState();\n    }\n\n    /**\n    * Enables an analyst to claim a bounty in the claim period\n    *\n    *\n    **/\n\n    function claimBounty() public {\n        require(periodRegistry[periodIndex].state == PeriodState.CLAIM);\n        require(candidateRegistry.isWhitelisted(msg.sender) == true);\n        require(periodRegistry[periodIndex].totalVotes>0);\n        uint256 totalAmount = votesReceived[periodIndex][msg.sender] * token.balanceOf(this)/periodRegistry[periodIndex].totalVotes;\n        token.transfer(msg.sender, totalAmount);\n        emit BountyRelased(msg.sender, totalAmount, periodIndex);\n    }\n\n    /**\n    * Closes the current period and sets the current period pointer to the next item, enabling again init.\n    *\n    **/\n\n    function closePeriod() public {\n        require (periodRegistry[periodIndex].state == PeriodState.CLAIM);\n        require (now - periodRegistry[periodIndex].startTime > periodRegistry[periodIndex].TTL);\n        nextState();\n        nextPeriod();\n    }\n\n\n    /**\n    * Moves from the current state to the Next State {CREATED, ACTIVE, CLAIM, CLOSED}\n    *\n    **/\n\n    function nextState() internal {\n        periodRegistry[periodIndex].state = PeriodState(uint(periodRegistry[periodIndex].state).add(1));\n        emit StateChange(uint(periodRegistry[periodIndex].state)-1 , uint(periodRegistry[periodIndex].state), now);\n    }\n\n    /**\n    * Moves from the current period to the next period\n    **/\n\n    function nextPeriod() internal {\n        periodIndex = periodIndex.add(1);\n        emit PeriodForward(periodIndex-1, periodIndex);\n    }\n\n    event ContractCreated (uint256 _time);\n    event VotesBought(address indexed _recipient, uint256 _amount, uint256 _period);\n    event BountyRelased(address indexed _recipient, uint256 _amount, uint256 _period);\n    event StateChange(uint256 indexed _stateFrom, uint256 _stateTo, uint256 _time);\n    event PeriodForward(uint256 indexed _periodFrom, uint256 _periodTo);\n    event Vote(address indexed _voterAddress, address indexed _candidateAddress, uint256 _amount, uint256 _periodIndex);\n}\n",
  "sourcePath": "/Users/carlosbuendia/Documents/Projects/consensys/Frontier/TokenRankedLists/contracts/TRL.sol",
  "compiler": {
    "name": "solc",
    "version": "0.4.21+commit.dfe3193c.Emscripten.clang"
  },
  "schemaVersion": "2.0.0",
  "updatedAt": "2018-05-14T16:39:48.974Z"
}