{
  "contractName": "TRL",
  "abi": [
    {
      "constant": true,
      "inputs": [],
      "name": "candidateRegistry",
      "outputs": [
        {
          "name": "",
          "type": "address"
        }
      ],
      "payable": false,
      "stateMutability": "view",
      "type": "function"
    },
    {
      "constant": true,
      "inputs": [
        {
          "name": "",
          "type": "uint256"
        },
        {
          "name": "",
          "type": "address"
        }
      ],
      "name": "votesReceived",
      "outputs": [
        {
          "name": "",
          "type": "uint256"
        }
      ],
      "payable": false,
      "stateMutability": "view",
      "type": "function"
    },
    {
      "constant": true,
      "inputs": [],
      "name": "periodIndex",
      "outputs": [
        {
          "name": "",
          "type": "uint256"
        }
      ],
      "payable": false,
      "stateMutability": "view",
      "type": "function"
    },
    {
      "constant": true,
      "inputs": [
        {
          "name": "",
          "type": "uint256"
        },
        {
          "name": "",
          "type": "address"
        }
      ],
      "name": "votesBalance",
      "outputs": [
        {
          "name": "",
          "type": "uint256"
        }
      ],
      "payable": false,
      "stateMutability": "view",
      "type": "function"
    },
    {
      "constant": true,
      "inputs": [
        {
          "name": "",
          "type": "uint256"
        }
      ],
      "name": "periodRegistry",
      "outputs": [
        {
          "name": "startTime",
          "type": "uint256"
        },
        {
          "name": "totalVotes",
          "type": "uint256"
        },
        {
          "name": "state",
          "type": "uint8"
        },
        {
          "name": "TTL",
          "type": "uint256"
        },
        {
          "name": "activeTime",
          "type": "uint256"
        },
        {
          "name": "claimTime",
          "type": "uint256"
        }
      ],
      "payable": false,
      "stateMutability": "view",
      "type": "function"
    },
    {
      "constant": true,
      "inputs": [],
      "name": "voterRegistry",
      "outputs": [
        {
          "name": "",
          "type": "address"
        }
      ],
      "payable": false,
      "stateMutability": "view",
      "type": "function"
    },
    {
      "constant": true,
      "inputs": [],
      "name": "token",
      "outputs": [
        {
          "name": "",
          "type": "address"
        }
      ],
      "payable": false,
      "stateMutability": "view",
      "type": "function"
    },
    {
      "inputs": [
        {
          "name": "_tokenAddress",
          "type": "address"
        },
        {
          "name": "_candidateRegistryAddress",
          "type": "address"
        },
        {
          "name": "_voterRegistryAddress",
          "type": "address"
        },
        {
          "name": "_initialTTL",
          "type": "uint256"
        },
        {
          "name": "_initialActiveTime",
          "type": "uint256"
        },
        {
          "name": "_initialClaimTime",
          "type": "uint256"
        }
      ],
      "payable": false,
      "stateMutability": "nonpayable",
      "type": "constructor"
    },
    {
      "anonymous": false,
      "inputs": [
        {
          "indexed": false,
          "name": "_time",
          "type": "uint256"
        }
      ],
      "name": "ContractCreated",
      "type": "event"
    },
    {
      "anonymous": false,
      "inputs": [
        {
          "indexed": true,
          "name": "_recipient",
          "type": "address"
        },
        {
          "indexed": false,
          "name": "_amount",
          "type": "uint256"
        },
        {
          "indexed": false,
          "name": "_period",
          "type": "uint256"
        }
      ],
      "name": "VotesBought",
      "type": "event"
    },
    {
      "anonymous": false,
      "inputs": [
        {
          "indexed": true,
          "name": "_recipient",
          "type": "address"
        },
        {
          "indexed": false,
          "name": "_amount",
          "type": "uint256"
        },
        {
          "indexed": false,
          "name": "_period",
          "type": "uint256"
        }
      ],
      "name": "BountyRelased",
      "type": "event"
    },
    {
      "anonymous": false,
      "inputs": [
        {
          "indexed": true,
          "name": "_stateFrom",
          "type": "uint256"
        },
        {
          "indexed": false,
          "name": "_stateTo",
          "type": "uint256"
        },
        {
          "indexed": false,
          "name": "_time",
          "type": "uint256"
        }
      ],
      "name": "StateChange",
      "type": "event"
    },
    {
      "anonymous": false,
      "inputs": [
        {
          "indexed": true,
          "name": "_periodFrom",
          "type": "uint256"
        },
        {
          "indexed": false,
          "name": "_periodTo",
          "type": "uint256"
        }
      ],
      "name": "PeriodForward",
      "type": "event"
    },
    {
      "anonymous": false,
      "inputs": [
        {
          "indexed": true,
          "name": "_voterAddress",
          "type": "address"
        },
        {
          "indexed": true,
          "name": "_candidateAddress",
          "type": "address"
        },
        {
          "indexed": false,
          "name": "_amount",
          "type": "uint256"
        },
        {
          "indexed": false,
          "name": "_periodIndex",
          "type": "uint256"
        }
      ],
      "name": "Vote",
      "type": "event"
    },
    {
      "constant": false,
      "inputs": [
        {
          "name": "_periodTTL",
          "type": "uint256"
        }
      ],
      "name": "initPeriod",
      "outputs": [],
      "payable": false,
      "stateMutability": "nonpayable",
      "type": "function"
    },
    {
      "constant": false,
      "inputs": [
        {
          "name": "_amount",
          "type": "uint256"
        }
      ],
      "name": "buyTokenVotes",
      "outputs": [],
      "payable": false,
      "stateMutability": "nonpayable",
      "type": "function"
    },
    {
      "constant": false,
      "inputs": [
        {
          "name": "_candidateAddress",
          "type": "address"
        },
        {
          "name": "_amount",
          "type": "uint256"
        }
      ],
      "name": "vote",
      "outputs": [],
      "payable": false,
      "stateMutability": "nonpayable",
      "type": "function"
    },
    {
      "constant": false,
      "inputs": [],
      "name": "initClaimingState",
      "outputs": [],
      "payable": false,
      "stateMutability": "nonpayable",
      "type": "function"
    },
    {
      "constant": false,
      "inputs": [],
      "name": "claimBounty",
      "outputs": [],
      "payable": false,
      "stateMutability": "nonpayable",
      "type": "function"
    },
    {
      "constant": false,
      "inputs": [],
      "name": "closePeriod",
      "outputs": [],
      "payable": false,
      "stateMutability": "nonpayable",
      "type": "function"
    }
  ],
  "bytecode": "0x60806040523480156200001157600080fd5b5060405160c080620018a183398101806040528101908080519060200190929190805190602001909291908051906020019092919080519060200190929190805190602001909291908051906020019092919050505060008573ffffffffffffffffffffffffffffffffffffffff1614158015620000a6575060008473ffffffffffffffffffffffffffffffffffffffff1614155b8015620000ca575060008673ffffffffffffffffffffffffffffffffffffffff1614155b1515620000d657600080fd5b85600460006101000a81548173ffffffffffffffffffffffffffffffffffffffff021916908373ffffffffffffffffffffffffffffffffffffffff16021790555084600260006101000a81548173ffffffffffffffffffffffffffffffffffffffff021916908373ffffffffffffffffffffffffffffffffffffffff16021790555083600360006101000a81548173ffffffffffffffffffffffffffffffffffffffff021916908373ffffffffffffffffffffffffffffffffffffffff16021790555060c0604051908101604052804381526020016000815260200160006003811115620001c057fe5b815260200184815260200183815260200182815250600660006005548152602001908152602001600020600082015181600001556020820151816001015560408201518160020160006101000a81548160ff021916908360038111156200022357fe5b0217905550606082015181600301556080820151816004015560a0820151816005015590505062000263836200026f640100000000026401000000009004565b50505050505062000470565b600060038111156200027d57fe5b60066000600554815260200190815260200160002060020160009054906101000a900460ff166003811115620002af57fe5b141515620002bc57600080fd5b806006600060055481526020019081526020016000206003018190555042600660006005548152602001908152602001600020600001819055506200030f62000312640100000000026401000000009004565b50565b62000367600160066000600554815260200190815260200160002060020160009054906101000a900460ff1660038111156200034a57fe5b6200045364010000000002620013d9179091906401000000009004565b60038111156200037357fe5b60066000600554815260200190815260200160002060020160006101000a81548160ff02191690836003811115620003a757fe5b0217905550600160066000600554815260200190815260200160002060020160009054906101000a900460ff166003811115620003e057fe5b037f516112f3bf06e373fcea44db364769c04cc7ef4392e6de95d2b250720bcacefb60066000600554815260200190815260200160002060020160009054906101000a900460ff1660038111156200043457fe5b42604051808381526020018281526020019250505060405180910390a2565b600081830190508281101515156200046757fe5b80905092915050565b61142180620004806000396000f3006080604052600436106100c5576000357c0100000000000000000000000000000000000000000000000000000000900463ffffffff16806319de0477146100ca5780632bc8223f1461012157806333dd6bed14610138578063507a732814610199578063560f66ea146101b05780635706d0ec146101db5780635e1ce58a1461023c5780635f74bbde14610269578063a68504cb146102b6578063be60040e14610328578063bfabe5571461037f578063ee4be288146103ac578063fc0c546a146103c3575b600080fd5b3480156100d657600080fd5b506100df61041a565b604051808273ffffffffffffffffffffffffffffffffffffffff1673ffffffffffffffffffffffffffffffffffffffff16815260200191505060405180910390f35b34801561012d57600080fd5b50610136610440565b005b34801561014457600080fd5b5061018360048036038101908080359060200190929190803573ffffffffffffffffffffffffffffffffffffffff1690602001909291905050506104d5565b6040518082815260200191505060405180910390f35b3480156101a557600080fd5b506101ae6104fa565b005b3480156101bc57600080fd5b506101c5610596565b6040518082815260200191505060405180910390f35b3480156101e757600080fd5b5061022660048036038101908080359060200190929190803573ffffffffffffffffffffffffffffffffffffffff16906020019092919050505061059c565b6040518082815260200191505060405180910390f35b34801561024857600080fd5b50610267600480360381019080803590602001909291905050506105c1565b005b34801561027557600080fd5b506102b4600480360381019080803573ffffffffffffffffffffffffffffffffffffffff1690602001909291908035906020019092919050505061085f565b005b3480156102c257600080fd5b506102e160048036038101908080359060200190929190505050610ce3565b604051808781526020018681526020018560038111156102fd57fe5b60ff168152602001848152602001838152602001828152602001965050505050505060405180910390f35b34801561033457600080fd5b5061033d610d2c565b604051808273ffffffffffffffffffffffffffffffffffffffff1673ffffffffffffffffffffffffffffffffffffffff16815260200191505060405180910390f35b34801561038b57600080fd5b506103aa60048036038101908080359060200190929190505050610d52565b005b3480156103b857600080fd5b506103c1610de1565b005b3480156103cf57600080fd5b506103d861122a565b604051808273ffffffffffffffffffffffffffffffffffffffff1673ffffffffffffffffffffffffffffffffffffffff16815260200191505060405180910390f35b600260009054906101000a900473ffffffffffffffffffffffffffffffffffffffff1681565b6001600381111561044d57fe5b60066000600554815260200190815260200160002060020160009054906101000a900460ff16600381111561047e57fe5b14151561048a57600080fd5b60066000600554815260200190815260200160002060040154600660006005548152602001908152602001600020600001544203101515156104cb57600080fd5b6104d3611250565b565b6000602052816000526040600020602052806000526040600020600091509150505481565b6002600381111561050757fe5b60066000600554815260200190815260200160002060020160009054906101000a900460ff16600381111561053857fe5b14151561054457600080fd5b6006600060055481526020019081526020016000206003015460066000600554815260200190815260200160002060000154420311151561058457600080fd5b61058c611250565b61059461137c565b565b60055481565b6001602052816000526040600020602052806000526040600020600091509150505481565b600160038111156105ce57fe5b60066000600554815260200190815260200160002060020160009054906101000a900460ff1660038111156105ff57fe5b14151561060b57600080fd5b600460009054906101000a900473ffffffffffffffffffffffffffffffffffffffff1673ffffffffffffffffffffffffffffffffffffffff166323b872dd3330846040518463ffffffff167c0100000000000000000000000000000000000000000000000000000000028152600401808473ffffffffffffffffffffffffffffffffffffffff1673ffffffffffffffffffffffffffffffffffffffff1681526020018373ffffffffffffffffffffffffffffffffffffffff1673ffffffffffffffffffffffffffffffffffffffff1681526020018281526020019350505050602060405180830381600087803b15801561070457600080fd5b505af1158015610718573d6000803e3d6000fd5b505050506040513d602081101561072e57600080fd5b8101908080519060200190929190505050151561074a57600080fd5b6107af8160016000600554815260200190815260200160002060003373ffffffffffffffffffffffffffffffffffffffff1673ffffffffffffffffffffffffffffffffffffffff168152602001908152602001600020546113d990919063ffffffff16565b60016000600554815260200190815260200160002060003373ffffffffffffffffffffffffffffffffffffffff1673ffffffffffffffffffffffffffffffffffffffff168152602001908152602001600020819055503373ffffffffffffffffffffffffffffffffffffffff167efaaf3336e5c925e4d3017cc75d38ca026330a20faef146fd24501f98d16cb782600554604051808381526020018281526020019250505060405180910390a250565b6001600381111561086c57fe5b60066000600554815260200190815260200160002060020160009054906101000a900460ff16600381111561089d57fe5b1415156108a957600080fd5b600260009054906101000a900473ffffffffffffffffffffffffffffffffffffffff1673ffffffffffffffffffffffffffffffffffffffff16633af32abf836040518263ffffffff167c0100000000000000000000000000000000000000000000000000000000028152600401808273ffffffffffffffffffffffffffffffffffffffff1673ffffffffffffffffffffffffffffffffffffffff168152602001915050602060405180830381600087803b15801561096657600080fd5b505af115801561097a573d6000803e3d6000fd5b505050506040513d602081101561099057600080fd5b810190808051906020019092919050505015156109ac57600080fd5b8060016000600554815260200190815260200160002060003373ffffffffffffffffffffffffffffffffffffffff1673ffffffffffffffffffffffffffffffffffffffff1681526020019081526020016000205410151515610a0d57600080fd5b600360009054906101000a900473ffffffffffffffffffffffffffffffffffffffff1673ffffffffffffffffffffffffffffffffffffffff16633af32abf336040518263ffffffff167c0100000000000000000000000000000000000000000000000000000000028152600401808273ffffffffffffffffffffffffffffffffffffffff1673ffffffffffffffffffffffffffffffffffffffff168152602001915050602060405180830381600087803b158015610aca57600080fd5b505af1158015610ade573d6000803e3d6000fd5b505050506040513d6020811015610af457600080fd5b81019080805190602001909291905050501515610b1057600080fd5b610b7481600080600554815260200190815260200160002060008573ffffffffffffffffffffffffffffffffffffffff1673ffffffffffffffffffffffffffffffffffffffff168152602001908152602001600020546113d990919063ffffffff16565b600080600554815260200190815260200160002060008473ffffffffffffffffffffffffffffffffffffffff1673ffffffffffffffffffffffffffffffffffffffff168152602001908152602001600020819055508060016000600554815260200190815260200160002060003373ffffffffffffffffffffffffffffffffffffffff1673ffffffffffffffffffffffffffffffffffffffff16815260200190815260200160002060008282540392505081905550610c5481600660006005548152602001908152602001600020600101546113d990919063ffffffff16565b600660006005548152602001908152602001600020600101819055508173ffffffffffffffffffffffffffffffffffffffff163373ffffffffffffffffffffffffffffffffffffffff167f6a92c4ce4cbb892528ab39f7d674be0f6b1579b54ed8e77d95ad506819fd72c883600554604051808381526020018281526020019250505060405180910390a35050565b60066020528060005260406000206000915090508060000154908060010154908060020160009054906101000a900460ff16908060030154908060040154908060050154905086565b600360009054906101000a900473ffffffffffffffffffffffffffffffffffffffff1681565b60006003811115610d5f57fe5b60066000600554815260200190815260200160002060020160009054906101000a900460ff166003811115610d9057fe5b141515610d9c57600080fd5b80600660006005548152602001908152602001600020600301819055504260066000600554815260200190815260200160002060000181905550610dde611250565b50565b600060026003811115610df057fe5b60066000600554815260200190815260200160002060020160009054906101000a900460ff166003811115610e2157fe5b141515610e2d57600080fd5b60011515600260009054906101000a900473ffffffffffffffffffffffffffffffffffffffff1673ffffffffffffffffffffffffffffffffffffffff16633af32abf336040518263ffffffff167c0100000000000000000000000000000000000000000000000000000000028152600401808273ffffffffffffffffffffffffffffffffffffffff1673ffffffffffffffffffffffffffffffffffffffff168152602001915050602060405180830381600087803b158015610eee57600080fd5b505af1158015610f02573d6000803e3d6000fd5b505050506040513d6020811015610f1857600080fd5b81019080805190602001909291905050501515141515610f3757600080fd5b600060066000600554815260200190815260200160002060010154111515610f5e57600080fd5b60066000600554815260200190815260200160002060010154600460009054906101000a900473ffffffffffffffffffffffffffffffffffffffff1673ffffffffffffffffffffffffffffffffffffffff166370a08231306040518263ffffffff167c0100000000000000000000000000000000000000000000000000000000028152600401808273ffffffffffffffffffffffffffffffffffffffff1673ffffffffffffffffffffffffffffffffffffffff168152602001915050602060405180830381600087803b15801561103457600080fd5b505af1158015611048573d6000803e3d6000fd5b505050506040513d602081101561105e57600080fd5b8101908080519060200190929190505050600080600554815260200190815260200160002060003373ffffffffffffffffffffffffffffffffffffffff1673ffffffffffffffffffffffffffffffffffffffff16815260200190815260200160002054028115156110cb57fe5b049050600460009054906101000a900473ffffffffffffffffffffffffffffffffffffffff1673ffffffffffffffffffffffffffffffffffffffff1663a9059cbb33836040518363ffffffff167c0100000000000000000000000000000000000000000000000000000000028152600401808373ffffffffffffffffffffffffffffffffffffffff1673ffffffffffffffffffffffffffffffffffffffff16815260200182815260200192505050602060405180830381600087803b15801561119357600080fd5b505af11580156111a7573d6000803e3d6000fd5b505050506040513d60208110156111bd57600080fd5b8101908080519060200190929190505050503373ffffffffffffffffffffffffffffffffffffffff167f68a01c51691a9f9e26f898f67b3a9a77f49e2805a1458883efa86e163865541a82600554604051808381526020018281526020019250505060405180910390a250565b600460009054906101000a900473ffffffffffffffffffffffffffffffffffffffff1681565b611294600160066000600554815260200190815260200160002060020160009054906101000a900460ff16600381111561128657fe5b6113d990919063ffffffff16565b600381111561129f57fe5b60066000600554815260200190815260200160002060020160006101000a81548160ff021916908360038111156112d257fe5b0217905550600160066000600554815260200190815260200160002060020160009054906101000a900460ff16600381111561130a57fe5b037f516112f3bf06e373fcea44db364769c04cc7ef4392e6de95d2b250720bcacefb60066000600554815260200190815260200160002060020160009054906101000a900460ff16600381111561135d57fe5b42604051808381526020018281526020019250505060405180910390a2565b61139260016005546113d990919063ffffffff16565b6005819055506001600554037fcd7a5cc1e92c733f75265bb90f9f00c179b6728f1e1f5d85e4f8622557d70dc16005546040518082815260200191505060405180910390a2565b600081830190508281101515156113ec57fe5b809050929150505600a165627a7a723058203f5c9c31a813d2f4595d883a7180dcd63a992f8eae604f4085eca301ce737ab20029",
  "source": "pragma solidity ^0.4.24;\n\nimport \"openzeppelin-solidity/contracts/math/SafeMath.sol\";\nimport \"openzeppelin-solidity/contracts/token/ERC20/StandardToken.sol\";\nimport \"@frontier-token-research/role-registries/contracts/Registry.sol\";\nimport \"@frontier-token-research/role-registries/contracts/OwnedRegistryFactory.sol\";\n\n\n/**\n* A Token Ranked List (TRL) enables voting with staked tokens periodically, over a registry of candidates\n*\n**/\ncontract TRL {\n    using SafeMath for uint256;\n\n     // Amount that only can be changed in exchange of FTR\n    mapping (uint256 => mapping(address => uint256)) public votesReceived;\n\n    // For each period, maps user's address to voteToken balance\n    mapping (uint256 => mapping(address => uint256)) public votesBalance;\n\n    // Registry of candidates to be voted\n    Registry public candidateRegistry;\n\n    // Registry of candidates allowed to vote\n    Registry public voterRegistry;\n\n    // Master Token, used to buy votes\n    StandardToken public token;\n\n    // Index, Defines the current period\n    uint256 public periodIndex;\n\n    enum PeriodState {CREATED, ACTIVE, CLAIM, CLOSED}\n\n    struct Period {\n        uint256 startTime;\n        uint256 totalVotes;\n        PeriodState state;\n        uint256 TTL;\n        uint256 activeTime;\n        uint256 claimTime;\n    }\n\n    mapping (uint256 => Period) public periodRegistry;\n\n    /**\n    * Creates a new Instance of a Voting Lists\n    * @param _tokenAddress Address of the token used for\n    *\n    **/\n\n    constructor(\n        address _tokenAddress,\n        address _candidateRegistryAddress,\n        address _voterRegistryAddress,\n        uint256 _initialTTL,\n        uint256 _initialActiveTime,\n        uint256 _initialClaimTime)\n        public\n    {\n        require(_candidateRegistryAddress != 0x00 && _voterRegistryAddress != 0x00 && _tokenAddress != 0x00); \n        token = StandardToken(_tokenAddress);\n        candidateRegistry = Registry(_candidateRegistryAddress);\n        voterRegistry = Registry(_voterRegistryAddress);\n        periodRegistry[periodIndex] = Period(block.number, 0, PeriodState.CREATED, _initialTTL, _initialActiveTime, _initialClaimTime);\n        initPeriod(_initialTTL);\n    }\n\n    /**\n    * Initializes a new period, taking as the TTL value the current from storage, and setting the state to 1\n    * Requires that the current period is Preparing (0)\n    **/\n\n    function initPeriod(uint256 _periodTTL) public {\n        require(periodRegistry[periodIndex].state == PeriodState.CREATED);\n        periodRegistry[periodIndex].TTL = _periodTTL;\n        periodRegistry[periodIndex].startTime = now;\n        nextState();\n    }\n\n    /**\n    * Exchanges the main token for an amount of votes\n    * Requires previous allowance of expenditure of at least the amount required\n    * Currently 1:1 exchange used, but this rate could be changed\n    * @param _amount Amount of votes that the voter wants to buy\n    **/\n\n    function buyTokenVotes(uint256 _amount) public {\n        require(periodRegistry[periodIndex].state == PeriodState.ACTIVE);\n        require(token.transferFrom(msg.sender,this, _amount));\n        votesBalance[periodIndex][msg.sender] = votesBalance[periodIndex][msg.sender].add(_amount);\n        emit VotesBought(msg.sender, _amount, periodIndex);\n    }\n\n    /**\n    * Adds a new vote for a candidate. It fails if the candidate hasn't approved before the specified amount\n    * @param _candidateAddress address of the candidate selected\n    * @param _amount of votes used\n    **/\n\n    function vote(address _candidateAddress, uint256 _amount) public {\n        require(periodRegistry[periodIndex].state == PeriodState.ACTIVE);\n        require(candidateRegistry.isWhitelisted(_candidateAddress));\n        require(votesBalance[periodIndex][msg.sender] >= _amount);\n        require(voterRegistry.isWhitelisted(msg.sender));\n        votesReceived[periodIndex][_candidateAddress] = votesReceived[periodIndex][_candidateAddress].add(_amount);\n        votesBalance[periodIndex][msg.sender] -= _amount;\n        periodRegistry[periodIndex].totalVotes = periodRegistry[periodIndex].totalVotes.add(_amount);\n        emit Vote(msg.sender,_candidateAddress, _amount, periodIndex);\n    }\n\n    /**\n    * Moves the period from active to Claiming.\n    *\n    **/\n\n    function initClaimingState() public {\n        require(periodRegistry[periodIndex].state == PeriodState.ACTIVE);\n        require ((now - periodRegistry[periodIndex].startTime) >= periodRegistry[periodIndex].activeTime);\n        nextState();\n    }\n\n    /**\n    * Enables an analyst to claim a bounty in the claim period\n    *\n    *\n    **/\n\n    function claimBounty() public {\n        require(periodRegistry[periodIndex].state == PeriodState.CLAIM);\n        require(candidateRegistry.isWhitelisted(msg.sender) == true);\n        require(periodRegistry[periodIndex].totalVotes>0);\n        uint256 totalAmount = votesReceived[periodIndex][msg.sender] * token.balanceOf(this)/periodRegistry[periodIndex].totalVotes;\n        token.transfer(msg.sender, totalAmount);\n        emit BountyRelased(msg.sender, totalAmount, periodIndex);\n    }\n\n    /**\n    * Closes the current period and sets the current period pointer to the next item, enabling again init.\n    *\n    **/\n\n    function closePeriod() public {\n        require (periodRegistry[periodIndex].state == PeriodState.CLAIM);\n        require (now - periodRegistry[periodIndex].startTime > periodRegistry[periodIndex].TTL);\n        nextState();\n        nextPeriod();\n    }\n\n\n    /**\n    * Moves from the current state to the Next State {CREATED, ACTIVE, CLAIM, CLOSED}\n    *\n    **/\n\n    function nextState() internal {\n        periodRegistry[periodIndex].state = PeriodState(uint(periodRegistry[periodIndex].state).add(1));\n        emit StateChange(uint(periodRegistry[periodIndex].state)-1 , uint(periodRegistry[periodIndex].state), now);\n    }\n\n    /**\n    * Moves from the current period to the next period\n    **/\n\n    function nextPeriod() internal {\n        periodIndex = periodIndex.add(1);\n        emit PeriodForward(periodIndex-1, periodIndex);\n    }\n\n    event ContractCreated (uint256 _time);\n    event VotesBought(address indexed _recipient, uint256 _amount, uint256 _period);\n    event BountyRelased(address indexed _recipient, uint256 _amount, uint256 _period);\n    event StateChange(uint256 indexed _stateFrom, uint256 _stateTo, uint256 _time);\n    event PeriodForward(uint256 indexed _periodFrom, uint256 _periodTo);\n    event Vote(address indexed _voterAddress, address indexed _candidateAddress, uint256 _amount, uint256 _periodIndex);\n}\n",
  "sourcePath": "/Users/carlosbuendia/Documents/Projects/consensys/Frontier/TRL/contracts/TRL.sol",
  "compiler": {
    "name": "solc",
    "version": "0.4.24+commit.e67f0147.Emscripten.clang"
  },
  "schemaVersion": "2.0.0",
  "updatedAt": "2018-06-25T08:49:53.825Z"
}