{
  "contractName": "TRL",
  "abi": [
    {
      "constant": false,
      "inputs": [
        {
          "name": "_contractAddress",
          "type": "address"
        }
      ],
      "name": "setVoterRegistry",
      "outputs": [],
      "payable": false,
      "stateMutability": "nonpayable",
      "type": "function"
    },
    {
      "constant": false,
      "inputs": [
        {
          "name": "_contractAddress",
          "type": "address"
        }
      ],
      "name": "setToken",
      "outputs": [],
      "payable": false,
      "stateMutability": "nonpayable",
      "type": "function"
    },
    {
      "constant": true,
      "inputs": [],
      "name": "candidateRegistry",
      "outputs": [
        {
          "name": "",
          "type": "address"
        }
      ],
      "payable": false,
      "stateMutability": "view",
      "type": "function"
    },
    {
      "constant": true,
      "inputs": [
        {
          "name": "",
          "type": "uint256"
        },
        {
          "name": "",
          "type": "address"
        }
      ],
      "name": "votesReceived",
      "outputs": [
        {
          "name": "",
          "type": "uint256"
        }
      ],
      "payable": false,
      "stateMutability": "view",
      "type": "function"
    },
    {
      "constant": true,
      "inputs": [
        {
          "name": "",
          "type": "uint256"
        }
      ],
      "name": "votingConstraints",
      "outputs": [
        {
          "name": "",
          "type": "uint256"
        }
      ],
      "payable": false,
      "stateMutability": "view",
      "type": "function"
    },
    {
      "constant": false,
      "inputs": [
        {
          "name": "_contractAddress",
          "type": "address"
        }
      ],
      "name": "setPeriodicStages",
      "outputs": [],
      "payable": false,
      "stateMutability": "nonpayable",
      "type": "function"
    },
    {
      "constant": true,
      "inputs": [
        {
          "name": "",
          "type": "uint256"
        },
        {
          "name": "",
          "type": "address"
        }
      ],
      "name": "votesBalance",
      "outputs": [
        {
          "name": "",
          "type": "uint256"
        }
      ],
      "payable": false,
      "stateMutability": "view",
      "type": "function"
    },
    {
      "constant": true,
      "inputs": [],
      "name": "periodicStages",
      "outputs": [
        {
          "name": "",
          "type": "address"
        }
      ],
      "payable": false,
      "stateMutability": "view",
      "type": "function"
    },
    {
      "constant": true,
      "inputs": [],
      "name": "owner",
      "outputs": [
        {
          "name": "",
          "type": "address"
        }
      ],
      "payable": false,
      "stateMutability": "view",
      "type": "function"
    },
    {
      "constant": true,
      "inputs": [],
      "name": "voterRegistry",
      "outputs": [
        {
          "name": "",
          "type": "address"
        }
      ],
      "payable": false,
      "stateMutability": "view",
      "type": "function"
    },
    {
      "constant": false,
      "inputs": [
        {
          "name": "_contractAddress",
          "type": "address"
        }
      ],
      "name": "setCandidateRegistry",
      "outputs": [],
      "payable": false,
      "stateMutability": "nonpayable",
      "type": "function"
    },
    {
      "constant": true,
      "inputs": [
        {
          "name": "",
          "type": "uint256"
        }
      ],
      "name": "stakingConstraints",
      "outputs": [
        {
          "name": "",
          "type": "uint256"
        }
      ],
      "payable": false,
      "stateMutability": "view",
      "type": "function"
    },
    {
      "constant": false,
      "inputs": [
        {
          "name": "newOwner",
          "type": "address"
        }
      ],
      "name": "transferOwnership",
      "outputs": [],
      "payable": false,
      "stateMutability": "nonpayable",
      "type": "function"
    },
    {
      "constant": true,
      "inputs": [],
      "name": "token",
      "outputs": [
        {
          "name": "",
          "type": "address"
        }
      ],
      "payable": false,
      "stateMutability": "view",
      "type": "function"
    },
    {
      "anonymous": false,
      "inputs": [
        {
          "indexed": false,
          "name": "_T",
          "type": "uint256"
        },
        {
          "indexed": false,
          "name": "_active",
          "type": "uint256"
        },
        {
          "indexed": false,
          "name": "_claim",
          "type": "uint256"
        }
      ],
      "name": "PeriodInit",
      "type": "event"
    },
    {
      "anonymous": false,
      "inputs": [
        {
          "indexed": true,
          "name": "_recipient",
          "type": "address"
        },
        {
          "indexed": false,
          "name": "_amount",
          "type": "uint256"
        },
        {
          "indexed": false,
          "name": "_period",
          "type": "uint256"
        }
      ],
      "name": "VotesBought",
      "type": "event"
    },
    {
      "anonymous": false,
      "inputs": [
        {
          "indexed": true,
          "name": "_recipient",
          "type": "address"
        },
        {
          "indexed": false,
          "name": "_amount",
          "type": "uint256"
        },
        {
          "indexed": false,
          "name": "_period",
          "type": "uint256"
        }
      ],
      "name": "BountyRelased",
      "type": "event"
    },
    {
      "anonymous": false,
      "inputs": [
        {
          "indexed": false,
          "name": "_amount",
          "type": "uint256"
        }
      ],
      "name": "MinimumStakeSet",
      "type": "event"
    },
    {
      "anonymous": false,
      "inputs": [
        {
          "indexed": true,
          "name": "_voterAddress",
          "type": "address"
        },
        {
          "indexed": true,
          "name": "_candidateAddress",
          "type": "address"
        },
        {
          "indexed": false,
          "name": "_amount",
          "type": "uint256"
        },
        {
          "indexed": false,
          "name": "_periodIndex",
          "type": "uint256"
        }
      ],
      "name": "Vote",
      "type": "event"
    },
    {
      "anonymous": false,
      "inputs": [
        {
          "indexed": false,
          "name": "_a",
          "type": "address"
        }
      ],
      "name": "PeriodicStagesCreated",
      "type": "event"
    },
    {
      "anonymous": false,
      "inputs": [
        {
          "indexed": true,
          "name": "previousOwner",
          "type": "address"
        },
        {
          "indexed": true,
          "name": "newOwner",
          "type": "address"
        }
      ],
      "name": "OwnershipTransferred",
      "type": "event"
    },
    {
      "constant": false,
      "inputs": [
        {
          "name": "_T",
          "type": "uint256"
        }
      ],
      "name": "initPeriod",
      "outputs": [],
      "payable": false,
      "stateMutability": "nonpayable",
      "type": "function"
    },
    {
      "constant": false,
      "inputs": [
        {
          "name": "_activeTime",
          "type": "uint256"
        },
        {
          "name": "_claimTime",
          "type": "uint256"
        }
      ],
      "name": "initStages",
      "outputs": [],
      "payable": false,
      "stateMutability": "nonpayable",
      "type": "function"
    },
    {
      "constant": false,
      "inputs": [
        {
          "name": "_amount",
          "type": "uint256"
        }
      ],
      "name": "buyTokenVotes",
      "outputs": [],
      "payable": false,
      "stateMutability": "nonpayable",
      "type": "function"
    },
    {
      "constant": false,
      "inputs": [
        {
          "name": "_candidateAddress",
          "type": "address"
        },
        {
          "name": "_amount",
          "type": "uint256"
        }
      ],
      "name": "vote",
      "outputs": [],
      "payable": false,
      "stateMutability": "nonpayable",
      "type": "function"
    },
    {
      "constant": false,
      "inputs": [],
      "name": "claimBounty",
      "outputs": [],
      "payable": false,
      "stateMutability": "nonpayable",
      "type": "function"
    },
    {
      "constant": false,
      "inputs": [
        {
          "name": "_minimumStakeAmount",
          "type": "uint256"
        }
      ],
      "name": "setMinimumStake",
      "outputs": [],
      "payable": false,
      "stateMutability": "nonpayable",
      "type": "function"
    },
    {
      "constant": false,
      "inputs": [
        {
          "name": "_maximumStakeAmount",
          "type": "uint256"
        }
      ],
      "name": "setMaximumStake",
      "outputs": [],
      "payable": false,
      "stateMutability": "nonpayable",
      "type": "function"
    },
    {
      "constant": false,
      "inputs": [
        {
          "name": "_minVoteAmount",
          "type": "uint256"
        }
      ],
      "name": "setMinVotingLimit",
      "outputs": [],
      "payable": false,
      "stateMutability": "nonpayable",
      "type": "function"
    },
    {
      "constant": false,
      "inputs": [
        {
          "name": "_maxVoteAmount",
          "type": "uint256"
        }
      ],
      "name": "setMaxVotingLimit",
      "outputs": [],
      "payable": false,
      "stateMutability": "nonpayable",
      "type": "function"
    },
    {
      "constant": true,
      "inputs": [
        {
          "name": "_epoch",
          "type": "uint256"
        },
        {
          "name": "_account",
          "type": "address"
        }
      ],
      "name": "scoring",
      "outputs": [
        {
          "name": "",
          "type": "uint256"
        }
      ],
      "payable": false,
      "stateMutability": "view",
      "type": "function"
    },
    {
      "constant": true,
      "inputs": [],
      "name": "currentPeriod",
      "outputs": [
        {
          "name": "",
          "type": "uint256"
        }
      ],
      "payable": false,
      "stateMutability": "view",
      "type": "function"
    },
    {
      "constant": true,
      "inputs": [],
      "name": "currentStage",
      "outputs": [
        {
          "name": "",
          "type": "uint256"
        }
      ],
      "payable": false,
      "stateMutability": "view",
      "type": "function"
    },
    {
      "constant": true,
      "inputs": [
        {
          "name": "_poolAmount",
          "type": "uint256"
        },
        {
          "name": "_claimerVotes",
          "type": "uint256"
        },
        {
          "name": "_totalVotes",
          "type": "uint256"
        }
      ],
      "name": "calculateReward",
      "outputs": [
        {
          "name": "",
          "type": "uint256"
        }
      ],
      "payable": false,
      "stateMutability": "pure",
      "type": "function"
    }
  ],
  "bytecode": "0x60806040526040805190810160405280600060ff16815260200160fd60ff16815250600790600262000033929190620000ab565b506040805190810160405280600060ff16815260200160fd60ff16815250600990600262000063929190620000ab565b5033600b60006101000a81548173ffffffffffffffffffffffffffffffffffffffff021916908373ffffffffffffffffffffffffffffffffffffffff1602179055506200011d565b8260028101928215620000e2579160200282015b82811115620000e1578251829060ff16905591602001919060010190620000bf565b5b509050620000f19190620000f5565b5090565b6200011a91905b8082111562000116576000816000905550600101620000fc565b5090565b90565b613096806200012d6000396000f3006080604052600436106200017b576000357c0100000000000000000000000000000000000000000000000000000000900463ffffffff1680630604061814620001805780630ad3034214620001ae578063144fa6d714620001f457806319de0477146200023a578063233e9903146200029457806333dd6bed14620002c45780633c84107f14620003285780635521b96f146200036c57806356f7459314620003b25780635706d0ec14620003e25780635bf5d54c14620004465780635e1ce58a14620004745780635f74bbde14620004a457806381c8a8c414620004f45780638da5cb5b146200054e5780639a1289ec14620005a8578063a8e62b9714620005d8578063bb33bb0e1462000630578063bcb5c636146200066a578063be60040e146200069a578063bfabe55714620006f4578063c25466651462000724578063dac93e1b146200076a578063eac23e1214620007ae578063ee4be2881462000812578063f2fde38b146200082c578063fc0c546a1462000872575b600080fd5b3480156200018d57600080fd5b5062000198620008cc565b6040518082815260200191505060405180910390f35b348015620001bb57600080fd5b50620001f2600480360381019080803573ffffffffffffffffffffffffffffffffffffffff16906020019092919050505062000a43565b005b3480156200020157600080fd5b5062000238600480360381019080803573ffffffffffffffffffffffffffffffffffffffff16906020019092919050505062000a87565b005b3480156200024757600080fd5b506200025262000acb565b604051808273ffffffffffffffffffffffffffffffffffffffff1673ffffffffffffffffffffffffffffffffffffffff16815260200191505060405180910390f35b348015620002a157600080fd5b50620002c26004803603810190808035906020019092919050505062000af1565b005b348015620002d157600080fd5b506200031260048036038101908080359060200190929190803573ffffffffffffffffffffffffffffffffffffffff16906020019092919050505062000b68565b6040518082815260200191505060405180910390f35b3480156200033557600080fd5b50620003566004803603810190808035906020019092919050505062000b8d565b6040518082815260200191505060405180910390f35b3480156200037957600080fd5b50620003b0600480360381019080803573ffffffffffffffffffffffffffffffffffffffff16906020019092919050505062000ba8565b005b348015620003bf57600080fd5b50620003e06004803603810190808035906020019092919050505062000bec565b005b348015620003ef57600080fd5b506200043060048036038101908080359060200190929190803573ffffffffffffffffffffffffffffffffffffffff16906020019092919050505062000c63565b6040518082815260200191505060405180910390f35b3480156200045357600080fd5b506200045e62000c88565b6040518082815260200191505060405180910390f35b3480156200048157600080fd5b50620004a26004803603810190808035906020019092919050505062000d53565b005b348015620004b157600080fd5b50620004f2600480360381019080803573ffffffffffffffffffffffffffffffffffffffff1690602001909291908035906020019092919050505062000ff3565b005b3480156200050157600080fd5b506200050c62001238565b604051808273ffffffffffffffffffffffffffffffffffffffff1673ffffffffffffffffffffffffffffffffffffffff16815260200191505060405180910390f35b3480156200055b57600080fd5b50620005666200125e565b604051808273ffffffffffffffffffffffffffffffffffffffff1673ffffffffffffffffffffffffffffffffffffffff16815260200191505060405180910390f35b348015620005b557600080fd5b50620005d66004803603810190808035906020019092919050505062001284565b005b348015620005e557600080fd5b506200061a600480360381019080803590602001909291908035906020019092919080359060200190929190505050620012fb565b6040518082815260200191505060405180910390f35b3480156200063d57600080fd5b5062000668600480360381019080803590602001909291908035906020019092919050505062001346565b005b3480156200067757600080fd5b5062000698600480360381019080803590602001909291905050506200165c565b005b348015620006a757600080fd5b50620006b2620016d3565b604051808273ffffffffffffffffffffffffffffffffffffffff1673ffffffffffffffffffffffffffffffffffffffff16815260200191505060405180910390f35b3480156200070157600080fd5b506200072260048036038101908080359060200190929190505050620016f9565b005b3480156200073157600080fd5b5062000768600480360381019080803573ffffffffffffffffffffffffffffffffffffffff169060200190929190505050620017f4565b005b3480156200077757600080fd5b50620007986004803603810190808035906020019092919050505062001838565b6040518082815260200191505060405180910390f35b348015620007bb57600080fd5b50620007fc60048036038101908080359060200190929190803573ffffffffffffffffffffffffffffffffffffffff16906020019092919050505062001853565b6040518082815260200191505060405180910390f35b3480156200081f57600080fd5b506200082a620018ad565b005b3480156200083957600080fd5b5062000870600480360381019080803573ffffffffffffffffffffffffffffffffffffffff16906020019092919050505062001ce5565b005b3480156200087f57600080fd5b506200088a62001e3f565b604051808273ffffffffffffffffffffffffffffffffffffffff1673ffffffffffffffffffffffffffffffffffffffff16815260200191505060405180910390f35b6000806000600660009054906101000a900473ffffffffffffffffffffffffffffffffffffffff1673ffffffffffffffffffffffffffffffffffffffff1663ef78d4fd6040518163ffffffff167c0100000000000000000000000000000000000000000000000000000000028152600401602060405180830381600087803b1580156200095857600080fd5b505af11580156200096d573d6000803e3d6000fd5b505050506040513d60208110156200098457600080fd5b810190808051906020019092919050505091508190508073ffffffffffffffffffffffffffffffffffffffff16637fc15a2e6040518163ffffffff167c0100000000000000000000000000000000000000000000000000000000028152600401602060405180830381600087803b158015620009ff57600080fd5b505af115801562000a14573d6000803e3d6000fd5b505050506040513d602081101562000a2b57600080fd5b81019080805190602001909291905050509250505090565b80600460006101000a81548173ffffffffffffffffffffffffffffffffffffffff021916908373ffffffffffffffffffffffffffffffffffffffff16021790555050565b80600560006101000a81548173ffffffffffffffffffffffffffffffffffffffff021916908373ffffffffffffffffffffffffffffffffffffffff16021790555050565b600360009054906101000a900473ffffffffffffffffffffffffffffffffffffffff1681565b600b60009054906101000a900473ffffffffffffffffffffffffffffffffffffffff1673ffffffffffffffffffffffffffffffffffffffff163373ffffffffffffffffffffffffffffffffffffffff1614151562000b4e57600080fd5b806007600060028110151562000b6057fe5b018190555050565b6000602052816000526040600020602052806000526040600020600091509150505481565b60098160028110151562000b9d57fe5b016000915090505481565b80600660006101000a81548173ffffffffffffffffffffffffffffffffffffffff021916908373ffffffffffffffffffffffffffffffffffffffff16021790555050565b600b60009054906101000a900473ffffffffffffffffffffffffffffffffffffffff1673ffffffffffffffffffffffffffffffffffffffff163373ffffffffffffffffffffffffffffffffffffffff1614151562000c4957600080fd5b806009600060028110151562000c5b57fe5b018190555050565b6001602052816000526040600020602052806000526040600020600091509150505481565b6000600660009054906101000a900473ffffffffffffffffffffffffffffffffffffffff1673ffffffffffffffffffffffffffffffffffffffff16635bf5d54c6040518163ffffffff167c0100000000000000000000000000000000000000000000000000000000028152600401602060405180830381600087803b15801562000d1157600080fd5b505af115801562000d26573d6000803e3d6000fd5b505050506040513d602081101562000d3d57600080fd5b8101908080519060200190929190505050905090565b600062000d5f62000c88565b14151562000d6c57600080fd5b62000d78338262001e65565b151562000d8457600080fd5b600560009054906101000a900473ffffffffffffffffffffffffffffffffffffffff1673ffffffffffffffffffffffffffffffffffffffff166323b872dd3330846040518463ffffffff167c0100000000000000000000000000000000000000000000000000000000028152600401808473ffffffffffffffffffffffffffffffffffffffff1673ffffffffffffffffffffffffffffffffffffffff1681526020018373ffffffffffffffffffffffffffffffffffffffff1673ffffffffffffffffffffffffffffffffffffffff1681526020018281526020019350505050602060405180830381600087803b15801562000e7e57600080fd5b505af115801562000e93573d6000803e3d6000fd5b505050506040513d602081101562000eaa57600080fd5b8101908080519060200190929190505050151562000ec757600080fd5b62000f35816001600062000eda620008cc565b815260200190815260200160002060003373ffffffffffffffffffffffffffffffffffffffff1673ffffffffffffffffffffffffffffffffffffffff1681526020019081526020016000205462001ed590919063ffffffff16565b6001600062000f43620008cc565b815260200190815260200160002060003373ffffffffffffffffffffffffffffffffffffffff1673ffffffffffffffffffffffffffffffffffffffff168152602001908152602001600020819055503373ffffffffffffffffffffffffffffffffffffffff167efaaf3336e5c925e4d3017cc75d38ca026330a20faef146fd24501f98d16cb78262000fd4620008cc565b604051808381526020018281526020019250505060405180910390a250565b600062000fff62000c88565b1415156200100c57600080fd5b6200101933838362001ef2565b15156200102557600080fd5b806001600062001034620008cc565b815260200190815260200160002060003373ffffffffffffffffffffffffffffffffffffffff1673ffffffffffffffffffffffffffffffffffffffff16815260200190815260200160002054101515156200108e57600080fd5b620010fb81600080620010a0620008cc565b815260200190815260200160002060008573ffffffffffffffffffffffffffffffffffffffff1673ffffffffffffffffffffffffffffffffffffffff1681526020019081526020016000205462001ed590919063ffffffff16565b60008062001108620008cc565b815260200190815260200160002060008473ffffffffffffffffffffffffffffffffffffffff1673ffffffffffffffffffffffffffffffffffffffff16815260200190815260200160002081905550806001600062001166620008cc565b815260200190815260200160002060003373ffffffffffffffffffffffffffffffffffffffff1673ffffffffffffffffffffffffffffffffffffffff168152602001908152602001600020600082825403925050819055508173ffffffffffffffffffffffffffffffffffffffff163373ffffffffffffffffffffffffffffffffffffffff167f6a92c4ce4cbb892528ab39f7d674be0f6b1579b54ed8e77d95ad506819fd72c88362001218620008cc565b604051808381526020018281526020019250505060405180910390a35050565b600660009054906101000a900473ffffffffffffffffffffffffffffffffffffffff1681565b600b60009054906101000a900473ffffffffffffffffffffffffffffffffffffffff1681565b600b60009054906101000a900473ffffffffffffffffffffffffffffffffffffffff1673ffffffffffffffffffffffffffffffffffffffff163373ffffffffffffffffffffffffffffffffffffffff16141515620012e157600080fd5b8060096001600281101515620012f357fe5b018190555050565b600080600080600085141515156200131257600080fd5b60648602925084838115156200132457fe5b04915060648288028115156200133657fe5b0490508093505050509392505050565b6000806000600660009054906101000a900473ffffffffffffffffffffffffffffffffffffffff1673ffffffffffffffffffffffffffffffffffffffff1663842652a6866040518263ffffffff167c010000000000000000000000000000000000000000000000000000000002815260040180828152602001915050600060405180830381600087803b158015620013dd57600080fd5b505af1158015620013f2573d6000803e3d6000fd5b50505050600660009054906101000a900473ffffffffffffffffffffffffffffffffffffffff1673ffffffffffffffffffffffffffffffffffffffff1663842652a6856040518263ffffffff167c010000000000000000000000000000000000000000000000000000000002815260040180828152602001915050600060405180830381600087803b1580156200148857600080fd5b505af11580156200149d573d6000803e3d6000fd5b50505050600660009054906101000a900473ffffffffffffffffffffffffffffffffffffffff1673ffffffffffffffffffffffffffffffffffffffff1663ef78d4fd6040518163ffffffff167c0100000000000000000000000000000000000000000000000000000000028152600401602060405180830381600087803b1580156200152857600080fd5b505af11580156200153d573d6000803e3d6000fd5b505050506040513d60208110156200155457600080fd5b810190808051906020019092919050505092508291508173ffffffffffffffffffffffffffffffffffffffff16632bc80f3a6040518163ffffffff167c0100000000000000000000000000000000000000000000000000000000028152600401602060405180830381600087803b158015620015cf57600080fd5b505af1158015620015e4573d6000803e3d6000fd5b505050506040513d6020811015620015fb57600080fd5b810190808051906020019092919050505090507ff369b06e840a30eacc9a6075343f62ef138689a44c1c3ef52cb24e6c692c980481868660405180848152602001838152602001828152602001935050505060405180910390a15050505050565b600b60009054906101000a900473ffffffffffffffffffffffffffffffffffffffff1673ffffffffffffffffffffffffffffffffffffffff163373ffffffffffffffffffffffffffffffffffffffff16141515620016b957600080fd5b8060076001600281101515620016cb57fe5b018190555050565b600460009054906101000a900473ffffffffffffffffffffffffffffffffffffffff1681565b80620017046200218c565b80828152602001915050604051809103906000f0801580156200172b573d6000803e3d6000fd5b50600660006101000a81548173ffffffffffffffffffffffffffffffffffffffff021916908373ffffffffffffffffffffffffffffffffffffffff1602179055507f42658b2a498dce91d3db246e4ed4447a1bc5fa5a1da50e28259aa03688a3bc11600660009054906101000a900473ffffffffffffffffffffffffffffffffffffffff16604051808273ffffffffffffffffffffffffffffffffffffffff1673ffffffffffffffffffffffffffffffffffffffff16815260200191505060405180910390a150565b80600360006101000a81548173ffffffffffffffffffffffffffffffffffffffff021916908373ffffffffffffffffffffffffffffffffffffffff16021790555050565b6007816002811015156200184857fe5b016000915090505481565b600080600084815260200190815260200160002060008373ffffffffffffffffffffffffffffffffffffffff1673ffffffffffffffffffffffffffffffffffffffff16815260200190815260200160002054905092915050565b60006001620018bb62000c88565b141515620018c857600080fd5b60011515600360009054906101000a900473ffffffffffffffffffffffffffffffffffffffff1673ffffffffffffffffffffffffffffffffffffffff16633af32abf336040518263ffffffff167c0100000000000000000000000000000000000000000000000000000000028152600401808273ffffffffffffffffffffffffffffffffffffffff1673ffffffffffffffffffffffffffffffffffffffff168152602001915050602060405180830381600087803b1580156200198a57600080fd5b505af11580156200199f573d6000803e3d6000fd5b505050506040513d6020811015620019b657600080fd5b81019080805190602001909291905050501515141515620019d657600080fd5b600060026000620019e6620008cc565b81526020019081526020016000205411151562001a0257600080fd5b62001b7d600560009054906101000a900473ffffffffffffffffffffffffffffffffffffffff1673ffffffffffffffffffffffffffffffffffffffff166370a08231306040518263ffffffff167c0100000000000000000000000000000000000000000000000000000000028152600401808273ffffffffffffffffffffffffffffffffffffffff1673ffffffffffffffffffffffffffffffffffffffff168152602001915050602060405180830381600087803b15801562001ac457600080fd5b505af115801562001ad9573d6000803e3d6000fd5b505050506040513d602081101562001af057600080fd5b810190808051906020019092919050505060008062001b0e620008cc565b815260200190815260200160002060003373ffffffffffffffffffffffffffffffffffffffff1673ffffffffffffffffffffffffffffffffffffffff168152602001908152602001600020546002600062001b68620008cc565b815260200190815260200160002054620012fb565b9050600560009054906101000a900473ffffffffffffffffffffffffffffffffffffffff1673ffffffffffffffffffffffffffffffffffffffff1663a9059cbb33836040518363ffffffff167c0100000000000000000000000000000000000000000000000000000000028152600401808373ffffffffffffffffffffffffffffffffffffffff1673ffffffffffffffffffffffffffffffffffffffff16815260200182815260200192505050602060405180830381600087803b15801562001c4557600080fd5b505af115801562001c5a573d6000803e3d6000fd5b505050506040513d602081101562001c7157600080fd5b8101908080519060200190929190505050503373ffffffffffffffffffffffffffffffffffffffff167f68a01c51691a9f9e26f898f67b3a9a77f49e2805a1458883efa86e163865541a8262001cc6620008cc565b604051808381526020018281526020019250505060405180910390a250565b600b60009054906101000a900473ffffffffffffffffffffffffffffffffffffffff1673ffffffffffffffffffffffffffffffffffffffff163373ffffffffffffffffffffffffffffffffffffffff1614151562001d4257600080fd5b600073ffffffffffffffffffffffffffffffffffffffff168173ffffffffffffffffffffffffffffffffffffffff161415151562001d7f57600080fd5b8073ffffffffffffffffffffffffffffffffffffffff16600b60009054906101000a900473ffffffffffffffffffffffffffffffffffffffff1673ffffffffffffffffffffffffffffffffffffffff167f8be0079c531659141344cd1fd0a4f28419497f9722a3daafe3b4186f6b6457e060405160405180910390a380600b60006101000a81548173ffffffffffffffffffffffffffffffffffffffff021916908373ffffffffffffffffffffffffffffffffffffffff16021790555050565b600560009054906101000a900473ffffffffffffffffffffffffffffffffffffffff1681565b600062001ecd6001600062001e79620008cc565b815260200190815260200160002060008573ffffffffffffffffffffffffffffffffffffffff1673ffffffffffffffffffffffffffffffffffffffff16815260200190815260200160002054830162002110565b905092915050565b6000818301905082811015151562001ee957fe5b80905092915050565b6000600460009054906101000a900473ffffffffffffffffffffffffffffffffffffffff1673ffffffffffffffffffffffffffffffffffffffff16633af32abf856040518263ffffffff167c0100000000000000000000000000000000000000000000000000000000028152600401808273ffffffffffffffffffffffffffffffffffffffff1673ffffffffffffffffffffffffffffffffffffffff168152602001915050602060405180830381600087803b15801562001fb257600080fd5b505af115801562001fc7573d6000803e3d6000fd5b505050506040513d602081101562001fde57600080fd5b81019080805190602001909291905050508015620020f35750600360009054906101000a900473ffffffffffffffffffffffffffffffffffffffff1673ffffffffffffffffffffffffffffffffffffffff16633af32abf846040518263ffffffff167c0100000000000000000000000000000000000000000000000000000000028152600401808273ffffffffffffffffffffffffffffffffffffffff1673ffffffffffffffffffffffffffffffffffffffff168152602001915050602060405180830381600087803b158015620020b557600080fd5b505af1158015620020ca573d6000803e3d6000fd5b505050506040513d6020811015620020e157600080fd5b81019080805190602001909291905050505b801562002107575062002106826200214e565b5b90509392505050565b6000600760006002811015156200212357fe5b01548210158015620021475750600760016002811015156200214157fe5b01548211155b9050919050565b6000600960006002811015156200216157fe5b01548210158015620021855750600960016002811015156200217f57fe5b01548211155b9050919050565b604051610ecd806200219e833901905600608060405234801561001057600080fd5b50604051602080610ecd833981018060405281019080805190602001909291905050508061003c610118565b80828152602001915050604051809103906000f080158015610062573d6000803e3d6000fd5b50600160006101000a81548173ffffffffffffffffffffffffffffffffffffffff021916908373ffffffffffffffffffffffffffffffffffffffff160217905550806100ac610128565b80828152602001915050604051809103906000f0801580156100d2573d6000803e3d6000fd5b506000806101000a81548173ffffffffffffffffffffffffffffffffffffffff021916908373ffffffffffffffffffffffffffffffffffffffff16021790555050610138565b6040516105bd8061067683390190565b60405161029a80610c3383390190565b61052f806101476000396000f300608060405260043610610062576000357c0100000000000000000000000000000000000000000000000000000000900463ffffffff1680635bf5d54c146100675780637d80c95a14610092578063842652a6146100e9578063ef78d4fd14610116575b600080fd5b34801561007357600080fd5b5061007c61016d565b6040518082815260200191505060405180910390f35b34801561009e57600080fd5b506100a761040c565b604051808273ffffffffffffffffffffffffffffffffffffffff1673ffffffffffffffffffffffffffffffffffffffff16815260200191505060405180910390f35b3480156100f557600080fd5b5061011460048036038101908080359060200190929190505050610432565b005b34801561012257600080fd5b5061012b6104de565b604051808273ffffffffffffffffffffffffffffffffffffffff1673ffffffffffffffffffffffffffffffffffffffff16815260200191505060405180910390f35b6000806000806000809054906101000a900473ffffffffffffffffffffffffffffffffffffffff1673ffffffffffffffffffffffffffffffffffffffff1663dd6239fc6040518163ffffffff167c0100000000000000000000000000000000000000000000000000000000028152600401602060405180830381600087803b1580156101f857600080fd5b505af115801561020c573d6000803e3d6000fd5b505050506040513d602081101561022257600080fd5b81019080805190602001909291905050509250600160009054906101000a900473ffffffffffffffffffffffffffffffffffffffff1673ffffffffffffffffffffffffffffffffffffffff16630ef267436040518163ffffffff167c0100000000000000000000000000000000000000000000000000000000028152600401602060405180830381600087803b1580156102bb57600080fd5b505af11580156102cf573d6000803e3d6000fd5b505050506040513d60208110156102e557600080fd5b81019080805190602001909291905050509150600082141561030a5760009350610406565b600090505b8181101561040557600160009054906101000a900473ffffffffffffffffffffffffffffffffffffffff1673ffffffffffffffffffffffffffffffffffffffff16636f54dce582856040518363ffffffff167c01000000000000000000000000000000000000000000000000000000000281526004018083815260200182815260200192505050602060405180830381600087803b1580156103b057600080fd5b505af11580156103c4573d6000803e3d6000fd5b505050506040513d60208110156103da57600080fd5b8101908080519060200190929190505050156103f857809350610406565b808060010191505061030f565b5b50505090565b600160009054906101000a900473ffffffffffffffffffffffffffffffffffffffff1681565b600160009054906101000a900473ffffffffffffffffffffffffffffffffffffffff1673ffffffffffffffffffffffffffffffffffffffff1663959ac484826040518263ffffffff167c010000000000000000000000000000000000000000000000000000000002815260040180828152602001915050600060405180830381600087803b1580156104c357600080fd5b505af11580156104d7573d6000803e3d6000fd5b5050505050565b6000809054906101000a900473ffffffffffffffffffffffffffffffffffffffff16815600a165627a7a72305820f2bc78b7822098a2189435d25ed96fbe2a69dc70c98bece5a916d11cab15974b0029608060405234801561001057600080fd5b506040516020806105bd8339810180604052810190808051906020019092919050505080600381905550506105738061004a6000396000f300608060405260043610610099576000357c0100000000000000000000000000000000000000000000000000000000900463ffffffff1680630ef267431461009e5780632f91f1f4146100c95780634a720f27146100f45780635439e423146101355780636f54dce514610160578063959ac484146101af578063a4ece52c146101dc578063b1becf2a146101f3578063f2a75fe414610234575b600080fd5b3480156100aa57600080fd5b506100b361024b565b6040518082815260200191505060405180910390f35b3480156100d557600080fd5b506100de610255565b6040518082815260200191505060405180910390f35b34801561010057600080fd5b5061011f6004803603810190808035906020019092919050505061025b565b6040518082815260200191505060405180910390f35b34801561014157600080fd5b5061014a61027e565b6040518082815260200191505060405180910390f35b34801561016c57600080fd5b506101956004803603810190808035906020019092919080359060200190929190505050610284565b604051808215151515815260200191505060405180910390f35b3480156101bb57600080fd5b506101da60048036038101908080359060200190929190505050610300565b005b3480156101e857600080fd5b506101f16103e3565b005b3480156101ff57600080fd5b5061021e600480360381019080803590602001909291905050506104f3565b6040518082815260200191505060405180910390f35b34801561024057600080fd5b5061024961050b565b005b6000600454905090565b60035481565b60008181548110151561026a57fe5b906000526020600020016000915090505481565b60025481565b6000808314156102b25760008381548110151561029d57fe5b906000526020600020015482111590506102fa565b6000600184038154811015156102c457fe5b906000526020600020015482101580156102f757506000838154811015156102e857fe5b90600052602060002001548211155b90505b92915050565b60035481600254011115151561037e576040517f08c379a00000000000000000000000000000000000000000000000000000000081526004018080602001828103825260128152602001807f424c4f434b5f4e554d5f4f564552464c4f57000000000000000000000000000081525060200191505060405180910390fd5b60008160025401908060018154018082558091505090600182039060005260206000200160009091929091909150555080600260008282540192505081905550600460008154809291906001019190505550600354600254111515156103e057fe5b50565b600080600080549050111515610461576040517f08c379a000000000000000000000000000000000000000000000000000000000815260040180806020018281038252600d8152602001807f454d5054592053544f524147450000000000000000000000000000000000000081525060200191505060405180910390fd5b600060016000805490500381548110151561047857fe5b90600052602060002001549050600060016000805490500381548110151561049c57fe5b90600052602060002001600090556000808054905014156104cc57600060048190555060006002819055506104f0565b60046000815480929190600190039190505550806002600082825403925050819055505b50565b60016020528060005260406000206000915090505481565b60008090505b60008054905081111515610534576105276103e3565b8080600101915050610511565b6000808054905014151561054457fe5b505600a165627a7a72305820bc935eb3467072bc2fe268e50839cd1eacc31a6907a63c3e8b0a53fcc9e61bf50029608060405234801561001057600080fd5b5060405160208061029a833981018060405281019080805190602001909291905050506000811115156100ab576040517f08c379a000000000000000000000000000000000000000000000000000000000815260040180806020018281038252600c8152602001807f454d5054595f504552494f44000000000000000000000000000000000000000081525060200191505060405180910390fd5b8060008190555043600181905550506101d1806100c96000396000f30060806040526004361061006d576000357c0100000000000000000000000000000000000000000000000000000000900463ffffffff1680632bc80f3a146100725780637f89b5ce1461009d5780637fc15a2e146100c8578063dd6239fc146100f3578063eb6ad24e1461011e575b600080fd5b34801561007e57600080fd5b50610087610149565b6040518082815260200191505060405180910390f35b3480156100a957600080fd5b506100b261014f565b6040518082815260200191505060405180910390f35b3480156100d457600080fd5b506100dd610155565b6040518082815260200191505060405180910390f35b3480156100ff57600080fd5b5061010861017e565b6040518082815260200191505060405180910390f35b34801561012a57600080fd5b5061013361018f565b6040518082815260200191505060405180910390f35b60005481565b60015481565b60008060015443031015151561016757fe5b600054600154430381151561017857fe5b04905090565b600061018861018f565b4303905090565b6000805461019b610155565b02600154019050905600a165627a7a72305820a0a114358d11151c2f5144479fd87806b0519eaea74de77545618e9017ea66ff0029a165627a7a72305820e518425dbc32c52e900cc5c04ede3cae314396f95d733e6bc27c9f194e50296d0029",
  "source": "pragma solidity ^0.4.24;\n\nimport \"./TRLInterface.sol\";\nimport \"./TRLStorage.sol\";\nimport \"openzeppelin-solidity/contracts/math/SafeMath.sol\";\nimport \"openzeppelin-solidity/contracts/token/ERC20/StandardToken.sol\";\nimport \"@frontier-token-research/role-registries/contracts/Registry.sol\";\nimport \"@frontier-token-research/role-registries/contracts/OwnedRegistryFactory.sol\";\nimport \"@frontier-token-research/cron/contracts/Period.sol\";\nimport \"@frontier-token-research/cron/contracts/PeriodicStages.sol\";\n\n\n/**\n* A Token Ranked List (TRL) enables voting with staked tokens periodically, over a registry of candidates, and sets the compensation of the candidates based on previous interactions \n**/\n\ncontract TRL is TRLStorage, Ownable, TRLInterface {\n    using SafeMath for uint256;\n\n    /**\n    * @dev Initializes a new period, by creating a new instance of Periodic Stages contract (https://github.com/Frontier-project/cron) \n    * If not set, the TRL will not be periodic. When set, different states will be stored indexed by periods.\n    * @param _T Period that is about to be set\n    **/\n\n    function initPeriod(uint256 _T) public {\n        periodicStages = new PeriodicStages(_T);\n        emit PeriodicStagesCreated(periodicStages);\n    }\n\n    /**\n    * @dev Initializes a set of states inside a period, that will repeat periodically.\n    * Requires that (_activeTime + _claimTime) < _T\n    * By default, no stage will be defined, and the Smart Contract will stay on stage 0.\n    * @param _activeTime  Temporal epoch when the Smart Contract is set as \"Active\", most of the interactions inside the period will come here\n    * @param _claimTime  Temporal epoch where participants can claim their compensation based on the interactions mader on activeTime\n    * TODO: Generalize to a general number of periods.\n    **/\n\n    function initStages(uint256 _activeTime, uint256 _claimTime) public {  \n        periodicStages.pushStage(_activeTime);\n        periodicStages.pushStage(_claimTime);\n        address periodAddress = periodicStages.period();\n        Period period = Period(periodAddress);\n        uint256 T = period.T(); // Avoids Breaking changes on period Handlers, should be deprecated\n        emit PeriodInit(T, _activeTime, _claimTime);\n    }\n\n    /**\n    * @dev Exchanges the main token for an amount of votes\n    * Requires previous allowance of expenditure of at least the amount required\n    * Right now 1:1 exchange used\n    * @param _amount Amount of votes that the voter wants to buy\n    * TODO: Generalize to different ratios \n    **/\n\n    function buyTokenVotes(uint256 _amount) public {\n        require(currentStage() == 0);\n        require(canStake(msg.sender, _amount));\n        require(token.transferFrom(msg.sender, this, _amount));\n        votesBalance[currentPeriod()][msg.sender] = votesBalance[currentPeriod()][msg.sender].add(_amount);\n        emit VotesBought(msg.sender, _amount, currentPeriod());\n    }\n\n    /**\n    * @dev Adds a new vote for a candidate\n    * @param _candidateAddress address of the candidate selected\n    * @param _amount of votes used\n    **/\n\n    function vote(address _candidateAddress, uint256 _amount) public {\n        require(currentStage() == 0);\n        require(canVote(msg.sender, _candidateAddress, _amount));\n        require(votesBalance[currentPeriod()][msg.sender] >= _amount);\n        votesReceived[currentPeriod()][_candidateAddress] = votesReceived[currentPeriod()][_candidateAddress].add(_amount);\n        votesBalance[currentPeriod()][msg.sender] -= _amount;\n        emit Vote(msg.sender, _candidateAddress, _amount, currentPeriod());\n    }\n\n    /**\n    * @dev Claims the correspondant Bounty from the Pool on the current periodIndex. \n    **/\n\n    function claimBounty() public {\n        require(currentStage() == 1);\n        require(candidateRegistry.isWhitelisted(msg.sender) == true);\n        require(totalPeriodVotes[currentPeriod()] > 0);\n        uint256 totalAmount = calculateReward(\n            token.balanceOf(this),\n            votesReceived[currentPeriod()][msg.sender],\n            totalPeriodVotes[currentPeriod()]\n        );\n        token.transfer(msg.sender, totalAmount);\n        emit BountyRelased(msg.sender, totalAmount, currentPeriod());\n    }\n\n    /*\n    * @dev Sets the minimum stake to participate in a period \n    * @param _minimumStakeAmount minimum stake to be added\n    **/\n\n    function setMinimumStake(uint256 _minimumStakeAmount) public {\n        require(msg.sender == owner);\n        stakingConstraints[0] = _minimumStakeAmount;\n    }\n\n    /*\n    * @dev Sets the minimum stake to participate in a period \n    * @param _minimumStakeAmount minimum stake to be added\n    **/\n\n    function setMaximumStake(uint256 _maximumStakeAmount) public {\n        require(msg.sender == owner);\n        stakingConstraints[1] = _maximumStakeAmount;\n    }\n\n    /*\n    * @dev Sets a voting limit to allocate to one candidate\n    * @param _minimumStakeAmount minimum stake to be added\n    **/\n\n    function setMinVotingLimit(uint256 _minVoteAmount) public {\n        require(msg.sender == owner);\n        votingConstraints[0] = _minVoteAmount; \n    }\n\n    /*\n    * @dev Sets a voting limit to allocate to one candidate\n    * @param _minimumStakeAmount minimum stake to be added\n    **/\n\n    function setMaxVotingLimit(uint256 _maxVoteAmount) public {\n        require(msg.sender == owner);\n        votingConstraints[1] = _maxVoteAmount; \n    }\n\n    /**\n    * @dev Calculates the Scoring given an address in the current epoch\n    * @param _epoch Epoch where the query is made\n    * @param _account Account that is required to get the scoring\n    **/\n\n    function scoring(uint256 _epoch, address _account) public view returns (uint256) {\n        return votesReceived[_epoch][_account];\n    } \n\n\n    /**\n    * @dev Returns the current period number, by calling the period Lib\n    **/\n\n    function currentPeriod() public view returns(uint256) { \n        address periodAddress = periodicStages.period();\n        Period period = Period(periodAddress);\n        return period.getPeriodNumber();\n    }\n    \n    /**\n    * @dev Returns the current stage number, by calling the PeriodicStages lib\n    **/\n\n    function currentStage() public view returns(uint256) {\n        return periodicStages.currentStage();\n    }\n         \n    /**\n    * @dev Returns true if the given _sender can vote for a given _receiver\n    * @param _sender Account of the voter that is checked\n    * @param _receiver Account of the candidate to be voted\n    * @return true if the user can vote and the receiver is a candidate\n    **/\n\n    function canVote(\n        address _sender, \n        address _receiver,\n        uint256 _amount) \n        internal view returns (bool) \n    { \n        return voterRegistry.isWhitelisted(_sender) &&\n        candidateRegistry.isWhitelisted(_receiver) && \n        voteInsideConstraints(_amount); \n    }\n\n    /**\n    * @dev Returns true if the given _sender stake an amount of tokens\n    * @param _sender Account of the voter that is checked\n    * @param _amount Amount that is attempted to stake\n    * @return true if the user can vote and the receiver is a candidate\n    **/\n\n    function canStake(\n        address _sender, \n        uint256 _amount) \n        internal view returns (bool) \n    {\n        return (stakeInsideConstraints(_amount + votesBalance[currentPeriod()][_sender]));\n\n    }\n\n    /**\n    * @dev Returns true if the given _amount is insidse the TRL constraints\n    * @param _amount Account of the voter that is checked\n    * @return true if the amount of votes is inside the constraints set\n    **/\n\n    function stakeInsideConstraints(\n        uint256 _amount) \n        internal view returns (bool) \n    { \n        return _amount >= stakingConstraints[0] &&\n        _amount <= stakingConstraints[1];\n    }\n\n    /**\n    * @dev Returns true if the given _amount is insidse the TRL constraints\n    * @param _amount Account of the voter that is checked\n    * @return true if the amount of votes is inside the constraints set\n    **/\n\n    function voteInsideConstraints(\n        uint256 _amount) \n        internal view returns (bool) \n    { \n        return _amount >= votingConstraints[0] &&\n        _amount <= votingConstraints[1];\n    }\n\n    /**\n    * @dev Function that determines the current reward for each sender\n    * @param _poolAmount Total amount that is going to be shared among participants\n    * @param _claimerVotes Amount of votes of the candidate that is going to claim for the reward\n    * @param _totalVotes Total Amount of votes on a certain period\n    */\n\n    function calculateReward(\n        uint256 _poolAmount,\n        uint256 _claimerVotes,\n        uint256 _totalVotes)\n        pure public returns (uint256)\n    {\n        require(_totalVotes != 0);\n        uint256 auxDecimalVotes = _claimerVotes * 100;\n        uint256 auxPercentageVotes = auxDecimalVotes / _totalVotes;\n        uint256 totalAmount = _poolAmount * auxPercentageVotes / 100;\n        return totalAmount;\n    }\n}\n",
  "sourcePath": "/Users/carlosbuendia/Documents/Projects/consensys/Frontier/TRL/contracts/TRL.sol",
  "compiler": {
    "name": "solc",
    "version": "0.4.24+commit.e67f0147.Emscripten.clang"
  },
  "schemaVersion": "2.0.0",
  "updatedAt": "2018-08-21T11:27:03.180Z"
}