{
  "contractName": "TRL",
  "abi": [
    {
      "constant": true,
      "inputs": [],
      "name": "candidateRegistry",
      "outputs": [
        {
          "name": "",
          "type": "address"
        }
      ],
      "payable": false,
      "stateMutability": "view",
      "type": "function"
    },
    {
      "constant": true,
      "inputs": [
        {
          "name": "",
          "type": "uint256"
        },
        {
          "name": "",
          "type": "address"
        }
      ],
      "name": "votesReceived",
      "outputs": [
        {
          "name": "",
          "type": "uint256"
        }
      ],
      "payable": false,
      "stateMutability": "view",
      "type": "function"
    },
    {
      "constant": true,
      "inputs": [
        {
          "name": "",
          "type": "uint256"
        }
      ],
      "name": "votingConstraints",
      "outputs": [
        {
          "name": "",
          "type": "uint256"
        }
      ],
      "payable": false,
      "stateMutability": "view",
      "type": "function"
    },
    {
      "constant": true,
      "inputs": [
        {
          "name": "",
          "type": "uint256"
        },
        {
          "name": "",
          "type": "address"
        }
      ],
      "name": "votesBalance",
      "outputs": [
        {
          "name": "",
          "type": "uint256"
        }
      ],
      "payable": false,
      "stateMutability": "view",
      "type": "function"
    },
    {
      "constant": true,
      "inputs": [],
      "name": "periodicStages",
      "outputs": [
        {
          "name": "",
          "type": "address"
        }
      ],
      "payable": false,
      "stateMutability": "view",
      "type": "function"
    },
    {
      "constant": true,
      "inputs": [],
      "name": "owner",
      "outputs": [
        {
          "name": "",
          "type": "address"
        }
      ],
      "payable": false,
      "stateMutability": "view",
      "type": "function"
    },
    {
      "constant": true,
      "inputs": [],
      "name": "voterRegistry",
      "outputs": [
        {
          "name": "",
          "type": "address"
        }
      ],
      "payable": false,
      "stateMutability": "view",
      "type": "function"
    },
    {
      "constant": true,
      "inputs": [
        {
          "name": "",
          "type": "uint256"
        }
      ],
      "name": "stakingConstraints",
      "outputs": [
        {
          "name": "",
          "type": "uint256"
        }
      ],
      "payable": false,
      "stateMutability": "view",
      "type": "function"
    },
    {
      "constant": false,
      "inputs": [
        {
          "name": "newOwner",
          "type": "address"
        }
      ],
      "name": "transferOwnership",
      "outputs": [],
      "payable": false,
      "stateMutability": "nonpayable",
      "type": "function"
    },
    {
      "constant": true,
      "inputs": [],
      "name": "token",
      "outputs": [
        {
          "name": "",
          "type": "address"
        }
      ],
      "payable": false,
      "stateMutability": "view",
      "type": "function"
    },
    {
      "inputs": [
        {
          "name": "_tokenAddress",
          "type": "address"
        },
        {
          "name": "_candidateRegistryAddress",
          "type": "address"
        },
        {
          "name": "_voterRegistryAddress",
          "type": "address"
        },
        {
          "name": "_initialTTL",
          "type": "uint256"
        },
        {
          "name": "_initialActiveTime",
          "type": "uint256"
        },
        {
          "name": "_initialClaimTime",
          "type": "uint256"
        }
      ],
      "payable": false,
      "stateMutability": "nonpayable",
      "type": "constructor"
    },
    {
      "anonymous": false,
      "inputs": [
        {
          "indexed": true,
          "name": "previousOwner",
          "type": "address"
        },
        {
          "indexed": true,
          "name": "newOwner",
          "type": "address"
        }
      ],
      "name": "OwnershipTransferred",
      "type": "event"
    },
    {
      "anonymous": false,
      "inputs": [
        {
          "indexed": false,
          "name": "_T",
          "type": "uint256"
        },
        {
          "indexed": false,
          "name": "_active",
          "type": "uint256"
        },
        {
          "indexed": false,
          "name": "_claim",
          "type": "uint256"
        }
      ],
      "name": "PeriodInit",
      "type": "event"
    },
    {
      "anonymous": false,
      "inputs": [
        {
          "indexed": true,
          "name": "_recipient",
          "type": "address"
        },
        {
          "indexed": false,
          "name": "_amount",
          "type": "uint256"
        },
        {
          "indexed": false,
          "name": "_period",
          "type": "uint256"
        }
      ],
      "name": "VotesBought",
      "type": "event"
    },
    {
      "anonymous": false,
      "inputs": [
        {
          "indexed": true,
          "name": "_recipient",
          "type": "address"
        },
        {
          "indexed": false,
          "name": "_amount",
          "type": "uint256"
        },
        {
          "indexed": false,
          "name": "_period",
          "type": "uint256"
        }
      ],
      "name": "BountyRelased",
      "type": "event"
    },
    {
      "anonymous": false,
      "inputs": [
        {
          "indexed": false,
          "name": "_amount",
          "type": "uint256"
        }
      ],
      "name": "MinimumStakeSet",
      "type": "event"
    },
    {
      "anonymous": false,
      "inputs": [
        {
          "indexed": true,
          "name": "_voterAddress",
          "type": "address"
        },
        {
          "indexed": true,
          "name": "_candidateAddress",
          "type": "address"
        },
        {
          "indexed": false,
          "name": "_amount",
          "type": "uint256"
        },
        {
          "indexed": false,
          "name": "_periodIndex",
          "type": "uint256"
        }
      ],
      "name": "Vote",
      "type": "event"
    },
    {
      "constant": false,
      "inputs": [
        {
          "name": "_periodTTL",
          "type": "uint256"
        },
        {
          "name": "_activeTime",
          "type": "uint256"
        },
        {
          "name": "_claimTime",
          "type": "uint256"
        }
      ],
      "name": "initPeriod",
      "outputs": [],
      "payable": false,
      "stateMutability": "nonpayable",
      "type": "function"
    },
    {
      "constant": false,
      "inputs": [
        {
          "name": "_amount",
          "type": "uint256"
        }
      ],
      "name": "buyTokenVotes",
      "outputs": [],
      "payable": false,
      "stateMutability": "nonpayable",
      "type": "function"
    },
    {
      "constant": false,
      "inputs": [
        {
          "name": "_candidateAddress",
          "type": "address"
        },
        {
          "name": "_amount",
          "type": "uint256"
        }
      ],
      "name": "vote",
      "outputs": [],
      "payable": false,
      "stateMutability": "nonpayable",
      "type": "function"
    },
    {
      "constant": false,
      "inputs": [],
      "name": "claimBounty",
      "outputs": [],
      "payable": false,
      "stateMutability": "nonpayable",
      "type": "function"
    },
    {
      "constant": false,
      "inputs": [
        {
          "name": "_minimumStakeAmount",
          "type": "uint256"
        }
      ],
      "name": "setMinimumStake",
      "outputs": [],
      "payable": false,
      "stateMutability": "nonpayable",
      "type": "function"
    },
    {
      "constant": false,
      "inputs": [
        {
          "name": "_maximumStakeAmount",
          "type": "uint256"
        }
      ],
      "name": "setMaximumStake",
      "outputs": [],
      "payable": false,
      "stateMutability": "nonpayable",
      "type": "function"
    },
    {
      "constant": false,
      "inputs": [
        {
          "name": "_minVoteAmount",
          "type": "uint256"
        }
      ],
      "name": "setMinVotingLimit",
      "outputs": [],
      "payable": false,
      "stateMutability": "nonpayable",
      "type": "function"
    },
    {
      "constant": false,
      "inputs": [
        {
          "name": "_maxVoteAmount",
          "type": "uint256"
        }
      ],
      "name": "setMaxVotingLimit",
      "outputs": [],
      "payable": false,
      "stateMutability": "nonpayable",
      "type": "function"
    },
    {
      "constant": true,
      "inputs": [],
      "name": "currentPeriod",
      "outputs": [
        {
          "name": "",
          "type": "uint256"
        }
      ],
      "payable": false,
      "stateMutability": "view",
      "type": "function"
    },
    {
      "constant": true,
      "inputs": [],
      "name": "currentStage",
      "outputs": [
        {
          "name": "",
          "type": "uint256"
        }
      ],
      "payable": false,
      "stateMutability": "view",
      "type": "function"
    },
    {
      "constant": true,
      "inputs": [
        {
          "name": "_poolAmount",
          "type": "uint256"
        },
        {
          "name": "_claimerVotes",
          "type": "uint256"
        },
        {
          "name": "_totalVotes",
          "type": "uint256"
        }
      ],
      "name": "calculateReward",
      "outputs": [
        {
          "name": "",
          "type": "uint256"
        }
      ],
      "payable": false,
      "stateMutability": "pure",
      "type": "function"
    }
  ],
  "bytecode": "0x60806040526040805190810160405280600060ff16815260200160fd60ff16815250600890600262000033929190620004b9565b506040805190810160405280600060ff16815260200160fd60ff16815250600a90600262000063929190620004b9565b503480156200007157600080fd5b5060405160c08062003f5f83398101806040528101908080519060200190929190805190602001909291908051906020019092919080519060200190929190805190602001909291908051906020019092919050505033600360006101000a81548173ffffffffffffffffffffffffffffffffffffffff021916908373ffffffffffffffffffffffffffffffffffffffff160217905550600073ffffffffffffffffffffffffffffffffffffffff168573ffffffffffffffffffffffffffffffffffffffff1614158015620001735750600073ffffffffffffffffffffffffffffffffffffffff168473ffffffffffffffffffffffffffffffffffffffff1614155b8015620001ad5750600073ffffffffffffffffffffffffffffffffffffffff168673ffffffffffffffffffffffffffffffffffffffff1614155b1515620001b957600080fd5b85600660006101000a81548173ffffffffffffffffffffffffffffffffffffffff021916908373ffffffffffffffffffffffffffffffffffffffff16021790555084600460006101000a81548173ffffffffffffffffffffffffffffffffffffffff021916908373ffffffffffffffffffffffffffffffffffffffff16021790555083600560006101000a81548173ffffffffffffffffffffffffffffffffffffffff021916908373ffffffffffffffffffffffffffffffffffffffff16021790555062000298838383620002a4640100000000026401000000009004565b5050505050506200053c565b82620002af62000503565b80828152602001915050604051809103906000f080158015620002d6573d6000803e3d6000fd5b50600760006101000a81548173ffffffffffffffffffffffffffffffffffffffff021916908373ffffffffffffffffffffffffffffffffffffffff160217905550600760009054906101000a900473ffffffffffffffffffffffffffffffffffffffff1673ffffffffffffffffffffffffffffffffffffffff1663842652a6836040518263ffffffff167c010000000000000000000000000000000000000000000000000000000002815260040180828152602001915050600060405180830381600087803b158015620003a957600080fd5b505af1158015620003be573d6000803e3d6000fd5b50505050600760009054906101000a900473ffffffffffffffffffffffffffffffffffffffff1673ffffffffffffffffffffffffffffffffffffffff1663842652a6826040518263ffffffff167c010000000000000000000000000000000000000000000000000000000002815260040180828152602001915050600060405180830381600087803b1580156200045457600080fd5b505af115801562000469573d6000803e3d6000fd5b505050507ff369b06e840a30eacc9a6075343f62ef138689a44c1c3ef52cb24e6c692c980483838360405180848152602001838152602001828152602001935050505060405180910390a1505050565b8260028101928215620004f0579160200282015b82811115620004ef578251829060ff16905591602001919060010190620004cd565b5b509050620004ff919062000514565b5090565b604051610ecd806200309283390190565b6200053991905b80821115620005355760008160009055506001016200051b565b5090565b90565b612b46806200054c6000396000f30060806040526004361062000133576000357c0100000000000000000000000000000000000000000000000000000000900463ffffffff16806306040618146200013857806319de04771462000166578063233e990314620001c057806333dd6bed14620001f05780633c84107f146200025457806356f7459314620002985780635706d0ec14620002c85780635bf5d54c146200032c5780635e1ce58a146200035a5780635f74bbde146200038a57806381c8a8c414620003da5780638da5cb5b14620004345780639a1289ec146200048e578063a8e62b9714620004be578063b85d84f61462000516578063bcb5c636146200055a578063be60040e146200058a578063dac93e1b14620005e4578063ee4be2881462000628578063f2fde38b1462000642578063fc0c546a1462000688575b600080fd5b3480156200014557600080fd5b5062000150620006e2565b6040518082815260200191505060405180910390f35b3480156200017357600080fd5b506200017e62000859565b604051808273ffffffffffffffffffffffffffffffffffffffff1673ffffffffffffffffffffffffffffffffffffffff16815260200191505060405180910390f35b348015620001cd57600080fd5b50620001ee600480360381019080803590602001909291905050506200087f565b005b348015620001fd57600080fd5b506200023e60048036038101908080359060200190929190803573ffffffffffffffffffffffffffffffffffffffff169060200190929190505050620008f6565b6040518082815260200191505060405180910390f35b3480156200026157600080fd5b5062000282600480360381019080803590602001909291905050506200091b565b6040518082815260200191505060405180910390f35b348015620002a557600080fd5b50620002c66004803603810190808035906020019092919050505062000936565b005b348015620002d557600080fd5b506200031660048036038101908080359060200190929190803573ffffffffffffffffffffffffffffffffffffffff169060200190929190505050620009ad565b6040518082815260200191505060405180910390f35b3480156200033957600080fd5b5062000344620009d2565b6040518082815260200191505060405180910390f35b3480156200036757600080fd5b50620003886004803603810190808035906020019092919050505062000a9d565b005b3480156200039757600080fd5b50620003d8600480360381019080803573ffffffffffffffffffffffffffffffffffffffff1690602001909291908035906020019092919050505062000d3d565b005b348015620003e757600080fd5b50620003f262000f82565b604051808273ffffffffffffffffffffffffffffffffffffffff1673ffffffffffffffffffffffffffffffffffffffff16815260200191505060405180910390f35b3480156200044157600080fd5b506200044c62000fa8565b604051808273ffffffffffffffffffffffffffffffffffffffff1673ffffffffffffffffffffffffffffffffffffffff16815260200191505060405180910390f35b3480156200049b57600080fd5b50620004bc6004803603810190808035906020019092919050505062000fce565b005b348015620004cb57600080fd5b506200050060048036038101908080359060200190929190803590602001909291908035906020019092919050505062001045565b6040518082815260200191505060405180910390f35b3480156200052357600080fd5b506200055860048036038101908080359060200190929190803590602001909291908035906020019092919050505062001090565b005b3480156200056757600080fd5b506200058860048036038101908080359060200190929190505050620012a5565b005b3480156200059757600080fd5b50620005a26200131c565b604051808273ffffffffffffffffffffffffffffffffffffffff1673ffffffffffffffffffffffffffffffffffffffff16815260200191505060405180910390f35b348015620005f157600080fd5b50620006126004803603810190808035906020019092919050505062001342565b6040518082815260200191505060405180910390f35b3480156200063557600080fd5b50620006406200135d565b005b3480156200064f57600080fd5b5062000686600480360381019080803573ffffffffffffffffffffffffffffffffffffffff16906020019092919050505062001795565b005b3480156200069557600080fd5b50620006a0620018ef565b604051808273ffffffffffffffffffffffffffffffffffffffff1673ffffffffffffffffffffffffffffffffffffffff16815260200191505060405180910390f35b6000806000600760009054906101000a900473ffffffffffffffffffffffffffffffffffffffff1673ffffffffffffffffffffffffffffffffffffffff1663ef78d4fd6040518163ffffffff167c0100000000000000000000000000000000000000000000000000000000028152600401602060405180830381600087803b1580156200076e57600080fd5b505af115801562000783573d6000803e3d6000fd5b505050506040513d60208110156200079a57600080fd5b810190808051906020019092919050505091508190508073ffffffffffffffffffffffffffffffffffffffff16637fc15a2e6040518163ffffffff167c0100000000000000000000000000000000000000000000000000000000028152600401602060405180830381600087803b1580156200081557600080fd5b505af11580156200082a573d6000803e3d6000fd5b505050506040513d60208110156200084157600080fd5b81019080805190602001909291905050509250505090565b600460009054906101000a900473ffffffffffffffffffffffffffffffffffffffff1681565b600360009054906101000a900473ffffffffffffffffffffffffffffffffffffffff1673ffffffffffffffffffffffffffffffffffffffff163373ffffffffffffffffffffffffffffffffffffffff16141515620008dc57600080fd5b8060086000600281101515620008ee57fe5b018190555050565b6000602052816000526040600020602052806000526040600020600091509150505481565b600a816002811015156200092b57fe5b016000915090505481565b600360009054906101000a900473ffffffffffffffffffffffffffffffffffffffff1673ffffffffffffffffffffffffffffffffffffffff163373ffffffffffffffffffffffffffffffffffffffff161415156200099357600080fd5b80600a6000600281101515620009a557fe5b018190555050565b6001602052816000526040600020602052806000526040600020600091509150505481565b6000600760009054906101000a900473ffffffffffffffffffffffffffffffffffffffff1673ffffffffffffffffffffffffffffffffffffffff16635bf5d54c6040518163ffffffff167c0100000000000000000000000000000000000000000000000000000000028152600401602060405180830381600087803b15801562000a5b57600080fd5b505af115801562000a70573d6000803e3d6000fd5b505050506040513d602081101562000a8757600080fd5b8101908080519060200190929190505050905090565b600062000aa9620009d2565b14151562000ab657600080fd5b62000ac2338262001915565b151562000ace57600080fd5b600660009054906101000a900473ffffffffffffffffffffffffffffffffffffffff1673ffffffffffffffffffffffffffffffffffffffff166323b872dd3330846040518463ffffffff167c0100000000000000000000000000000000000000000000000000000000028152600401808473ffffffffffffffffffffffffffffffffffffffff1673ffffffffffffffffffffffffffffffffffffffff1681526020018373ffffffffffffffffffffffffffffffffffffffff1673ffffffffffffffffffffffffffffffffffffffff1681526020018281526020019350505050602060405180830381600087803b15801562000bc857600080fd5b505af115801562000bdd573d6000803e3d6000fd5b505050506040513d602081101562000bf457600080fd5b8101908080519060200190929190505050151562000c1157600080fd5b62000c7f816001600062000c24620006e2565b815260200190815260200160002060003373ffffffffffffffffffffffffffffffffffffffff1673ffffffffffffffffffffffffffffffffffffffff168152602001908152602001600020546200198590919063ffffffff16565b6001600062000c8d620006e2565b815260200190815260200160002060003373ffffffffffffffffffffffffffffffffffffffff1673ffffffffffffffffffffffffffffffffffffffff168152602001908152602001600020819055503373ffffffffffffffffffffffffffffffffffffffff167efaaf3336e5c925e4d3017cc75d38ca026330a20faef146fd24501f98d16cb78262000d1e620006e2565b604051808381526020018281526020019250505060405180910390a250565b600062000d49620009d2565b14151562000d5657600080fd5b62000d63338383620019a2565b151562000d6f57600080fd5b806001600062000d7e620006e2565b815260200190815260200160002060003373ffffffffffffffffffffffffffffffffffffffff1673ffffffffffffffffffffffffffffffffffffffff168152602001908152602001600020541015151562000dd857600080fd5b62000e458160008062000dea620006e2565b815260200190815260200160002060008573ffffffffffffffffffffffffffffffffffffffff1673ffffffffffffffffffffffffffffffffffffffff168152602001908152602001600020546200198590919063ffffffff16565b60008062000e52620006e2565b815260200190815260200160002060008473ffffffffffffffffffffffffffffffffffffffff1673ffffffffffffffffffffffffffffffffffffffff16815260200190815260200160002081905550806001600062000eb0620006e2565b815260200190815260200160002060003373ffffffffffffffffffffffffffffffffffffffff1673ffffffffffffffffffffffffffffffffffffffff168152602001908152602001600020600082825403925050819055508173ffffffffffffffffffffffffffffffffffffffff163373ffffffffffffffffffffffffffffffffffffffff167f6a92c4ce4cbb892528ab39f7d674be0f6b1579b54ed8e77d95ad506819fd72c88362000f62620006e2565b604051808381526020018281526020019250505060405180910390a35050565b600760009054906101000a900473ffffffffffffffffffffffffffffffffffffffff1681565b600360009054906101000a900473ffffffffffffffffffffffffffffffffffffffff1681565b600360009054906101000a900473ffffffffffffffffffffffffffffffffffffffff1673ffffffffffffffffffffffffffffffffffffffff163373ffffffffffffffffffffffffffffffffffffffff161415156200102b57600080fd5b80600a60016002811015156200103d57fe5b018190555050565b600080600080600085141515156200105c57600080fd5b60648602925084838115156200106e57fe5b04915060648288028115156200108057fe5b0490508093505050509392505050565b826200109b62001c3c565b80828152602001915050604051809103906000f080158015620010c2573d6000803e3d6000fd5b50600760006101000a81548173ffffffffffffffffffffffffffffffffffffffff021916908373ffffffffffffffffffffffffffffffffffffffff160217905550600760009054906101000a900473ffffffffffffffffffffffffffffffffffffffff1673ffffffffffffffffffffffffffffffffffffffff1663842652a6836040518263ffffffff167c010000000000000000000000000000000000000000000000000000000002815260040180828152602001915050600060405180830381600087803b1580156200119557600080fd5b505af1158015620011aa573d6000803e3d6000fd5b50505050600760009054906101000a900473ffffffffffffffffffffffffffffffffffffffff1673ffffffffffffffffffffffffffffffffffffffff1663842652a6826040518263ffffffff167c010000000000000000000000000000000000000000000000000000000002815260040180828152602001915050600060405180830381600087803b1580156200124057600080fd5b505af115801562001255573d6000803e3d6000fd5b505050507ff369b06e840a30eacc9a6075343f62ef138689a44c1c3ef52cb24e6c692c980483838360405180848152602001838152602001828152602001935050505060405180910390a1505050565b600360009054906101000a900473ffffffffffffffffffffffffffffffffffffffff1673ffffffffffffffffffffffffffffffffffffffff163373ffffffffffffffffffffffffffffffffffffffff161415156200130257600080fd5b80600860016002811015156200131457fe5b018190555050565b600560009054906101000a900473ffffffffffffffffffffffffffffffffffffffff1681565b6008816002811015156200135257fe5b016000915090505481565b600060016200136b620009d2565b1415156200137857600080fd5b60011515600460009054906101000a900473ffffffffffffffffffffffffffffffffffffffff1673ffffffffffffffffffffffffffffffffffffffff16633af32abf336040518263ffffffff167c0100000000000000000000000000000000000000000000000000000000028152600401808273ffffffffffffffffffffffffffffffffffffffff1673ffffffffffffffffffffffffffffffffffffffff168152602001915050602060405180830381600087803b1580156200143a57600080fd5b505af11580156200144f573d6000803e3d6000fd5b505050506040513d60208110156200146657600080fd5b810190808051906020019092919050505015151415156200148657600080fd5b60006002600062001496620006e2565b815260200190815260200160002054111515620014b257600080fd5b6200162d600660009054906101000a900473ffffffffffffffffffffffffffffffffffffffff1673ffffffffffffffffffffffffffffffffffffffff166370a08231306040518263ffffffff167c0100000000000000000000000000000000000000000000000000000000028152600401808273ffffffffffffffffffffffffffffffffffffffff1673ffffffffffffffffffffffffffffffffffffffff168152602001915050602060405180830381600087803b1580156200157457600080fd5b505af115801562001589573d6000803e3d6000fd5b505050506040513d6020811015620015a057600080fd5b8101908080519060200190929190505050600080620015be620006e2565b815260200190815260200160002060003373ffffffffffffffffffffffffffffffffffffffff1673ffffffffffffffffffffffffffffffffffffffff168152602001908152602001600020546002600062001618620006e2565b81526020019081526020016000205462001045565b9050600660009054906101000a900473ffffffffffffffffffffffffffffffffffffffff1673ffffffffffffffffffffffffffffffffffffffff1663a9059cbb33836040518363ffffffff167c0100000000000000000000000000000000000000000000000000000000028152600401808373ffffffffffffffffffffffffffffffffffffffff1673ffffffffffffffffffffffffffffffffffffffff16815260200182815260200192505050602060405180830381600087803b158015620016f557600080fd5b505af11580156200170a573d6000803e3d6000fd5b505050506040513d60208110156200172157600080fd5b8101908080519060200190929190505050503373ffffffffffffffffffffffffffffffffffffffff167f68a01c51691a9f9e26f898f67b3a9a77f49e2805a1458883efa86e163865541a8262001776620006e2565b604051808381526020018281526020019250505060405180910390a250565b600360009054906101000a900473ffffffffffffffffffffffffffffffffffffffff1673ffffffffffffffffffffffffffffffffffffffff163373ffffffffffffffffffffffffffffffffffffffff16141515620017f257600080fd5b600073ffffffffffffffffffffffffffffffffffffffff168173ffffffffffffffffffffffffffffffffffffffff16141515156200182f57600080fd5b8073ffffffffffffffffffffffffffffffffffffffff16600360009054906101000a900473ffffffffffffffffffffffffffffffffffffffff1673ffffffffffffffffffffffffffffffffffffffff167f8be0079c531659141344cd1fd0a4f28419497f9722a3daafe3b4186f6b6457e060405160405180910390a380600360006101000a81548173ffffffffffffffffffffffffffffffffffffffff021916908373ffffffffffffffffffffffffffffffffffffffff16021790555050565b600660009054906101000a900473ffffffffffffffffffffffffffffffffffffffff1681565b60006200197d6001600062001929620006e2565b815260200190815260200160002060008573ffffffffffffffffffffffffffffffffffffffff1673ffffffffffffffffffffffffffffffffffffffff16815260200190815260200160002054830162001bc0565b905092915050565b600081830190508281101515156200199957fe5b80905092915050565b6000600560009054906101000a900473ffffffffffffffffffffffffffffffffffffffff1673ffffffffffffffffffffffffffffffffffffffff16633af32abf856040518263ffffffff167c0100000000000000000000000000000000000000000000000000000000028152600401808273ffffffffffffffffffffffffffffffffffffffff1673ffffffffffffffffffffffffffffffffffffffff168152602001915050602060405180830381600087803b15801562001a6257600080fd5b505af115801562001a77573d6000803e3d6000fd5b505050506040513d602081101562001a8e57600080fd5b8101908080519060200190929190505050801562001ba35750600460009054906101000a900473ffffffffffffffffffffffffffffffffffffffff1673ffffffffffffffffffffffffffffffffffffffff16633af32abf846040518263ffffffff167c0100000000000000000000000000000000000000000000000000000000028152600401808273ffffffffffffffffffffffffffffffffffffffff1673ffffffffffffffffffffffffffffffffffffffff168152602001915050602060405180830381600087803b15801562001b6557600080fd5b505af115801562001b7a573d6000803e3d6000fd5b505050506040513d602081101562001b9157600080fd5b81019080805190602001909291905050505b801562001bb7575062001bb68262001bfe565b5b90509392505050565b60006008600060028110151562001bd357fe5b0154821015801562001bf757506008600160028110151562001bf157fe5b01548211155b9050919050565b6000600a600060028110151562001c1157fe5b0154821015801562001c355750600a600160028110151562001c2f57fe5b01548211155b9050919050565b604051610ecd8062001c4e833901905600608060405234801561001057600080fd5b50604051602080610ecd833981018060405281019080805190602001909291905050508061003c610118565b80828152602001915050604051809103906000f080158015610062573d6000803e3d6000fd5b50600160006101000a81548173ffffffffffffffffffffffffffffffffffffffff021916908373ffffffffffffffffffffffffffffffffffffffff160217905550806100ac610128565b80828152602001915050604051809103906000f0801580156100d2573d6000803e3d6000fd5b506000806101000a81548173ffffffffffffffffffffffffffffffffffffffff021916908373ffffffffffffffffffffffffffffffffffffffff16021790555050610138565b6040516105bd8061067683390190565b60405161029a80610c3383390190565b61052f806101476000396000f300608060405260043610610062576000357c0100000000000000000000000000000000000000000000000000000000900463ffffffff1680635bf5d54c146100675780637d80c95a14610092578063842652a6146100e9578063ef78d4fd14610116575b600080fd5b34801561007357600080fd5b5061007c61016d565b6040518082815260200191505060405180910390f35b34801561009e57600080fd5b506100a761040c565b604051808273ffffffffffffffffffffffffffffffffffffffff1673ffffffffffffffffffffffffffffffffffffffff16815260200191505060405180910390f35b3480156100f557600080fd5b5061011460048036038101908080359060200190929190505050610432565b005b34801561012257600080fd5b5061012b6104de565b604051808273ffffffffffffffffffffffffffffffffffffffff1673ffffffffffffffffffffffffffffffffffffffff16815260200191505060405180910390f35b6000806000806000809054906101000a900473ffffffffffffffffffffffffffffffffffffffff1673ffffffffffffffffffffffffffffffffffffffff1663dd6239fc6040518163ffffffff167c0100000000000000000000000000000000000000000000000000000000028152600401602060405180830381600087803b1580156101f857600080fd5b505af115801561020c573d6000803e3d6000fd5b505050506040513d602081101561022257600080fd5b81019080805190602001909291905050509250600160009054906101000a900473ffffffffffffffffffffffffffffffffffffffff1673ffffffffffffffffffffffffffffffffffffffff16630ef267436040518163ffffffff167c0100000000000000000000000000000000000000000000000000000000028152600401602060405180830381600087803b1580156102bb57600080fd5b505af11580156102cf573d6000803e3d6000fd5b505050506040513d60208110156102e557600080fd5b81019080805190602001909291905050509150600082141561030a5760009350610406565b600090505b8181101561040557600160009054906101000a900473ffffffffffffffffffffffffffffffffffffffff1673ffffffffffffffffffffffffffffffffffffffff16636f54dce582856040518363ffffffff167c01000000000000000000000000000000000000000000000000000000000281526004018083815260200182815260200192505050602060405180830381600087803b1580156103b057600080fd5b505af11580156103c4573d6000803e3d6000fd5b505050506040513d60208110156103da57600080fd5b8101908080519060200190929190505050156103f857809350610406565b808060010191505061030f565b5b50505090565b600160009054906101000a900473ffffffffffffffffffffffffffffffffffffffff1681565b600160009054906101000a900473ffffffffffffffffffffffffffffffffffffffff1673ffffffffffffffffffffffffffffffffffffffff1663959ac484826040518263ffffffff167c010000000000000000000000000000000000000000000000000000000002815260040180828152602001915050600060405180830381600087803b1580156104c357600080fd5b505af11580156104d7573d6000803e3d6000fd5b5050505050565b6000809054906101000a900473ffffffffffffffffffffffffffffffffffffffff16815600a165627a7a72305820f2bc78b7822098a2189435d25ed96fbe2a69dc70c98bece5a916d11cab15974b0029608060405234801561001057600080fd5b506040516020806105bd8339810180604052810190808051906020019092919050505080600381905550506105738061004a6000396000f300608060405260043610610099576000357c0100000000000000000000000000000000000000000000000000000000900463ffffffff1680630ef267431461009e5780632f91f1f4146100c95780634a720f27146100f45780635439e423146101355780636f54dce514610160578063959ac484146101af578063a4ece52c146101dc578063b1becf2a146101f3578063f2a75fe414610234575b600080fd5b3480156100aa57600080fd5b506100b361024b565b6040518082815260200191505060405180910390f35b3480156100d557600080fd5b506100de610255565b6040518082815260200191505060405180910390f35b34801561010057600080fd5b5061011f6004803603810190808035906020019092919050505061025b565b6040518082815260200191505060405180910390f35b34801561014157600080fd5b5061014a61027e565b6040518082815260200191505060405180910390f35b34801561016c57600080fd5b506101956004803603810190808035906020019092919080359060200190929190505050610284565b604051808215151515815260200191505060405180910390f35b3480156101bb57600080fd5b506101da60048036038101908080359060200190929190505050610300565b005b3480156101e857600080fd5b506101f16103e3565b005b3480156101ff57600080fd5b5061021e600480360381019080803590602001909291905050506104f3565b6040518082815260200191505060405180910390f35b34801561024057600080fd5b5061024961050b565b005b6000600454905090565b60035481565b60008181548110151561026a57fe5b906000526020600020016000915090505481565b60025481565b6000808314156102b25760008381548110151561029d57fe5b906000526020600020015482111590506102fa565b6000600184038154811015156102c457fe5b906000526020600020015482101580156102f757506000838154811015156102e857fe5b90600052602060002001548211155b90505b92915050565b60035481600254011115151561037e576040517f08c379a00000000000000000000000000000000000000000000000000000000081526004018080602001828103825260128152602001807f424c4f434b5f4e554d5f4f564552464c4f57000000000000000000000000000081525060200191505060405180910390fd5b60008160025401908060018154018082558091505090600182039060005260206000200160009091929091909150555080600260008282540192505081905550600460008154809291906001019190505550600354600254111515156103e057fe5b50565b600080600080549050111515610461576040517f08c379a000000000000000000000000000000000000000000000000000000000815260040180806020018281038252600d8152602001807f454d5054592053544f524147450000000000000000000000000000000000000081525060200191505060405180910390fd5b600060016000805490500381548110151561047857fe5b90600052602060002001549050600060016000805490500381548110151561049c57fe5b90600052602060002001600090556000808054905014156104cc57600060048190555060006002819055506104f0565b60046000815480929190600190039190505550806002600082825403925050819055505b50565b60016020528060005260406000206000915090505481565b60008090505b60008054905081111515610534576105276103e3565b8080600101915050610511565b6000808054905014151561054457fe5b505600a165627a7a72305820bc935eb3467072bc2fe268e50839cd1eacc31a6907a63c3e8b0a53fcc9e61bf50029608060405234801561001057600080fd5b5060405160208061029a833981018060405281019080805190602001909291905050506000811115156100ab576040517f08c379a000000000000000000000000000000000000000000000000000000000815260040180806020018281038252600c8152602001807f454d5054595f504552494f44000000000000000000000000000000000000000081525060200191505060405180910390fd5b8060008190555043600181905550506101d1806100c96000396000f30060806040526004361061006d576000357c0100000000000000000000000000000000000000000000000000000000900463ffffffff1680632bc80f3a146100725780637f89b5ce1461009d5780637fc15a2e146100c8578063dd6239fc146100f3578063eb6ad24e1461011e575b600080fd5b34801561007e57600080fd5b50610087610149565b6040518082815260200191505060405180910390f35b3480156100a957600080fd5b506100b261014f565b6040518082815260200191505060405180910390f35b3480156100d457600080fd5b506100dd610155565b6040518082815260200191505060405180910390f35b3480156100ff57600080fd5b5061010861017e565b6040518082815260200191505060405180910390f35b34801561012a57600080fd5b5061013361018f565b6040518082815260200191505060405180910390f35b60005481565b60015481565b60008060015443031015151561016757fe5b600054600154430381151561017857fe5b04905090565b600061018861018f565b4303905090565b6000805461019b610155565b02600154019050905600a165627a7a72305820a0a114358d11151c2f5144479fd87806b0519eaea74de77545618e9017ea66ff0029a165627a7a72305820525ce6f286ef7a0244ea327b27f47ad3d85e2d54b7b95fec9cf2c370c5adc7bf0029608060405234801561001057600080fd5b50604051602080610ecd833981018060405281019080805190602001909291905050508061003c610118565b80828152602001915050604051809103906000f080158015610062573d6000803e3d6000fd5b50600160006101000a81548173ffffffffffffffffffffffffffffffffffffffff021916908373ffffffffffffffffffffffffffffffffffffffff160217905550806100ac610128565b80828152602001915050604051809103906000f0801580156100d2573d6000803e3d6000fd5b506000806101000a81548173ffffffffffffffffffffffffffffffffffffffff021916908373ffffffffffffffffffffffffffffffffffffffff16021790555050610138565b6040516105bd8061067683390190565b60405161029a80610c3383390190565b61052f806101476000396000f300608060405260043610610062576000357c0100000000000000000000000000000000000000000000000000000000900463ffffffff1680635bf5d54c146100675780637d80c95a14610092578063842652a6146100e9578063ef78d4fd14610116575b600080fd5b34801561007357600080fd5b5061007c61016d565b6040518082815260200191505060405180910390f35b34801561009e57600080fd5b506100a761040c565b604051808273ffffffffffffffffffffffffffffffffffffffff1673ffffffffffffffffffffffffffffffffffffffff16815260200191505060405180910390f35b3480156100f557600080fd5b5061011460048036038101908080359060200190929190505050610432565b005b34801561012257600080fd5b5061012b6104de565b604051808273ffffffffffffffffffffffffffffffffffffffff1673ffffffffffffffffffffffffffffffffffffffff16815260200191505060405180910390f35b6000806000806000809054906101000a900473ffffffffffffffffffffffffffffffffffffffff1673ffffffffffffffffffffffffffffffffffffffff1663dd6239fc6040518163ffffffff167c0100000000000000000000000000000000000000000000000000000000028152600401602060405180830381600087803b1580156101f857600080fd5b505af115801561020c573d6000803e3d6000fd5b505050506040513d602081101561022257600080fd5b81019080805190602001909291905050509250600160009054906101000a900473ffffffffffffffffffffffffffffffffffffffff1673ffffffffffffffffffffffffffffffffffffffff16630ef267436040518163ffffffff167c0100000000000000000000000000000000000000000000000000000000028152600401602060405180830381600087803b1580156102bb57600080fd5b505af11580156102cf573d6000803e3d6000fd5b505050506040513d60208110156102e557600080fd5b81019080805190602001909291905050509150600082141561030a5760009350610406565b600090505b8181101561040557600160009054906101000a900473ffffffffffffffffffffffffffffffffffffffff1673ffffffffffffffffffffffffffffffffffffffff16636f54dce582856040518363ffffffff167c01000000000000000000000000000000000000000000000000000000000281526004018083815260200182815260200192505050602060405180830381600087803b1580156103b057600080fd5b505af11580156103c4573d6000803e3d6000fd5b505050506040513d60208110156103da57600080fd5b8101908080519060200190929190505050156103f857809350610406565b808060010191505061030f565b5b50505090565b600160009054906101000a900473ffffffffffffffffffffffffffffffffffffffff1681565b600160009054906101000a900473ffffffffffffffffffffffffffffffffffffffff1673ffffffffffffffffffffffffffffffffffffffff1663959ac484826040518263ffffffff167c010000000000000000000000000000000000000000000000000000000002815260040180828152602001915050600060405180830381600087803b1580156104c357600080fd5b505af11580156104d7573d6000803e3d6000fd5b5050505050565b6000809054906101000a900473ffffffffffffffffffffffffffffffffffffffff16815600a165627a7a72305820f2bc78b7822098a2189435d25ed96fbe2a69dc70c98bece5a916d11cab15974b0029608060405234801561001057600080fd5b506040516020806105bd8339810180604052810190808051906020019092919050505080600381905550506105738061004a6000396000f300608060405260043610610099576000357c0100000000000000000000000000000000000000000000000000000000900463ffffffff1680630ef267431461009e5780632f91f1f4146100c95780634a720f27146100f45780635439e423146101355780636f54dce514610160578063959ac484146101af578063a4ece52c146101dc578063b1becf2a146101f3578063f2a75fe414610234575b600080fd5b3480156100aa57600080fd5b506100b361024b565b6040518082815260200191505060405180910390f35b3480156100d557600080fd5b506100de610255565b6040518082815260200191505060405180910390f35b34801561010057600080fd5b5061011f6004803603810190808035906020019092919050505061025b565b6040518082815260200191505060405180910390f35b34801561014157600080fd5b5061014a61027e565b6040518082815260200191505060405180910390f35b34801561016c57600080fd5b506101956004803603810190808035906020019092919080359060200190929190505050610284565b604051808215151515815260200191505060405180910390f35b3480156101bb57600080fd5b506101da60048036038101908080359060200190929190505050610300565b005b3480156101e857600080fd5b506101f16103e3565b005b3480156101ff57600080fd5b5061021e600480360381019080803590602001909291905050506104f3565b6040518082815260200191505060405180910390f35b34801561024057600080fd5b5061024961050b565b005b6000600454905090565b60035481565b60008181548110151561026a57fe5b906000526020600020016000915090505481565b60025481565b6000808314156102b25760008381548110151561029d57fe5b906000526020600020015482111590506102fa565b6000600184038154811015156102c457fe5b906000526020600020015482101580156102f757506000838154811015156102e857fe5b90600052602060002001548211155b90505b92915050565b60035481600254011115151561037e576040517f08c379a00000000000000000000000000000000000000000000000000000000081526004018080602001828103825260128152602001807f424c4f434b5f4e554d5f4f564552464c4f57000000000000000000000000000081525060200191505060405180910390fd5b60008160025401908060018154018082558091505090600182039060005260206000200160009091929091909150555080600260008282540192505081905550600460008154809291906001019190505550600354600254111515156103e057fe5b50565b600080600080549050111515610461576040517f08c379a000000000000000000000000000000000000000000000000000000000815260040180806020018281038252600d8152602001807f454d5054592053544f524147450000000000000000000000000000000000000081525060200191505060405180910390fd5b600060016000805490500381548110151561047857fe5b90600052602060002001549050600060016000805490500381548110151561049c57fe5b90600052602060002001600090556000808054905014156104cc57600060048190555060006002819055506104f0565b60046000815480929190600190039190505550806002600082825403925050819055505b50565b60016020528060005260406000206000915090505481565b60008090505b60008054905081111515610534576105276103e3565b8080600101915050610511565b6000808054905014151561054457fe5b505600a165627a7a72305820bc935eb3467072bc2fe268e50839cd1eacc31a6907a63c3e8b0a53fcc9e61bf50029608060405234801561001057600080fd5b5060405160208061029a833981018060405281019080805190602001909291905050506000811115156100ab576040517f08c379a000000000000000000000000000000000000000000000000000000000815260040180806020018281038252600c8152602001807f454d5054595f504552494f44000000000000000000000000000000000000000081525060200191505060405180910390fd5b8060008190555043600181905550506101d1806100c96000396000f30060806040526004361061006d576000357c0100000000000000000000000000000000000000000000000000000000900463ffffffff1680632bc80f3a146100725780637f89b5ce1461009d5780637fc15a2e146100c8578063dd6239fc146100f3578063eb6ad24e1461011e575b600080fd5b34801561007e57600080fd5b50610087610149565b6040518082815260200191505060405180910390f35b3480156100a957600080fd5b506100b261014f565b6040518082815260200191505060405180910390f35b3480156100d457600080fd5b506100dd610155565b6040518082815260200191505060405180910390f35b3480156100ff57600080fd5b5061010861017e565b6040518082815260200191505060405180910390f35b34801561012a57600080fd5b5061013361018f565b6040518082815260200191505060405180910390f35b60005481565b60015481565b60008060015443031015151561016757fe5b600054600154430381151561017857fe5b04905090565b600061018861018f565b4303905090565b6000805461019b610155565b02600154019050905600a165627a7a72305820a0a114358d11151c2f5144479fd87806b0519eaea74de77545618e9017ea66ff0029",
  "source": "pragma solidity ^0.4.24;\n\nimport \"./TRLInterface.sol\";\nimport \"openzeppelin-solidity/contracts/math/SafeMath.sol\";\nimport \"openzeppelin-solidity/contracts/token/ERC20/StandardToken.sol\";\nimport \"@frontier-token-research/role-registries/contracts/Registry.sol\";\nimport \"@frontier-token-research/role-registries/contracts/OwnedRegistryFactory.sol\";\nimport \"@frontier-token-research/cron/contracts/Period.sol\";\nimport \"@frontier-token-research/cron/contracts/PeriodicStages.sol\";\n\n\n/**\n* A Token Ranked List (TRL) enables voting with staked tokens periodically, over a registry of candidates\n**/\n\ncontract TRL is TRLInterface, Ownable {\n    using SafeMath for uint256;\n\n    // Registry of candidates to be voted\n    Registry public candidateRegistry;\n\n    // Registry of candidates allowed to vote\n    Registry public voterRegistry;\n\n    // Master Token, used to buy votes\n    StandardToken public token;\n\n    // Stages that come periodically \n    PeriodicStages public periodicStages;\n\n    // Minimum stake to participate in the period, 0 by default\n    uint256[2] public stakingConstraints = [0, 2^256 -1];\n\n    // Array setting up the limits when voting [min_amount, Max_amount]\n    uint256[2] public votingConstraints = [0, 2^256 -1];\n\n\n    /**\n    * Creates a new Instance of a Voting Lists\n    * @param _tokenAddress Address of the token used as an incentive for the pool\n    **/\n\n    constructor(\n        address _tokenAddress,\n        address _candidateRegistryAddress,\n        address _voterRegistryAddress,\n        uint256 _initialTTL,\n        uint256 _initialActiveTime,\n        uint256 _initialClaimTime)\n        public\n    {\n        require(\n            _candidateRegistryAddress != address(0) && \n            _voterRegistryAddress != address(0) && \n            _tokenAddress != address(0)\n        ); \n        token = StandardToken(_tokenAddress);\n        candidateRegistry = Registry(_candidateRegistryAddress);\n        voterRegistry = Registry(_voterRegistryAddress);\n        initPeriod(_initialTTL, _initialActiveTime, _initialClaimTime);\n    }\n\n    /**\n    * Initializes a new period, taking as the TTL value the current from storage, and setting the state to 1\n    * Requires that the current period is Preparing (0)\n    **/\n\n    function initPeriod(uint256 _periodTTL, uint256 _activeTime, uint256 _claimTime) public {\n        periodicStages = new PeriodicStages(_periodTTL);\n        periodicStages.pushStage(_activeTime);\n        periodicStages.pushStage(_claimTime);\n        emit PeriodInit(_periodTTL, _activeTime, _claimTime);\n    }\n\n    /**\n    * @dev Exchanges the main token for an amount of votes\n    * @dev Requires previous allowance of expenditure of at least the amount required\n    * @dev Currently 1:1 exchange used, but this rate could be changed\n    * @param _amount Amount of votes that the voter wants to buy\n    **/\n\n    function buyTokenVotes(uint256 _amount) public {\n        require(currentStage() == 0);\n        require(canStake(msg.sender, _amount));\n        require(token.transferFrom(msg.sender,this, _amount));\n        votesBalance[currentPeriod()][msg.sender] = votesBalance[currentPeriod()][msg.sender].add(_amount);\n        emit VotesBought(msg.sender, _amount, currentPeriod());\n    }\n\n    /**\n    * @dev Adds a new vote for a candidate. It fails if the candidate hasn't approved before the specified amount\n    * @param _candidateAddress address of the candidate selected\n    * @param _amount of votes used\n    **/\n\n    function vote(address _candidateAddress, uint256 _amount) public {\n        require(currentStage() == 0);\n        require(canVote(msg.sender, _candidateAddress, _amount));\n        require(votesBalance[currentPeriod()][msg.sender] >= _amount);\n        votesReceived[currentPeriod()][_candidateAddress] = votesReceived[currentPeriod()][_candidateAddress].add(_amount);\n        votesBalance[currentPeriod()][msg.sender] -= _amount;\n        emit Vote(msg.sender,_candidateAddress, _amount, currentPeriod());\n    }\n\n    /**\n    * @dev Claims the correspondant Bounty from the Pool on the current periodIndex\n    **/\n\n    function claimBounty() public {\n        require(currentStage() == 1);\n        require(candidateRegistry.isWhitelisted(msg.sender) == true);\n        require(totalPeriodVotes[currentPeriod()] > 0);\n        uint256 totalAmount = calculateReward(\n            token.balanceOf(this),\n            votesReceived[currentPeriod()][msg.sender],\n            totalPeriodVotes[currentPeriod()]\n        );\n        token.transfer(msg.sender, totalAmount);\n        emit BountyRelased(msg.sender, totalAmount, currentPeriod());\n    }\n\n    /*\n    * @dev Sets the minimum stake to participate in a period \n    * @param _minimumStakeAmount minimum stake to be added\n    **/\n\n    function setMinimumStake(uint256 _minimumStakeAmount) public {\n        require(msg.sender == owner);\n        stakingConstraints[0] = _minimumStakeAmount;\n    }\n\n    /*\n    * @dev Sets the minimum stake to participate in a period \n    * @param _minimumStakeAmount minimum stake to be added\n    **/\n\n    function setMaximumStake(uint256 _maximumStakeAmount) public {\n        require(msg.sender == owner);\n        stakingConstraints[1] = _maximumStakeAmount;\n    }\n\n    /*\n    * @dev Sets a voting limit to allocate to one candidate\n    * @param _minimumStakeAmount minimum stake to be added\n    **/\n\n    function setMinVotingLimit(uint256 _minVoteAmount) public {\n        require(msg.sender == owner);\n        votingConstraints[0] = _minVoteAmount; \n    }\n\n    /*\n    * @dev Sets a voting limit to allocate to one candidate\n    * @param _minimumStakeAmount minimum stake to be added\n    **/\n\n    function setMaxVotingLimit(uint256 _maxVoteAmount) public {\n        require(msg.sender == owner);\n        votingConstraints[1] = _maxVoteAmount; \n    }\n\n    /**\n    * @dev Returns the current period number\n    **/\n\n    function currentPeriod() public view returns(uint256) { \n        address periodAddress = periodicStages.period();\n        Period period = Period(periodAddress);\n        return period.getPeriodNumber();\n    }\n    \n    /**\n    * @dev Returns the current stage number\n    **/\n\n    function currentStage() public view returns(uint256){\n        return periodicStages.currentStage();\n    }\n\n         \n    /**\n    * @dev Returns true if the given _sender can vote for a given _receiver\n    * @param _sender Account of the voter that is checked\n    * @param _receiver Account of the candidate to be voted\n    * @return true if the user can vote and the receiver is a candidate\n    **/\n\n    function canVote(\n        address _sender, \n        address _receiver,\n        uint256 _amount) \n        internal view returns (bool) \n    { \n        return voterRegistry.isWhitelisted(_sender) &&\n        candidateRegistry.isWhitelisted(_receiver) && \n        voteInsideConstraints(_amount);\n    }\n\n    /**\n    * @dev Returns true if the given _sender stake an amount of tokens\n    * @param _sender Account of the voter that is checked\n    * @param _amount Amount that is attempted to stake\n    * @return true if the user can vote and the receiver is a candidate\n    **/\n\n    function canStake(\n        address _sender, \n        uint256 _amount) \n        internal view returns (bool) \n    {\n        return (stakeInsideConstraints(_amount + votesBalance[currentPeriod()][_sender]));\n\n    } \n\n    /**\n    * @dev Returns true if the given _amount is insidse the TRL constraints\n    * @param _amount Account of the voter that is checked\n    * @return true if the amount of votes is inside the constraints set\n    **/\n\n    function stakeInsideConstraints(\n        uint256 _amount) \n        internal view returns (bool) \n    { \n        return _amount >= stakingConstraints[0] &&\n        _amount <= stakingConstraints[1];\n    }\n\n    /**\n    * @dev Returns true if the given _amount is insidse the TRL constraints\n    * @param _amount Account of the voter that is checked\n    * @return true if the amount of votes is inside the constraints set\n    **/\n\n    function voteInsideConstraints(\n        uint256 _amount) \n        internal view returns (bool) \n    { \n        return _amount >= votingConstraints[0] &&\n        _amount <= votingConstraints[1];\n    }\n\n    /**\n    * @dev Function that determines the current reward for each sender\n    * @param _poolAmount Total amount that is going to be shared among participants\n    * @param _claimerVotes Amount of votes of the candidate that is going to claim for the reward\n    * @param _totalVotes Total Amount of votes on a certain period\n    */\n\n    function calculateReward(\n        uint256 _poolAmount,\n        uint256 _claimerVotes,\n        uint256 _totalVotes)\n        pure public returns (uint256)\n    {\n        require(_totalVotes != 0);\n        uint256 auxDecimalVotes = _claimerVotes * 100;\n        uint256 auxPercentageVotes = auxDecimalVotes / _totalVotes;\n        uint256 totalAmount = _poolAmount * auxPercentageVotes / 100;\n        return totalAmount;\n    }\n}\n",
  "sourcePath": "/Users/carlosbuendia/Documents/Projects/consensys/Frontier/TRL/contracts/TRL.sol",
  "compiler": {
    "name": "solc",
    "version": "0.4.24+commit.e67f0147.Emscripten.clang"
  },
  "schemaVersion": "2.0.0",
  "updatedAt": "2018-07-24T13:44:34.970Z"
}