{
  "contractName": "TRL",
  "abi": [
    {
      "constant": true,
      "inputs": [
        {
          "name": "",
          "type": "uint256"
        }
      ],
      "name": "poolAmount",
      "outputs": [
        {
          "name": "",
          "type": "uint256"
        }
      ],
      "payable": false,
      "stateMutability": "view",
      "type": "function"
    },
    {
      "constant": false,
      "inputs": [
        {
          "name": "_contractAddress",
          "type": "address"
        }
      ],
      "name": "setVoterRegistry",
      "outputs": [],
      "payable": false,
      "stateMutability": "nonpayable",
      "type": "function"
    },
    {
      "constant": false,
      "inputs": [
        {
          "name": "_contractAddress",
          "type": "address"
        }
      ],
      "name": "setToken",
      "outputs": [],
      "payable": false,
      "stateMutability": "nonpayable",
      "type": "function"
    },
    {
      "constant": true,
      "inputs": [],
      "name": "candidateRegistry",
      "outputs": [
        {
          "name": "",
          "type": "address"
        }
      ],
      "payable": false,
      "stateMutability": "view",
      "type": "function"
    },
    {
      "constant": true,
      "inputs": [
        {
          "name": "",
          "type": "uint256"
        },
        {
          "name": "",
          "type": "address"
        }
      ],
      "name": "votesReceived",
      "outputs": [
        {
          "name": "",
          "type": "uint256"
        }
      ],
      "payable": false,
      "stateMutability": "view",
      "type": "function"
    },
    {
      "constant": true,
      "inputs": [
        {
          "name": "",
          "type": "uint256"
        }
      ],
      "name": "votingConstraints",
      "outputs": [
        {
          "name": "",
          "type": "uint256"
        }
      ],
      "payable": false,
      "stateMutability": "view",
      "type": "function"
    },
    {
      "constant": false,
      "inputs": [
        {
          "name": "_contractAddress",
          "type": "address"
        }
      ],
      "name": "setPeriodicStages",
      "outputs": [],
      "payable": false,
      "stateMutability": "nonpayable",
      "type": "function"
    },
    {
      "constant": true,
      "inputs": [
        {
          "name": "",
          "type": "uint256"
        },
        {
          "name": "",
          "type": "address"
        }
      ],
      "name": "votesBalance",
      "outputs": [
        {
          "name": "",
          "type": "uint256"
        }
      ],
      "payable": false,
      "stateMutability": "view",
      "type": "function"
    },
    {
      "constant": true,
      "inputs": [
        {
          "name": "",
          "type": "uint256"
        }
      ],
      "name": "totalEpochVotes",
      "outputs": [
        {
          "name": "",
          "type": "uint256"
        }
      ],
      "payable": false,
      "stateMutability": "view",
      "type": "function"
    },
    {
      "constant": true,
      "inputs": [],
      "name": "periodicStages",
      "outputs": [
        {
          "name": "",
          "type": "address"
        }
      ],
      "payable": false,
      "stateMutability": "view",
      "type": "function"
    },
    {
      "constant": true,
      "inputs": [],
      "name": "owner",
      "outputs": [
        {
          "name": "",
          "type": "address"
        }
      ],
      "payable": false,
      "stateMutability": "view",
      "type": "function"
    },
    {
      "constant": true,
      "inputs": [
        {
          "name": "",
          "type": "uint256"
        }
      ],
      "name": "repWeights",
      "outputs": [
        {
          "name": "",
          "type": "uint256"
        }
      ],
      "payable": false,
      "stateMutability": "view",
      "type": "function"
    },
    {
      "constant": true,
      "inputs": [],
      "name": "voterRegistry",
      "outputs": [
        {
          "name": "",
          "type": "address"
        }
      ],
      "payable": false,
      "stateMutability": "view",
      "type": "function"
    },
    {
      "constant": false,
      "inputs": [
        {
          "name": "_contractAddress",
          "type": "address"
        }
      ],
      "name": "setCandidateRegistry",
      "outputs": [],
      "payable": false,
      "stateMutability": "nonpayable",
      "type": "function"
    },
    {
      "constant": true,
      "inputs": [
        {
          "name": "",
          "type": "uint256"
        }
      ],
      "name": "stakingConstraints",
      "outputs": [
        {
          "name": "",
          "type": "uint256"
        }
      ],
      "payable": false,
      "stateMutability": "view",
      "type": "function"
    },
    {
      "constant": true,
      "inputs": [],
      "name": "reputationWindowSize",
      "outputs": [
        {
          "name": "",
          "type": "uint256"
        }
      ],
      "payable": false,
      "stateMutability": "view",
      "type": "function"
    },
    {
      "constant": false,
      "inputs": [
        {
          "name": "newOwner",
          "type": "address"
        }
      ],
      "name": "transferOwnership",
      "outputs": [],
      "payable": false,
      "stateMutability": "nonpayable",
      "type": "function"
    },
    {
      "constant": true,
      "inputs": [],
      "name": "token",
      "outputs": [
        {
          "name": "",
          "type": "address"
        }
      ],
      "payable": false,
      "stateMutability": "view",
      "type": "function"
    },
    {
      "anonymous": false,
      "inputs": [
        {
          "indexed": false,
          "name": "_T",
          "type": "uint256"
        },
        {
          "indexed": false,
          "name": "_active",
          "type": "uint256"
        },
        {
          "indexed": false,
          "name": "_claim",
          "type": "uint256"
        }
      ],
      "name": "PeriodInit",
      "type": "event"
    },
    {
      "anonymous": false,
      "inputs": [
        {
          "indexed": true,
          "name": "_recipient",
          "type": "address"
        },
        {
          "indexed": false,
          "name": "_amount",
          "type": "uint256"
        },
        {
          "indexed": false,
          "name": "_epoch",
          "type": "uint256"
        }
      ],
      "name": "VotesBought",
      "type": "event"
    },
    {
      "anonymous": false,
      "inputs": [
        {
          "indexed": true,
          "name": "_recipient",
          "type": "address"
        },
        {
          "indexed": false,
          "name": "_amount",
          "type": "uint256"
        },
        {
          "indexed": false,
          "name": "_epoch",
          "type": "uint256"
        }
      ],
      "name": "CompensationReleased",
      "type": "event"
    },
    {
      "anonymous": false,
      "inputs": [
        {
          "indexed": false,
          "name": "_amount",
          "type": "uint256"
        }
      ],
      "name": "MinimumStakeSet",
      "type": "event"
    },
    {
      "anonymous": false,
      "inputs": [
        {
          "indexed": true,
          "name": "_voterAddress",
          "type": "address"
        },
        {
          "indexed": true,
          "name": "_candidateAddress",
          "type": "address"
        },
        {
          "indexed": false,
          "name": "_amount",
          "type": "uint256"
        },
        {
          "indexed": false,
          "name": "_epoch",
          "type": "uint256"
        }
      ],
      "name": "Vote",
      "type": "event"
    },
    {
      "anonymous": false,
      "inputs": [
        {
          "indexed": false,
          "name": "_a",
          "type": "address"
        }
      ],
      "name": "PeriodicStagesCreated",
      "type": "event"
    },
    {
      "anonymous": false,
      "inputs": [
        {
          "indexed": true,
          "name": "previousOwner",
          "type": "address"
        },
        {
          "indexed": true,
          "name": "newOwner",
          "type": "address"
        }
      ],
      "name": "OwnershipTransferred",
      "type": "event"
    },
    {
      "constant": false,
      "inputs": [
        {
          "name": "_T",
          "type": "uint256"
        }
      ],
      "name": "initPeriod",
      "outputs": [],
      "payable": false,
      "stateMutability": "nonpayable",
      "type": "function"
    },
    {
      "constant": false,
      "inputs": [
        {
          "name": "_activeTime",
          "type": "uint256"
        },
        {
          "name": "_claimTime",
          "type": "uint256"
        }
      ],
      "name": "initStages",
      "outputs": [],
      "payable": false,
      "stateMutability": "nonpayable",
      "type": "function"
    },
    {
      "constant": false,
      "inputs": [
        {
          "name": "_amount",
          "type": "uint256"
        }
      ],
      "name": "buyTokenVotes",
      "outputs": [],
      "payable": false,
      "stateMutability": "nonpayable",
      "type": "function"
    },
    {
      "constant": false,
      "inputs": [
        {
          "name": "_candidateAddress",
          "type": "address"
        },
        {
          "name": "_amount",
          "type": "uint256"
        }
      ],
      "name": "vote",
      "outputs": [],
      "payable": false,
      "stateMutability": "nonpayable",
      "type": "function"
    },
    {
      "constant": false,
      "inputs": [
        {
          "name": "_e",
          "type": "uint8"
        }
      ],
      "name": "claimCompensation",
      "outputs": [],
      "payable": false,
      "stateMutability": "nonpayable",
      "type": "function"
    },
    {
      "constant": false,
      "inputs": [
        {
          "name": "_minimumStakeAmount",
          "type": "uint256"
        }
      ],
      "name": "setMinimumStake",
      "outputs": [],
      "payable": false,
      "stateMutability": "nonpayable",
      "type": "function"
    },
    {
      "constant": false,
      "inputs": [
        {
          "name": "_maximumStakeAmount",
          "type": "uint256"
        }
      ],
      "name": "setMaximumStake",
      "outputs": [],
      "payable": false,
      "stateMutability": "nonpayable",
      "type": "function"
    },
    {
      "constant": false,
      "inputs": [
        {
          "name": "_minVoteAmount",
          "type": "uint256"
        }
      ],
      "name": "setMinVotingLimit",
      "outputs": [],
      "payable": false,
      "stateMutability": "nonpayable",
      "type": "function"
    },
    {
      "constant": false,
      "inputs": [
        {
          "name": "_maxVoteAmount",
          "type": "uint256"
        }
      ],
      "name": "setMaxVotingLimit",
      "outputs": [],
      "payable": false,
      "stateMutability": "nonpayable",
      "type": "function"
    },
    {
      "constant": false,
      "inputs": [
        {
          "name": "_windowSize",
          "type": "uint256"
        }
      ],
      "name": "setWindowSize",
      "outputs": [
        {
          "name": "",
          "type": "uint256"
        }
      ],
      "payable": false,
      "stateMutability": "nonpayable",
      "type": "function"
    },
    {
      "constant": false,
      "inputs": [
        {
          "name": "_weights",
          "type": "uint256[]"
        }
      ],
      "name": "setReputationLinWeights",
      "outputs": [
        {
          "name": "",
          "type": "uint256[]"
        }
      ],
      "payable": false,
      "stateMutability": "nonpayable",
      "type": "function"
    },
    {
      "constant": true,
      "inputs": [
        {
          "name": "_epoch",
          "type": "uint256"
        },
        {
          "name": "_account",
          "type": "address"
        }
      ],
      "name": "scoring",
      "outputs": [
        {
          "name": "",
          "type": "uint256"
        }
      ],
      "payable": false,
      "stateMutability": "view",
      "type": "function"
    },
    {
      "constant": true,
      "inputs": [
        {
          "name": "_epoch",
          "type": "uint256"
        },
        {
          "name": "_account",
          "type": "address"
        }
      ],
      "name": "reputation",
      "outputs": [
        {
          "name": "",
          "type": "uint256"
        }
      ],
      "payable": false,
      "stateMutability": "view",
      "type": "function"
    },
    {
      "constant": true,
      "inputs": [
        {
          "name": "_weights",
          "type": "uint256[]"
        },
        {
          "name": "_pastScores",
          "type": "uint256[]"
        },
        {
          "name": "_windowSize",
          "type": "uint256"
        }
      ],
      "name": "weightedScore",
      "outputs": [
        {
          "name": "",
          "type": "uint256"
        }
      ],
      "payable": false,
      "stateMutability": "pure",
      "type": "function"
    },
    {
      "constant": true,
      "inputs": [],
      "name": "currentPeriod",
      "outputs": [
        {
          "name": "",
          "type": "uint256"
        }
      ],
      "payable": false,
      "stateMutability": "view",
      "type": "function"
    },
    {
      "constant": true,
      "inputs": [],
      "name": "currentStage",
      "outputs": [
        {
          "name": "",
          "type": "uint256"
        }
      ],
      "payable": false,
      "stateMutability": "view",
      "type": "function"
    },
    {
      "constant": true,
      "inputs": [
        {
          "name": "_poolAmount",
          "type": "uint256"
        },
        {
          "name": "_claimerVotes",
          "type": "uint256"
        },
        {
          "name": "_totalVotes",
          "type": "uint256"
        }
      ],
      "name": "calculateReward",
      "outputs": [
        {
          "name": "",
          "type": "uint256"
        }
      ],
      "payable": false,
      "stateMutability": "pure",
      "type": "function"
    }
  ],
  "bytecode": "0x60806040526040805190810160405280600060ff16815260200160fd60ff16815250600990600262000033929190620000e6565b506040805190810160405280600060ff16815260200160fd60ff16815250600b90600262000063929190620000e6565b506000600d556001600e60006101000a81548160ff0219169083151502179055506000600e60016101000a81548160ff02191690831515021790555033601060006101000a81548173ffffffffffffffffffffffffffffffffffffffff021916908373ffffffffffffffffffffffffffffffffffffffff16021790555062000158565b82600281019282156200011d579160200282015b828111156200011c578251829060ff16905591602001919060010190620000fa565b5b5090506200012c919062000130565b5090565b6200015591905b808211156200015157600081600090555060010162000137565b5090565b90565b613a3480620001686000396000f300608060405260043610620001db576000357c0100000000000000000000000000000000000000000000000000000000900463ffffffff1680630215949714620001e05780630604061814620002245780630ad303421462000252578063144fa6d7146200029857806319de047714620002de578063233e9903146200033857806333dd6bed14620003685780633c84107f14620003cc5780635521b96f146200041057806356f7459314620004565780635706d0ec14620004865780635bf5d54c14620004ea5780635e1ce58a14620005185780635f74bbde146200054857806362a2a36e146200059857806373300f8f14620005fc57806381c8a8c414620006405780638b5a774d146200069a5780638da5cb5b14620007645780639a1289ec14620007be578063a8e62b9714620007ee578063aaabc3151462000846578063b2a56551146200088a578063bb33bb0e14620008ce578063bcb5c6361462000908578063be60040e1462000938578063bfabe5571462000992578063c254666514620009c2578063dac93e1b1462000a08578063e43c80961462000a4c578063e606b1d31462000a7a578063ea9860a21462000aad578063eac23e121462000b6d578063f2fde38b1462000bd1578063fc0c546a1462000c17575b600080fd5b348015620001ed57600080fd5b506200020e6004803603810190808035906020019092919050505062000c71565b6040518082815260200191505060405180910390f35b3480156200023157600080fd5b506200023c62000c89565b6040518082815260200191505060405180910390f35b3480156200025f57600080fd5b5062000296600480360381019080803573ffffffffffffffffffffffffffffffffffffffff16906020019092919050505062000e00565b005b348015620002a557600080fd5b50620002dc600480360381019080803573ffffffffffffffffffffffffffffffffffffffff16906020019092919050505062000e44565b005b348015620002eb57600080fd5b50620002f662000e88565b604051808273ffffffffffffffffffffffffffffffffffffffff1673ffffffffffffffffffffffffffffffffffffffff16815260200191505060405180910390f35b3480156200034557600080fd5b50620003666004803603810190808035906020019092919050505062000eae565b005b3480156200037557600080fd5b50620003b660048036038101908080359060200190929190803573ffffffffffffffffffffffffffffffffffffffff16906020019092919050505062000f25565b6040518082815260200191505060405180910390f35b348015620003d957600080fd5b50620003fa6004803603810190808035906020019092919050505062000f4a565b6040518082815260200191505060405180910390f35b3480156200041d57600080fd5b5062000454600480360381019080803573ffffffffffffffffffffffffffffffffffffffff16906020019092919050505062000f65565b005b3480156200046357600080fd5b50620004846004803603810190808035906020019092919050505062000fa9565b005b3480156200049357600080fd5b50620004d460048036038101908080359060200190929190803573ffffffffffffffffffffffffffffffffffffffff16906020019092919050505062001020565b6040518082815260200191505060405180910390f35b348015620004f757600080fd5b506200050262001045565b6040518082815260200191505060405180910390f35b3480156200052557600080fd5b50620005466004803603810190808035906020019092919050505062001110565b005b3480156200055557600080fd5b5062000596600480360381019080803573ffffffffffffffffffffffffffffffffffffffff1690602001909291908035906020019092919050505062001401565b005b348015620005a557600080fd5b50620005e660048036038101908080359060200190929190803573ffffffffffffffffffffffffffffffffffffffff16906020019092919050505062001646565b6040518082815260200191505060405180910390f35b3480156200060957600080fd5b506200062a6004803603810190808035906020019092919050505062001801565b6040518082815260200191505060405180910390f35b3480156200064d57600080fd5b506200065862001819565b604051808273ffffffffffffffffffffffffffffffffffffffff1673ffffffffffffffffffffffffffffffffffffffff16815260200191505060405180910390f35b348015620006a757600080fd5b506200074e6004803603810190808035906020019082018035906020019080806020026020016040519081016040528093929190818152602001838360200280828437820191505050505050919291929080359060200190820180359060200190808060200260200160405190810160405280939291908181526020018383602002808284378201915050505050509192919290803590602001909291905050506200183f565b6040518082815260200191505060405180910390f35b3480156200077157600080fd5b506200077c62001921565b604051808273ffffffffffffffffffffffffffffffffffffffff1673ffffffffffffffffffffffffffffffffffffffff16815260200191505060405180910390f35b348015620007cb57600080fd5b50620007ec6004803603810190808035906020019092919050505062001947565b005b348015620007fb57600080fd5b5062000830600480360381019080803590602001909291908035906020019092919080359060200190929190505050620019be565b6040518082815260200191505060405180910390f35b3480156200085357600080fd5b50620008746004803603810190808035906020019092919050505062001a09565b6040518082815260200191505060405180910390f35b3480156200089757600080fd5b50620008b86004803603810190808035906020019092919050505062001ab5565b6040518082815260200191505060405180910390f35b348015620008db57600080fd5b5062000906600480360381019080803590602001909291908035906020019092919050505062001ad9565b005b3480156200091557600080fd5b50620009366004803603810190808035906020019092919050505062001def565b005b3480156200094557600080fd5b506200095062001e66565b604051808273ffffffffffffffffffffffffffffffffffffffff1673ffffffffffffffffffffffffffffffffffffffff16815260200191505060405180910390f35b3480156200099f57600080fd5b50620009c06004803603810190808035906020019092919050505062001e8c565b005b348015620009cf57600080fd5b5062000a06600480360381019080803573ffffffffffffffffffffffffffffffffffffffff16906020019092919050505062001f87565b005b34801562000a1557600080fd5b5062000a366004803603810190808035906020019092919050505062001fcb565b6040518082815260200191505060405180910390f35b34801562000a5957600080fd5b5062000a6462001fe6565b6040518082815260200191505060405180910390f35b34801562000a8757600080fd5b5062000aab600480360381019080803560ff16906020019092919050505062001fec565b005b34801562000aba57600080fd5b5062000b14600480360381019080803590602001908201803590602001908080602002602001604051908101604052809392919081815260200183836020028082843782019150505050505091929192905050506200247e565b6040518080602001828103825283818151815260200191508051906020019060200280838360005b8381101562000b5957808201518184015260208101905062000b3c565b505050509050019250505060405180910390f35b34801562000b7a57600080fd5b5062000bbb60048036038101908080359060200190929190803573ffffffffffffffffffffffffffffffffffffffff169060200190929190505050620025ed565b6040518082815260200191505060405180910390f35b34801562000bde57600080fd5b5062000c15600480360381019080803573ffffffffffffffffffffffffffffffffffffffff16906020019092919050505062002647565b005b34801562000c2457600080fd5b5062000c2f620027a1565b604051808273ffffffffffffffffffffffffffffffffffffffff1673ffffffffffffffffffffffffffffffffffffffff16815260200191505060405180910390f35b60036020528060005260406000206000915090505481565b6000806000600860009054906101000a900473ffffffffffffffffffffffffffffffffffffffff1673ffffffffffffffffffffffffffffffffffffffff1663ef78d4fd6040518163ffffffff167c0100000000000000000000000000000000000000000000000000000000028152600401602060405180830381600087803b15801562000d1557600080fd5b505af115801562000d2a573d6000803e3d6000fd5b505050506040513d602081101562000d4157600080fd5b810190808051906020019092919050505091508190508073ffffffffffffffffffffffffffffffffffffffff16637fc15a2e6040518163ffffffff167c0100000000000000000000000000000000000000000000000000000000028152600401602060405180830381600087803b15801562000dbc57600080fd5b505af115801562000dd1573d6000803e3d6000fd5b505050506040513d602081101562000de857600080fd5b81019080805190602001909291905050509250505090565b80600660006101000a81548173ffffffffffffffffffffffffffffffffffffffff021916908373ffffffffffffffffffffffffffffffffffffffff16021790555050565b80600760006101000a81548173ffffffffffffffffffffffffffffffffffffffff021916908373ffffffffffffffffffffffffffffffffffffffff16021790555050565b600560009054906101000a900473ffffffffffffffffffffffffffffffffffffffff1681565b601060009054906101000a900473ffffffffffffffffffffffffffffffffffffffff1673ffffffffffffffffffffffffffffffffffffffff163373ffffffffffffffffffffffffffffffffffffffff1614151562000f0b57600080fd5b806009600060028110151562000f1d57fe5b018190555050565b6000602052816000526040600020602052806000526040600020600091509150505481565b600b8160028110151562000f5a57fe5b016000915090505481565b80600860006101000a81548173ffffffffffffffffffffffffffffffffffffffff021916908373ffffffffffffffffffffffffffffffffffffffff16021790555050565b601060009054906101000a900473ffffffffffffffffffffffffffffffffffffffff1673ffffffffffffffffffffffffffffffffffffffff163373ffffffffffffffffffffffffffffffffffffffff161415156200100657600080fd5b80600b60006002811015156200101857fe5b018190555050565b6001602052816000526040600020602052806000526040600020600091509150505481565b6000600860009054906101000a900473ffffffffffffffffffffffffffffffffffffffff1673ffffffffffffffffffffffffffffffffffffffff16635bf5d54c6040518163ffffffff167c0100000000000000000000000000000000000000000000000000000000028152600401602060405180830381600087803b158015620010ce57600080fd5b505af1158015620010e3573d6000803e3d6000fd5b505050506040513d6020811015620010fa57600080fd5b8101908080519060200190929190505050905090565b60006200111c62001045565b1415156200112957600080fd5b620011353382620027c7565b15156200114157600080fd5b600760009054906101000a900473ffffffffffffffffffffffffffffffffffffffff1673ffffffffffffffffffffffffffffffffffffffff166323b872dd3330846040518463ffffffff167c0100000000000000000000000000000000000000000000000000000000028152600401808473ffffffffffffffffffffffffffffffffffffffff1673ffffffffffffffffffffffffffffffffffffffff1681526020018373ffffffffffffffffffffffffffffffffffffffff1673ffffffffffffffffffffffffffffffffffffffff1681526020018281526020019350505050602060405180830381600087803b1580156200123b57600080fd5b505af115801562001250573d6000803e3d6000fd5b505050506040513d60208110156200126757600080fd5b810190808051906020019092919050505015156200128457600080fd5b620012f281600160006200129762000c89565b815260200190815260200160002060003373ffffffffffffffffffffffffffffffffffffffff1673ffffffffffffffffffffffffffffffffffffffff168152602001908152602001600020546200283790919063ffffffff16565b600160006200130062000c89565b815260200190815260200160002060003373ffffffffffffffffffffffffffffffffffffffff1673ffffffffffffffffffffffffffffffffffffffff168152602001908152602001600020819055506200138081600360006200136262000c89565b8152602001908152602001600020546200283790919063ffffffff16565b600360006200138e62000c89565b8152602001908152602001600020819055503373ffffffffffffffffffffffffffffffffffffffff167efaaf3336e5c925e4d3017cc75d38ca026330a20faef146fd24501f98d16cb782620013e262000c89565b604051808381526020018281526020019250505060405180910390a250565b60006200140d62001045565b1415156200141a57600080fd5b6200142733838362002854565b15156200143357600080fd5b80600160006200144262000c89565b815260200190815260200160002060003373ffffffffffffffffffffffffffffffffffffffff1673ffffffffffffffffffffffffffffffffffffffff16815260200190815260200160002054101515156200149c57600080fd5b6200150981600080620014ae62000c89565b815260200190815260200160002060008573ffffffffffffffffffffffffffffffffffffffff1673ffffffffffffffffffffffffffffffffffffffff168152602001908152602001600020546200283790919063ffffffff16565b6000806200151662000c89565b815260200190815260200160002060008473ffffffffffffffffffffffffffffffffffffffff1673ffffffffffffffffffffffffffffffffffffffff1681526020019081526020016000208190555080600160006200157462000c89565b815260200190815260200160002060003373ffffffffffffffffffffffffffffffffffffffff1673ffffffffffffffffffffffffffffffffffffffff168152602001908152602001600020600082825403925050819055508173ffffffffffffffffffffffffffffffffffffffff163373ffffffffffffffffffffffffffffffffffffffff167f6a92c4ce4cbb892528ab39f7d674be0f6b1579b54ed8e77d95ad506819fd72c8836200162662000c89565b604051808381526020018281526020019250505060405180910390a35050565b60008060606000600e60019054906101000a900460ff1615156200166957600080fd5b600e60009054906101000a900460ff1615156200168557600080fd5b600d54604051908082528060200260200182016040528015620016b75781602001602082028038833980820191505090505b509150600d54600f80549050141515620016d057600080fd5b600d548251141515620016e257600080fd5b600090505b60058110156200179557808610156200171a57600082828151811015156200170b57fe5b90602001906020020181815250505b60008082815260200190815260200160002060008673ffffffffffffffffffffffffffffffffffffffff1673ffffffffffffffffffffffffffffffffffffffff1681526020019081526020016000205482828151811015156200177957fe5b90602001906020020181815250508080600101915050620016e7565b620017f6600f805480602002602001604051908101604052809291908181526020018280548015620017e757602002820191906000526020600020905b815481526020019060010190808311620017d2575b505050505083600d546200183f565b935050505092915050565b60046020528060005260406000206000915090505481565b600860009054906101000a900473ffffffffffffffffffffffffffffffffffffffff1681565b6000806000806000806000878a511415156200185a57600080fd5b6000955060009450600093506000925088519150600090505b89518110156200191157620f424081600184620f42400103031015620018995762001903565b88816001840303815181101515620018ad57fe5b9060200190602002015193508981815181101515620018c857fe5b906020019060200201519450620018e9858562002a7290919063ffffffff16565b92506200190083876200283790919063ffffffff16565b95505b808060010191505062001873565b8596505050505050509392505050565b601060009054906101000a900473ffffffffffffffffffffffffffffffffffffffff1681565b601060009054906101000a900473ffffffffffffffffffffffffffffffffffffffff1673ffffffffffffffffffffffffffffffffffffffff163373ffffffffffffffffffffffffffffffffffffffff16141515620019a457600080fd5b80600b6001600281101515620019b657fe5b018190555050565b60008060008060008514151515620019d557600080fd5b6064860292508483811515620019e757fe5b0491506064828802811515620019f957fe5b0490508093505050509392505050565b6000601060009054906101000a900473ffffffffffffffffffffffffffffffffffffffff1673ffffffffffffffffffffffffffffffffffffffff163373ffffffffffffffffffffffffffffffffffffffff1614151562001a6857600080fd5b6000821415151562001a7957600080fd5b60648210151562001a8957600080fd5b81600d819055506001600e60006101000a81548160ff021916908315150217905550600d549050919050565b600f8181548110151562001ac557fe5b906000526020600020016000915090505481565b6000806000600860009054906101000a900473ffffffffffffffffffffffffffffffffffffffff1673ffffffffffffffffffffffffffffffffffffffff1663842652a6866040518263ffffffff167c010000000000000000000000000000000000000000000000000000000002815260040180828152602001915050600060405180830381600087803b15801562001b7057600080fd5b505af115801562001b85573d6000803e3d6000fd5b50505050600860009054906101000a900473ffffffffffffffffffffffffffffffffffffffff1673ffffffffffffffffffffffffffffffffffffffff1663842652a6856040518263ffffffff167c010000000000000000000000000000000000000000000000000000000002815260040180828152602001915050600060405180830381600087803b15801562001c1b57600080fd5b505af115801562001c30573d6000803e3d6000fd5b50505050600860009054906101000a900473ffffffffffffffffffffffffffffffffffffffff1673ffffffffffffffffffffffffffffffffffffffff1663ef78d4fd6040518163ffffffff167c0100000000000000000000000000000000000000000000000000000000028152600401602060405180830381600087803b15801562001cbb57600080fd5b505af115801562001cd0573d6000803e3d6000fd5b505050506040513d602081101562001ce757600080fd5b810190808051906020019092919050505092508291508173ffffffffffffffffffffffffffffffffffffffff16632bc80f3a6040518163ffffffff167c0100000000000000000000000000000000000000000000000000000000028152600401602060405180830381600087803b15801562001d6257600080fd5b505af115801562001d77573d6000803e3d6000fd5b505050506040513d602081101562001d8e57600080fd5b810190808051906020019092919050505090507ff369b06e840a30eacc9a6075343f62ef138689a44c1c3ef52cb24e6c692c980481868660405180848152602001838152602001828152602001935050505060405180910390a15050505050565b601060009054906101000a900473ffffffffffffffffffffffffffffffffffffffff1673ffffffffffffffffffffffffffffffffffffffff163373ffffffffffffffffffffffffffffffffffffffff1614151562001e4c57600080fd5b806009600160028110151562001e5e57fe5b018190555050565b600660009054906101000a900473ffffffffffffffffffffffffffffffffffffffff1681565b8062001e9762002b2a565b80828152602001915050604051809103906000f08015801562001ebe573d6000803e3d6000fd5b50600860006101000a81548173ffffffffffffffffffffffffffffffffffffffff021916908373ffffffffffffffffffffffffffffffffffffffff1602179055507f42658b2a498dce91d3db246e4ed4447a1bc5fa5a1da50e28259aa03688a3bc11600860009054906101000a900473ffffffffffffffffffffffffffffffffffffffff16604051808273ffffffffffffffffffffffffffffffffffffffff1673ffffffffffffffffffffffffffffffffffffffff16815260200191505060405180910390a150565b80600560006101000a81548173ffffffffffffffffffffffffffffffffffffffff021916908373ffffffffffffffffffffffffffffffffffffffff16021790555050565b60098160028110151562001fdb57fe5b016000915090505481565b600d5481565b600060011515600560009054906101000a900473ffffffffffffffffffffffffffffffffffffffff1673ffffffffffffffffffffffffffffffffffffffff16633af32abf336040518263ffffffff167c0100000000000000000000000000000000000000000000000000000000028152600401808273ffffffffffffffffffffffffffffffffffffffff1673ffffffffffffffffffffffffffffffffffffffff168152602001915050602060405180830381600087803b158015620020b057600080fd5b505af1158015620020c5573d6000803e3d6000fd5b505050506040513d6020811015620020dc57600080fd5b81019080805190602001909291905050501515141515620020fc57600080fd5b6000600460006200210c62000c89565b8152602001908152602001600020541115156200212857600080fd5b620022a3600760009054906101000a900473ffffffffffffffffffffffffffffffffffffffff1673ffffffffffffffffffffffffffffffffffffffff166370a08231306040518263ffffffff167c0100000000000000000000000000000000000000000000000000000000028152600401808273ffffffffffffffffffffffffffffffffffffffff1673ffffffffffffffffffffffffffffffffffffffff168152602001915050602060405180830381600087803b158015620021ea57600080fd5b505af1158015620021ff573d6000803e3d6000fd5b505050506040513d60208110156200221657600080fd5b81019080805190602001909291905050506000806200223462000c89565b815260200190815260200160002060003373ffffffffffffffffffffffffffffffffffffffff1673ffffffffffffffffffffffffffffffffffffffff16815260200190815260200160002054600460006200228e62000c89565b815260200190815260200160002054620019be565b9050600760009054906101000a900473ffffffffffffffffffffffffffffffffffffffff1673ffffffffffffffffffffffffffffffffffffffff1663a9059cbb33836040518363ffffffff167c0100000000000000000000000000000000000000000000000000000000028152600401808373ffffffffffffffffffffffffffffffffffffffff1673ffffffffffffffffffffffffffffffffffffffff16815260200182815260200192505050602060405180830381600087803b1580156200236b57600080fd5b505af115801562002380573d6000803e3d6000fd5b505050506040513d60208110156200239757600080fd5b810190808051906020019092919050505050600160026000620023b962000c89565b815260200190815260200160002060003373ffffffffffffffffffffffffffffffffffffffff1673ffffffffffffffffffffffffffffffffffffffff16815260200190815260200160002060006101000a81548160ff0219169083151502179055503373ffffffffffffffffffffffffffffffffffffffff167f0d5b29a954b516839d2624bea4ddbb963934fda7303e3307c59a70a53d95b8d8826200245e62000c89565b604051808381526020018281526020019250505060405180910390a25050565b60606000601060009054906101000a900473ffffffffffffffffffffffffffffffffffffffff1673ffffffffffffffffffffffffffffffffffffffff163373ffffffffffffffffffffffffffffffffffffffff16141515620024df57600080fd5b600d548351141515620024f157600080fd5b600090505b600d54816fffffffffffffffffffffffffffffffff1610156200257757600f83826fffffffffffffffffffffffffffffffff168151811015156200253657fe5b9060200190602002015190806001815401808255809150509060018203906000526020600020016000909192909190915055508080600101915050620024f6565b6001600e60016101000a81548160ff021916908315150217905550600f805480602002602001604051908101604052809291908181526020018280548015620025e057602002820191906000526020600020905b815481526020019060010190808311620025cb575b5050505050915050919050565b600080600084815260200190815260200160002060008373ffffffffffffffffffffffffffffffffffffffff1673ffffffffffffffffffffffffffffffffffffffff16815260200190815260200160002054905092915050565b601060009054906101000a900473ffffffffffffffffffffffffffffffffffffffff1673ffffffffffffffffffffffffffffffffffffffff163373ffffffffffffffffffffffffffffffffffffffff16141515620026a457600080fd5b600073ffffffffffffffffffffffffffffffffffffffff168173ffffffffffffffffffffffffffffffffffffffff1614151515620026e157600080fd5b8073ffffffffffffffffffffffffffffffffffffffff16601060009054906101000a900473ffffffffffffffffffffffffffffffffffffffff1673ffffffffffffffffffffffffffffffffffffffff167f8be0079c531659141344cd1fd0a4f28419497f9722a3daafe3b4186f6b6457e060405160405180910390a380601060006101000a81548173ffffffffffffffffffffffffffffffffffffffff021916908373ffffffffffffffffffffffffffffffffffffffff16021790555050565b600760009054906101000a900473ffffffffffffffffffffffffffffffffffffffff1681565b60006200282f60016000620027db62000c89565b815260200190815260200160002060008573ffffffffffffffffffffffffffffffffffffffff1673ffffffffffffffffffffffffffffffffffffffff16815260200190815260200160002054830162002aae565b905092915050565b600081830190508281101515156200284b57fe5b80905092915050565b6000600660009054906101000a900473ffffffffffffffffffffffffffffffffffffffff1673ffffffffffffffffffffffffffffffffffffffff16633af32abf856040518263ffffffff167c0100000000000000000000000000000000000000000000000000000000028152600401808273ffffffffffffffffffffffffffffffffffffffff1673ffffffffffffffffffffffffffffffffffffffff168152602001915050602060405180830381600087803b1580156200291457600080fd5b505af115801562002929573d6000803e3d6000fd5b505050506040513d60208110156200294057600080fd5b8101908080519060200190929190505050801562002a555750600560009054906101000a900473ffffffffffffffffffffffffffffffffffffffff1673ffffffffffffffffffffffffffffffffffffffff16633af32abf846040518263ffffffff167c0100000000000000000000000000000000000000000000000000000000028152600401808273ffffffffffffffffffffffffffffffffffffffff1673ffffffffffffffffffffffffffffffffffffffff168152602001915050602060405180830381600087803b15801562002a1757600080fd5b505af115801562002a2c573d6000803e3d6000fd5b505050506040513d602081101562002a4357600080fd5b81019080805190602001909291905050505b801562002a69575062002a688262002aec565b5b90509392505050565b60008083141562002a87576000905062002aa8565b818302905081838281151562002a9957fe5b0414151562002aa457fe5b8090505b92915050565b60006009600060028110151562002ac157fe5b0154821015801562002ae557506009600160028110151562002adf57fe5b01548211155b9050919050565b6000600b600060028110151562002aff57fe5b0154821015801562002b235750600b600160028110151562002b1d57fe5b01548211155b9050919050565b604051610ecd8062002b3c833901905600608060405234801561001057600080fd5b50604051602080610ecd833981018060405281019080805190602001909291905050508061003c610118565b80828152602001915050604051809103906000f080158015610062573d6000803e3d6000fd5b50600160006101000a81548173ffffffffffffffffffffffffffffffffffffffff021916908373ffffffffffffffffffffffffffffffffffffffff160217905550806100ac610128565b80828152602001915050604051809103906000f0801580156100d2573d6000803e3d6000fd5b506000806101000a81548173ffffffffffffffffffffffffffffffffffffffff021916908373ffffffffffffffffffffffffffffffffffffffff16021790555050610138565b6040516105bd8061067683390190565b60405161029a80610c3383390190565b61052f806101476000396000f300608060405260043610610062576000357c0100000000000000000000000000000000000000000000000000000000900463ffffffff1680635bf5d54c146100675780637d80c95a14610092578063842652a6146100e9578063ef78d4fd14610116575b600080fd5b34801561007357600080fd5b5061007c61016d565b6040518082815260200191505060405180910390f35b34801561009e57600080fd5b506100a761040c565b604051808273ffffffffffffffffffffffffffffffffffffffff1673ffffffffffffffffffffffffffffffffffffffff16815260200191505060405180910390f35b3480156100f557600080fd5b5061011460048036038101908080359060200190929190505050610432565b005b34801561012257600080fd5b5061012b6104de565b604051808273ffffffffffffffffffffffffffffffffffffffff1673ffffffffffffffffffffffffffffffffffffffff16815260200191505060405180910390f35b6000806000806000809054906101000a900473ffffffffffffffffffffffffffffffffffffffff1673ffffffffffffffffffffffffffffffffffffffff1663dd6239fc6040518163ffffffff167c0100000000000000000000000000000000000000000000000000000000028152600401602060405180830381600087803b1580156101f857600080fd5b505af115801561020c573d6000803e3d6000fd5b505050506040513d602081101561022257600080fd5b81019080805190602001909291905050509250600160009054906101000a900473ffffffffffffffffffffffffffffffffffffffff1673ffffffffffffffffffffffffffffffffffffffff16630ef267436040518163ffffffff167c0100000000000000000000000000000000000000000000000000000000028152600401602060405180830381600087803b1580156102bb57600080fd5b505af11580156102cf573d6000803e3d6000fd5b505050506040513d60208110156102e557600080fd5b81019080805190602001909291905050509150600082141561030a5760009350610406565b600090505b8181101561040557600160009054906101000a900473ffffffffffffffffffffffffffffffffffffffff1673ffffffffffffffffffffffffffffffffffffffff16636f54dce582856040518363ffffffff167c01000000000000000000000000000000000000000000000000000000000281526004018083815260200182815260200192505050602060405180830381600087803b1580156103b057600080fd5b505af11580156103c4573d6000803e3d6000fd5b505050506040513d60208110156103da57600080fd5b8101908080519060200190929190505050156103f857809350610406565b808060010191505061030f565b5b50505090565b600160009054906101000a900473ffffffffffffffffffffffffffffffffffffffff1681565b600160009054906101000a900473ffffffffffffffffffffffffffffffffffffffff1673ffffffffffffffffffffffffffffffffffffffff1663959ac484826040518263ffffffff167c010000000000000000000000000000000000000000000000000000000002815260040180828152602001915050600060405180830381600087803b1580156104c357600080fd5b505af11580156104d7573d6000803e3d6000fd5b5050505050565b6000809054906101000a900473ffffffffffffffffffffffffffffffffffffffff16815600a165627a7a72305820f2bc78b7822098a2189435d25ed96fbe2a69dc70c98bece5a916d11cab15974b0029608060405234801561001057600080fd5b506040516020806105bd8339810180604052810190808051906020019092919050505080600381905550506105738061004a6000396000f300608060405260043610610099576000357c0100000000000000000000000000000000000000000000000000000000900463ffffffff1680630ef267431461009e5780632f91f1f4146100c95780634a720f27146100f45780635439e423146101355780636f54dce514610160578063959ac484146101af578063a4ece52c146101dc578063b1becf2a146101f3578063f2a75fe414610234575b600080fd5b3480156100aa57600080fd5b506100b361024b565b6040518082815260200191505060405180910390f35b3480156100d557600080fd5b506100de610255565b6040518082815260200191505060405180910390f35b34801561010057600080fd5b5061011f6004803603810190808035906020019092919050505061025b565b6040518082815260200191505060405180910390f35b34801561014157600080fd5b5061014a61027e565b6040518082815260200191505060405180910390f35b34801561016c57600080fd5b506101956004803603810190808035906020019092919080359060200190929190505050610284565b604051808215151515815260200191505060405180910390f35b3480156101bb57600080fd5b506101da60048036038101908080359060200190929190505050610300565b005b3480156101e857600080fd5b506101f16103e3565b005b3480156101ff57600080fd5b5061021e600480360381019080803590602001909291905050506104f3565b6040518082815260200191505060405180910390f35b34801561024057600080fd5b5061024961050b565b005b6000600454905090565b60035481565b60008181548110151561026a57fe5b906000526020600020016000915090505481565b60025481565b6000808314156102b25760008381548110151561029d57fe5b906000526020600020015482111590506102fa565b6000600184038154811015156102c457fe5b906000526020600020015482101580156102f757506000838154811015156102e857fe5b90600052602060002001548211155b90505b92915050565b60035481600254011115151561037e576040517f08c379a00000000000000000000000000000000000000000000000000000000081526004018080602001828103825260128152602001807f424c4f434b5f4e554d5f4f564552464c4f57000000000000000000000000000081525060200191505060405180910390fd5b60008160025401908060018154018082558091505090600182039060005260206000200160009091929091909150555080600260008282540192505081905550600460008154809291906001019190505550600354600254111515156103e057fe5b50565b600080600080549050111515610461576040517f08c379a000000000000000000000000000000000000000000000000000000000815260040180806020018281038252600d8152602001807f454d5054592053544f524147450000000000000000000000000000000000000081525060200191505060405180910390fd5b600060016000805490500381548110151561047857fe5b90600052602060002001549050600060016000805490500381548110151561049c57fe5b90600052602060002001600090556000808054905014156104cc57600060048190555060006002819055506104f0565b60046000815480929190600190039190505550806002600082825403925050819055505b50565b60016020528060005260406000206000915090505481565b60008090505b60008054905081111515610534576105276103e3565b8080600101915050610511565b6000808054905014151561054457fe5b505600a165627a7a72305820bc935eb3467072bc2fe268e50839cd1eacc31a6907a63c3e8b0a53fcc9e61bf50029608060405234801561001057600080fd5b5060405160208061029a833981018060405281019080805190602001909291905050506000811115156100ab576040517f08c379a000000000000000000000000000000000000000000000000000000000815260040180806020018281038252600c8152602001807f454d5054595f504552494f44000000000000000000000000000000000000000081525060200191505060405180910390fd5b8060008190555043600181905550506101d1806100c96000396000f30060806040526004361061006d576000357c0100000000000000000000000000000000000000000000000000000000900463ffffffff1680632bc80f3a146100725780637f89b5ce1461009d5780637fc15a2e146100c8578063dd6239fc146100f3578063eb6ad24e1461011e575b600080fd5b34801561007e57600080fd5b50610087610149565b6040518082815260200191505060405180910390f35b3480156100a957600080fd5b506100b261014f565b6040518082815260200191505060405180910390f35b3480156100d457600080fd5b506100dd610155565b6040518082815260200191505060405180910390f35b3480156100ff57600080fd5b5061010861017e565b6040518082815260200191505060405180910390f35b34801561012a57600080fd5b5061013361018f565b6040518082815260200191505060405180910390f35b60005481565b60015481565b60008060015443031015151561016757fe5b600054600154430381151561017857fe5b04905090565b600061018861018f565b4303905090565b6000805461019b610155565b02600154019050905600a165627a7a72305820a0a114358d11151c2f5144479fd87806b0519eaea74de77545618e9017ea66ff0029a165627a7a723058209b1e5a90e4d8e570ea63aef0582b2a0cb2a03b70d653d1c59b6feec12628e86b0029",
  "source": "pragma solidity ^0.4.24;\n\nimport \"./TRLInterface.sol\";\nimport \"./TRLStorage.sol\";\nimport \"openzeppelin-solidity/contracts/math/SafeMath.sol\";\nimport \"openzeppelin-solidity/contracts/token/ERC20/StandardToken.sol\";\nimport \"@frontier-token-research/role-registries/contracts/Registry.sol\";\nimport \"@frontier-token-research/role-registries/contracts/OwnedRegistryFactory.sol\";\nimport \"@frontier-token-research/cron/contracts/Period.sol\";\nimport \"@frontier-token-research/cron/contracts/PeriodicStages.sol\";\n\n\n/**\n* A Token Ranked List (TRL) enables voting with staked tokens periodically, over a registry of candidates, and sets the compensation of the candidates based on previous interactions \n**/\n\ncontract TRL is TRLStorage, Ownable, TRLInterface {\n    using SafeMath for uint256;\n\n    /**\n    * @dev Initializes a new period, by creating a new instance of Periodic Stages contract (https://github.com/Frontier-project/cron) \n    * If not set, the TRL will not be periodic. When set, different states will be stored indexed by periods.\n    * @param _T Period that is about to be set\n    **/\n\n    function initPeriod(uint256 _T) public {\n        periodicStages = new PeriodicStages(_T);\n        emit PeriodicStagesCreated(periodicStages);\n    }\n\n    /**\n    * @dev Initializes a set of states inside a period, that will repeat periodically.\n    * Requires that (_activeTime + _claimTime) < _T\n    * By default, no stage will be defined, and the Smart Contract will stay on stage 0.\n    * @param _activeTime  Temporal epoch when the Smart Contract is set as \"Active\", most of the interactions inside the period will come here\n    * @param _claimTime  Temporal epoch where participants can claim their compensation based on the interactions mader on activeTime\n    * TODO: Generalize to a general number of periods.\n    **/\n\n    function initStages(uint256 _activeTime, uint256 _claimTime) public {  \n        periodicStages.pushStage(_activeTime);\n        periodicStages.pushStage(_claimTime);\n        address periodAddress = periodicStages.period();\n        Period period = Period(periodAddress);\n        uint256 T = period.T(); // Avoids Breaking changes on period Handlers, should be deprecated\n        emit PeriodInit(T, _activeTime, _claimTime);\n    }\n\n    /**\n    * @dev Exchanges the main token for an amount of votes\n    * Requires previous allowance of expenditure of at least the amount required\n    * Right now 1:1 exchange used\n    * @param _amount Amount of votes that the voter wants to buy\n    * TODO: Generalize to different ratios \n    **/\n\n    function buyTokenVotes(uint256 _amount) public {\n        require(currentStage() == 0);\n        require(canStake(msg.sender, _amount));\n        require(token.transferFrom(msg.sender, this, _amount));\n        votesBalance[currentPeriod()][msg.sender] = votesBalance[currentPeriod()][msg.sender].add(_amount);\n        poolAmount[currentPeriod()] = poolAmount[currentPeriod()].add(_amount);\n        emit VotesBought(msg.sender, _amount, currentPeriod());\n    }\n\n    /**\n    * @dev Adds a new vote for a candidate\n    * @param _candidateAddress address of the candidate selected\n    * @param _amount of votes used\n    **/\n\n    function vote(address _candidateAddress, uint256 _amount) public {\n        require(currentStage() == 0);\n        require(canVote(msg.sender, _candidateAddress, _amount));\n        require(votesBalance[currentPeriod()][msg.sender] >= _amount);\n        votesReceived[currentPeriod()][_candidateAddress] = votesReceived[currentPeriod()][_candidateAddress].add(_amount);\n        votesBalance[currentPeriod()][msg.sender] -= _amount;\n        emit Vote(msg.sender, _candidateAddress, _amount, currentPeriod());\n    }\n\n\n    /**\n    * @dev Claims the correspondant Bounty from the Pool on the current periodIndex. \n    **/\n\n    function claimCompensation(uint8 _e) public {\n        require(candidateRegistry.isWhitelisted(msg.sender) == true);\n        require(totalEpochVotes[currentPeriod()] > 0);\n        uint256 totalAmount = calculateReward(\n            token.balanceOf(this),\n            votesReceived[currentPeriod()][msg.sender],\n            totalEpochVotes[currentPeriod()]\n        );\n        token.transfer(msg.sender, totalAmount);\n        compensationClaimed[currentPeriod()][msg.sender] = true;\n        emit CompensationReleased(msg.sender, totalAmount, currentPeriod());\n    }\n\n\n    /*\n    * @dev Sets the minimum stake to participate in a period \n    * @param _minimumStakeAmount minimum stake to be added\n    **/\n\n    function setMinimumStake(uint256 _minimumStakeAmount) public {\n        require(msg.sender == owner);\n        stakingConstraints[0] = _minimumStakeAmount;\n    }\n\n\n    /*\n    * @dev Sets the minimum stake to participate in a period \n    * @param _minimumStakeAmount minimum stake to be added\n    **/\n\n    function setMaximumStake(uint256 _maximumStakeAmount) public {\n        require(msg.sender == owner);\n        stakingConstraints[1] = _maximumStakeAmount;\n    }\n\n    /*\n    * @dev Sets a voting limit to allocate to one candidate\n    * @param _minimumStakeAmount minimum stake to be added\n    **/\n\n    function setMinVotingLimit(uint256 _minVoteAmount) public {\n        require(msg.sender == owner);\n        votingConstraints[0] = _minVoteAmount; \n    }\n\n    /*\n    * @dev Sets a voting limit to allocate to one candidate\n    * @param _minimumStakeAmount minimum stake to be added\n    **/\n\n    function setMaxVotingLimit(uint256 _maxVoteAmount) public {\n        require(msg.sender == owner);\n        votingConstraints[1] = _maxVoteAmount; \n    }\n\n       /**\n    * @dev Sets the reputation calculation Window Size\n    * @param _windowSize Size of the window\n    **/\n\n    function setWindowSize(uint256 _windowSize) public returns (uint256){\n        require(msg.sender == owner);\n        require(_windowSize != 0);\n        require(_windowSize < 100);\n\n        reputationWindowSize = _windowSize;\n        reputationWindowSizeSet = true;\n        return reputationWindowSize;\n\n    }\n\n    /**\n    * @dev Sets the Linear Weights used to Calculate the reputation\n    * @param _weights uint256[]\n    **/\n\n    function setReputationLinWeights(uint256[] _weights) public returns (uint256[]){\n        require(msg.sender == owner);\n        require(_weights.length == reputationWindowSize);\n\n        for(uint128 i = 0; i<reputationWindowSize;i++){\n            repWeights.push(_weights[i]);\n        }\n\n        reputationWeightsSet=true;\n        return repWeights;\n    }\n\n\n    /**\n    * @dev Calculates the Scoring given an address in the current epoch\n    * @param _epoch Epoch where the query is made\n    * @param _account Account that is required to get the scoring\n    **/\n\n    function scoring(uint256 _epoch, address _account) public view returns (uint256) {\n        return votesReceived[_epoch][_account];\n    }\n\n    /**\n    * @dev Calculates the Reputation given an address in the current epoch\n    * @param _epoch Epoch where the query is made\n    * @param _account Account that is requirexd to get the reputation\n    **/\n\n    function reputation(uint256 _epoch, address _account) public view returns (uint256) {\n        require(reputationWeightsSet);\n        require(reputationWindowSizeSet);\n\n        uint256 epochCounter;\n        uint256[] memory votes = new uint256[](reputationWindowSize);\n\n        require(repWeights.length == reputationWindowSize); // if window size was changed\n        require(votes.length == reputationWindowSize);\n\n        for(uint i = 0; i< 5; i++){\n            if(_epoch<i){\n                votes[i] = 0;\n            }\n             votes[i]=  votesReceived[i][_account];\n        }\n\n        return weightedScore(repWeights,votes, reputationWindowSize);\n    }\n\n    \n    /**\n    * @dev Calculates historical score, in a given epoch\n    * @param _weights Array of weights to be used to calculate the score\n    * @param _pastScores Array of past scores for the current user\n    **/\n\n    function weightedScore(uint256[] _weights, uint256[] _pastScores, uint256 _windowSize) public pure returns(uint256){\n \n        require(_weights.length == _windowSize);\n\n        uint256 score = 0;\n        uint256 currWeight = 0;\n        uint256 currScore = 0;\n        uint256 currWeightedScore = 0;\n        uint256 lastPeriodIndex = _pastScores.length;\n\n        for(uint i =0; i< _weights.length;i++){\n            \n            if(1000000+lastPeriodIndex-1-i<1000000){\n                continue;\n            }\n            currScore = _pastScores[lastPeriodIndex-1-i];\n            currWeight = _weights[i];\n            currWeightedScore = currScore.mul(currWeight);\n            score = score.add(currWeightedScore);\n        }\n        return score;\n    }\n\n\n    /**\n    * @dev Returns the current period number, by calling the period Lib\n    **/\n\n    function currentPeriod() public view returns(uint256) { \n        address periodAddress = periodicStages.period();\n        Period period = Period(periodAddress);\n        return period.getPeriodNumber();\n    }\n    \n    /**\n    * @dev Returns the current stage number, by calling the PeriodicStages lib\n    **/\n\n    function currentStage() public view returns(uint256) {\n        return periodicStages.currentStage();\n    }\n         \n    /**\n    * @dev Returns true if the given _sender can vote for a given _receiver\n    * @param _sender Account of the voter that is checked\n    * @param _receiver Account of the candidate to be voted\n    * @return true if the user can vote and the receiver is a candidate\n    **/\n\n    function canVote(\n        address _sender, \n        address _receiver,\n        uint256 _amount) \n        internal view returns (bool) \n    { \n        return voterRegistry.isWhitelisted(_sender) &&\n        candidateRegistry.isWhitelisted(_receiver) && \n        voteInsideConstraints(_amount); \n    }\n\n    /**\n    * @dev Returns true if the given _sender stake an amount of tokens\n    * @param _sender Account of the voter that is checked\n    * @param _amount Amount that is attempted to stake\n    * @return true if the user can vote and the receiver is a candidate\n    **/\n\n    function canStake(\n        address _sender, \n        uint256 _amount) \n        internal view returns (bool) \n    {\n        return (stakeInsideConstraints(_amount + votesBalance[currentPeriod()][_sender]));\n\n    }\n\n    /**\n    * @dev Returns true if the given _amount is insidse the TRL constraints\n    * @param _amount Account of the voter that is checked\n    * @return true if the amount of votes is inside the constraints set\n    **/\n\n    function stakeInsideConstraints(\n        uint256 _amount) \n        internal view returns (bool) \n    { \n        return _amount >= stakingConstraints[0] &&\n        _amount <= stakingConstraints[1];\n    }\n\n    /**\n    * @dev Returns true if the given _amount is insidse the TRL constraints\n    * @param _amount Account of the voter that is checked\n    * @return true if the amount of votes is inside the constraints set\n    **/\n\n    function voteInsideConstraints(\n        uint256 _amount) \n        internal view returns (bool) \n    { \n        return _amount >= votingConstraints[0] &&\n        _amount <= votingConstraints[1];\n    }\n\n    /**\n    * @dev Function that determines the current reward for each sender\n    * @param _poolAmount Total amount that is going to be shared among participants\n    * @param _claimerVotes Amount of votes of the candidate that is going to claim for the reward\n    * @param _totalVotes Total Amount of votes on a certain period\n    */\n\n    function calculateReward(\n        uint256 _poolAmount,\n        uint256 _claimerVotes,\n        uint256 _totalVotes)\n        pure public returns (uint256)\n    {\n        require(_totalVotes != 0);\n        uint256 auxDecimalVotes = _claimerVotes * 100;\n        uint256 auxPercentageVotes = auxDecimalVotes / _totalVotes;\n        uint256 totalAmount = _poolAmount * auxPercentageVotes / 100;\n        return totalAmount;\n    }\n}\n",
  "sourcePath": "/Users/carlosbuendia/Documents/Projects/consensys/Frontier/TRL/contracts/TRL.sol",
  "compiler": {
    "name": "solc",
    "version": "0.4.24+commit.e67f0147.Emscripten.clang"
  },
  "schemaVersion": "2.0.0",
  "updatedAt": "2018-09-24T10:55:44.470Z"
}