{
  "contractName": "TRL",
  "abi": [
    {
      "constant": true,
      "inputs": [],
      "name": "candidateRegistry",
      "outputs": [
        {
          "name": "",
          "type": "address"
        }
      ],
      "payable": false,
      "stateMutability": "view",
      "type": "function"
    },
    {
      "constant": true,
      "inputs": [
        {
          "name": "",
          "type": "uint256"
        },
        {
          "name": "",
          "type": "address"
        }
      ],
      "name": "votesReceived",
      "outputs": [
        {
          "name": "",
          "type": "uint256"
        }
      ],
      "payable": false,
      "stateMutability": "view",
      "type": "function"
    },
    {
      "constant": true,
      "inputs": [
        {
          "name": "",
          "type": "uint256"
        },
        {
          "name": "",
          "type": "address"
        }
      ],
      "name": "votesBalance",
      "outputs": [
        {
          "name": "",
          "type": "uint256"
        }
      ],
      "payable": false,
      "stateMutability": "view",
      "type": "function"
    },
    {
      "constant": true,
      "inputs": [],
      "name": "periodicStages",
      "outputs": [
        {
          "name": "",
          "type": "address"
        }
      ],
      "payable": false,
      "stateMutability": "view",
      "type": "function"
    },
    {
      "constant": true,
      "inputs": [],
      "name": "voterRegistry",
      "outputs": [
        {
          "name": "",
          "type": "address"
        }
      ],
      "payable": false,
      "stateMutability": "view",
      "type": "function"
    },
    {
      "constant": true,
      "inputs": [],
      "name": "token",
      "outputs": [
        {
          "name": "",
          "type": "address"
        }
      ],
      "payable": false,
      "stateMutability": "view",
      "type": "function"
    },
    {
      "inputs": [
        {
          "name": "_tokenAddress",
          "type": "address"
        },
        {
          "name": "_candidateRegistryAddress",
          "type": "address"
        },
        {
          "name": "_voterRegistryAddress",
          "type": "address"
        },
        {
          "name": "_initialTTL",
          "type": "uint256"
        },
        {
          "name": "_initialActiveTime",
          "type": "uint256"
        },
        {
          "name": "_initialClaimTime",
          "type": "uint256"
        }
      ],
      "payable": false,
      "stateMutability": "nonpayable",
      "type": "constructor"
    },
    {
      "anonymous": false,
      "inputs": [
        {
          "indexed": false,
          "name": "_time",
          "type": "uint256"
        }
      ],
      "name": "ContractCreated",
      "type": "event"
    },
    {
      "anonymous": false,
      "inputs": [
        {
          "indexed": false,
          "name": "_T",
          "type": "uint256"
        },
        {
          "indexed": false,
          "name": "_active",
          "type": "uint256"
        },
        {
          "indexed": false,
          "name": "_claim",
          "type": "uint256"
        }
      ],
      "name": "PeriodInit",
      "type": "event"
    },
    {
      "anonymous": false,
      "inputs": [
        {
          "indexed": true,
          "name": "_recipient",
          "type": "address"
        },
        {
          "indexed": false,
          "name": "_amount",
          "type": "uint256"
        },
        {
          "indexed": false,
          "name": "_period",
          "type": "uint256"
        }
      ],
      "name": "VotesBought",
      "type": "event"
    },
    {
      "anonymous": false,
      "inputs": [
        {
          "indexed": true,
          "name": "_recipient",
          "type": "address"
        },
        {
          "indexed": false,
          "name": "_amount",
          "type": "uint256"
        },
        {
          "indexed": false,
          "name": "_period",
          "type": "uint256"
        }
      ],
      "name": "BountyRelased",
      "type": "event"
    },
    {
      "anonymous": false,
      "inputs": [
        {
          "indexed": true,
          "name": "_voterAddress",
          "type": "address"
        },
        {
          "indexed": true,
          "name": "_candidateAddress",
          "type": "address"
        },
        {
          "indexed": false,
          "name": "_amount",
          "type": "uint256"
        },
        {
          "indexed": false,
          "name": "_periodIndex",
          "type": "uint256"
        }
      ],
      "name": "Vote",
      "type": "event"
    },
    {
      "constant": false,
      "inputs": [
        {
          "name": "_periodTTL",
          "type": "uint256"
        },
        {
          "name": "_activeTime",
          "type": "uint256"
        },
        {
          "name": "_claimTime",
          "type": "uint256"
        }
      ],
      "name": "initPeriod",
      "outputs": [],
      "payable": false,
      "stateMutability": "nonpayable",
      "type": "function"
    },
    {
      "constant": false,
      "inputs": [
        {
          "name": "_amount",
          "type": "uint256"
        }
      ],
      "name": "buyTokenVotes",
      "outputs": [],
      "payable": false,
      "stateMutability": "nonpayable",
      "type": "function"
    },
    {
      "constant": false,
      "inputs": [
        {
          "name": "_candidateAddress",
          "type": "address"
        },
        {
          "name": "_amount",
          "type": "uint256"
        }
      ],
      "name": "vote",
      "outputs": [],
      "payable": false,
      "stateMutability": "nonpayable",
      "type": "function"
    },
    {
      "constant": false,
      "inputs": [],
      "name": "claimBounty",
      "outputs": [],
      "payable": false,
      "stateMutability": "nonpayable",
      "type": "function"
    },
    {
      "constant": true,
      "inputs": [],
      "name": "currentPeriod",
      "outputs": [
        {
          "name": "",
          "type": "uint256"
        }
      ],
      "payable": false,
      "stateMutability": "view",
      "type": "function"
    },
    {
      "constant": true,
      "inputs": [],
      "name": "currentStage",
      "outputs": [
        {
          "name": "",
          "type": "uint256"
        }
      ],
      "payable": false,
      "stateMutability": "view",
      "type": "function"
    },
    {
      "constant": true,
      "inputs": [
        {
          "name": "_poolAmount",
          "type": "uint256"
        },
        {
          "name": "_claimerVotes",
          "type": "uint256"
        },
        {
          "name": "_totalVotes",
          "type": "uint256"
        }
      ],
      "name": "calculateReward",
      "outputs": [
        {
          "name": "",
          "type": "uint256"
        }
      ],
      "payable": false,
      "stateMutability": "pure",
      "type": "function"
    }
  ],
  "bytecode": "0x60806040523480156200001157600080fd5b5060405160c0806200368b83398101806040528101908080519060200190929190805190602001909291908051906020019092919080519060200190929190805190602001909291908051906020019092919050505060008573ffffffffffffffffffffffffffffffffffffffff1614158015620000a6575060008473ffffffffffffffffffffffffffffffffffffffff1614155b8015620000ca575060008673ffffffffffffffffffffffffffffffffffffffff1614155b1515620000d657600080fd5b85600560006101000a81548173ffffffffffffffffffffffffffffffffffffffff021916908373ffffffffffffffffffffffffffffffffffffffff16021790555084600360006101000a81548173ffffffffffffffffffffffffffffffffffffffff021916908373ffffffffffffffffffffffffffffffffffffffff16021790555083600460006101000a81548173ffffffffffffffffffffffffffffffffffffffff021916908373ffffffffffffffffffffffffffffffffffffffff160217905550620001b5838383620001c1640100000000026401000000009004565b505050505050620003e7565b82620001cc620003d6565b80828152602001915050604051809103906000f080158015620001f3573d6000803e3d6000fd5b50600660006101000a81548173ffffffffffffffffffffffffffffffffffffffff021916908373ffffffffffffffffffffffffffffffffffffffff160217905550600660009054906101000a900473ffffffffffffffffffffffffffffffffffffffff1673ffffffffffffffffffffffffffffffffffffffff1663842652a6836040518263ffffffff167c010000000000000000000000000000000000000000000000000000000002815260040180828152602001915050600060405180830381600087803b158015620002c657600080fd5b505af1158015620002db573d6000803e3d6000fd5b50505050600660009054906101000a900473ffffffffffffffffffffffffffffffffffffffff1673ffffffffffffffffffffffffffffffffffffffff1663842652a6826040518263ffffffff167c010000000000000000000000000000000000000000000000000000000002815260040180828152602001915050600060405180830381600087803b1580156200037157600080fd5b505af115801562000386573d6000803e3d6000fd5b505050507ff369b06e840a30eacc9a6075343f62ef138689a44c1c3ef52cb24e6c692c980483838360405180848152602001838152602001828152602001935050505060405180910390a1505050565b604051610ecd80620027be83390190565b6123c780620003f76000396000f3006080604052600436106100c5576000357c0100000000000000000000000000000000000000000000000000000000900463ffffffff16806306040618146100ca57806319de0477146100f557806333dd6bed1461014c5780635706d0ec146101ad5780635bf5d54c1461020e5780635e1ce58a146102395780635f74bbde1461026657806381c8a8c4146102b3578063a8e62b971461030a578063b85d84f61461035f578063be60040e146103a0578063ee4be288146103f7578063fc0c546a1461040e575b600080fd5b3480156100d657600080fd5b506100df610465565b6040518082815260200191505060405180910390f35b34801561010157600080fd5b5061010a6105d6565b604051808273ffffffffffffffffffffffffffffffffffffffff1673ffffffffffffffffffffffffffffffffffffffff16815260200191505060405180910390f35b34801561015857600080fd5b5061019760048036038101908080359060200190929190803573ffffffffffffffffffffffffffffffffffffffff1690602001909291905050506105fc565b6040518082815260200191505060405180910390f35b3480156101b957600080fd5b506101f860048036038101908080359060200190929190803573ffffffffffffffffffffffffffffffffffffffff169060200190929190505050610621565b6040518082815260200191505060405180910390f35b34801561021a57600080fd5b50610223610646565b6040518082815260200191505060405180910390f35b34801561024557600080fd5b506102646004803603810190808035906020019092919050505061070e565b005b34801561027257600080fd5b506102b1600480360381019080803573ffffffffffffffffffffffffffffffffffffffff16906020019092919080359060200190929190505050610987565b005b3480156102bf57600080fd5b506102c8610bb8565b604051808273ffffffffffffffffffffffffffffffffffffffff1673ffffffffffffffffffffffffffffffffffffffff16815260200191505060405180910390f35b34801561031657600080fd5b50610349600480360381019080803590602001909291908035906020019092919080359060200190929190505050610bde565b6040518082815260200191505060405180910390f35b34801561036b57600080fd5b5061039e600480360381019080803590602001909291908035906020019092919080359060200190929190505050610c26565b005b3480156103ac57600080fd5b506103b5610e34565b604051808273ffffffffffffffffffffffffffffffffffffffff1673ffffffffffffffffffffffffffffffffffffffff16815260200191505060405180910390f35b34801561040357600080fd5b5061040c610e5a565b005b34801561041a57600080fd5b5061042361127a565b604051808273ffffffffffffffffffffffffffffffffffffffff1673ffffffffffffffffffffffffffffffffffffffff16815260200191505060405180910390f35b6000806000600660009054906101000a900473ffffffffffffffffffffffffffffffffffffffff1673ffffffffffffffffffffffffffffffffffffffff1663ef78d4fd6040518163ffffffff167c0100000000000000000000000000000000000000000000000000000000028152600401602060405180830381600087803b1580156104f057600080fd5b505af1158015610504573d6000803e3d6000fd5b505050506040513d602081101561051a57600080fd5b810190808051906020019092919050505091508190508073ffffffffffffffffffffffffffffffffffffffff16637fc15a2e6040518163ffffffff167c0100000000000000000000000000000000000000000000000000000000028152600401602060405180830381600087803b15801561059457600080fd5b505af11580156105a8573d6000803e3d6000fd5b505050506040513d60208110156105be57600080fd5b81019080805190602001909291905050509250505090565b600360009054906101000a900473ffffffffffffffffffffffffffffffffffffffff1681565b6000602052816000526040600020602052806000526040600020600091509150505481565b6001602052816000526040600020602052806000526040600020600091509150505481565b6000600660009054906101000a900473ffffffffffffffffffffffffffffffffffffffff1673ffffffffffffffffffffffffffffffffffffffff16635bf5d54c6040518163ffffffff167c0100000000000000000000000000000000000000000000000000000000028152600401602060405180830381600087803b1580156106ce57600080fd5b505af11580156106e2573d6000803e3d6000fd5b505050506040513d60208110156106f857600080fd5b8101908080519060200190929190505050905090565b6000610718610646565b14151561072457600080fd5b600560009054906101000a900473ffffffffffffffffffffffffffffffffffffffff1673ffffffffffffffffffffffffffffffffffffffff166323b872dd3330846040518463ffffffff167c0100000000000000000000000000000000000000000000000000000000028152600401808473ffffffffffffffffffffffffffffffffffffffff1673ffffffffffffffffffffffffffffffffffffffff1681526020018373ffffffffffffffffffffffffffffffffffffffff1673ffffffffffffffffffffffffffffffffffffffff1681526020018281526020019350505050602060405180830381600087803b15801561081d57600080fd5b505af1158015610831573d6000803e3d6000fd5b505050506040513d602081101561084757600080fd5b8101908080519060200190929190505050151561086357600080fd5b6108cd8160016000610873610465565b815260200190815260200160002060003373ffffffffffffffffffffffffffffffffffffffff1673ffffffffffffffffffffffffffffffffffffffff168152602001908152602001600020546112a090919063ffffffff16565b600160006108d9610465565b815260200190815260200160002060003373ffffffffffffffffffffffffffffffffffffffff1673ffffffffffffffffffffffffffffffffffffffff168152602001908152602001600020819055503373ffffffffffffffffffffffffffffffffffffffff167efaaf3336e5c925e4d3017cc75d38ca026330a20faef146fd24501f98d16cb782610968610465565b604051808381526020018281526020019250505060405180910390a250565b6000610991610646565b14151561099d57600080fd5b6109a733836112bc565b15156109b257600080fd5b80600160006109bf610465565b815260200190815260200160002060003373ffffffffffffffffffffffffffffffffffffffff1673ffffffffffffffffffffffffffffffffffffffff1681526020019081526020016000205410151515610a1857600080fd5b610a8181600080610a27610465565b815260200190815260200160002060008573ffffffffffffffffffffffffffffffffffffffff1673ffffffffffffffffffffffffffffffffffffffff168152602001908152602001600020546112a090919063ffffffff16565b600080610a8c610465565b815260200190815260200160002060008473ffffffffffffffffffffffffffffffffffffffff1673ffffffffffffffffffffffffffffffffffffffff168152602001908152602001600020819055508060016000610ae8610465565b815260200190815260200160002060003373ffffffffffffffffffffffffffffffffffffffff1673ffffffffffffffffffffffffffffffffffffffff168152602001908152602001600020600082825403925050819055508173ffffffffffffffffffffffffffffffffffffffff163373ffffffffffffffffffffffffffffffffffffffff167f6a92c4ce4cbb892528ab39f7d674be0f6b1579b54ed8e77d95ad506819fd72c883610b98610465565b604051808381526020018281526020019250505060405180910390a35050565b600660009054906101000a900473ffffffffffffffffffffffffffffffffffffffff1681565b60008060008060008514151515610bf457600080fd5b6064860292508483811515610c0557fe5b0491506064828802811515610c1657fe5b0490508093505050509392505050565b82610c2f6114be565b80828152602001915050604051809103906000f080158015610c55573d6000803e3d6000fd5b50600660006101000a81548173ffffffffffffffffffffffffffffffffffffffff021916908373ffffffffffffffffffffffffffffffffffffffff160217905550600660009054906101000a900473ffffffffffffffffffffffffffffffffffffffff1673ffffffffffffffffffffffffffffffffffffffff1663842652a6836040518263ffffffff167c010000000000000000000000000000000000000000000000000000000002815260040180828152602001915050600060405180830381600087803b158015610d2757600080fd5b505af1158015610d3b573d6000803e3d6000fd5b50505050600660009054906101000a900473ffffffffffffffffffffffffffffffffffffffff1673ffffffffffffffffffffffffffffffffffffffff1663842652a6826040518263ffffffff167c010000000000000000000000000000000000000000000000000000000002815260040180828152602001915050600060405180830381600087803b158015610dd057600080fd5b505af1158015610de4573d6000803e3d6000fd5b505050507ff369b06e840a30eacc9a6075343f62ef138689a44c1c3ef52cb24e6c692c980483838360405180848152602001838152602001828152602001935050505060405180910390a1505050565b600460009054906101000a900473ffffffffffffffffffffffffffffffffffffffff1681565b60006001610e66610646565b141515610e7257600080fd5b60011515600360009054906101000a900473ffffffffffffffffffffffffffffffffffffffff1673ffffffffffffffffffffffffffffffffffffffff16633af32abf336040518263ffffffff167c0100000000000000000000000000000000000000000000000000000000028152600401808273ffffffffffffffffffffffffffffffffffffffff1673ffffffffffffffffffffffffffffffffffffffff168152602001915050602060405180830381600087803b158015610f3357600080fd5b505af1158015610f47573d6000803e3d6000fd5b505050506040513d6020811015610f5d57600080fd5b81019080805190602001909291905050501515141515610f7c57600080fd5b600060026000610f8a610465565b815260200190815260200160002054111515610fa557600080fd5b611117600560009054906101000a900473ffffffffffffffffffffffffffffffffffffffff1673ffffffffffffffffffffffffffffffffffffffff166370a08231306040518263ffffffff167c0100000000000000000000000000000000000000000000000000000000028152600401808273ffffffffffffffffffffffffffffffffffffffff1673ffffffffffffffffffffffffffffffffffffffff168152602001915050602060405180830381600087803b15801561106557600080fd5b505af1158015611079573d6000803e3d6000fd5b505050506040513d602081101561108f57600080fd5b81019080805190602001909291905050506000806110ab610465565b815260200190815260200160002060003373ffffffffffffffffffffffffffffffffffffffff1673ffffffffffffffffffffffffffffffffffffffff1681526020019081526020016000205460026000611103610465565b815260200190815260200160002054610bde565b9050600560009054906101000a900473ffffffffffffffffffffffffffffffffffffffff1673ffffffffffffffffffffffffffffffffffffffff1663a9059cbb33836040518363ffffffff167c0100000000000000000000000000000000000000000000000000000000028152600401808373ffffffffffffffffffffffffffffffffffffffff1673ffffffffffffffffffffffffffffffffffffffff16815260200182815260200192505050602060405180830381600087803b1580156111de57600080fd5b505af11580156111f2573d6000803e3d6000fd5b505050506040513d602081101561120857600080fd5b8101908080519060200190929190505050503373ffffffffffffffffffffffffffffffffffffffff167f68a01c51691a9f9e26f898f67b3a9a77f49e2805a1458883efa86e163865541a8261125b610465565b604051808381526020018281526020019250505060405180910390a250565b600560009054906101000a900473ffffffffffffffffffffffffffffffffffffffff1681565b600081830190508281101515156112b357fe5b80905092915050565b6000600460009054906101000a900473ffffffffffffffffffffffffffffffffffffffff1673ffffffffffffffffffffffffffffffffffffffff16633af32abf846040518263ffffffff167c0100000000000000000000000000000000000000000000000000000000028152600401808273ffffffffffffffffffffffffffffffffffffffff1673ffffffffffffffffffffffffffffffffffffffff168152602001915050602060405180830381600087803b15801561137b57600080fd5b505af115801561138f573d6000803e3d6000fd5b505050506040513d60208110156113a557600080fd5b810190808051906020019092919050505080156114b65750600360009054906101000a900473ffffffffffffffffffffffffffffffffffffffff1673ffffffffffffffffffffffffffffffffffffffff16633af32abf836040518263ffffffff167c0100000000000000000000000000000000000000000000000000000000028152600401808273ffffffffffffffffffffffffffffffffffffffff1673ffffffffffffffffffffffffffffffffffffffff168152602001915050602060405180830381600087803b15801561147a57600080fd5b505af115801561148e573d6000803e3d6000fd5b505050506040513d60208110156114a457600080fd5b81019080805190602001909291905050505b905092915050565b604051610ecd806114cf833901905600608060405234801561001057600080fd5b50604051602080610ecd833981018060405281019080805190602001909291905050508061003c610118565b80828152602001915050604051809103906000f080158015610062573d6000803e3d6000fd5b50600160006101000a81548173ffffffffffffffffffffffffffffffffffffffff021916908373ffffffffffffffffffffffffffffffffffffffff160217905550806100ac610128565b80828152602001915050604051809103906000f0801580156100d2573d6000803e3d6000fd5b506000806101000a81548173ffffffffffffffffffffffffffffffffffffffff021916908373ffffffffffffffffffffffffffffffffffffffff16021790555050610138565b6040516105bd8061067683390190565b60405161029a80610c3383390190565b61052f806101476000396000f300608060405260043610610062576000357c0100000000000000000000000000000000000000000000000000000000900463ffffffff1680635bf5d54c146100675780637d80c95a14610092578063842652a6146100e9578063ef78d4fd14610116575b600080fd5b34801561007357600080fd5b5061007c61016d565b6040518082815260200191505060405180910390f35b34801561009e57600080fd5b506100a761040c565b604051808273ffffffffffffffffffffffffffffffffffffffff1673ffffffffffffffffffffffffffffffffffffffff16815260200191505060405180910390f35b3480156100f557600080fd5b5061011460048036038101908080359060200190929190505050610432565b005b34801561012257600080fd5b5061012b6104de565b604051808273ffffffffffffffffffffffffffffffffffffffff1673ffffffffffffffffffffffffffffffffffffffff16815260200191505060405180910390f35b6000806000806000809054906101000a900473ffffffffffffffffffffffffffffffffffffffff1673ffffffffffffffffffffffffffffffffffffffff1663dd6239fc6040518163ffffffff167c0100000000000000000000000000000000000000000000000000000000028152600401602060405180830381600087803b1580156101f857600080fd5b505af115801561020c573d6000803e3d6000fd5b505050506040513d602081101561022257600080fd5b81019080805190602001909291905050509250600160009054906101000a900473ffffffffffffffffffffffffffffffffffffffff1673ffffffffffffffffffffffffffffffffffffffff16630ef267436040518163ffffffff167c0100000000000000000000000000000000000000000000000000000000028152600401602060405180830381600087803b1580156102bb57600080fd5b505af11580156102cf573d6000803e3d6000fd5b505050506040513d60208110156102e557600080fd5b81019080805190602001909291905050509150600082141561030a5760009350610406565b600090505b8181101561040557600160009054906101000a900473ffffffffffffffffffffffffffffffffffffffff1673ffffffffffffffffffffffffffffffffffffffff16636f54dce582856040518363ffffffff167c01000000000000000000000000000000000000000000000000000000000281526004018083815260200182815260200192505050602060405180830381600087803b1580156103b057600080fd5b505af11580156103c4573d6000803e3d6000fd5b505050506040513d60208110156103da57600080fd5b8101908080519060200190929190505050156103f857809350610406565b808060010191505061030f565b5b50505090565b600160009054906101000a900473ffffffffffffffffffffffffffffffffffffffff1681565b600160009054906101000a900473ffffffffffffffffffffffffffffffffffffffff1673ffffffffffffffffffffffffffffffffffffffff1663959ac484826040518263ffffffff167c010000000000000000000000000000000000000000000000000000000002815260040180828152602001915050600060405180830381600087803b1580156104c357600080fd5b505af11580156104d7573d6000803e3d6000fd5b5050505050565b6000809054906101000a900473ffffffffffffffffffffffffffffffffffffffff16815600a165627a7a72305820f2bc78b7822098a2189435d25ed96fbe2a69dc70c98bece5a916d11cab15974b0029608060405234801561001057600080fd5b506040516020806105bd8339810180604052810190808051906020019092919050505080600381905550506105738061004a6000396000f300608060405260043610610099576000357c0100000000000000000000000000000000000000000000000000000000900463ffffffff1680630ef267431461009e5780632f91f1f4146100c95780634a720f27146100f45780635439e423146101355780636f54dce514610160578063959ac484146101af578063a4ece52c146101dc578063b1becf2a146101f3578063f2a75fe414610234575b600080fd5b3480156100aa57600080fd5b506100b361024b565b6040518082815260200191505060405180910390f35b3480156100d557600080fd5b506100de610255565b6040518082815260200191505060405180910390f35b34801561010057600080fd5b5061011f6004803603810190808035906020019092919050505061025b565b6040518082815260200191505060405180910390f35b34801561014157600080fd5b5061014a61027e565b6040518082815260200191505060405180910390f35b34801561016c57600080fd5b506101956004803603810190808035906020019092919080359060200190929190505050610284565b604051808215151515815260200191505060405180910390f35b3480156101bb57600080fd5b506101da60048036038101908080359060200190929190505050610300565b005b3480156101e857600080fd5b506101f16103e3565b005b3480156101ff57600080fd5b5061021e600480360381019080803590602001909291905050506104f3565b6040518082815260200191505060405180910390f35b34801561024057600080fd5b5061024961050b565b005b6000600454905090565b60035481565b60008181548110151561026a57fe5b906000526020600020016000915090505481565b60025481565b6000808314156102b25760008381548110151561029d57fe5b906000526020600020015482111590506102fa565b6000600184038154811015156102c457fe5b906000526020600020015482101580156102f757506000838154811015156102e857fe5b90600052602060002001548211155b90505b92915050565b60035481600254011115151561037e576040517f08c379a00000000000000000000000000000000000000000000000000000000081526004018080602001828103825260128152602001807f424c4f434b5f4e554d5f4f564552464c4f57000000000000000000000000000081525060200191505060405180910390fd5b60008160025401908060018154018082558091505090600182039060005260206000200160009091929091909150555080600260008282540192505081905550600460008154809291906001019190505550600354600254111515156103e057fe5b50565b600080600080549050111515610461576040517f08c379a000000000000000000000000000000000000000000000000000000000815260040180806020018281038252600d8152602001807f454d5054592053544f524147450000000000000000000000000000000000000081525060200191505060405180910390fd5b600060016000805490500381548110151561047857fe5b90600052602060002001549050600060016000805490500381548110151561049c57fe5b90600052602060002001600090556000808054905014156104cc57600060048190555060006002819055506104f0565b60046000815480929190600190039190505550806002600082825403925050819055505b50565b60016020528060005260406000206000915090505481565b60008090505b60008054905081111515610534576105276103e3565b8080600101915050610511565b6000808054905014151561054457fe5b505600a165627a7a72305820bc935eb3467072bc2fe268e50839cd1eacc31a6907a63c3e8b0a53fcc9e61bf50029608060405234801561001057600080fd5b5060405160208061029a833981018060405281019080805190602001909291905050506000811115156100ab576040517f08c379a000000000000000000000000000000000000000000000000000000000815260040180806020018281038252600c8152602001807f454d5054595f504552494f44000000000000000000000000000000000000000081525060200191505060405180910390fd5b8060008190555043600181905550506101d1806100c96000396000f30060806040526004361061006d576000357c0100000000000000000000000000000000000000000000000000000000900463ffffffff1680632bc80f3a146100725780637f89b5ce1461009d5780637fc15a2e146100c8578063dd6239fc146100f3578063eb6ad24e1461011e575b600080fd5b34801561007e57600080fd5b50610087610149565b6040518082815260200191505060405180910390f35b3480156100a957600080fd5b506100b261014f565b6040518082815260200191505060405180910390f35b3480156100d457600080fd5b506100dd610155565b6040518082815260200191505060405180910390f35b3480156100ff57600080fd5b5061010861017e565b6040518082815260200191505060405180910390f35b34801561012a57600080fd5b5061013361018f565b6040518082815260200191505060405180910390f35b60005481565b60015481565b60008060015443031015151561016757fe5b600054600154430381151561017857fe5b04905090565b600061018861018f565b4303905090565b6000805461019b610155565b02600154019050905600a165627a7a72305820a0a114358d11151c2f5144479fd87806b0519eaea74de77545618e9017ea66ff0029a165627a7a7230582067ee09af2693aca9fd277fadd0960db06c4dfcab93fc2bf1f1f7b02ebfb526040029608060405234801561001057600080fd5b50604051602080610ecd833981018060405281019080805190602001909291905050508061003c610118565b80828152602001915050604051809103906000f080158015610062573d6000803e3d6000fd5b50600160006101000a81548173ffffffffffffffffffffffffffffffffffffffff021916908373ffffffffffffffffffffffffffffffffffffffff160217905550806100ac610128565b80828152602001915050604051809103906000f0801580156100d2573d6000803e3d6000fd5b506000806101000a81548173ffffffffffffffffffffffffffffffffffffffff021916908373ffffffffffffffffffffffffffffffffffffffff16021790555050610138565b6040516105bd8061067683390190565b60405161029a80610c3383390190565b61052f806101476000396000f300608060405260043610610062576000357c0100000000000000000000000000000000000000000000000000000000900463ffffffff1680635bf5d54c146100675780637d80c95a14610092578063842652a6146100e9578063ef78d4fd14610116575b600080fd5b34801561007357600080fd5b5061007c61016d565b6040518082815260200191505060405180910390f35b34801561009e57600080fd5b506100a761040c565b604051808273ffffffffffffffffffffffffffffffffffffffff1673ffffffffffffffffffffffffffffffffffffffff16815260200191505060405180910390f35b3480156100f557600080fd5b5061011460048036038101908080359060200190929190505050610432565b005b34801561012257600080fd5b5061012b6104de565b604051808273ffffffffffffffffffffffffffffffffffffffff1673ffffffffffffffffffffffffffffffffffffffff16815260200191505060405180910390f35b6000806000806000809054906101000a900473ffffffffffffffffffffffffffffffffffffffff1673ffffffffffffffffffffffffffffffffffffffff1663dd6239fc6040518163ffffffff167c0100000000000000000000000000000000000000000000000000000000028152600401602060405180830381600087803b1580156101f857600080fd5b505af115801561020c573d6000803e3d6000fd5b505050506040513d602081101561022257600080fd5b81019080805190602001909291905050509250600160009054906101000a900473ffffffffffffffffffffffffffffffffffffffff1673ffffffffffffffffffffffffffffffffffffffff16630ef267436040518163ffffffff167c0100000000000000000000000000000000000000000000000000000000028152600401602060405180830381600087803b1580156102bb57600080fd5b505af11580156102cf573d6000803e3d6000fd5b505050506040513d60208110156102e557600080fd5b81019080805190602001909291905050509150600082141561030a5760009350610406565b600090505b8181101561040557600160009054906101000a900473ffffffffffffffffffffffffffffffffffffffff1673ffffffffffffffffffffffffffffffffffffffff16636f54dce582856040518363ffffffff167c01000000000000000000000000000000000000000000000000000000000281526004018083815260200182815260200192505050602060405180830381600087803b1580156103b057600080fd5b505af11580156103c4573d6000803e3d6000fd5b505050506040513d60208110156103da57600080fd5b8101908080519060200190929190505050156103f857809350610406565b808060010191505061030f565b5b50505090565b600160009054906101000a900473ffffffffffffffffffffffffffffffffffffffff1681565b600160009054906101000a900473ffffffffffffffffffffffffffffffffffffffff1673ffffffffffffffffffffffffffffffffffffffff1663959ac484826040518263ffffffff167c010000000000000000000000000000000000000000000000000000000002815260040180828152602001915050600060405180830381600087803b1580156104c357600080fd5b505af11580156104d7573d6000803e3d6000fd5b5050505050565b6000809054906101000a900473ffffffffffffffffffffffffffffffffffffffff16815600a165627a7a72305820f2bc78b7822098a2189435d25ed96fbe2a69dc70c98bece5a916d11cab15974b0029608060405234801561001057600080fd5b506040516020806105bd8339810180604052810190808051906020019092919050505080600381905550506105738061004a6000396000f300608060405260043610610099576000357c0100000000000000000000000000000000000000000000000000000000900463ffffffff1680630ef267431461009e5780632f91f1f4146100c95780634a720f27146100f45780635439e423146101355780636f54dce514610160578063959ac484146101af578063a4ece52c146101dc578063b1becf2a146101f3578063f2a75fe414610234575b600080fd5b3480156100aa57600080fd5b506100b361024b565b6040518082815260200191505060405180910390f35b3480156100d557600080fd5b506100de610255565b6040518082815260200191505060405180910390f35b34801561010057600080fd5b5061011f6004803603810190808035906020019092919050505061025b565b6040518082815260200191505060405180910390f35b34801561014157600080fd5b5061014a61027e565b6040518082815260200191505060405180910390f35b34801561016c57600080fd5b506101956004803603810190808035906020019092919080359060200190929190505050610284565b604051808215151515815260200191505060405180910390f35b3480156101bb57600080fd5b506101da60048036038101908080359060200190929190505050610300565b005b3480156101e857600080fd5b506101f16103e3565b005b3480156101ff57600080fd5b5061021e600480360381019080803590602001909291905050506104f3565b6040518082815260200191505060405180910390f35b34801561024057600080fd5b5061024961050b565b005b6000600454905090565b60035481565b60008181548110151561026a57fe5b906000526020600020016000915090505481565b60025481565b6000808314156102b25760008381548110151561029d57fe5b906000526020600020015482111590506102fa565b6000600184038154811015156102c457fe5b906000526020600020015482101580156102f757506000838154811015156102e857fe5b90600052602060002001548211155b90505b92915050565b60035481600254011115151561037e576040517f08c379a00000000000000000000000000000000000000000000000000000000081526004018080602001828103825260128152602001807f424c4f434b5f4e554d5f4f564552464c4f57000000000000000000000000000081525060200191505060405180910390fd5b60008160025401908060018154018082558091505090600182039060005260206000200160009091929091909150555080600260008282540192505081905550600460008154809291906001019190505550600354600254111515156103e057fe5b50565b600080600080549050111515610461576040517f08c379a000000000000000000000000000000000000000000000000000000000815260040180806020018281038252600d8152602001807f454d5054592053544f524147450000000000000000000000000000000000000081525060200191505060405180910390fd5b600060016000805490500381548110151561047857fe5b90600052602060002001549050600060016000805490500381548110151561049c57fe5b90600052602060002001600090556000808054905014156104cc57600060048190555060006002819055506104f0565b60046000815480929190600190039190505550806002600082825403925050819055505b50565b60016020528060005260406000206000915090505481565b60008090505b60008054905081111515610534576105276103e3565b8080600101915050610511565b6000808054905014151561054457fe5b505600a165627a7a72305820bc935eb3467072bc2fe268e50839cd1eacc31a6907a63c3e8b0a53fcc9e61bf50029608060405234801561001057600080fd5b5060405160208061029a833981018060405281019080805190602001909291905050506000811115156100ab576040517f08c379a000000000000000000000000000000000000000000000000000000000815260040180806020018281038252600c8152602001807f454d5054595f504552494f44000000000000000000000000000000000000000081525060200191505060405180910390fd5b8060008190555043600181905550506101d1806100c96000396000f30060806040526004361061006d576000357c0100000000000000000000000000000000000000000000000000000000900463ffffffff1680632bc80f3a146100725780637f89b5ce1461009d5780637fc15a2e146100c8578063dd6239fc146100f3578063eb6ad24e1461011e575b600080fd5b34801561007e57600080fd5b50610087610149565b6040518082815260200191505060405180910390f35b3480156100a957600080fd5b506100b261014f565b6040518082815260200191505060405180910390f35b3480156100d457600080fd5b506100dd610155565b6040518082815260200191505060405180910390f35b3480156100ff57600080fd5b5061010861017e565b6040518082815260200191505060405180910390f35b34801561012a57600080fd5b5061013361018f565b6040518082815260200191505060405180910390f35b60005481565b60015481565b60008060015443031015151561016757fe5b600054600154430381151561017857fe5b04905090565b600061018861018f565b4303905090565b6000805461019b610155565b02600154019050905600a165627a7a72305820a0a114358d11151c2f5144479fd87806b0519eaea74de77545618e9017ea66ff0029",
  "source": "pragma solidity ^0.4.24;\n\nimport \"openzeppelin-solidity/contracts/math/SafeMath.sol\";\nimport \"openzeppelin-solidity/contracts/token/ERC20/StandardToken.sol\";\nimport \"@frontier-token-research/role-registries/contracts/Registry.sol\";\nimport \"@frontier-token-research/role-registries/contracts/OwnedRegistryFactory.sol\";\nimport \"@frontier-token-research/cron/contracts/Period.sol\";\nimport \"@frontier-token-research/cron/contracts/PeriodicStages.sol\";\n\n\n/**\n* A Token Ranked List (TRL) enables voting with staked tokens periodically, over a registry of candidates\n*\n**/\ncontract TRL {\n    using SafeMath for uint256;\n\n     // Amount that only can be changed in exchange of FTR (period => account => vote_amount)\n    mapping (uint256 => mapping(address => uint256)) public votesReceived;\n\n    // For each period, maps user's address to voteToken balance (period => account => vote_balance)\n    mapping (uint256 => mapping(address => uint256)) public votesBalance;\n\n    // Total amount of votes made on a current period, necessary for future Bounty calculation\n    mapping(uint256 => uint256) totalPeriodVotes;\n\n    // Registry of candidates to be voted\n    Registry public candidateRegistry;\n\n    // Registry of candidates allowed to vote\n    Registry public voterRegistry;\n\n    // Master Token, used to buy votes\n    StandardToken public token;\n\n    // Stages that come periodically \n    PeriodicStages public periodicStages;\n\n\n    /**\n    * Creates a new Instance of a Voting Lists\n    * @param _tokenAddress Address of the token used as an incentive for the pool\n    **/\n\n    constructor(\n        address _tokenAddress,\n        address _candidateRegistryAddress,\n        address _voterRegistryAddress,\n        uint256 _initialTTL,\n        uint256 _initialActiveTime,\n        uint256 _initialClaimTime)\n        public\n    {\n        require(\n            _candidateRegistryAddress != 0x00 && _voterRegistryAddress != 0x00 && _tokenAddress != 0x00\n        ); \n        token = StandardToken(_tokenAddress);\n        candidateRegistry = Registry(_candidateRegistryAddress);\n        voterRegistry = Registry(_voterRegistryAddress);\n        initPeriod(_initialTTL, _initialActiveTime, _initialClaimTime);\n    }\n\n    /**\n    * Initializes a new period, taking as the TTL value the current from storage, and setting the state to 1\n    * Requires that the current period is Preparing (0)\n    **/\n\n    function initPeriod(uint256 _periodTTL, uint256 _activeTime, uint256 _claimTime) public {\n        periodicStages = new PeriodicStages(_periodTTL);\n        periodicStages.pushStage(_activeTime);\n        periodicStages.pushStage(_claimTime);\n        emit PeriodInit(_periodTTL, _activeTime, _claimTime);\n    }\n\n    /**\n    * @dev Exchanges the main token for an amount of votes\n    * @dev Requires previous allowance of expenditure of at least the amount required\n    * @dev Currently 1:1 exchange used, but this rate could be changed\n    * @param _amount Amount of votes that the voter wants to buy\n    **/\n\n    function buyTokenVotes(uint256 _amount) public {\n        require(currentStage() == 0);\n        require(token.transferFrom(msg.sender,this, _amount));\n        votesBalance[currentPeriod()][msg.sender] = votesBalance[currentPeriod()][msg.sender].add(_amount);\n        emit VotesBought(msg.sender, _amount, currentPeriod());\n    }\n\n\n    /**\n    * @dev Adds a new vote for a candidate. It fails if the candidate hasn't approved before the specified amount\n    * @param _candidateAddress address of the candidate selected\n    * @param _amount of votes used\n    **/\n\n    function vote(address _candidateAddress, uint256 _amount) public {\n        require(currentStage() == 0);\n        require(canVote(msg.sender, _candidateAddress));\n        require(votesBalance[currentPeriod()][msg.sender] >= _amount);\n        votesReceived[currentPeriod()][_candidateAddress] = votesReceived[currentPeriod()][_candidateAddress].add(_amount);\n        votesBalance[currentPeriod()][msg.sender] -= _amount;\n        emit Vote(msg.sender,_candidateAddress, _amount, currentPeriod());\n    }\n\n    \n    /**\n    * @dev Claims the correspondant Bounty from the Pool on the current periodIndex\n    **/\n\n    function claimBounty() public {\n        require(currentStage() == 1);\n        require(candidateRegistry.isWhitelisted(msg.sender) == true);\n        require(totalPeriodVotes[currentPeriod()]>0);\n        uint256 totalAmount = calculateReward(\n            token.balanceOf(this),\n            votesReceived[currentPeriod()][msg.sender],\n            totalPeriodVotes[currentPeriod()]\n        );\n        token.transfer(msg.sender, totalAmount);\n        emit BountyRelased(msg.sender, totalAmount, currentPeriod());\n    }\n\n    /**\n    * @dev Returns the current period number\n    **/\n\n    function currentPeriod() public view returns(uint256) { \n        address periodAddress = periodicStages.period();\n        Period period = Period(periodAddress);\n        return period.getPeriodNumber();\n    }\n    \n    /**\n    * @dev Returns the current stage number\n    **/\n\n    function currentStage() public view returns(uint256){\n        return periodicStages.currentStage();\n    } \n    \n    \n    /**\n    * @dev Returns the current period number\n    * @param _sender Account of the voter that is checked\n    * @param _receiver Account of the candidate to be voted\n    * @return true if the user can vote and the receiver is a candidate\n    **/\n\n    function canVote(\n        address _sender, \n        address _receiver) \n        internal view returns (bool) \n    { \n        return voterRegistry.isWhitelisted(_sender) &&\n        candidateRegistry.isWhitelisted(_receiver);\n    }\n\n    /**\n    * @dev Function that determines the current reward for each sender\n    * @param _poolAmount Total amount that is going to be shared among participants\n    * @param _claimerVotes Amount of votes of the candidate that is going to claim for the reward\n    * @param _totalVotes Total Amount of votes on a certain period\n    */\n    function calculateReward(\n        uint256 _poolAmount,\n        uint256 _claimerVotes,\n        uint256 _totalVotes)\n        pure public returns (uint256)\n    {\n        require(_totalVotes != 0);\n        uint256 auxDecimalVotes = _claimerVotes * 100;\n        uint256 auxPercentageVotes = auxDecimalVotes / _totalVotes;\n        uint256 totalAmount = _poolAmount * auxPercentageVotes / 100;\n        return totalAmount;\n    }\n\n\n\n    event ContractCreated (uint256 _time);\n    event PeriodInit(uint256 _T, uint256 _active, uint256 _claim);\n    event VotesBought(address indexed _recipient, uint256 _amount, uint256 _period);\n    event BountyRelased(address indexed _recipient, uint256 _amount, uint256 _period);\n    event Vote(address indexed _voterAddress, address indexed _candidateAddress, uint256 _amount, uint256 _periodIndex);\n}\n",
  "sourcePath": "/Users/carlosbuendia/Documents/Projects/consensys/Frontier/TRL/contracts/TRL.sol",
  "compiler": {
    "name": "solc",
    "version": "0.4.24+commit.e67f0147.Emscripten.clang"
  },
  "schemaVersion": "2.0.0",
  "updatedAt": "2018-07-04T10:22:32.598Z"
}