{
  "contractName": "TRL",
  "abi": [
    {
      "constant": false,
      "inputs": [
        {
          "name": "_contractAddress",
          "type": "address"
        }
      ],
      "name": "setVoterRegistry",
      "outputs": [],
      "payable": false,
      "stateMutability": "nonpayable",
      "type": "function"
    },
    {
      "constant": false,
      "inputs": [
        {
          "name": "_contractAddress",
          "type": "address"
        }
      ],
      "name": "setToken",
      "outputs": [],
      "payable": false,
      "stateMutability": "nonpayable",
      "type": "function"
    },
    {
      "constant": true,
      "inputs": [],
      "name": "candidateRegistry",
      "outputs": [
        {
          "name": "",
          "type": "address"
        }
      ],
      "payable": false,
      "stateMutability": "view",
      "type": "function"
    },
    {
      "constant": false,
      "inputs": [
        {
          "name": "_account",
          "type": "address"
        }
      ],
      "name": "setSubscriptionAccount",
      "outputs": [],
      "payable": false,
      "stateMutability": "nonpayable",
      "type": "function"
    },
    {
      "constant": true,
      "inputs": [
        {
          "name": "",
          "type": "uint256"
        },
        {
          "name": "",
          "type": "address"
        }
      ],
      "name": "votesReceived",
      "outputs": [
        {
          "name": "",
          "type": "uint256"
        }
      ],
      "payable": false,
      "stateMutability": "view",
      "type": "function"
    },
    {
      "constant": true,
      "inputs": [
        {
          "name": "",
          "type": "uint256"
        }
      ],
      "name": "votingConstraints",
      "outputs": [
        {
          "name": "",
          "type": "uint256"
        }
      ],
      "payable": false,
      "stateMutability": "view",
      "type": "function"
    },
    {
      "constant": true,
      "inputs": [],
      "name": "subscriptionAddress",
      "outputs": [
        {
          "name": "",
          "type": "address"
        }
      ],
      "payable": false,
      "stateMutability": "view",
      "type": "function"
    },
    {
      "constant": false,
      "inputs": [
        {
          "name": "_contractAddress",
          "type": "address"
        }
      ],
      "name": "setPeriodicStages",
      "outputs": [],
      "payable": false,
      "stateMutability": "nonpayable",
      "type": "function"
    },
    {
      "constant": true,
      "inputs": [
        {
          "name": "",
          "type": "uint256"
        },
        {
          "name": "",
          "type": "address"
        }
      ],
      "name": "votesBalance",
      "outputs": [
        {
          "name": "",
          "type": "uint256"
        }
      ],
      "payable": false,
      "stateMutability": "view",
      "type": "function"
    },
    {
      "constant": false,
      "inputs": [
        {
          "name": "_contractAddress",
          "type": "address"
        }
      ],
      "name": "setVault",
      "outputs": [],
      "payable": false,
      "stateMutability": "nonpayable",
      "type": "function"
    },
    {
      "constant": false,
      "inputs": [],
      "name": "renounceOwnership",
      "outputs": [],
      "payable": false,
      "stateMutability": "nonpayable",
      "type": "function"
    },
    {
      "constant": true,
      "inputs": [
        {
          "name": "",
          "type": "uint256"
        }
      ],
      "name": "totalEpochVotes",
      "outputs": [
        {
          "name": "",
          "type": "uint256"
        }
      ],
      "payable": false,
      "stateMutability": "view",
      "type": "function"
    },
    {
      "constant": true,
      "inputs": [],
      "name": "periodicStages",
      "outputs": [
        {
          "name": "",
          "type": "address"
        }
      ],
      "payable": false,
      "stateMutability": "view",
      "type": "function"
    },
    {
      "constant": true,
      "inputs": [],
      "name": "owner",
      "outputs": [
        {
          "name": "",
          "type": "address"
        }
      ],
      "payable": false,
      "stateMutability": "view",
      "type": "function"
    },
    {
      "constant": true,
      "inputs": [],
      "name": "isOwner",
      "outputs": [
        {
          "name": "",
          "type": "bool"
        }
      ],
      "payable": false,
      "stateMutability": "view",
      "type": "function"
    },
    {
      "constant": true,
      "inputs": [
        {
          "name": "",
          "type": "uint256"
        }
      ],
      "name": "repWeights",
      "outputs": [
        {
          "name": "",
          "type": "uint256"
        }
      ],
      "payable": false,
      "stateMutability": "view",
      "type": "function"
    },
    {
      "constant": true,
      "inputs": [],
      "name": "voterRegistry",
      "outputs": [
        {
          "name": "",
          "type": "address"
        }
      ],
      "payable": false,
      "stateMutability": "view",
      "type": "function"
    },
    {
      "constant": false,
      "inputs": [
        {
          "name": "_contractAddress",
          "type": "address"
        }
      ],
      "name": "setCandidateRegistry",
      "outputs": [],
      "payable": false,
      "stateMutability": "nonpayable",
      "type": "function"
    },
    {
      "constant": true,
      "inputs": [
        {
          "name": "",
          "type": "uint256"
        }
      ],
      "name": "stakingConstraints",
      "outputs": [
        {
          "name": "",
          "type": "uint256"
        }
      ],
      "payable": false,
      "stateMutability": "view",
      "type": "function"
    },
    {
      "constant": true,
      "inputs": [],
      "name": "reputationWindowSize",
      "outputs": [
        {
          "name": "",
          "type": "uint256"
        }
      ],
      "payable": false,
      "stateMutability": "view",
      "type": "function"
    },
    {
      "constant": false,
      "inputs": [
        {
          "name": "newOwner",
          "type": "address"
        }
      ],
      "name": "transferOwnership",
      "outputs": [],
      "payable": false,
      "stateMutability": "nonpayable",
      "type": "function"
    },
    {
      "constant": true,
      "inputs": [],
      "name": "vault",
      "outputs": [
        {
          "name": "",
          "type": "address"
        }
      ],
      "payable": false,
      "stateMutability": "view",
      "type": "function"
    },
    {
      "constant": true,
      "inputs": [],
      "name": "token",
      "outputs": [
        {
          "name": "",
          "type": "address"
        }
      ],
      "payable": false,
      "stateMutability": "view",
      "type": "function"
    },
    {
      "anonymous": false,
      "inputs": [
        {
          "indexed": false,
          "name": "_T",
          "type": "uint256"
        },
        {
          "indexed": false,
          "name": "_active",
          "type": "uint256"
        },
        {
          "indexed": false,
          "name": "_claim",
          "type": "uint256"
        }
      ],
      "name": "PeriodInit",
      "type": "event"
    },
    {
      "anonymous": false,
      "inputs": [
        {
          "indexed": true,
          "name": "_recipient",
          "type": "address"
        },
        {
          "indexed": false,
          "name": "_amount",
          "type": "uint256"
        },
        {
          "indexed": false,
          "name": "_periodIndex",
          "type": "uint256"
        }
      ],
      "name": "VotesBought",
      "type": "event"
    },
    {
      "anonymous": false,
      "inputs": [
        {
          "indexed": false,
          "name": "_amount",
          "type": "uint256"
        }
      ],
      "name": "MinimumStakeSet",
      "type": "event"
    },
    {
      "anonymous": false,
      "inputs": [
        {
          "indexed": true,
          "name": "_voterAddress",
          "type": "address"
        },
        {
          "indexed": true,
          "name": "_candidateAddress",
          "type": "address"
        },
        {
          "indexed": false,
          "name": "_amount",
          "type": "uint256"
        },
        {
          "indexed": false,
          "name": "_periodIndex",
          "type": "uint256"
        }
      ],
      "name": "Vote",
      "type": "event"
    },
    {
      "anonymous": false,
      "inputs": [
        {
          "indexed": false,
          "name": "_a",
          "type": "address"
        }
      ],
      "name": "PeriodicStagesCreated",
      "type": "event"
    },
    {
      "anonymous": false,
      "inputs": [
        {
          "indexed": true,
          "name": "previousOwner",
          "type": "address"
        },
        {
          "indexed": true,
          "name": "newOwner",
          "type": "address"
        }
      ],
      "name": "OwnershipTransferred",
      "type": "event"
    },
    {
      "constant": false,
      "inputs": [
        {
          "name": "_T",
          "type": "uint256"
        }
      ],
      "name": "initPeriod",
      "outputs": [],
      "payable": false,
      "stateMutability": "nonpayable",
      "type": "function"
    },
    {
      "constant": false,
      "inputs": [
        {
          "name": "_activeTime",
          "type": "uint256"
        },
        {
          "name": "_claimTime",
          "type": "uint256"
        }
      ],
      "name": "initStages",
      "outputs": [],
      "payable": false,
      "stateMutability": "nonpayable",
      "type": "function"
    },
    {
      "constant": false,
      "inputs": [
        {
          "name": "_amount",
          "type": "uint256"
        }
      ],
      "name": "buyTokenVotes",
      "outputs": [],
      "payable": false,
      "stateMutability": "nonpayable",
      "type": "function"
    },
    {
      "constant": false,
      "inputs": [
        {
          "name": "_account",
          "type": "address"
        },
        {
          "name": "_amount",
          "type": "uint256"
        }
      ],
      "name": "executeSubscription",
      "outputs": [
        {
          "name": "success",
          "type": "bool"
        }
      ],
      "payable": false,
      "stateMutability": "nonpayable",
      "type": "function"
    },
    {
      "constant": false,
      "inputs": [
        {
          "name": "_candidateAddress",
          "type": "address"
        },
        {
          "name": "_amount",
          "type": "uint256"
        }
      ],
      "name": "vote",
      "outputs": [],
      "payable": false,
      "stateMutability": "nonpayable",
      "type": "function"
    },
    {
      "constant": false,
      "inputs": [
        {
          "name": "_minimumStakeAmount",
          "type": "uint256"
        }
      ],
      "name": "setMinimumStake",
      "outputs": [],
      "payable": false,
      "stateMutability": "nonpayable",
      "type": "function"
    },
    {
      "constant": false,
      "inputs": [
        {
          "name": "_maximumStakeAmount",
          "type": "uint256"
        }
      ],
      "name": "setMaximumStake",
      "outputs": [],
      "payable": false,
      "stateMutability": "nonpayable",
      "type": "function"
    },
    {
      "constant": false,
      "inputs": [
        {
          "name": "_minVoteAmount",
          "type": "uint256"
        }
      ],
      "name": "setMinVotingLimit",
      "outputs": [],
      "payable": false,
      "stateMutability": "nonpayable",
      "type": "function"
    },
    {
      "constant": false,
      "inputs": [
        {
          "name": "_maxVoteAmount",
          "type": "uint256"
        }
      ],
      "name": "setMaxVotingLimit",
      "outputs": [],
      "payable": false,
      "stateMutability": "nonpayable",
      "type": "function"
    },
    {
      "constant": false,
      "inputs": [
        {
          "name": "_windowSize",
          "type": "uint256"
        }
      ],
      "name": "setWindowSize",
      "outputs": [
        {
          "name": "",
          "type": "uint256"
        }
      ],
      "payable": false,
      "stateMutability": "nonpayable",
      "type": "function"
    },
    {
      "constant": false,
      "inputs": [
        {
          "name": "_weights",
          "type": "uint256[]"
        }
      ],
      "name": "setReputationLinWeights",
      "outputs": [
        {
          "name": "",
          "type": "uint256[]"
        }
      ],
      "payable": false,
      "stateMutability": "nonpayable",
      "type": "function"
    },
    {
      "constant": true,
      "inputs": [
        {
          "name": "_epoch",
          "type": "uint256"
        },
        {
          "name": "_account",
          "type": "address"
        }
      ],
      "name": "scoring",
      "outputs": [
        {
          "name": "",
          "type": "uint256"
        }
      ],
      "payable": false,
      "stateMutability": "view",
      "type": "function"
    },
    {
      "constant": true,
      "inputs": [
        {
          "name": "_epoch",
          "type": "uint256"
        },
        {
          "name": "_account",
          "type": "address"
        }
      ],
      "name": "reputation",
      "outputs": [
        {
          "name": "",
          "type": "uint256"
        }
      ],
      "payable": false,
      "stateMutability": "view",
      "type": "function"
    },
    {
      "constant": true,
      "inputs": [],
      "name": "currentPeriod",
      "outputs": [
        {
          "name": "",
          "type": "uint256"
        }
      ],
      "payable": false,
      "stateMutability": "view",
      "type": "function"
    },
    {
      "constant": true,
      "inputs": [],
      "name": "height",
      "outputs": [
        {
          "name": "",
          "type": "uint256"
        }
      ],
      "payable": false,
      "stateMutability": "view",
      "type": "function"
    },
    {
      "constant": true,
      "inputs": [],
      "name": "currentStage",
      "outputs": [
        {
          "name": "",
          "type": "uint256"
        }
      ],
      "payable": false,
      "stateMutability": "view",
      "type": "function"
    },
    {
      "constant": true,
      "inputs": [
        {
          "name": "_sender",
          "type": "address"
        },
        {
          "name": "_amount",
          "type": "uint256"
        }
      ],
      "name": "canStake",
      "outputs": [
        {
          "name": "",
          "type": "bool"
        }
      ],
      "payable": false,
      "stateMutability": "view",
      "type": "function"
    },
    {
      "constant": true,
      "inputs": [
        {
          "name": "_amount",
          "type": "uint256"
        }
      ],
      "name": "stakeInsideConstraints",
      "outputs": [
        {
          "name": "",
          "type": "bool"
        }
      ],
      "payable": false,
      "stateMutability": "view",
      "type": "function"
    },
    {
      "constant": true,
      "inputs": [
        {
          "name": "_weights",
          "type": "uint256[]"
        },
        {
          "name": "_pastScores",
          "type": "uint256[]"
        },
        {
          "name": "_windowSize",
          "type": "uint256"
        }
      ],
      "name": "weightedScore",
      "outputs": [
        {
          "name": "",
          "type": "uint256"
        }
      ],
      "payable": false,
      "stateMutability": "pure",
      "type": "function"
    },
    {
      "constant": false,
      "inputs": [],
      "name": "launchTestEvent",
      "outputs": [],
      "payable": false,
      "stateMutability": "nonpayable",
      "type": "function"
    }
  ],
  "bytecode": "0x60806040526040805190810160405280600060ff16815260200160fd60ff1681525060099060026200003392919062000163565b506040805190810160405280600060ff16815260200160fd60ff16815250600b9060026200006392919062000163565b506000600d556001600e60006101000a81548160ff0219169083151502179055506000600e60016101000a81548160ff02191690831515021790555033601060006101000a81548173ffffffffffffffffffffffffffffffffffffffff021916908373ffffffffffffffffffffffffffffffffffffffff160217905550601060009054906101000a900473ffffffffffffffffffffffffffffffffffffffff1673ffffffffffffffffffffffffffffffffffffffff16600073ffffffffffffffffffffffffffffffffffffffff167f8be0079c531659141344cd1fd0a4f28419497f9722a3daafe3b4186f6b6457e060405160405180910390a3620001d5565b82600281019282156200019a579160200282015b8281111562000199578251829060ff1690559160200191906001019062000177565b5b509050620001a99190620001ad565b5090565b620001d291905b80821115620001ce576000816000905550600101620001b4565b5090565b90565b614fbd80620001e56000396000f3006080604052600436106200023b576000357c0100000000000000000000000000000000000000000000000000000000900463ffffffff1680630604061814620002405780630ad30342146200026e5780630ef2674314620002b4578063144fa6d714620002e257806319de04771462000328578063221797121462000382578063233e990314620003c85780632afbbacb14620003f857806333dd6bed14620004605780633c84107f14620004c4578063508ca9f114620005085780635521b96f146200056257806356f7459314620005a85780635706d0ec14620005d85780635bf5d54c146200063c5780635e1ce58a146200066a5780635f74bbde146200069a57806362a2a36e14620006ea5780636817031b146200074e578063715018a6146200079457806373300f8f14620007ae57806381c8a8c414620007f25780638b5a774d146200084c5780638da5cb5b14620009165780638f32d59b14620009705780639a1289ec14620009a2578063aaabc31514620009d2578063afb28bb91462000a16578063b2a565511462000a5e578063bb33bb0e1462000aa2578063bcb5c6361462000adc578063be60040e1462000b0c578063bfabe5571462000b66578063c25466651462000b96578063d84b63791462000bdc578063dac93e1b1462000c44578063e43c80961462000c88578063e7fde8cb1462000cb6578063ea9860a21462000cd0578063eac23e121462000d90578063f2fde38b1462000df4578063fbfa77cf1462000e3a578063fc0c546a1462000e94575b600080fd5b3480156200024d57600080fd5b506200025862000eee565b6040518082815260200191505060405180910390f35b3480156200027b57600080fd5b50620002b2600480360381019080803573ffffffffffffffffffffffffffffffffffffffff16906020019092919050505062000eff565b005b348015620002c157600080fd5b50620002cc62000f43565b6040518082815260200191505060405180910390f35b348015620002ef57600080fd5b5062000326600480360381019080803573ffffffffffffffffffffffffffffffffffffffff169060200190929190505050620010ba565b005b3480156200033557600080fd5b5062000340620010fe565b604051808273ffffffffffffffffffffffffffffffffffffffff1673ffffffffffffffffffffffffffffffffffffffff16815260200191505060405180910390f35b3480156200038f57600080fd5b50620003c6600480360381019080803573ffffffffffffffffffffffffffffffffffffffff16906020019092919050505062001124565b005b348015620003d557600080fd5b50620003f66004803603810190808035906020019092919050505062001168565b005b3480156200040557600080fd5b5062000446600480360381019080803573ffffffffffffffffffffffffffffffffffffffff16906020019092919080359060200190929190505050620011c6565b604051808215151515815260200191505060405180910390f35b3480156200046d57600080fd5b50620004ae60048036038101908080359060200190929190803573ffffffffffffffffffffffffffffffffffffffff16906020019092919050505062001236565b6040518082815260200191505060405180910390f35b348015620004d157600080fd5b50620004f2600480360381019080803590602001909291905050506200125b565b6040518082815260200191505060405180910390f35b3480156200051557600080fd5b506200052062001276565b604051808273ffffffffffffffffffffffffffffffffffffffff1673ffffffffffffffffffffffffffffffffffffffff16815260200191505060405180910390f35b3480156200056f57600080fd5b50620005a6600480360381019080803573ffffffffffffffffffffffffffffffffffffffff1690602001909291905050506200129c565b005b348015620005b557600080fd5b50620005d660048036038101908080359060200190929190505050620012e0565b005b348015620005e557600080fd5b506200062660048036038101908080359060200190929190803573ffffffffffffffffffffffffffffffffffffffff1690602001909291905050506200133e565b6040518082815260200191505060405180910390f35b3480156200064957600080fd5b506200065462001363565b6040518082815260200191505060405180910390f35b3480156200067757600080fd5b5062000698600480360381019080803590602001909291905050506200142e565b005b348015620006a757600080fd5b50620006e8600480360381019080803573ffffffffffffffffffffffffffffffffffffffff169060200190929190803590602001909291905050506200143e565b005b348015620006f757600080fd5b506200073860048036038101908080359060200190929190803573ffffffffffffffffffffffffffffffffffffffff1690602001909291905050506200166a565b6040518082815260200191505060405180910390f35b3480156200075b57600080fd5b5062000792600480360381019080803573ffffffffffffffffffffffffffffffffffffffff16906020019092919050505062001824565b005b348015620007a157600080fd5b50620007ac62001868565b005b348015620007bb57600080fd5b50620007dc600480360381019080803590602001909291905050506200193f565b6040518082815260200191505060405180910390f35b348015620007ff57600080fd5b506200080a62001957565b604051808273ffffffffffffffffffffffffffffffffffffffff1673ffffffffffffffffffffffffffffffffffffffff16815260200191505060405180910390f35b3480156200085957600080fd5b50620009006004803603810190808035906020019082018035906020019080806020026020016040519081016040528093929190818152602001838360200280828437820191505050505050919291929080359060200190820180359060200190808060200260200160405190810160405280939291908181526020018383602002808284378201915050505050509192919290803590602001909291905050506200197d565b6040518082815260200191505060405180910390f35b3480156200092357600080fd5b506200092e62001a5f565b604051808273ffffffffffffffffffffffffffffffffffffffff1673ffffffffffffffffffffffffffffffffffffffff16815260200191505060405180910390f35b3480156200097d57600080fd5b506200098862001a89565b604051808215151515815260200191505060405180910390f35b348015620009af57600080fd5b50620009d06004803603810190808035906020019092919050505062001ae1565b005b348015620009df57600080fd5b5062000a006004803603810190808035906020019092919050505062001b3f565b6040518082815260200191505060405180910390f35b34801562000a2357600080fd5b5062000a446004803603810190808035906020019092919050505062001bd2565b604051808215151515815260200191505060405180910390f35b34801562000a6b57600080fd5b5062000a8c6004803603810190808035906020019092919050505062001c10565b6040518082815260200191505060405180910390f35b34801562000aaf57600080fd5b5062000ada600480360381019080803590602001909291908035906020019092919050505062001c34565b005b34801562000ae957600080fd5b5062000b0a6004803603810190808035906020019092919050505062001f4a565b005b34801562000b1957600080fd5b5062000b2462001fa8565b604051808273ffffffffffffffffffffffffffffffffffffffff1673ffffffffffffffffffffffffffffffffffffffff16815260200191505060405180910390f35b34801562000b7357600080fd5b5062000b946004803603810190808035906020019092919050505062001fce565b005b34801562000ba357600080fd5b5062000bda600480360381019080803573ffffffffffffffffffffffffffffffffffffffff16906020019092919050505062002093565b005b34801562000be957600080fd5b5062000c2a600480360381019080803573ffffffffffffffffffffffffffffffffffffffff16906020019092919080359060200190929190505050620020d7565b604051808215151515815260200191505060405180910390f35b34801562000c5157600080fd5b5062000c72600480360381019080803590602001909291905050506200214d565b6040518082815260200191505060405180910390f35b34801562000c9557600080fd5b5062000ca062002168565b6040518082815260200191505060405180910390f35b34801562000cc357600080fd5b5062000cce6200216e565b005b34801562000cdd57600080fd5b5062000d3760048036038101908080359060200190820180359060200190808060200260200160405190810160405280939291908181526020018383602002808284378201915050505050509192919290505050620021e0565b6040518080602001828103825283818151815260200191508051906020019060200280838360005b8381101562000d7c57808201518184015260208101905062000d5f565b505050509050019250505060405180910390f35b34801562000d9d57600080fd5b5062000dde60048036038101908080359060200190929190803573ffffffffffffffffffffffffffffffffffffffff16906020019092919050505062002336565b6040518082815260200191505060405180910390f35b34801562000e0157600080fd5b5062000e38600480360381019080803573ffffffffffffffffffffffffffffffffffffffff16906020019092919050505062002390565b005b34801562000e4757600080fd5b5062000e52620023b4565b604051808273ffffffffffffffffffffffffffffffffffffffff1673ffffffffffffffffffffffffffffffffffffffff16815260200191505060405180910390f35b34801562000ea157600080fd5b5062000eac620023da565b604051808273ffffffffffffffffffffffffffffffffffffffff1673ffffffffffffffffffffffffffffffffffffffff16815260200191505060405180910390f35b600062000efa62000f43565b905090565b80600460006101000a81548173ffffffffffffffffffffffffffffffffffffffff021916908373ffffffffffffffffffffffffffffffffffffffff16021790555050565b6000806000600660009054906101000a900473ffffffffffffffffffffffffffffffffffffffff1673ffffffffffffffffffffffffffffffffffffffff1663ef78d4fd6040518163ffffffff167c0100000000000000000000000000000000000000000000000000000000028152600401602060405180830381600087803b15801562000fcf57600080fd5b505af115801562000fe4573d6000803e3d6000fd5b505050506040513d602081101562000ffb57600080fd5b810190808051906020019092919050505091508190508073ffffffffffffffffffffffffffffffffffffffff16637fc15a2e6040518163ffffffff167c0100000000000000000000000000000000000000000000000000000000028152600401602060405180830381600087803b1580156200107657600080fd5b505af11580156200108b573d6000803e3d6000fd5b505050506040513d6020811015620010a257600080fd5b81019080805190602001909291905050509250505090565b80600560006101000a81548173ffffffffffffffffffffffffffffffffffffffff021916908373ffffffffffffffffffffffffffffffffffffffff16021790555050565b600360009054906101000a900473ffffffffffffffffffffffffffffffffffffffff1681565b80600860006101000a81548173ffffffffffffffffffffffffffffffffffffffff021916908373ffffffffffffffffffffffffffffffffffffffff16021790555050565b6200117262001a5f565b73ffffffffffffffffffffffffffffffffffffffff163373ffffffffffffffffffffffffffffffffffffffff16141515620011ac57600080fd5b8060096000600281101515620011be57fe5b018190555050565b60006200122e60016000620011da62000f43565b815260200190815260200160002060008573ffffffffffffffffffffffffffffffffffffffff1673ffffffffffffffffffffffffffffffffffffffff16815260200190815260200160002054830162001bd2565b905092915050565b6000602052816000526040600020602052806000526040600020600091509150505481565b600b816002811015156200126b57fe5b016000915090505481565b600860009054906101000a900473ffffffffffffffffffffffffffffffffffffffff1681565b80600660006101000a81548173ffffffffffffffffffffffffffffffffffffffff021916908373ffffffffffffffffffffffffffffffffffffffff16021790555050565b620012ea62001a5f565b73ffffffffffffffffffffffffffffffffffffffff163373ffffffffffffffffffffffffffffffffffffffff161415156200132457600080fd5b80600b60006002811015156200133657fe5b018190555050565b6001602052816000526040600020602052806000526040600020600091509150505481565b6000600660009054906101000a900473ffffffffffffffffffffffffffffffffffffffff1673ffffffffffffffffffffffffffffffffffffffff16635bf5d54c6040518163ffffffff167c0100000000000000000000000000000000000000000000000000000000028152600401602060405180830381600087803b158015620013ec57600080fd5b505af115801562001401573d6000803e3d6000fd5b505050506040513d60208110156200141857600080fd5b8101908080519060200190929190505050905090565b6200143a338262002400565b5050565b6200144b33838362002586565b15156200145757600080fd5b80600160006200146662000f43565b815260200190815260200160002060003373ffffffffffffffffffffffffffffffffffffffff1673ffffffffffffffffffffffffffffffffffffffff1681526020019081526020016000205410151515620014c057600080fd5b6200152d81600080620014d262000f43565b815260200190815260200160002060008573ffffffffffffffffffffffffffffffffffffffff1673ffffffffffffffffffffffffffffffffffffffff16815260200190815260200160002054620027a490919063ffffffff16565b6000806200153a62000f43565b815260200190815260200160002060008473ffffffffffffffffffffffffffffffffffffffff1673ffffffffffffffffffffffffffffffffffffffff1681526020019081526020016000208190555080600160006200159862000f43565b815260200190815260200160002060003373ffffffffffffffffffffffffffffffffffffffff1673ffffffffffffffffffffffffffffffffffffffff168152602001908152602001600020600082825403925050819055508173ffffffffffffffffffffffffffffffffffffffff163373ffffffffffffffffffffffffffffffffffffffff167f6a92c4ce4cbb892528ab39f7d674be0f6b1579b54ed8e77d95ad506819fd72c8836200164a62000f43565b604051808381526020018281526020019250505060405180910390a35050565b600060606000600e60019054906101000a900460ff1615156200168c57600080fd5b600e60009054906101000a900460ff161515620016a857600080fd5b600d54604051908082528060200260200182016040528015620016da5781602001602082028038833980820191505090505b509150600d54600f80549050141515620016f357600080fd5b600d5482511415156200170557600080fd5b600090505b600d54811015620017b957808510156200173e57600082828151811015156200172f57fe5b90602001906020020181815250505b60008082815260200190815260200160002060008573ffffffffffffffffffffffffffffffffffffffff1673ffffffffffffffffffffffffffffffffffffffff1681526020019081526020016000205482828151811015156200179d57fe5b906020019060200201818152505080806001019150506200170a565b6200181a600f8054806020026020016040519081016040528092919081815260200182805480156200180b57602002820191906000526020600020905b815481526020019060010190808311620017f6575b505050505083600d546200197d565b9250505092915050565b80600760006101000a81548173ffffffffffffffffffffffffffffffffffffffff021916908373ffffffffffffffffffffffffffffffffffffffff16021790555050565b6200187262001a89565b15156200187e57600080fd5b600073ffffffffffffffffffffffffffffffffffffffff16601060009054906101000a900473ffffffffffffffffffffffffffffffffffffffff1673ffffffffffffffffffffffffffffffffffffffff167f8be0079c531659141344cd1fd0a4f28419497f9722a3daafe3b4186f6b6457e060405160405180910390a36000601060006101000a81548173ffffffffffffffffffffffffffffffffffffffff021916908373ffffffffffffffffffffffffffffffffffffffff160217905550565b60026020528060005260406000206000915090505481565b600660009054906101000a900473ffffffffffffffffffffffffffffffffffffffff1681565b6000806000806000806000878a511415156200199857600080fd5b6000955060009450600093506000925088519150600090505b895181101562001a4f57620f424081600184620f42400103031015620019d75762001a41565b88816001840303815181101515620019eb57fe5b906020019060200201519350898181518110151562001a0657fe5b90602001906020020151945062001a278585620027c690919063ffffffff16565b925062001a3e8387620027a490919063ffffffff16565b95505b8080600101915050620019b1565b8596505050505050509392505050565b6000601060009054906101000a900473ffffffffffffffffffffffffffffffffffffffff16905090565b6000601060009054906101000a900473ffffffffffffffffffffffffffffffffffffffff1673ffffffffffffffffffffffffffffffffffffffff163373ffffffffffffffffffffffffffffffffffffffff1614905090565b62001aeb62001a5f565b73ffffffffffffffffffffffffffffffffffffffff163373ffffffffffffffffffffffffffffffffffffffff1614151562001b2557600080fd5b80600b600160028110151562001b3757fe5b018190555050565b600062001b4b62001a5f565b73ffffffffffffffffffffffffffffffffffffffff163373ffffffffffffffffffffffffffffffffffffffff1614151562001b8557600080fd5b6000821415151562001b9657600080fd5b60648210151562001ba657600080fd5b81600d819055506001600e60006101000a81548160ff021916908315150217905550600d549050919050565b60006009600060028110151562001be557fe5b0154821015801562001c0957506009600160028110151562001c0357fe5b01548211155b9050919050565b600f8181548110151562001c2057fe5b906000526020600020016000915090505481565b6000806000600660009054906101000a900473ffffffffffffffffffffffffffffffffffffffff1673ffffffffffffffffffffffffffffffffffffffff1663842652a6866040518263ffffffff167c010000000000000000000000000000000000000000000000000000000002815260040180828152602001915050600060405180830381600087803b15801562001ccb57600080fd5b505af115801562001ce0573d6000803e3d6000fd5b50505050600660009054906101000a900473ffffffffffffffffffffffffffffffffffffffff1673ffffffffffffffffffffffffffffffffffffffff1663842652a6856040518263ffffffff167c010000000000000000000000000000000000000000000000000000000002815260040180828152602001915050600060405180830381600087803b15801562001d7657600080fd5b505af115801562001d8b573d6000803e3d6000fd5b50505050600660009054906101000a900473ffffffffffffffffffffffffffffffffffffffff1673ffffffffffffffffffffffffffffffffffffffff1663ef78d4fd6040518163ffffffff167c0100000000000000000000000000000000000000000000000000000000028152600401602060405180830381600087803b15801562001e1657600080fd5b505af115801562001e2b573d6000803e3d6000fd5b505050506040513d602081101562001e4257600080fd5b810190808051906020019092919050505092508291508173ffffffffffffffffffffffffffffffffffffffff16632bc80f3a6040518163ffffffff167c0100000000000000000000000000000000000000000000000000000000028152600401602060405180830381600087803b15801562001ebd57600080fd5b505af115801562001ed2573d6000803e3d6000fd5b505050506040513d602081101562001ee957600080fd5b810190808051906020019092919050505090507ff369b06e840a30eacc9a6075343f62ef138689a44c1c3ef52cb24e6c692c980481868660405180848152602001838152602001828152602001935050505060405180910390a15050505050565b62001f5462001a5f565b73ffffffffffffffffffffffffffffffffffffffff163373ffffffffffffffffffffffffffffffffffffffff1614151562001f8e57600080fd5b806009600160028110151562001fa057fe5b018190555050565b600460009054906101000a900473ffffffffffffffffffffffffffffffffffffffff1681565b6200200b8162001fdd62002cf5565b80828152602001915050604051809103906000f08015801562002004573d6000803e3d6000fd5b506200129c565b7f42658b2a498dce91d3db246e4ed4447a1bc5fa5a1da50e28259aa03688a3bc11600660009054906101000a900473ffffffffffffffffffffffffffffffffffffffff16604051808273ffffffffffffffffffffffffffffffffffffffff1673ffffffffffffffffffffffffffffffffffffffff16815260200191505060405180910390a150565b80600360006101000a81548173ffffffffffffffffffffffffffffffffffffffff021916908373ffffffffffffffffffffffffffffffffffffffff16021790555050565b6000600860009054906101000a900473ffffffffffffffffffffffffffffffffffffffff1673ffffffffffffffffffffffffffffffffffffffff163373ffffffffffffffffffffffffffffffffffffffff161415156200213657600080fd5b62002142838362002400565b506001905092915050565b6009816002811015156200215d57fe5b016000915090505481565b600d5481565b600073ffffffffffffffffffffffffffffffffffffffff16600073ffffffffffffffffffffffffffffffffffffffff167f6a92c4ce4cbb892528ab39f7d674be0f6b1579b54ed8e77d95ad506819fd72c8426000604051808381526020018281526020019250505060405180910390a3565b60606000620021ee62001a5f565b73ffffffffffffffffffffffffffffffffffffffff163373ffffffffffffffffffffffffffffffffffffffff161415156200222857600080fd5b600d5483511415156200223a57600080fd5b600090505b600d54816fffffffffffffffffffffffffffffffff161015620022c057600f83826fffffffffffffffffffffffffffffffff168151811015156200227f57fe5b90602001906020020151908060018154018082558091505090600182039060005260206000200160009091929091909150555080806001019150506200223f565b6001600e60016101000a81548160ff021916908315150217905550600f8054806020026020016040519081016040528092919081815260200182805480156200232957602002820191906000526020600020905b81548152602001906001019080831162002314575b5050505050915050919050565b600080600084815260200190815260200160002060008373ffffffffffffffffffffffffffffffffffffffff1673ffffffffffffffffffffffffffffffffffffffff16815260200190815260200160002054905092915050565b6200239a62001a89565b1515620023a657600080fd5b620023b18162002808565b50565b600760009054906101000a900473ffffffffffffffffffffffffffffffffffffffff1681565b600560009054906101000a900473ffffffffffffffffffffffffffffffffffffffff1681565b6000806200240d62001363565b1415156200241a57600080fd5b620024268383620011c6565b15156200243257600080fd5b620024476200244062000f43565b8362002905565b15156200245357600080fd5b620024c182600160006200246662000f43565b815260200190815260200160002060003373ffffffffffffffffffffffffffffffffffffffff1673ffffffffffffffffffffffffffffffffffffffff16815260200190815260200160002054620027a490919063ffffffff16565b60016000620024cf62000f43565b815260200190815260200160002060008573ffffffffffffffffffffffffffffffffffffffff1673ffffffffffffffffffffffffffffffffffffffff168152602001908152602001600020819055508273ffffffffffffffffffffffffffffffffffffffff167efaaf3336e5c925e4d3017cc75d38ca026330a20faef146fd24501f98d16cb7836200256062000f43565b604051808381526020018281526020019250505060405180910390a26001905092915050565b6000600460009054906101000a900473ffffffffffffffffffffffffffffffffffffffff1673ffffffffffffffffffffffffffffffffffffffff16633af32abf856040518263ffffffff167c0100000000000000000000000000000000000000000000000000000000028152600401808273ffffffffffffffffffffffffffffffffffffffff1673ffffffffffffffffffffffffffffffffffffffff168152602001915050602060405180830381600087803b1580156200264657600080fd5b505af11580156200265b573d6000803e3d6000fd5b505050506040513d60208110156200267257600080fd5b81019080805190602001909291905050508015620027875750600360009054906101000a900473ffffffffffffffffffffffffffffffffffffffff1673ffffffffffffffffffffffffffffffffffffffff16633af32abf846040518263ffffffff167c0100000000000000000000000000000000000000000000000000000000028152600401808273ffffffffffffffffffffffffffffffffffffffff1673ffffffffffffffffffffffffffffffffffffffff168152602001915050602060405180830381600087803b1580156200274957600080fd5b505af11580156200275e573d6000803e3d6000fd5b505050506040513d60208110156200277557600080fd5b81019080805190602001909291905050505b80156200279b57506200279a8262002cb7565b5b90509392505050565b6000808284019050838110151515620027bc57600080fd5b8091505092915050565b6000806000841415620027dd576000915062002801565b8284029050828482811515620027ef57fe5b04141515620027fd57600080fd5b8091505b5092915050565b600073ffffffffffffffffffffffffffffffffffffffff168173ffffffffffffffffffffffffffffffffffffffff16141515156200284557600080fd5b8073ffffffffffffffffffffffffffffffffffffffff16601060009054906101000a900473ffffffffffffffffffffffffffffffffffffffff1673ffffffffffffffffffffffffffffffffffffffff167f8be0079c531659141344cd1fd0a4f28419497f9722a3daafe3b4186f6b6457e060405160405180910390a380601060006101000a81548173ffffffffffffffffffffffffffffffffffffffff021916908373ffffffffffffffffffffffffffffffffffffffff16021790555050565b6000600560009054906101000a900473ffffffffffffffffffffffffffffffffffffffff1673ffffffffffffffffffffffffffffffffffffffff166323b872dd3330856040518463ffffffff167c0100000000000000000000000000000000000000000000000000000000028152600401808473ffffffffffffffffffffffffffffffffffffffff1673ffffffffffffffffffffffffffffffffffffffff1681526020018373ffffffffffffffffffffffffffffffffffffffff1673ffffffffffffffffffffffffffffffffffffffff1681526020018281526020019350505050602060405180830381600087803b15801562002a0157600080fd5b505af115801562002a16573d6000803e3d6000fd5b505050506040513d602081101562002a2d57600080fd5b8101908080519060200190929190505050151562002a4a57600080fd5b600560009054906101000a900473ffffffffffffffffffffffffffffffffffffffff1673ffffffffffffffffffffffffffffffffffffffff1663095ea7b3600760009054906101000a900473ffffffffffffffffffffffffffffffffffffffff16846040518363ffffffff167c0100000000000000000000000000000000000000000000000000000000028152600401808373ffffffffffffffffffffffffffffffffffffffff1673ffffffffffffffffffffffffffffffffffffffff16815260200182815260200192505050602060405180830381600087803b15801562002b3257600080fd5b505af115801562002b47573d6000803e3d6000fd5b505050506040513d602081101562002b5e57600080fd5b810190808051906020019092919050505050600760009054906101000a900473ffffffffffffffffffffffffffffffffffffffff1673ffffffffffffffffffffffffffffffffffffffff1663e4cca4b084600560009054906101000a900473ffffffffffffffffffffffffffffffffffffffff1630866040518563ffffffff167c0100000000000000000000000000000000000000000000000000000000028152600401808581526020018473ffffffffffffffffffffffffffffffffffffffff1673ffffffffffffffffffffffffffffffffffffffff1681526020018373ffffffffffffffffffffffffffffffffffffffff1673ffffffffffffffffffffffffffffffffffffffff168152602001828152602001945050505050600060405180830381600087803b15801562002c9457600080fd5b505af115801562002ca9573d6000803e3d6000fd5b505050506001905092915050565b6000600b600060028110151562002cca57fe5b0154821015801562002cee5750600b600160028110151562002ce857fe5b01548211155b9050919050565b60405161228b8062002d07833901905600608060405234801561001057600080fd5b5060405160208061228b83398101806040528101908080519060200190929190505050336000806101000a81548173ffffffffffffffffffffffffffffffffffffffff021916908373ffffffffffffffffffffffffffffffffffffffff1602179055506000809054906101000a900473ffffffffffffffffffffffffffffffffffffffff1673ffffffffffffffffffffffffffffffffffffffff16600073ffffffffffffffffffffffffffffffffffffffff167f8be0079c531659141344cd1fd0a4f28419497f9722a3daafe3b4186f6b6457e060405160405180910390a3806100f86101d5565b80828152602001915050604051809103906000f08015801561011e573d6000803e3d6000fd5b50600260006101000a81548173ffffffffffffffffffffffffffffffffffffffff021916908373ffffffffffffffffffffffffffffffffffffffff160217905550806101686101e5565b80828152602001915050604051809103906000f08015801561018e573d6000803e3d6000fd5b50600160006101000a81548173ffffffffffffffffffffffffffffffffffffffff021916908373ffffffffffffffffffffffffffffffffffffffff160217905550506101f5565b604051610b1d80610cb083390190565b604051610abe806117cd83390190565b610aac806102046000396000f300608060405260043610610099576000357c0100000000000000000000000000000000000000000000000000000000900463ffffffff168063138ef1511461009e5780631c5633d7146100f55780635bf5d54c14610122578063715018a61461014d578063842652a6146101645780638da5cb5b146101915780638f32d59b146101e8578063ef78d4fd14610217578063f2fde38b1461026e575b600080fd5b3480156100aa57600080fd5b506100b36102b1565b604051808273ffffffffffffffffffffffffffffffffffffffff1673ffffffffffffffffffffffffffffffffffffffff16815260200191505060405180910390f35b34801561010157600080fd5b50610120600480360381019080803590602001909291905050506102d7565b005b34801561012e57600080fd5b50610137610462565b6040518082815260200191505060405180910390f35b34801561015957600080fd5b50610162610702565b005b34801561017057600080fd5b5061018f600480360381019080803590602001909291905050506107d4565b005b34801561019d57600080fd5b506101a66108c1565b604051808273ffffffffffffffffffffffffffffffffffffffff1673ffffffffffffffffffffffffffffffffffffffff16815260200191505060405180910390f35b3480156101f457600080fd5b506101fd6108ea565b604051808215151515815260200191505060405180910390f35b34801561022357600080fd5b5061022c610941565b604051808273ffffffffffffffffffffffffffffffffffffffff1673ffffffffffffffffffffffffffffffffffffffff16815260200191505060405180910390f35b34801561027a57600080fd5b506102af600480360381019080803573ffffffffffffffffffffffffffffffffffffffff169060200190929190505050610967565b005b600260009054906101000a900473ffffffffffffffffffffffffffffffffffffffff1681565b6102df6108c1565b73ffffffffffffffffffffffffffffffffffffffff163373ffffffffffffffffffffffffffffffffffffffff1614151561031857600080fd5b600260009054906101000a900473ffffffffffffffffffffffffffffffffffffffff1673ffffffffffffffffffffffffffffffffffffffff1663f2a75fe46040518163ffffffff167c0100000000000000000000000000000000000000000000000000000000028152600401600060405180830381600087803b15801561039e57600080fd5b505af11580156103b2573d6000803e3d6000fd5b50505050600160009054906101000a900473ffffffffffffffffffffffffffffffffffffffff1673ffffffffffffffffffffffffffffffffffffffff16631c5633d7826040518263ffffffff167c010000000000000000000000000000000000000000000000000000000002815260040180828152602001915050600060405180830381600087803b15801561044757600080fd5b505af115801561045b573d6000803e3d6000fd5b5050505050565b600080600080600160009054906101000a900473ffffffffffffffffffffffffffffffffffffffff1673ffffffffffffffffffffffffffffffffffffffff1663dd6239fc6040518163ffffffff167c0100000000000000000000000000000000000000000000000000000000028152600401602060405180830381600087803b1580156104ee57600080fd5b505af1158015610502573d6000803e3d6000fd5b505050506040513d602081101561051857600080fd5b81019080805190602001909291905050509250600260009054906101000a900473ffffffffffffffffffffffffffffffffffffffff1673ffffffffffffffffffffffffffffffffffffffff16630ef267436040518163ffffffff167c0100000000000000000000000000000000000000000000000000000000028152600401602060405180830381600087803b1580156105b157600080fd5b505af11580156105c5573d6000803e3d6000fd5b505050506040513d60208110156105db57600080fd5b81019080805190602001909291905050509150600082141561060057600093506106fc565b600090505b818110156106fb57600260009054906101000a900473ffffffffffffffffffffffffffffffffffffffff1673ffffffffffffffffffffffffffffffffffffffff16636f54dce582856040518363ffffffff167c01000000000000000000000000000000000000000000000000000000000281526004018083815260200182815260200192505050602060405180830381600087803b1580156106a657600080fd5b505af11580156106ba573d6000803e3d6000fd5b505050506040513d60208110156106d057600080fd5b8101908080519060200190929190505050156106ee578093506106fc565b8080600101915050610605565b5b50505090565b61070a6108ea565b151561071557600080fd5b600073ffffffffffffffffffffffffffffffffffffffff166000809054906101000a900473ffffffffffffffffffffffffffffffffffffffff1673ffffffffffffffffffffffffffffffffffffffff167f8be0079c531659141344cd1fd0a4f28419497f9722a3daafe3b4186f6b6457e060405160405180910390a360008060006101000a81548173ffffffffffffffffffffffffffffffffffffffff021916908373ffffffffffffffffffffffffffffffffffffffff160217905550565b6107dc6108c1565b73ffffffffffffffffffffffffffffffffffffffff163373ffffffffffffffffffffffffffffffffffffffff1614151561081557600080fd5b600260009054906101000a900473ffffffffffffffffffffffffffffffffffffffff1673ffffffffffffffffffffffffffffffffffffffff1663959ac484826040518263ffffffff167c010000000000000000000000000000000000000000000000000000000002815260040180828152602001915050600060405180830381600087803b1580156108a657600080fd5b505af11580156108ba573d6000803e3d6000fd5b5050505050565b60008060009054906101000a900473ffffffffffffffffffffffffffffffffffffffff16905090565b60008060009054906101000a900473ffffffffffffffffffffffffffffffffffffffff1673ffffffffffffffffffffffffffffffffffffffff163373ffffffffffffffffffffffffffffffffffffffff1614905090565b600160009054906101000a900473ffffffffffffffffffffffffffffffffffffffff1681565b61096f6108ea565b151561097a57600080fd5b61098381610986565b50565b600073ffffffffffffffffffffffffffffffffffffffff168173ffffffffffffffffffffffffffffffffffffffff16141515156109c257600080fd5b8073ffffffffffffffffffffffffffffffffffffffff166000809054906101000a900473ffffffffffffffffffffffffffffffffffffffff1673ffffffffffffffffffffffffffffffffffffffff167f8be0079c531659141344cd1fd0a4f28419497f9722a3daafe3b4186f6b6457e060405160405180910390a3806000806101000a81548173ffffffffffffffffffffffffffffffffffffffff021916908373ffffffffffffffffffffffffffffffffffffffff160217905550505600a165627a7a723058200b7952767f9e26720dd47c56ebb307e08d8d1185a5059ac5040f4aa3a1f283200029608060405234801561001057600080fd5b50604051602080610b1d83398101806040528101908080519060200190929190505050336000806101000a81548173ffffffffffffffffffffffffffffffffffffffff021916908373ffffffffffffffffffffffffffffffffffffffff1602179055506000809054906101000a900473ffffffffffffffffffffffffffffffffffffffff1673ffffffffffffffffffffffffffffffffffffffff16600073ffffffffffffffffffffffffffffffffffffffff167f8be0079c531659141344cd1fd0a4f28419497f9722a3daafe3b4186f6b6457e060405160405180910390a38060048190555050610a17806101066000396000f3006080604052600436106100c5576000357c0100000000000000000000000000000000000000000000000000000000900463ffffffff1680630ef26743146100ca5780632f91f1f4146100f55780634a720f27146101205780635439e423146101615780636f54dce51461018c578063715018a6146101db5780638da5cb5b146101f25780638f32d59b14610249578063959ac48414610278578063a4ece52c146102a5578063b1becf2a146102bc578063f2a75fe4146102fd578063f2fde38b14610314575b600080fd5b3480156100d657600080fd5b506100df610357565b6040518082815260200191505060405180910390f35b34801561010157600080fd5b5061010a610361565b6040518082815260200191505060405180910390f35b34801561012c57600080fd5b5061014b60048036038101908080359060200190929190505050610367565b6040518082815260200191505060405180910390f35b34801561016d57600080fd5b5061017661038a565b6040518082815260200191505060405180910390f35b34801561019857600080fd5b506101c16004803603810190808035906020019092919080359060200190929190505050610390565b604051808215151515815260200191505060405180910390f35b3480156101e757600080fd5b506101f061040b565b005b3480156101fe57600080fd5b506102076104dd565b604051808273ffffffffffffffffffffffffffffffffffffffff1673ffffffffffffffffffffffffffffffffffffffff16815260200191505060405180910390f35b34801561025557600080fd5b5061025e610506565b604051808215151515815260200191505060405180910390f35b34801561028457600080fd5b506102a36004803603810190808035906020019092919050505061055d565b005b3480156102b157600080fd5b506102ba610681565b005b3480156102c857600080fd5b506102e7600480360381019080803590602001909291905050506107e6565b6040518082815260200191505060405180910390f35b34801561030957600080fd5b506103126107fe565b005b34801561032057600080fd5b50610355600480360381019080803573ffffffffffffffffffffffffffffffffffffffff169060200190929190505050610881565b005b6000600554905090565b60045481565b60018181548110151561037657fe5b906000526020600020016000915090505481565b60035481565b6000808314156103be576001838154811015156103a957fe5b90600052602060002001548211159050610405565b60018084038154811015156103cf57fe5b9060005260206000200154821015801561040257506001838154811015156103f357fe5b90600052602060002001548211155b90505b92915050565b610413610506565b151561041e57600080fd5b600073ffffffffffffffffffffffffffffffffffffffff166000809054906101000a900473ffffffffffffffffffffffffffffffffffffffff1673ffffffffffffffffffffffffffffffffffffffff167f8be0079c531659141344cd1fd0a4f28419497f9722a3daafe3b4186f6b6457e060405160405180910390a360008060006101000a81548173ffffffffffffffffffffffffffffffffffffffff021916908373ffffffffffffffffffffffffffffffffffffffff160217905550565b60008060009054906101000a900473ffffffffffffffffffffffffffffffffffffffff16905090565b60008060009054906101000a900473ffffffffffffffffffffffffffffffffffffffff1673ffffffffffffffffffffffffffffffffffffffff163373ffffffffffffffffffffffffffffffffffffffff1614905090565b6105656104dd565b73ffffffffffffffffffffffffffffffffffffffff163373ffffffffffffffffffffffffffffffffffffffff1614151561059e57600080fd5b60045481600354011115151561061c576040517f08c379a00000000000000000000000000000000000000000000000000000000081526004018080602001828103825260128152602001807f424c4f434b5f4e554d5f4f564552464c4f57000000000000000000000000000081525060200191505060405180910390fd5b600181600354019080600181540180825580915050906001820390600052602060002001600090919290919091505550806003600082825401925050819055506005600081548092919060010191905055506004546003541115151561067e57fe5b50565b600061068b6104dd565b73ffffffffffffffffffffffffffffffffffffffff163373ffffffffffffffffffffffffffffffffffffffff161415156106c457600080fd5b6000600180549050111515610741576040517f08c379a000000000000000000000000000000000000000000000000000000000815260040180806020018281038252600d8152602001807f454d5054592053544f524147450000000000000000000000000000000000000081525060200191505060405180910390fd5b60018080805490500381548110151561075657fe5b9060005260206000200154905060018080805490500381548110151561077857fe5b9060005260206000200160009055600180548091906001900361079b919061099a565b50600060018054905014156107bf57600060058190555060006003819055506107e3565b60056000815480929190600190039190505550806003600082825403925050819055505b50565b60026020528060005260406000206000915090505481565b6000806108096104dd565b73ffffffffffffffffffffffffffffffffffffffff163373ffffffffffffffffffffffffffffffffffffffff1614151561084257600080fd5b6001805490509150600090505b8181101561086c5761085f610681565b808060010191505061084f565b600060018054905014151561087d57fe5b5050565b610889610506565b151561089457600080fd5b61089d816108a0565b50565b600073ffffffffffffffffffffffffffffffffffffffff168173ffffffffffffffffffffffffffffffffffffffff16141515156108dc57600080fd5b8073ffffffffffffffffffffffffffffffffffffffff166000809054906101000a900473ffffffffffffffffffffffffffffffffffffffff1673ffffffffffffffffffffffffffffffffffffffff167f8be0079c531659141344cd1fd0a4f28419497f9722a3daafe3b4186f6b6457e060405160405180910390a3806000806101000a81548173ffffffffffffffffffffffffffffffffffffffff021916908373ffffffffffffffffffffffffffffffffffffffff16021790555050565b8154818355818111156109c1578183600052602060002091820191016109c091906109c6565b5b505050565b6109e891905b808211156109e45760008160009055506001016109cc565b5090565b905600a165627a7a72305820b2953083fc28c07d6b36c31d4c089fe8cd9363eda9b904fc35caf58f08fe68240029608060405234801561001057600080fd5b50604051602080610abe83398101806040528101908080519060200190929190505050336000806101000a81548173ffffffffffffffffffffffffffffffffffffffff021916908373ffffffffffffffffffffffffffffffffffffffff1602179055506000809054906101000a900473ffffffffffffffffffffffffffffffffffffffff1673ffffffffffffffffffffffffffffffffffffffff16600073ffffffffffffffffffffffffffffffffffffffff167f8be0079c531659141344cd1fd0a4f28419497f9722a3daafe3b4186f6b6457e060405160405180910390a3600081111515610167576040517f08c379a000000000000000000000000000000000000000000000000000000000815260040180806020018281038252600c8152602001807f454d5054595f504552494f44000000000000000000000000000000000000000081525060200191505060405180910390fd5b436004819055508060018190555050610939806101856000396000f300608060405260043610610107576000357c0100000000000000000000000000000000000000000000000000000000900463ffffffff1680630ef267431461010c5780631c5633d714610137578063262a9dff146101645780632bc80f3a1461018f57806346bf6a55146101ba5780634c1ce7b4146101e55780634d3a67751461021057806355569a2f1461023b578063715018a61461026a578063731b3a03146102815780637fc15a2e146102ac5780638da5cb5b146102d75780638f32d59b1461032e578063a091fd6b1461035d578063b9f7fb291461038a578063be1c766b146103b5578063dd6239fc146103e0578063f2fde38b1461040b578063f866dd821461044e575b600080fd5b34801561011857600080fd5b50610121610479565b6040518082815260200191505060405180910390f35b34801561014357600080fd5b50610162600480360381019080803590602001909291905050506104b2565b005b34801561017057600080fd5b5061017961053d565b6040518082815260200191505060405180910390f35b34801561019b57600080fd5b506101a4610543565b6040518082815260200191505060405180910390f35b3480156101c657600080fd5b506101cf610549565b6040518082815260200191505060405180910390f35b3480156101f157600080fd5b506101fa61054f565b6040518082815260200191505060405180910390f35b34801561021c57600080fd5b50610225610580565b6040518082815260200191505060405180910390f35b34801561024757600080fd5b506102506105b3565b604051808215151515815260200191505060405180910390f35b34801561027657600080fd5b5061027f6105bf565b005b34801561028d57600080fd5b50610296610691565b6040518082815260200191505060405180910390f35b3480156102b857600080fd5b506102c16106ae565b6040518082815260200191505060405180910390f35b3480156102e357600080fd5b506102ec6106bd565b604051808273ffffffffffffffffffffffffffffffffffffffff1673ffffffffffffffffffffffffffffffffffffffff16815260200191505060405180910390f35b34801561033a57600080fd5b506103436106e6565b604051808215151515815260200191505060405180910390f35b34801561036957600080fd5b506103886004803603810190808035906020019092919050505061073d565b005b34801561039657600080fd5b5061039f6107b8565b6040518082815260200191505060405180910390f35b3480156103c157600080fd5b506103ca6107be565b6040518082815260200191505060405180910390f35b3480156103ec57600080fd5b506103f56107dd565b6040518082815260200191505060405180910390f35b34801561041757600080fd5b5061044c600480360381019080803573ffffffffffffffffffffffffffffffffffffffff1690602001909291905050506107ee565b005b34801561045a57600080fd5b5061046361080d565b6040518082815260200191505060405180910390f35b60006104836105b3565b156104925760055490506104af565b60025460055460015460045443038115156104a957fe5b04010190505b90565b60006104bc6106bd565b73ffffffffffffffffffffffffffffffffffffffff163373ffffffffffffffffffffffffffffffffffffffff161415156104f557600080fd5b6104fd610479565b90506001610509610691565b0160048190555080600581905550600260008154809291906001019190505550600154600381905550816001819055505050565b60025481565b60015481565b60045481565b60006105596105b3565b1561056857600554905061057d565b600154600454430381151561057957fe5b0490505b90565b600061058a6105b3565b1561059d576003546004540390506105b0565b6001546105a861054f565b026004540190505b90565b60004360045411905090565b6105c76106e6565b15156105d257600080fd5b600073ffffffffffffffffffffffffffffffffffffffff166000809054906101000a900473ffffffffffffffffffffffffffffffffffffffff1673ffffffffffffffffffffffffffffffffffffffff167f8be0079c531659141344cd1fd0a4f28419497f9722a3daafe3b4186f6b6457e060405160405180910390a360008060006101000a81548173ffffffffffffffffffffffffffffffffffffffff021916908373ffffffffffffffffffffffffffffffffffffffff160217905550565b6000600161069d6107dd565b6106a56107be565b43010303905090565b60006106b8610479565b905090565b60008060009054906101000a900473ffffffffffffffffffffffffffffffffffffffff16905090565b60008060009054906101000a900473ffffffffffffffffffffffffffffffffffffffff1673ffffffffffffffffffffffffffffffffffffffff163373ffffffffffffffffffffffffffffffffffffffff1614905090565b6107456106bd565b73ffffffffffffffffffffffffffffffffffffffff163373ffffffffffffffffffffffffffffffffffffffff1614151561077e57600080fd5b610786610479565b600581905550436004819055506002600081548092919060010191905055506001546003819055508060018190555050565b60035481565b60004360045411156107d45760035490506107da565b60015490505b90565b60006107e7610580565b4303905090565b6107f66106e6565b151561080157600080fd5b61080a81610813565b50565b60055481565b600073ffffffffffffffffffffffffffffffffffffffff168173ffffffffffffffffffffffffffffffffffffffff161415151561084f57600080fd5b8073ffffffffffffffffffffffffffffffffffffffff166000809054906101000a900473ffffffffffffffffffffffffffffffffffffffff1673ffffffffffffffffffffffffffffffffffffffff167f8be0079c531659141344cd1fd0a4f28419497f9722a3daafe3b4186f6b6457e060405160405180910390a3806000806101000a81548173ffffffffffffffffffffffffffffffffffffffff021916908373ffffffffffffffffffffffffffffffffffffffff160217905550505600a165627a7a72305820372d40861bbf64feed035719e796768ea154b03fcfa75ac66ea3cb8c0e71a7380029a165627a7a723058209a631df03d72ae4b3fc7fc8f914c6bfe82b979e0fcaf3a6d9be15872705931f20029",
  "source": "pragma solidity ^0.4.24;\n\nimport \"./TRLStorage.sol\";\nimport \"./TRLInterface.sol\";\nimport \"openzeppelin-solidity/contracts/math/SafeMath.sol\";\nimport \"openzeppelin-solidity/contracts/token/ERC20/ERC20.sol\";\nimport \"@frontier-token-research/role-registries/contracts/Registry.sol\";\nimport \"@frontier-token-research/role-registries/contracts/OwnedRegistryFactory.sol\";\nimport \"@frontier-token-research/cron/contracts/Period.sol\";\nimport \"@frontier-token-research/cron/contracts/PeriodicStages.sol\";\n\n\n/**\n* A Token Ranked List (TRL) enables voting with staked tokens periodically, over a registry of candidates, and sets the compensation of the candidates based on previous interactions \n**/\n\ncontract TRL is TRLStorage, Ownable, TRLInterface {\n    using SafeMath for uint256;\n    /**\n    * @dev Initializes a new period, by creating a new instance of Periodic Stages contract (https://github.com/Frontier-project/cron) \n    * If not set, the TRL will not be periodic. When set, different states will be stored indexed by periods.\n    * @param _T Period that is about to be set\n    **/\n\n    function initPeriod(uint256 _T) public {\n        setPeriodicStages(address(new PeriodicStages(_T)));\n        emit PeriodicStagesCreated(periodicStages);\n    }\n\n    /**\n    * @dev Initializes a set of states inside a period, that will repeat periodically.\n    * @param _activeTime  Temporal epoch when the Smart Contract is set as \"Active\", most of the interactions inside the period will come here\n    * @param _claimTime  Temporal epoch where participants can claim their compensation based on the interactions mader on activeTime\n    * TODO: Generalize to a general number of periods.\n    **/\n\n    function initStages(uint256 _activeTime, uint256 _claimTime) public {  \n        periodicStages.pushStage(_activeTime);\n        periodicStages.pushStage(_claimTime);\n        address periodAddress = periodicStages.period();\n        Period period = Period(periodAddress);\n        uint256 T = period.T(); \n        emit PeriodInit(T, _activeTime, _claimTime);\n    }\n\n    /**\n    * @dev Exchanges the main token for an amount of votes\n    * @param _amount Amount of votes that the voter wants to buy\n    * NOTE: Requires previous allowance of expenditure of at least the amount required, right now 1:1 exchange used\n    **/\n\n    function buyTokenVotes(uint256 _amount) external {\n        _votePayment(msg.sender, _amount);\n    }\n\n    /**\n    * @dev Exchanges the main token for an amount of votes\n    * @param _amount Amount of votes that the voter wants to buy\n    * NOTE: Requires previous allowance of expenditure of at least the amount required, right now 1:1 exchange used\n    **/\n\n    function executeSubscription(address _account, uint256 _amount) external returns (bool success) {\n        require(msg.sender == subscriptionAddress);\n        _votePayment(_account, _amount);\n        return true;\n    }\n\n    /**\n    * @dev Adds a new vote for a candidate\n    * @param _candidateAddress address of the candidate selected\n    * @param _amount of votes used\n    **/\n\n    function vote(address _candidateAddress, uint256 _amount) external {\n        require(canVote(msg.sender, _candidateAddress, _amount));\n        require(votesBalance[height()][msg.sender] >= _amount);\n        votesReceived[height()][_candidateAddress] = votesReceived[height()][_candidateAddress].add(_amount);\n        votesBalance[height()][msg.sender] -= _amount;\n        emit Vote(msg.sender, _candidateAddress, _amount, height());\n    }\n\n    /*\n    * @dev Sets the minimum stake to participate in a period \n    * @param _minimumStakeAmount minimum stake to be added\n    **/\n\n    function setMinimumStake(uint256 _minimumStakeAmount) public {\n        require(msg.sender == owner());\n        stakingConstraints[0] = _minimumStakeAmount;\n    }\n\n    /*\n    * @dev Sets the minimum stake to participate in a period \n    * @param _minimumStakeAmount minimum stake to be added\n    **/\n\n    function setMaximumStake(uint256 _maximumStakeAmount) public {\n        require(msg.sender == owner());\n        stakingConstraints[1] = _maximumStakeAmount;\n    }\n\n    /*\n    * @dev Sets a voting limit to allocate to one candidate\n    * @param _minimumStakeAmount minimum stake to be added\n    **/\n\n    function setMinVotingLimit(uint256 _minVoteAmount) public {\n        require(msg.sender == owner());\n        votingConstraints[0] = _minVoteAmount; \n    }\n\n    /*\n    * @dev Sets a voting limit to allocate to one candidate\n    * @param _minimumStakeAmount minimum stake to be added\n    **/\n\n    function setMaxVotingLimit(uint256 _maxVoteAmount) public {\n        require(msg.sender == owner());\n        votingConstraints[1] = _maxVoteAmount; \n    }\n\n       /**\n    * @dev Sets the reputation calculation Window Size\n    * @param _windowSize Size of the window\n    **/\n\n    function setWindowSize(uint256 _windowSize) public returns (uint256) {\n        require(msg.sender == owner());\n        require(_windowSize != 0);\n        require(_windowSize < 100);\n\n        reputationWindowSize = _windowSize;\n        reputationWindowSizeSet = true;\n        return reputationWindowSize;\n\n    }\n\n    /**\n    * @dev Sets the Linear Weights used to Calculate the reputation\n    * @param _weights uint256[]\n    **/\n\n    function setReputationLinWeights(uint256[] _weights) public returns (uint256[]) { \n        require(msg.sender == owner());\n        require(_weights.length == reputationWindowSize);\n\n        for(uint128 i = 0; i < reputationWindowSize; i++){\n            repWeights.push(_weights[i]);\n        }\n\n        reputationWeightsSet = true;\n        return repWeights;\n    }\n\n    /**\n    * @dev Calculates the Scoring given an address in the current epoch\n    * @param _epoch Epoch where the query is made\n    * @param _account Account that is required to get the scoring\n    **/\n\n    function scoring(uint256 _epoch, address _account) public view returns (uint256) {\n        return votesReceived[_epoch][_account];\n    }\n\n    /**\n    * @dev Calculates the Reputation given an address in the current epoch\n    * @param _epoch Epoch where the query is made\n    * @param _account Account that is requirexd to get the reputation\n    **/\n\n    function reputation(uint256 _epoch, address _account) public view returns (uint256) {\n        require(reputationWeightsSet);\n        require(reputationWindowSizeSet);\n        uint256[] memory votes = new uint256[](reputationWindowSize);\n\n        require(repWeights.length == reputationWindowSize); // if window size was changed\n        require(votes.length == reputationWindowSize);\n\n        for(uint i = 0; i < reputationWindowSize; i++) {\n            if(_epoch<i){\n                votes[i] = 0;\n            }\n             votes[i]=  votesReceived[i][_account];\n        }\n\n        return weightedScore(repWeights,votes, reputationWindowSize);\n    }\n\n     /**\n    * @dev Returns the current period number, by calling the period Lib\n    * NOTICE: In deprecation process\n    **/\n\n    function currentPeriod() public view returns(uint256) { \n        return height();\n    }\n\n    /**\n    * @dev Returns the current period number, by calling the period Lib\n    **/\n\n    function height() public view returns(uint256) { \n        address periodAddress = periodicStages.period();\n        Period period = Period(periodAddress);\n        return period.getPeriodNumber();\n    }\n    \n    /**\n    * @dev Returns the current stage number, by calling the PeriodicStages lib\n    **/\n\n    function currentStage() public view returns(uint256) {\n        return periodicStages.currentStage();\n    }\n         \n    /**\n    * @dev Returns true if the given _sender can vote for a given _receiver\n    * @param _sender Account of the voter that is checked\n    * @param _receiver Account of the candidate to be voted\n    * @return true if the user can vote and the receiver is a candidate\n    **/\n\n    function canVote(\n        address _sender, \n        address _receiver,\n        uint256 _amount) \n        internal view returns (bool) \n    { \n        return voterRegistry.isWhitelisted(_sender) &&\n        candidateRegistry.isWhitelisted(_receiver) && \n        voteInsideConstraints(_amount); \n    }\n\n    /**\n    * @dev Returns true if the given _sender stake an amount of tokens\n    * @param _sender Account of the voter that is checked\n    * @param _amount Amount that is attempted to stake\n    * @return true if the user can vote and the receiver is a candidate\n    **/\n\n    function canStake(\n        address _sender, \n        uint256 _amount) \n        public view returns (bool) \n    {\n        return (stakeInsideConstraints(_amount + votesBalance[height()][_sender]));\n\n    }\n\n    /**\n    * @dev Returns true if the given _amount is insidse the TRL constraints\n    * @param _amount Account of the voter that is checked\n    * @return true if the amount of votes is inside the constraints set\n    **/\n\n    function stakeInsideConstraints(\n        uint256 _amount) \n        public view returns (bool) \n    { \n        return _amount >= stakingConstraints[0] &&\n        _amount <= stakingConstraints[1];\n    }\n\n    /**\n    * @dev Returns true if the given _amount is insidse the TRL constraints\n    * @param _amount Account of the voter that is checked\n    * @return true if the amount of votes is inside the constraints set\n    **/\n\n    function voteInsideConstraints(\n        uint256 _amount) \n        internal view returns (bool) \n    { \n        return _amount >= votingConstraints[0] &&\n        _amount <= votingConstraints[1];\n    }\n\n    /**\n    * @dev Calculates historical score, in a given epoch\n    * @param _weights Array of weights to be used to calculate the score\n    * @param _pastScores Array of past scores for the current user\n    **/\n\n    function weightedScore(uint256[] _weights, uint256[] _pastScores, uint256 _windowSize) public pure returns(uint256) {\n        require(_weights.length == _windowSize);\n\n        uint256 score = 0;\n        uint256 currWeight = 0;\n        uint256 currScore = 0;\n        uint256 currWeightedScore = 0;\n        uint256 lastEpoch = _pastScores.length;\n\n        for(uint i = 0; i < _weights.length; i++) {\n            \n            if(1000000 + lastEpoch - 1 -i < 1000000){\n                continue;\n            }\n            currScore = _pastScores[lastEpoch - 1 - i];\n            currWeight = _weights[i];\n            currWeightedScore = currScore.mul(currWeight);\n            score = score.add(currWeightedScore);\n        }\n        return score;\n    }\n\n    /**\n    * @dev Deposits an specified amount to a secure deposit\n    * @param _voterAddress Account that will receive votes in exchange of a payment\n    * @param _amount Total amount received in the subscription\n    */\n\n    function _votePayment(address _voterAddress, uint256 _amount) internal returns (bool success) {\n        require(currentStage() == 0);\n        require(canStake(_voterAddress, _amount));\n        require(_deposit(height(), _amount));\n        votesBalance[height()][_voterAddress] = votesBalance[height()][msg.sender].add(_amount);\n        emit VotesBought(_voterAddress, _amount, height());\n        return true;\n    }\n    /**\n    * @dev Deposits an specified amount to a secure deposit\n    * @param _vaultID Number of the vault where the tokens should go\n    * @param _amount amount of tokens to be deposited in a vault\n    */\n\n    function _deposit(uint256 _vaultID, uint256 _amount) internal returns (bool success) {\n        require(token.transferFrom(msg.sender, this, _amount));\n        token.approve(address(vault), _amount);\n        vault.deposit(_vaultID, address(token), this, _amount);\n        return true;\n    }\n\n    /**\n    * @dev Function that issues a test event. This is used to test the\n    *      trl-listener infrastructure\n    */\n\n    function launchTestEvent() public{\n        emit Vote(address(0), address(0),block.timestamp, 0);\n    }\n}\n",
  "sourcePath": "/Users/boss/git/frontier/trl-project/TRL/contracts/TRL.sol",
  "compiler": {
    "name": "solc",
    "version": "0.4.24+commit.e67f0147.Emscripten.clang"
  },
  "schemaVersion": "2.0.1",
  "updatedAt": "2018-11-13T20:25:13.586Z"
}