{
  "contractName": "TRLStorage",
  "abi": [
    {
      "constant": true,
      "inputs": [],
      "name": "candidateRegistry",
      "outputs": [
        {
          "name": "",
          "type": "address"
        }
      ],
      "payable": false,
      "stateMutability": "view",
      "type": "function"
    },
    {
      "constant": true,
      "inputs": [
        {
          "name": "",
          "type": "uint256"
        },
        {
          "name": "",
          "type": "address"
        }
      ],
      "name": "votesReceived",
      "outputs": [
        {
          "name": "",
          "type": "uint256"
        }
      ],
      "payable": false,
      "stateMutability": "view",
      "type": "function"
    },
    {
      "constant": true,
      "inputs": [
        {
          "name": "",
          "type": "uint256"
        }
      ],
      "name": "votingConstraints",
      "outputs": [
        {
          "name": "",
          "type": "uint256"
        }
      ],
      "payable": false,
      "stateMutability": "view",
      "type": "function"
    },
    {
      "constant": true,
      "inputs": [
        {
          "name": "",
          "type": "uint256"
        },
        {
          "name": "",
          "type": "address"
        }
      ],
      "name": "votesBalance",
      "outputs": [
        {
          "name": "",
          "type": "uint256"
        }
      ],
      "payable": false,
      "stateMutability": "view",
      "type": "function"
    },
    {
      "constant": true,
      "inputs": [],
      "name": "scoring",
      "outputs": [
        {
          "name": "",
          "type": "address"
        }
      ],
      "payable": false,
      "stateMutability": "view",
      "type": "function"
    },
    {
      "constant": true,
      "inputs": [],
      "name": "periodicStages",
      "outputs": [
        {
          "name": "",
          "type": "address"
        }
      ],
      "payable": false,
      "stateMutability": "view",
      "type": "function"
    },
    {
      "constant": true,
      "inputs": [],
      "name": "voterRegistry",
      "outputs": [
        {
          "name": "",
          "type": "address"
        }
      ],
      "payable": false,
      "stateMutability": "view",
      "type": "function"
    },
    {
      "constant": true,
      "inputs": [
        {
          "name": "",
          "type": "uint256"
        }
      ],
      "name": "stakingConstraints",
      "outputs": [
        {
          "name": "",
          "type": "uint256"
        }
      ],
      "payable": false,
      "stateMutability": "view",
      "type": "function"
    },
    {
      "constant": true,
      "inputs": [],
      "name": "token",
      "outputs": [
        {
          "name": "",
          "type": "address"
        }
      ],
      "payable": false,
      "stateMutability": "view",
      "type": "function"
    },
    {
      "constant": false,
      "inputs": [
        {
          "name": "_contractAddress",
          "type": "address"
        }
      ],
      "name": "setCandidateRegistry",
      "outputs": [],
      "payable": false,
      "stateMutability": "nonpayable",
      "type": "function"
    },
    {
      "constant": false,
      "inputs": [
        {
          "name": "_contractAddress",
          "type": "address"
        }
      ],
      "name": "setVoterRegistry",
      "outputs": [],
      "payable": false,
      "stateMutability": "nonpayable",
      "type": "function"
    },
    {
      "constant": false,
      "inputs": [
        {
          "name": "_contractAddress",
          "type": "address"
        }
      ],
      "name": "setToken",
      "outputs": [],
      "payable": false,
      "stateMutability": "nonpayable",
      "type": "function"
    },
    {
      "constant": false,
      "inputs": [
        {
          "name": "_contractAddress",
          "type": "address"
        }
      ],
      "name": "setPeriodicStages",
      "outputs": [],
      "payable": false,
      "stateMutability": "nonpayable",
      "type": "function"
    },
    {
      "constant": false,
      "inputs": [
        {
          "name": "_contractAddress",
          "type": "address"
        }
      ],
      "name": "setScoring",
      "outputs": [],
      "payable": false,
      "stateMutability": "nonpayable",
      "type": "function"
    },
    {
      "constant": true,
      "inputs": [],
      "name": "getCandidateRegistry",
      "outputs": [
        {
          "name": "",
          "type": "address"
        }
      ],
      "payable": false,
      "stateMutability": "view",
      "type": "function"
    },
    {
      "constant": true,
      "inputs": [],
      "name": "getVoterRegistry",
      "outputs": [
        {
          "name": "",
          "type": "address"
        }
      ],
      "payable": false,
      "stateMutability": "view",
      "type": "function"
    },
    {
      "constant": true,
      "inputs": [],
      "name": "getToken",
      "outputs": [
        {
          "name": "",
          "type": "address"
        }
      ],
      "payable": false,
      "stateMutability": "view",
      "type": "function"
    },
    {
      "constant": true,
      "inputs": [],
      "name": "getPeriodicStages",
      "outputs": [
        {
          "name": "",
          "type": "address"
        }
      ],
      "payable": false,
      "stateMutability": "view",
      "type": "function"
    },
    {
      "constant": true,
      "inputs": [],
      "name": "getMinStaking",
      "outputs": [
        {
          "name": "",
          "type": "uint256"
        }
      ],
      "payable": false,
      "stateMutability": "view",
      "type": "function"
    },
    {
      "constant": true,
      "inputs": [],
      "name": "getMaxStaking",
      "outputs": [
        {
          "name": "",
          "type": "uint256"
        }
      ],
      "payable": false,
      "stateMutability": "view",
      "type": "function"
    },
    {
      "constant": true,
      "inputs": [],
      "name": "getLimits",
      "outputs": [
        {
          "name": "",
          "type": "uint256[2]"
        }
      ],
      "payable": false,
      "stateMutability": "view",
      "type": "function"
    },
    {
      "constant": true,
      "inputs": [],
      "name": "getScoring",
      "outputs": [
        {
          "name": "",
          "type": "address"
        }
      ],
      "payable": false,
      "stateMutability": "view",
      "type": "function"
    }
  ],
  "bytecode": "0x60806040526040805190810160405280600060ff16815260200160fd60ff168152506008906002610031929190610072565b506040805190810160405280600060ff16815260200160fd60ff16815250600a90600261005f929190610072565b5034801561006c57600080fd5b506100dc565b82600281019282156100a6579160200282015b828111156100a5578251829060ff16905591602001919060010190610085565b5b5090506100b391906100b7565b5090565b6100d991905b808211156100d55760008160009055506001016100bd565b5090565b90565b610bfc806100eb6000396000f300608060405260043610610128576000357c0100000000000000000000000000000000000000000000000000000000900463ffffffff1680630ad303421461012d578063144fa6d71461017057806319de0477146101b357806321df0da71461020a57806333dd6bed146102615780633c84107f146102c25780635521b96f146103035780635706d0ec146103465780635aaa4040146103a75780636451db61146103d25780636f89e409146104295780637545ea8a1461047c57806378def4ab146104d35780637f8b76971461052a57806381c8a8c414610581578063889addf1146105d8578063ab0854c71461062f578063af6af2ff14610672578063be60040e1461069d578063c2546665146106f4578063dac93e1b14610737578063fc0c546a14610778575b600080fd5b34801561013957600080fd5b5061016e600480360381019080803573ffffffffffffffffffffffffffffffffffffffff1690602001909291905050506107cf565b005b34801561017c57600080fd5b506101b1600480360381019080803573ffffffffffffffffffffffffffffffffffffffff169060200190929190505050610813565b005b3480156101bf57600080fd5b506101c8610857565b604051808273ffffffffffffffffffffffffffffffffffffffff1673ffffffffffffffffffffffffffffffffffffffff16815260200191505060405180910390f35b34801561021657600080fd5b5061021f61087d565b604051808273ffffffffffffffffffffffffffffffffffffffff1673ffffffffffffffffffffffffffffffffffffffff16815260200191505060405180910390f35b34801561026d57600080fd5b506102ac60048036038101908080359060200190929190803573ffffffffffffffffffffffffffffffffffffffff1690602001909291905050506108a7565b6040518082815260200191505060405180910390f35b3480156102ce57600080fd5b506102ed600480360381019080803590602001909291905050506108cc565b6040518082815260200191505060405180910390f35b34801561030f57600080fd5b50610344600480360381019080803573ffffffffffffffffffffffffffffffffffffffff1690602001909291905050506108e6565b005b34801561035257600080fd5b5061039160048036038101908080359060200190929190803573ffffffffffffffffffffffffffffffffffffffff16906020019092919050505061092a565b6040518082815260200191505060405180910390f35b3480156103b357600080fd5b506103bc61094f565b6040518082815260200191505060405180910390f35b3480156103de57600080fd5b506103e7610968565b604051808273ffffffffffffffffffffffffffffffffffffffff1673ffffffffffffffffffffffffffffffffffffffff16815260200191505060405180910390f35b34801561043557600080fd5b5061043e610992565b6040518082600260200280838360005b8381101561046957808201518184015260208101905061044e565b5050505090500191505060405180910390f35b34801561048857600080fd5b506104916109dd565b604051808273ffffffffffffffffffffffffffffffffffffffff1673ffffffffffffffffffffffffffffffffffffffff16815260200191505060405180910390f35b3480156104df57600080fd5b506104e8610a03565b604051808273ffffffffffffffffffffffffffffffffffffffff1673ffffffffffffffffffffffffffffffffffffffff16815260200191505060405180910390f35b34801561053657600080fd5b5061053f610a2d565b604051808273ffffffffffffffffffffffffffffffffffffffff1673ffffffffffffffffffffffffffffffffffffffff16815260200191505060405180910390f35b34801561058d57600080fd5b50610596610a57565b604051808273ffffffffffffffffffffffffffffffffffffffff1673ffffffffffffffffffffffffffffffffffffffff16815260200191505060405180910390f35b3480156105e457600080fd5b506105ed610a7d565b604051808273ffffffffffffffffffffffffffffffffffffffff1673ffffffffffffffffffffffffffffffffffffffff16815260200191505060405180910390f35b34801561063b57600080fd5b50610670600480360381019080803573ffffffffffffffffffffffffffffffffffffffff169060200190929190505050610aa7565b005b34801561067e57600080fd5b50610687610aeb565b6040518082815260200191505060405180910390f35b3480156106a957600080fd5b506106b2610b04565b604051808273ffffffffffffffffffffffffffffffffffffffff1673ffffffffffffffffffffffffffffffffffffffff16815260200191505060405180910390f35b34801561070057600080fd5b50610735600480360381019080803573ffffffffffffffffffffffffffffffffffffffff169060200190929190505050610b2a565b005b34801561074357600080fd5b5061076260048036038101908080359060200190929190505050610b6e565b6040518082815260200191505060405180910390f35b34801561078457600080fd5b5061078d610b88565b604051808273ffffffffffffffffffffffffffffffffffffffff1673ffffffffffffffffffffffffffffffffffffffff16815260200191505060405180910390f35b80600460006101000a81548173ffffffffffffffffffffffffffffffffffffffff021916908373ffffffffffffffffffffffffffffffffffffffff16021790555050565b80600560006101000a81548173ffffffffffffffffffffffffffffffffffffffff021916908373ffffffffffffffffffffffffffffffffffffffff16021790555050565b600360009054906101000a900473ffffffffffffffffffffffffffffffffffffffff1681565b6000600560009054906101000a900473ffffffffffffffffffffffffffffffffffffffff16905090565b6000602052816000526040600020602052806000526040600020600091509150505481565b600a816002811015156108db57fe5b016000915090505481565b80600760006101000a81548173ffffffffffffffffffffffffffffffffffffffff021916908373ffffffffffffffffffffffffffffffffffffffff16021790555050565b6001602052816000526040600020602052806000526040600020600091509150505481565b60006008600160028110151561096157fe5b0154905090565b6000600660009054906101000a900473ffffffffffffffffffffffffffffffffffffffff16905090565b61099a610bae565b60086002806020026040519081016040528092919082600280156109d3576020028201915b8154815260200190600101908083116109bf575b5050505050905090565b600660009054906101000a900473ffffffffffffffffffffffffffffffffffffffff1681565b6000600760009054906101000a900473ffffffffffffffffffffffffffffffffffffffff16905090565b6000600460009054906101000a900473ffffffffffffffffffffffffffffffffffffffff16905090565b600760009054906101000a900473ffffffffffffffffffffffffffffffffffffffff1681565b6000600360009054906101000a900473ffffffffffffffffffffffffffffffffffffffff16905090565b80600660006101000a81548173ffffffffffffffffffffffffffffffffffffffff021916908373ffffffffffffffffffffffffffffffffffffffff16021790555050565b600060086000600281101515610afd57fe5b0154905090565b600460009054906101000a900473ffffffffffffffffffffffffffffffffffffffff1681565b80600360006101000a81548173ffffffffffffffffffffffffffffffffffffffff021916908373ffffffffffffffffffffffffffffffffffffffff16021790555050565b600881600281101515610b7d57fe5b016000915090505481565b600560009054906101000a900473ffffffffffffffffffffffffffffffffffffffff1681565b60408051908101604052806002906020820280388339808201915050905050905600a165627a7a72305820b36dddc15b9f91584b3eef7288d339093356c8b8ff8afd9f73864d2f79cad94c0029",
  "source": "pragma solidity ^0.4.24;\n    \nimport \"openzeppelin-solidity/contracts/token/ERC20/StandardToken.sol\";\nimport \"@frontier-token-research/role-registries/contracts/Registry.sol\";\nimport \"@frontier-token-research/cron/contracts/PeriodicStages.sol\";\nimport \"./scoring/ScoringInterface.sol\";\n\ncontract TRLStorage {\n    \n    mapping (uint256 => mapping(address => uint256)) public votesReceived;\n    mapping (uint256 => mapping(address => uint256)) public votesBalance;\n    mapping (uint256 => uint256) totalPeriodVotes;\n    \n    // Registry of candidates to be voted\n    Registry public candidateRegistry;\n \n    // Registry of candidates allowed to vote\n    Registry public voterRegistry;\n\n    // Master Token, used to buy votes\n    StandardToken public token;\n\n    // Scoring Function\n    ScoringInterface public scoring;\n\n    // Stages that come periodically \n    PeriodicStages public periodicStages;\n\n    // Minimum stake to participate in the period, 0 by default\n    uint256[2] public stakingConstraints = [0, 2^256 -1];\n\n    // Array setting up the limits when voting [min_amount, Max_amount]\n    uint256[2] public votingConstraints = [0, 2^256 -1];\n\n    /** Setters **/\n\n    /**\n    * @dev Sets a new candidate registry address\n    * @param _contractAddress new contract address to be set\n    */\n\n    function setCandidateRegistry(address _contractAddress) public {\n        candidateRegistry = Registry(_contractAddress);\n    }\n\n    /**\n    * @dev Sets a new voter registry address\n    * @param _contractAddress new contract address to be set\n    */\n\n    function setVoterRegistry(address _contractAddress) public {\n        voterRegistry = Registry(_contractAddress);\n    }\n\n    /**\n    * @dev Sets a new token address\n    * @param _contractAddress new contract address to be set\n    */\n\n    function setToken(address _contractAddress) public {\n        token = StandardToken(_contractAddress);\n    }\n\n    /**\n    * @dev Sets a new periodic stages address\n    * @param _contractAddress new contract address to be set\n    */\n\n    function setPeriodicStages(address _contractAddress) public {\n        periodicStages = PeriodicStages(_contractAddress);\n    }\n\n    /**\n    * @dev Sets a new periodic stages address\n\n    */\n\n    function setScoring(address _contractAddress) public {\n        scoring = ScoringInterface(_contractAddress);\n    }\n\n    /**\n    * @dev Sets a new candidate registry address\n    */\n\n    /** Getters */\n\n    function getCandidateRegistry() public view returns (address) {\n        return address(candidateRegistry);\n    }\n\n    /**\n    * @dev Sets a new voter registry address\n    */\n\n    function getVoterRegistry() public view returns (address) {\n        return address(voterRegistry);\n    }\n\n    /**\n    * @dev Sets a new token address\n    */\n\n    function getToken() public view returns (address) {\n        return address(token);\n    }\n\n    /**\n    * @dev Sets a new periodic stages address\n    */\n\n    function getPeriodicStages() public view returns (address) {\n         return address(periodicStages);\n    }\n\n    function getMinStaking() public view returns (uint256){\n        return stakingConstraints[0];\n    }\n\n    function getMaxStaking() public view returns (uint256){\n        return stakingConstraints[1];\n    } \n\n    function getLimits() public view returns(uint256[2]){\n        return stakingConstraints;\n    }\n\n    /**\n    * @dev Sets a new periodic stages address\n    */\n\n    function getScoring() public view returns (address) {\n        return address(scoring);\n    }\n}",
  "sourcePath": "/Users/carlosbuendia/Documents/Projects/consensys/Frontier/TRL/contracts/TRLStorage.sol",
  "compiler": {
    "name": "solc",
    "version": "0.4.24+commit.e67f0147.Emscripten.clang"
  },
  "schemaVersion": "2.0.0",
  "updatedAt": "2018-08-20T21:25:46.664Z"
}