{
  "contractName": "TRLStorage",
  "abi": [
    {
      "constant": true,
      "inputs": [],
      "name": "candidateRegistry",
      "outputs": [
        {
          "name": "",
          "type": "address"
        }
      ],
      "payable": false,
      "stateMutability": "view",
      "type": "function"
    },
    {
      "constant": true,
      "inputs": [
        {
          "name": "",
          "type": "uint256"
        },
        {
          "name": "",
          "type": "address"
        }
      ],
      "name": "votesReceived",
      "outputs": [
        {
          "name": "",
          "type": "uint256"
        }
      ],
      "payable": false,
      "stateMutability": "view",
      "type": "function"
    },
    {
      "constant": true,
      "inputs": [
        {
          "name": "",
          "type": "uint256"
        }
      ],
      "name": "votingConstraints",
      "outputs": [
        {
          "name": "",
          "type": "uint256"
        }
      ],
      "payable": false,
      "stateMutability": "view",
      "type": "function"
    },
    {
      "constant": true,
      "inputs": [
        {
          "name": "",
          "type": "uint256"
        },
        {
          "name": "",
          "type": "address"
        }
      ],
      "name": "votesBalance",
      "outputs": [
        {
          "name": "",
          "type": "uint256"
        }
      ],
      "payable": false,
      "stateMutability": "view",
      "type": "function"
    },
    {
      "constant": true,
      "inputs": [],
      "name": "periodicStages",
      "outputs": [
        {
          "name": "",
          "type": "address"
        }
      ],
      "payable": false,
      "stateMutability": "view",
      "type": "function"
    },
    {
      "constant": true,
      "inputs": [],
      "name": "voterRegistry",
      "outputs": [
        {
          "name": "",
          "type": "address"
        }
      ],
      "payable": false,
      "stateMutability": "view",
      "type": "function"
    },
    {
      "constant": true,
      "inputs": [
        {
          "name": "",
          "type": "uint256"
        }
      ],
      "name": "stakingConstraints",
      "outputs": [
        {
          "name": "",
          "type": "uint256"
        }
      ],
      "payable": false,
      "stateMutability": "view",
      "type": "function"
    },
    {
      "constant": true,
      "inputs": [],
      "name": "token",
      "outputs": [
        {
          "name": "",
          "type": "address"
        }
      ],
      "payable": false,
      "stateMutability": "view",
      "type": "function"
    }
  ],
  "bytecode": "0x60806040526040805190810160405280600060ff16815260200160fd60ff168152506007906002610031929190610072565b506040805190810160405280600060ff16815260200160fd60ff16815250600990600261005f929190610072565b5034801561006c57600080fd5b506100dc565b82600281019282156100a6579160200282015b828111156100a5578251829060ff16905591602001919060010190610085565b5b5090506100b391906100b7565b5090565b6100d991905b808211156100d55760008160009055506001016100bd565b5090565b90565b610475806100eb6000396000f30060806040526004361061008e576000357c0100000000000000000000000000000000000000000000000000000000900463ffffffff16806319de04771461009357806333dd6bed146100ea5780633c84107f1461014b5780635706d0ec1461018c57806381c8a8c4146101ed578063be60040e14610244578063dac93e1b1461029b578063fc0c546a146102dc575b600080fd5b34801561009f57600080fd5b506100a8610333565b604051808273ffffffffffffffffffffffffffffffffffffffff1673ffffffffffffffffffffffffffffffffffffffff16815260200191505060405180910390f35b3480156100f657600080fd5b5061013560048036038101908080359060200190929190803573ffffffffffffffffffffffffffffffffffffffff169060200190929190505050610359565b6040518082815260200191505060405180910390f35b34801561015757600080fd5b506101766004803603810190808035906020019092919050505061037e565b6040518082815260200191505060405180910390f35b34801561019857600080fd5b506101d760048036038101908080359060200190929190803573ffffffffffffffffffffffffffffffffffffffff169060200190929190505050610398565b6040518082815260200191505060405180910390f35b3480156101f957600080fd5b506102026103bd565b604051808273ffffffffffffffffffffffffffffffffffffffff1673ffffffffffffffffffffffffffffffffffffffff16815260200191505060405180910390f35b34801561025057600080fd5b506102596103e3565b604051808273ffffffffffffffffffffffffffffffffffffffff1673ffffffffffffffffffffffffffffffffffffffff16815260200191505060405180910390f35b3480156102a757600080fd5b506102c660048036038101908080359060200190929190505050610409565b6040518082815260200191505060405180910390f35b3480156102e857600080fd5b506102f1610423565b604051808273ffffffffffffffffffffffffffffffffffffffff1673ffffffffffffffffffffffffffffffffffffffff16815260200191505060405180910390f35b600360009054906101000a900473ffffffffffffffffffffffffffffffffffffffff1681565b6000602052816000526040600020602052806000526040600020600091509150505481565b60098160028110151561038d57fe5b016000915090505481565b6001602052816000526040600020602052806000526040600020600091509150505481565b600660009054906101000a900473ffffffffffffffffffffffffffffffffffffffff1681565b600460009054906101000a900473ffffffffffffffffffffffffffffffffffffffff1681565b60078160028110151561041857fe5b016000915090505481565b600560009054906101000a900473ffffffffffffffffffffffffffffffffffffffff16815600a165627a7a72305820954b54e414255c632c2adcdd7e6ed6e99b423316b9f14b3843d14db92666e1270029",
  "source": "pragma solidity ^0.4.24;\n    \nimport \"openzeppelin-solidity/contracts/token/ERC20/StandardToken.sol\";\nimport \"@frontier-token-research/role-registries/contracts/Registry.sol\";\nimport \"@frontier-token-research/cron/contracts/PeriodicStages.sol\";\n\n\ncontract TRLStorage {\n\n    mapping (uint256 => mapping(address => uint256)) public votesReceived;\n    mapping (uint256 => mapping(address => uint256)) public votesBalance;\n    mapping (uint256 => uint256) totalPeriodVotes;\n    \n    // Registry of candidates to be voted\n    Registry public candidateRegistry;\n \n    // Registry of candidates allowed to vote\n    Registry public voterRegistry;\n\n    // Master Token, used to buy votes\n    StandardToken public token;\n\n    // Stages that come periodically \n    PeriodicStages public periodicStages;\n\n    // Minimum stake to participate in the period, 0 by default\n    uint256[2] public stakingConstraints = [0, 2^256 -1];\n\n    // Array setting up the limits when voting [min_amount, Max_amount]\n    uint256[2] public votingConstraints = [0, 2^256 -1];\n    \n}",
  "sourcePath": "/Users/carlosbuendia/Documents/Projects/consensys/Frontier/TRL/contracts/TRLStorage.sol",
  "compiler": {
    "name": "solc",
    "version": "0.4.24+commit.e67f0147.Emscripten.clang"
  },
  "schemaVersion": "2.0.0",
  "updatedAt": "2018-08-15T16:37:56.389Z"
}