{
  "contractName": "TRLStorage",
  "abi": [
    {
      "constant": true,
      "inputs": [],
      "name": "candidateRegistry",
      "outputs": [
        {
          "name": "",
          "type": "address"
        }
      ],
      "payable": false,
      "stateMutability": "view",
      "type": "function"
    },
    {
      "constant": true,
      "inputs": [
        {
          "name": "",
          "type": "uint256"
        },
        {
          "name": "",
          "type": "address"
        }
      ],
      "name": "votesReceived",
      "outputs": [
        {
          "name": "",
          "type": "uint256"
        }
      ],
      "payable": false,
      "stateMutability": "view",
      "type": "function"
    },
    {
      "constant": true,
      "inputs": [
        {
          "name": "",
          "type": "uint256"
        }
      ],
      "name": "votingConstraints",
      "outputs": [
        {
          "name": "",
          "type": "uint256"
        }
      ],
      "payable": false,
      "stateMutability": "view",
      "type": "function"
    },
    {
      "constant": true,
      "inputs": [
        {
          "name": "",
          "type": "uint256"
        },
        {
          "name": "",
          "type": "address"
        }
      ],
      "name": "votesBalance",
      "outputs": [
        {
          "name": "",
          "type": "uint256"
        }
      ],
      "payable": false,
      "stateMutability": "view",
      "type": "function"
    },
    {
      "constant": true,
      "inputs": [],
      "name": "periodicStages",
      "outputs": [
        {
          "name": "",
          "type": "address"
        }
      ],
      "payable": false,
      "stateMutability": "view",
      "type": "function"
    },
    {
      "constant": true,
      "inputs": [
        {
          "name": "",
          "type": "uint256"
        }
      ],
      "name": "repWeights",
      "outputs": [
        {
          "name": "",
          "type": "uint256"
        }
      ],
      "payable": false,
      "stateMutability": "view",
      "type": "function"
    },
    {
      "constant": true,
      "inputs": [],
      "name": "voterRegistry",
      "outputs": [
        {
          "name": "",
          "type": "address"
        }
      ],
      "payable": false,
      "stateMutability": "view",
      "type": "function"
    },
    {
      "constant": true,
      "inputs": [
        {
          "name": "",
          "type": "uint256"
        }
      ],
      "name": "stakingConstraints",
      "outputs": [
        {
          "name": "",
          "type": "uint256"
        }
      ],
      "payable": false,
      "stateMutability": "view",
      "type": "function"
    },
    {
      "constant": true,
      "inputs": [],
      "name": "reputationWindowSize",
      "outputs": [
        {
          "name": "",
          "type": "uint256"
        }
      ],
      "payable": false,
      "stateMutability": "view",
      "type": "function"
    },
    {
      "constant": true,
      "inputs": [],
      "name": "token",
      "outputs": [
        {
          "name": "",
          "type": "address"
        }
      ],
      "payable": false,
      "stateMutability": "view",
      "type": "function"
    },
    {
      "constant": false,
      "inputs": [
        {
          "name": "_contractAddress",
          "type": "address"
        }
      ],
      "name": "setCandidateRegistry",
      "outputs": [],
      "payable": false,
      "stateMutability": "nonpayable",
      "type": "function"
    },
    {
      "constant": false,
      "inputs": [
        {
          "name": "_contractAddress",
          "type": "address"
        }
      ],
      "name": "setVoterRegistry",
      "outputs": [],
      "payable": false,
      "stateMutability": "nonpayable",
      "type": "function"
    },
    {
      "constant": false,
      "inputs": [
        {
          "name": "_contractAddress",
          "type": "address"
        }
      ],
      "name": "setToken",
      "outputs": [],
      "payable": false,
      "stateMutability": "nonpayable",
      "type": "function"
    },
    {
      "constant": false,
      "inputs": [
        {
          "name": "_contractAddress",
          "type": "address"
        }
      ],
      "name": "setPeriodicStages",
      "outputs": [],
      "payable": false,
      "stateMutability": "nonpayable",
      "type": "function"
    }
  ],
  "bytecode": "0x60806040526040805190810160405280600060ff16815260200160fd60ff1681525060079060026100319291906100ad565b506040805190810160405280600060ff16815260200160fd60ff16815250600990600261005f9291906100ad565b506000600b556001600c60006101000a81548160ff0219169083151502179055506000600c60016101000a81548160ff0219169083151502179055503480156100a757600080fd5b50610117565b82600281019282156100e1579160200282015b828111156100e0578251829060ff169055916020019190600101906100c0565b5b5090506100ee91906100f2565b5090565b61011491905b808211156101105760008160009055506001016100f8565b5090565b90565b610768806101266000396000f3006080604052600436106100d0576000357c0100000000000000000000000000000000000000000000000000000000900463ffffffff1680630ad30342146100d5578063144fa6d71461011857806319de04771461015b57806333dd6bed146101b25780633c84107f146102135780635521b96f146102545780635706d0ec1461029757806381c8a8c4146102f8578063b2a565511461034f578063be60040e14610390578063c2546665146103e7578063dac93e1b1461042a578063e43c80961461046b578063fc0c546a14610496575b600080fd5b3480156100e157600080fd5b50610116600480360381019080803573ffffffffffffffffffffffffffffffffffffffff1690602001909291905050506104ed565b005b34801561012457600080fd5b50610159600480360381019080803573ffffffffffffffffffffffffffffffffffffffff169060200190929190505050610531565b005b34801561016757600080fd5b50610170610575565b604051808273ffffffffffffffffffffffffffffffffffffffff1673ffffffffffffffffffffffffffffffffffffffff16815260200191505060405180910390f35b3480156101be57600080fd5b506101fd60048036038101908080359060200190929190803573ffffffffffffffffffffffffffffffffffffffff16906020019092919050505061059b565b6040518082815260200191505060405180910390f35b34801561021f57600080fd5b5061023e600480360381019080803590602001909291905050506105c0565b6040518082815260200191505060405180910390f35b34801561026057600080fd5b50610295600480360381019080803573ffffffffffffffffffffffffffffffffffffffff1690602001909291905050506105da565b005b3480156102a357600080fd5b506102e260048036038101908080359060200190929190803573ffffffffffffffffffffffffffffffffffffffff16906020019092919050505061061e565b6040518082815260200191505060405180910390f35b34801561030457600080fd5b5061030d610643565b604051808273ffffffffffffffffffffffffffffffffffffffff1673ffffffffffffffffffffffffffffffffffffffff16815260200191505060405180910390f35b34801561035b57600080fd5b5061037a60048036038101908080359060200190929190505050610669565b6040518082815260200191505060405180910390f35b34801561039c57600080fd5b506103a561068c565b604051808273ffffffffffffffffffffffffffffffffffffffff1673ffffffffffffffffffffffffffffffffffffffff16815260200191505060405180910390f35b3480156103f357600080fd5b50610428600480360381019080803573ffffffffffffffffffffffffffffffffffffffff1690602001909291905050506106b2565b005b34801561043657600080fd5b50610455600480360381019080803590602001909291905050506106f6565b6040518082815260200191505060405180910390f35b34801561047757600080fd5b50610480610710565b6040518082815260200191505060405180910390f35b3480156104a257600080fd5b506104ab610716565b604051808273ffffffffffffffffffffffffffffffffffffffff1673ffffffffffffffffffffffffffffffffffffffff16815260200191505060405180910390f35b80600460006101000a81548173ffffffffffffffffffffffffffffffffffffffff021916908373ffffffffffffffffffffffffffffffffffffffff16021790555050565b80600560006101000a81548173ffffffffffffffffffffffffffffffffffffffff021916908373ffffffffffffffffffffffffffffffffffffffff16021790555050565b600360009054906101000a900473ffffffffffffffffffffffffffffffffffffffff1681565b6000602052816000526040600020602052806000526040600020600091509150505481565b6009816002811015156105cf57fe5b016000915090505481565b80600660006101000a81548173ffffffffffffffffffffffffffffffffffffffff021916908373ffffffffffffffffffffffffffffffffffffffff16021790555050565b6001602052816000526040600020602052806000526040600020600091509150505481565b600660009054906101000a900473ffffffffffffffffffffffffffffffffffffffff1681565b600d8181548110151561067857fe5b906000526020600020016000915090505481565b600460009054906101000a900473ffffffffffffffffffffffffffffffffffffffff1681565b80600360006101000a81548173ffffffffffffffffffffffffffffffffffffffff021916908373ffffffffffffffffffffffffffffffffffffffff16021790555050565b60078160028110151561070557fe5b016000915090505481565b600b5481565b600560009054906101000a900473ffffffffffffffffffffffffffffffffffffffff16815600a165627a7a72305820a6edc1d362e019e880c7a6e177989aa2a16179adc71f134a8f9edb2992ff791b0029",
  "source": "pragma solidity ^0.4.24;\n    \nimport \"openzeppelin-solidity/contracts/token/ERC20/StandardToken.sol\";\nimport \"@frontier-token-research/role-registries/contracts/Registry.sol\";\nimport \"@frontier-token-research/cron/contracts/PeriodicStages.sol\";\n\ncontract TRLStorage {\n\n    mapping (uint256 => mapping(address => uint256)) public votesReceived;\n    mapping (uint256 => mapping(address => uint256)) public votesBalance;\n    mapping (uint256 => uint256) totalPeriodVotes;\n    \n    // Registry of candidates to be voted\n    Registry public candidateRegistry;\n \n    // Registry of candidates allowed to vote\n    Registry public voterRegistry;\n\n    // Master Token, used to buy votes\n    StandardToken public token;\n\n    // Stages that come periodically \n    PeriodicStages public periodicStages;\n\n    // Minimum stake to participate in the period, 0 by default\n    uint256[2] public stakingConstraints = [0, 2^256 -1];\n\n    // Array setting up the limits when voting [min_amount, Max_amount]\n    uint256[2] public votingConstraints = [0, 2^256 -1];\n\n    uint256 public reputationWindowSize = 0; // set zero\n    bool reputationWindowSizeSet = true; // set false\n    \n    //uint256[] repWeights = new uint256[](reputationWindowSize);\n    \n    bool reputationWeightsSet = false;\n    uint256[] public repWeights;\n\n    /** Setters **/\n\n    /**\n    * @dev Sets a new candidate registry address\n    * @param _contractAddress new contract address to be set\n    */\n\n    function setCandidateRegistry(address _contractAddress) public {\n        candidateRegistry = Registry(_contractAddress);\n    }\n\n    /**\n    * @dev Sets a new voter registry address\n    * @param _contractAddress new contract address to be set\n    */\n\n    function setVoterRegistry(address _contractAddress) public {\n        voterRegistry = Registry(_contractAddress);\n    }\n\n    /**\n    * @dev Sets a new token address\n    * @param _contractAddress new contract address to be set\n    */\n\n    function setToken(address _contractAddress) public {\n        token = StandardToken(_contractAddress);\n    }\n\n    /**\n    * @dev Sets a new periodic stages address\n    * @param _contractAddress new contract address to be set\n    */\n\n    function setPeriodicStages(address _contractAddress) public {\n        periodicStages = PeriodicStages(_contractAddress);\n    }\n\n}",
  "sourcePath": "/Users/boss/git/frontier/trl-project/TRL/contracts/TRLStorage.sol",
  "compiler": {
    "name": "solc",
    "version": "0.4.24+commit.e67f0147.Emscripten.clang"
  },
  "schemaVersion": "2.0.1",
  "updatedAt": "2018-09-16T14:25:05.261Z"
}