{
  "contractName": "TRLStorage",
  "abi": [
    {
      "constant": true,
      "inputs": [
        {
          "name": "",
          "type": "uint256"
        }
      ],
      "name": "poolAmount",
      "outputs": [
        {
          "name": "",
          "type": "uint256"
        }
      ],
      "payable": false,
      "stateMutability": "view",
      "type": "function"
    },
    {
      "constant": true,
      "inputs": [],
      "name": "candidateRegistry",
      "outputs": [
        {
          "name": "",
          "type": "address"
        }
      ],
      "payable": false,
      "stateMutability": "view",
      "type": "function"
    },
    {
      "constant": true,
      "inputs": [
        {
          "name": "",
          "type": "uint256"
        },
        {
          "name": "",
          "type": "address"
        }
      ],
      "name": "votesReceived",
      "outputs": [
        {
          "name": "",
          "type": "uint256"
        }
      ],
      "payable": false,
      "stateMutability": "view",
      "type": "function"
    },
    {
      "constant": true,
      "inputs": [
        {
          "name": "",
          "type": "uint256"
        }
      ],
      "name": "votingConstraints",
      "outputs": [
        {
          "name": "",
          "type": "uint256"
        }
      ],
      "payable": false,
      "stateMutability": "view",
      "type": "function"
    },
    {
      "constant": true,
      "inputs": [
        {
          "name": "",
          "type": "uint256"
        },
        {
          "name": "",
          "type": "address"
        }
      ],
      "name": "votesBalance",
      "outputs": [
        {
          "name": "",
          "type": "uint256"
        }
      ],
      "payable": false,
      "stateMutability": "view",
      "type": "function"
    },
    {
      "constant": true,
      "inputs": [
        {
          "name": "",
          "type": "uint256"
        }
      ],
      "name": "totalEpochVotes",
      "outputs": [
        {
          "name": "",
          "type": "uint256"
        }
      ],
      "payable": false,
      "stateMutability": "view",
      "type": "function"
    },
    {
      "constant": true,
      "inputs": [],
      "name": "periodicStages",
      "outputs": [
        {
          "name": "",
          "type": "address"
        }
      ],
      "payable": false,
      "stateMutability": "view",
      "type": "function"
    },
    {
      "constant": true,
      "inputs": [
        {
          "name": "",
          "type": "uint256"
        }
      ],
      "name": "repWeights",
      "outputs": [
        {
          "name": "",
          "type": "uint256"
        }
      ],
      "payable": false,
      "stateMutability": "view",
      "type": "function"
    },
    {
      "constant": true,
      "inputs": [],
      "name": "voterRegistry",
      "outputs": [
        {
          "name": "",
          "type": "address"
        }
      ],
      "payable": false,
      "stateMutability": "view",
      "type": "function"
    },
    {
      "constant": true,
      "inputs": [
        {
          "name": "",
          "type": "uint256"
        }
      ],
      "name": "stakingConstraints",
      "outputs": [
        {
          "name": "",
          "type": "uint256"
        }
      ],
      "payable": false,
      "stateMutability": "view",
      "type": "function"
    },
    {
      "constant": true,
      "inputs": [],
      "name": "reputationWindowSize",
      "outputs": [
        {
          "name": "",
          "type": "uint256"
        }
      ],
      "payable": false,
      "stateMutability": "view",
      "type": "function"
    },
    {
      "constant": true,
      "inputs": [],
      "name": "token",
      "outputs": [
        {
          "name": "",
          "type": "address"
        }
      ],
      "payable": false,
      "stateMutability": "view",
      "type": "function"
    },
    {
      "constant": false,
      "inputs": [
        {
          "name": "_contractAddress",
          "type": "address"
        }
      ],
      "name": "setCandidateRegistry",
      "outputs": [],
      "payable": false,
      "stateMutability": "nonpayable",
      "type": "function"
    },
    {
      "constant": false,
      "inputs": [
        {
          "name": "_contractAddress",
          "type": "address"
        }
      ],
      "name": "setVoterRegistry",
      "outputs": [],
      "payable": false,
      "stateMutability": "nonpayable",
      "type": "function"
    },
    {
      "constant": false,
      "inputs": [
        {
          "name": "_contractAddress",
          "type": "address"
        }
      ],
      "name": "setToken",
      "outputs": [],
      "payable": false,
      "stateMutability": "nonpayable",
      "type": "function"
    },
    {
      "constant": false,
      "inputs": [
        {
          "name": "_contractAddress",
          "type": "address"
        }
      ],
      "name": "setPeriodicStages",
      "outputs": [],
      "payable": false,
      "stateMutability": "nonpayable",
      "type": "function"
    }
  ],
  "bytecode": "0x60806040526040805190810160405280600060ff16815260200160fd60ff1681525060099060026100319291906100ad565b506040805190810160405280600060ff16815260200160fd60ff16815250600b90600261005f9291906100ad565b506000600d556001600e60006101000a81548160ff0219169083151502179055506000600e60016101000a81548160ff0219169083151502179055503480156100a757600080fd5b50610117565b82600281019282156100e1579160200282015b828111156100e0578251829060ff169055916020019190600101906100c0565b5b5090506100ee91906100f2565b5090565b61011491905b808211156101105760008160009055506001016100f8565b5090565b90565b610830806101266000396000f3006080604052600436106100e6576000357c0100000000000000000000000000000000000000000000000000000000900463ffffffff16806302159497146100eb5780630ad303421461012c578063144fa6d71461016f57806319de0477146101b257806333dd6bed146102095780633c84107f1461026a5780635521b96f146102ab5780635706d0ec146102ee57806373300f8f1461034f57806381c8a8c414610390578063b2a56551146103e7578063be60040e14610428578063c25466651461047f578063dac93e1b146104c2578063e43c809614610503578063fc0c546a1461052e575b600080fd5b3480156100f757600080fd5b5061011660048036038101908080359060200190929190505050610585565b6040518082815260200191505060405180910390f35b34801561013857600080fd5b5061016d600480360381019080803573ffffffffffffffffffffffffffffffffffffffff16906020019092919050505061059d565b005b34801561017b57600080fd5b506101b0600480360381019080803573ffffffffffffffffffffffffffffffffffffffff1690602001909291905050506105e1565b005b3480156101be57600080fd5b506101c7610625565b604051808273ffffffffffffffffffffffffffffffffffffffff1673ffffffffffffffffffffffffffffffffffffffff16815260200191505060405180910390f35b34801561021557600080fd5b5061025460048036038101908080359060200190929190803573ffffffffffffffffffffffffffffffffffffffff16906020019092919050505061064b565b6040518082815260200191505060405180910390f35b34801561027657600080fd5b5061029560048036038101908080359060200190929190505050610670565b6040518082815260200191505060405180910390f35b3480156102b757600080fd5b506102ec600480360381019080803573ffffffffffffffffffffffffffffffffffffffff16906020019092919050505061068a565b005b3480156102fa57600080fd5b5061033960048036038101908080359060200190929190803573ffffffffffffffffffffffffffffffffffffffff1690602001909291905050506106ce565b6040518082815260200191505060405180910390f35b34801561035b57600080fd5b5061037a600480360381019080803590602001909291905050506106f3565b6040518082815260200191505060405180910390f35b34801561039c57600080fd5b506103a561070b565b604051808273ffffffffffffffffffffffffffffffffffffffff1673ffffffffffffffffffffffffffffffffffffffff16815260200191505060405180910390f35b3480156103f357600080fd5b5061041260048036038101908080359060200190929190505050610731565b6040518082815260200191505060405180910390f35b34801561043457600080fd5b5061043d610754565b604051808273ffffffffffffffffffffffffffffffffffffffff1673ffffffffffffffffffffffffffffffffffffffff16815260200191505060405180910390f35b34801561048b57600080fd5b506104c0600480360381019080803573ffffffffffffffffffffffffffffffffffffffff16906020019092919050505061077a565b005b3480156104ce57600080fd5b506104ed600480360381019080803590602001909291905050506107be565b6040518082815260200191505060405180910390f35b34801561050f57600080fd5b506105186107d8565b6040518082815260200191505060405180910390f35b34801561053a57600080fd5b506105436107de565b604051808273ffffffffffffffffffffffffffffffffffffffff1673ffffffffffffffffffffffffffffffffffffffff16815260200191505060405180910390f35b60036020528060005260406000206000915090505481565b80600660006101000a81548173ffffffffffffffffffffffffffffffffffffffff021916908373ffffffffffffffffffffffffffffffffffffffff16021790555050565b80600760006101000a81548173ffffffffffffffffffffffffffffffffffffffff021916908373ffffffffffffffffffffffffffffffffffffffff16021790555050565b600560009054906101000a900473ffffffffffffffffffffffffffffffffffffffff1681565b6000602052816000526040600020602052806000526040600020600091509150505481565b600b8160028110151561067f57fe5b016000915090505481565b80600860006101000a81548173ffffffffffffffffffffffffffffffffffffffff021916908373ffffffffffffffffffffffffffffffffffffffff16021790555050565b6001602052816000526040600020602052806000526040600020600091509150505481565b60046020528060005260406000206000915090505481565b600860009054906101000a900473ffffffffffffffffffffffffffffffffffffffff1681565b600f8181548110151561074057fe5b906000526020600020016000915090505481565b600660009054906101000a900473ffffffffffffffffffffffffffffffffffffffff1681565b80600560006101000a81548173ffffffffffffffffffffffffffffffffffffffff021916908373ffffffffffffffffffffffffffffffffffffffff16021790555050565b6009816002811015156107cd57fe5b016000915090505481565b600d5481565b600760009054906101000a900473ffffffffffffffffffffffffffffffffffffffff16815600a165627a7a723058202729ebad96d8ac16e0890f80dba6555d5a112361eef16b7060dcd07a500065090029",
  "source": "pragma solidity ^0.4.24;\n    \nimport \"openzeppelin-solidity/contracts/token/ERC20/StandardToken.sol\";\nimport \"@frontier-token-research/role-registries/contracts/Registry.sol\";\nimport \"@frontier-token-research/cron/contracts/PeriodicStages.sol\";\n\ncontract TRLStorage {\n\n    mapping (uint256 => mapping(address => uint256)) public votesReceived;\n    mapping (uint256 => mapping(address => uint256)) public votesBalance;\n    mapping (uint256 => mapping(address => bool)) compensationClaimed;\n    mapping (uint256 => uint256) public poolAmount;\n    mapping (uint256 => uint256) public totalEpochVotes;\n\n    \n    // Registry of candidates to be voted\n    Registry public candidateRegistry;\n \n    // Registry of candidates allowed to vote\n    Registry public voterRegistry;\n\n    // Master Token, used to buy votes\n    StandardToken public token;\n\n    // Stages that come periodically \n    PeriodicStages public periodicStages;\n\n    // Minimum stake to participate in the period, 0 by default\n    uint256[2] public stakingConstraints = [0, 2^256 -1];\n\n    // Array setting up the limits when voting [min_amount, Max_amount]\n    uint256[2] public votingConstraints = [0, 2^256 -1];\n\n    uint256 public reputationWindowSize = 0; \n    bool reputationWindowSizeSet = true;\n    bool reputationWeightsSet = false;\n    uint256[] public repWeights;\n\n    /** Setters **/\n\n\n    /**\n    * @dev Sets a new candidate registry address\n    * @param _contractAddress new contract address to be set\n    */\n\n    function setCandidateRegistry(address _contractAddress) public {\n        candidateRegistry = Registry(_contractAddress);\n    }\n\n    /**\n    * @dev Sets a new voter registry address\n    * @param _contractAddress new contract address to be set\n    */\n\n    function setVoterRegistry(address _contractAddress) public {\n        voterRegistry = Registry(_contractAddress);\n    }\n\n    /**\n    * @dev Sets a new token address\n    * @param _contractAddress new contract address to be set\n    */\n\n    function setToken(address _contractAddress) public {\n        token = StandardToken(_contractAddress);\n    }\n\n    /**\n    * @dev Sets a new periodic stages address\n    * @param _contractAddress new contract address to be set\n    */\n\n    function setPeriodicStages(address _contractAddress) public {\n        periodicStages = PeriodicStages(_contractAddress);\n    }\n\n}",
  "sourcePath": "/Users/carlosbuendia/Documents/Projects/consensys/Frontier/TRL/contracts/TRLStorage.sol",
  "compiler": {
    "name": "solc",
    "version": "0.4.24+commit.e67f0147.Emscripten.clang"
  },
  "schemaVersion": "2.0.0",
  "updatedAt": "2018-09-24T10:55:42.216Z"
}