{
  "contractName": "TRLStorage",
  "abi": [
    {
      "constant": true,
      "inputs": [],
      "name": "candidateRegistry",
      "outputs": [
        {
          "name": "",
          "type": "address"
        }
      ],
      "payable": false,
      "stateMutability": "view",
      "type": "function"
    },
    {
      "constant": true,
      "inputs": [
        {
          "name": "",
          "type": "uint256"
        },
        {
          "name": "",
          "type": "address"
        }
      ],
      "name": "votesReceived",
      "outputs": [
        {
          "name": "",
          "type": "uint256"
        }
      ],
      "payable": false,
      "stateMutability": "view",
      "type": "function"
    },
    {
      "constant": true,
      "inputs": [
        {
          "name": "",
          "type": "uint256"
        }
      ],
      "name": "votingConstraints",
      "outputs": [
        {
          "name": "",
          "type": "uint256"
        }
      ],
      "payable": false,
      "stateMutability": "view",
      "type": "function"
    },
    {
      "constant": true,
      "inputs": [
        {
          "name": "",
          "type": "uint256"
        },
        {
          "name": "",
          "type": "address"
        }
      ],
      "name": "votesBalance",
      "outputs": [
        {
          "name": "",
          "type": "uint256"
        }
      ],
      "payable": false,
      "stateMutability": "view",
      "type": "function"
    },
    {
      "constant": true,
      "inputs": [],
      "name": "periodicStages",
      "outputs": [
        {
          "name": "",
          "type": "address"
        }
      ],
      "payable": false,
      "stateMutability": "view",
      "type": "function"
    },
    {
      "constant": true,
      "inputs": [],
      "name": "voterRegistry",
      "outputs": [
        {
          "name": "",
          "type": "address"
        }
      ],
      "payable": false,
      "stateMutability": "view",
      "type": "function"
    },
    {
      "constant": true,
      "inputs": [
        {
          "name": "",
          "type": "uint256"
        }
      ],
      "name": "stakingConstraints",
      "outputs": [
        {
          "name": "",
          "type": "uint256"
        }
      ],
      "payable": false,
      "stateMutability": "view",
      "type": "function"
    },
    {
      "constant": true,
      "inputs": [],
      "name": "token",
      "outputs": [
        {
          "name": "",
          "type": "address"
        }
      ],
      "payable": false,
      "stateMutability": "view",
      "type": "function"
    },
    {
      "constant": false,
      "inputs": [
        {
          "name": "_contractAddress",
          "type": "address"
        }
      ],
      "name": "setCandidateRegistry",
      "outputs": [],
      "payable": false,
      "stateMutability": "nonpayable",
      "type": "function"
    },
    {
      "constant": false,
      "inputs": [
        {
          "name": "_contractAddress",
          "type": "address"
        }
      ],
      "name": "setVoterRegistry",
      "outputs": [],
      "payable": false,
      "stateMutability": "nonpayable",
      "type": "function"
    },
    {
      "constant": false,
      "inputs": [
        {
          "name": "_contractAddress",
          "type": "address"
        }
      ],
      "name": "setToken",
      "outputs": [],
      "payable": false,
      "stateMutability": "nonpayable",
      "type": "function"
    },
    {
      "constant": false,
      "inputs": [
        {
          "name": "_contractAddress",
          "type": "address"
        }
      ],
      "name": "setPeriodicStages",
      "outputs": [],
      "payable": false,
      "stateMutability": "nonpayable",
      "type": "function"
    }
  ],
  "bytecode": "0x60806040526040805190810160405280600060ff16815260200160fd60ff168152506007906002610031929190610072565b506040805190810160405280600060ff16815260200160fd60ff16815250600990600261005f929190610072565b5034801561006c57600080fd5b506100dc565b82600281019282156100a6579160200282015b828111156100a5578251829060ff16905591602001919060010190610085565b5b5090506100b391906100b7565b5090565b6100d991905b808211156100d55760008160009055506001016100bd565b5090565b90565b6106bd806100eb6000396000f3006080604052600436106100ba576000357c0100000000000000000000000000000000000000000000000000000000900463ffffffff1680630ad30342146100bf578063144fa6d71461010257806319de04771461014557806333dd6bed1461019c5780633c84107f146101fd5780635521b96f1461023e5780635706d0ec1461028157806381c8a8c4146102e2578063be60040e14610339578063c254666514610390578063dac93e1b146103d3578063fc0c546a14610414575b600080fd5b3480156100cb57600080fd5b50610100600480360381019080803573ffffffffffffffffffffffffffffffffffffffff16906020019092919050505061046b565b005b34801561010e57600080fd5b50610143600480360381019080803573ffffffffffffffffffffffffffffffffffffffff1690602001909291905050506104af565b005b34801561015157600080fd5b5061015a6104f3565b604051808273ffffffffffffffffffffffffffffffffffffffff1673ffffffffffffffffffffffffffffffffffffffff16815260200191505060405180910390f35b3480156101a857600080fd5b506101e760048036038101908080359060200190929190803573ffffffffffffffffffffffffffffffffffffffff169060200190929190505050610519565b6040518082815260200191505060405180910390f35b34801561020957600080fd5b506102286004803603810190808035906020019092919050505061053e565b6040518082815260200191505060405180910390f35b34801561024a57600080fd5b5061027f600480360381019080803573ffffffffffffffffffffffffffffffffffffffff169060200190929190505050610558565b005b34801561028d57600080fd5b506102cc60048036038101908080359060200190929190803573ffffffffffffffffffffffffffffffffffffffff16906020019092919050505061059c565b6040518082815260200191505060405180910390f35b3480156102ee57600080fd5b506102f76105c1565b604051808273ffffffffffffffffffffffffffffffffffffffff1673ffffffffffffffffffffffffffffffffffffffff16815260200191505060405180910390f35b34801561034557600080fd5b5061034e6105e7565b604051808273ffffffffffffffffffffffffffffffffffffffff1673ffffffffffffffffffffffffffffffffffffffff16815260200191505060405180910390f35b34801561039c57600080fd5b506103d1600480360381019080803573ffffffffffffffffffffffffffffffffffffffff16906020019092919050505061060d565b005b3480156103df57600080fd5b506103fe60048036038101908080359060200190929190505050610651565b6040518082815260200191505060405180910390f35b34801561042057600080fd5b5061042961066b565b604051808273ffffffffffffffffffffffffffffffffffffffff1673ffffffffffffffffffffffffffffffffffffffff16815260200191505060405180910390f35b80600460006101000a81548173ffffffffffffffffffffffffffffffffffffffff021916908373ffffffffffffffffffffffffffffffffffffffff16021790555050565b80600560006101000a81548173ffffffffffffffffffffffffffffffffffffffff021916908373ffffffffffffffffffffffffffffffffffffffff16021790555050565b600360009054906101000a900473ffffffffffffffffffffffffffffffffffffffff1681565b6000602052816000526040600020602052806000526040600020600091509150505481565b60098160028110151561054d57fe5b016000915090505481565b80600660006101000a81548173ffffffffffffffffffffffffffffffffffffffff021916908373ffffffffffffffffffffffffffffffffffffffff16021790555050565b6001602052816000526040600020602052806000526040600020600091509150505481565b600660009054906101000a900473ffffffffffffffffffffffffffffffffffffffff1681565b600460009054906101000a900473ffffffffffffffffffffffffffffffffffffffff1681565b80600360006101000a81548173ffffffffffffffffffffffffffffffffffffffff021916908373ffffffffffffffffffffffffffffffffffffffff16021790555050565b60078160028110151561066057fe5b016000915090505481565b600560009054906101000a900473ffffffffffffffffffffffffffffffffffffffff16815600a165627a7a7230582046f198ebfe4eee9e262c531d0230ecf4419e9d23cc5f2edfb2335b171ee8d6320029",
  "source": "pragma solidity ^0.4.24;\n    \nimport \"openzeppelin-solidity/contracts/token/ERC20/StandardToken.sol\";\nimport \"@frontier-token-research/role-registries/contracts/Registry.sol\";\nimport \"@frontier-token-research/cron/contracts/PeriodicStages.sol\";\n\ncontract TRLStorage {\n    \n    mapping (uint256 => mapping(address => uint256)) public votesReceived;\n    mapping (uint256 => mapping(address => uint256)) public votesBalance;\n    mapping (uint256 => uint256) totalPeriodVotes;\n    \n    // Registry of candidates to be voted\n    Registry public candidateRegistry;\n \n    // Registry of candidates allowed to vote\n    Registry public voterRegistry;\n\n    // Master Token, used to buy votes\n    StandardToken public token;\n\n    // Stages that come periodically \n    PeriodicStages public periodicStages;\n\n    // Minimum stake to participate in the period, 0 by default\n    uint256[2] public stakingConstraints = [0, 2^256 -1];\n\n    // Array setting up the limits when voting [min_amount, Max_amount]\n    uint256[2] public votingConstraints = [0, 2^256 -1];\n\n    /** Setters **/\n\n    /**\n    * @dev Sets a new candidate registry address\n    * @param _contractAddress new contract address to be set\n    */\n\n    function setCandidateRegistry(address _contractAddress) public {\n        candidateRegistry = Registry(_contractAddress);\n    }\n\n    /**\n    * @dev Sets a new voter registry address\n    * @param _contractAddress new contract address to be set\n    */\n\n    function setVoterRegistry(address _contractAddress) public {\n        voterRegistry = Registry(_contractAddress);\n    }\n\n    /**\n    * @dev Sets a new token address\n    * @param _contractAddress new contract address to be set\n    */\n\n    function setToken(address _contractAddress) public {\n        token = StandardToken(_contractAddress);\n    }\n\n    /**\n    * @dev Sets a new periodic stages address\n    * @param _contractAddress new contract address to be set\n    */\n\n    function setPeriodicStages(address _contractAddress) public {\n        periodicStages = PeriodicStages(_contractAddress);\n    }\n\n}",
  "sourcePath": "/Users/carlosbuendia/Documents/Projects/consensys/Frontier/TRL/contracts/TRLStorage.sol",
  "compiler": {
    "name": "solc",
    "version": "0.4.24+commit.e67f0147.Emscripten.clang"
  },
  "schemaVersion": "2.0.0",
  "updatedAt": "2018-08-21T11:27:00.625Z"
}