{
  "contractName": "Vault",
  "abi": [
    {
      "constant": false,
      "inputs": [],
      "name": "renounceOwnership",
      "outputs": [],
      "payable": false,
      "stateMutability": "nonpayable",
      "type": "function"
    },
    {
      "constant": true,
      "inputs": [],
      "name": "owner",
      "outputs": [
        {
          "name": "",
          "type": "address"
        }
      ],
      "payable": false,
      "stateMutability": "view",
      "type": "function"
    },
    {
      "constant": true,
      "inputs": [],
      "name": "isOwner",
      "outputs": [
        {
          "name": "",
          "type": "bool"
        }
      ],
      "payable": false,
      "stateMutability": "view",
      "type": "function"
    },
    {
      "constant": false,
      "inputs": [
        {
          "name": "newOwner",
          "type": "address"
        }
      ],
      "name": "transferOwnership",
      "outputs": [],
      "payable": false,
      "stateMutability": "nonpayable",
      "type": "function"
    },
    {
      "anonymous": false,
      "inputs": [
        {
          "indexed": true,
          "name": "id",
          "type": "uint256"
        },
        {
          "indexed": true,
          "name": "token",
          "type": "address"
        },
        {
          "indexed": true,
          "name": "to",
          "type": "address"
        },
        {
          "indexed": false,
          "name": "amount",
          "type": "uint256"
        }
      ],
      "name": "Transfer",
      "type": "event"
    },
    {
      "anonymous": false,
      "inputs": [
        {
          "indexed": true,
          "name": "id",
          "type": "uint256"
        },
        {
          "indexed": true,
          "name": "token",
          "type": "address"
        },
        {
          "indexed": true,
          "name": "sender",
          "type": "address"
        },
        {
          "indexed": false,
          "name": "amount",
          "type": "uint256"
        }
      ],
      "name": "Deposit",
      "type": "event"
    },
    {
      "anonymous": false,
      "inputs": [
        {
          "indexed": true,
          "name": "previousOwner",
          "type": "address"
        },
        {
          "indexed": true,
          "name": "newOwner",
          "type": "address"
        }
      ],
      "name": "OwnershipTransferred",
      "type": "event"
    },
    {
      "constant": false,
      "inputs": [
        {
          "name": "_vaultID",
          "type": "uint256"
        },
        {
          "name": "_token",
          "type": "address"
        }
      ],
      "name": "close",
      "outputs": [],
      "payable": false,
      "stateMutability": "nonpayable",
      "type": "function"
    },
    {
      "constant": false,
      "inputs": [
        {
          "name": "_vaultID",
          "type": "uint256"
        },
        {
          "name": "_token",
          "type": "address"
        },
        {
          "name": "_from",
          "type": "address"
        },
        {
          "name": "_value",
          "type": "uint256"
        }
      ],
      "name": "deposit",
      "outputs": [],
      "payable": false,
      "stateMutability": "nonpayable",
      "type": "function"
    },
    {
      "constant": false,
      "inputs": [
        {
          "name": "_vaultID",
          "type": "uint256"
        },
        {
          "name": "_token",
          "type": "address"
        },
        {
          "name": "_to",
          "type": "address"
        },
        {
          "name": "_value",
          "type": "uint256"
        }
      ],
      "name": "transfer",
      "outputs": [],
      "payable": false,
      "stateMutability": "nonpayable",
      "type": "function"
    },
    {
      "constant": true,
      "inputs": [
        {
          "name": "_vaultID",
          "type": "uint256"
        },
        {
          "name": "_token",
          "type": "address"
        }
      ],
      "name": "balance",
      "outputs": [
        {
          "name": "",
          "type": "uint256"
        }
      ],
      "payable": false,
      "stateMutability": "view",
      "type": "function"
    }
  ],
  "bytecode": "0x6080604052336000806101000a81548173ffffffffffffffffffffffffffffffffffffffff021916908373ffffffffffffffffffffffffffffffffffffffff1602179055506000809054906101000a900473ffffffffffffffffffffffffffffffffffffffff1673ffffffffffffffffffffffffffffffffffffffff16600073ffffffffffffffffffffffffffffffffffffffff167f8be0079c531659141344cd1fd0a4f28419497f9722a3daafe3b4186f6b6457e060405160405180910390a3610cc2806100cf6000396000f30060806040526004361061008e576000357c0100000000000000000000000000000000000000000000000000000000900463ffffffff168063061399341461009357806336cd52a6146100f4578063715018a61461016b5780638da5cb5b146101825780638f32d59b146101d9578063d3d202fd14610208578063e4cca4b014610255578063f2fde38b146102cc575b600080fd5b34801561009f57600080fd5b506100de60048036038101908080359060200190929190803573ffffffffffffffffffffffffffffffffffffffff16906020019092919050505061030f565b6040518082815260200191505060405180910390f35b34801561010057600080fd5b5061016960048036038101908080359060200190929190803573ffffffffffffffffffffffffffffffffffffffff169060200190929190803573ffffffffffffffffffffffffffffffffffffffff1690602001909291908035906020019092919050505061036a565b005b34801561017757600080fd5b506101806103bd565b005b34801561018e57600080fd5b5061019761048f565b604051808273ffffffffffffffffffffffffffffffffffffffff1673ffffffffffffffffffffffffffffffffffffffff16815260200191505060405180910390f35b3480156101e557600080fd5b506101ee6104b8565b604051808215151515815260200191505060405180910390f35b34801561021457600080fd5b5061025360048036038101908080359060200190929190803573ffffffffffffffffffffffffffffffffffffffff16906020019092919050505061050f565b005b34801561026157600080fd5b506102ca60048036038101908080359060200190929190803573ffffffffffffffffffffffffffffffffffffffff169060200190929190803573ffffffffffffffffffffffffffffffffffffffff169060200190929190803590602001909291905050506105b8565b005b3480156102d857600080fd5b5061030d600480360381019080803573ffffffffffffffffffffffffffffffffffffffff169060200190929190505050610696565b005b60006001600084815260200190815260200160002060008373ffffffffffffffffffffffffffffffffffffffff1673ffffffffffffffffffffffffffffffffffffffff16815260200190815260200160002054905092915050565b61037261048f565b73ffffffffffffffffffffffffffffffffffffffff163373ffffffffffffffffffffffffffffffffffffffff161415156103ab57600080fd5b6103b7848484846106b5565b50505050565b6103c56104b8565b15156103d057600080fd5b600073ffffffffffffffffffffffffffffffffffffffff166000809054906101000a900473ffffffffffffffffffffffffffffffffffffffff1673ffffffffffffffffffffffffffffffffffffffff167f8be0079c531659141344cd1fd0a4f28419497f9722a3daafe3b4186f6b6457e060405160405180910390a360008060006101000a81548173ffffffffffffffffffffffffffffffffffffffff021916908373ffffffffffffffffffffffffffffffffffffffff160217905550565b60008060009054906101000a900473ffffffffffffffffffffffffffffffffffffffff16905090565b60008060009054906101000a900473ffffffffffffffffffffffffffffffffffffffff1673ffffffffffffffffffffffffffffffffffffffff163373ffffffffffffffffffffffffffffffffffffffff1614905090565b6001600083815260200190815260200160002060008273ffffffffffffffffffffffffffffffffffffffff1673ffffffffffffffffffffffffffffffffffffffff168152602001908152602001600020546002600084815260200190815260200160002060008373ffffffffffffffffffffffffffffffffffffffff1673ffffffffffffffffffffffffffffffffffffffff168152602001908152602001600020819055505050565b838360006002600084815260200190815260200160002060008373ffffffffffffffffffffffffffffffffffffffff1673ffffffffffffffffffffffffffffffffffffffff16815260200190815260200160002054141515610682576040517f08c379a00000000000000000000000000000000000000000000000000000000081526004018080602001828103825260158152602001807f546865207661756c74206973206e6f74206f70656e000000000000000000000081525060200191505060405180910390fd5b61068e868686866108d0565b505050505050565b61069e6104b8565b15156106a957600080fd5b6106b281610b5a565b50565b6000811115156106c457600080fd5b8273ffffffffffffffffffffffffffffffffffffffff1663a9059cbb83836040518363ffffffff167c0100000000000000000000000000000000000000000000000000000000028152600401808373ffffffffffffffffffffffffffffffffffffffff1673ffffffffffffffffffffffffffffffffffffffff16815260200182815260200192505050602060405180830381600087803b15801561076757600080fd5b505af115801561077b573d6000803e3d6000fd5b505050506040513d602081101561079157600080fd5b810190808051906020019092919050505015156107ad57600080fd5b610810816001600087815260200190815260200160002060008673ffffffffffffffffffffffffffffffffffffffff1673ffffffffffffffffffffffffffffffffffffffff16815260200190815260200160002054610c5490919063ffffffff16565b6001600086815260200190815260200160002060008573ffffffffffffffffffffffffffffffffffffffff1673ffffffffffffffffffffffffffffffffffffffff168152602001908152602001600020819055508173ffffffffffffffffffffffffffffffffffffffff168373ffffffffffffffffffffffffffffffffffffffff16857ff2dbd98d79f00f7aff338b824931d607bfcc63d47307162470f25a055102d3b0846040518082815260200191505060405180910390a450505050565b600081141515156108e057600080fd5b8173ffffffffffffffffffffffffffffffffffffffff163373ffffffffffffffffffffffffffffffffffffffff1614151561091a57600080fd5b8273ffffffffffffffffffffffffffffffffffffffff166323b872dd8330846040518463ffffffff167c0100000000000000000000000000000000000000000000000000000000028152600401808473ffffffffffffffffffffffffffffffffffffffff1673ffffffffffffffffffffffffffffffffffffffff1681526020018373ffffffffffffffffffffffffffffffffffffffff1673ffffffffffffffffffffffffffffffffffffffff1681526020018281526020019350505050602060405180830381600087803b1580156109f157600080fd5b505af1158015610a05573d6000803e3d6000fd5b505050506040513d6020811015610a1b57600080fd5b81019080805190602001909291905050501515610a3757600080fd5b610a9a816001600087815260200190815260200160002060008673ffffffffffffffffffffffffffffffffffffffff1673ffffffffffffffffffffffffffffffffffffffff16815260200190815260200160002054610c7590919063ffffffff16565b6001600086815260200190815260200160002060008573ffffffffffffffffffffffffffffffffffffffff1673ffffffffffffffffffffffffffffffffffffffff168152602001908152602001600020819055508173ffffffffffffffffffffffffffffffffffffffff168373ffffffffffffffffffffffffffffffffffffffff16857f2c0f148b435140de488c1b34647f1511c646f7077e87007bacf22ef9977a16d8846040518082815260200191505060405180910390a450505050565b600073ffffffffffffffffffffffffffffffffffffffff168173ffffffffffffffffffffffffffffffffffffffff1614151515610b9657600080fd5b8073ffffffffffffffffffffffffffffffffffffffff166000809054906101000a900473ffffffffffffffffffffffffffffffffffffffff1673ffffffffffffffffffffffffffffffffffffffff167f8be0079c531659141344cd1fd0a4f28419497f9722a3daafe3b4186f6b6457e060405160405180910390a3806000806101000a81548173ffffffffffffffffffffffffffffffffffffffff021916908373ffffffffffffffffffffffffffffffffffffffff16021790555050565b600080838311151515610c6657600080fd5b82840390508091505092915050565b6000808284019050838110151515610c8c57600080fd5b80915050929150505600a165627a7a72305820df5df156aa3c47cd31da5c3cd7e496a0e9438fdb400a434b15917aa1dc3e414e0029",
  "source": "pragma solidity 0.4.24;\n\nimport \"openzeppelin-solidity/contracts/ownership/Ownable.sol\";\nimport \"openzeppelin-solidity/contracts/math/SafeMath.sol\";\nimport \"openzeppelin-solidity/contracts/token/ERC20/ERC20.sol\";\n\n/**\n* A Smart contract including multiple Vaults identifiable by ID\n* Every Vault has the possibility of storing multiple ERC20 tokens\n* Don't send tokens directly to this contract using transfer or your funds may be lost, instead, use deposit.\n* Inspired by AragonOS Vault https://github.com/aragon/aragon-apps/blob/master/apps/vault/contracts/Vault.sol\n*/\n\n\ncontract Vault is Ownable {\n    using SafeMath for uint256;\n\n    event Transfer(uint256 indexed id, address indexed token, address indexed to, uint256 amount);\n    event Deposit(uint256 indexed id, address indexed token, address indexed sender, uint256 amount);\n\n    mapping (uint256 => mapping (address => uint256)) vaultBalance;\n    \n    mapping (uint256 => mapping (address => uint256)) vaultClosingValues;\n\n    \n  \n\n    /**\n    * @dev Close the vault for `_token` the vault `_period`\n    * @param _vaultID ID of the vault where tokens are being deposited\n    * @param _token Address of the token being transferred\n    */\n\n    function close(uint256 _vaultID, address _token) external{\n    \tvaultClosingValues[_vaultID][_token] = vaultBalance[_vaultID][_token];\n    }\n\n    modifier vaultIsClosed(uint256 _vaultID, address _token){\n    \trequire(vaultClosingValues[_vaultID][_token] > 0,\"The vault is not closed\");\n\t_;\n    }\n   \n    modifier vaultIsOpen(uint256 _vaultID, address _token){\n    \trequire(vaultClosingValues[_vaultID][_token] == 0,\"The vault is not open\");\n\t_;\n    }\n\n\n    /**\n    * @dev Deposit `_value` `_token` to the vault\n    * @param _vaultID ID of the vault where tokens are being deposited\n    * @param _token Address of the token being transferred\n    * @param _from Entity that currently owns the tokens\n    * @param _value Amount of tokens being transferred\n    */\n\n    function deposit(uint256 _vaultID, address _token, address _from, uint256 _value) external \n    vaultIsOpen(_vaultID, _token)\n    {\n\t_deposit(_vaultID, _token, _from, _value);\n    }\n\n    /**\n    * @dev Transfer `_value` `_token` from the Vault to `_to`\n    * @param _vaultID ID of the vault where tokens are being tranferred\n    * @param _token Address of the token being transferred\n    * @param _to Address of the recipient of tokens\n    * @param _value Amount of tokens being transferred\n    */\n\n    function transfer(uint256 _vaultID, address _token, address _to, uint256 _value)\n        external\n    {\n        require(msg.sender == owner());\n        _transfer(_vaultID, _token, _to, _value);\n    }\n\n    /**\n    * @dev Returns balance given a `_vaultID`\n    * @param _vaultID Identifier of the vault where the tokens have been deposited\n    * @param _token Adress of the ERC20 token\n    */\n\n    function balance(uint256 _vaultID, address _token) public view returns (uint256) {\n        return vaultBalance[_vaultID][_token];\n    }\n\n    function _deposit(uint256 _vaultID, address _token, address _from, uint256 _value) internal {\n        require(_value != 0);\n        require(msg.sender == _from);\n        require(ERC20(_token).transferFrom(_from, this, _value));\n        vaultBalance[_vaultID][_token] = vaultBalance[_vaultID][_token].add(_value);\n        emit Deposit(_vaultID, _token, _from, _value);\n    }\n\n    function _transfer(uint256 _vaultID, address _token, address _to, uint256 _value) internal {\n        require(_value > 0);\n        require(ERC20(_token).transfer(_to, _value));\n        vaultBalance[_vaultID][_token] = vaultBalance[_vaultID][_token].sub(_value);\n        emit Transfer(_vaultID, _token, _to, _value);\n    }\n}\n",
  "sourcePath": "/Users/boss/git/frontier/trl-project/TRL/contracts/Vault.sol",
  "compiler": {
    "name": "solc",
    "version": "0.4.24+commit.e67f0147.Emscripten.clang"
  },
  "schemaVersion": "2.0.1",
  "updatedAt": "2018-11-20T18:43:39.235Z"
}