{
  "contractName": "Vault",
  "abi": [
    {
      "constant": false,
      "inputs": [],
      "name": "renounceOwnership",
      "outputs": [],
      "payable": false,
      "stateMutability": "nonpayable",
      "type": "function"
    },
    {
      "constant": true,
      "inputs": [],
      "name": "owner",
      "outputs": [
        {
          "name": "",
          "type": "address"
        }
      ],
      "payable": false,
      "stateMutability": "view",
      "type": "function"
    },
    {
      "constant": true,
      "inputs": [],
      "name": "isOwner",
      "outputs": [
        {
          "name": "",
          "type": "bool"
        }
      ],
      "payable": false,
      "stateMutability": "view",
      "type": "function"
    },
    {
      "constant": false,
      "inputs": [
        {
          "name": "newOwner",
          "type": "address"
        }
      ],
      "name": "transferOwnership",
      "outputs": [],
      "payable": false,
      "stateMutability": "nonpayable",
      "type": "function"
    },
    {
      "anonymous": false,
      "inputs": [
        {
          "indexed": true,
          "name": "id",
          "type": "uint256"
        },
        {
          "indexed": true,
          "name": "token",
          "type": "address"
        },
        {
          "indexed": true,
          "name": "to",
          "type": "address"
        },
        {
          "indexed": false,
          "name": "amount",
          "type": "uint256"
        }
      ],
      "name": "Transfer",
      "type": "event"
    },
    {
      "anonymous": false,
      "inputs": [
        {
          "indexed": true,
          "name": "id",
          "type": "uint256"
        },
        {
          "indexed": true,
          "name": "token",
          "type": "address"
        },
        {
          "indexed": true,
          "name": "sender",
          "type": "address"
        },
        {
          "indexed": false,
          "name": "amount",
          "type": "uint256"
        }
      ],
      "name": "Deposit",
      "type": "event"
    },
    {
      "anonymous": false,
      "inputs": [
        {
          "indexed": true,
          "name": "previousOwner",
          "type": "address"
        },
        {
          "indexed": true,
          "name": "newOwner",
          "type": "address"
        }
      ],
      "name": "OwnershipTransferred",
      "type": "event"
    },
    {
      "constant": false,
      "inputs": [
        {
          "name": "_balanceContractAddress",
          "type": "address"
        }
      ],
      "name": "setBalanceContractAddress",
      "outputs": [],
      "payable": false,
      "stateMutability": "nonpayable",
      "type": "function"
    },
    {
      "constant": false,
      "inputs": [
        {
          "name": "_vaultID",
          "type": "uint256"
        },
        {
          "name": "_token",
          "type": "address"
        }
      ],
      "name": "close",
      "outputs": [],
      "payable": false,
      "stateMutability": "nonpayable",
      "type": "function"
    },
    {
      "constant": false,
      "inputs": [
        {
          "name": "_vaultID",
          "type": "uint256"
        },
        {
          "name": "_token",
          "type": "address"
        },
        {
          "name": "_from",
          "type": "address"
        },
        {
          "name": "_value",
          "type": "uint256"
        }
      ],
      "name": "deposit",
      "outputs": [],
      "payable": false,
      "stateMutability": "nonpayable",
      "type": "function"
    },
    {
      "constant": false,
      "inputs": [
        {
          "name": "_vaultID",
          "type": "uint256"
        },
        {
          "name": "_token",
          "type": "address"
        },
        {
          "name": "_to",
          "type": "address"
        },
        {
          "name": "_value",
          "type": "uint256"
        }
      ],
      "name": "transfer",
      "outputs": [],
      "payable": false,
      "stateMutability": "nonpayable",
      "type": "function"
    },
    {
      "constant": true,
      "inputs": [
        {
          "name": "_vaultID",
          "type": "uint256"
        },
        {
          "name": "_token",
          "type": "address"
        }
      ],
      "name": "balance",
      "outputs": [
        {
          "name": "",
          "type": "uint256"
        }
      ],
      "payable": false,
      "stateMutability": "view",
      "type": "function"
    },
    {
      "constant": true,
      "inputs": [
        {
          "name": "_vaultID",
          "type": "uint256"
        },
        {
          "name": "_token",
          "type": "address"
        }
      ],
      "name": "bountyPoolAmount",
      "outputs": [
        {
          "name": "",
          "type": "uint256"
        }
      ],
      "payable": false,
      "stateMutability": "view",
      "type": "function"
    }
  ],
  "bytecode": "0x6080604052336000806101000a81548173ffffffffffffffffffffffffffffffffffffffff021916908373ffffffffffffffffffffffffffffffffffffffff1602179055506000809054906101000a900473ffffffffffffffffffffffffffffffffffffffff1673ffffffffffffffffffffffffffffffffffffffff16600073ffffffffffffffffffffffffffffffffffffffff167f8be0079c531659141344cd1fd0a4f28419497f9722a3daafe3b4186f6b6457e060405160405180910390a3611148806100cf6000396000f3006080604052600436106100a4576000357c0100000000000000000000000000000000000000000000000000000000900463ffffffff16806306139934146100a95780631660f36c1461010a57806336cd52a61461014d5780633e5d3a05146101c4578063715018a6146102255780638da5cb5b1461023c5780638f32d59b14610293578063d3d202fd146102c2578063e4cca4b01461030f578063f2fde38b14610386575b600080fd5b3480156100b557600080fd5b506100f460048036038101908080359060200190929190803573ffffffffffffffffffffffffffffffffffffffff1690602001909291905050506103c9565b6040518082815260200191505060405180910390f35b34801561011657600080fd5b5061014b600480360381019080803573ffffffffffffffffffffffffffffffffffffffff169060200190929190505050610424565b005b34801561015957600080fd5b506101c260048036038101908080359060200190929190803573ffffffffffffffffffffffffffffffffffffffff169060200190929190803573ffffffffffffffffffffffffffffffffffffffff16906020019092919080359060200190929190505050610538565b005b3480156101d057600080fd5b5061020f60048036038101908080359060200190929190803573ffffffffffffffffffffffffffffffffffffffff169060200190929190505050610718565b6040518082815260200191505060405180910390f35b34801561023157600080fd5b5061023a610773565b005b34801561024857600080fd5b50610251610845565b604051808273ffffffffffffffffffffffffffffffffffffffff1673ffffffffffffffffffffffffffffffffffffffff16815260200191505060405180910390f35b34801561029f57600080fd5b506102a861086e565b604051808215151515815260200191505060405180910390f35b3480156102ce57600080fd5b5061030d60048036038101908080359060200190929190803573ffffffffffffffffffffffffffffffffffffffff1690602001909291905050506108c5565b005b34801561031b57600080fd5b5061038460048036038101908080359060200190929190803573ffffffffffffffffffffffffffffffffffffffff169060200190929190803573ffffffffffffffffffffffffffffffffffffffff16906020019092919080359060200190929190505050610a3e565b005b34801561039257600080fd5b506103c7600480360381019080803573ffffffffffffffffffffffffffffffffffffffff169060200190929190505050610b1c565b005b60006001600084815260200190815260200160002060008373ffffffffffffffffffffffffffffffffffffffff1673ffffffffffffffffffffffffffffffffffffffff16815260200190815260200160002054905092915050565b61042c610845565b73ffffffffffffffffffffffffffffffffffffffff163373ffffffffffffffffffffffffffffffffffffffff161415156104f4576040517f08c379a00000000000000000000000000000000000000000000000000000000081526004018080602001828103825260278152602001807f6f6e6c79206f776e65722063616e207365742074686520636f6e74726163742081526020017f616464726573730000000000000000000000000000000000000000000000000081525060400191505060405180910390fd5b80600360006101000a81548173ffffffffffffffffffffffffffffffffffffffff021916908373ffffffffffffffffffffffffffffffffffffffff16021790555050565b838360006002600084815260200190815260200160002060008373ffffffffffffffffffffffffffffffffffffffff1673ffffffffffffffffffffffffffffffffffffffff16815260200190815260200160002054111515610602576040517f08c379a00000000000000000000000000000000000000000000000000000000081526004018080602001828103825260178152602001807f546865207661756c74206973206e6f7420636c6f73656400000000000000000081525060200191505060405180910390fd5b61060a610845565b73ffffffffffffffffffffffffffffffffffffffff163373ffffffffffffffffffffffffffffffffffffffff1614806106905750600360009054906101000a900473ffffffffffffffffffffffffffffffffffffffff1673ffffffffffffffffffffffffffffffffffffffff163373ffffffffffffffffffffffffffffffffffffffff16145b1515610704576040517f08c379a000000000000000000000000000000000000000000000000000000000815260040180806020018281038252601a8152602001807f4e6f7420617574686f72697a656420746f207472616e7366657200000000000081525060200191505060405180910390fd5b61071086868686610b3b565b505050505050565b60006002600084815260200190815260200160002060008373ffffffffffffffffffffffffffffffffffffffff1673ffffffffffffffffffffffffffffffffffffffff16815260200190815260200160002054905092915050565b61077b61086e565b151561078657600080fd5b600073ffffffffffffffffffffffffffffffffffffffff166000809054906101000a900473ffffffffffffffffffffffffffffffffffffffff1673ffffffffffffffffffffffffffffffffffffffff167f8be0079c531659141344cd1fd0a4f28419497f9722a3daafe3b4186f6b6457e060405160405180910390a360008060006101000a81548173ffffffffffffffffffffffffffffffffffffffff021916908373ffffffffffffffffffffffffffffffffffffffff160217905550565b60008060009054906101000a900473ffffffffffffffffffffffffffffffffffffffff16905090565b60008060009054906101000a900473ffffffffffffffffffffffffffffffffffffffff1673ffffffffffffffffffffffffffffffffffffffff163373ffffffffffffffffffffffffffffffffffffffff1614905090565b6108cd610845565b73ffffffffffffffffffffffffffffffffffffffff163373ffffffffffffffffffffffffffffffffffffffff16141515610995576040517f08c379a00000000000000000000000000000000000000000000000000000000081526004018080602001828103825260228152602001807f4f6e6c7920746865206f776e65722063616e20636c6f7365207468652076617581526020017f6c7400000000000000000000000000000000000000000000000000000000000081525060400191505060405180910390fd5b6001600083815260200190815260200160002060008273ffffffffffffffffffffffffffffffffffffffff1673ffffffffffffffffffffffffffffffffffffffff168152602001908152602001600020546002600084815260200190815260200160002060008373ffffffffffffffffffffffffffffffffffffffff1673ffffffffffffffffffffffffffffffffffffffff168152602001908152602001600020819055505050565b838360006002600084815260200190815260200160002060008373ffffffffffffffffffffffffffffffffffffffff1673ffffffffffffffffffffffffffffffffffffffff16815260200190815260200160002054141515610b08576040517f08c379a00000000000000000000000000000000000000000000000000000000081526004018080602001828103825260158152602001807f546865207661756c74206973206e6f74206f70656e000000000000000000000081525060200191505060405180910390fd5b610b1486868686610d56565b505050505050565b610b2461086e565b1515610b2f57600080fd5b610b3881610fe0565b50565b600081111515610b4a57600080fd5b8273ffffffffffffffffffffffffffffffffffffffff1663a9059cbb83836040518363ffffffff167c0100000000000000000000000000000000000000000000000000000000028152600401808373ffffffffffffffffffffffffffffffffffffffff1673ffffffffffffffffffffffffffffffffffffffff16815260200182815260200192505050602060405180830381600087803b158015610bed57600080fd5b505af1158015610c01573d6000803e3d6000fd5b505050506040513d6020811015610c1757600080fd5b81019080805190602001909291905050501515610c3357600080fd5b610c96816001600087815260200190815260200160002060008673ffffffffffffffffffffffffffffffffffffffff1673ffffffffffffffffffffffffffffffffffffffff168152602001908152602001600020546110da90919063ffffffff16565b6001600086815260200190815260200160002060008573ffffffffffffffffffffffffffffffffffffffff1673ffffffffffffffffffffffffffffffffffffffff168152602001908152602001600020819055508173ffffffffffffffffffffffffffffffffffffffff168373ffffffffffffffffffffffffffffffffffffffff16857ff2dbd98d79f00f7aff338b824931d607bfcc63d47307162470f25a055102d3b0846040518082815260200191505060405180910390a450505050565b60008114151515610d6657600080fd5b8173ffffffffffffffffffffffffffffffffffffffff163373ffffffffffffffffffffffffffffffffffffffff16141515610da057600080fd5b8273ffffffffffffffffffffffffffffffffffffffff166323b872dd8330846040518463ffffffff167c0100000000000000000000000000000000000000000000000000000000028152600401808473ffffffffffffffffffffffffffffffffffffffff1673ffffffffffffffffffffffffffffffffffffffff1681526020018373ffffffffffffffffffffffffffffffffffffffff1673ffffffffffffffffffffffffffffffffffffffff1681526020018281526020019350505050602060405180830381600087803b158015610e7757600080fd5b505af1158015610e8b573d6000803e3d6000fd5b505050506040513d6020811015610ea157600080fd5b81019080805190602001909291905050501515610ebd57600080fd5b610f20816001600087815260200190815260200160002060008673ffffffffffffffffffffffffffffffffffffffff1673ffffffffffffffffffffffffffffffffffffffff168152602001908152602001600020546110fb90919063ffffffff16565b6001600086815260200190815260200160002060008573ffffffffffffffffffffffffffffffffffffffff1673ffffffffffffffffffffffffffffffffffffffff168152602001908152602001600020819055508173ffffffffffffffffffffffffffffffffffffffff168373ffffffffffffffffffffffffffffffffffffffff16857f2c0f148b435140de488c1b34647f1511c646f7077e87007bacf22ef9977a16d8846040518082815260200191505060405180910390a450505050565b600073ffffffffffffffffffffffffffffffffffffffff168173ffffffffffffffffffffffffffffffffffffffff161415151561101c57600080fd5b8073ffffffffffffffffffffffffffffffffffffffff166000809054906101000a900473ffffffffffffffffffffffffffffffffffffffff1673ffffffffffffffffffffffffffffffffffffffff167f8be0079c531659141344cd1fd0a4f28419497f9722a3daafe3b4186f6b6457e060405160405180910390a3806000806101000a81548173ffffffffffffffffffffffffffffffffffffffff021916908373ffffffffffffffffffffffffffffffffffffffff16021790555050565b6000808383111515156110ec57600080fd5b82840390508091505092915050565b600080828401905083811015151561111257600080fd5b80915050929150505600a165627a7a72305820c2b9c930b4985b17f739240bbed0c0910c1d4802bb52024fef38e2586e8966b10029",
  "source": "pragma solidity 0.4.24;\n\nimport \"openzeppelin-solidity/contracts/ownership/Ownable.sol\";\nimport \"openzeppelin-solidity/contracts/math/SafeMath.sol\";\nimport \"openzeppelin-solidity/contracts/token/ERC20/ERC20.sol\";\n\n/**\n* A Smart contract including multiple Vaults identifiable by ID\n* Every Vault has the possibility of storing multiple ERC20 tokens\n* Don't send tokens directly to this contract using transfer or your funds may be lost, instead, use deposit.\n* Inspired by AragonOS Vault https://github.com/aragon/aragon-apps/blob/master/apps/vault/contracts/Vault.sol\n*/\n\n\ncontract Vault is Ownable {\n\tusing SafeMath for uint256;\n\n\tevent Transfer(uint256 indexed id, address indexed token, address indexed to, uint256 amount);\n\tevent Deposit(uint256 indexed id, address indexed token, address indexed sender, uint256 amount);\n\n\tmapping (uint256 => mapping (address => uint256)) vaultBalance;\n\t\n\tmapping (uint256 => mapping (address => uint256)) vaultClosingValues;\n\n\taddress balanceContractAddress;    \n  \n\n\tfunction setBalanceContractAddress(address _balanceContractAddress) external {\n\t\trequire(msg.sender == owner(), \"only owner can set the contract address\");\n\n\t\tbalanceContractAddress = _balanceContractAddress;\n\t}\n\n\t/**\n\t* @dev Close the vault for `_token` the vault `_period`\n\t* @param _vaultID ID of the vault where tokens are being deposited\n\t* @param _token Address of the token being transferred\n\t*/\n\n\tfunction close(uint256 _vaultID, address _token) external{\n\t\trequire(msg.sender == owner(), \"Only the owner can close the vault\");\n\t\tvaultClosingValues[_vaultID][_token] = vaultBalance[_vaultID][_token];\n\t}\n\n\tmodifier vaultIsClosed(uint256 _vaultID, address _token){\n\t\trequire(vaultClosingValues[_vaultID][_token] > 0,\"The vault is not closed\");\n\t\t_;\n\t}\n   \n\tmodifier vaultIsOpen(uint256 _vaultID, address _token){\n\t\trequire(vaultClosingValues[_vaultID][_token] == 0,\"The vault is not open\");\n\t\t_;\n\t}\n\n\n\t/**\n\t* @dev Deposit `_value` `_token` to the vault\n\t* @param _vaultID ID of the vault where tokens are being deposited\n\t* @param _token Address of the token being transferred\n\t* @param _from Entity that currently owns the tokens\n\t* @param _value Amount of tokens being transferred\n\t*/\n\n\tfunction deposit(uint256 _vaultID, address _token, address _from, uint256 _value) external \n\tvaultIsOpen(_vaultID, _token)\n\t{\n\t\t_deposit(_vaultID, _token, _from, _value);\n\t}\n\n\t/**\n\t* @dev Transfer `_value` `_token` from the Vault to `_to`\n\t* @param _vaultID ID of the vault where tokens are being tranferred\n\t* @param _token Address of the token being transferred\n\t* @param _to Address of the recipient of tokens\n\t* @param _value Amount of tokens being transferred\n\t*/\n\n\tfunction transfer(uint256 _vaultID, address _token, address _to, uint256 _value)\n\t\texternal vaultIsClosed(_vaultID, _token)\n\t{\n\t\trequire(msg.sender == owner() || msg.sender == balanceContractAddress, \"Not authorized to transfer\");\n\t\t_transfer(_vaultID, _token, _to, _value);\n\t}\n\n\t/**\n\t* @dev Returns balance given a `_vaultID`\n\t* @param _vaultID Identifier of the vault where the tokens have been deposited\n\t* @param _token Adress of the ERC20 token\n\t*/\n\n\tfunction balance(uint256 _vaultID, address _token) public view returns (uint256) {\n\t\treturn vaultBalance[_vaultID][_token];\n\t}\n\n\t/**\n\t* @dev Returns bounty pool amount given a `_vaultID`\n\t* @param _vaultID Identifier of the vault where the tokens have been deposited\n\t* @param _token Adress of the ERC20 token\n\t*/\n\n\tfunction bountyPoolAmount(uint256 _vaultID, address _token) public view returns (uint256) {\n\t\treturn vaultClosingValues[_vaultID][_token];\n\t}\n\n \n\n\tfunction _deposit(uint256 _vaultID, address _token, address _from, uint256 _value) internal {\n\t\trequire(_value != 0);\n\t\trequire(msg.sender == _from);\n\t\trequire(ERC20(_token).transferFrom(_from, this, _value));\n\t\tvaultBalance[_vaultID][_token] = vaultBalance[_vaultID][_token].add(_value);\n\t\temit Deposit(_vaultID, _token, _from, _value);\n\t}\n\n\tfunction _transfer(uint256 _vaultID, address _token, address _to, uint256 _value) internal {\n\t\trequire(_value > 0);\n\t\trequire(ERC20(_token).transfer(_to, _value));\n\t\tvaultBalance[_vaultID][_token] = vaultBalance[_vaultID][_token].sub(_value);\n\t\temit Transfer(_vaultID, _token, _to, _value);\n\t}\n}\n",
  "sourcePath": "/Users/boss/git/frontier/trl-project/TRL/contracts/Vault.sol",
  "compiler": {
    "name": "solc",
    "version": "0.4.24+commit.e67f0147.Emscripten.clang"
  },
  "schemaVersion": "2.0.1",
  "updatedAt": "2018-11-23T12:25:16.114Z"
}