{
  "contractName": "Vault",
  "abi": [
    {
      "constant": false,
      "inputs": [],
      "name": "renounceOwnership",
      "outputs": [],
      "payable": false,
      "stateMutability": "nonpayable",
      "type": "function"
    },
    {
      "constant": true,
      "inputs": [],
      "name": "owner",
      "outputs": [
        {
          "name": "",
          "type": "address"
        }
      ],
      "payable": false,
      "stateMutability": "view",
      "type": "function"
    },
    {
      "constant": true,
      "inputs": [],
      "name": "isOwner",
      "outputs": [
        {
          "name": "",
          "type": "bool"
        }
      ],
      "payable": false,
      "stateMutability": "view",
      "type": "function"
    },
    {
      "constant": false,
      "inputs": [
        {
          "name": "newOwner",
          "type": "address"
        }
      ],
      "name": "transferOwnership",
      "outputs": [],
      "payable": false,
      "stateMutability": "nonpayable",
      "type": "function"
    },
    {
      "anonymous": false,
      "inputs": [
        {
          "indexed": true,
          "name": "id",
          "type": "uint256"
        },
        {
          "indexed": true,
          "name": "token",
          "type": "address"
        },
        {
          "indexed": true,
          "name": "to",
          "type": "address"
        },
        {
          "indexed": false,
          "name": "amount",
          "type": "uint256"
        }
      ],
      "name": "Transfer",
      "type": "event"
    },
    {
      "anonymous": false,
      "inputs": [
        {
          "indexed": true,
          "name": "id",
          "type": "uint256"
        },
        {
          "indexed": true,
          "name": "token",
          "type": "address"
        },
        {
          "indexed": true,
          "name": "sender",
          "type": "address"
        },
        {
          "indexed": false,
          "name": "amount",
          "type": "uint256"
        }
      ],
      "name": "Deposit",
      "type": "event"
    },
    {
      "anonymous": false,
      "inputs": [
        {
          "indexed": true,
          "name": "previousOwner",
          "type": "address"
        },
        {
          "indexed": true,
          "name": "newOwner",
          "type": "address"
        }
      ],
      "name": "OwnershipTransferred",
      "type": "event"
    },
    {
      "constant": false,
      "inputs": [
        {
          "name": "_vaultID",
          "type": "uint256"
        },
        {
          "name": "_token",
          "type": "address"
        }
      ],
      "name": "close",
      "outputs": [],
      "payable": false,
      "stateMutability": "nonpayable",
      "type": "function"
    },
    {
      "constant": false,
      "inputs": [
        {
          "name": "_vaultID",
          "type": "uint256"
        },
        {
          "name": "_token",
          "type": "address"
        },
        {
          "name": "_from",
          "type": "address"
        },
        {
          "name": "_value",
          "type": "uint256"
        }
      ],
      "name": "deposit",
      "outputs": [],
      "payable": false,
      "stateMutability": "nonpayable",
      "type": "function"
    },
    {
      "constant": false,
      "inputs": [
        {
          "name": "_vaultID",
          "type": "uint256"
        },
        {
          "name": "_token",
          "type": "address"
        },
        {
          "name": "_to",
          "type": "address"
        },
        {
          "name": "_value",
          "type": "uint256"
        }
      ],
      "name": "transfer",
      "outputs": [],
      "payable": false,
      "stateMutability": "nonpayable",
      "type": "function"
    },
    {
      "constant": true,
      "inputs": [
        {
          "name": "_vaultID",
          "type": "uint256"
        },
        {
          "name": "_token",
          "type": "address"
        }
      ],
      "name": "balance",
      "outputs": [
        {
          "name": "",
          "type": "uint256"
        }
      ],
      "payable": false,
      "stateMutability": "view",
      "type": "function"
    },
    {
      "constant": true,
      "inputs": [
        {
          "name": "_vaultID",
          "type": "uint256"
        },
        {
          "name": "_token",
          "type": "address"
        }
      ],
      "name": "bountyPoolAmount",
      "outputs": [
        {
          "name": "",
          "type": "uint256"
        }
      ],
      "payable": false,
      "stateMutability": "view",
      "type": "function"
    }
  ],
  "bytecode": "0x6080604052336000806101000a81548173ffffffffffffffffffffffffffffffffffffffff021916908373ffffffffffffffffffffffffffffffffffffffff1602179055506000809054906101000a900473ffffffffffffffffffffffffffffffffffffffff1673ffffffffffffffffffffffffffffffffffffffff16600073ffffffffffffffffffffffffffffffffffffffff167f8be0079c531659141344cd1fd0a4f28419497f9722a3daafe3b4186f6b6457e060405160405180910390a3610e55806100cf6000396000f300608060405260043610610099576000357c0100000000000000000000000000000000000000000000000000000000900463ffffffff168063061399341461009e57806336cd52a6146100ff5780633e5d3a0514610176578063715018a6146101d75780638da5cb5b146101ee5780638f32d59b14610245578063d3d202fd14610274578063e4cca4b0146102c1578063f2fde38b14610338575b600080fd5b3480156100aa57600080fd5b506100e960048036038101908080359060200190929190803573ffffffffffffffffffffffffffffffffffffffff16906020019092919050505061037b565b6040518082815260200191505060405180910390f35b34801561010b57600080fd5b5061017460048036038101908080359060200190929190803573ffffffffffffffffffffffffffffffffffffffff169060200190929190803573ffffffffffffffffffffffffffffffffffffffff169060200190929190803590602001909291905050506103d6565b005b34801561018257600080fd5b506101c160048036038101908080359060200190929190803573ffffffffffffffffffffffffffffffffffffffff1690602001909291905050506104f5565b6040518082815260200191505060405180910390f35b3480156101e357600080fd5b506101ec610550565b005b3480156101fa57600080fd5b50610203610622565b604051808273ffffffffffffffffffffffffffffffffffffffff1673ffffffffffffffffffffffffffffffffffffffff16815260200191505060405180910390f35b34801561025157600080fd5b5061025a61064b565b604051808215151515815260200191505060405180910390f35b34801561028057600080fd5b506102bf60048036038101908080359060200190929190803573ffffffffffffffffffffffffffffffffffffffff1690602001909291905050506106a2565b005b3480156102cd57600080fd5b5061033660048036038101908080359060200190929190803573ffffffffffffffffffffffffffffffffffffffff169060200190929190803573ffffffffffffffffffffffffffffffffffffffff1690602001909291908035906020019092919050505061074b565b005b34801561034457600080fd5b50610379600480360381019080803573ffffffffffffffffffffffffffffffffffffffff169060200190929190505050610829565b005b60006001600084815260200190815260200160002060008373ffffffffffffffffffffffffffffffffffffffff1673ffffffffffffffffffffffffffffffffffffffff16815260200190815260200160002054905092915050565b838360006002600084815260200190815260200160002060008373ffffffffffffffffffffffffffffffffffffffff1673ffffffffffffffffffffffffffffffffffffffff168152602001908152602001600020541115156104a0576040517f08c379a00000000000000000000000000000000000000000000000000000000081526004018080602001828103825260178152602001807f546865207661756c74206973206e6f7420636c6f73656400000000000000000081525060200191505060405180910390fd5b6104a8610622565b73ffffffffffffffffffffffffffffffffffffffff163373ffffffffffffffffffffffffffffffffffffffff161415156104e157600080fd5b6104ed86868686610848565b505050505050565b60006002600084815260200190815260200160002060008373ffffffffffffffffffffffffffffffffffffffff1673ffffffffffffffffffffffffffffffffffffffff16815260200190815260200160002054905092915050565b61055861064b565b151561056357600080fd5b600073ffffffffffffffffffffffffffffffffffffffff166000809054906101000a900473ffffffffffffffffffffffffffffffffffffffff1673ffffffffffffffffffffffffffffffffffffffff167f8be0079c531659141344cd1fd0a4f28419497f9722a3daafe3b4186f6b6457e060405160405180910390a360008060006101000a81548173ffffffffffffffffffffffffffffffffffffffff021916908373ffffffffffffffffffffffffffffffffffffffff160217905550565b60008060009054906101000a900473ffffffffffffffffffffffffffffffffffffffff16905090565b60008060009054906101000a900473ffffffffffffffffffffffffffffffffffffffff1673ffffffffffffffffffffffffffffffffffffffff163373ffffffffffffffffffffffffffffffffffffffff1614905090565b6001600083815260200190815260200160002060008273ffffffffffffffffffffffffffffffffffffffff1673ffffffffffffffffffffffffffffffffffffffff168152602001908152602001600020546002600084815260200190815260200160002060008373ffffffffffffffffffffffffffffffffffffffff1673ffffffffffffffffffffffffffffffffffffffff168152602001908152602001600020819055505050565b838360006002600084815260200190815260200160002060008373ffffffffffffffffffffffffffffffffffffffff1673ffffffffffffffffffffffffffffffffffffffff16815260200190815260200160002054141515610815576040517f08c379a00000000000000000000000000000000000000000000000000000000081526004018080602001828103825260158152602001807f546865207661756c74206973206e6f74206f70656e000000000000000000000081525060200191505060405180910390fd5b61082186868686610a63565b505050505050565b61083161064b565b151561083c57600080fd5b61084581610ced565b50565b60008111151561085757600080fd5b8273ffffffffffffffffffffffffffffffffffffffff1663a9059cbb83836040518363ffffffff167c0100000000000000000000000000000000000000000000000000000000028152600401808373ffffffffffffffffffffffffffffffffffffffff1673ffffffffffffffffffffffffffffffffffffffff16815260200182815260200192505050602060405180830381600087803b1580156108fa57600080fd5b505af115801561090e573d6000803e3d6000fd5b505050506040513d602081101561092457600080fd5b8101908080519060200190929190505050151561094057600080fd5b6109a3816001600087815260200190815260200160002060008673ffffffffffffffffffffffffffffffffffffffff1673ffffffffffffffffffffffffffffffffffffffff16815260200190815260200160002054610de790919063ffffffff16565b6001600086815260200190815260200160002060008573ffffffffffffffffffffffffffffffffffffffff1673ffffffffffffffffffffffffffffffffffffffff168152602001908152602001600020819055508173ffffffffffffffffffffffffffffffffffffffff168373ffffffffffffffffffffffffffffffffffffffff16857ff2dbd98d79f00f7aff338b824931d607bfcc63d47307162470f25a055102d3b0846040518082815260200191505060405180910390a450505050565b60008114151515610a7357600080fd5b8173ffffffffffffffffffffffffffffffffffffffff163373ffffffffffffffffffffffffffffffffffffffff16141515610aad57600080fd5b8273ffffffffffffffffffffffffffffffffffffffff166323b872dd8330846040518463ffffffff167c0100000000000000000000000000000000000000000000000000000000028152600401808473ffffffffffffffffffffffffffffffffffffffff1673ffffffffffffffffffffffffffffffffffffffff1681526020018373ffffffffffffffffffffffffffffffffffffffff1673ffffffffffffffffffffffffffffffffffffffff1681526020018281526020019350505050602060405180830381600087803b158015610b8457600080fd5b505af1158015610b98573d6000803e3d6000fd5b505050506040513d6020811015610bae57600080fd5b81019080805190602001909291905050501515610bca57600080fd5b610c2d816001600087815260200190815260200160002060008673ffffffffffffffffffffffffffffffffffffffff1673ffffffffffffffffffffffffffffffffffffffff16815260200190815260200160002054610e0890919063ffffffff16565b6001600086815260200190815260200160002060008573ffffffffffffffffffffffffffffffffffffffff1673ffffffffffffffffffffffffffffffffffffffff168152602001908152602001600020819055508173ffffffffffffffffffffffffffffffffffffffff168373ffffffffffffffffffffffffffffffffffffffff16857f2c0f148b435140de488c1b34647f1511c646f7077e87007bacf22ef9977a16d8846040518082815260200191505060405180910390a450505050565b600073ffffffffffffffffffffffffffffffffffffffff168173ffffffffffffffffffffffffffffffffffffffff1614151515610d2957600080fd5b8073ffffffffffffffffffffffffffffffffffffffff166000809054906101000a900473ffffffffffffffffffffffffffffffffffffffff1673ffffffffffffffffffffffffffffffffffffffff167f8be0079c531659141344cd1fd0a4f28419497f9722a3daafe3b4186f6b6457e060405160405180910390a3806000806101000a81548173ffffffffffffffffffffffffffffffffffffffff021916908373ffffffffffffffffffffffffffffffffffffffff16021790555050565b600080838311151515610df957600080fd5b82840390508091505092915050565b6000808284019050838110151515610e1f57600080fd5b80915050929150505600a165627a7a72305820894666b4cabba2f8d69f6023108f43f455e283f5f814457b9e51e1a2a84f5f440029",
  "source": "pragma solidity 0.4.24;\n\nimport \"openzeppelin-solidity/contracts/ownership/Ownable.sol\";\nimport \"openzeppelin-solidity/contracts/math/SafeMath.sol\";\nimport \"openzeppelin-solidity/contracts/token/ERC20/ERC20.sol\";\n\n/**\n* A Smart contract including multiple Vaults identifiable by ID\n* Every Vault has the possibility of storing multiple ERC20 tokens\n* Don't send tokens directly to this contract using transfer or your funds may be lost, instead, use deposit.\n* Inspired by AragonOS Vault https://github.com/aragon/aragon-apps/blob/master/apps/vault/contracts/Vault.sol\n*/\n\n\ncontract Vault is Ownable {\n    using SafeMath for uint256;\n\n    event Transfer(uint256 indexed id, address indexed token, address indexed to, uint256 amount);\n    event Deposit(uint256 indexed id, address indexed token, address indexed sender, uint256 amount);\n\n    mapping (uint256 => mapping (address => uint256)) vaultBalance;\n    \n    mapping (uint256 => mapping (address => uint256)) vaultClosingValues;\n\n    \n  \n\n    /**\n    * @dev Close the vault for `_token` the vault `_period`\n    * @param _vaultID ID of the vault where tokens are being deposited\n    * @param _token Address of the token being transferred\n    */\n\n    function close(uint256 _vaultID, address _token) external{\n    \tvaultClosingValues[_vaultID][_token] = vaultBalance[_vaultID][_token];\n    }\n\n    modifier vaultIsClosed(uint256 _vaultID, address _token){\n    \trequire(vaultClosingValues[_vaultID][_token] > 0,\"The vault is not closed\");\n\t_;\n    }\n   \n    modifier vaultIsOpen(uint256 _vaultID, address _token){\n    \trequire(vaultClosingValues[_vaultID][_token] == 0,\"The vault is not open\");\n\t_;\n    }\n\n\n    /**\n    * @dev Deposit `_value` `_token` to the vault\n    * @param _vaultID ID of the vault where tokens are being deposited\n    * @param _token Address of the token being transferred\n    * @param _from Entity that currently owns the tokens\n    * @param _value Amount of tokens being transferred\n    */\n\n    function deposit(uint256 _vaultID, address _token, address _from, uint256 _value) external \n    vaultIsOpen(_vaultID, _token)\n    {\n\t_deposit(_vaultID, _token, _from, _value);\n    }\n\n    /**\n    * @dev Transfer `_value` `_token` from the Vault to `_to`\n    * @param _vaultID ID of the vault where tokens are being tranferred\n    * @param _token Address of the token being transferred\n    * @param _to Address of the recipient of tokens\n    * @param _value Amount of tokens being transferred\n    */\n\n    function transfer(uint256 _vaultID, address _token, address _to, uint256 _value)\n        external vaultIsClosed(_vaultID, _token)\n    {\n        require(msg.sender == owner());\n        _transfer(_vaultID, _token, _to, _value);\n    }\n\n    /**\n    * @dev Returns balance given a `_vaultID`\n    * @param _vaultID Identifier of the vault where the tokens have been deposited\n    * @param _token Adress of the ERC20 token\n    */\n\n    function balance(uint256 _vaultID, address _token) public view returns (uint256) {\n        return vaultBalance[_vaultID][_token];\n    }\n\n\t/**\n    * @dev Returns bounty pool amount given a `_vaultID`\n    * @param _vaultID Identifier of the vault where the tokens have been deposited\n    * @param _token Adress of the ERC20 token\n    */\n\n    function bountyPoolAmount(uint256 _vaultID, address _token) public view returns (uint256) {\n        return vaultClosingValues[_vaultID][_token];\n    }\n\n \n\n    function _deposit(uint256 _vaultID, address _token, address _from, uint256 _value) internal {\n        require(_value != 0);\n        require(msg.sender == _from);\n        require(ERC20(_token).transferFrom(_from, this, _value));\n        vaultBalance[_vaultID][_token] = vaultBalance[_vaultID][_token].add(_value);\n        emit Deposit(_vaultID, _token, _from, _value);\n    }\n\n    function _transfer(uint256 _vaultID, address _token, address _to, uint256 _value) internal {\n        require(_value > 0);\n        require(ERC20(_token).transfer(_to, _value));\n        vaultBalance[_vaultID][_token] = vaultBalance[_vaultID][_token].sub(_value);\n        emit Transfer(_vaultID, _token, _to, _value);\n    }\n}\n",
  "sourcePath": "/Users/boss/git/frontier/trl-project/TRL/contracts/Vault.sol",
  "compiler": {
    "name": "solc",
    "version": "0.4.24+commit.e67f0147.Emscripten.clang"
  },
  "schemaVersion": "2.0.1",
  "updatedAt": "2018-11-22T12:54:35.991Z"
}