{
  "contractName": "Vault",
  "abi": [
    {
      "constant": false,
      "inputs": [],
      "name": "renounceOwnership",
      "outputs": [],
      "payable": false,
      "stateMutability": "nonpayable",
      "type": "function"
    },
    {
      "constant": true,
      "inputs": [],
      "name": "owner",
      "outputs": [
        {
          "name": "",
          "type": "address"
        }
      ],
      "payable": false,
      "stateMutability": "view",
      "type": "function"
    },
    {
      "constant": true,
      "inputs": [],
      "name": "isOwner",
      "outputs": [
        {
          "name": "",
          "type": "bool"
        }
      ],
      "payable": false,
      "stateMutability": "view",
      "type": "function"
    },
    {
      "constant": false,
      "inputs": [
        {
          "name": "newOwner",
          "type": "address"
        }
      ],
      "name": "transferOwnership",
      "outputs": [],
      "payable": false,
      "stateMutability": "nonpayable",
      "type": "function"
    },
    {
      "anonymous": false,
      "inputs": [
        {
          "indexed": true,
          "name": "id",
          "type": "uint256"
        },
        {
          "indexed": true,
          "name": "token",
          "type": "address"
        },
        {
          "indexed": true,
          "name": "to",
          "type": "address"
        },
        {
          "indexed": false,
          "name": "amount",
          "type": "uint256"
        }
      ],
      "name": "Transfer",
      "type": "event"
    },
    {
      "anonymous": false,
      "inputs": [
        {
          "indexed": true,
          "name": "id",
          "type": "uint256"
        },
        {
          "indexed": true,
          "name": "token",
          "type": "address"
        },
        {
          "indexed": true,
          "name": "sender",
          "type": "address"
        },
        {
          "indexed": false,
          "name": "amount",
          "type": "uint256"
        }
      ],
      "name": "Deposit",
      "type": "event"
    },
    {
      "anonymous": false,
      "inputs": [
        {
          "indexed": true,
          "name": "previousOwner",
          "type": "address"
        },
        {
          "indexed": true,
          "name": "newOwner",
          "type": "address"
        }
      ],
      "name": "OwnershipTransferred",
      "type": "event"
    },
    {
      "constant": false,
      "inputs": [
        {
          "name": "_vaultID",
          "type": "uint256"
        },
        {
          "name": "_token",
          "type": "address"
        },
        {
          "name": "_from",
          "type": "address"
        },
        {
          "name": "_value",
          "type": "uint256"
        }
      ],
      "name": "deposit",
      "outputs": [],
      "payable": false,
      "stateMutability": "nonpayable",
      "type": "function"
    },
    {
      "constant": false,
      "inputs": [
        {
          "name": "_vaultID",
          "type": "uint256"
        },
        {
          "name": "_token",
          "type": "address"
        },
        {
          "name": "_to",
          "type": "address"
        },
        {
          "name": "_value",
          "type": "uint256"
        }
      ],
      "name": "transfer",
      "outputs": [],
      "payable": false,
      "stateMutability": "nonpayable",
      "type": "function"
    },
    {
      "constant": true,
      "inputs": [
        {
          "name": "_vaultID",
          "type": "uint256"
        },
        {
          "name": "_token",
          "type": "address"
        }
      ],
      "name": "balance",
      "outputs": [
        {
          "name": "",
          "type": "uint256"
        }
      ],
      "payable": false,
      "stateMutability": "view",
      "type": "function"
    }
  ],
  "bytecode": "0x6080604052336000806101000a81548173ffffffffffffffffffffffffffffffffffffffff021916908373ffffffffffffffffffffffffffffffffffffffff1602179055506000809054906101000a900473ffffffffffffffffffffffffffffffffffffffff1673ffffffffffffffffffffffffffffffffffffffff16600073ffffffffffffffffffffffffffffffffffffffff167f8be0079c531659141344cd1fd0a4f28419497f9722a3daafe3b4186f6b6457e060405160405180910390a3610af5806100cf6000396000f300608060405260043610610083576000357c0100000000000000000000000000000000000000000000000000000000900463ffffffff168063061399341461008857806336cd52a6146100e9578063715018a6146101605780638da5cb5b146101775780638f32d59b146101ce578063e4cca4b0146101fd578063f2fde38b14610274575b600080fd5b34801561009457600080fd5b506100d360048036038101908080359060200190929190803573ffffffffffffffffffffffffffffffffffffffff1690602001909291905050506102b7565b6040518082815260200191505060405180910390f35b3480156100f557600080fd5b5061015e60048036038101908080359060200190929190803573ffffffffffffffffffffffffffffffffffffffff169060200190929190803573ffffffffffffffffffffffffffffffffffffffff16906020019092919080359060200190929190505050610312565b005b34801561016c57600080fd5b50610175610365565b005b34801561018357600080fd5b5061018c610437565b604051808273ffffffffffffffffffffffffffffffffffffffff1673ffffffffffffffffffffffffffffffffffffffff16815260200191505060405180910390f35b3480156101da57600080fd5b506101e3610460565b604051808215151515815260200191505060405180910390f35b34801561020957600080fd5b5061027260048036038101908080359060200190929190803573ffffffffffffffffffffffffffffffffffffffff169060200190929190803573ffffffffffffffffffffffffffffffffffffffff169060200190929190803590602001909291905050506104b7565b005b34801561028057600080fd5b506102b5600480360381019080803573ffffffffffffffffffffffffffffffffffffffff1690602001909291905050506104c9565b005b60006001600084815260200190815260200160002060008373ffffffffffffffffffffffffffffffffffffffff1673ffffffffffffffffffffffffffffffffffffffff16815260200190815260200160002054905092915050565b61031a610437565b73ffffffffffffffffffffffffffffffffffffffff163373ffffffffffffffffffffffffffffffffffffffff1614151561035357600080fd5b61035f848484846104e8565b50505050565b61036d610460565b151561037857600080fd5b600073ffffffffffffffffffffffffffffffffffffffff166000809054906101000a900473ffffffffffffffffffffffffffffffffffffffff1673ffffffffffffffffffffffffffffffffffffffff167f8be0079c531659141344cd1fd0a4f28419497f9722a3daafe3b4186f6b6457e060405160405180910390a360008060006101000a81548173ffffffffffffffffffffffffffffffffffffffff021916908373ffffffffffffffffffffffffffffffffffffffff160217905550565b60008060009054906101000a900473ffffffffffffffffffffffffffffffffffffffff16905090565b60008060009054906101000a900473ffffffffffffffffffffffffffffffffffffffff1673ffffffffffffffffffffffffffffffffffffffff163373ffffffffffffffffffffffffffffffffffffffff1614905090565b6104c384848484610703565b50505050565b6104d1610460565b15156104dc57600080fd5b6104e58161098d565b50565b6000811115156104f757600080fd5b8273ffffffffffffffffffffffffffffffffffffffff1663a9059cbb83836040518363ffffffff167c0100000000000000000000000000000000000000000000000000000000028152600401808373ffffffffffffffffffffffffffffffffffffffff1673ffffffffffffffffffffffffffffffffffffffff16815260200182815260200192505050602060405180830381600087803b15801561059a57600080fd5b505af11580156105ae573d6000803e3d6000fd5b505050506040513d60208110156105c457600080fd5b810190808051906020019092919050505015156105e057600080fd5b610643816001600087815260200190815260200160002060008673ffffffffffffffffffffffffffffffffffffffff1673ffffffffffffffffffffffffffffffffffffffff16815260200190815260200160002054610a8790919063ffffffff16565b6001600086815260200190815260200160002060008573ffffffffffffffffffffffffffffffffffffffff1673ffffffffffffffffffffffffffffffffffffffff168152602001908152602001600020819055508173ffffffffffffffffffffffffffffffffffffffff168373ffffffffffffffffffffffffffffffffffffffff16857ff2dbd98d79f00f7aff338b824931d607bfcc63d47307162470f25a055102d3b0846040518082815260200191505060405180910390a450505050565b6000811415151561071357600080fd5b8173ffffffffffffffffffffffffffffffffffffffff163373ffffffffffffffffffffffffffffffffffffffff1614151561074d57600080fd5b8273ffffffffffffffffffffffffffffffffffffffff166323b872dd8330846040518463ffffffff167c0100000000000000000000000000000000000000000000000000000000028152600401808473ffffffffffffffffffffffffffffffffffffffff1673ffffffffffffffffffffffffffffffffffffffff1681526020018373ffffffffffffffffffffffffffffffffffffffff1673ffffffffffffffffffffffffffffffffffffffff1681526020018281526020019350505050602060405180830381600087803b15801561082457600080fd5b505af1158015610838573d6000803e3d6000fd5b505050506040513d602081101561084e57600080fd5b8101908080519060200190929190505050151561086a57600080fd5b6108cd816001600087815260200190815260200160002060008673ffffffffffffffffffffffffffffffffffffffff1673ffffffffffffffffffffffffffffffffffffffff16815260200190815260200160002054610aa890919063ffffffff16565b6001600086815260200190815260200160002060008573ffffffffffffffffffffffffffffffffffffffff1673ffffffffffffffffffffffffffffffffffffffff168152602001908152602001600020819055508173ffffffffffffffffffffffffffffffffffffffff168373ffffffffffffffffffffffffffffffffffffffff16857f2c0f148b435140de488c1b34647f1511c646f7077e87007bacf22ef9977a16d8846040518082815260200191505060405180910390a450505050565b600073ffffffffffffffffffffffffffffffffffffffff168173ffffffffffffffffffffffffffffffffffffffff16141515156109c957600080fd5b8073ffffffffffffffffffffffffffffffffffffffff166000809054906101000a900473ffffffffffffffffffffffffffffffffffffffff1673ffffffffffffffffffffffffffffffffffffffff167f8be0079c531659141344cd1fd0a4f28419497f9722a3daafe3b4186f6b6457e060405160405180910390a3806000806101000a81548173ffffffffffffffffffffffffffffffffffffffff021916908373ffffffffffffffffffffffffffffffffffffffff16021790555050565b600080838311151515610a9957600080fd5b82840390508091505092915050565b6000808284019050838110151515610abf57600080fd5b80915050929150505600a165627a7a723058203f9eb55a7f23aecd5619a8185d2b226fa391a1daa0522b37f5a33573cb60acb00029",
  "source": "pragma solidity 0.4.24;\n\nimport \"openzeppelin-solidity/contracts/ownership/Ownable.sol\";\nimport \"openzeppelin-solidity/contracts/math/SafeMath.sol\";\nimport \"openzeppelin-solidity/contracts/token/ERC20/ERC20.sol\";\n\n/**\n* A Smart contract including multiple Vaults identifiable by ID\n* Every Vault has the possibility of storing multiple ERC20 tokens\n* Don't send tokens directly to this contract using transfer or your funds may be lost, instead, use deposit.\n* Inspired by AragonOS Vault https://github.com/aragon/aragon-apps/blob/master/apps/vault/contracts/Vault.sol\n*/\n\n\ncontract Vault is Ownable {\n    using SafeMath for uint256;\n\n    event Transfer(uint256 indexed id, address indexed token, address indexed to, uint256 amount);\n    event Deposit(uint256 indexed id, address indexed token, address indexed sender, uint256 amount);\n\n    mapping (uint256 => mapping (address => uint256)) vaultBalance;\n\n\n    /**\n    * @dev Deposit `_value` `_token` to the vault\n    * @param _vaultID ID of the vault where tokens are being deposited\n    * @param _token Address of the token being transferred\n    * @param _from Entity that currently owns the tokens\n    * @param _value Amount of tokens being transferred\n    */\n\n    function deposit(uint256 _vaultID, address _token, address _from, uint256 _value) external {\n        _deposit(_vaultID, _token, _from, _value);\n    }\n\n    /**\n    * @dev Transfer `_value` `_token` from the Vault to `_to`\n    * @param _vaultID ID of the vault where tokens are being tranferred\n    * @param _token Address of the token being transferred\n    * @param _to Address of the recipient of tokens\n    * @param _value Amount of tokens being transferred\n    */\n\n    function transfer(uint256 _vaultID, address _token, address _to, uint256 _value)\n        external\n    {\n        require(msg.sender == owner());\n        _transfer(_vaultID, _token, _to, _value);\n    }\n\n    /**\n    * @dev Returns balance given a `_vaultID`\n    * @param _vaultID Identifier of the vault where the tokens have been deposited\n    * @param _token Adress of the ERC20 token\n    */\n\n    function balance(uint256 _vaultID, address _token) public view returns (uint256) {\n        return vaultBalance[_vaultID][_token];\n    }\n\n    function _deposit(uint256 _vaultID, address _token, address _from, uint256 _value) internal {\n        require(_value != 0);\n        require(msg.sender == _from);\n        require(ERC20(_token).transferFrom(_from, this, _value));\n        vaultBalance[_vaultID][_token] = vaultBalance[_vaultID][_token].add(_value);\n        emit Deposit(_vaultID, _token, _from, _value);\n    }\n\n    function _transfer(uint256 _vaultID, address _token, address _to, uint256 _value) internal {\n        require(_value > 0);\n        require(ERC20(_token).transfer(_to, _value));\n        vaultBalance[_vaultID][_token] = vaultBalance[_vaultID][_token].sub(_value);\n        emit Transfer(_vaultID, _token, _to, _value);\n    }\n}",
  "sourcePath": "/Users/boss/git/frontier/trl-project/TRL/contracts/Vault.sol",
  "compiler": {
    "name": "solc",
    "version": "0.4.24+commit.e67f0147.Emscripten.clang"
  },
  "schemaVersion": "2.0.1",
  "updatedAt": "2018-11-13T20:25:13.594Z"
}