{
  "contractName": "Yearly",
  "abi": [
    {
      "constant": true,
      "inputs": [],
      "name": "creationBlock",
      "outputs": [
        {
          "name": "",
          "type": "uint256"
        }
      ],
      "payable": false,
      "stateMutability": "view",
      "type": "function"
    },
    {
      "constant": true,
      "inputs": [],
      "name": "creationTimestamp",
      "outputs": [
        {
          "name": "",
          "type": "uint256"
        }
      ],
      "payable": false,
      "stateMutability": "view",
      "type": "function"
    },
    {
      "constant": true,
      "inputs": [],
      "name": "getLength",
      "outputs": [
        {
          "name": "",
          "type": "uint256"
        }
      ],
      "payable": false,
      "stateMutability": "view",
      "type": "function"
    },
    {
      "constant": true,
      "inputs": [
        {
          "name": "_timestamp",
          "type": "uint256"
        }
      ],
      "name": "heightOf",
      "outputs": [
        {
          "name": "",
          "type": "uint256"
        }
      ],
      "payable": false,
      "stateMutability": "view",
      "type": "function"
    },
    {
      "constant": true,
      "inputs": [],
      "name": "height",
      "outputs": [
        {
          "name": "",
          "type": "uint256"
        }
      ],
      "payable": false,
      "stateMutability": "view",
      "type": "function"
    }
  ],
  "bytecode": "0x60806040524260008190555043600181905550610275806100216000396000f30060806040526004361061006d576000357c0100000000000000000000000000000000000000000000000000000000900463ffffffff1680630ef2674314610072578063176345141461009d578063b3311086146100c8578063be1c766b146100f3578063c23c39d31461011e575b600080fd5b34801561007e57600080fd5b5061008761015f565b6040518082815260200191505060405180910390f35b3480156100a957600080fd5b506100b261016f565b6040518082815260200191505060405180910390f35b3480156100d457600080fd5b506100dd610179565b6040518082815260200191505060405180910390f35b3480156100ff57600080fd5b50610108610182565b6040518082815260200191505060405180910390f35b34801561012a57600080fd5b506101496004803603810190808035906020019092919050505061018b565b6040518082815260200191505060405180910390f35b600061016a4261018b565b905090565b6000600154905090565b60008054905090565b60006001905090565b600073__DateTime______________________________63ff2258cb836101b0610179565b6040518363ffffffff167c0100000000000000000000000000000000000000000000000000000000028152600401808381526020018281526020019250505060206040518083038186803b15801561020757600080fd5b505af415801561021b573d6000803e3d6000fd5b505050506040513d602081101561023157600080fd5b810190808051906020019092919050505090509190505600a165627a7a72305820e4d94e3dbaaebe2ed2cda1ba4bbe980ec5738f2dc9a7e390151033f0df03a3290029",
  "source": "pragma solidity 0.4.24;\n\nimport \"./DateTime.sol\";\nimport \"../IPeriod.sol\";\nimport \"../Traceable.sol\";\n\ncontract Yearly is IPeriod, Traceable {\n    using DateTime for *;\n    \n    function getLength() public view returns(uint256) {\n        return 1;\n    }\n\n    function heightOf(uint256 _timestamp) public view returns(uint256) {\n        return DateTime.diffYears(_timestamp, creationTimestamp());\n    }\n\n    function height() public view returns (uint256) {\n        return heightOf(block.timestamp);\n    }\n}",
  "sourcePath": "/Users/carlosbuendia/Documents/Projects/consensys/Frontier/cron/contracts/calendar/Yearly.sol",
  "compiler": {
    "name": "solc",
    "version": "0.4.24+commit.e67f0147.Emscripten.clang"
  },
  "schemaVersion": "2.0.0",
  "updatedAt": "2018-11-28T10:24:51.853Z"
}